:100000000C9491060C94AE060C94AE060C94AE06BD
:100010000C94AE060C94AE060C94AE060C94AE0690
:100020000C94AE060C94AE060C94AE060C94AE0680
:100030000C94AE060C94AE060C94A51F0C946A1F8B
:100040000C946F350C94A6200C94AE060C94AE065E
:100050000C94AE060C94AE060C94AE060C94AE0650
:100060000C94AE060C94AE06036EDB363D9A99995D
:10007000993DABAAAA2A3E000000803F084AD73B20
:100080003BCE016E84BCBFFDC12F3D6C74319ABD67
:1000900056833DDA3D00C77F11BED9E4BB4C3E918B
:1000A0006BAAAABE000000803F072C7AA5BA6CC5D7
:1000B00090DA3B9365FC8BBC53F810FD3C56928361
:1000C0004DBD879D3AB63DCBC9BF5BBE73DA0FC944
:1000D0003F00007000000000240000000200030048
:1000E0000000650054FFEF0000FA80000B12820050
:1000F00001030C30C30E8C8CE914D5400213710F30
:100100008E3883F8833000F883258EF8833000F82A
:1001100083FFFFFFFF0FFEA9D6240004001A827997
:10012000A10000003CFFFF00000010000038836FBA
:10013000A2003E03304000000002CAE3093E8000F6
:1001400000200000000000000040000000600000EF
:1001500000000C0000000C186E000006920A16C089
:10016000DFFFFF0256FD8CD377FFE1C496E0C5BEEA
:10017000AA00000000FFFF0B2B0000165700000331
:10018000594000000000001DFA00026C1D00000034
:10019000003FFFDFEB003EB3B6000D227800002FDA
:1001A0003C00000000001942B5000039A20000B375
:1001B00065D90E9FC91DCF4C34300000005000009F
:1001C000003BB67AE80064000000C80000000000B0
:1001D00000100000001000FA921000225E000D22B4
:1001E0009F0001000000320000FF46000063D400C1
:1001F000001000000004D6000004CC000004CC0075
:10020000000000107200000040000000000000002C
:100210000000060002000500070000000000640066
:100220000000000000000000050005006400200040
:10023000000000000000000000000040000000037B
:100240000000000032F8980000FF650000830F00F6
:1002500000FF9BFC00000000000000000000000008
:10026000000000000000000000000000000000008E
:10027000000000000000000000000000000000106E
:100280000040000000000000060000B26A0002000A
:10029000000001FB830068000000D9FC007CF1FF36
:1002A000830000000000650000006403E8006400B3
:1002B00028000000250000000016A000000000102B
:1002C0000000001000002F0000000001F4000010EA
:1002D0000000280000FFFF4581FFFFFA72000000C8
:1002E0000000000000004400050005BAC600477881
:1002F000A200000001000000000000060000000055
:10030000140000254D002F706D000005AE000C029A
:10031000D00000000000000000000000000000000D
:1003200000001B00000000000000000000000000B2
:100330000000640000000800000000000000000051
:1003400000000000000000000000000000000000AD
:10035000000000000000000000000000000000009D
:10036000000000000000000000000000000000008D
:10037000000000000000000000000000000000007D
:10038000000000000000000000000000000000006D
:1003900000001B00000000000000000000000E0034
:1003A0000E00000AC70004000000000032FFFFFF3B
:1003B0009C00000B2B000000020000000100000068
:1003C00064FFE500000000000000000000000000E5
:1003D000000000000100000000000100000000001B
:1003E0000000018000000180000001800000242640
:1003F000D30000000000000000000600100096007E
:100400003C000000000000000000000000000000B0
:10041000000C0A4E68CDCF770950166759C619CE21
:10042000820000000000000000000000000000004A
:1004300000000000000000000017D7840003000047
:10044000000000000000000000C7938F9D1E1B1CD1
:100450001900000000000000000000000000000083
:1004600000000000000000000002031885000040AA
:100470000000000003000000030000000000000076
:10048000004000000000000000000000000000002C
:10049000000000000000000000000000000000005C
:1004A000000000000000000000000000000000004C
:1004B0000000000000677DDF7E72902E554CF6E64E
:1004C00088000000000000000000000000000000A4
:1004D00000D8DCB4B8B0D8B9ABF3F8FAB3B7BB8E78
:1004E0009EAEF132F51BF1B4B8B08097F1A9DFDF11
:1004F000DFAADFDFDFF2AAC5CDC7A90CC92C97F1AF
:10050000A989264666B28999A92D557DB0B08AA8D9
:1005100096365676F1BAA3B4B280C0B8A89711B295
:100520008398BAA3F0240844106418B2B9B498832D
:10053000F1A329557DBAB5B1A38393F0002850F5F6
:10054000B2B6AA839328547CF1B9A3829361BAA26C
:10055000DADEDFDB819AB9AEF5606870F1DABAA253
:10056000DFD9BAA2FAB9A38292DB31BAA2D9BAA270
:10057000F8DF85A4D0C1BBAD83C2C5C7B8A2DFDF99
:10058000DFBAA0DFDFDFD8D8F1B8AAB38DB4980DF9
:10059000355DB2B6BAAF8C96198F9FA70E161EB4F2
:1005A0009AB8AA872C547CBAA4B08AB691325676EF
:1005B000B28494A4C808CDD8B8B4B0F19982A82D5B
:1005C000557D98A80E161EA22C547C92A4F02C5097
:1005D00078F184A898C4CDFCD80DDBA8FC2DF3D904
:1005E000BAA6F8DABAA6DED8BAB2B68696A6D0F31C
:1005F000C841DAA6C8F8D8B0B4B882A892F52C548D
:100600008898F135D9F418D8F1A2D0F8F9A884D98E
:10061000C7DFF8F883C5DADF69DF83C1D8F40114D6
:10062000F1A8824EA884F311D182F5D99228978837
:10063000F109F41C1CD884A8F3C0F9D1D99782F130
:1006400029F40DD8F3F9F9D1D982F4C203D8DEDF49
:100650001AD8F1A2FAF9A88498D9C7DFF8F8F88374
:10066000C7DADF69DFF883C3D8F40114F198A882F0
:100670002EA884F311D182F5D992509788F109F40C
:100680001CD884A8F3C0F8F9D1D99782F149F40DA8
:10069000D8F3F9F9D1D982F4C403D8DEDFD8F1ADAB
:1006A0008898CCA809F9D98292A8F57CF1883ACF2C
:1006B000944A6E98DB6931DAADF2DEF9D88795A8F5
:1006C000F221D1DAA5F9F417D9F1AE8ED0C0C3AEBC
:1006D00082C684C3A88595C8A588F2C0F1F4010E2E
:1006E000F18E9EA8C63E56F554F18872F40115F1BC
:1006F0009845856EF58E9E0488F142985A8E9E0626
:100700008869F4011CF1981E1108D0F504F11E97B8
:100710000202983625DBF9D985A5F3C1DA85A5F360
:10072000DFD88595A8F309DAA5FAD88292A8F578DA
:10073000F1881A849F26889821DAF41DF3D8879FC0
:1007400039D1AFD9DFDFFBF9F40CF3D8FAD0F8DAFE
:10075000F9F9D0DFD9F9D8F40BD8F3879F39D1AFA5
:10076000D9DFDFF41DF3D8FAFCA869F9F9AFD0DAC4
:10077000DEFAD9F88F9FA8F1CCF398DB45D9AFDF2B
:10078000D0F8D8F18F9FA8CAF38809DAAF8FCBF8D9
:10079000D8F2AD978D0CD9A5DFF9BAA6F3FAF41209
:1007A000F2D8950DD1D9BAA6F3FADAA5F2C1BAA654
:1007B000F3DFD8F1BAB2B68696A6D0CAF349DAA664
:1007C000CBF8D8B0B4B8D8AD84F2C0DFF18FCBC3CA
:1007D000A8B2B68696C8C1CBC3F3B0B48898A82196
:1007E000DB718D9D71859521D9ADF2FAD88597A8D9
:1007F00028D9F408D8F28D29DAF405D9F285A4C2F3
:10080000F2D8A88D9401D1D9F411F2D88721D8F467
:100810000AD8F28498A8C801D1D9F411D8F3A4C891
:10082000BBAFD0F2DEF8F8F8F8F8F8F8F8D8F1B87D
:10083000F6B5B9B08A95A3DE3CA3D9F8D85CA3D9A4
:10084000F8D87CA3D9F8D8F8F9D1A5D9DFDAFAD845
:10085000B18530F7D9DED8F830ADDADED8F2B48C15
:1008600099A32D557DA083DFDFDFB591A0F629D9AF
:10087000FBD8A0FC29D9FAD8A0D051D9F8D8FC517E
:10088000D9F9D879D9FBD8A0D0FC79D9FAD8A1F96F
:10089000F9F9F9F9A0DADFDFDFD8A1F8F8F8F8F80C
:1008A000ACDEF8ADDE8393AC2C547CF1A8DFDFDF47
:1008B000F69D2CDAA0DFD9FADB2DF8D8A850DAA003
:1008C000D0DED9D0F8F8F8DB55F8D8A878DAA0D07F
:1008D000DFD9D0FAF8F8F8F8DB7DF8D89CA88CF5C9
:1008E00030DB38D9D0DEDFA0D0DEDFD8A848DB5837
:1008F000D9DFD0DEA0DFD0DED8A868DB70D9DFDF9B
:10090000A0DFDFD8F1A888902C547C98A8D05C3860
:10091000D1DAF2AE8CDFF9D8B087A8C1C1B188A80E
:10092000C6F9F9DA36D8A8F9DA36D8A8F9DA36D815
:10093000A8F9DA36D8A8F9DA36D8F78D9DADF818C7
:10094000DAF2AEDFD8F7ADFA30D9A4DEF9D8F2AEDC
:10095000DEFAF983A7D9C3C5C7F1889BA77AADF79B
:10096000DEDFA4F8849408A797F300AEF29819A4E8
:1009700088C6A39488F632DFF28393DB09D9F2AA02
:10098000DFD8D8AEF8F9D1DAF3A4DEA7F1889B7AE4
:10099000D8F38494AE19F9DAAAF1DFD8A881C0C3DC
:1009A000C5C7A39283F628ADDED9F8D8A350ADD938
:1009B000F8D8A378ADD9F8D8F8F9D1A1DADEC3C553
:1009C000C7D8A18194F818F2B089ACC3C5C7F1D8D3
:1009D000B8B4B09786A8319B069907AB9728889B37
:1009E000F00C201440B0B4B8F0A88A9A285078B718
:1009F0009BA8295179247059446938644831F1BB66
:100A0000AB88002C547CF0B38BB8A804285078F144
:100A1000B088B49726A85998BBABB38B022646661C
:100A2000B0B8F08A9CA82951798B2951798A247011
:100A3000598B2058718A4469388B3940688A6448D8
:100A4000318B30496088F1AC002C547CF08CA804C8
:100A5000285078F1889726A85998AC8C02264666CB
:100A6000F0899CA829517924705944693864483127
:100A7000A98809205970AB11384069A8193148601C
:100A80008CA83C415C207C00F187981986A86E7682
:100A90007EA999882D557DD8B1B5B9A3DFDFDFAE2A
:100AA000D0DFAAD0DEF2ABF8F9D9B087C4AAF1DF63
:100AB000DFBBAFDFDFB9D8B1F1A3978E60DFB084C1
:100AC000F2C8F8F9D9DED89385F14AB183A308B505
:100AD000839A0810B79F10D8F1B0BAAEB08AC2B2EC
:100AE000B68E9EF1FBD9F41DD8F9D90CF1D8F8F8DF
:100AF000AD61D9AEFBD8F40CF1D8F8F8AD19D9AE88
:100B0000FBDFD8F416F1D8F8AD8D61D9F4F4ACF56B
:100B10009C9C8DDF2BBAB6AEFAF8F40BD8F1AED0B0
:100B2000F8AD51DAAEFAF8F1D8B9B1B6A3839C08A2
:100B3000B9B1839AB5AAC0FD3083B79F10B58B9326
:100B4000F20202D1ABDADED8F1B080BAABC0C3B2E8
:100B500084C1C3D8B1B9F38BA391B609B4D9ABDEC4
:100B6000B0879CB9A3DDF1B38B8B8B8B8BB087A344
:100B7000A3A3A3B28BB69BF2A3A3A3A3A3A3A3A3F4
:100B8000A3A3F1B087B59AA3F39BA3A3DCBAACDF10
:100B9000B9A3A3A3A3A3A3A3A3A3A3A3A3A3A3A30F
:100BA000A3D8D8D8BBB3B7F1AAF9DAFFD9809AAAEB
:100BB00028B48098A720B79787A86688F07951F164
:100BC000902C870CA781976293F0717160859401D6
:100BD00029517990A5F1284C6C870C95188578A33C
:100BE0008390284C6C886CD8F3A28200F210A892F3
:100BF0001980A2F2D926D8F188A84DD948D896A84C
:100C00003980D93CD89580A839A68698D92CDA871E
:100C1000A72CD8A8899519A980D938D8A88939A925
:100C200080DA3CD8A82EA83990D90CD8A89531984C
:100C3000D90CD8A809D9FFD801DAFFD89539A9DA93
:100C400026FFD890A80D8999A810809821DA2ED86F
:100C50008999A83180DA2ED8A886963180DA2ED8E4
:100C6000A8873180DA2ED8A88292F34180F1D92E5C
:100C7000D8A882F31980F1D92ED882ACF3C0A28013
:100C800022F1A62EA72EA92298A829DAACDEFFD839
:100C9000A2F22AF1A92E8292A8F23180A696F1D969
:100CA00000AC8C9C0C30ACDED0DEFFD88C9CACD081
:100CB00010ACDE8092A2F24C82A8F1CAF235F19615
:100CC00088A6D900D8F1FF00000000240027002AE0
:100CD0000000000000250028002B00000000002379
:100CE000002600290004040404040404040202028F
:100CF000020202030303030303010204081020405D
:100D000080010204081020010204081020000000E5
:100D100007000201000003040600000000000000BC
:100D2000000011241FBECFEFD8E0DEBFCDBF11E021
:100D3000A0E0B1E0E2E8F7E702C005900D92A2342E
:100D4000B107D9F714E0A2E4B1E001C01D92A93DBA
:100D5000B107E1F70E94CD370C94B0060C94000067
:100D6000F8940C94BF3BFB01DC0104C08D91019011
:100D7000801921F441505040C8F7881B990B089501
:100D8000FC011092BC00662319F088B1806302C098
:100D900088B18F7C88B91092B9009F01442737FD34
:100DA0004095542F60E87EE380E090E00E94823B13
:100DB0002051304040405040CA01B90122E030E0AB
:100DC00040E050E00E94823B2093B80084E0809392
:100DD000BC000895482F440F92E064EB54E8609300
:100DE000BC002AEF30E08091BC0087FD34C0215068
:100DF00030408FEF2F3F3807B1F727C08091B900FF
:100E0000887F883021F0803111F082E0089540938E
:100E1000BB005093BC002AEF30E08091BC0087FDFE
:100E20001EC0215030408FEF2F3F3807B1F70FC061
:100E30008091B900887F803221F4992351F091503C
:100E4000CECF883131F480E0089581E0089583E0C9
:100E5000089584E008951216130684F2F6CF121650
:100E6000130634F3F4CFEF92FF920F931F93162FD4
:100E7000E42E022FF32E0E94EA061093BB0084E8B2
:100E80008093BC002AEF30E08091BC0087FD07C052
:100E9000215030408FEF2F3F3807B1F703C01216B3
:100EA00013063CF0802F9F2D9C01F90190E044E84F
:100EB0001CC08091B900F6CF80818093BB00409325
:100EC000BC002AEF30E08091BC0087FD07C02150B4
:100ED00030408FEF2F3F3807B1F705C012161306C9
:100EE00014F48091B9009F5F31969E1528F384E930
:100EF0008093BC0081E01F910F91FF90EF900895C7
:100F00001F93F82F122F72E0B4EBE82FEE7FA4E8C6
:100F1000B093BC002AEF30E08091BC0087FDC3C0D5
:100F2000215030408FEF2F3F3807B1F7ACC0809190
:100F3000B900887F883021F0803111F091E1B0C094
:100F4000E093BB00A093BC002AEF30E08091BC008E
:100F500087FDAEC0215030408FEF2F3F3807B1F7EB
:100F600094C09091B900987F903229F4772309F4C6
:100F70008EC07150CDCF983109F089C06093BB000D
:100F800084E88093BC002AEF30E08091BC0087FDAC
:100F900094C0215030408FEF2F3F3807B1F779C010
:100FA0008091B900887F883211F095E179C062E0C4
:100FB000A4EB7F2F7160E4E8A093BC002AEF30E03F
:100FC0008091BC0087FD7EC0215030408FEF2F3FC5
:100FD0003807B1F760C08091B900887F883021F070
:100FE000803111F097E15CC07093BB00E093BC00CE
:100FF0002AEF30E08091BC0087FD69C0215030406D
:101000008FEF2F3F3807B1F74BC08091B900887F31
:10101000883429F4662309F440C06150CDCF803470
:10102000E1F5FA0160E0412F50E041505040A4EC5E
:1010300074E822C0862F90E08417950719F4709306
:10104000BC0002C0A093BC002AEF30E08091BC003D
:1010500087FD42C0215030408FEF2F3F3807B1F756
:101060001EC09091B900987F903511F09835C1F469
:101070008091BB0081936F5F6117E0F284E98093F8
:10108000BC0090E00DC090E10BC092E109C093E17B
:1010900007C094E105C096E103C099E101C09AE15F
:1010A000892F1F910895121613060CF440CFEBCF31
:1010B000121613060CF455CFE8CF121613060CF4D3
:1010C0006FCFE7CF121613060CF485CFE4CF1216BC
:1010D00013060CF49ACFE4CF1216130614F2DFCFE6
:1010E0001092BC0008957F928F929F92AF92BF9210
:1010F000CF92DF92EF92FF920F931F93CF93DF93E4
:10110000F82EE62E742E6901E8010E94B7354B01D6
:101110005C018F2D880F6E2DA601272D0E94800760
:10112000882311F01FEF01C0172D2097C1F00E94F6
:10113000B735681979098A099B099E0140E050E09A
:10114000621773078407950750F0212F332727FD77
:101150003095872D90E0281739070CF41FEF812F69
:10116000DF91CF911F910F91FF90EF90DF90CF9083
:10117000BF90AF909F908F907F900895892B19F02A
:101180002FEF3FEF1EC01092D4011092D30182E4E2
:1011900091E09093CC018093CB018CE691E0909309
:1011A000CE018093CD0188E791E09093D0018093A8
:1011B000CF018FE991E09093D2018093D10120E09B
:1011C00030E0C90108950F931F93CF93DF93C0912F
:1011D000CB01D091CC0185E7888389E189838AE1BD
:1011E0008A838CE08B838AE68C8383E28D838BE118
:1011F0008E838CE18F838FE18A8780E28B8782E701
:101200008C8784E78D8783E48E878BE38F8781E4E7
:10121000888B88E3898B89E38A8B8AE38B8B8BE6C7
:101220008D8B8CE68E8B87E38F8B8FE6888F86E0A5
:10123000898F84E28A8F8DE68B8F8EE68C8F80E794
:101240008D8F89E488A781E089A785E28E8F86E269
:101250008F8F87E288A388E289A389E28AA38AE242
:101260008BA384E38CA383E68DA384E68EA387E619
:101270008FA38091D3019091D401009719F0019729
:1012800069F406C0E091CD01F091CE0188E605C079
:10129000E091CD01F091CE0189E680830091CD01EE
:1012A0001091CE0180E094E0F8019283818386E77B
:1012B000838384E591E09583848387EF9DEF978313
:1012C000868380E091E09187808786E696E2938727
:1012D00082872091CF013091D00183E890E0A0E097
:1012E000B0E0F90180839183A283B38380E098E02A
:1012F000A0E0B0E084839583A683B783108681E065
:101300008187128688E1838782E390E095878487CE
:1013100085E0868780E090E0A0E2B1E48787908B4B
:10132000A18BB28B80E090E0A2EDB2E4838B948B32
:10133000A58BB68B49E25CE56FE07EE3478B508F6F
:10134000618F728F8AE999E9A9E9BEE3838F948F4F
:10135000A58FB68F83E393E3A3E7BFE3878F90A3C3
:10136000A1A3B2A343A354A365A376A3E091D101A3
:10137000F091D201D183C0831383028333A722A7C4
:10138000DF91CF911F910F910895DC01E091D10180
:10139000F091D2018681882319F081E08C9301C0FD
:1013A0001C9280E090E00895DF93CF930F92CDB729
:1013B000DEB7982FA091D101B091D2015D968C91AA
:1013C0005D97882321F0992389F082E00DC016965D
:1013D0008C9116978823E9F0992341F01C968C9103
:1013E0001C978823F9F481E0898301C01982129641
:1013F000ED91FC9113970D90BC91A02D8081519699
:101400006C9141E09E012F5F3F4F0E94330788237C
:1014100019F42FEF3FEF08C0E091D101F091D20114
:101420008981848720E030E0C9010F90CF91DF915E
:101430000895CF92DF92EF92FF920F931F93DF9365
:10144000CF9300D0CDB7DEB7D82EC92E8B017A014D
:101450004115510519F42FEF3FEF41C0E091D10143
:10146000F091D2018681882319F42EEF3FEF37C027
:10147000A281B3819B012D0D311D18968D919C91F8
:1014800019978217930718F42DEF3FEF28C0C982F0
:10149000DA820190F081E02D8C91638D42E09E0113
:1014A0002F5F3F4F0E943307882319F42CEF3FEF43
:1014B00016C0E091D101F091D201A281B3810190D7
:1014C000F081E02D8C91608D402F97010E943307B1
:1014D000882319F020E030E002C02BEF3FEFC90174
:1014E0000F900F90CF91DF911F910F91FF90EF9090
:1014F000DF90CF9008951F93DF93CF930F92CDB7D6
:10150000DEB7182FA091D101B091D2015C968C91D9
:101510005C97811781F1112319F080E3898301C061
:1015200019821D968C911D97882319F089818260FC
:1015300089835B968C915B97882319F089818068F9
:1015400089831296ED91FC9113970D90BC91A02D7B
:10155000808157966C9141E09E012F5F3F4F0E9422
:101560003307882319F42FEF3FEF07C0E091D10133
:10157000F091D201148F20E030E0C9010F90CF919B
:10158000DF911F910895DF93CF930F92CDB7DEB710
:10159000BC010097A9F12091D1013091D201D9016C
:1015A00019968D919C911A978617970748F1653681
:1015B000710530F50E945B3B61506983F9018281BE
:1015C0009381A081B181FC01808194966C9141E06E
:1015D0009E012F5F3F4F0E943307882389F0E091DF
:1015E000D101F091D201698170E06F5F7F4F8185F9
:1015F00092850E945B3B72A361A320E030E002C0B1
:101600002FEF3FEFC9010F90CF91DF910895DF9346
:10161000CF930F92CDB7DEB79C01A091D101B091CD
:10162000D20116968C911697882399F12C3B31059F
:1016300010F081E015C02236310510F082E010C0B4
:101640002A32310510F083E00BC02431310510F04F
:1016500084E006C02A30310510F085E001C086E044
:10166000898317969C91179789819817D9F01296BC
:10167000ED91FC9113970D90BC91A02D8081129655
:101680006C9141E09E012F5F3F4F0E9433078823FA
:1016900019F42FEF3FEF08C0E091D101F091D20192
:1016A0008981878320E030E0C9010F90CF91DF91DD
:1016B0000895DF93CF930F92CDB7DEB7982FA09107
:1016C000D101B091D20116968C9116978823A1F181
:1016D000943061F0953018F4923071F505C098306F
:1016E00039F0903149F506C0198206C088E003C080
:1016F00080E101C088E1898315962C91159730E02F
:10170000898190E043E0959587954A95E1F7281700
:10171000390709F11296ED91FC9113970D90BC9148
:10172000A02D808117966C9141E09E012F5F3F4F65
:101730000E943307882319F42FEF3FEF0EC0E0918A
:10174000D101F091D201898190E033E095958795A0
:101750003A95E1F7858320E030E0C9010F90CF9101
:10176000DF910895DF93CF930F92CDB7DEB79C0141
:10177000A091D101B091D20116968C911697882331
:10178000E1F181E0243F380791F081E0253F3807FF
:1017900020F42A3F310589F508C083E0283E380748
:1017A00041F0205D374049F506C0198206C088E047
:1017B00003C080E101C088E1898314962C911497BD
:1017C00030E0898190E063E0959587956A95E1F72F
:1017D0002817390709F11296ED91FC9113970D9096
:1017E000BC91A02D808116966C9141E09E012F5FE7
:1017F0003F4F0E943307882319F42FEF3FEF0EC0AD
:10180000E091D101F091D201898190E053E095956A
:1018100087955A95E1F7848320E030E0C9010F9065
:10182000CF91DF9108950F931F93DF93CF930F9282
:10183000CDB7DEB7A091D101B091D20116968C91AF
:101840001697882309F41BC119821296ED91FC9119
:1018500013970D90BC91A02D808151966C9141E021
:101860008E010F5F1F4F98010E943307882309F4F0
:1018700006C1E091D101F091D201A281B381019022
:10188000F081E02D8C91658141E098010E94330741
:10189000882309F4F4C0E091D101F091D201A28132
:1018A000B3810190F081E02D8C91648141E0980139
:1018B0000E943307882309F4E2C0A091D101B091BE
:1018C000D2015D968C915D97882309F469C08CE004
:1018D00089831296ED91FC9113970D90BC91A02DE8
:1018E000808114966C9141E098010E94330788230F
:1018F00009F4C5C062E370E080E090E00E94C53565
:1019000080EC8983A091D101B091D20116968C917F
:10191000169780FF02C080EE89831296ED91FC91AC
:1019200013970D90BC91A02D808114966C9141E08D
:101930009E012F5F3F4F0E943307882309F49FC009
:10194000A091D101B091D2011C968C911C97882353
:1019500019F082E0898301C019821296ED91FC9101
:1019600013970D90BC91A02D808151966C9141E010
:101970008E010F5F1F4F98010E943307882309F4DF
:101980007EC01982E091D101F091D201A281B38190
:101990000190F081E02D8C91658141E098016BC050
:1019A00084E089831296ED91FC9113970D90BC9180
:1019B000A02D808114966C9141E098010E9433071C
:1019C000882309F45CC0A091D101B091D2011D9689
:1019D0008C911D97882329F416968C91169780FD7B
:1019E00002C080E401C080E689831296ED91FC91EB
:1019F00013970D90BC91A02D808114966C9141E0BD
:101A00009E012F5F3F4F0E9433078823C1F162E39D
:101A100070E080E090E00E94C535A091D101B091C6
:101A2000D2011C968C911C97882319F081E0898340
:101A300001C019821296ED91FC9113970D90BC9103
:101A4000A02D808151966C9141E09E012F5F3F4F08
:101A50000E943307882399F0E091D101F091D201DF
:101A6000A281B381208131813B968C91D901159659
:101A70006C9141E09F010E943307882319F42FEFF6
:101A80003FEF02C020E030E0C9010F90CF91DF911D
:101A90001F910F9108950F931F93CF93DF93982F6A
:101AA000E091D101F091D201858D882319F0C0E039
:101AB000D0E029C08681882321F1192F1E7F03855C
:101AC00081238387811719F4C0E0D0E002C0CFEFF3
:101AD000DFEF112319F48785882331F081E00E941C
:101AE000D409112381F004C080E00E94D4090BC006
:101AF0000E94130C892B39F0E091D101F091D201B1
:101B00000387CFEFDFEFCE01DF91CF911F910F91D0
:101B100008951F93DF93CF9300D0CDB7DEB7182F72
:101B2000893208F058C08823F9F480E00E947B0ACB
:101B3000198287E08A83E091D101F091D201A281DC
:101B4000B3810190F081E02D8C91658942E09E0186
:101B50002F5F3F4F0E9433078823E9F1E091D101C5
:101B6000F091D201178646C081E00E947B0A80E294
:101B70008983113011F41A8204C0163028F481E0F0
:101B80008A8385E090E00BC0153128F482E08A83D7
:101B90008AE090E004C083E08A8384E190E00E94C0
:101BA000070B8A818295880F880F807C87608A83E3
:101BB000E091D101F091D201A281B3810190F08135
:101BC000E02D8C91658942E09E012F5F3F4F0E947E
:101BD0003307882319F42FEF3FEF0EC0E091D101B6
:101BE000F091D20188E08683108681E0878780E0CB
:101BF0000E944B0D20E030E0C9010F900F90CF9173
:101C0000DF911F9108950F931F93DF93CF930F924E
:101C1000CDB7DEB78C01E091D101F091D201868180
:101C20008823B9F1858D8823A1F58785882359F00C
:101C3000C8010197889720F4802F0E94890D4DC01C
:101C400080E00E94890D0430110518F464E070E012
:101C500007C0B80183E0093E180710F068EE73E092
:101C600088EE93E00E945B3B61506983E091D10173
:101C7000F091D201A281B3810190F081E02D8C918D
:101C8000618141E09E012F5F3F4F0E94330788230F
:101C900019F42FEF3FEF23C0E091D101F091D20171
:101CA000698170E06F5F7F4F88EE93E00E946F3B29
:101CB0007287618781A192A18536910510F084E633
:101CC00090E00E94C30AE091D101F091D201818598
:101CD0009285969587950E94070B20E030E0C90118
:101CE0000F90CF91DF911F910F910895CF92DF92C6
:101CF000EF92FF920F931F93DF93CF9300D0CDB756
:101D0000DEB7182F092F7B016A0141155105D1F16A
:101D1000E091D101F091D2018681882399F1A281CD
:101D2000B3819B01210F311D18968D919C911997BC
:101D30008217930738F109831A830190F081E02D0F
:101D40008C91638D42E09E012F5F3F4F0E943307CD
:101D50008823C1F0E091D101F091D201A281B38139
:101D60000190F081E02D00910001109101018C9112
:101D7000608D4E2D96010E947308882319F020E093
:101D800030E002C02FEF3FEFC9010F900F90CF91CD
:101D9000DF911F910F91FF90EF90DF90CF9008950A
:101DA000DF92EF92FF920F931F93DF93CF930F92E7
:101DB000CDB7DEB7D82EE091D101F091D201858563
:101DC0008D1509F49EC0A281B3810190F081E02DB0
:101DD00000910001109101017E010894E11CF11CA9
:101DE000DD2089F18C91648141E097010E947308A4
:101DF000882309F47EC089818F7D8983E091D10198
:101E0000F091D201A281B3810190F081E02D8C91FB
:101E1000648141E097010E943307882309F469C077
:101E200063E070E080E090E00E94C53582E0898345
:101E3000A091D101B091D2015B968C915B978823E0
:101E4000F1F182E839C08C91648141E097010E94F0
:101E50007308882309F44DC0A091D101B091D2013B
:101E600016968C911697998180FF02C0906201C0EE
:101E70009F7D99831296ED91FC9113970D90BC91E3
:101E8000A02D808114966C9141E09E012F5F3F4F01
:101E90000E943307882369F163E070E080E090E0FE
:101EA0000E94C535A091D101B091D2015B968C9171
:101EB0005B97882319F080E8898301C019825C96BA
:101EC0008C915C97882319F08981806389831296AD
:101ED000ED91FC9113970D90BC91A02D80815796A8
:101EE0006C9141E09E012F5F3F4F0E943307882392
:101EF00019F42FEF3FEF07C0E091D101F091D2012B
:101F0000D58620E030E0C9010F90CF91DF911F917D
:101F10000F91FF90EF90DF900895DF93CF930F9292
:101F2000CDB7DEB7982FE091D101F091D201858D28
:101F3000891709F44AC0992369F1868D882319F419
:101F40002FEF3FEF44C080E00E94D40980E00E9460
:101F5000D00EE091D101F091D201878D90A10E9425
:101F6000030E1982E091D101F091D2010280F38138
:101F7000E02D808163E241E09E012F5F3F4F0E9490
:101F80003307E091D101F091D20181E0858F0E9469
:101F9000D40919C080E00E94D409E091D101F091E8
:101FA000D201838589830280F381E02D808163E201
:101FB00041E09E012F5F3F4F0E943307E091D10126
:101FC000F091D201158E0E94130C20E030E0C9017F
:101FD0000F90CF91DF9108956F927F928F929F9291
:101FE000AF92BF92CF92DF92EF92FF920F931F9327
:101FF000DF93CF9300D0CDB7DEB76C013B014A0130
:10200000A091D101B091D2015D968C915D9788230A
:1020100019F42FEF3FEF7CC016968C91169788230A
:1020200019F42EEF3FEF74C01296ED91FC911397C7
:102030000D90BC91A02D00910001109101018081B3
:102040001C966C9142E05E010894A11CB11C9501A4
:102050000E947308882319F42DEF3FEF59C099812E
:1020600080E02A81E22EFF24E82AF92AEC14FD04FC
:1020700028F4F401108221E030E04AC0E091D1015F
:10208000F091D201A281B38111968D919C9112970A
:10209000969587958E159F05D0F40190F081E02DDF
:1020A00000910001109101018C91638941E095013B
:1020B0000E947308882319F42BEF3FEF29C0898110
:1020C00084FF05C00E94130C22E030E021C0E091A3
:1020D000D101F091D201A281B3810190F081E02D74
:1020E00000910001109101018C9165854C2D9301A7
:1020F0000E947308882319F429EF3FEF09C0C70134
:10210000B6010E945B3B6150F401608320E030E047
:10211000C9010F900F90CF91DF911F910F91FF9008
:10212000EF90DF90CF90BF90AF909F908F907F9077
:102130006F900895DF92EF92FF920F931F93DF93BA
:10214000CF9300D0CDB7DEB7D82EE82EFF24C7013D
:1021500080779070892B11F081E005C0DD2011F0AF
:10216000198202C080E48983E091D101F091D2010B
:10217000A281B3810190F081E02D8C91658941E0CD
:102180009E012F5F3F4F0E943307A091D101B09174
:10219000D201882319F416961C9230C089818F7B56
:1021A00018968C9318971982E6FC02C084E0898304
:1021B000E5FC03C0898182608983E4FC03C08981D6
:1021C00081608983E3FC03C08981886389831296D7
:1021D000ED91FC9113970D90BC91A02D80815696A6
:1021E0006C9141E09E012F5F3F4F0E94330788238F
:1021F00041F4E091D101F091D20116822FEF3FEF2F
:102200006CC0DD2031F088E0D81619F080E00E9423
:102210007B0AE091D101F091D201A281B3810190BA
:10222000F081E02D00910001109101018C916481F9
:1022300041E09E012E5F3F4F0E9473088823F1F218
:102240009A81E0FE04C081E08983906202C0198215
:102250009F7D9A83A091D101B091D2015D968C911E
:102260005D979A81882311F0906801C09F779A83C7
:102270001296ED91FC9113970D90BC91A02D808149
:1022800096966C9141E09E012F5F3F4F0E9433076D
:10229000882309F4B3CFE091D101F091D201A2815A
:1022A000B3810190F081E02D8C91648141E09E0129
:1022B0002E5F3F4F0E943307882309F49FCFE091A0
:1022C000D101F091D201D682178662E370E080E0FE
:1022D00090E00E94C53520E030E0C9010F900F90DA
:1022E000CF91DF911F910F91FF90EF90DF900895B4
:1022F000CF92DF92EF92FF920F931F93DF93CF93D2
:10230000CDB7DEB729970FB6F894DEBF0FBECDBFAD
:102310007C016B01A091D101B091D20116968C91F4
:10232000169780FD03C02FEF3FEF96C01296ED91F8
:10233000FC9113970D90BC91A02D0091000110917C
:102340000101808198966C9148E09E012F5F3F4F7C
:102350000E947308882319F42CEF3FEF7DC0898118
:1023600080FD03C021E030E077C0888587FD72C022
:1023700086FD70C03B8120E06A8170E0622B732B88
:10238000F701718360833D8120E04C8150E0242B74
:10239000352B338322833F8120E04E8150E0242B74
:1023A000352B358324830091D1011091D2018827E8
:1023B00077FD8095982FF80124A135A1442737FD9A
:1023C0004095542F0E94303B672F782F892F9927F3
:1023D00087FD9A95F70171836083628173818827F5
:1023E00077FD8095982FF80126A137A1442737FD66
:1023F0004095542F0E94303B672F782F892F9927C3
:1024000087FD9A95F70173836283648175818827BC
:1024100077FD8095982FF80120A531A5442737FD39
:102420004095542F0E94303B672F782F892F992792
:1024300087FD9A95F70175836483C114D10439F03F
:102440000E94B735F601608371838283938320E015
:1024500030E002C02AEF3FEFC90129960FB6F89489
:10246000DEBF0FBECDBFCF91DF911F910F91FF90C7
:10247000EF90DF90CF9008952F923F924F925F920E
:102480006F927F928F929F92AF92BF92CF92DF9284
:10249000EF92FF920F931F93DF93CF93CDB7DEB7E9
:1024A00064970FB6F894DEBF0FBECDBF3C014B0161
:1024B0004B8B5C8B1901E091D101F091D201868D9B
:1024C000882319F02FEF3FEF75C06115710519F4DE
:1024D0002EEF3FEF6FC080E190E00E949836B92E5A
:1024E000C82ED92EA82EEE24FF2403E0402E512C16
:1024F0004C0E5D1E38C083010E191F0901311105F4
:1025000010F000E110E094012E0D3F1DD601A60150
:10251000400F511F05C0F90184918D932F5F3F4FEC
:10252000A417B507C1F7C701B801A5010E94190A90
:10253000892B19F02DEF3FEF3DC0C701B801A20173
:102540000E94760E892B19F02CEF3FEF33C0C501A6
:10255000B201A8010E94B306009719F02BEF3FEFDC
:1025600029C0E00EF11EE614F70428F2FC89F98375
:102570008B898A83E091D101F091D201A281B3814C
:102580000190F081E02D8C91658D42E09E012F5FDE
:102590003F4F0E943307882319F42AEF3FEF0AC008
:1025A000E091D101F091D20181E0868F30A2278E97
:1025B00020E030E0C90164960FB6F894DEBF0FBE8C
:1025C000CDBFCF91DF911F910F91FF90EF90DF90E2
:1025D000CF90BF90AF909F908F907F906F905F90C3
:1025E0004F903F902F900895EF92FF920F931F937B
:1025F000DF93CF93CDB7DEB72B970FB6F894DEBF3E
:102600000FBECDBF80E88D83E091D101F091D20162
:10261000A281B3810190F081E02D35E0E32EF12C11
:10262000EC0EFD1E8C91658941E097010E943307F5
:10263000882319F42FEF3FEF26C264E670E080E0B4
:1026400090E00E94C5351D82E091D101F091D20148
:10265000A281B3810190F081E02D8C91658941E0E8
:1026600097010E943307882319F42EEF3FEF0BC226
:10267000E091D101F091D201A281B3810190F0816A
:10268000E02D00910001109101018C91618D46E0D7
:1026900097010E947308882319F42DEF3FEFF3C1CF
:1026A0008A8590E081709070880F991F880F991F1C
:1026B000288530E021703070220F331F982F922B25
:1026C0008E818170982B91F0913031F4E091D1019D
:1026D000F091D201968732C0923019F02CEF3FEF83
:1026E000D2C1E091D101F091D20127C0E091D10196
:1026F000F091D201A281B3810190F081E02D00918F
:102700000001109101018C91638141E097010E94C9
:102710007308882319F42BEF3FEFB5C18D818F70BB
:1027200019F42AEF3FEFAFC1E091D101F091D2014E
:10273000843019F481E0868701C01686E091D101CA
:10274000F091D2018FEF86838483858387832FEF77
:102750003FEF328721878387858732A321A381E0DA
:102760008087838F148E108A178671968AE0119263
:102770008A95E9F7E091D101F091D201158E168E7C
:1027800010A2178E80ED97E00E94B20B892B19F0F2
:1027900026EF3FEF78C182E00E94590B892B19F098
:1027A00025EF3FEF70C18AE290E00E94070B892B72
:1027B00019F024EF3FEF67C182E390E00E94030E1F
:1027C000892B19F023EF3FEF5EC180E00E944B0D93
:1027D000892B19F022EF3FEF56C181E00E94D00E05
:1027E0009CE07E010894E11CF11C00910001109115
:1027F0000101892F60E041E097019B870E947308E7
:102800009B85882399F08981883481F4E091D101F6
:10281000F091D20193A3198283A16AE041E097016C
:102820000E943307882309F420C104C09F5F9031C0
:10283000E1F61BC161E070E080E090E00E94C535E8
:102840008FE08983E091D101F091D20183A16AE008
:1028500041E097010E943307882309F406C161E033
:1028600070E080E090E00E94C535E091D101F091E8
:10287000D201009100011091010183A160E143E0C8
:1028800097010E947308882309F4EFC0E091D101F9
:10289000F091D201898190E080589F4F95A384A345
:1028A0008A8190E080589F4F97A386A38B8190E008
:1028B00080589F4F91A780A7198283A16AE041E0C9
:1028C00097010E943307882309F4CFC061E070E0CC
:1028D00080E090E00E94C53580E00E94D00E80E448
:1028E0008983E091D101F091D201A281B38101905D
:1028F000F081E02D8C91628D41E097010E943307B9
:10290000882309F4B2C0E091D101F091D20183A1F2
:1029100080688983A281B3810190F081E02D8C9140
:10292000668D41E097010E943307882309F49DC01A
:1029300082E08983E091D101F091D201A281B3813B
:102940000190F081E02D8C91678D41E097010E940C
:102950003307882309F489C088E88983E091D1018D
:10296000F091D201A281B3810190F081E02D8C9190
:1029700060A141E097010E943307882309F475C0E4
:10298000E091D101F091D20183A18983A281B38129
:102990000190F081E02D8C9161A141E08E010F5FEB
:1029A0001F4F98010E943307882309F45EC08AE014
:1029B0008983E091D101F091D201A281B38101908C
:1029C000F081E02D8C9162A141E098010E943307D3
:1029D000882309F44AC081E88983E091D101F0910C
:1029E000D201A281B3810190F081E02D8C9163A18D
:1029F00041E098010E9433078823B9F181E089837F
:102A0000E091D101F091D201A281B3810190F081D6
:102A1000E02D8C9166A141E098010E943307882344
:102A200021F183E08983E091D101F091D201A2816B
:102A3000B3810190F081E02D8C9167A141E0980174
:102A40000E943307882389F080E88983E091D101CF
:102A5000F091D201A281B3810190F081E02D8C919F
:102A600061A541E098010E9433078AE090E00E944E
:102A7000C30A892B19F021EF3FEF05C080E00E94C7
:102A80009A1020E030E0C9012B960FB6F894DEBF13
:102A90000FBECDBFCF91DF911F910F91FF90EF90AF
:102AA0000895892B19F02FEF3FEF0CC01092E3012E
:102AB0001092E20185ED91E09093E1018093E001B5
:102AC00020E030E0C9010895E091E001F091E101DA
:102AD000118210821382128215821482178216824A
:102AE00011861086128608952F923F924F925F9220
:102AF0006F927F928F929F92AF92BF92CF92DF920E
:102B0000EF92FF920F931F93DF93CF93CDB7DEB772
:102B1000AC970FB6F894DEBF0FBECDBF9EA38DA3BA
:102B200078A76FA32A013AA729A71CA70BA7A7017B
:102B3000D8011D921C92E091E001F091E1018285A3
:102B400090E0BE016F5F7F4F0E94EC0F9CA38BA3B0
:102B5000892B09F0B2C1E091E001F091E101FAA303
:102B6000E9A38681978184719070892B11F440E0EC
:102B700017C1A980BB24CC24DD24DA2CCC24BB24AF
:102B8000AA248A8190E0A0E0B0E0DC0199278827A0
:102B9000A82AB92ACA2ADB2A8C8190E0A0E0B0E0FA
:102BA000A82AB92ACA2ADB2A8B8190E0A0E0B0E0EB
:102BB000BA2FA92F982F8827A82AB92ACA2ADB2A30
:102BC000D201AD92BD92CD92DC9213972D8130E06F
:102BD00040E050E0522F4427332722278E8190E097
:102BE000A0E0B0E0DC0199278827282B392B4A2B5D
:102BF0005B2B888590E0A0E0B0E0282B392B4A2B96
:102C00005B2B8F8190E0A0E0B0E0BA2FA92F982F26
:102C10008827282B392B4A2B5B2BF2012483358301
:102C200046835783298530E040E050E0522F442707
:102C3000332722278A8590E0A0E0B0E0DC019927C5
:102C40008827282B392B4A2B5B2B8C8590E0A0E022
:102C5000B0E0282B392B4A2B5B2B8B8590E0A0E032
:102C6000B0E0BA2FA92F982F8827282B392B4A2B71
:102C70005B2BD20118962D933D934D935C931B973C
:102C80002D8530E040E050E0522F442733272227A3
:102C90008E8590E0A0E0B0E0DC0199278827282B02
:102CA000392B4A2B5B2B888990E0A0E0B0E0282BE1
:102CB000392B4A2B5B2B8F8590E0A0E0B0E0BA2F38
:102CC000A92F982F8827282B392B4A2B5B2B248759
:102CD0003587468757875601DD24B7FCD094CD2C25
:102CE00064807580868097803401992477FC909465
:102CF000892C20843184428453841201552437FC6A
:102D00005094452C9A01552737FD5095452FCA01FF
:102D1000B9010E94303B7B018C01C601B501A601BF
:102D200095010E94303BE60EF71E081F191FC401D3
:102D3000B301A40193010E94303BE60EF71E081F69
:102D4000191FC201B101A20191010E94303BE60EA0
:102D5000F71E081F191F80E090E0A0E0B1EFE80E19
:102D6000F91E0A1F1B1F91E0E91690E0F90690E09A
:102D7000090792E0190758F00E94130CABA5BCA5F7
:102D80001D921C92E3E0F0E0FCA3EBA396C0ABA580
:102D9000BCA58D919C91119791608D939C9340E17E
:102DA000E9A1FAA1868186FF39C0A42FB0E0FE0117
:102DB000EA0FFB1F228130E0FE01EA0FFB1F918129
:102DC00080E0282B392BEFA1F8A531832083FE0169
:102DD000EA0FFB1F338120E0FE01EA0FFB1F848115
:102DE00090E0282B392BEFA1F8A533832283FE0135
:102DF000EA0FFB1F358120E0868190E0282B392BDC
:102E0000AFA1B8A515963C932E9314974A5FEBA5F6
:102E1000FCA580819181886091838083A9A1BAA15A
:102E200016968D919C91179780789170892BC1F19E
:102E3000A42FB0E0FE01EA0FFB1F228130E0FE016B
:102E4000EA0FFB1F918180E0282B392BEDA1FEA119
:102E500031832083FE01EA0FFB1F338120E0FE0156
:102E6000EA0FFB1F848190E0282B392BEDA1FEA1F6
:102E700033832283FE01EA0FFB1F358120E0868128
:102E800090E0282B392BADA1BEA115963C932E9333
:102E90001497EBA5FCA58081918180679183808345
:102EA00089A59AA5892B49F00E94B735A9A5BAA58D
:102EB0006D937D938D939C9313978BA19CA1AC965E
:102EC0000FB6F894DEBF0FBECDBFCF91DF911F913B
:102ED0000F91FF90EF90DF90CF90BF90AF909F90B9
:102EE0008F907F906F905F904F903F902F900895BC
:102EF000DF93CF93CDB7DEB729970FB6F894DEBF37
:102F00000FBECDBF9E012F5F3F4F882349F0D901EF
:102F1000E0E2F1E089E001900D928150E1F708C014
:102F2000D901E7E1F1E089E001900D928150E1F7EC
:102F300088EB94E069E070E0AE014F5F5F4F0E9464
:102F4000190A29960FB6F894DEBF0FBECDBFCF91F8
:102F5000DF9108950F931F93DF93CF93CDB7DEB723
:102F600028970FB6F894DEBF0FBECDBF8C01893C09
:102F70009105F0F488EC90E0B8010E945B3B615051
:102F8000704079836A8386E192E062E070E0AE018E
:102F90004F5F5F4F0E94190A892B51F481EC9AE030
:102FA0006CE070E049E251E00E94190A892B19F0A7
:102FB0002FEF3FEF08C0E091E001F091E1011187B0
:102FC000008720E030E0C90128960FB6F894DEBFF4
:102FD0000FBECDBFCF91DF911F910F910895EF925A
:102FE000FF920F931F93DF93CF9300D000D000D0B8
:102FF000CDB7DEB78C01AC0143705070FA01E25CD2
:10300000FE4F80818983C801E3E096958795EA9514
:10301000E1F783709070FC01E25CFE4F20812A830F
:10302000D80176E0B695A7957A95E1F7A370B070D0
:10303000FD01E25CFE4F20812B83455C5E4FFA016F
:1030400020812C83855C9E4FFC0180818D83A55C53
:10305000BE4F8C918E8386E294E063E070E07E0147
:103060000894E11CF11CA7010E94190A892B09F0A0
:103070004BC08AE294E063E070E0AE014C5F5F4FCA
:103080000E94190A892B09F03FC0D701E8E3F1E05B
:1030900083E001900D928150E1F7DE011496E5E3A3
:1030A000F1E083E001900D928150E1F702FF06C04C
:1030B0008981816089838C8181608C8305FF06C052
:1030C0008A8181608A838D8181608D8310FF06C033
:1030D0008B8181608B838E8181608E8380E494E01C
:1030E00063E070E0AE014F5F5F4F0E94190A892BC9
:1030F00059F481E394E063E070E0AE014C5F5F4F10
:103100000E94190A892B19F02FEF3FEF08C0E091B8
:10311000E001F091E1011583048320E030E0C90172
:1031200026960FB6F894DEBF0FBECDBFCF91DF91CC
:103130001F910F91FF90EF900895DF93CF9300D0F0
:1031400000D0CDB7DEB7882349F080E2898388E2DA
:103150008A8380E38B8388E38C8308C083EA93EAC5
:10316000A3EAB3EA89839A83AB83BC838EE99AE0AE
:1031700064E070E0AE014F5F5F4F0E94190A0E9449
:10318000130C0F900F900F900F90CF91DF91089537
:10319000DF93CF9300D000D0CDB7DEB7882349F0BE
:1031A00080EC898382EC8A8384EC8B8386EC8C832D
:1031B00008C08BE89BE8ABE8BBE889839A83AB83C4
:1031C000BC8388E99AE064E070E0AE014F5F5F4F36
:1031D0000E94190A0E94130C0F900F900F900F90ED
:1031E000CF91DF910895AF92BF92CF92DF92EF928D
:1031F000FF920F931F93DF93CF93CDB7DEB72A973C
:103200000FB6F894DEBF0FBECDBF8C0182E089837C
:103210008AEC8A8383EE8B8389E08C8388E690E056
:1032200064E070E0AE014F5F5F4F0E94190A83EACD
:103230008983B0E4AB2EB12CA022B12206FF06C0D8
:1032400080EC8A8388EC8B8382EC02C08A838B8338
:103250008C83A0E8EA2EA1E0FA2EE022F122E1140C
:10326000F10431F084EC8D838CEC8E8386EC03C00A
:1032700083EA8D838E838F8383EA888789878A8711
:1032800087EA9AE06AE070E0AE014F5F5F4F0E940C
:10329000190AF3E0CF2ED12CC022D122C114D104BF
:1032A00011F080E201C088ED898386EB9AE061E04D
:1032B00070E0AE014F5F5F4F0E94190A05FF02C028
:1032C00081E001C080E00E947817E114F104D9F098
:1032D00010FF08C082EB89838BE88A8386EB8B839F
:1032E0008BE907C080EB898380E88A8384EB8B833A
:1032F00080E98C8382EA9AE064E070E0AE014F5F7F
:103300005F4F0E94190A02FF02C081E001C080E005
:103310000E94C81804FF02C081E001C080E00E9442
:103320009D18E091E001F091E101C8018860978368
:1033300086830E94130CE091E001F091E101128676
:10334000AB2811F086E08287EF2819F082858A5F2A
:10335000828704711070012B19F08285805F82874B
:10336000CD2819F082858C5F828780E090E02A96D4
:103370000FB6F894DEBF0FBECDBFCF91DF911F9186
:103380000F91FF90EF90DF90CF90BF90AF90089596
:1033900086EF9BE061ED70E040E054E028EC30E027
:1033A0000E943C1208952F923F924F925F926F922B
:1033B0007F928F929F92AF92BF92CF92DF92EF92C5
:1033C000FF920F931F93DF93CF93CDB7DEB7649730
:1033D0000FB6F894DEBF0FBECDBF10922902109237
:1033E00028028AE292E060E372E048E152E020E0E5
:1033F00030E008E212E0F6E3EF2EF2E0FF2E0E944A
:1034000074159093380280933702009709F0D9C25F
:10341000809136028230E8F08AE292E060E372E066
:1034200048E152E020E030E008E212E0E6E3EE2E70
:10343000E2E0FE2E0E9474159C0190933802809366
:10344000370280913602823008F4BAC2232B21F36E
:10345000B7C2609118027091190280911A0290917E
:103460001B020E94593920E030E040E850E30E94FE
:10347000653A1B012C016093180270931902809326
:103480001A0290931B0260911C0270911D028091A0
:103490001E0290911F020E94593920E030E040E85E
:1034A00050E30E94653A69837A838B839C8360939F
:1034B0001C0270931D0280931E0290931F02609164
:1034C00020027091210280912202909123020E9499
:1034D000593920E030E040E850E30E94653A5B0152
:1034E0006C016093200270932102809322029093DA
:1034F000230260912402709125028091260290910E
:1035000027020E94593920E030E040E850E30E9451
:10351000653A6D837E838F839887609324027093CE
:1035200025028093260290932702C601B501A601C9
:1035300095010E94653A69877A878B879C8760939B
:103540003B0270933C0280933D0290933E026D815A
:103550007E818F8198859B01AC010E94653A6D87C1
:103560007E878F87988B60933F0270934002809391
:10357000410290934202C201B101A20191010E9455
:10358000653A698B7A8B8B8B9C8B6093430270932B
:103590004402809345029093460269817A818B812F
:1035A0009C812D813E814F8158850E94653A7B0127
:1035B0008C01C201B101A60195010E94653A9B01EF
:1035C000AC01C801B7010E94DC373B014C0160939C
:1035D0004702709348028093490290934A0225EE75
:1035E00032EF4FEF5EE30E945A3A1816BCF4C60160
:1035F000B501A20191010E9467389B01AC010E94B4
:10360000DD376093EC017093ED018093EE019093B0
:10361000EF018BED9FE0A9ECBFE322C0C401B30131
:1036200025EE32EF4FEF5EEB0E94BA3888236CF53F
:10363000C601B501A20191010E94673820E030E087
:1036400040E050EC0E94653A6093EC017093ED010C
:103650008093EE019093EF018BED9FE0A9ECBFEB1F
:103660008093E8019093E901A093EA01B093EB0104
:1036700080E090E0A0E0B0E08093E4019093E50169
:10368000A093E601B093E70194C069817A818B81B0
:103690009C81A20191010E94653A7B018C01C601C7
:1036A000B5012D813E814F8158850E94653A9B016D
:1036B000AC01C801B7010E94DD379B01AC010E943B
:1036C000DD377B018C016D857E858F859889298901
:1036D0003A894B895C890E94DD3720E030E040E088
:1036E00050EC0E94653A20E030E040E85FE30E9441
:1036F000DD379B01AC01C801B7010E9467386093B8
:10370000EC017093ED018093EE019093EF01C40101
:10371000B301A40193010E94DD370E9441386093F8
:10372000E8017093E9018093EA019093EB016981CC
:103730007A818B819C81A60195010E94653A7B016B
:103740008C016D817E818F819885A20191010E94FB
:10375000653A9B01AC01C801B7010E94DC379B01AF
:10376000AC010E94DD377B018C0169857A858B85F0
:103770009C852D853E854F8558890E94DD3720E048
:1037800030E040E050EC0E94653A20E030E040E854
:103790005FE30E94DD379B01AC01C801B7010E94C5
:1037A00067386093E4017093E5018093E60190939C
:1037B000E7016091E4017091E5018091E60190914B
:1037C000E70121EE3EE245E652E40E94653A905858
:1037D0006093E4017093E5018093E6019093E70123
:1037E0006091E8017091E9018091EA019091EB010B
:1037F00021EE3EE245E652E40E94653A905860931D
:10380000E8017093E9018093EA019093EB016091E4
:10381000EC017091ED018091EE019091EF0121EEAC
:103820003EE245E652E40E94653A5B016C0120E00D
:1038300030E044E353E40E94DD377B018C0120E05B
:1038400030E044E353E40E945A3A18164CF4C6019F
:10385000B50120E030E044E353E40E94DC3702C0CD
:10386000C801B70190586093EC017093ED0180930B
:10387000EE019093EF0160912E0270912F02882744
:1038800077FD8095982F0E94593920E030E043E879
:1038900051E40E94BE386093F0017093F10180936F
:1038A000F2019093F30160912C0270912D02882710
:1038B00077FD8095982F0E94593920E030E043E849
:1038C00051E40E94BE386093F4017093F501809337
:1038D000F6019093F70160912A0270912B028827DC
:1038E00077FD8095982F0E94593920E030E043E819
:1038F00051E40E94BE386093F8017093F9018093FF
:10390000FA019093FB016091300270913102882797
:1039100077FD8095982F0E94593920E030E040E8EB
:1039200058E30E94653A6093FC017093FD01809317
:10393000FE019093FF01609132027091330288275B
:1039400077FD8095982F0E94593920E030E040E8BB
:1039500058E30E94653A60930002709301028093DD
:10396000020290930302609134027091350288271D
:1039700077FD8095982F0E94593920E030E040E88B
:1039800058E30E94653A209114023091150240914B
:103990001602509117020E94DC3760930402709364
:1039A000050280930602909307028091390290915C
:1039B0003A02019690933A028093390280E001C066
:1039C00081E864960FB6F894DEBF0FBECDBFCF91ED
:1039D000DF911F910F91FF90EF90DF90CF90BF90FC
:1039E000AF909F908F907F906F905F904F903F909F
:1039F0002F90089580914B0290914C0262E370E009
:103A00000E945B3B8091390290913A02861797079A
:103A100010F481E008958DE492E060E070E00E948F
:103A2000781190933802809337020097D9F560910E
:103A30004D0270914E02882777FD8095982F0E9445
:103A40005939609308027093090280930A02909397
:103A50000B0260914F0270915002882777FD80958C
:103A6000982F0E94593960930C0270930D02809335
:103A70000E0290930F0260915102709152028827BA
:103A800077FD8095982F0E945939609310027093AA
:103A90001102809312029093130210923A02109234
:103AA000390280E008950E94130C08950F931F932C
:103AB000CF93DF93EB018A0170934C0260934B022A
:103AC00010923A02109239020E94BE080E94E30846
:103AD00080E090E0A0E0B0E08093140290931502A3
:103AE000A0931602B093170280E090E00E94F412B7
:103AF0009093380280933702009711F0865F83C05D
:103B000089E70E949A1090933802809337020097B9
:103B100011F08C5E78C080ED97E00E94B20B90931C
:103B2000380280933702009711F0825E6CC082E009
:103B30000E94590B9093380280933702009711F03E
:103B4000885D61C082E390E00E94C30A90933802CE
:103B500080933702009711F08E5C55C087E392E0A6
:103B60000E94C5098091370290913802892B11F487
:103B70008CE349C088E70E944B0D909338028093F4
:103B80003702009711F08A5B3EC080E090E00E940F
:103B900051150E9464150E94C819909338028093B1
:103BA0003702009711F0805B2EC0C8010E94EF170A
:103BB0009093380280933702009711F0865A23C001
:103BC000CE010E94AA179093380280933702009783
:103BD00011F08C5918C081E00E948D0F909338022B
:103BE00080933702009711F082590DC080E791E071
:103BF0000E94F3189093380280933702009711F4D3
:103C000080E001C08858DF91CF911F910F910895F6
:103C1000FC0180E090E0A0E0B0E080879187A2877F
:103C2000B38784839583A683B78380839183A2839C
:103C3000B383808F918FA28FB38F848B958BA68B4C
:103C4000B78B848F958FA68FB78F84A395A3A6A3D8
:103C5000B7A380A391A3A2A3B3A384879587A687C4
:103C6000B787808B918BA28BB38B80E090E0089517
:103C700020E030E040E050E0FC01248735874687B3
:103C8000578708952F923F924F925F926F927F9243
:103C90008F929F92AF92BF92CF92DF92EF92FF925C
:103CA0000F931F93CF93DF93EC013A014B0118015F
:103CB0002901CB01BA012C813D814E815F810E9497
:103CC000653AA20191010E94653A2C853D854E8599
:103CD0005F850E94DD375B016C016C877D878E8775
:103CE0009F87E88CF98C0A8D1B8DA80197010E9493
:103CF0005A3A181664F017FB109517F91095C6017B
:103D0000B501A80197010E94BA38882324F4EC86F3
:103D1000FD860E871F8768A179A18AA19BA1A201B8
:103D200091010E94BE389B01AC01C401B3010E9405
:103D3000DC37688B798B8A8B9B8BECA0FDA00EA166
:103D40001FA1A80197010E94DC3721EB30E945EC67
:103D50005EE30E94653A9B01AC01C801B7010E9475
:103D6000DD375B016C01688B798B8A8B9B8BC4017F
:103D7000B301288139814A815B810E94653A2C8593
:103D80003D854E855F850E94DD377B018C01C60134
:103D9000B501288539854A855B850E94653A9B0176
:103DA000AC01C801B7010E94DC376C8F7D8F8E8F0C
:103DB0009F8FEC88FD880E891F89A80197010E94BA
:103DC0005A3A181624F4EC8EFD8E0E8F1F8F8C89B4
:103DD0009D89AE89BF897C018D0117FB109517F96C
:103DE00010956C8D7D8D8E8D9F8DA80197010E9401
:103DF000BA38882324F4EC8EFD8E0E8F1F8F68A2B4
:103E000079A28AA29BA288899989AA89BB898CA355
:103E10009DA3AEA3BFA3DF91CF911F910F91FF9000
:103E2000EF90DF90CF90BF90AF909F908F907F905A
:103E30006F905F904F903F902F9008958091530224
:103E40009091540253E0959587955A95E1F7909398
:103E5000890080938800809155029091560243E03A
:103E6000959587954A95E1F78093B4008091570224
:103E70009091580233E0959587953A95E1F78093B4
:103E80005E028091590290915A0223E095958795A0
:103E90002A95E1F780935C0280915E028095809381
:103EA0005D0280915C02809580935B020895E0E85A
:103EB000F0E080818F778083E0EBF0E080818F7D80
:103EC0008083EEE6F0E080818B7F808380818D7F30
:103ED000808308951F920F920FB60F9211248F9333
:103EE0009F9380916002882359F480915C02811134
:103EF0005D9A88B590915C02980F98BD81E008C0EA
:103F0000813049F488B590915C02980F98BD82E0A9
:103F10008093600213C0823041F45D9888B590911F
:103F20005B02980F98BD83E0F3CF833039F498B5E6
:103F300080915B02890F88BD109260029F918F91E2
:103F40000F900FBE0F901F9018951F920F920FB6F3
:103F50000F9211248F939F9380915F02882359F4CD
:103F600080915E0281115E9A87B590915E02980FF2
:103F700097BD81E008C0813049F487B590915E0219
:103F8000980F97BD82E080935F0213C0823041F4A6
:103F90005E9887B590915D02980F97BD83E0F3CF4F
:103FA000833039F497B580915D02890F87BD1092F7
:103FB0005F029F918F910F900FBE0F901F901895E9
:103FC0008091020161E00E9459368091030161E015
:103FD0000E9459368091040161E00E945936809117
:103FE000050161E00E945936E0E8F0E080818068D8
:103FF0008083E0EBF0E080818062808314BCEEE699
:10400000F0E0808184608083808182608083089575
:10401000AC018091860290E0860F911D80970CF094
:104020003DC0FA01762F30E0ACE80DC0208198E069
:10403000822F8327369580FD3A27915011F02695DF
:10404000F7CF31967150772389F7FA01E60FF11D0A
:1040500030836F5FDA0120E030E21EC0809185027C
:10406000803210F01092850280918502E82FF0E0F6
:104070009C91E957FD4F90838F5F809385028091DB
:1040800086028F5F8093860280918602813210F0D3
:10409000309386022F5F1196261700F30895CF9371
:1040A000DF93EC0180916402843008F449C0DE01A2
:1040B00020E0809164028823E9F09091630280916E
:1040C0006402981738F480916402E0916302F0E092
:1040D000B09605C0E091630280916402F0E0E81BB5
:1040E000F109EB59FD4F80818C93809164028150DE
:1040F000809364022F5F11962430D9F6FE0130E0E0
:1041000043E05CE80CC0208198E0822F832736953D
:1041100080FD3527915011F02695F7CF319641500B
:1041200090F78B81381719F420E030E00BC08091B4
:1041300061028F5F809361021092630210926402A9
:104140002FEF3FEFC901DF91CF9108951F920F929A
:104150000FB60F9211242F938F939F93EF93FF939A
:104160002EB5809186028823F1F09091850280918E
:104170008602981738F480918602E0918502F0E07B
:10418000B09605C0E091850280918602F0E0E81BC0
:10419000F109E957FD4F80818EBD809186028150E3
:1041A0008093860201C01EBC80916302803210F0B1
:1041B0001092630280916302E82FF0E0EB59FD4F0B
:1041C00020838F5F80936302809164028F5F80936E
:1041D000640280916402813218F080E2809364026C
:1041E000FF91EF919F918F912F910F900FBE0F90A4
:1041F0001F90189580938C0460938D0470938E04A7
:104200008CE894E063E00E940820089560918404A3
:1042100070E09091830480E0682B792B8FEF0E94EF
:10422000FA20089560917104709172048091730472
:10423000909174040E9426399B01AC0182E1B9017E
:104240000E94FA2060914B0470914C0480914D04BF
:1042500090914E040E9426399B01AC0183E1B90183
:104260000E94FA2060914F04709150048091510493
:10427000909152040E9426399B01AC0184E1B9015E
:104280000E94FA200895BF92CF92DF92EF92FF92A0
:104290000F931F93CF93DF93BB2438C0CB2CDD2427
:1042A000F601EE0FFF1FEE0FFF1FE450FE4FE08000
:1042B000F18002811381E601CC0FDD1FCC0FDD1FE1
:1042C000C455DB4FC801B701288139814A815B8120
:1042D0000E94BA38882324F4E882F9820A831B8377
:1042E000E601CC0FDD1FCC0FDD1FC854DB4FC8012A
:1042F000B701288139814A815B810E945A3A181698
:1043000024F4E882F9820A831B83B39482E08B153C
:1043100028F6B09287048091820464E10E944F3BAA
:104320009923F1F5109287040F2EF0E0CF2EF0E0E4
:10433000DF2EF0E0EF2EF0E0FF2EF02D2CC01E2F30
:10434000145FF0E0EE0FFF1FEE0FFF1FE854FB4F6E
:10435000608171818281938120E030E04AE754E4FA
:104360000E94653A0E9426399B01AC01812FB90158
:104370000E94FA2080918704E82FF0E0EE0FFF1FE3
:10438000EE0FFF1FE854FB4FC082D182E282F3821E
:104390008F5F80938704E0918704E33080F23FC011
:1043A0009A30E9F5109287040F2EF0E0CF2EF0E05E
:1043B000DF2EF0E0EF2EF0E0FF2EF02D2CC01E2FB0
:1043C000115FF0E0EE0FFF1FEE0FFF1FE455FB4FF4
:1043D000608171818281938120E030E04AE754E47A
:1043E0000E94653A0E9426399B01AC01812FB901D8
:1043F0000E94FA2080918704E82FF0E0EE0FFF1F63
:10440000EE0FFF1FE455FB4FC082D182E282F382A0
:104410008F5F80938704E0918704E33080F2DF911F
:10442000CF911F910F91FF90EF90DF90CF90BF90B1
:1044300008951F931092870420C01E2F1F5FF0E085
:10444000EE0FFF1FEE0FFF1FE051FE4F60817181E5
:104450008281938120E030E048EC52E40E94653A8A
:104460000E9426399B01AC01812FB9010E94FA20DC
:10447000809187048F5F80938704E0918704E33005
:10448000E0F21F9108951F931092870420C01E2F01
:104490001C5FF0E0EE0FFF1FEE0FFF1FEC51FE4F11
:1044A000608171818281938120E030E048EC52E4A8
:1044B0000E94653A0E9426399B01AC01812FB90107
:1044C0000E94FA20809187048F5F80938704E09197
:1044D0008704E330E0F26091880470918904809150
:1044E0008A0490918B0420E030E048EC52E40E9472
:1044F000653A0E9426399B01AC0187E0B9010E9410
:10450000FA201F910895109287041BC0E0910601C4
:10451000F0E0892F880F02C0F595E7958A95E2F7BC
:10452000E370F070EE0FFF1FED5AFD4F6081718157
:10453000892F885F0E94FA20809187048F5F809383
:10454000870490918704943008F30895809186043D
:104550008330C9F0843028F4813041F08230B9F5DD
:1045600008C08430E1F0853091F523C00E944321DA
:1045700008958091820464E10E944F3B992351F495
:104580000E94192208958091820464E10E944F3BA9
:104590009923B1F09A30D9F40E9483220895809132
:1045A000820464E10E944F3B992389F40E94122106
:1045B00008958091820464E10E944F3B992319F48D
:1045C0000E94432208959A3011F40E941221089506
:1045D000FC018181882321F470E060E090E032C02A
:1045E00090818181A381B481981748F43181208121
:1045F000828190E0820F911D831B910905C080810B
:10460000218190E0821B9109880F991F880F991FC3
:10461000A80FB91F8D919D910D90BC91A02D8093F5
:10462000D1049093D204A093D304B093D404818195
:10463000815081837091D1046091D2049091D30410
:104640008091D404272F362F492F582FB901CA0142
:1046500008956F927F928F929F92AF92BF92CF9266
:10466000DF92EF92FF920F931F930E94D319282F8E
:10467000992787FD90959093A8028093A7020097B1
:1046800089F0019709F4BDC0809162028F5F809329
:1046900062028B3008F4B5C08DEF809383042093C1
:1046A0008404AFC0109262026090F0017090F1013A
:1046B0008090F2019090F301C401B30120E030E05A
:1046C00040E450EC0E945A3A18160CF06CC0A090CE
:1046D000F401B090F501C090F601D090F701C60149
:1046E000B50120E030E040E450EC0E945A3A181640
:1046F0000CF059C0E090F801F090F9010091FA0136
:104700001091FB01C801B70120E030E040E450EC1B
:104710000E945A3A18160CF046C0C401B30120E0BA
:1047200030E040E450E40E94BA3888230CF03BC0EB
:10473000C601B50120E030E040E450E40E94BA3800
:1047400088238CF5C801B70120E030E040E450E454
:104750000E94BA3888233CF580919C0490919D0476
:10476000019690939D0480939C048154964050F14F
:1047700060919E0470919F048091A0049091A10487
:1047800020910402309105024091060250910702E7
:104790000E94DD3760939E0470939F048093A00471
:1047A0009093A1040FC080919C0490919D0481542A
:1047B000964020F08FEF8093830404C010929D04F4
:1047C00010929C0480919C0490919D048850974085
:1047D000C0F060919E0470919F048091A00490911C
:1047E000A10420E030E048E453E40E94BE38609326
:1047F000140270931502809316029093170280E0C2
:1048000001C08FEF1F910F91FF90EF90DF90CF903D
:10481000BF90AF909F908F907F906F90089510926F
:1048200070042091AA023091AB0230939704209338
:10483000960480E009C0E82FF0E0EE0FFF1FED5A6C
:10484000FD4F318320838F5F8430A8F380938704EA
:104850000E941E1F0895EF92FF920F931F934091A5
:104860007504442309F429C14130F1F520919604DF
:10487000309197048091AE029091AF028217930716
:1048800084F51092A60482E080937504409370042E
:1048900080914B0490914C04A0914D04B0914E0432
:1048A0008093A2049093A304A093A404B093A504BE
:1048B0000E94B735609376047093770480937804F0
:1048C000909379041092950410929404109293049A
:1048D0001092920410929104109290041092850408
:1048E000ECC00E940F24E9C00E94B73520917604E5
:1048F000309177044091780450917904621B730BD6
:10490000840B950B20910C0130910D0140910E010B
:1049100050910F01621773078407950738F08CEFE9
:10492000809383040E940F248FEFC8C00E94B73584
:104930002091760430917704409178045091790465
:10494000621B730B840B950B605D77408040904039
:1049500008F4B3C060914F047091500480915104E9
:104960009091520420E030E040EF51EC0E945A3A1E
:1049700018168CF420919604309197048091AE0221
:104980009091AF022817390734F48091A6048F5F05
:104990008093A60402C01092A6048091A604883CCD
:1049A00038F00E940F248EEF8093830481E086C04C
:1049B000E0904B04F0904C0400914D0410914E0493
:1049C000C801B70120E030E04AEF53E40E945A3AB0
:1049D00018165CF00F2EF0E0EF2EF0E0FF2EF8E45A
:1049E0000F2FF2E41F2FF02D1FC0C801B70120E0E8
:1049F00030E84BEB54E40E945A3A18165CF00F2E44
:104A0000F0E0EF2EF0E0FF2EF8EC0F2FF2E41F2F76
:104A1000F02D0AC00F2EF0E0EF2EF0E0FF2EF6E1B1
:104A20000F2FF3E41F2FF02DC801B70120910801CB
:104A30003091090140910A0150910B010E94653AA1
:104A40009B01AC016091A2047091A3048091A40425
:104A50009091A5040E94DC37DC019B01AC012093FE
:104A6000A2043093A3044093A4045093A504A80186
:104A70009701505820935B0430935C0440935D048D
:104A800050935E04CB018093710490937204A093C1
:104A90007304B093740480917004882321F082E041
:104AA000809370040AC0109275048091AA029091BC
:104AB000AB02909397048093960480E01F910F912E
:104AC000FF90EF900895AF92BF92CF92DF92EF9256
:104AD000FF920F931F9380918504882309F025C1CD
:104AE00020919604309197048091AC029091AD0290
:104AF000821793070CF019C1E090E801F090E901EA
:104B00000091EA011091EB01C801B70120E030E00B
:104B100040E050E00E945A3A18165CF4C801B70110
:104B200020E030E040E752E40E945A3A87FF32C06A
:104B30000AC0C801B70120E030E040E752EC0E9413
:104B4000BA3818163CF5E090EC01F090ED010091B8
:104B5000EE011091EF01C801B70120E030E040E024
:104B600050E00E945A3A18165CF4C801B70120E0E0
:104B700030E040E752E40E945A3A18165CF010C048
:104B8000C801B70120E030E040E752EC0E94BA389B
:104B9000882334F48091AB048F5F8093AB0402C010
:104BA0001092AB048091AB04813089F480914B0466
:104BB00090914C04A0914D04B0914E048093A704B1
:104BC0009093A804A093A904B093AA0433C0609161
:104BD0004B0470914C0480914D0490914E042091AF
:104BE000A7043091A8044091A9045091AA040E94FE
:104BF000DC377B018C0120E030E040E050E00E9497
:104C00005A3A18165CF4C801B70120E030E048E4D5
:104C100052E40E945A3A18165CF00CC0C801B70161
:104C200020E030E048E452EC0E94BA38882314F4C3
:104C30001092AB04A0907A04B0907B04C0907C04E6
:104C4000D0907D04C601B50120E030E040E050E0A6
:104C50000E945A3A18160CF05DC0E090FC01F090EA
:104C6000FD010091FE011091FF01C801B70120E094
:104C700030E040E050E00E945A3A181624F017FB4A
:104C8000109517F91095C801B701A60195010E946A
:104C90005A3A1816E4F1E0900002F09001020091F7
:104CA000020210910302C801B70120E030E040E0A9
:104CB00050E00E945A3A181624F017FB109517F985
:104CC0001095C801B701A60195010E945A3A18161D
:104CD000F4F0E0900402F0900502009106021091B9
:104CE0000702C801B70120E030E040E050E00E9438
:104CF0005A3A181624F017FB109517F91095C801A9
:104D0000B701A60195010E945A3A18161CF488ECC6
:104D10008093AB048091AB04883C38F08BEF809398
:104D200083040E940F2481E001C080E01F910F9155
:104D3000FF90EF90DF90CF90BF90AF900895CF920B
:104D4000DF92EF92FF920F931F93CF93DF93209107
:104D5000900430919104B90137FF04C0662777278A
:104D6000621B730B69307105BCF1C9010E946F3B76
:104D7000CB01A3E0880F991FAA95E1F7281B390BF7
:104D8000B901882777FD8095982F0E9459399B019A
:104D9000AC016091A2037091A3038091A403909150
:104DA000A5030E94653A609346037093470380937E
:104DB0004803909349038091E4019091E501A0910B
:104DC000E601B091E7018093880490938904A09351
:104DD0008A04B0938B0447C0609188047091890461
:104DE00080918A0490918B042091E4013091E50137
:104DF0004091E6015091E7010E94DC376B017C0194
:104E000020E030E044E353EC0E94BA3888234CF4AD
:104E1000C701B60120E030E044EB53E40E94DD37E7
:104E200012C0C701B60120E030E044E353E40E9421
:104E30005A3A181654F4C701B60120E030E044EBAA
:104E400053E40E94DC376B017C0100910801109152
:104E5000090120910A0130910B018AE293E0B70128
:104E6000A6010E94421E80918504882309F041C05A
:104E700081E080938704C8E2D0E036C010E00C9F48
:104E800070010D9FF00C1C9FF00C11248AE293E03E
:104E9000E80EF91E000F111FF801E057FB4F60816B
:104EA0007181882777FD8095982F0E945939000FCE
:104EB000111F0C511E4FF801208131814281538115
:104EC0000E94DC37AB01BC0100910801109109017F
:104ED00020910A0130910B01C7010E94421E80916E
:104EE00087048F5F8093870400918704033030F23A
:104EF0003FC08130E9F580938704C8E2D0E034C038
:104F0000F0E0EC9F7001ED9FF00CFC9FF00C112481
:104F10008AE293E0E80EF91EEE0FFF1FE057FB4F09
:104F200060817181882777FD8095982F0E9459397B
:104F30002091A2033091A3034091A4035091A503B3
:104F40000E94653AAB01BC01009108011091090172
:104F500020910A0130910B01C7010E94421E8091ED
:104F600087048F5F80938704E0918704E33040F2E9
:104F700010928704C8E2D0E034C0F0E0EC9FD0018A
:104F8000ED9FB00DFC9FB00D112462EBE62E62E0A8
:104F9000F62EEA0EFB1EA65DBC4FEE0FFF1FEE0FB6
:104FA000FF1FE051FE4F5C966D917D918D919C911C
:104FB0005F9720813181428153810E94DC37AB01B0
:104FC000BC01009108011091090120910A01309162
:104FD0000B01C7010E94421E809187048F5F80935E
:104FE0008704E0918704E33040F2DF91CF911F9175
:104FF0000F91FF90EF90DF90CF9008952F923F9206
:105000004F925F926F927F928F929F92AF92BF92D8
:10501000CF92DF92EF92FF920F931F93DF93CF9384
:10502000CDB7DEB728970FB6F894DEBF0FBECDBF61
:1050300080916F04882309F4B5C2815080936F0476
:10504000E0900402F0900502009106021091070220
:10505000C801B70120E030E040E85FEB0E94BA38B9
:1050600088232CF480E090E8A5E7B4EC0EC0C801DA
:10507000B70120E030E040E85FE30E945A3A18169A
:105080004CF480E090E8A5E7B4E489839A83AB838D
:10509000BC830CC0C801B70120E030E845E754E408
:1050A0000E94653A69837A838B839C8389819A8184
:1050B000AB81BC8180932B0490932C04A0932D048E
:1050C000B0932E04E0904304F09044040091450412
:1050D00010914604A0900801B0900901C0900A0107
:1050E000D0900B01C801B70120916B0430916C0482
:1050F00040916D0450916E040E94653AA60195019D
:105100000E94653A20913304309134044091350473
:10511000509136040E94DD373B014C01609333040B
:10512000709334048093350490933604C801B7011A
:1051300020916704309168044091690450916A0499
:105140000E94653AA60195010E94653A20914F049C
:105150003091500440915104509152040E94DD3727
:105160006D837E838F839887C801B7012091630484
:105170003091640440916504509166040E94653A40
:10518000A60195010E94653A2091370430913804B8
:105190004091390450913A040E94DD371B012C01E3
:1051A00060933704709338048093390490933A04E1
:1051B00069817A818B819C81A40193010E94DD37F2
:1051C000A60195010E94653A7B018C0160933B0426
:1051D00070933C0480933D0490933E0420E030E0C3
:1051E00040E05FE30E94653A9B01AC016D817E81E6
:1051F0008F8198850E94DD37A60195010E94653A4E
:1052000020914704309148044091490450914A0448
:105210000E94DD375B016C01609347047093480482
:105220008093490490934A04A20191010E94DD37C2
:1052300060934B0470934C0480934D0490934E0400
:105240006D817E818F819885A80197010E94DD374D
:1052500060934F04709350048093510490935204D0
:105260009091220480912404981711F41092220442
:1052700020912204822F90E0880F991F880F991F98
:10528000E0912504F0912604E80FF91FA082B18275
:10529000C282D3822F5F20932204909123048091B5
:1052A0002404981728F4809123048F5F80932304AB
:1052B00060917104709172048091730490917404F0
:1052C00020914B0430914C0440914D0450914E0478
:1052D0000E94DC375B016C016093530470935404AB
:1052E0008093550490935604E090D203F090D3033A
:1052F0000091D4031091D503C801B701A80197010B
:105300000E94DD37A80197010E94653A9B01AC011C
:1053100060E070E08AE793E40E94BE387B018C0174
:1053200060932704709328048093290490932A049F
:10533000A80197010E94DD379B01AC01C601B501B0
:105340000E945A3A18167CF4C601B501A8019701CB
:105350000E94DC3720E030E04AEF53E40E94653AD7
:105360000E94CC3A20C0C801B70120E030E040E004
:1053700050EC0E94653A9B01AC01C601B5010E9448
:10538000BA388823CCF4C601B5019058A80197011A
:105390000E94DC3720E030E04AEF53E40E94653A97
:1053A0000E94CC3A905860935704709358048093AD
:1053B000590490935A041EC00091080110910901EC
:1053C00020910A0130910B0182ED93E0B601A50115
:1053D0000E94421E8091EE039091EF03A091F00392
:1053E000B091F1038093570490935804A09359040B
:1053F000B0935A0480917004823081F480915B04F0
:1054000090915C04A0915D04B0915E048093570478
:1054100090935804A0935904B0935A04E0903F0429
:10542000F0904004009141041091420460915704AF
:10543000709158048091590490915A0420914F041E
:105440003091500440915104509152040E94DC3735
:10545000A80197010E94DC3724EE30EA44EE5DE3B8
:105460000E94653A9B01AC01C801B7010E94DD377B
:10547000AB01BC01CA01DB0180933F04909340045F
:10548000A0934104B09342040091080110910901D6
:1054900020910A0130910B018AEF93E00E94421E95
:1054A000E0902F04F0903004009131041091320408
:1054B000609116047091170480911804909119045A
:1054C00020912B0430912C0440912D0450912E04F6
:1054D0000E94DC37A80197010E94DC372BEA34E2F6
:1054E00042E75DE30E94653A9B01AC01C801B70148
:1054F0000E94DD37AB01BC01CA01DB0180932F04A0
:1055000090933004A0933104B093320400910801C9
:105510001091090120910A0130910B018AEA93E070
:105520000E94421E809170048823D9F06091B002DD
:105530007091B102882777FD8095982F0E94593984
:105540002091C6033091C7034091C8035091C9030D
:105550000E94DD370E942639709397046093960469
:105560002AC082ED93E00E94381E8AEF93E00E94E9
:10557000381E8AEA93E00E94381E80E090E0A0E0A6
:10558000B0E080932F0490933004A0933104B09343
:10559000320480933F0490934004A0934104B0935D
:1055A000420409C080917004882319F082E080933E
:1055B00084041092700428960FB6F894DEBF0FBED4
:1055C000CDBFCF91DF911F910F91FF90EF90DF90B2
:1055D000CF90BF90AF909F908F907F906F905F9093
:1055E0004F903F902F9008952F923F924F925F924D
:1055F0006F927F928F929F92AF92BF92CF92DF92E3
:10560000EF92FF920F931F93DF93CF93CDB7DEB747
:1056100029970FB6F894DEBF0FBECDBF0E94FA1CCB
:10562000992787FD90959093A8028093A7020E94E6
:10563000D319992787FD90959093A8028093A7028C
:105640000097A9F0019709F455C1809162028F5F1C
:10565000809362028B3008F44DC10E940F248DEFBD
:10566000809383048091A7028093840443C11092A5
:105670006202809182048F5F80938204883C11F4DF
:10568000109282040E94B7352091A603621B60939A
:10569000070170E080E090E00E94573920E030E0A0
:1056A0004AE754E40E94BE386093080170930901F0
:1056B00080930A0190930B010E94B7356093A60373
:1056C0007093A7038093A8039093A9038091070187
:1056D0008B3048F091E09093840480917504882386
:1056E00011F4909375040E94FE270E94632588237D
:1056F00009F000C10E942B24882309F0FBC00E94FE
:105700009F26809106018987E82EFF2460919604E8
:1057100070919704882777FD8095982F0E945939BA
:105720006D837E838F83988780911E0390911F03E2
:10573000A0912003B091210389839A83AB83BC831A
:105740006D817E818F81988529813A814B815C8131
:105750000E94DD371B012C01A090F602B090F702E9
:10576000C090F802D090F9026090CE027090CF0203
:105770008090D0029090D102870103701070000FCA
:10578000111F0D5A1D4FA60195010E94DC37A4017F
:1057900093010E94DD370E942639D8016D937C93D6
:1057A000F694E7948701067010700D5A1D4FC201E0
:1057B000B101A60195010E94DD37A40193010E9469
:1057C000DC370E942639F801718360836D817E8108
:1057D0008F81988529813A814B815C810E94DC37D9
:1057E0001B012C01F694E794F694E794F6E0EF227F
:1057F000FF2483E592E0E80EF91EC201B101A60183
:1058000095010E94DC37A40193010E94DC370E94BD
:105810002639D7016D937C93B985B295B695B69527
:10582000B3700B2F10E0000F111F0D5A1D4FC20156
:10583000B101A60195010E94DD37A40193010E94E8
:10584000DD370E942639F801718360830E94A62209
:105850002091AC023091AD02809196049091970412
:105860008217930784F50E940F248091E4019091A0
:10587000E501A091E601B091E7018093880490933F
:105880008904A0938A04B0938B041092870408E2E1
:1058900015C0809FC00111248E549D4F0E94381E58
:1058A00080918704809FC0011124865D9C4F0E94D7
:1058B000381E809187048F5F8093870480918704CE
:1058C000833038F317C040E00FC0E42FF0E0EE0F54
:1058D000FF1FED5AFD4F80819181821793070CF4D1
:1058E000C901918380834F5F443078F340938704EC
:1058F0000E941E1F29960FB6F894DEBF0FBECDBFC3
:10590000CF91DF911F910F91FF90EF90DF90CF909B
:10591000BF90AF909F908F907F906F905F904F90CF
:105920003F902F90089580E991E060E00E94C006CA
:105930008CE061E00E9459368CB580648CBD8CB5DA
:1059400080688CBD08951F931092870418E215C0DB
:10595000819FC00111248E549D4F0E94081E80918A
:105960008704819FC0011124865D9C4F0E94081E00
:10597000809187048F5F80938704809187048330B0
:1059800038F38AEA93E00E94081E8AEF93E00E94AF
:10599000081E82ED93E00E94081E1092230480915D
:1059A0002304809322048FE0809324048CE390E00E
:1059B0000E949836809325049093260480E090E01E
:1059C000A0ECB0E480935F0490936004A093610422
:1059D000B093620480E090E0A0E0BFE380936304B2
:1059E00090936404A0936504B093660480E595E504
:1059F000A5E5BFE38093670490936804A0936904CE
:105A0000B0936A048EED9EEAA7E9BBE380936B0432
:105A100090936C04A0936D04B0936E0480E090E0CA
:105A2000A0E0B0E08093880490938904A0938A0456
:105A3000B0938B0410928204109283041092850418
:105A40001092860410926202109270048093710486
:105A500090937204A0937304B093740480932B0406
:105A600090932C04A0932D04B0932E0480932F04C4
:105A700090933004A0933104B093320480933304A4
:105A800090933404A0933504B09336048093370484
:105A900090933804A0933904B0933A0480933B0464
:105AA00090933C04A0933D04B0933E048093430440
:105AB00090934404A0934504B09346048093470414
:105AC00090934804A0934904B0934A0480934B04F4
:105AD00090934C04A0934D04B0934E0480934F04D4
