:100000000C9493060C94BB060C94BB060C94BB0694
:100010000C94BB060C94BB060C94BB060C94BB065C
:100020000C94BB060C94BB060C94BB060C943E3798
:100030000C94BB060C94BB060C94BB060C94BB063C
:100040000C94DA310C943B210C948D340C94DB34F9
:100050000C94BB060C94BB060C94BB060C94BB061C
:100060000C94BB060C94BB06036EDB363D9A999943
:10007000993DABAAAA2A3E000000803F084AD73B20
:100080003BCE016E84BCBFFDC12F3D6C74319ABD67
:1000900056833DDA3D00C77F11BED9E4BB4C3E918B
:1000A0006BAAAABE000000803F072C7AA5BA6CC5D7
:1000B00090DA3B9365FC8BBC53F810FD3C56928361
:1000C0004DBD879D3AB63DCBC9BF5BBE73DA0FC944
:1000D0003F00007000000000240000000200030048
:1000E0000000650054FFEF0000FA80000B12820050
:1000F00001030C30C30E8C8CE914D5400213710F30
:100100008E3883F8833000F883258EF8833000F82A
:1001100083FFFFFFFF0FFEA9D6240004001A827997
:10012000A10000003CFFFF00000010000038836FBA
:10013000A2003E03304000000002CAE3093E8000F6
:1001400000200000000000000040000000600000EF
:1001500000000C0000000C186E000006920A16C089
:10016000DFFFFF0256FD8CD377FFE1C496E0C5BEEA
:10017000AA00000000FFFF0B2B0000165700000331
:10018000594000000000001DFA00026C1D00000034
:10019000003FFFDFEB003EB3B6000D227800002FDA
:1001A0003C00000000001942B5000039A20000B375
:1001B00065D90E9FC91DCF4C34300000005000009F
:1001C000003BB67AE80064000000C80000000000B0
:1001D00000100000001000FA921000225E000D22B4
:1001E0009F0001000000320000FF46000063D400C1
:1001F000001000000004D6000004CC000004CC0075
:10020000000000107200000040000000000000002C
:100210000000060002000500070000000000640066
:100220000000000000000000050005006400200040
:10023000000000000000000000000040000000037B
:100240000000000032F8980000FF650000830F00F6
:1002500000FF9BFC00000000000000000000000008
:10026000000000000000000000000000000000008E
:10027000000000000000000000000000000000106E
:100280000040000000000000060000B26A0002000A
:10029000000001FB830068000000D9FC007CF1FF36
:1002A000830000000000650000006403E8006400B3
:1002B00028000000250000000016A000000000102B
:1002C0000000001000002F0000000001F4000010EA
:1002D0000000280000FFFF4581FFFFFA72000000C8
:1002E0000000000000004400050005BAC600477881
:1002F000A200000001000000000000060000000055
:10030000140000254D002F706D000005AE000C029A
:10031000D00000000000000000000000000000000D
:1003200000001B00000000000000000000000000B2
:100330000000640000000800000000000000000051
:1003400000000000000000000000000000000000AD
:10035000000000000000000000000000000000009D
:10036000000000000000000000000000000000008D
:10037000000000000000000000000000000000007D
:10038000000000000000000000000000000000006D
:1003900000001B00000000000000000000000E0034
:1003A0000E00000AC70004000000000032FFFFFF3B
:1003B0009C00000B2B000000020000000100000068
:1003C00064FFE500000000000000000000000000E5
:1003D000000000000100000000000100000000001B
:1003E0000000018000000180000001800000242640
:1003F000D30000000000000000000600100096007E
:100400003C000000000000000000000000000000B0
:10041000000C0A4E68CDCF770950166759C619CE21
:10042000820000000000000000000000000000004A
:1004300000000000000000000017D7840003000047
:10044000000000000000000000C7938F9D1E1B1CD1
:100450001900000000000000000000000000000083
:1004600000000000000000000002031885000040AA
:100470000000000003000000030000000000000076
:10048000004000000000000000000000000000002C
:10049000000000000000000000000000000000005C
:1004A000000000000000000000000000000000004C
:1004B0000000000000677DDF7E72902E554CF6E64E
:1004C00088000000000000000000000000000000A4
:1004D00000D8DCB4B8B0D8B9ABF3F8FAB3B7BB8E78
:1004E0009EAEF132F51BF1B4B8B08097F1A9DFDF11
:1004F000DFAADFDFDFF2AAC5CDC7A90CC92C97F1AF
:10050000A989264666B28999A92D557DB0B08AA8D9
:1005100096365676F1BAA3B4B280C0B8A89711B295
:100520008398BAA3F0240844106418B2B9B498832D
:10053000F1A329557DBAB5B1A38393F0002850F5F6
:10054000B2B6AA839328547CF1B9A3829361BAA26C
:10055000DADEDFDB819AB9AEF5606870F1DABAA253
:10056000DFD9BAA2FAB9A38292DB31BAA2D9BAA270
:10057000F8DF85A4D0C1BBAD83C2C5C7B8A2DFDF99
:10058000DFBAA0DFDFDFD8D8F1B8AAB38DB4980DF9
:10059000355DB2B6BAAF8C96198F9FA70E161EB4F2
:1005A0009AB8AA872C547CBAA4B08AB691325676EF
:1005B000B28494A4C808CDD8B8B4B0F19982A82D5B
:1005C000557D98A80E161EA22C547C92A4F02C5097
:1005D00078F184A898C4CDFCD80DDBA8FC2DF3D904
:1005E000BAA6F8DABAA6DED8BAB2B68696A6D0F31C
:1005F000C841DAA6C8F8D8B0B4B882A892F52C548D
:100600008898F135D9F418D8F1A2D0F8F9A884D98E
:10061000C7DFF8F883C5DADF69DF83C1D8F40114D6
:10062000F1A8824EA884F311D182F5D99228978837
:10063000F109F41C1CD884A8F3C0F9D1D99782F130
:1006400029F40DD8F3F9F9D1D982F4C203D8DEDF49
:100650001AD8F1A2FAF9A88498D9C7DFF8F8F88374
:10066000C7DADF69DFF883C3D8F40114F198A882F0
:100670002EA884F311D182F5D992509788F109F40C
:100680001CD884A8F3C0F8F9D1D99782F149F40DA8
:10069000D8F3F9F9D1D982F4C403D8DEDFD8F1ADAB
:1006A0008898CCA809F9D98292A8F57CF1883ACF2C
:1006B000944A6E98DB6931DAADF2DEF9D88795A8F5
:1006C000F221D1DAA5F9F417D9F1AE8ED0C0C3AEBC
:1006D00082C684C3A88595C8A588F2C0F1F4010E2E
:1006E000F18E9EA8C63E56F554F18872F40115F1BC
:1006F0009845856EF58E9E0488F142985A8E9E0626
:100700008869F4011CF1981E1108D0F504F11E97B8
:100710000202983625DBF9D985A5F3C1DA85A5F360
:10072000DFD88595A8F309DAA5FAD88292A8F578DA
:10073000F1881A849F26889821DAF41DF3D8879FC0
:1007400039D1AFD9DFDFFBF9F40CF3D8FAD0F8DAFE
:10075000F9F9D0DFD9F9D8F40BD8F3879F39D1AFA5
:10076000D9DFDFF41DF3D8FAFCA869F9F9AFD0DAC4
:10077000DEFAD9F88F9FA8F1CCF398DB45D9AFDF2B
:10078000D0F8D8F18F9FA8CAF38809DAAF8FCBF8D9
:10079000D8F2AD978D0CD9A5DFF9BAA6F3FAF41209
:1007A000F2D8950DD1D9BAA6F3FADAA5F2C1BAA654
:1007B000F3DFD8F1BAB2B68696A6D0CAF349DAA664
:1007C000CBF8D8B0B4B8D8AD84F2C0DFF18FCBC3CA
:1007D000A8B2B68696C8C1CBC3F3B0B48898A82196
:1007E000DB718D9D71859521D9ADF2FAD88597A8D9
:1007F00028D9F408D8F28D29DAF405D9F285A4C2F3
:10080000F2D8A88D9401D1D9F411F2D88721D8F467
:100810000AD8F28498A8C801D1D9F411D8F3A4C891
:10082000BBAFD0F2DEF8F8F8F8F8F8F8F8D8F1B87D
:10083000F6B5B9B08A95A3DE3CA3D9F8D85CA3D9A4
:10084000F8D87CA3D9F8D8F8F9D1A5D9DFDAFAD845
:10085000B18530F7D9DED8F830ADDADED8F2B48C15
:1008600099A32D557DA083DFDFDFB591A0F629D9AF
:10087000FBD8A0FC29D9FAD8A0D051D9F8D8FC517E
:10088000D9F9D879D9FBD8A0D0FC79D9FAD8A1F96F
:10089000F9F9F9F9A0DADFDFDFD8A1F8F8F8F8F80C
:1008A000ACDEF8ADDE8393AC2C547CF1A8DFDFDF47
:1008B000F69D2CDAA0DFD9FADB2DF8D8A850DAA003
:1008C000D0DED9D0F8F8F8DB55F8D8A878DAA0D07F
:1008D000DFD9D0FAF8F8F8F8DB7DF8D89CA88CF5C9
:1008E00030DB38D9D0DEDFA0D0DEDFD8A848DB5837
:1008F000D9DFD0DEA0DFD0DED8A868DB70D9DFDF9B
:10090000A0DFDFD8F1A888902C547C98A8D05C3860
:10091000D1DAF2AE8CDFF9D8B087A8C1C1B188A80E
:10092000C6F9F9DA36D8A8F9DA36D8A8F9DA36D815
:10093000A8F9DA36D8A8F9DA36D8F78D9DADF818C7
:10094000DAF2AEDFD8F7ADFA30D9A4DEF9D8F2AEDC
:10095000DEFAF983A7D9C3C5C7F1889BA77AADF79B
:10096000DEDFA4F8849408A797F300AEF29819A4E8
:1009700088C6A39488F632DFF28393DB09D9F2AA02
:10098000DFD8D8AEF8F9D1DAF3A4DEA7F1889B7AE4
:10099000D8F38494AE19F9DAAAF1DFD8A881C0C3DC
:1009A000C5C7A39283F628ADDED9F8D8A350ADD938
:1009B000F8D8A378ADD9F8D8F8F9D1A1DADEC3C553
:1009C000C7D8A18194F818F2B089ACC3C5C7F1D8D3
:1009D000B8B4B09786A8319B069907AB9728889B37
:1009E000F00C201440B0B4B8F0A88A9A285078B718
:1009F0009BA8295179247059446938644831F1BB66
:100A0000AB88002C547CF0B38BB8A804285078F144
:100A1000B088B49726A85998BBABB38B022646661C
:100A2000B0B8F08A9CA82951798B2951798A247011
:100A3000598B2058718A4469388B3940688A6448D8
:100A4000318B30496088F1AC002C547CF08CA804C8
:100A5000285078F1889726A85998AC8C02264666CB
:100A6000F0899CA829517924705944693864483127
:100A7000A98809205970AB11384069A8193148601C
:100A80008CA83C415C207C00F187981986A86E7682
:100A90007EA999882D557DD8B1B5B9A3DFDFDFAE2A
:100AA000D0DFAAD0DEF2ABF8F9D9B087C4AAF1DF63
:100AB000DFBBAFDFDFB9D8B1F1A3978E60DFB084C1
:100AC000F2C8F8F9D9DED89385F14AB183A308B505
:100AD000839A0810B79F10D8F1B0BAAEB08AC2B2EC
:100AE000B68E9EF1FBD9F41DD8F9D90CF1D8F8F8DF
:100AF000AD61D9AEFBD8F40CF1D8F8F8AD19D9AE88
:100B0000FBDFD8F416F1D8F8AD8D61D9F4F4ACF56B
:100B10009C9C8DDF2BBAB6AEFAF8F40BD8F1AED0B0
:100B2000F8AD51DAAEFAF8F1D8B9B1B6A3839C08A2
:100B3000B9B1839AB5AAC0FD3083B79F10B58B9326
:100B4000F20202D1ABDADED8F1B080BAABC0C3B2E8
:100B500084C1C3D8B1B9F38BA391B609B4D9ABDEC4
:100B6000B0879CB9A3DDF1B38B8B8B8B8BB087A344
:100B7000A3A3A3B28BB69BF2A3A3A3A3A3A3A3A3F4
:100B8000A3A3F1B087B59AA3F39BA3A3DCBAACDF10
:100B9000B9A3A3A3A3A3A3A3A3A3A3A3A3A3A3A30F
:100BA000A3D8D8D8BBB3B7F1AAF9DAFFD9809AAAEB
:100BB00028B48098A720B79787A86688F07951F164
:100BC000902C870CA781976293F0717160859401D6
:100BD00029517990A5F1284C6C870C95188578A33C
:100BE0008390284C6C886CD8F3A28200F210A892F3
:100BF0001980A2F2D926D8F188A84DD948D896A84C
:100C00003980D93CD89580A839A68698D92CDA871E
:100C1000A72CD8A8899519A980D938D8A88939A925
:100C200080DA3CD8A82EA83990D90CD8A89531984C
:100C3000D90CD8A809D9FFD801DAFFD89539A9DA93
:100C400026FFD890A80D8999A810809821DA2ED86F
:100C50008999A83180DA2ED8A886963180DA2ED8E4
:100C6000A8873180DA2ED8A88292F34180F1D92E5C
:100C7000D8A882F31980F1D92ED882ACF3C0A28013
:100C800022F1A62EA72EA92298A829DAACDEFFD839
:100C9000A2F22AF1A92E8292A8F23180A696F1D969
:100CA00000AC8C9C0C30ACDED0DEFFD88C9CACD081
:100CB00010ACDE8092A2F24C82A8F1CAF235F19615
:100CC00088A6D900D8F1FF00000000240027002AE0
:100CD0000000000000250028002B00000000002379
:100CE000002600290004040404040404040202028F
:100CF000020202030303030303010204081020405D
:100D000080010204081020010204081020000000E5
:100D100007000201000003040600000000000000BC
:100D200000006A23C03511241FBECFEFD8E0DEBF1C
:100D3000CDBF11E0A0E0B1E0EEECF7E702C0059016
:100D40000D92A634B107D9F716E0A6E4B1E001C0D0
:100D50001D92A338B107E1F71DE0C6E2DDE004C053
:100D60002297FE010E94E13BC232D107C9F70E94DF
:100D700016360C94BD060C940000F8940C94E53BD8
:100D8000FB01DC0104C08D910190801921F44150D8
:100D90005040C8F7881B990B0895FC011092BC00C5
:100DA000662319F088B1806302C088B18F7C88B94E
:100DB0001092B9009F01442737FD4095542F60E8F9
:100DC0007EE380E090E00E94C43B205130404040F0
:100DD0005040CA01B90122E030E040E050E00E94FA
:100DE000C43B2093B80084E08093BC000895482F52
:100DF000440F92E064EB54E86093BC002AEF30E0CB
:100E00008091BC0087FD34C0215030408FEF2F3FD0
:100E10003807B1F727C08091B900887F883021F06A
:100E2000803111F082E008954093BB005093BC00E4
:100E30002AEF30E08091BC0087FD1EC02150304079
:100E40008FEF2F3F3807B1F70FC08091B900887F2F
:100E5000803221F4992351F09150CECF883131F472
:100E600080E0089581E0089583E0089584E0089586
:100E70001216130684F2F6CF1216130634F3F4CFCB
:100E8000EF92FF920F931F93162FE42E022FF32E53
:100E90000E94F7061093BB0084E88093BC002AEF01
:100EA00030E08091BC0087FD07C0215030408FEFBB
:100EB0002F3F3807B1F703C0121613063CF0802FFE
:100EC0009F2D9C01F90190E044E81CC08091B9007D
:100ED000F6CF80818093BB004093BC002AEF30E0C6
:100EE0008091BC0087FD07C0215030408FEF2F3F1D
:100EF0003807B1F705C01216130614F48091B90033
:100F00009F5F31969E1528F384E98093BC002AEFF9
:100F100030E08091BC0087FD06C02115310519F035
:100F200021503040F6CF81E01F910F91FF90EF905C
:100F300008951F93F82F122F72E0B4EBE82FEE7F85
:100F4000A4E8B093BC002AEF30E08091BC0087FD9C
:100F5000D0C0215030408FEF2F3F3807B1F7B7C0D6
:100F60008091B900887F883021F0803111F091E1C3
:100F7000BDC0E093BB00A093BC002AEF30E080919D
:100F8000BC0087FDBBC0215030408FEF2F3F38079A
:100F9000B1F79FC09091B900987F903229F47723E0
:100FA00009F499C07150CDCF983109F094C0609385
:100FB000BB0084E88093BC002AEF30E08091BC0045
:100FC00087FDA1C0215030408FEF2F3F3807B1F788
:100FD00084C08091B900887F883211F095E186C085
:100FE00062E0A4EB7F2F7160E4E8A093BC002AEFDD
:100FF00030E08091BC0087FD8BC0215030408FEFE6
:101000002F3F3807B1F76BC08091B900887F8830D7
:1010100021F0803111F097E169C07093BB00E0933B
:10102000BC002AEF30E08091BC0087FD76C02150E3
:1010300030408FEF2F3F3807B1F758C08091B9008B
:10104000887F883429F4662309F44BC06150CDCFE2
:10105000803409F046C0FA0160E0412F50E0415071
:101060005040A4EC74E822C0862F90E084179507C6
:1010700019F47093BC0002C0A093BC002AEF30E0CA
:101080008091BC0087FD4EC0215030408FEF2F3F34
:101090003807B1F728C09091B900987F903511F0CA
:1010A000983521F58091BB0081936F5F6117E0F265
:1010B00084E98093BC002AEF30E08091BC0087FD7A
:1010C00014C02115310589F021503040F6CF90E150
:1010D0000DC092E10BC093E109C094E107C096E115
:1010E00005C099E103C09AE101C090E0892F1F91EA
:1010F0000895121613060CF433CFE9CF1216130617
:101100000CF448CFE6CF121613060CF462CFE5CFED
:10111000121613060CF478CFE2CF121613060CF455
:101120008DCFE4CF121613060CF4B5CFDCCF7F922F
:101130008F929F92AF92BF92CF92DF92EF92FF92E7
:101140000F931F93CF93DF93F82EE62E742E690131
:10115000E8010E9422324B015C018F2D880F6E2D19
:10116000A601272D0E949907882311F01FEF01C0C7
:10117000172D2097C1F00E942232681979098A0937
:101180009B099E0140E050E06217730784079507B2
:1011900050F0212F332727FD3095872D90E0281719
:1011A00039070CF41FEF812FDF91CF911F910F9121
:1011B000FF90EF90DF90CF90BF90AF909F908F9077
:1011C0007F9008959C018230910518F02FEF3FEF3A
:1011D00045C080936002909361028AE290E0AC0186
:1011E000249FC001259F900D349F900D11248A5B90
:1011F0009E4F9093590280935802C901880F991FFE
:10120000820F931F880F991F880F991F86569E4F34
:1012100090935B0280935A0287E290E0AC01249F96
:10122000C001259F900D349F900D11248E549E4F28
:1012300090935D0280935C028CE290E0AC01249F6D
:10124000C001259F900D349F900D112480509E4F1A
:1012500090935F0280935E0220E030E0C901089520
:101260000F931F93CF93DF93C0915802D0915902EF
:1012700085E7888389E189838AE18A838CE08B838F
:101280008AE68C8383E28D838BE18E838CE18F836E
:101290008FE18A8780E28B8782E78C8784E78D875E
:1012A00083E48E878BE38F8781E4888B88E3898B47
:1012B00089E38A8B8AE38B8B8BE68D8B8CE68E8B16
:1012C00087E38F8B8FE6888F86E0898F84E28A8F11
:1012D0008DE68B8F8EE68C8F80E78D8F89E488A7D3
:1012E00081E089A785E28E8F86E28F8F87E288A3CF
:1012F00088E289A389E28AA38AE28BA384E38CA390
:1013000083E68DA384E68EA387E68FA38091600297
:1013100090916102009719F0019769F406C0E0917D
:101320005A02F0915B0288E605C0E0915A02F09102
:101330005B0289E6808300915A0210915B0280E093
:1013400094E0F8019283818386E7838384E591E0CA
:101350009583848387EF9DEF9783868380E091E078
:101360009187808786E696E29387828720915C0248
:1013700030915D0283E890E0A0E0B0E0F901808365
:101380009183A283B38380E098E0A0E0B0E08483FF
:101390009583A683B783108681E08187128688E1D2
:1013A000838782E390E09587848785E0868780E065
:1013B00090E0A0E2B1E48787908BA18BB28B80E0B4
:1013C00090E0A2EDB2E4838B948BA58BB68B49E2BF
:1013D0005CE56FE07EE3478B508F618F728F8AE907
:1013E00099E9A9E9BEE3838F948FA58FB68F83E334
:1013F00093E3A3E7BFE3878F90A3A1A3B2A343A383
:1014000054A365A376A3E0915E02F0915F02D183BD
:10141000C0831383028333A722A7DF91CF911F914B
:101420000F910895DC01E0915E02F0915F028681E8
:10143000882319F081E08C9301C01C9280E090E039
:101440000895DF93CF930F92CDB7DEB7982FA09179
:101450005E02B0915F025D968C915D97882321F0CA
:10146000992389F082E00DC016968C9116978823F7
:10147000E9F0992341F01C968C911C978823F9F48C
:1014800081E0898301C019821296ED91FC91139736
:101490000D90BC91A02D808151966C9141E09E01F0
:1014A0002F5F3F4F0E944007882319F42FEF3FEF33
:1014B00008C0E0915E02F0915F028981848720E09C
:1014C00030E0C9010F90CF91DF910895CF92DF9264
:1014D000EF92FF920F931F93DF93CF9300D0CDB77E
:1014E000DEB7D82EC92E8B017A014115510519F4AA
:1014F0002FEF3FEF41C0E0915E02F0915F028681E5
:10150000882319F42EEF3FEF37C0A281B3819B01EE
:101510002D0D311D18968D919C9119978217930767
:1015200018F42DEF3FEF28C0C982DA820190F081D4
:10153000E02D8C91638D42E09E012F5F3F4F0E9412
:101540004007882319F42CEF3FEF16C0E0915E02AC
:10155000F0915F02A281B3810190F081E02D8C9126
:10156000608D402F97010E944007882319F020E0EA
:1015700030E002C02BEF3FEFC9010F900F90CF91E9
:10158000DF911F910F91FF90EF90DF90CF90089522
:101590001F93DF93CF930F92CDB7DEB7182FA09193
:1015A0005E02B0915F025C968C915C97811781F12D
:1015B000112319F080E3898301C019821D968C9153
:1015C0001D97882319F08981826089835B968C91AD
:1015D0005B97882319F08981806889831296ED9141
:1015E000FC9113970D90BC91A02D808157966C9122
:1015F00041E09E012F5F3F4F0E944007882319F46E
:101600002FEF3FEF07C0E0915E02F0915F02148F71
:1016100020E030E0C9010F90CF91DF911F91089534
:10162000DF93CF930F92CDB7DEB7BC010097A9F13E
:1016300020915E0230915F02D90119968D919C91A3
:101640001A978617970748F16536710530F50E949D
:101650007B3B61506983F90182819381A081B181D3
:10166000FC01808194966C9141E09E012F5F3F4F79
:101670000E944007882389F0E0915E02F0915F02AA
:10168000698170E06F5F7F4F818592850E947B3B0F
:1016900072A361A320E030E002C02FEF3FEFC90149
:1016A0000F90CF91DF910895DF93CF930F92CDB735
:1016B000DEB79C01A0915E02B0915F0216968C91FC
:1016C0001697882399F12C3B310510F081E015C065
:1016D0002236310510F082E010C02A32310510F0B8
:1016E00083E00BC02431310510F084E006C02A30BD
:1016F000310510F085E001C086E0898317969C9142
:10170000179789819817D9F01296ED91FC9113974C
:101710000D90BC91A02D808112966C9141E09E01AC
:101720002F5F3F4F0E944007882319F42FEF3FEFB0
:1017300008C0E0915E02F0915F028981878320E01A
:1017400030E0C9010F90CF91DF910895DF93CF93DF
:101750000F92CDB7DEB7982FA0915E02B0915F02D5
:1017600016968C9116978823A1F1943061F09530EC
:1017700018F4923071F505C0983039F0903149F580
:1017800006C0198206C088E003C080E101C088E17C
:10179000898315962C91159730E0898190E0E3E0DC
:1017A00095958795EA95E1F72817390709F112967B
:1017B000ED91FC9113970D90BC91A02D808117960F
:1017C0006C9141E09E012F5F3F4F0E9440078823AC
:1017D00019F42FEF3FEF0EC0E0915E02F0915F022F
:1017E000898190E073E0959587957A95E1F78583F7
:1017F00020E030E0C9010F90CF91DF910895DF9391
:10180000CF930F92CDB7DEB79C01A0915E02B0914D
:101810005F0216968C9116978823E1F181E0243FB0
:10182000380791F081E0253F380720F42A3F310541
:1018300089F508C083E0283E380741F0205D374035
:1018400049F506C0198206C088E003C080E101C0E6
:1018500088E1898314962C91149730E0898190E077
:1018600043E0959587954A95E1F72817390709F1DF
:101870001296ED91FC9113970D90BC91A02D808153
:1018800016966C9141E09E012F5F3F4F0E944007EA
:10189000882319F42FEF3FEF0EC0E0915E02F09124
:1018A0005F02898190E0A3E095958795AA95E1F77D
:1018B000848320E030E0C9010F90CF91DF9108953B
:1018C0000F931F93DF93CF930F92CDB7DEB7A09105
:1018D0005E02B0915F0216968C911697882309F4E8
:1018E0001BC119821296ED91FC9113970D90BC913A
:1018F000A02D808151966C9141E08E010F5F1F4FAA
:1019000098010E944007882309F406C1E0915E0215
:10191000F0915F02A281B3810190F081E02D8C9162
:10192000658141E098010E944007882309F4F4C0D2
:10193000E0915E02F0915F02A281B3810190F0819B
:10194000E02D8C91648141E098010E94400788233A
:1019500009F4E2C0A0915E02B0915F025D968C91A5
:101960005D97882309F469C08CE089831296ED9114
:10197000FC9113970D90BC91A02D808114966C91D1
:1019800041E098010E944007882309F4C5C062E342
:1019900070E080E090E00E94303280EC8983A0917A
:1019A0005E02B0915F0216968C91169780FF02C07E
:1019B00080EE89831296ED91FC9113970D90BC9166
:1019C000A02D808114966C9141E09E012F5F3F4FC6
:1019D0000E944007882309F49FC0A0915E02B09145
:1019E0005F021C968C911C97882319F082E08983F2
:1019F00001C019821296ED91FC9113970D90BC9144
:101A0000A02D808151966C9141E08E010F5F1F4F98
:101A100098010E944007882309F47EC01982E09152
:101A20005E02F0915F02A281B3810190F081E02D0E
:101A30008C91658141E098016BC084E089831296A6
:101A4000ED91FC9113970D90BC91A02D808114967F
:101A50006C9141E098010E944007882309F45CC022
:101A6000A0915E02B0915F021D968C911D97882314
:101A700029F416968C91169780FD02C080E401C06F
:101A800080E689831296ED91FC9113970D90BC919D
:101A9000A02D808114966C9141E09E012F5F3F4FF5
:101AA0000E9440078823C1F162E370E080E090E08B
:101AB0000E943032A0915E02B0915F021C968C9120
:101AC0001C97882319F081E0898301C0198212963E
:101AD000ED91FC9113970D90BC91A02D80815196B2
:101AE0006C9141E09E012F5F3F4F0E944007882389
:101AF00099F0E0915E02F0915F02A281B3812081B2
:101B000031813B968C91D90115966C9141E09F01F2
:101B10000E944007882319F42FEF3FEF02C020E016
:101B200030E0C9010F90CF91DF911F910F9108957F
:101B30000F931F93CF93DF93982FE0915E02F09164
:101B40005F02858D882319F0C0E0D0E029C086812E
:101B5000882321F1192F1E7F038581238387811715
:101B600019F4C0E0D0E002C0CFEFDFEF112319F489
:101B70008785882331F081E00E94210A112381F0BA
:101B800004C080E00E94210A0BC00E94600C892BD7
:101B900039F0E0915E02F0915F020387CFEFDFEF53
:101BA000CE01DF91CF911F910F9108951F93DF9385
:101BB000CF9300D0CDB7DEB7182F893208F058C0C8
:101BC0008823F9F480E00E94C80A198287E08A839A
:101BD000E0915E02F0915F02A281B3810190F081F9
:101BE000E02D8C91658942E09E012F5F3F4F0E945E
:101BF00040078823E9F1E0915E02F0915F021786C9
:101C000046C081E00E94C80A80E28983113011F445
:101C10001A8204C0163028F481E08A8385E090E0BF
:101C20000BC0153128F482E08A838AE090E004C07A
:101C300083E08A8384E190E00E94540B8A8182953C
:101C4000880F880F807C87608A83E0915E02F09124
:101C50005F02A281B3810190F081E02D8C916589B2
:101C600042E09E012F5F3F4F0E944007882319F4F6
:101C70002FEF3FEF0EC0E0915E02F0915F0288E02F
:101C80008683108681E0878780E00E94980D20E09F
:101C900030E0C9010F900F90CF91DF911F9108950F
:101CA0000F931F93DF93CF930F92CDB7DEB78C01C5
:101CB000E0915E02F0915F0286818823B9F1858D03
:101CC0008823A1F58785882359F0C8010197889753
:101CD00020F4802F0E94D60D4DC080E00E94D60DCA
:101CE0000430110518F464E070E007C0B80183E027
:101CF000093E180710F068EE73E088EE93E00E944A
:101D00007B3B61506983E0915E02F0915F02A281AA
:101D1000B3810190F081E02D8C91618141E09E01C1
:101D20002F5F3F4F0E944007882319F42FEF3FEFAA
:101D300023C0E0915E02F0915F02698170E06F5F05
:101D40007F4F88EE93E00E948F3B7287618781A16D
:101D500092A18536910510F084E690E00E94100B68
:101D6000E0915E02F0915F0281859285969587955C
:101D70000E94540B20E030E0C9010F90CF91DF9119
:101D80001F910F910895CF92DF92EF92FF920F93E0
:101D90001F93DF93CF9300D0CDB7DEB7182F092F55
:101DA0007B016A0141155105D1F1E0915E02F0918C
:101DB0005F028681882399F1A281B3819B01210F63
:101DC000311D18968D919C9119978217930738F1C0
:101DD00009831A830190F081E02D8C91638D42E09C
:101DE0009E012F5F3F4F0E9440078823C1F0E09182
:101DF0005E02F0915F02A281B3810190F081E02D3B
:101E000000910001109101018C91608D4E2D960181
:101E10000E949708882319F020E030E002C02FEFDD
:101E20003FEFC9010F900F90CF91DF911F910F915C
:101E3000FF90EF90DF90CF900895DF92EF92FF92A6
:101E40000F931F93DF93CF930F92CDB7DEB7D82EAA
:101E5000E0915E02F0915F0285858D1509F49EC0C8
:101E6000A281B3810190F081E02D009100011091D9
:101E700001017E010894E11CF11CDD2089F18C91A7
:101E8000648141E097010E949708882309F47EC08D
:101E900089818F7D8983E0915E02F0915F02A2814A
:101EA000B3810190F081E02D8C91648141E0970134
:101EB0000E944007882309F469C063E070E080E075
:101EC00090E00E94303282E08983A0915E02B0915E
:101ED0005F025B968C915B978823F1F182E839C0B1
:101EE0008C91648141E097010E949708882309F44E
:101EF0004DC0A0915E02B0915F0216968C9116972C
:101F0000998180FF02C0906201C09F7D99831296E3
:101F1000ED91FC9113970D90BC91A02D80811496AA
:101F20006C9141E09E012F5F3F4F0E944007882344
:101F300069F163E070E080E090E00E943032A091AF
:101F40005E02B0915F025B968C915B97882319F0DB
:101F500080E8898301C019825C968C915C97882304
:101F600019F08981806389831296ED91FC91139712
:101F70000D90BC91A02D808157966C9141E09E01FF
:101F80002F5F3F4F0E944007882319F42FEF3FEF48
:101F900007C0E0915E02F0915F02D58620E030E05C
:101FA000C9010F90CF91DF911F910F91FF90EF909A
:101FB000DF900895DF93CF930F92CDB7DEB7982FC0
:101FC000E0915E02F0915F02858D891709F44AC0A5
:101FD000992369F1868D882319F42FEF3FEF44C0D0
:101FE00080E00E94210A80E00E941D0FE0915E02C5
:101FF000F0915F02878D90A10E94500E1982E091AE
:102000005E02F0915F020280F381E02D808163E245
:1020100041E09E012F5F3F4F0E944007E0915E022A
:10202000F0915F0281E0858F0E94210A19C080E053
:102030000E94210AE0915E02F0915F02838589830C
:102040000280F381E02D808163E241E09E012F5FF9
:102050003F4F0E944007E0915E02F0915F02158EB3
:102060000E94600C20E030E0C9010F90CF91DF9119
:1020700008956F927F928F929F92AF92BF92CF926C
:10208000DF92EF92FF920F931F93DF93CF9300D0D5
:10209000CDB7DEB76C013B014A01A0915E02B09161
:1020A0005F025D968C915D97882319F42FEF3FEFC7
:1020B0007CC016968C911697882319F42EEF3FEF6B
:1020C00074C01296ED91FC9113970D90BC91A02DC8
:1020D000009100011091010180811C966C9142E0F9
:1020E0005E010894A11CB11C95010E9497088823E9
:1020F00019F42DEF3FEF59C0998180E02A81E22E3B
:10210000FF24E82AF92AEC14FD0428F4F4011082D3
:1021100021E030E04AC0E0915E02F0915F02A281CE
:10212000B38111968D919C911297969587958E15F6
:102130009F05D0F40190F081E02D009100011091F5
:1021400001018C91638941E095010E9497088823E1
:1021500019F42BEF3FEF29C0898184FF05C00E944D
:10216000600C22E030E021C0E0915E02F0915F025D
:10217000A281B3810190F081E02D009100011091C6
:1021800001018C9165854C2D93010E94970888234D
:1021900019F429EF3FEF09C0C701B6010E947B3B4C
:1021A0006150F401608320E030E0C9010F900F908E
:1021B000CF91DF911F910F91FF90EF90DF90CF9023
:1021C000BF90AF909F908F907F906F900895DF9217
:1021D000EF92FF920F931F93DF93CF9300D0CDB771
:1021E000DEB7D82EE82EFF24C70180779070892BA8
:1021F00011F081E005C0DD2011F0198202C080E4F9
:102200008983E0915E02F0915F02A281B381019027
:10221000F081E02D8C91658941E09E012F5F3F4F59
:102220000E944007A0915E02B0915F02882319F4DA
:1022300016961C9230C089818F7B18968C931897C4
:102240001982E6FC02C084E08983E5FC03C0898131
:1022500082608983E4FC03C0898181608983E3FC17
:1022600003C08981886389831296ED91FC9113974D
:102270000D90BC91A02D808156966C9141E09E01FD
:102280002F5F3F4F0E944007882341F4E0915E0298
:10229000F0915F0216822FEF3FEF6CC0DD2031F02E
:1022A00088E0D81619F080E00E94C80AE0915E022A
:1022B000F0915F02A281B3810190F081E02D009145
:1022C0000001109101018C91648141E09E012E5F1B
:1022D0003F4F0E9497088823F1F29A81E0FE04C0E4
:1022E00081E08983906202C019829F7D9A83A091C8
:1022F0005E02B0915F025D968C915D979A81882312
:1023000011F0906801C09F779A831296ED91FC912D
:1023100013970D90BC91A02D808196966C9141E011
:102320009E012F5F3F4F0E944007882309F4B3CFDF
:10233000E0915E02F0915F02A281B3810190F08191
:10234000E02D8C91648141E09E012E5F3F4F0E9401
:102350004007882309F49FCFE0915E02F0915F026D
:10236000D682178662E370E080E090E00E9430320F
:1023700020E030E0C9010F900F90CF91DF911F91C5
:102380000F91FF90EF90DF9008952F923F924F9220
:102390005F926F927F928F929F92AF92BF92CF92F5
:1023A000DF92EF92FF920F931F93DF93CF93CDB7FE
:1023B000DEB764970FB6F894DEBF0FBECDBF3C0109
:1023C0004B014B8B5C8B1901E0915E02F0915F0237
:1023D000868D882319F02FEF3FEF75C061157105C9
:1023E00019F42EEF3FEF6FC080E190E00E94573369
:1023F000B92EC82ED92EA82EEE24FF2463E0462E37
:10240000512C4C0E5D1E38C083010E191F0901317D
:10241000110510F000E110E094012E0D3F1DD601D2
:10242000A601400F511F05C0F90184918D932F5FC4
:102430003F4FA417B507C1F7C701B801A5010E9416
:10244000660A892B19F02DEF3FEF3DC0C701B80197
:10245000A2010E94C30E892B19F02CEF3FEF33C06D
:10246000C501B201A8010E94C006009719F02BEF28
:102470003FEF29C0E00EF11EE614F70428F2FC89B4
:10248000F9838B898A83E0915E02F0915F02A281D9
:10249000B3810190F081E02D8C91658D42E09E0129
:1024A0002F5F3F4F0E944007882319F42AEF3FEF28
:1024B0000AC0E0915E02F0915F0281E0868F30A257
:1024C000278E20E030E0C90164960FB6F894DEBF95
:1024D0000FBECDBFCF91DF911F910F91FF90EF9075
:1024E000DF90CF90BF90AF909F908F907F906F9034
:1024F0005F904F903F902F900895EF92FF920F932F
:102500001F93DF93CF93CDB7DEB72B970FB6F89419
:10251000DEBF0FBECDBF80E88D83E0915E02F091FB
:102520005F02A281B3810190F081E02D15E0E12EE0
:10253000F12CEC0EFD1E8C91658941E097010E9403
:102540004007882319F42FEF3FEF26C264E670E0BE
:1025500080E090E00E9430321D82E0915E02F091B6
:102560005F02A281B3810190F081E02D8C91658999
:1025700041E097010E944007882319F42EEF3FEFB6
:102580000BC2E0915E02F0915F02A281B3810190E3
:10259000F081E02D00910001109101018C91618D7D
:1025A00046E097010E949708882319F42DEF3FEF2A
:1025B000F3C18A8590E081709070880F991F880F11
:1025C000991F288530E021703070220F331F982F1B
:1025D000922B8E818170982B91F0913031F4E091A3
:1025E0005E02F0915F02968732C0923019F02CEFB4
:1025F0003FEFD2C1E0915E02F0915F0227C0E0910F
:102600005E02F0915F02A281B3810190F081E02D22
:1026100000910001109101018C91638141E09701CB
:102620000E949708882319F42BEF3FEFB5C18D81E5
:102630008F7019F42AEF3FEFAFC1E0915E02F09185
:102640005F02843019F481E0868701C01686E0912C
:102650005E02F0915F028FEF868384838583878398
:102660002FEF3FEF328721878387858732A321A30E
:1026700081E08087838F148E108A178671968AE096
:1026800011928A95E9F7E0915E02F0915F02158E52
:10269000168E10A2178E80ED97E00E94FF0B892BFB
:1026A00019F026EF3FEF78C182E00E94A60B892B3C
:1026B00019F025EF3FEF70C18AE290E00E94540BC1
:1026C000892B19F024EF3FEF67C182E390E00E946D
:1026D000500E892B19F023EF3FEF5EC180E00E947E
:1026E000980D892B19F022EF3FEF56C181E00E942F
:1026F0001D0F9CE07E010894E11CF11C009100017B
:1027000010910101892F60E041E097019B870E94B1
:1027100097089B85882399F08981883481F4E0911A
:102720005E02F0915F0293A3198283A16AE041E007
:1027300097010E944007882309F420C104C09F5FCD
:102740009031E1F61BC161E070E080E090E00E9412
:1027500030328FE08983E0915E02F0915F0283A1C5
:102760006AE041E097010E944007882309F406C10E
:1027700061E070E080E090E00E943032E0915E0223
:10278000F0915F02009100011091010183A160E1CD
:1027900043E097010E949708882309F4EFC0E09175
:1027A0005E02F0915F02898190E080589F4F95A36F
:1027B00084A38A8190E080589F4F97A386A38B8142
:1027C00090E080589F4F91A780A7198283A16AE06B
:1027D00041E097010E944007882309F4CFC061E0DF
:1027E00070E080E090E00E94303280E00E941D0F97
:1027F00080E48983E0915E02F0915F02A281B3815F
:102800000190F081E02D8C91628D41E097010E9452
:102810004007882309F4B2C0E0915E02F0915F02A4
:1028200083A180688983A281B3810190F081E02D2A
:102830008C91668D41E097010E944007882309F43E
:102840009DC082E08983E0915E02F0915F02A281E7
:10285000B3810190F081E02D8C91678D41E097016B
:102860000E944007882309F489C088E88983E091A1
:102870005E02F0915F02A281B3810190F081E02DB0
:102880008C9160A141E097010E944007882309F4E0
:1028900075C0E0915E02F0915F0283A18983A281FD
:1028A000B3810190F081E02D8C9161A141E08E0116
:1028B0000F5F1F4F98010E944007882309F45EC0F4
:1028C0008AE08983E0915E02F0915F02A281B38188
:1028D0000190F081E02D8C9162A141E098010E946D
:1028E0004007882309F44AC081E88983E0915E02A9
:1028F000F0915F02A281B3810190F081E02D8C9173
:1029000063A141E098010E9440078823B9F181E06A
:102910008983E0915E02F0915F02A281B381019010
:10292000F081E02D8C9166A141E098010E94400762
:10293000882321F183E08983E0915E02F0915F02B8
:10294000A281B3810190F081E02D8C9167A141E0DB
:1029500098010E944007882389F080E88983E091EC
:102960005E02F0915F02A281B3810190F081E02DBF
:102970008C9161A541E098010E9440078AE090E0B7
:102980000E94100B892B19F021EF3FEF05C080E06A
:102990000E94E71020E030E0C9012B960FB6F894B2
:1029A000DEBF0FBECDBFCF91DF911F910F91FF9082
:1029B000EF9008959C018230910518F02FEF3FEFC2
:1029C00016C080937A0290937B028BE090E0AC017A
:1029D000249FC001259F900D349F900D11248E5986
:1029E0009D4F909379028093780220E030E0C901F6
:1029F0000895E0917802F091790211821082138299
:102A0000128215821482178216821186108612860F
:102A100008952F923F924F925F926F927F928F9282
:102A20009F92AF92BF92CF92DF92EF92FF920F935D
:102A30001F93DF93CF93CDB7DEB7AC970FB6F89463
:102A4000DEBF0FBECDBF9EA38DA378A76FA32A01C3
:102A50003AA729A71CA70BA7A701D8011D921C9272
:102A6000E0917802F0917902828590E0BE016F5F7B
:102A70007F4F0E9439109CA38BA3892B09F0B2C110
:102A8000E0917802F0917902FAA3E9A38681978117
:102A900084719070892B11F440E017C1A980BB2488
:102AA000CC24DD24DA2CCC24BB24AA248A8190E017
:102AB000A0E0B0E0DC0199278827A82AB92ACA2A11
:102AC000DB2A8C8190E0A0E0B0E0A82AB92ACA2ACB
:102AD000DB2A8B8190E0A0E0B0E0BA2FA92F982FDD
:102AE0008827A82AB92ACA2ADB2AD201AD92BD9228
:102AF000CD92DC9213972D8130E040E050E0522FD0
:102B00004427332722278E8190E0A0E0B0E0DC014B
:102B100099278827282B392B4A2B5B2B888590E017
:102B2000A0E0B0E0282B392B4A2B5B2B8F8190E063
:102B3000A0E0B0E0BA2FA92F982F8827282B392B97
:102B40004A2B5B2BF20124833583468357832985E7
:102B500030E040E050E0522F4427332722278A8577
:102B600090E0A0E0B0E0DC0199278827282B392BE2
:102B70004A2B5B2B8C8590E0A0E0B0E0282B392B12
:102B80004A2B5B2B8B8590E0A0E0B0E0BA2FA92FF9
:102B9000982F8827282B392B4A2B5B2BD20118968C
:102BA0002D933D934D935C931B972D8530E040E032
:102BB00050E0522F4427332722278E8590E0A0E053
:102BC000B0E0DC0199278827282B392B4A2B5B2B77
:102BD000888990E0A0E0B0E0282B392B4A2B5B2BB2
:102BE0008F8590E0A0E0B0E0BA2FA92F982F88271A
:102BF000282B392B4A2B5B2B248735874687578711
:102C00005601DD24B7FCD094CD2C6480758086807D
:102C100097803401992477FC9094892C2084318406
:102C2000428453841201552437FC5094452C9A0158
:102C3000552737FD5095452FCA01B9010E94503BD9
:102C40007B018C01C601B501A60195010E94503B94
:102C5000E60EF71E081F191FC401B301A40193015A
:102C60000E94503BE60EF71E081F191FC201B1015A
:102C7000A20191010E94503BE60EF71E081F191F8A
:102C800080E090E0A0E0B1EFE80EF91E0A1F1B1FE4
:102C900091E0E91690E0F90690E0090792E0190743
:102CA00058F00E94600CABA5BCA51D921C92E3E0FD
:102CB000F0E0FCA3EBA396C0ABA5BCA58D919C91C5
:102CC000119791608D939C9340E1E9A1FAA18681CF
:102CD00086FF39C0A42FB0E0FE01EA0FFB1F22815E
:102CE00030E0FE01EA0FFB1F918180E0282B392B99
:102CF000EFA1F8A531832083FE01EA0FFB1F33818A
:102D000020E0FE01EA0FFB1F848190E0282B392B85
:102D1000EFA1F8A533832283FE01EA0FFB1F358163
:102D200020E0868190E0282B392BAFA1B8A515961D
:102D30003C932E9314974A5FEBA5FCA5808191816B
:102D4000886091838083A9A1BAA116968D919C91E8
:102D5000179780789170892BC1F1A42FB0E0FE0104
:102D6000EA0FFB1F228130E0FE01EA0FFB1F918179
:102D700080E0282B392BEDA1FEA131832083FE01B9
:102D8000EA0FFB1F338120E0FE01EA0FFB1F848165
:102D900090E0282B392BEDA1FEA133832283FE0185
:102DA000EA0FFB1F358120E0868190E0282B392B2C
:102DB000ADA1BEA115963C932E931497EBA5FCA54F
:102DC0008081918180679183808389A59AA5892BD1
:102DD00049F00E942232A9A5BAA56D937D938D93E7
:102DE0009C9313978BA19CA1AC960FB6F894DEBF71
:102DF0000FBECDBFCF91DF911F910F91FF90EF904C
:102E0000DF90CF90BF90AF909F908F907F906F900A
:102E10005F904F903F902F900895DF93CF93CDB761
:102E2000DEB729970FB6F894DEBF0FBECDBF9E0167
:102E30002F5F3F4F882349F0D901E5E1F1E089E0B8
:102E400001900D928150E1F708C0D901ECE0F1E06A
:102E500089E001900D928150E1F788EB94E069E000
:102E600070E0AE014F5F5F4F0E94660A29960FB671
:102E7000F894DEBF0FBECDBFCF91DF9108950F93C1
:102E80001F93DF93CF93CDB7DEB728970FB6F89493
:102E9000DEBF0FBECDBF8C01893C9105F0F488ECFC
:102EA00090E0B8010E947B3B6150704079836A8357
:102EB00086E192E062E070E0AE014F5F5F4F0E94FA
:102EC000660A892B51F481EC9AE06CE070E04EE1E7
:102ED00051E00E94660A892B19F02FEF3FEF08C0DE
:102EE000E0917802F09179021187008720E030E0CC
:102EF000C90128960FB6F894DEBF0FBECDBFCF91A3
:102F0000DF911F910F910895EF92FF920F931F93FE
:102F1000DF93CF9300D000D000D0CDB7DEB78C01C7
:102F2000AC0143705070FA01ED5CFE4F80818983E3
:102F3000C801E3E096958795EA95E1F78370907074
:102F4000FC01ED5CFE4F20812A83D80176E0B69526
:102F5000A7957A95E1F7A370B070FD01ED5CFE4F87
:102F600020812B83405D5E4FFA0120812C83805DA0
:102F70009E4FFC0180818D83A05DBE4F8C918E831E
:102F800086E294E063E070E07E010894E11CF11CAD
:102F9000A7010E94660A892B09F04BC08AE294E0DF
:102FA00063E070E0AE014C5F5F4F0E94660A892BC0
:102FB00009F03FC0D701EDE2F1E083E001900D920E
:102FC0008150E1F7DE011496EAE2F1E083E001903E
:102FD0000D928150E1F702FF06C0898181608983EB
:102FE0008C8181608C8305FF06C08A8181608A8321
:102FF0008D8181608D8310FF06C08B8181608B8302
:103000008E8181608E8380E494E063E070E0AE01A5
:103010004F5F5F4F0E94660A892B59F481E394E069
:1030200063E070E0AE014C5F5F4F0E94660A892B3F
:1030300019F02FEF3FEF08C0E0917802F09179028C
:103040001583048320E030E0C90126960FB6F8947A
:10305000DEBF0FBECDBFCF91DF911F910F91FF90CB
:10306000EF900895DF93CF9300D000D0CDB7DEB7B7
:10307000882349F080E2898388E28A8380E38B8316
:1030800088E38C8308C083EA93EAA3EAB3EA8983DE
:103090009A83AB83BC838EE99AE064E070E0AE0172
:1030A0004F5F5F4F0E94660A0E94600C0F900F9066
:1030B0000F900F90CF91DF910895DF93CF9300D0C1
:1030C00000D0CDB7DEB7882349F080EC898382EC4D
:1030D0008A8384EC8B8386EC8C8308C08BE89BE826
:1030E000ABE8BBE889839A83AB83BC8388E99AE029
:1030F00064E070E0AE014F5F5F4F0E94660A0E947D
:10310000600C0F900F900F900F90CF91DF9108956A
:10311000AF92BF92CF92DF92EF92FF920F931F93E5
:10312000DF93CF93CDB7DEB72A970FB6F894DEBF03
:103130000FBECDBF8C0182E089838AEC8A8383EE47
:103140008B8389E08C8388E690E064E070E0AE01D8
:103150004F5F5F4F0E94660A83EA8983B0E4AB2E1B
:10316000B12CA022B12206FF06C080EC8A8388EC35
:103170008B8382EC02C08A838B838C83A0E8EA2E47
:10318000A1E0FA2EE022F122E114F10431F084EC06
:103190008D838CEC8E8386EC03C083EA8D838E83D3
:1031A0008F8383EA888789878A8787EA9AE06AE03B
:1031B00070E0AE014F5F5F4F0E94660AF3E0CF2ED2
:1031C000D12CC022D122C114D10411F080E201C05F
:1031D00088ED898386EB9AE061E070E0AE014F5F95
:1031E0005F4F0E94660A05FF02C081E001C080E0D7
:1031F0000E940D17E114F104D9F010FF08C082EB12
:1032000089838BE88A8386EB8B838BE907C080EB0D
:10321000898380E88A8384EB8B8380E98C8382EACC
:103220009AE064E070E0AE014F5F5F4F0E94660A73
:1032300002FF02C081E001C080E00E945D1804FF2F
:1032400002C081E001C080E00E943218E091780263
:10325000F0917902C8018860978386830E94600C90
:10326000E0917802F09179021286AB2811F086E0A5
:103270008287EF2819F082858A5F82870471107037
:10328000012B19F08285805F8287CD2819F0828515
:103290008C5F828780E090E02A960FB6F894DEBFBC
:1032A0000FBECDBFCF91DF911F910F91FF90EF9097
:1032B000DF90CF90BF90AF90089586EF9BE061EDD7
:1032C00070E040E054E028EC30E00E94C511089521
:1032D00080E008952F923F924F925F926F927F927B
:1032E0008F929F92AF92BF92CF92DF92EF92FF9216
:1032F0000F931F93DF93CF93CDB7DEB7E4970FB64D
:10330000F894DEBF0FBECDBF1092C1021092C00272
:1033100082EC92E068EC72E040EB52E020E030E0BA
:1033200000EC12E0FEECEF2EF2E0FF2E0E940915F9
:103330009093D0028093CF02009709F042C580910C
:10334000CE028230E8F082EC92E068EC72E040EB72
:1033500052E020E030E000EC12E0EEECEE2EE2E095
:10336000FE2E0E9409159C019093D0028093CF02FB
:103370008091CE02823008F423C5232B21F320C58F
:103380006091B0027091B1028091B2029091B3024B
:103390000E94793920E030E040E850E30E94853A0D
:1033A0001B012C016093B0027093B1028093B202B2
:1033B0009093B3026091B4027091B5028091B6020D
:1033C0009091B7020E94793920E030E040E850E364
:1033D0000E94853A698B7A8B8B8B9C8B6093B402AD
:1033E0007093B5028093B6029093B7026091B802D1
:1033F0007091B9028091BA029091BB020E94793912
:1034000020E030E040E850E30E94853A5B016C0127
:103410006093B8027093B9028093BA029093BB0292
:103420006091BC027091BD028091BE029091BF027A
:103430000E94793920E030E040E850E30E94853A6C
:103440006D8B7E8B8F8B988F6093BC027093BD02C7
:103450008093BE029093BF02C601B501A6019501FB
:103460000E94853A698F7A8F8B8F9C8F6093EB02D5
:103470007093EC028093ED029093EE026D897E8949
:103480008F89988D9B01AC010E94853A6D8F7E8F4C
:103490008F8F98A36093EF027093F0028093F102F4
:1034A0009093F202C201B101A20191010E94853AFA
:1034B00069A37AA38BA39CA36093F3027093F40295
:1034C0008093F5029093F60269897A898B899C89A9
:1034D0002D893E894F89588D0E94853A7B018C0148
:1034E000C201B101A60195010E94853A9B01AC0180
:1034F000C801B7010E94FC373B014C016093F70201
:103500007093F8028093F9029093FA0225EE32EF5D
:103510004FEF5EE30E947A3A1816BCF4C601B5017B
:10352000A20191010E9487389B01AC010E94FD37E6
:103530006093840270938502809386029093870241
:103540008BED9FE0A9ECBFE322C0C401B30125EEDF
:1035500032EF4FEF5EEB0E94DA3888236CF5C6013C
:10356000B501A20191010E94873820E030E040E0DF
:1035700050EC0E94853A6093840270938502809398
:103580008602909387028BED9FE0A9ECBFEB8093BE
:10359000800290938102A0938202B093830280E024
:1035A00090E0A0E0B0E080937C0290937D02A09335
:1035B0007E02B0937F0294C069897A898B899C8945
:1035C000A20191010E94853A7B018C01C601B501DF
:1035D0002D893E894F89588D0E94853A9B01AC0107
:1035E000C801B7010E94FD379B01AC010E94FD3765
:1035F0007B018C016D8D7E8D8F8D98A129A13AA1C3
:103600004BA15CA10E94FD3720E030E040E050EC8F
:103610000E94853A20E030E040E85FE30E94FD37F9
:103620009B01AC01C801B7010E94873860938402F6
:10363000709385028093860290938702C401B30140
:10364000A40193010E94FD370E94613860938002BB
:1036500070938102809382029093830269897A89B0
:103660008B899C89A60195010E94853A7B018C017A
:103670006D897E898F89988DA20191010E94853A7A
:103680009B01AC01C801B7010E94FC379B01AC0152
:103690000E94FD377B018C01698D7A8D8B8D9C8D0D
:1036A0002D8D3E8D4F8D58A10E94FD3720E030E0DA
:1036B00040E050EC0E94853A20E030E040E85FE3D3
:1036C0000E94FD379B01AC01C801B7010E948738F9
:1036D00060937C0270937D0280937E0290937F02C0
:1036E00060917C0270917D0280917E0290917F02B8
:1036F00021EE3EE245E652E40E94853A90586093FE
:103700007C0270937D0280937E0290937F02609191
:10371000800270918102809182029091830221EE59
:103720003EE245E652E40E94853A9058609380025A
:10373000709381028093820290938302609184024D
:1037400070918502809186029091870221EE3EE27F
:1037500045E652E40E94853A5B016C0120E030E0CE
:1037600044E353E40E94FD377B018C0120E030E00C
:1037700044E353E40E947A3A181654F4C601B501A2
:1037800020E030E044E353E40E94FC377B018C01ED
:10379000D801C701B0588093840290938502A0930A
:1037A0008602B09387028091D102882391F581ED42
:1037B00092E00E942536892B61F180E090E0A0E83C
:1037C000BFE38093DB029093DC02A093DD02B09311
:1037D000DE0280E090E0A0E0B0E08093DF02909312
:1037E000E002A093E102B093E2028093E30290939F
:1037F000E402A093E502B093E6028093E70290937F
:10380000E802A093E902B093EA0281ED92E00E94FF
:103810002F368091B0029091B102A091B202B09186
:10382000B3028D879E87AF87B88B8093DB0290931E
:10383000DC02A093DD02B093DE022090B40230904F
:10384000B5024090B6025090B7022092DF0230924B
:10385000E0024092E1025092E2026090B802709061
:10386000B9028090BA029090BB026092E30270921B
:10387000E4028092E5029092E602A090BC02B09031
:10388000BD02C090BE02D090BF02A092E702B092EB
:10389000E802C092E902D092EA026091C8027091F7
:1038A000C902882777FD8095982F0E9479390E9458
:1038B0004639882777FD8095982F0E94793969834A
:1038C0007A838B839C836091CA027091CB02882794
:1038D00077FD8095982F0E9479390E944639882774
:1038E00077FD8095982F0E9479396D837E838F8331
:1038F00098876091CC027091CD02882777FD8095E2
:10390000982F0E9479390E944639882777FD809543
:10391000982F0E94793969877A878B879C876D8574
:103920007E858F85988920E030E040E050E00E945D
:10393000853A7B018C01C201B10129813A814B8119
:103940005C810E94853A9B01AC01C801B7010E94CD
:10395000FC377B018C01C401B3012D813E814F8175
:1039600058850E94853A9B01AC01C801B7010E94AD
:10397000FC377B018C01C601B50129853A854B8551
:103980005C850E94853A9B01AC01C801B7010E9489
:10399000FC376DA37EA38FA398A76D857E858F8549
:1039A000988929813A814B815C810E94853A7B010B
:1039B0008C01C201B10120E030E040E050E00E9403
:1039C000853A9B01AC01C801B7010E94FD377B011C
:1039D0008C01C401B30129853A854B855C850E9421
:1039E000853A9B01AC01C801B7010E94FD377B01FC
:1039F0008C01C601B5012D813E814F8158850E9401
:103A0000853A9B01AC01C801B7010E94FC3769A748
:103A10007AA78BA79CA76D857E858F8598892D8138
:103A20003E814F8158850E94853A7B018C01C201FD
:103A3000B10129853A854B855C850E94853A9B01B9
:103A4000AC01C801B7010E94FC377B018C01C401A5
:103A5000B30120E030E040E050E00E94853A9B0155
:103A6000AC01C801B7010E94FD377B018C01C60182
:103A7000B50129813A814B815C810E94853A9B0185
:103A8000AC01C801B7010E94FD376DA77EA78FA7C3
:103A900098AB6D857E858F85988929853A854B857C
:103AA0005C850E94853A7B018C01C201B1012D81A8
:103AB0003E814F8158850E94853A9B01AC01C80127
:103AC000B7010E94FD377B018C01C401B30129813C
:103AD0003A814B815C810E94853A9B01AC01C8010F
:103AE000B7010E94FC377B018C01C601B50120E0C3
:103AF00030E040E050E00E94853A9B01AC01C801F3
:103B0000B7010E94FD3769AB7AAB8BAB9CAB57FA20
:103B1000509457F8509497FA909497F89094D7FA55
:103B2000D094D7F8D0946DA17EA18FA198A5A201C1
:103B300091010E94853A7B018C0169A57AA58BA52C
:103B40009CA52D853E854F8558890E94853A9B010D
:103B5000AC01C801B7010E94FD377B018C016DA546
:103B60007EA58FA598A9A60195010E94853A9B0183
:103B7000AC01C801B7010E94FD377B018C0169A926
:103B80007AA98BA99CA9A40193010E94853A9B0163
:103B9000AC01C801B7010E94FC370E944639882752
:103BA00077FD8095982F0E94793920E030E040E839
:103BB00058E30E94853A6093940270939502809333
:103BC0009602909397026DA17EA18FA198A5A40162
:103BD00093010E94853A7B018C0169A57AA58BA58A
:103BE0009CA5A60195010E94853A9B01AC01C801E4
:103BF000B7010E94FC377B018C016DA57EA58FA5C6
:103C000098A92D853E854F8558890E94853A9B014C
:103C1000AC01C801B7010E94FD377B018C0169A985
:103C20007AA98BA99CA9A20191010E94853A9B01C6
:103C3000AC01C801B7010E94FD370E9446398827B0
:103C400077FD8095982F0E94793920E030E040E898
:103C500058E30E94853A609398027093990280938A
:103C60009A0290939B026DA17EA18FA198A5A601B7
:103C700095010E94853A7B018C0169A57AA58BA5E7
:103C80009CA5A40193010E94853A9B01AC01C80147
:103C9000B7010E94FD377B018C016DA57EA58FA524
:103CA00098A9A20191010E94853A9B01AC01C8012B
:103CB000B7010E94FC377B018C0169A97AA98BA905
:103CC0009CA92D853E854F8558890E94853A9B0188
:103CD000AC01C801B7010E94FD370E944639882710
:103CE00077FD8095982F0E94793920E030E040E8F8
:103CF00058E30E94853A2091AC023091AD02409188
:103D0000AE025091AF020E94FC3760939C02709308
:103D10009D0280939E0290939F026091C6027091D3
:103D2000C702882777FD8095982F0E94793920E077
:103D300030E043E851E40E94DE38609388027093DB
:103D4000890280938A0290938B026091C4027091E1
:103D5000C502882777FD8095982F0E94793920E049
:103D600030E043E851E40E94DE3860938C027093A7
:103D70008D0280938E0290938F026091C2027091A7
:103D8000C302882777FD8095982F0E94793920E01B
:103D900030E043E851E40E94DE3860939002709373
:103DA000910280939202909393028091D902909114
:103DB000DA0201969093DA028093D90280E001C082
:103DC00080E8E4960FB6F894DEBF0FBECDBFCF916A
:103DD000DF911F910F91FF90EF90DF90CF90BF90F8
:103DE000AF909F908F907F906F905F904F903F909B
:103DF0002F900895EF92FF920F931F938B017A01FA
:103E00007093FC026093FB021092DA021092D902C6
:103E10000E94E2080E94300980E090E0A0E0B0E05B
:103E20008093AC029093AD02A093AE02B093AF0228
:103E300080E090E00E947D129093D0028093CF02A8
:103E400089E70E94E7109093D0028093CF0280ED23
:103E500097E00E94FF0B9093D0028093CF0282E004
:103E60000E94A60B9093D0028093CF0282E390E051
:103E70000E94100B9093D0028093CF028FEC92E0BF
:103E80000E94120A88E70E94980D9093D0028093B6
:103E9000CF0280E090E00E94DA140E94F9140E94A0
:103EA0005D199093D0028093CF02C7010E948417BE
:103EB0009093D0028093CF02C8010E943F17909345
:103EC000D0028093CF0281E00E94DA0F9093D0025B
:103ED0008093CF0280E791E00E9488189093D002EF
:103EE0008093CF0280E01F910F91FF90EF90089593
:103EF000FC0180E090E0A0E0B0E080879187A2879D
:103F0000B38784839583A683B78380839183A283B9
:103F1000B383808F918FA28FB38F848B958BA68B69
:103F2000B78B848F958FA68FB78F84A395A3A6A3F5
:103F3000B7A380A391A3A2A3B3A384879587A687E1
:103F4000B787808B918BA28BB38B80E090E0089534
:103F500020E030E040E050E0FC01248735874687D0
:103F6000578708952F923F924F925F926F927F9260
:103F70008F929F92AF92BF92CF92DF92EF92FF9279
:103F80000F931F93CF93DF93EC013A014B0118017C
:103F90002901CB01BA012C813D814E815F810E94B4
:103FA000853AA20191010E94853A2C853D854E8576
:103FB0005F850E94FD375B016C016C877D878E8772
:103FC0009F87E88CF98C0A8D1B8DA80197010E94B0
:103FD0007A3A181664F017FB109517F91095C60178
:103FE000B501A80197010E94DA38882324F4EC86F1
:103FF000FD860E871F8768A179A18AA19BA1A201D6
:1040000091010E94DE389B01AC01C401B3010E9402
:10401000FC37688B798B8A8B9B8BECA0FDA00EA163
:104020001FA1A80197010E94FC372EEB39ED4CE54A
:104030005FE30E94853A9B01AC01C801B7010E9471
:10404000FD375B016C01688B798B8A8B9B8BC4017C
:10405000B301288139814A815B810E94853A2C8590
:104060003D854E855F850E94FD377B018C01C60131
:10407000B501288539854A855B850E94853A9B0173
:10408000AC01C801B7010E94FC376C8F7D8F8E8F09
:104090009F8FEC88FD880E891F89A80197010E94D7
:1040A0007A3A181624F4EC8EFD8E0E8F1F8F8C89B1
:1040B0009D89AE89BF897C018D0117FB109517F989
:1040C00010956C8D7D8D8E8D9F8DA80197010E941E
:1040D000DA38882324F4EC8EFD8E0E8F1F8F68A2B1
:1040E00079A28AA29BA288899989AA89BB898CA373
:1040F0009DA3AEA3BFA3DF91CF911F910F91FF901E
:10410000EF90DF90CF90BF90AF909F908F907F9077
:104110006F905F904F903F902F900895CF93DF93D3
:10412000EC018091410390E0860F911D8034910550
:104130000CF042C0FE01462F30E05CE80DC020814B
:1041400098E0822F8327369580FD3527915011F016
:104150002695F7CF31964150442389F7FE01E60FAB
:10416000F11D30836F5F20E030E070E040E421C05B
:1041700080914003803410F01092400390914003EE
:10418000E92FF0E0EE5BFC4FDE01A20FB31F8C9134
:1041900080839F5F90934003809141038F5F809362
:1041A000410380914103813410F0409341032F5F1C
:1041B0003F4F26173707E4F2DF91CF910895CF9351
:1041C000DF93EC018091FF0290E004970CF44DC066
:1041D000DE0120E030E08091FF028823F1F0909131
:1041E000FE028091FF02981740F48091FF02E09157
:1041F000FE02F0E0E05CFF4F05C0E091FE0280911E
:10420000FF02F0E0E81BF109E050FD4F80818C9344
:104210008091FF0281508093FF022F5F3F4F1196E4
:1042200024303105C1F6FE0130E043E05CE80CC00B
:10423000208198E0822F8327369580FD3527915085
:1042400011F02695F7CF3196415090F78B813817B2
:1042500019F420E030E00BC08091FD028F5F809365
:10426000FD021092FE021092FF022FEF3FEFC901F4
:10427000DF91CF9108951F920F920FB60F921124E4
:104280002F938F939F93EF93FF932EB580914103CC
:104290008823F9F09091400380914103981740F4EE
:1042A00080914103E0914003F0E0E05CFF4F05C0E6
:1042B000E091400380914103F0E0E81BF109EE5BDF
:1042C000FC4F80818EBD80914103815080934103DA
:1042D00001C01EBC8091FE02803410F01092FE02DC
:1042E0008091FE02E82FF0E0E050FD4F20838F5FC9
:1042F0008093FE028091FF028F5F8093FF02809186
:10430000FF02813418F080E48093FF02FF91EF9167
:104310009F918F912F910F900FBE0F901F90189526
:1043200080936305609364057093650583E695E06B
:1043300063E00E948E2008956091540570915505A8
:1043400080915605909157050E9446399B01AC011A
:1043500082E1B9010E94902160913205709133058C
:1043600080913405909135050E9446399B01AC013E
:1043700083E1B9010E949021609136057091370563
:1043800080913805909139050E9446399B01AC0116
:1043900084E1B9010E9490216091B1047091B2044E
:1043A0008091B3049091B4040E9446399B01AC0102
:1043B00085E1B9010E94902108956F927F928F92BA
:1043C0009F92AF92BF92CF92DF92EF92FF920F93A4
:1043D0001F93CF93DF9324E9A22E22E0B22E9AE717
:1043E000692E95E0792E86E8882E85E0982E630167
:1043F000E401F501E080F18002811381C801B70179
:10440000F60120813181428153810E94DA3888236C
:104410002CF4F601E082F18202831383C801B70114
:10442000288139814A815B810E947A3A181624F4E6
:10443000E882F9820A831B8384E090E0A80EB91E0B
:10444000C80ED91E249690EAA91692E0B90689F6FC
:1044500080915A0564E10E946F3B992341F51CE06D
:104460000F2EF0E0CF2EF0E0DF2EF0E0EF2EF0E0A8
:10447000FF2EF02DF401608171818281938120E013
:1044800030E04AE754E40E94853A0E9446399B0195
:10449000AC01812FB9010E949021F401C192D19207
:1044A000E192F1924F011F5F1F3021F729C09A302E
:1044B00039F51FE00F2EF0E0CF2EF0E0DF2EF0E018
:1044C000EF2EF0E0FF2EF02DF301608171818281EB
:1044D000938120E030E04AE754E40E94853A0E944C
:1044E00046399B01AC01812FB9010E949021F30153
:1044F000C192D192E192F1923F011F5F123121F7F7
:10450000DF91CF911F910F91FF90EF90DF90CF90AF
:10451000BF90AF909F908F907F906F9008951F9362
:10452000CF93DF93C8E8D2E011E069917991899146
:10453000999120E030E048EC52E40E94853A0E94D4
:1045400046399B01AC01812FB9010E9490211F5F68
:10455000143059F7DF91CF911F9108951F93CF9396
:10456000DF93CCE7D2E014E0699179918991999138
:1045700020E030E048EC52E40E94853A0E9446393F
:104580009B01AC01812FB9010E9490211F5F173060
:1045900059F760915F057091600580916105909178
:1045A000620520E030E048EC52E40E94853A0E9427
:1045B00046399B01AC0187E0B9010E949021DF914F
:1045C000CF911F9108951F93CF93DF93C0E9D3E05C
:1045D00018E069917991812F0E9490211F5F1C3012
:1045E000C1F7DF91CF911F91089580915D058230D1
:1045F00069F0833018F4813059F505C0833081F0BB
:10460000843031F51CC00E94DD21089580915A0547
:1046100064E10E946F3B992369F40E948F22089500
:1046200080915A0564E10E946F3B992319F40E941E
:10463000AE2208959A3061F40E94E3220895809199
:104640005A0564E10E946F3B992311F40E949C215A
:104650000895FC018181882321F470E060E090E0FE
:1046600032C090818181A381B481981748F431814F
:104670002081828190E0820F911D831B910905C0EA
:104680008081218190E0821B9109880F991F880FFA
:10469000991FA80FB91F8D919D910D90BC91A02DD0
:1046A00080937B0690937C06A0937D06B0937E0654
:1046B00081818150818370917B0660917C0690910D
:1046C0007D0680917E06272F362F492F582FB9015E
:1046D000CA0108950F931F9304E813E0C8010E94D4
:1046E0006236C80103960E946236C80106960E948F
:1046F0006236C80109960E9462361F910F91089593
:104700006F927F928F929F92AF92BF92CF92DF92E1
:10471000EF92FF920F931F93809173059091740510
:10472000019690937405809373058155934C18F00E
:104730008FEF80935B050E946A19992787FD9095FA
:104740009093830380938203892B09F09CC010917E
:104750007505183CF8F41431D0F06091760570912D
:104760007705809178059091790520919C02309190
:104770009D0240919E0250919F020E94FD376093DE
:1047800076057093770580937805909379051F5F80
:1047900010937505609088027090890280908A025B
:1047A00090908B02C401B30120E030E040E85FEB61
:1047B0000E947A3A18160CF066C0A0908C02B09055
:1047C0008D02C0908E02D0908F02C601B50120E00C
:1047D00030E040E85FEB0E947A3A18160CF053C0C4
:1047E000E0909002F0909102009192021091930259
:1047F000C801B70120E030E040E85FEB0E947A3A60
:1048000018160CF040C0C401B30120E030E040E8CD
:104810005FE30E94DA388823B4F5C601B50120E0D1
:1048200030E040E85FE30E94DA38882364F5C8018D
:10483000B70120E030E040E85FE30E94DA388823E7
:1048400014F56091750570E064517040882777FD1C
:104850008095982F0E9479399B01AC016091760573
:104860007091770580917805909179050E94DE38E6
:104870006093AC027093AD028093AE029093AF024E
:1048800020E030E002C02FEF3FEFC9011F910F91F0
:10489000FF90EF90DF90CF90BF90AF909F908F9060
:1048A0007F906F9008950F931F9304E813E0609139
:1048B0009D0370919E03C8010E947C3660919D0308
:1048C00070919E03C80103960E947C3660919D03FF
:1048D00070919E03C80106960E947C3660919D03EC
:1048E00070919E03C80109960E947C361F910F911A
:1048F00008952F923F924F925F926F927F928F9284
:104900009F92AF92BF92CF92DF92EF92FF920F935E
:104910001F93DF93CF93CDB7DEB72C970FB6F894E4
:10492000DEBF0FBECDBF0E946819992787FD909505
:1049300090938303809382030E946A19992787FDCD
:104940009095909383038093820397FF06C00E9403
:1049500053248DEF80935B0543C580915A058F5F8B
:1049600080935A05883C11F410925A050E94223215
:1049700020916F053091700540917105509172053D
:10498000621B730B840B950B0E94773920E030E09B
:104990004AE754E40E94DE386093020170930301F9
:1049A00080930401909305010E94223260936F0569
:1049B0007093700580937105909372058091020148
:1049C00090910301A0910401B091050189839A831C
:1049D000AB83BC83BC01CD012AE037ED43E25CE34D
:1049E0000E947A3A181634F48EEF80935B050E9489
:1049F0005324F6C480915205882309F44BC2815098
:104A00008093520560919C0270919D0280919E025C
:104A100090919F0220E030E845E754E40E94853AF7
:104A20001B012C01609316057093170580931805E0
:104A30009093190560912A0570912B0580912C05A2
:104A400090912D0520914E0530914F0540915005D4
:104A5000509151050E94853A29813A814B815C81B0
:104A60000E94853A9B01AC0160911E0570911F0563
:104A700080912005909121050E94FD375B016C011A
:104A800060931E0570931F05809320059093210568
:104A9000E0902A05F0902B0500912C0510912D0532
:104AA000C801B70120914A0530914B0540914C0552
:104AB00050914D050E94853A29813A814B815C8154
:104AC0000E94853A2091360530913705409138058E
:104AD000509139050E94FD3769877A878B879C87BB
:104AE000C801B7012091460530914705409148051E
:104AF000509149050E94853A29813A814B815C8118
:104B00000E94853A9B01AC016091220570912305BA
:104B100080912405909125050E94FD373B014C01B1
:104B200060932205709323058093240590932505B7
:104B3000C201B101A60195010E94FD3729813A8188
:104B40004B815C810E94853A7B018C016093260534
:104B500070932705809328059093290520E030E085
:104B600040E05FE30E94853A9B01AC0169857A854C
:104B70008B859C850E94FD3729813A814B815C8120
:104B80000E94853A20912E0530912F0540913005E5
:104B9000509131050E94FD375B016C0160932E0539
:104BA00070932F058093300590933105A4019301F4
:104BB0000E94FD376093320570933305809334056E
:104BC0009093350569857A858B859C85A801970129
:104BD0000E94FD3760933605709337058093380542
:104BE0009093390590910D0580910F05981711F458
:104BF00010920D0520910D05822F90E0880F991FCE
:104C0000880F991FE0911005F0911105E80FF91F29
:104C1000A082B182C282D3822F5F20930D05909132
:104C20000E0580910F05981728F480910E058F5F6F
:104C300080930E056091540570915505809156053D
:104C400090915705209132053091330540913405FC
:104C5000509135050E94FC375B016C0160933A0569
:104C600070933B0580933C0590933D05E090BD0417
:104C7000F090BE040091BF041091C004C801B701B8
:104C8000A80197010E94FD37A80197010E94853A6B
:104C90009B01AC0160E070E08AE793E40E94DE389B
:104CA0007B018C01609312057093130580931405AA
:104CB00090931505A80197010E94FD379B01AC0157
:104CC000C601B5010E947A3A18167CF4C601B501F6
:104CD000A80197010E94FC3720E030E04AEF53E43E
:104CE0000E94853A0E94EC3A20C0C801B70120E03A
:104CF00030E040E050EC0E94853A9B01AC01C601D7
:104D0000B5010E94DA388823CCF4C601B501905869
:104D1000A80197010E94FC3720E030E04AEF53E4FD
:104D20000E94853A0E94EC3A905860933E05709339
:104D30003F0580934005909341051EC000910201FC
:104D40001091030120910401309105018DEB94E055
:104D5000B601A5010E94B21F8091D9049091DA0496
:104D6000A091DB04B091DC0480933E0590933F0555
:104D7000A0934005B093410560913E0570913F05B9
:104D8000809140059091410520913605309137057D
:104D900040913805509139050E94FC37AB01BC01A8
:104DA000009102011091030120910401309105014D
:104DB00085EE94E00E94B21FE0901A05F0901B056A
:104DC00000911C0510911D0560910105709102056F
:104DD00080910305909104052091160530911705E7
:104DE00040911805509119050E94FC37A8019701C0
:104DF0000E94FC3723E833EA44EE5DE30E94853AE3
:104E00009B01AC01C801B7010E94FD37AB01BC0199
:104E1000CA01DB0180931A0590931B05A0931C0522
:104E2000B0931D050091020110910301209104012E
:104E30003091050185E994E00E94B21F80915305ED
:104E40008823D9F06091580570915905882777FD1E
:104E50008095982F0E9479392091B1043091B20445
:104E60004091B3045091B4040E94FD370E9446392A
:104E700070936E0560936D050FC08DEB94E00E94FA
:104E8000A81F85EE94E00E94A81F85E994E00E9487
:104E9000A81F02C010925305E0908402F090850292
:104EA0000091860210918702C801B70120E030E02E
:104EB00040E050E00E947A3A18165CF4C801B7014D
:104EC00020E030E048E452E40E947A3A18165CF0A0
:104ED0001AC0C801B70120E030E048E452EC0E945B
:104EE000DA38882384F480917C0290917D02A0912D
:104EF0007E02B0917F0280935F0590936005A0933E
:104F00006105B0936205E0908002F090810200910B
:104F1000820210918302C801B70120E030E040E036
:104F200050E00E947A3A18165CF4C801B70120E0FC
:104F300030E048E452E40E947A3A18165CF01AC055
:104F4000C801B70120E030E048E452EC0E94DA38B2
:104F5000882384F480917C0290917D02A0917E024E
:104F6000B0917F0280935F0590936005A0936105E7
:104F7000B0936205E0905F05F090600500916105D7
:104F800010916205A0907C02B0907D02C0907E02DC
:104F9000D0907F02C801B701A60195010E94FC379D
:104FA00020E030E044E353EC0E94DA3888235CF4DC
:104FB000D801C701B05880935F0590936005A09316
:104FC0006105B0936205E0905F05F0906005009187
:104FD000610510916205C801B701A60195010E9403
:104FE000FC3720E030E044E353E40E947A3A18169C
:104FF0005CF4D801C701B05880935F0590936005B9
:10500000A0936105B0936205209167053091680512
:10501000B90137FF04C066277727621B730B663020
:10502000710594F1C9010E948F3B8BEF9FEFDB016B
:10503000A89FB001A99F700DB89F700D1124620F39
:10504000731F882777FD8095982F0E9479399B01DF
:10505000AC016091910470919204809193049091BD
:1050600094040E94853A60933504709336048093CB
:10507000370490933804A0925F05B0926005C09207
:105080006105D09262051AC060915F05709160055C
:105090008091610590916205A60195010E94FC37FF
:1050A000AB01BC01009102011091030120910401A8
:1050B0003091050189E194E00E94B21F80915C0566
:1050C0008823B9F56091690570916A05882777FD95
:1050D0008095982F0E947939209180023091810229
:1050E00040918202509183020E94FC37AB01BC01C7
:1050F00000910201109103012091040130910501FA
:1051000081E494E00E94B21F60916B0570916C0580
:10511000882777FD8095982F0E9479392091840205
:105120003091850240918602509187020E94FC379F
:1051300039C0813009F044C06091690570916A05F9
:10514000882777FD8095982F0E94793920919104C6
:105150003091920440919304509194040E94853AB6
:10516000AB01BC01009102011091030120910401E7
:105170003091050181E494E00E94B21F60916B05BB
:1051800070916C05882777FD8095982F0E9479395A
:105190002091910430919204409193045091940491
:1051A0000E94853AAB01BC010091020110910301FC
:1051B000209104013091050189E694E00E94B21F1C
:1051C000F5E3CF2EF4E0DF2EE8E8AE2EE2E0BE2ECF
:1051D0006624772478E2872E912C689C7001699C64
:1051E000F00C789CF00C1124E1EAF3E0EE0EFF1EC7
:1051F000D6016D917D918D919C91F5012191319117
:10520000419151915F010E94FC37AB01BC010091BB
:105210000201109103012091040130910501C701A1
:105220000E94B21F0894611C711C48E250E0C40E39
:10523000D51E53E06516710481F660916D0570917D
:105240006E05882777FD8095982F0E9479391B017C
:105250002C0180910D0490910E04A0910F04B09147
:1052600010048D839E83AF83B887C201B1012D8165
:105270003E814F8158850E94FD375B016C01E090B3
:10528000E503F090E6030091E7031091E8036090D6
:10529000BD037090BE038090BF039090C003A8012F
:1052A00097010E94FC37A40193010E94FD370E94E0
:1052B00046397093910360939003C601B501A8012C
:1052C00097010E94FD37A40193010E94FC370E94C0
:1052D00046397093930360939203C201B1012D810B
:1052E0003E814F8158850E94FC375B016C01A8010B
:1052F00097010E94FC37A40193010E94FC370E9491
:1053000046397093950360939403C601B501A801D3
:1053100097010E94FD37A40193010E94FD370E946E
:10532000463970939703609396030E94F52220916B
:105330006D0530916E0580919F039091A003281711
:1053400039075CF50E94532480917C0290917D0284
:10535000A0917E02B0917F0280935F0590936005DB
:10536000A0936105B093620581EA93E00E94A81FB3
:1053700089E194E00E94A81F89EC93E00E94A81F95
:1053800081E494E00E94A81F81EF93E00E94A81F8F
:1053900089E694E00E94A81F23C060E9E62E63E03E
:1053A000F62E00E010E0D7018D919C9160919F0353
:1053B0007091A003681779070CF4BC01F7016193A1
:1053C00071937F01C801880F991F800F911F8C571F
:1053D0009C4F0E947C360F5F1F4F0430110519F758
:1053E0002C960FB6F894DEBF0FBECDBFCF91DF91E4
:1053F0001F910F91FF90EF90DF90CF90BF90AF90F3
:105400009F908F907F906F905F904F903F902F90E4
:10541000089580E991E060E00E94CD0680E00E945E
:105420005D368CE061E00E94C4328CB580648CBD36
:105430008CB580688CBD0895EF92FF920F931F93F7
:10544000B1EAEB2EB3E0FB2EC7010E94781F09E101
:1054500014E0C8010E94781FC70188960E94781F37
:10546000C80188960E94781F81EF93E00E94781F00
:1054700089E694E00E94781F85E994E00E94781FF5
:1054800085EE94E00E94781F8DEB94E00E94781FD7
:1054900010920E0580910E050DE015E0F801819344
:1054A0008F018FE080930F058CE390E00E945733CB
:1054B00080931005F801938380E090E0A0ECB0E4C5
:1054C0008093420590934305A0934405B09345050E
:1054D00080E090E0A0E0BFE380934605909347050D
:1054E000A0934805B093490580E595E5A5E5BFE3A0
:1054F00080934A0590934B05A0934C05B0934D05BE
:105500008EED9EEAA7E9BBE380934E0590934F058D
:10551000A0935005B093510580E090E0A0E0B0E08A
:1055200080935F0590936005A0936105B093620539
:1055300010925A0510925B0510925C0510925D0561
:1055400028E820935E051092FD0210925305809387
:10555000540590935505A0935605B09357051092A6
:105560005905109258058093160590931705A0933E
:105570001805B093190580931A0590931B05A09305
:105580001C05B0931D0580931E0590931F05A093E5
:105590002005B09321058093220590932305A093C5
:1055A0002405B09325058093260590932705A093A5
:1055B0002805B093290580932A0590932B05A09385
:1055C0002C05B0932D0580932E0590932F05A09365
:1055D0003005B09331058093320590933305A09345
:1055E0003405B09335058093360590933705A09325
:1055F0003805B09339051F910F91FF90EF900895F2
:10560000FC01880F991F8E0F9F1FE856FC4F608189
:105610008C579C4F70E00E9437370895AF92BF922D
:10562000CF92DF92EF92FF920F931F93CF93DF936E
:10563000809192058823A1F482E995E00E942536A5
:10564000892B71F00E94223260939E0570939F0512
:105650008093A0059093A10582E995E00E942F36E2
:105660000E94223220919E0530919F054091A00515
:105670005091A105621B730B840B950B695E7340FF
:105680008040904090F01092530510926E05109259
:105690006D0510926C0510926B0510926A051092C0
:1056A0006905109268051092670583E695E00E94EF
:1056B000DF20892B09F004C6E09163059091650510
:1056C00080E020916405C22FD0E0C82BD92BE536AD
:1056D00009F47EC3E63608F072C0E53409F4F6C179
:1056E000E63488F5EB3009F40EC1EC30B0F4E93063
:1056F00068F4E53008F0FAC0E33009F4E1C0E430C2
:1057000008F0F1C0E23009F0DBC5D7C0E93009F498
:10571000F2C0EA3009F0D4C5F1C0EF3009F45CC141
:10572000E03138F4ED3009F4F8C0EE3008F004C18F
:10573000EFC0E13109F4C0C1E13108F460C1E231E8
:1057400009F0BEC5BEC1E23509F48EC2E335D8F416
:10575000E93409F43DC2EA3460F4E73409F417C2CD
:10576000BE01882777FD8095982FE83408F01FC286
:1057700003C2E03509F458C2E13508F065C2EA34E5
:1057800009F09EC53BC2EB3509F4C0C2EC3550F4BC
:10579000E43509F495C2E43508F47CC2EA3509F031
:1057A0008FC5A4C2ED3509F4D7C2ED3508F4BEC2E9
:1057B000EE3509F4E7C2E43609F082C5F9C2EA3CE5
:1057C00009F448C4EB3C08F03FC0E23709F494C345
:1057D000E337D8F4EE3609F44DC3EF3650F4E7362C
:1057E00009F41CC3E73608F403C3E83609F068C5BA
:1057F0002BC3E03709F459C3BE01882777FD809594
:10580000982FE13708F067C345C3EB3709F4C0C3ED
:10581000EC3750F4E93709F495C3EA3708F0A2C32E
:10582000E83709F04DC57EC3E23809F4DDC3E3383B
:1058300020F4EC3709F044C5C1C3E83C09F4EAC3DD
:10584000E93C09F03DC5F6C3EC3D09F4A7C4ED3DC4
:10585000C8F4E33D09F450C4E43D50F4EC3C09F4D1
:1058600025C4EC3C08F40CC4E23D09F029C534C45D
:10587000E53D09F467C4E53D08F44EC4E63D09F092
:105880001FC576C4E03E09F4CBC4E13E60F4EE3DB2
:1058900009F49FC4BE01882777FD8095982FEF3DBE
:1058A00008F0ADC48BC4EE3F09F4DFC4EF3F08F04D
:1058B000E0C4EA3F08F404C5C9C4C0935D0500C54F
:1058C000C0935C0580917C0290917D02A0917E0244
:1058D000B0917F0280935F0590936005A09361056E
:1058E000B0936205EDC4C0935E05EAC4F0E0ED56E6
:1058F000FC4FC083E5C4C0939C03E2C4D093680509
:10590000C0936705DDC4D0936A05C0936905D8C408
:10591000D0936C05C0936B05D3C40E942232609370
:105920009E0570939F058093A0059093A105D09349
:105930006E05C0936D05C4C488EC809352059091A8
:105940000E0580910F05891769F48DE095E00E949E
:10595000292360939A0570939B0580939C059093EF
:105960009D0510C080912E0590912F05A0913005C6
:10597000B091310580939A0590939B05A0939C0567
:10598000B0939D05BE01882777FD8095982F0E94D2
:1059900079397B018C0160919A0570919B0580910A
:1059A0009C0590919D052091220530912305409101
:1059B0002405509125050E94FD379B01AC01C801CB
:1059C000B7010E94FC3760932A0570932B058093E2
:1059D0002C0590932D0574C4C093530580916D05DB
:1059E00090916E05909359058093580580913205EA
:1059F00090913305A0913405B091350554C083E0F2
:105A0000C93ED8076CF0609154057091550580919E
:105A100056059091570520E030E04AE754E424C051
:105A20002CEFC831D2077CF4609154057091550574
:105A3000809156059091570520E030E04AE754E404
:105A40000E94FC3713C0BE01882777FD8095982FF0
:105A50000E9479399B01AC01609154057091550504
:105A600080915605909157050E94FD37609354052B
:105A70007093550580935605909357056091540592
:105A800070915505809156059091570520E030E4BE
:105A90004CE956E40E947A3A18160CF011C480E0E2
:105AA00090E4ACE9B6E48093540590935505A09337
:105AB0005605B093570504C4D0939E03C0939D032D
:105AC000FFC3D093A003C0939F03FAC3BE018827EE
:105AD00077FD8095982F0E94793920E030E048ECDE
