:100000000C9492060C94BA060C94BA060C94BA0698
:100010000C94BA060C94BA060C94BA060C94BA0660
:100020000C94BA060C94BA060C94BA060C94BA0650
:100030000C94BA060C94BA060C94B71F0C947C1F4F
:100040000C9461350C94B8200C94C0370C940E3885
:100050000C94BA060C94BA060C94BA060C94BA0620
:100060000C94BA060C94BA06036EDB363D9A999945
:10007000993DABAAAA2A3E000000803F084AD73B20
:100080003BCE016E84BCBFFDC12F3D6C74319ABD67
:1000900056833DDA3D00C77F11BED9E4BB4C3E918B
:1000A0006BAAAABE000000803F072C7AA5BA6CC5D7
:1000B00090DA3B9365FC8BBC53F810FD3C56928361
:1000C0004DBD879D3AB63DCBC9BF5BBE73DA0FC944
:1000D0003F00007000000000240000000200030048
:1000E0000000650054FFEF0000FA80000B12820050
:1000F00001030C30C30E8C8CE914D5400213710F30
:100100008E3883F8833000F883258EF8833000F82A
:1001100083FFFFFFFF0FFEA9D6240004001A827997
:10012000A10000003CFFFF00000010000038836FBA
:10013000A2003E03304000000002CAE3093E8000F6
:1001400000200000000000000040000000600000EF
:1001500000000C0000000C186E000006920A16C089
:10016000DFFFFF0256FD8CD377FFE1C496E0C5BEEA
:10017000AA00000000FFFF0B2B0000165700000331
:10018000594000000000001DFA00026C1D00000034
:10019000003FFFDFEB003EB3B6000D227800002FDA
:1001A0003C00000000001942B5000039A20000B375
:1001B00065D90E9FC91DCF4C34300000005000009F
:1001C000003BB67AE80064000000C80000000000B0
:1001D00000100000001000FA921000225E000D22B4
:1001E0009F0001000000320000FF46000063D400C1
:1001F000001000000004D6000004CC000004CC0075
:10020000000000107200000040000000000000002C
:100210000000060002000500070000000000640066
:100220000000000000000000050005006400200040
:10023000000000000000000000000040000000037B
:100240000000000032F8980000FF650000830F00F6
:1002500000FF9BFC00000000000000000000000008
:10026000000000000000000000000000000000008E
:10027000000000000000000000000000000000106E
:100280000040000000000000060000B26A0002000A
:10029000000001FB830068000000D9FC007CF1FF36
:1002A000830000000000650000006403E8006400B3
:1002B00028000000250000000016A000000000102B
:1002C0000000001000002F0000000001F4000010EA
:1002D0000000280000FFFF4581FFFFFA72000000C8
:1002E0000000000000004400050005BAC600477881
:1002F000A200000001000000000000060000000055
:10030000140000254D002F706D000005AE000C029A
:10031000D00000000000000000000000000000000D
:1003200000001B00000000000000000000000000B2
:100330000000640000000800000000000000000051
:1003400000000000000000000000000000000000AD
:10035000000000000000000000000000000000009D
:10036000000000000000000000000000000000008D
:10037000000000000000000000000000000000007D
:10038000000000000000000000000000000000006D
:1003900000001B00000000000000000000000E0034
:1003A0000E00000AC70004000000000032FFFFFF3B
:1003B0009C00000B2B000000020000000100000068
:1003C00064FFE500000000000000000000000000E5
:1003D000000000000100000000000100000000001B
:1003E0000000018000000180000001800000242640
:1003F000D30000000000000000000600100096007E
:100400003C000000000000000000000000000000B0
:10041000000C0A4E68CDCF770950166759C619CE21
:10042000820000000000000000000000000000004A
:1004300000000000000000000017D7840003000047
:10044000000000000000000000C7938F9D1E1B1CD1
:100450001900000000000000000000000000000083
:1004600000000000000000000002031885000040AA
:100470000000000003000000030000000000000076
:10048000004000000000000000000000000000002C
:10049000000000000000000000000000000000005C
:1004A000000000000000000000000000000000004C
:1004B0000000000000677DDF7E72902E554CF6E64E
:1004C00088000000000000000000000000000000A4
:1004D00000D8DCB4B8B0D8B9ABF3F8FAB3B7BB8E78
:1004E0009EAEF132F51BF1B4B8B08097F1A9DFDF11
:1004F000DFAADFDFDFF2AAC5CDC7A90CC92C97F1AF
:10050000A989264666B28999A92D557DB0B08AA8D9
:1005100096365676F1BAA3B4B280C0B8A89711B295
:100520008398BAA3F0240844106418B2B9B498832D
:10053000F1A329557DBAB5B1A38393F0002850F5F6
:10054000B2B6AA839328547CF1B9A3829361BAA26C
:10055000DADEDFDB819AB9AEF5606870F1DABAA253
:10056000DFD9BAA2FAB9A38292DB31BAA2D9BAA270
:10057000F8DF85A4D0C1BBAD83C2C5C7B8A2DFDF99
:10058000DFBAA0DFDFDFD8D8F1B8AAB38DB4980DF9
:10059000355DB2B6BAAF8C96198F9FA70E161EB4F2
:1005A0009AB8AA872C547CBAA4B08AB691325676EF
:1005B000B28494A4C808CDD8B8B4B0F19982A82D5B
:1005C000557D98A80E161EA22C547C92A4F02C5097
:1005D00078F184A898C4CDFCD80DDBA8FC2DF3D904
:1005E000BAA6F8DABAA6DED8BAB2B68696A6D0F31C
:1005F000C841DAA6C8F8D8B0B4B882A892F52C548D
:100600008898F135D9F418D8F1A2D0F8F9A884D98E
:10061000C7DFF8F883C5DADF69DF83C1D8F40114D6
:10062000F1A8824EA884F311D182F5D99228978837
:10063000F109F41C1CD884A8F3C0F9D1D99782F130
:1006400029F40DD8F3F9F9D1D982F4C203D8DEDF49
:100650001AD8F1A2FAF9A88498D9C7DFF8F8F88374
:10066000C7DADF69DFF883C3D8F40114F198A882F0
:100670002EA884F311D182F5D992509788F109F40C
:100680001CD884A8F3C0F8F9D1D99782F149F40DA8
:10069000D8F3F9F9D1D982F4C403D8DEDFD8F1ADAB
:1006A0008898CCA809F9D98292A8F57CF1883ACF2C
:1006B000944A6E98DB6931DAADF2DEF9D88795A8F5
:1006C000F221D1DAA5F9F417D9F1AE8ED0C0C3AEBC
:1006D00082C684C3A88595C8A588F2C0F1F4010E2E
:1006E000F18E9EA8C63E56F554F18872F40115F1BC
:1006F0009845856EF58E9E0488F142985A8E9E0626
:100700008869F4011CF1981E1108D0F504F11E97B8
:100710000202983625DBF9D985A5F3C1DA85A5F360
:10072000DFD88595A8F309DAA5FAD88292A8F578DA
:10073000F1881A849F26889821DAF41DF3D8879FC0
:1007400039D1AFD9DFDFFBF9F40CF3D8FAD0F8DAFE
:10075000F9F9D0DFD9F9D8F40BD8F3879F39D1AFA5
:10076000D9DFDFF41DF3D8FAFCA869F9F9AFD0DAC4
:10077000DEFAD9F88F9FA8F1CCF398DB45D9AFDF2B
:10078000D0F8D8F18F9FA8CAF38809DAAF8FCBF8D9
:10079000D8F2AD978D0CD9A5DFF9BAA6F3FAF41209
:1007A000F2D8950DD1D9BAA6F3FADAA5F2C1BAA654
:1007B000F3DFD8F1BAB2B68696A6D0CAF349DAA664
:1007C000CBF8D8B0B4B8D8AD84F2C0DFF18FCBC3CA
:1007D000A8B2B68696C8C1CBC3F3B0B48898A82196
:1007E000DB718D9D71859521D9ADF2FAD88597A8D9
:1007F00028D9F408D8F28D29DAF405D9F285A4C2F3
:10080000F2D8A88D9401D1D9F411F2D88721D8F467
:100810000AD8F28498A8C801D1D9F411D8F3A4C891
:10082000BBAFD0F2DEF8F8F8F8F8F8F8F8D8F1B87D
:10083000F6B5B9B08A95A3DE3CA3D9F8D85CA3D9A4
:10084000F8D87CA3D9F8D8F8F9D1A5D9DFDAFAD845
:10085000B18530F7D9DED8F830ADDADED8F2B48C15
:1008600099A32D557DA083DFDFDFB591A0F629D9AF
:10087000FBD8A0FC29D9FAD8A0D051D9F8D8FC517E
:10088000D9F9D879D9FBD8A0D0FC79D9FAD8A1F96F
:10089000F9F9F9F9A0DADFDFDFD8A1F8F8F8F8F80C
:1008A000ACDEF8ADDE8393AC2C547CF1A8DFDFDF47
:1008B000F69D2CDAA0DFD9FADB2DF8D8A850DAA003
:1008C000D0DED9D0F8F8F8DB55F8D8A878DAA0D07F
:1008D000DFD9D0FAF8F8F8F8DB7DF8D89CA88CF5C9
:1008E00030DB38D9D0DEDFA0D0DEDFD8A848DB5837
:1008F000D9DFD0DEA0DFD0DED8A868DB70D9DFDF9B
:10090000A0DFDFD8F1A888902C547C98A8D05C3860
:10091000D1DAF2AE8CDFF9D8B087A8C1C1B188A80E
:10092000C6F9F9DA36D8A8F9DA36D8A8F9DA36D815
:10093000A8F9DA36D8A8F9DA36D8F78D9DADF818C7
:10094000DAF2AEDFD8F7ADFA30D9A4DEF9D8F2AEDC
:10095000DEFAF983A7D9C3C5C7F1889BA77AADF79B
:10096000DEDFA4F8849408A797F300AEF29819A4E8
:1009700088C6A39488F632DFF28393DB09D9F2AA02
:10098000DFD8D8AEF8F9D1DAF3A4DEA7F1889B7AE4
:10099000D8F38494AE19F9DAAAF1DFD8A881C0C3DC
:1009A000C5C7A39283F628ADDED9F8D8A350ADD938
:1009B000F8D8A378ADD9F8D8F8F9D1A1DADEC3C553
:1009C000C7D8A18194F818F2B089ACC3C5C7F1D8D3
:1009D000B8B4B09786A8319B069907AB9728889B37
:1009E000F00C201440B0B4B8F0A88A9A285078B718
:1009F0009BA8295179247059446938644831F1BB66
:100A0000AB88002C547CF0B38BB8A804285078F144
:100A1000B088B49726A85998BBABB38B022646661C
:100A2000B0B8F08A9CA82951798B2951798A247011
:100A3000598B2058718A4469388B3940688A6448D8
:100A4000318B30496088F1AC002C547CF08CA804C8
:100A5000285078F1889726A85998AC8C02264666CB
:100A6000F0899CA829517924705944693864483127
:100A7000A98809205970AB11384069A8193148601C
:100A80008CA83C415C207C00F187981986A86E7682
:100A90007EA999882D557DD8B1B5B9A3DFDFDFAE2A
:100AA000D0DFAAD0DEF2ABF8F9D9B087C4AAF1DF63
:100AB000DFBBAFDFDFB9D8B1F1A3978E60DFB084C1
:100AC000F2C8F8F9D9DED89385F14AB183A308B505
:100AD000839A0810B79F10D8F1B0BAAEB08AC2B2EC
:100AE000B68E9EF1FBD9F41DD8F9D90CF1D8F8F8DF
:100AF000AD61D9AEFBD8F40CF1D8F8F8AD19D9AE88
:100B0000FBDFD8F416F1D8F8AD8D61D9F4F4ACF56B
:100B10009C9C8DDF2BBAB6AEFAF8F40BD8F1AED0B0
:100B2000F8AD51DAAEFAF8F1D8B9B1B6A3839C08A2
:100B3000B9B1839AB5AAC0FD3083B79F10B58B9326
:100B4000F20202D1ABDADED8F1B080BAABC0C3B2E8
:100B500084C1C3D8B1B9F38BA391B609B4D9ABDEC4
:100B6000B0879CB9A3DDF1B38B8B8B8B8BB087A344
:100B7000A3A3A3B28BB69BF2A3A3A3A3A3A3A3A3F4
:100B8000A3A3F1B087B59AA3F39BA3A3DCBAACDF10
:100B9000B9A3A3A3A3A3A3A3A3A3A3A3A3A3A3A30F
:100BA000A3D8D8D8BBB3B7F1AAF9DAFFD9809AAAEB
:100BB00028B48098A720B79787A86688F07951F164
:100BC000902C870CA781976293F0717160859401D6
:100BD00029517990A5F1284C6C870C95188578A33C
:100BE0008390284C6C886CD8F3A28200F210A892F3
:100BF0001980A2F2D926D8F188A84DD948D896A84C
:100C00003980D93CD89580A839A68698D92CDA871E
:100C1000A72CD8A8899519A980D938D8A88939A925
:100C200080DA3CD8A82EA83990D90CD8A89531984C
:100C3000D90CD8A809D9FFD801DAFFD89539A9DA93
:100C400026FFD890A80D8999A810809821DA2ED86F
:100C50008999A83180DA2ED8A886963180DA2ED8E4
:100C6000A8873180DA2ED8A88292F34180F1D92E5C
:100C7000D8A882F31980F1D92ED882ACF3C0A28013
:100C800022F1A62EA72EA92298A829DAACDEFFD839
:100C9000A2F22AF1A92E8292A8F23180A696F1D969
:100CA00000AC8C9C0C30ACDED0DEFFD88C9CACD081
:100CB00010ACDE8092A2F24C82A8F1CAF235F19615
:100CC00088A6D900D8F1FF00000000240027002AE0
:100CD0000000000000250028002B00000000002379
:100CE000002600290004040404040404040202028F
:100CF000020202030303030303010204081020405D
:100D000080010204081020010204081020000000E5
:100D100007000201000003040600000000000000BC
:100D20000000F33811241FBECFEFD8E0DEBFCDBFE7
:100D300011E0A0E0B1E0E0E0FBE702C005900D9219
:100D4000A035B107D9F716E0A0E5B1E001C01D92CA
:100D5000A232B107E1F71DE0C4E2DDE004C0229752
:100D6000FE010E947A3DC232D107C9F70E9449397B
:100D70000C94BC060C940000F8940C947E3DFB018E
:100D8000DC0104C08D910190801921F44150504044
:100D9000C8F7881B990B0895FC011092BC006623CC
:100DA00019F088B1806302C088B18F7C88B9109235
:100DB000B9009F01442737FD4095542F60E87EE33A
:100DC00080E090E00E945D3D205130404040504026
:100DD000CA01B90122E030E040E050E00E945D3DF0
:100DE0002093B80084E08093BC000895482F440FFE
:100DF00092E064EB54E86093BC002AEF30E080910D
:100E0000BC0087FD34C0215030408FEF2F3F3807A2
:100E1000B1F727C08091B900887F883021F08031F8
:100E200011F082E008954093BB005093BC002AEF7C
:100E300030E08091BC0087FD1EC0215030408FEF14
:100E40002F3F3807B1F70FC08091B900887F8032FB
:100E500021F4992351F09150CECF883131F480E0C4
:100E6000089581E0089583E0089584E008951216BE
:100E7000130684F2F6CF1216130634F3F4CFEF9272
:100E8000FF920F931F93162FE42E022FF32E0E9432
:100E9000F6061093BB0084E88093BC002AEF30E094
:100EA0008091BC0087FD07C0215030408FEF2F3F5D
:100EB0003807B1F703C0121613063CF0802F9F2DA0
:100EC0009C01F90190E044E81CC08091B900F6CF84
:100ED00080818093BB004093BC002AEF30E080917A
:100EE000BC0087FD07C0215030408FEF2F3F3807EF
:100EF000B1F705C01216130614F48091B9009F5F74
:100F000031969E1528F384E98093BC002AEF30E0E7
:100F10008091BC0087FD06C02115310519F02150D4
:100F20003040F6CF81E01F910F91FF90EF90089530
:100F30001F93F82F122F72E0B4EBE82FEE7FA4E896
:100F4000B093BC002AEF30E08091BC0087FDD0C098
:100F5000215030408FEF2F3F3807B1F7B7C0809155
:100F6000B900887F883021F0803111F091E1BDC057
:100F7000E093BB00A093BC002AEF30E08091BC005E
:100F800087FDBBC0215030408FEF2F3F3807B1F7AE
:100F90009FC09091B900987F903229F4772309F48B
:100FA00099C07150CDCF983109F094C06093BB00C7
:100FB00084E88093BC002AEF30E08091BC0087FD7C
:100FC000A1C0215030408FEF2F3F3807B1F784C0C8
:100FD0008091B900887F883211F095E186C062E087
:100FE000A4EB7F2F7160E4E8A093BC002AEF30E00F
:100FF0008091BC0087FD8BC0215030408FEF2F3F88
:101000003807B1F76BC08091B900887F883021F034
:10101000803111F097E169C07093BB00E093BC0090
:101020002AEF30E08091BC0087FD76C0215030402F
:101030008FEF2F3F3807B1F758C08091B900887FF4
:10104000883429F4662309F44BC06150CDCF803435
:1010500009F046C0FA0160E0412F50E04150504095
:10106000A4EC74E822C0862F90E08417950719F449
:101070007093BC0002C0A093BC002AEF30E08091C6
:10108000BC0087FD4EC0215030408FEF2F3F380706
:10109000B1F728C09091B900987F903511F098353C
:1010A00021F58091BB0081936F5F6117E0F284E9C5
:1010B0008093BC002AEF30E08091BC0087FD14C013
:1010C0002115310589F021503040F6CF90E10DC057
:1010D00092E10BC093E109C094E107C096E105C01D
:1010E00099E103C09AE101C090E0892F1F91089512
:1010F000121613060CF433CFE9CF121613060CF4B4
:1011000048CFE6CF121613060CF462CFE5CF1216C5
:1011100013060CF478CFE2CF121613060CF48DCF21
:10112000E4CF121613060CF4B5CFDCCF7F928F926A
:101130009F92AF92BF92CF92DF92EF92FF920F9366
:101140001F93CF93DF93F82EE62E742E6901E801EA
:101150000E94A9354B015C018F2D880F6E2DA601D1
:10116000272D0E949807882311F01FEF01C0172D2B
:101170002097C1F00E94A935681979098A099B094D
:101180009E0140E050E0621773078407950750F016
:10119000212F332727FD3095872D90E02817390719
:1011A0000CF41FEF812FDF91CF911F910F91FF90D2
:1011B000EF90DF90CF90BF90AF909F908F907F90F7
:1011C00008959C018230910518F02FEF3FEF45C044
:1011D00080936A0290936B028AE290E0AC01249FB4
:1011E000C001259F900D349F900D1124805B9E4F70
:1011F0009093630280936202C901880F991F820F46
:10120000931F880F991F880F991F8C559E4F90939D
:1012100065028093640287E290E0AC01249FC001E4
:10122000259F900D349F900D112484549E4F9093D0
:101230006702809366028CE290E0AC01249FC001BB
:10124000259F900D349F900D1124865F9D4F9093A4
:1012500069028093680220E030E0C90108950F938D
:101260001F93CF93DF93C0916202D091630285E711
:10127000888389E189838AE18A838CE08B838AE68B
:101280008C8383E28D838BE18E838CE18F838FE16E
:101290008A8780E28B8782E78C8784E78D8783E467
:1012A0008E878BE38F8781E4888B88E3898B89E342
:1012B0008A8B8AE38B8B8BE68D8B8CE68E8B87E318
:1012C0008F8B8FE6888F86E0898F84E28A8F8DE608
:1012D0008B8F8EE68C8F80E78D8F89E488A781E0E5
:1012E00089A785E28E8F86E28F8F87E288A388E2C6
:1012F00089A389E28AA38AE28BA384E38CA383E691
:101300008DA384E68EA387E68FA380916A029091D5
:101310006B02009719F0019769F406C0E09164022E
:10132000F091650288E605C0E0916402F0916502E3
:1013300089E68083009164021091650280E094E068
:10134000F8019283818386E7838384E591E0958326
:10135000848387EF9DEF9783868380E091E0918778
:10136000808786E696E29387828720916602309195
:10137000670283E890E0A0E0B0E0F9018083918308
:10138000A283B38380E098E0A0E0B0E084839583FB
:10139000A683B783108681E08187128688E18387E0
:1013A00082E390E09587848785E0868780E090E0FF
:1013B000A0E2B1E48787908BA18BB28B80E090E0B4
:1013C000A2EDB2E4838B948BA58BB68B49E25CE5EE
:1013D0006FE07EE3478B508F618F728F8AE999E9C6
:1013E000A9E9BEE3838F948FA58FB68F83E393E340
:1013F000A3E7BFE3878F90A3A1A3B2A343A354A302
:1014000065A376A3E0916802F0916902D183C0835D
:101410001383028333A722A7DF91CF911F910F91EE
:101420000895DC01E0916802F091690286818823C9
:1014300019F081E08C9301C01C9280E090E0089547
:10144000DF93CF930F92CDB7DEB7982FA0916802AC
:10145000B09169025D968C915D97882321F0992364
:1014600089F082E00DC016968C9116978823E9F0DA
:10147000992341F01C968C911C978823F9F481E004
:10148000898301C019821296ED91FC9113970D90FA
:10149000BC91A02D808151966C9141E09E012F5FFF
:1014A0003F4F0E943F07882319F42FEF3FEF08C0FA
:1014B000E0916802F09169028981848720E030E040
:1014C000C9010F90CF91DF910895CF92DF92EF92F3
:1014D000FF920F931F93DF93CF9300D0CDB7DEB76A
:1014E000D82EC92E8B017A014115510519F42FEF21
:1014F0003FEF41C0E0916802F09169028681882344
:1015000019F42EEF3FEF37C0A281B3819B012D0D5F
:10151000311D18968D919C9119978217930718F495
:101520002DEF3FEF28C0C982DA820190F081E02DD3
:101530008C91638D42E09E012F5F3F4F0E943F07D9
:10154000882319F42CEF3FEF16C0E0916802F09168
:101550006902A281B3810190F081E02D8C91608DB0
:10156000402F97010E943F07882319F020E030E0C8
:1015700002C02BEF3FEFC9010F900F90CF91DF9189
:101580001F910F91FF90EF90DF90CF9008951F93E0
:10159000DF93CF930F92CDB7DEB7182FA0916802DB
:1015A000B09169025C968C915C97811781F111234F
:1015B00019F080E3898301C019821D968C911D97D3
:1015C000882319F08981826089835B968C915B976F
:1015D000882319F08981806889831296ED91FC91A6
:1015E00013970D90BC91A02D808157966C9141E08E
:1015F0009E012F5F3F4F0E943F07882319F42FEF72
:101600003FEF07C0E0916802F0916902148F20E07B
:1016100030E0C9010F90CF91DF911F910895DF93C2
:10162000CF930F92CDB7DEB7BC010097A9F12091FF
:10163000680230916902D90119968D919C911A978F
:101640008617970748F16536710530F50E94143DFD
:1016500061506983F90182819381A081B181FC018C
:10166000808194966C9141E09E012F5F3F4F0E94D4
:101670003F07882389F0E0916802F091690269814F
:1016800070E06F5F7F4F818592850E94143D72A349
:1016900061A320E030E002C02FEF3FEFC9010F90BF
:1016A000CF91DF910895DF93CF930F92CDB7DEB73F
:1016B0009C01A0916802B091690216968C911697D0
:1016C000882399F12C3B310510F081E015C02236BA
:1016D000310510F082E010C02A32310510F083E0AD
:1016E0000BC02431310510F084E006C02A303105EA
:1016F00010F085E001C086E0898317969C911797CA
:1017000089819817D9F01296ED91FC9113970D905D
:10171000BC91A02D808112966C9141E09E012F5FBB
:101720003F4F0E943F07882319F42FEF3FEF08C077
:10173000E0916802F09169028981878320E030E0BE
:10174000C9010F90CF91DF910895DF93CF930F924E
:10175000CDB7DEB7982FA0916802B09169021696B6
:101760008C9116978823A1F1943061F0953018F48C
:10177000923071F505C0983039F0903149F506C0C6
:10178000198206C088E003C080E101C088E1898336
:1017900015962C91159730E0898190E0E3E09595BE
:1017A0008795EA95E1F72817390709F11296ED9127
:1017B000FC9113970D90BC91A02D808117966C9190
:1017C00041E09E012F5F3F4F0E943F07882319F49D
:1017D0002FEF3FEF0EC0E0916802F091690289811E
:1017E00090E073E0959587957A95E1F7858320E001
:1017F00030E0C9010F90CF91DF910895DF93CF932F
:101800000F92CDB7DEB79C01A0916802B09169023A
:1018100016968C9116978823E1F181E0243F3807D2
:1018200091F081E0253F380720F42A3F310589F502
:1018300008C083E0283E380741F0205D374049F575
:1018400006C0198206C088E003C080E101C088E1BB
:10185000898314962C91149730E0898190E043E0BD
:10186000959587954A95E1F72817390709F112965A
:10187000ED91FC9113970D90BC91A02D808116964F
:101880006C9141E09E012F5F3F4F0E943F078823EC
:1018900019F42FEF3FEF0EC0E0916802F09169025A
:1018A000898190E0A3E095958795AA95E1F78483D7
:1018B00020E030E0C9010F90CF91DF9108950F93A0
:1018C0001F93DF93CF930F92CDB7DEB7A09168023D
:1018D000B091690216968C911697882309F41BC162
:1018E00019821296ED91FC9113970D90BC91A02D49
:1018F000808151966C9141E08E010F5F1F4F9801DE
:101900000E943F07882309F406C1E0916802F09124
:101910006902A281B3810190F081E02D8C916581F3
:1019200041E098010E943F07882309F4F4C0E09148
:101930006802F0916902A281B3810190F081E02DEB
:101940008C91648141E098010E943F07882309F44B
:10195000E2C0A0916802B09169025D968C915D979A
:10196000882309F469C08CE089831296ED91FC917B
:1019700013970D90BC91A02D808114966C9141E03D
:1019800098010E943F07882309F4C5C062E370E014
:1019900080E090E00E94B73580EC8983A0916802D6
:1019A000B091690216968C91169780FF02C080EE66
:1019B00089831296ED91FC9113970D90BC91A02D07
:1019C000808114966C9141E09E012F5F3F4F0E94F1
:1019D0003F07882309F49FC0A0916802B091690273
:1019E0001C968C911C97882319F082E0898301C092
:1019F00019821296ED91FC9113970D90BC91A02D38
:101A0000808151966C9141E08E010F5F1F4F9801CC
:101A10000E943F07882309F47EC01982E091680282
:101A2000F0916902A281B3810190F081E02D8C9147
:101A3000658141E098016BC084E089831296ED9145
:101A4000FC9113970D90BC91A02D808114966C9100
:101A500041E098010E943F07882309F45CC0A091EF
:101A60006802B09169021D968C911D97882329F414
:101A700016968C91169780FD02C080E401C080E626
:101A800089831296ED91FC9113970D90BC91A02D36
:101A9000808114966C9141E09E012F5F3F4F0E9420
:101AA0003F078823C1F162E370E080E090E00E948C
:101AB000B735A0916802B09169021C968C911C9771
:101AC000882319F081E0898301C019821296ED9173
:101AD000FC9113970D90BC91A02D808151966C9133
:101AE00041E09E012F5F3F4F0E943F07882399F0FE
:101AF000E0916802F0916902A281B3812081318175
:101B00003B968C91D90115966C9141E09F010E9402
:101B10003F07882319F42FEF3FEF02C020E030E0A9
:101B2000C9010F90CF91DF911F910F9108950F93ED
:101B30001F93CF93DF93982FE0916802F091690291
:101B4000858D882319F0C0E0D0E029C086818823E4
:101B500021F1192F1E7F038581238387811719F4B3
:101B6000C0E0D0E002C0CFEFDFEF112319F487858A
:101B7000882331F081E00E94200A112381F004C003
:101B800080E00E94200A0BC00E945F0C892B39F074
:101B9000E0916802F09169020387CFEFDFEFCE0199
:101BA000DF91CF911F910F9108951F93DF93CF93F2
:101BB00000D0CDB7DEB7182F893208F058C088237F
:101BC000F9F480E00E94C70A198287E08A83E091D5
:101BD0006802F0916902A281B3810190F081E02D49
:101BE0008C91658942E09E012F5F3F4F0E943F0725
:101BF0008823E9F1E0916802F0916902178646C0F6
:101C000081E00E94C70A80E28983113011F41A82B0
:101C100004C0163028F481E08A8385E090E00BC090
:101C2000153128F482E08A838AE090E004C083E0E2
:101C30008A8384E190E00E94530B8A818295880F09
:101C4000880F807C87608A83E0916802F091690246
:101C5000A281B3810190F081E02D8C91658942E0F1
:101C60009E012F5F3F4F0E943F07882319F42FEFFB
:101C70003FEF0EC0E0916802F091690288E0868330
:101C8000108681E0878780E00E94970D20E030E099
:101C9000C9010F900F90CF91DF911F9108950F937D
:101CA0001F93DF93CF930F92CDB7DEB78C01E091F6
:101CB0006802F091690286818823B9F1858D8823B5
:101CC000A1F58785882359F0C8010197889720F4EA
:101CD000802F0E94D50D4DC080E00E94D50D0430AC
:101CE000110518F464E070E007C0B80183E0093E14
:101CF000180710F068EE73E088EE93E00E94143D40
:101D000061506983E0916802F0916902A281B38118
:101D10000190F081E02D8C91618141E09E012F5F67
:101D20003F4F0E943F07882319F42FEF3FEF23C056
:101D3000E0916802F0916902698170E06F5F7F4F06
:101D400088EE93E00E94283D7287618781A192A16D
:101D50008536910510F084E690E00E940F0BE0912B
:101D60006802F091690281859285969587950E9417
:101D7000530B20E030E0C9010F90CF91DF911F910C
:101D80000F910895CF92DF92EF92FF920F931F93DE
:101D9000DF93CF9300D0CDB7DEB7182F092F7B018B
:101DA0006A0141155105D1F1E0916802F091690293
:101DB0008681882399F1A281B3819B01210F311D76
:101DC00018968D919C9119978217930738F1098382
:101DD0001A830190F081E02D8C91638D42E09E0189
:101DE0002F5F3F4F0E943F078823C1F0E0916802B8
:101DF000F0916902A281B3810190F081E02D009100
:101E00000001109101018C91608D4E2D96010E9470
:101E10009608882319F020E030E002C02FEF3FEF52
:101E2000C9010F900F90CF91DF911F910F91FF90FB
:101E3000EF90DF90CF900895DF92EF92FF920F9393
:101E40001F93DF93CF930F92CDB7DEB7D82EE091DB
:101E50006802F091690285858D1509F49EC0A28102
:101E6000B3810190F081E02D0091000110910101FA
:101E70007E010894E11CF11CDD2089F18C916481C4
:101E800041E097010E949608882309F47EC0898169
:101E90008F7D8983E0916802F0916902A281B3810C
:101EA0000190F081E02D8C91648141E097010E94C6
:101EB0003F07882309F469C063E070E080E090E0A8
:101EC0000E94B73582E08983A0916802B0916902CF
:101ED0005B968C915B978823F1F182E839C08C91F5
:101EE000648141E097010E949608882309F44DC05F
:101EF000A0916802B091690216968C91169799810B
:101F000080FF02C0906201C09F7D99831296ED917F
:101F1000FC9113970D90BC91A02D808114966C912B
:101F200041E09E012F5F3F4F0E943F07882369F1E8
:101F300063E070E080E090E00E94B735A091680215
:101F4000B09169025B968C915B97882319F080E8C9
:101F5000898301C019825C968C915C97882319F063
:101F60008981806389831296ED91FC9113970D907E
:101F7000BC91A02D808157966C9141E09E012F5F0E
:101F80003F4F0E943F07882319F42FEF3FEF07C010
:101F9000E0916802F0916902D58620E030E0C90145
:101FA0000F90CF91DF911F910F91FF90EF90DF90F5
:101FB0000895DF93CF930F92CDB7DEB7982FE091BE
:101FC0006802F0916902858D891709F44AC0992346
:101FD00069F1868D882319F42FEF3FEF44C080E02C
:101FE0000E94200A80E00E941C0FE0916802F0919C
:101FF0006902878D90A10E944F0E1982E0916802BC
:10200000F09169020280F381E02D808163E241E07A
:102010009E012F5F3F4F0E943F07E0916802F091C1
:10202000690281E0858F0E94200A19C080E00E9429
:10203000200AE0916802F091690283858983028019
:10204000F381E02D808163E241E09E012F5F3F4FED
:102050000E943F07E0916802F0916902158E0E948C
:102060005F0C20E030E0C9010F90CF91DF9108951F
:102070006F927F928F929F92AF92BF92CF92DF9298
:10208000EF92FF920F931F93DF93CF9300D0CDB7C2
:10209000DEB76C013B014A01A0916802B091690270
:1020A0005D968C915D97882319F42FEF3FEF7CC0EC
:1020B00016968C911697882319F42EEF3FEF74C073
:1020C0001296ED91FC9113970D90BC91A02D00916B
:1020D00000011091010180811C966C9142E05E012B
:1020E0000894A11CB11C95010E949608882319F43C
:1020F0002DEF3FEF59C0998180E02A81E22EFF2425
:10210000E82AF92AEC14FD0428F4F401108221E0F5
:1021100030E04AC0E0916802F0916902A281B38187
:1021200011968D919C911297969587958E159F0586
:10213000D0F40190F081E02D009100011091010197
:102140008C91638941E095010E949608882319F4D7
:102150002BEF3FEF29C0898184FF05C00E945F0CEF
:1021600022E030E021C0E0916802F0916902A28192
:10217000B3810190F081E02D0091000110910101E7
:102180008C9165854C2D93010E949608882319F443
:1021900029EF3FEF09C0C701B6010E94143D61500D
:1021A000F401608320E030E0C9010F900F90CF91DF
:1021B000DF911F910F91FF90EF90DF90CF90BF9034
:1021C000AF909F908F907F906F900895DF92EF92E5
:1021D000FF920F931F93DF93CF9300D0CDB7DEB75D
:1021E000D82EE82EFF24C70180779070892B11F03C
:1021F00081E005C0DD2011F0198202C080E48983EE
:10220000E0916802F0916902A281B3810190F081AE
:10221000E02D8C91658941E09E012F5F3F4F0E9428
:102220003F07A0916802B0916902882319F41696BD
:102230001C9230C089818F7B18968C9318971982D5
:10224000E6FC02C084E08983E5FC03C089818260EA
:102250008983E4FC03C0898181608983E3FC03C036
:102260008981886389831296ED91FC9113970D9073
:10227000BC91A02D808156966C9141E09E012F5F0C
:102280003F4F0E943F07882341F4E0916802F0919C
:10229000690216822FEF3FEF6CC0DD2031F088E03D
:1022A000D81619F080E00E94C70AE0916802F09108
:1022B0006902A281B3810190F081E02D00910001BB
:1022C000109101018C91648141E09E012E5F3F4F8E
:1022D0000E9496088823F1F29A81E0FE04C081E012
:1022E0008983906202C019829F7D9A83A0916802BF
:1022F000B09169025D968C915D979A81882311F067
:10230000906801C09F779A831296ED91FC91139784
:102310000D90BC91A02D808196966C9141E09E011C
:102320002F5F3F4F0E943F07882309F4B3CFE0910E
:102330006802F0916902A281B3810190F081E02DE1
:102340008C91648141E09E012E5F3F4F0E943F07C8
:10235000882309F49FCFE0916802F0916902D68248
:10236000178662E370E080E090E00E94B73520E0DD
:1023700030E0C9010F900F90CF91DF911F910F9125
:10238000FF90EF90DF900895CF92DF92EF92FF924F
:102390000F931F93DF93CF93CDB7DEB729970FB677
:1023A000F894DEBF0FBECDBF7C016B01A091680227
:1023B000B091690216968C91169780FD03C02FEF9D
:1023C0003FEF96C01296ED91FC9113970D90BC9142
:1023D000A02D0091000110910101808198966C91CF
:1023E00048E09E012F5F3F4F0E949608882319F412
:1023F0002CEF3FEF7DC0898180FD03C021E030E0FC
:1024000077C0888587FD72C086FD70C03B8120E063
:102410006A8170E0622B732BF701718360833D81C9
:1024200020E04C8150E0242B352B338322833F81E5
:1024300020E04E8150E0242B352B358324830091FE
:10244000680210916902882777FD8095982FF8011E
:1024500024A135A1442737FD4095542F0E94E93C23
:10246000672F782F892F992787FD9A95F701718318
:10247000608362817381882777FD8095982FF801AA
:1024800026A137A1442737FD4095542F0E94E93CEF
:10249000672F782F892F992787FD9A95F7017383E6
:1024A000628364817581882777FD8095982FF80174
:1024B00020A531A5442737FD4095542F0E94E93CC3
:1024C000672F782F892F992787FD9A95F7017583B4
:1024D0006483C114D10439F00E94A935F6016083E8
:1024E00071838283938320E030E002C02AEF3FEFC4
:1024F000C90129960FB6F894DEBF0FBECDBFCF91AC
:10250000DF911F910F91FF90EF90DF90CF90089592
:102510002F923F924F925F926F927F928F929F92F3
:10252000AF92BF92CF92DF92EF92FF920F931F93E1
:10253000DF93CF93CDB7DEB764970FB6F894DEBFC5
:102540000FBECDBF3C014B014B8B5C8B1901E09161
:102550006802F0916902868D882319F02FEF3FEF12
:1025600075C06115710519F42EEF3FEF6FC080E162
:1025700090E00E948A36B92EC82ED92EA82EEE24BD
:10258000FF2463E0462E512C4C0E5D1E38C08301A3
:102590000E191F090131110510F000E110E094013E
:1025A0002E0D3F1DD601A601400F511F05C0F90198
:1025B00084918D932F5F3F4FA417B507C1F7C701D3
:1025C000B801A5010E94650A892B19F02DEF3FEF94
:1025D0003DC0C701B801A2010E94C20E892B19F0AB
:1025E0002CEF3FEF33C0C501B201A8010E94BF0626
:1025F000009719F02BEF3FEF29C0E00EF11EE61413
:10260000F70428F2FC89F9838B898A83E0916802B8
:10261000F0916902A281B3810190F081E02D8C914B
:10262000658D42E09E012F5F3F4F0E943F07882348
:1026300019F42AEF3FEF0AC0E0916802F0916902B5
:1026400081E0868F30A2278E20E030E0C9016496B9
:102650000FB6F894DEBF0FBECDBFCF91DF911F91B3
:102660000F91FF90EF90DF90CF90BF90AF909F9031
:102670008F907F906F905F904F903F902F90089534
:10268000EF92FF920F931F93DF93CF93CDB7DEB7F7
:102690002B970FB6F894DEBF0FBECDBF80E88D83B9
:1026A000E0916802F0916902A281B3810190F0810A
:1026B000E02D15E0E12EF12CEC0EFD1E8C916589CC
:1026C00041E097010E943F07882319F42FEF3FEF65
:1026D00026C264E670E080E090E00E94B7351D827B
:1026E000E0916802F0916902A281B3810190F081CA
:1026F000E02D8C91658941E097010E943F07882376
:1027000019F42EEF3FEF0BC2E0916802F0916902DD
:10271000A281B3810190F081E02D00910001109120
:1027200001018C91618D46E097010E9496088823F3
:1027300019F42DEF3FEFF3C18A8590E0817090701E
:10274000880F991F880F991F288530E021703070FD
:10275000220F331F982F922B8E818170982B91F02E
:10276000913031F4E0916802F0916902968732C0AD
:10277000923019F02CEF3FEFD2C1E0916802F09156
:10278000690227C0E0916802F0916902A281B381D9
:102790000190F081E02D00910001109101018C91D8
:1027A000638141E097010E949608882319F42BEF7A
:1027B0003FEFB5C18D818F7019F42AEF3FEFAFC1A4
:1027C000E0916802F0916902843019F481E0868713
:1027D00001C01686E0916802F09169028FEF86834E
:1027E0008483858387832FEF3FEF32872187838719
:1027F000858732A321A381E08087838F148E108A7E
:10280000178671968AE011928A95E9F7E09168023D
:10281000F0916902158E168E10A2178E80ED97E04A
:102820000E94FE0B892B19F026EF3FEF78C182E062
:102830000E94A50B892B19F025EF3FEF70C18AE2AA
:1028400090E00E94530B892B19F024EF3FEF67C1F2
:1028500082E390E00E944F0E892B19F023EF3FEFA7
:102860005EC180E00E94970D892B19F022EF3FEFA7
:1028700056C181E00E941C0F9CE07E010894E11C7F
:10288000F11C0091000110910101892F60E041E0ED
:1028900097019B870E9496089B85882399F08981E0
:1028A000883481F4E0916802F091690293A319825F
:1028B00083A16AE041E097010E943F07882309F461
:1028C00020C104C09F5F9031E1F61BC161E070E060
:1028D00080E090E00E94B7358FE08983E091680244
:1028E000F091690283A16AE041E097010E943F07ED
:1028F000882309F406C161E070E080E090E00E9466
:10290000B735E0916802F0916902009100011091E1
:10291000010183A160E143E097010E9496088823AA
:1029200009F4EFC0E0916802F0916902898190E0BA
:1029300080589F4F95A384A38A8190E080589F4F31
:1029400097A386A38B8190E080589F4F91A780A783
:10295000198283A16AE041E097010E943F07882322
:1029600009F4CFC061E070E080E090E00E94B735EC
:1029700080E00E941C0F80E48983E0916802F0915E
:102980006902A281B3810190F081E02D8C91628D6A
:1029900041E097010E943F07882309F4B2C0E0910B
:1029A0006802F091690283A180688983A281B38162
:1029B0000190F081E02D8C91668D41E097010E949D
:1029C0003F07882309F49DC082E08983E091680273
:1029D000F0916902A281B3810190F081E02D8C9188
:1029E000678D41E097010E943F07882309F489C061
:1029F00088E88983E0916802F0916902A281B3813D
:102A00000190F081E02D8C9160A141E097010E943E
:102A10003F07882309F475C0E0916802F0916902CC
:102A200083A18983A281B3810190F081E02D8C91F3
:102A300061A141E08E010F5F1F4F98010E943F0787
:102A4000882309F45EC08AE08983E0916802F091EE
:102A50006902A281B3810190F081E02D8C9162A185
:102A600041E098010E943F07882309F44AC081E8A9
:102A70008983E0916802F0916902A281B38101909B
:102A8000F081E02D8C9163A141E098010E943F0705
:102A90008823B9F181E08983E0916802F0916902AD
:102AA000A281B3810190F081E02D8C9166A141E07B
:102AB00098010E943F07882321F183E08983E091F8
:102AC0006802F0916902A281B3810190F081E02D4A
:102AD0008C9167A141E098010E943F07882389F00B
:102AE00080E88983E0916802F0916902A281B38154
:102AF0000190F081E02D8C9161A541E098010E9448
:102B00003F078AE090E00E940F0B892B19F021EF1C
:102B10003FEF05C080E00E94E61020E030E0C901F0
:102B20002B960FB6F894DEBF0FBECDBFCF91DF91CD
:102B30001F910F91FF90EF9008959C0182309105B5
:102B400018F02FEF3FEF16C0809384029093850218
:102B50008BE090E0AC01249FC001259F900D349F35
:102B6000900D112484599D4F90938302809382028B
:102B700020E030E0C9010895E0918202F0918302E3
:102B80001182108213821282158214821782168299
:102B900011861086128608952F923F924F925F926F
:102BA0006F927F928F929F92AF92BF92CF92DF925D
:102BB000EF92FF920F931F93DF93CF93CDB7DEB7C2
:102BC000AC970FB6F894DEBF0FBECDBF9EA38DA30A
:102BD00078A76FA32A013AA729A71CA70BA7A701CB
:102BE000D8011D921C92E0918202F09183028285AD
:102BF00090E0BE016F5F7F4F0E9438109CA38BA3B3
:102C0000892B09F0B2C1E0918202F0918302FAA30C
:102C1000E9A38681978184719070892B11F440E03B
:102C200017C1A980BB24CC24DD24DA2CCC24BB24FE
:102C3000AA248A8190E0A0E0B0E0DC0199278827EF
:102C4000A82AB92ACA2ADB2A8C8190E0A0E0B0E049
:102C5000A82AB92ACA2ADB2A8B8190E0A0E0B0E03A
:102C6000BA2FA92F982F8827A82AB92ACA2ADB2A7F
:102C7000D201AD92BD92CD92DC9213972D8130E0BE
:102C800040E050E0522F4427332722278E8190E0E6
:102C9000A0E0B0E0DC0199278827282B392B4A2BAC
:102CA0005B2B888590E0A0E0B0E0282B392B4A2BE5
:102CB0005B2B8F8190E0A0E0B0E0BA2FA92F982F76
:102CC0008827282B392B4A2B5B2BF2012483358351
:102CD00046835783298530E040E050E0522F442757
:102CE000332722278A8590E0A0E0B0E0DC01992715
:102CF0008827282B392B4A2B5B2B8C8590E0A0E072
:102D0000B0E0282B392B4A2B5B2B8B8590E0A0E081
:102D1000B0E0BA2FA92F982F8827282B392B4A2BC0
:102D20005B2BD20118962D933D934D935C931B978B
:102D30002D8530E040E050E0522F442733272227F2
:102D40008E8590E0A0E0B0E0DC0199278827282B51
:102D5000392B4A2B5B2B888990E0A0E0B0E0282B30
:102D6000392B4A2B5B2B8F8590E0A0E0B0E0BA2F87
:102D7000A92F982F8827282B392B4A2B5B2B2487A8
:102D80003587468757875601DD24B7FCD094CD2C74
:102D900064807580868097803401992477FC9094B4
:102DA000892C20843184428453841201552437FCB9
:102DB0005094452C9A01552737FD5095452FCA014F
:102DC000B9010E94E93C7B018C01C601B501A60155
:102DD00095010E94E93CE60EF71E081F191FC40169
:102DE000B301A40193010E94E93CE60EF71E081FFF
:102DF000191FC201B101A20191010E94E93CE60E36
:102E0000F71E081F191F80E090E0A0E0B1EFE80E68
:102E1000F91E0A1F1B1F91E0E91690E0F90690E0E9
:102E2000090792E0190758F00E945F0CABA5BCA5FA
:102E30001D921C92E3E0F0E0FCA3EBA396C0ABA5CF
:102E4000BCA58D919C91119791608D939C9340E1CD
:102E5000E9A1FAA1868186FF39C0A42FB0E0FE0166
:102E6000EA0FFB1F228130E0FE01EA0FFB1F918178
:102E700080E0282B392BEFA1F8A531832083FE01B8
:102E8000EA0FFB1F338120E0FE01EA0FFB1F848164
:102E900090E0282B392BEFA1F8A533832283FE0184
:102EA000EA0FFB1F358120E0868190E0282B392B2B
:102EB000AFA1B8A515963C932E9314974A5FEBA546
:102EC000FCA580819181886091838083A9A1BAA1AA
:102ED00016968D919C91179780789170892BC1F1EE
:102EE000A42FB0E0FE01EA0FFB1F228130E0FE01BB
:102EF000EA0FFB1F918180E0282B392BEDA1FEA169
:102F000031832083FE01EA0FFB1F338120E0FE01A5
:102F1000EA0FFB1F848190E0282B392BEDA1FEA145
:102F200033832283FE01EA0FFB1F358120E0868177
:102F300090E0282B392BADA1BEA115963C932E9382
:102F40001497EBA5FCA58081918180679183808394
:102F500089A59AA5892B49F00E94A935A9A5BAA5EA
:102F60006D937D938D939C9313978BA19CA1AC96AD
:102F70000FB6F894DEBF0FBECDBFCF91DF911F918A
:102F80000F91FF90EF90DF90CF90BF90AF909F9008
:102F90008F907F906F905F904F903F902F9008950B
:102FA000DF93CF93CDB7DEB729970FB6F894DEBF86
:102FB0000FBECDBF9E012F5F3F4F882349F0D9013F
:102FC000EFE1F1E089E001900D928150E1F708C056
:102FD000D901E6E1F1E089E001900D928150E1F73D
:102FE00088EB94E069E070E0AE014F5F5F4F0E94B4
:102FF000650A29960FB6F894DEBF0FBECDBFCF91FC
:10300000DF9108950F931F93DF93CF93CDB7DEB772
:1030100028970FB6F894DEBF0FBECDBF8C01893C58
:103020009105F0F488EC90E0B8010E94143D6150E5
:10303000704079836A8386E192E062E070E0AE01DD
:103040004F5F5F4F0E94650A892B51F481EC9AE033
:103050006CE070E048E251E00E94650A892B19F0AB
:103060002FEF3FEF08C0E0918202F09183021187B9
:10307000008720E030E0C90128960FB6F894DEBF43
:103080000FBECDBFCF91DF911F910F910895EF92A9
:10309000FF920F931F93DF93CF9300D000D000D007
:1030A000CDB7DEB78C01AC0143705070FA01E35C20
:1030B000FE4F80818983C801E3E096958795EA9564
:1030C000E1F783709070FC01E35CFE4F20812A835E
:1030D000D80176E0B695A7957A95E1F7A370B07020
:1030E000FD01E35CFE4F20812B83465C5E4FFA01BD
:1030F00020812C83865C9E4FFC0180818D83A65CA1
:10310000BE4F8C918E8386E294E063E070E07E0196
:103110000894E11CF11CA7010E94650A892B09F0A3
:103120004BC08AE294E063E070E0AE014C5F5F4F19
:103130000E94650A892B09F03FC0D701E7E3F1E05F
:1031400083E001900D928150E1F7DE011496E4E3F3
:10315000F1E083E001900D928150E1F702FF06C09B
:103160008981816089838C8181608C8305FF06C0A1
:103170008A8181608A838D8181608D8310FF06C082
:103180008B8181608B838E8181608E8380E494E06B
:1031900063E070E0AE014F5F5F4F0E94650A892BCC
:1031A00059F481E394E063E070E0AE014C5F5F4F5F
:1031B0000E94650A892B19F02FEF3FEF08C0E091BC
:1031C0008202F09183021583048320E030E0C9017C
:1031D00026960FB6F894DEBF0FBECDBFCF91DF911C
:1031E0001F910F91FF90EF900895DF93CF9300D040
:1031F00000D0CDB7DEB7882349F080E2898388E22A
:103200008A8380E38B8388E38C8308C083EA93EA14
:10321000A3EAB3EA89839A83AB83BC838EE99AE0FD
:1032200064E070E0AE014F5F5F4F0E94650A0E944C
:103230005F0C0F900F900F900F90CF91DF9108953A
:10324000DF93CF9300D000D0CDB7DEB7882349F00D
:1032500080EC898382EC8A8384EC8B8386EC8C837C
:1032600008C08BE89BE8ABE8BBE889839A83AB8313
:10327000BC8388E99AE064E070E0AE014F5F5F4F85
:103280000E94650A0E945F0C0F900F900F900F90A4
:10329000CF91DF910895AF92BF92CF92DF92EF92DC
:1032A000FF920F931F93DF93CF93CDB7DEB72A978B
:1032B0000FB6F894DEBF0FBECDBF8C0182E08983CC
:1032C0008AEC8A8383EE8B8389E08C8388E690E0A6
:1032D00064E070E0AE014F5F5F4F0E94650A83EAD1
:1032E0008983B0E4AB2EB12CA022B12206FF06C028
:1032F00080EC8A8388EC8B8382EC02C08A838B8388
:103300008C83A0E8EA2EA1E0FA2EE022F122E1145B
:10331000F10431F084EC8D838CEC8E8386EC03C059
:1033200083EA8D838E838F8383EA888789878A8760
:1033300087EA9AE06AE070E0AE014F5F5F4F0E945B
:10334000650AF3E0CF2ED12CC022D122C114D104C2
:1033500011F080E201C088ED898386EB9AE061E09C
:1033600070E0AE014F5F5F4F0E94650A05FF02C02B
:1033700081E001C080E00E94D017E114F104D9F08F
:1033800010FF08C082EB89838BE88A8386EB8B83EE
:103390008BE907C080EB898380E88A8384EB8B8389
:1033A00080E98C8382EA9AE064E070E0AE014F5FCE
:1033B0005F4F0E94650A02FF02C081E001C080E009
:1033C0000E94201904FF02C081E001C080E00E9439
:1033D000F518E0918202F0918302C801886097831A
:1033E00086830E945F0CE0918202F0918302128634
:1033F000AB2811F086E08287EF2819F082858A5F7A
:10340000828704711070012B19F08285805F82879A
:10341000CD2819F082858C5F828780E090E02A9623
:103420000FB6F894DEBF0FBECDBFCF91DF911F91D5
:103430000F91FF90EF90DF90CF90BF90AF900895E5
:1034400086EF9BE061ED70E040E054E028EC30E076
:103450000E94881208952F923F924F925F926F922E
:103460007F928F929F92AF92BF92CF92DF92EF9214
:10347000FF920F931F93DF93CF93CDB7DEB764977F
:103480000FB6F894DEBF0FBECDBF1092CB021092E4
:10349000CA028CEC92E062ED72E04AEB52E020E06E
:1034A00030E00AEC12E0F8EDEF2EF2E0FF2E0E9481
:1034B000CC159093DA028093D902009709F0DAC212
:1034C0008091D8028230E8F08CEC92E062ED72E0FC
:1034D0004AEB52E020E030E00AEC12E0E8EDEE2E9C
:1034E000E2E0FE2E0E94CC159C019093DA028093BC
:1034F000D9028091D802823008F4BBC2232B21F379
:10350000B8C26091BA027091BB028091BC029091E6
:10351000BD020E94123B20E030E040E850E30E94F0
:103520001E3C1B012C016093BA027093BB02809376
:10353000BC029093BD026091BE027091BF02809167
:10354000C0029091C1020E94123B20E030E040E8AE
:1035500050E30E941E3C69837A838B839C83609333
:10356000BE027093BF028093C0029093C10260912B
:10357000C2027091C3028091C4029091C5020E9460
:10358000123B20E030E040E850E30E941E3C5B012B
:103590006C016093C2027093C3028093C402909343
:1035A000C5026091C6027091C7028091C8029091D5
:1035B000C9020E94123B20E030E040E850E30E9444
:1035C0001E3C6D837E838F8398876093C6027093C1
:1035D000C7028093C8029093C902C601B501A60133
:1035E00095010E941E3C69877A878B879C87609330
:1035F000DD027093DE028093DF029093E0026D8122
:103600007E818F8198859B01AC010E941E3C6D8755
:103610007E878F87988B6093E1027093E20280939C
:10362000E3029093E402C201B101A20191010E9460
:103630001E3C698B7A8B8B8B9C8B6093E50270931D
:10364000E6028093E7029093E80269817A818B8198
:103650009C812D813E814F8158850E941E3C7B01BB
:103660008C01C201B101A60195010E941E3C9B0183
:10367000AC01C801B7010E9495393B014C01609330
:10368000E9027093EA028093EB029093EC0225EE3C
:1036900032EF4FEF5EE30E94133C1816BCF4C601F4
:1036A000B501A20191010E94203A9B01AC010E9448
:1036B000963960938E0270938F028093900290935C
:1036C00091028BED9FE0A9ECBFE322C0C401B301DE
:1036D00025EE32EF4FEF5EEB0E94733A88236CF5D4
:1036E000C601B501A20191010E94203A20E030E01C
:1036F00040E050EC0E941E3C60938E0270938F025B
:1037000080939002909391028BED9FE0A9ECBFEB28
:1037100080938A0290938B02A0938C02B0938D02C7
:1037200080E090E0A0E0B0E0809386029093870272
:10373000A0938802B093890294C069817A818B81B9
:103740009C81A20191010E941E3C7B018C01C6015B
:10375000B5012D813E814F8158850E941E3C9B0101
:10376000AC01C801B7010E9496399B01AC010E94CF
:1037700096397B018C016D857E858F859889298995
:103780003A894B895C890E94963920E030E040E01C
:1037900050EC0E941E3C20E030E040E85FE30E94D5
:1037A00096399B01AC01C801B7010E94203A609391
:1037B0008E0270938F028093900290939102C401C5
:1037C000B301A40193010E9496390E94FA396093D3
:1037D0008A0270938B0280938C0290938D02698190
:1037E0007A818B819C81A60195010E941E3C7B0100
:1037F0008C016D817E818F819885A20191010E944B
:103800001E3C9B01AC01C801B7010E9495399B0188
:10381000AC010E9496397B018C0169857A858B8584
:103820009C852D853E854F8558890E94963920E0DC
:1038300030E040E050EC0E941E3C20E030E040E8E8
:103840005FE30E9496399B01AC01C801B7010E9459
:10385000203A609386027093870280938802909347
:10386000890260918602709187028091880290910E
:10387000890221EE3EE245E652E40E941E3C905849
:1038800060938602709387028093880290938902E6
:1038900060918A0270918B0280918C0290918D02CE
:1038A00021EE3EE245E652E40E941E3C90586093B1
:1038B0008A0270938B0280938C0290938D026091A8
:1038C0008E0270918F02809190029091910221EE70
:1038D0003EE245E652E40E941E3C5B016C0120E0A2
:1038E00030E044E353E40E9496397B018C0120E0F0
:1038F00030E044E353E40E94133C181654F4C6012C
:10390000B50120E030E044E353E40E9495397B01A7
:103910008C01D801C701B05880938E0290938F021A
:10392000A0939002B09391026091D0027091D10265
:10393000882777FD8095982F0E94123B20E030E089
:1039400043E851E40E94773A6093920270939302A5
:1039500080939402909395026091CE027091CF0271
:10396000882777FD8095982F0E94123B20E030E059
:1039700043E851E40E94773A60939602709397026D
:1039800080939802909399026091CC027091CD023D
:10399000882777FD8095982F0E94123B20E030E029
:1039A00043E851E40E94773A60939A0270939B0235
:1039B00080939C0290939D026091D2027091D302F9
:1039C000882777FD8095982F0E94123B20E030E0F9
:1039D00040E858E30E941E3C60939E0270939F0251
:1039E0008093A0029093A1026091D4027091D502BD
:1039F000882777FD8095982F0E94123B20E030E0C9
:103A000040E858E30E941E3C6093A2027093A30218
:103A10008093A4029093A5026091D6027091D70280
:103A2000882777FD8095982F0E94123B20E030E098
:103A300040E858E30E941E3C2091B6023091B70244
:103A40004091B8025091B9020E9495396093A60244
:103A50007093A7028093A8029093A9028091DB0241
:103A60009091DC0201969093DC028093DB0280E06F
:103A700001C081E864960FB6F894DEBF0FBECDBFDB
:103A8000CF91DF911F910F91FF90EF90DF90CF903A
:103A9000BF90AF909F908F907F906F905F904F906E
:103AA0003F902F9008958091ED029091EE0262E395
:103AB00070E00E94143D8091DB029091DC02861739
:103AC000970710F481E008958FEE92E060E070E0D7
:103AD0000E94C4119093DA028093D9020097D9F51D
:103AE0006091EF027091F002882777FD8095982F02
:103AF0000E94123B6093AA027093AB028093AC02C7
:103B00009093AD026091F1027091F202882777FDE7
:103B10008095982F0E94123B6093AE027093AF0283
:103B20008093B0029093B1026091F3027091F4021D
:103B3000882777FD8095982F0E94123B6093B202F0
:103B40007093B3028093B4029093B5021092DC029A
:103B50001092DB0280E008950E945F0C0895EF92BE
:103B6000FF920F931F938B017A017093EE02609383
:103B7000ED021092DC021092DB020E94E1080E942A
:103B80002F0980E090E0A0E0B0E08093B60290932F
:103B9000B702A093B802B093B90280E090E00E940F
:103BA00040139093DA028093D90289E70E94E610CD
:103BB0009093DA028093D90280ED97E00E94FE0B89
:103BC0009093DA028093D90282E00E94A50B909331
:103BD000DA028093D90282E390E00E940F0B909367
:103BE000DA028093D90289ED92E00E94110A88E7F7
:103BF0000E94970D9093DA028093D90280E090E0C2
:103C00000E949D150E94BC150E94201A9093DA0212
:103C10008093D902C7010E9447189093DA028093DB
:103C2000D902C8010E9402189093DA028093D90247
:103C300081E00E94D90F9093DA028093D90280E745
:103C400091E00E944B199093DA028093D90280E0B0
:103C50001F910F91FF90EF900895FC0180E090E09C
:103C6000A0E0B0E080879187A287B38784839583A3
:103C7000A683B78380839183A283B383808F918F40
:103C8000A28FB38F848B958BA68BB78B848F958FE8
:103C9000A68FB78F84A395A3A6A3B7A380A391A350
:103CA000A2A3B3A384879587A687B787808B918BC0
:103CB000A28BB38B80E090E0089520E030E040E0FC
:103CC00050E0FC01248735874687578708952F9257
:103CD0003F924F925F926F927F928F929F92AF929C
:103CE000BF92CF92DF92EF92FF920F931F93CF93E9
:103CF000DF93EC013A014B0118012901CB01BA0114
:103D00002C813D814E815F810E941E3CA201910168
:103D10000E941E3C2C853D854E855F850E9496390C
:103D20005B016C016C877D878E879F87E88CF98C9F
:103D30000A8D1B8DA80197010E94133C181664F090
:103D400017FB109517F91095C601B501A801970149
:103D50000E94733A882324F4EC86FD860E871F8721
:103D600068A179A18AA19BA1A20191010E94773A41
:103D70009B01AC01C401B3010E949539688B798B1A
:103D80008A8B9B8BECA0FDA00EA11FA1A80197011F
:103D90000E94953921EB30E945EC5EE30E941E3C20
:103DA0009B01AC01C801B7010E9496395B016C010F
:103DB000688B798B8A8B9B8BC401B30128813981F5
:103DC0004A815B810E941E3C2C853D854E855F8526
:103DD0000E9496397B018C01C601B5012885398581
:103DE0004A855B850E941E3C9B01AC01C801B7015E
:103DF0000E9495396C8F7D8F8E8F9F8FEC88FD8808
:103E00000E891F89A80197010E94133C181624F4FB
:103E1000EC8EFD8E0E8F1F8F8C899D89AE89BF8998
:103E20007C018D0117FB109517F910956C8D7D8D18
:103E30008E8D9F8DA80197010E94733A882324F4E8
:103E4000EC8EFD8E0E8F1F8F68A279A28AA29BA294
:103E500088899989AA89BB898CA39DA3AEA3BFA396
:103E6000DF91CF911F910F91FF90EF90DF90CF9056
:103E7000BF90AF909F908F907F906F905F904F908A
:103E80003F902F9008958091F5029091F60253E0B3
:103E9000959587955A95E1F79093890080938800CE
:103EA0008091F7029091F80243E0959587954A95A5
:103EB000E1F78093B4008091F9029091FA0233E027
:103EC000959587953A95E1F7809300038091FB02E1
:103ED0009091FC0223E0959587952A95E1F78093D0
:103EE000FE028091000380958093FF028091FE0284
:103EF00080958093FD0208951F920F920FB60F9246
:103F000011248F939F9380910203882359F4809109
:103F1000FE0281115D9A88B59091FE02980F98BDBE
:103F200081E008C0813049F488B59091FE02980F75
:103F300098BD82E08093020313C0823041F45D9803
:103F400088B59091FD02980F98BD83E0F3CF833040
:103F500039F498B58091FD02890F88BD1092020353
:103F60009F918F910F900FBE0F901F9018951F92E9
:103F70000F920FB60F9211248F939F93809101039C
:103F8000882359F48091000381115E9A87B590913E
:103F90000003980F97BD81E008C0813049F487B5D0
:103FA00090910003980F97BD82E08093010313C0A6
:103FB000823041F45E9887B59091FF02980F97BDCB
:103FC00083E0F3CF833039F497B58091FF02890FF6
:103FD00087BD109201039F918F910F900FBE0F909C
:103FE0001F9018958091020161E00E944B368091EC
:103FF000030161E00E944B368091040161E00E9460
:104000004B368091050161E00E944B36E0E8F0E01C
:10401000808180688083E0EBF0E080818062808333
:1040200014BCEEE6F0E08081846080838081826051
:1040300080830895AC018091270390E0860F911D45
:1040400080970CF03DC0FA01762F30E0ACE80DC04F
:10405000208198E0822F8327369580FD3A27915062
:1040600011F02695F7CF31967150772389F7FA0131
:10407000E60FF11D30836F5FDA0120E030E21EC0F1
:1040800080912603803210F010922603909126032F
:10409000E92FF0E0E85DFC4F8C9180839F5F909367
:1040A0002603809127038F5F809327038091270346
:1040B000813210F0309327032F5F1196261700F3FB
:1040C0000895CF93DF93EC0180910503843008F4C9
:1040D00049C0DE0120E0809105038823E9F090913A
:1040E000040380910503981738F480910503E0914B
:1040F0000403F0E0B09605C0E0910403809105034D
:10410000F0E0E81BF109EA5FFC4F80818C9380911D
:1041100005038150809305032F5F11962430D9F653
:10412000FE0130E043E05CE80CC0208198E0822F83
:104130008327369580FD3527915011F02695F7CFCE
:104140003196415090F78B81381719F420E030E018
:104150000BC0809103038F5F8093030310920403CD
:10416000109205032FEF3FEFC901DF91CF91089522
:104170001F920F920FB60F9211242F938F939F933C
:10418000EF93FF932EB5809127038823F1F0909150
:10419000260380912703981738F480912703E09134
:1041A0002603F0E0B09605C0E09126038091270336
:1041B000F0E0E81BF109E85DFC4F80818EBD809145
:1041C000270381508093270301C01EBC8091040304
:1041D000803210F01092040380910403E82FF0E085
:1041E000EA5FFC4F20838F5F809304038091050377
:1041F0008F5F8093050380910503813218F080E280
:1042000080930503FF91EF919F918F912F910F90D4
:104210000FBE0F901F901895809322056093230581
:104220007093240582E295E063E00E941A200895CD
:1042300060910C0570910D0580910E0590910F0510
:104240000E94DF3A9B01AC0182E1B9010E940C217E
:104250006091E6047091E7048091E8049091E9048C
:104260000E94DF3A9B01AC0183E1B9010E940C215D
:104270006091EA047091EB048091EC049091ED045C
:104280000E94DF3A9B01AC0184E1B9010E940C213C
:104290006091610470916204809163049091640460
:1042A0000E94DF3A9B01AC0185E1B9010E940C211B
:1042B0000895BF92CF92DF92EF92FF920F931F93D8
:1042C000CF93DF93BB2438C0CB2CDD24F601EE0F57
:1042D000FF1FEE0FFF1FE256FD4FE080F1800281CD
:1042E0001381E601CC0FDD1FCC0FDD1FC15CDA4F5F
:1042F000C801B701288139814A815B810E94733AE4
:10430000882324F4E882F9820A831B83E601CC0F18
:10431000DD1FCC0FDD1FC55BDA4FC801B701288157
:1043200039814A815B810E94133C181624F4E8828B
:10433000F9820A831B83B39482E08B1528F6B0922E
:104340001D058091190564E10E94083D9923F1F54E
:1043500010921D050F2EF0E0CF2EF0E0DF2EF0E0E2
:10436000EF2EF0E0FF2EF02D2CC01E2F145FF0E09A
:10437000EE0FFF1FEE0FFF1FE55BFA4F60817181AB
:104380008281938120E030E04AE754E40E941E3CA1
:104390000E94DF3A9B01AC01812FB9010E940C21E0
:1043A00080911D05E82FF0E0EE0FFF1FEE0FFF1FBD
:1043B000E55BFA4FC082D182E282F3828F5F809305
:1043C0001D05E0911D05E33080F23FC09A30E9F50C
:1043D00010921D050F2EF0E0CF2EF0E0DF2EF0E062
:1043E000EF2EF0E0FF2EF02D2CC01E2F115FF0E01D
:1043F000EE0FFF1FEE0FFF1FE15CFA4F608171812E
:104400008281938120E030E04AE754E40E941E3C20
:104410000E94DF3A9B01AC01812FB9010E940C215F
:1044200080911D05E82FF0E0EE0FFF1FEE0FFF1F3C
:10443000E15CFA4FC082D182E282F3828F5F809387
:104440001D05E0911D05E33080F2DF91CF911F91B2
:104450000F91FF90EF90DF90CF90BF9008951F9342
:1044600010921D0520C01E2F1F5FF0E0EE0FFF1FF2
:10447000EE0FFF1FEE56FD4F6081718182819381A7
:1044800020E030E048EC52E40E941E3C0E94DF3AFB
:104490009B01AC01812FB9010E940C2180911D0567
:1044A0008F5F80931D05E0911D05E330E0F21F91C1
:1044B00008951F9310921D0520C01E2F1C5FF0E071
:1044C000EE0FFF1FEE0FFF1FEA57FD4F6081718156
:1044D0008281938120E030E048EC52E40E941E3C4F
:1044E0000E94DF3A9B01AC01812FB9010E940C218F
:1044F00080911D058F5F80931D05E0911D05E330C0
:10450000E0F260911E0570911F0580912005909149
:10451000210520E030E048EC52E40E941E3C0E945D
:10452000DF3A9B01AC0187E0B9010E940C211F9189
:10453000089510921D051BC0E0910601F0E0892F3F
:10454000880F02C0F595E7958A95E2F7E370F07061
:10455000EE0FFF1FEB50FD4F60817181892F885F47
:104560000E940C2180911D058F5F80931D05909105
:104570001D05943008F3089580911C058330C9F01F
:10458000843028F4813041F08230B9F508C084309D
:10459000E1F0853091F523C00E9459210895809162
:1045A000190564E10E94083D992351F40E942F22CD
:1045B00008958091190564E10E94083D9923B1F0A6
:1045C0009A30D9F40E94992208958091190564E1E6
:1045D0000E94083D992389F40E9418210895809132
:1045E000190564E10E94083D992319F40E9459229B
:1045F00008959A3011F40E9418210895FC018181D8
:10460000882321F470E060E090E032C090818181E5
:10461000A381B481981748F431812081828190E090
:10462000820F911D831B910905C08081218190E03B
:10463000821B9109880F991F880F991FA80FB91F16
:104640008D919D910D90BC91A02D80931206909319
:104650001306A0931406B0931506818181508183BF
:1046600070911206609113069091140680911506C0
:10467000272F362F492F582FB901CA0108952091AD
:104680004B0330914C0380E009C0E82FF0E0EE0FBF
:10469000FF1FEB50FD4F318320838F5F8430A8F3E1
:1046A00080931D050E94431F0895DF92EF92FF92B1
:1046B0000F931F9390911005992309F416C191301F
:1046C00041F582E08093100590930B058091E604FC
:1046D0009091E704A091E804B091E90480930C055F
:1046E00090930D05A0930E05B0930F0510922D0524
:1046F00010922C0510922B0510922A051092290574
:1047000010922805109227051092260510921B057D
:10471000ECC00E94A93520911105309112054091FD
:10472000130550911405621B730B840B950B20919C
:104730000B0130910C0140910D0150910E01621757
:1047400073078407950738F08CEF80931A050E9451
:104750003F238FEFCBC00E94A935209111053091E6
:1047600012054091130550911405621B730B840BC5
:10477000950B605D77408040904008F4B6C0E090B3
:10478000EA04F090EB040091EC041091ED04C801F0
:10479000B70120E030E040E050E00E94133C1816E2
:1047A0005CF4C801B70120E030E040EF51E40E9422
:1047B000733A87FD0BC01BC0C801B70120E030E091
:1047C00040EF51EC0E94133C18168CF420912C05FC
:1047D00030912D0580914D0390914E032817390794
:1047E00034F4809139058F5F8093390502C01092AF
:1047F000390580913905883C50F00E943F23109282
:104800000B05109210051092390581E06FC0E09001
:10481000E604F090E7040091E8041091E904C8016F
:10482000B70120E030E04AEF53E40E94133C181631
:104830001CF072E3D72E0FC0C801B70120E030E8AA
:104840004BEB54E40E94133C18161CF064E6D62E81
:1048500002C056E9D52E6D2D772767FD7095872FFD
:10486000972F0E94123B209107013091080140913F
:10487000090150910A010E941E3C9B01AC0160910C
:104880000C0570910D0580910E0590910F050E9409
:1048900095390E94DF3A7B018C01D1946D2D7727E9
:1048A00067FD7095872F972F0E94123B6093F60447
:1048B0007093F7048093F8049093F9046E2D772792
:1048C00067FD7095872F972F0E94123B60930C0510
:1048D00070930D0580930E0590930F0580910B0545
:1048E000882319F082E080930B0580E01F910F91DF
:1048F000FF90EF90DF900895AF92BF92CF92DF923A
:10490000EF92FF920F931F9380911B05882309F06C
:1049100019C1E0908A02F0908B0200918C021091F4
:104920008D02C801B70120E030E040E050E00E9475
:10493000133C18165CF4C801B70120E030E040E7F2
:1049400052E40E94133C87FF32C00AC0C801B7017D
:1049500020E030E040E752EC0E94733A18163CF534
:10496000E0908E02F0908F020091900210919102DF
:10497000C801B70120E030E040E050E00E94133C65
:1049800018165CF4C801B70120E030E040E752E4BB
:104990000E94133C18165CF010C0C801B70120E05B
:1049A00030E040E752EC0E94733A882334F480915F
:1049B0003E058F5F80933E0502C010923E058091B8
:1049C0003E05813089F48091E6049091E704A0913E
:1049D000E804B091E90480933A0590933B05A093D5
:1049E0003C05B0933D0533C06091E6047091E70447
:1049F0008091E8049091E90420913A0530913B05BB
:104A000040913C0550913D050E9495397B018C01F8
:104A100020E030E040E050E00E94133C18165CF4C7
:104A2000C801B70120E030E048E452E40E94133CA2
:104A300018165CF00CC0C801B70120E030E048E473
:104A400052EC0E94733A882314F410923E05A09011
:104A50001505B0901605C0901705D0901805C60131
:104A6000B50120E030E040E050E00E94133C181611
:104A70000CF05DC0E0909E02F0909F020091A002B9
:104A80001091A102C801B70120E030E040E050E001
:104A90000E94133C181624F017FB109517F9109577
:104AA000C801B701A60195010E94133C1816E4F154
:104AB000E090A202F090A3020091A4021091A5023E
:104AC000C801B70120E030E040E050E00E94133C14
:104AD000181624F017FB109517F91095C801B701A7
:104AE000A60195010E94133C1816F4F0E090A6026E
:104AF000F090A7020091A8021091A902C801B70185
:104B000020E030E040E050E00E94133C181624F012
:104B100017FB109517F91095C801B701A60195016B
:104B20000E94133C18161CF488EC80933E0580917B
:104B30003E05883C38F08BEF80931A050E943F2396
:104B400081E001C080E01F910F91FF90EF90DF9016
:104B5000CF90BF90AF90089580911005882309F100
:104B60000E94A9352091110530911205409113053D
:104B700050911405621B730B840B950B20910B0154
:104B800030910C0140910D0150910E016217730795
:104B90008407950798F08CEF80931A050E943F23B5
:104BA00008950E94A93560931105709312058093B2
:104BB00013059093140581E08093100508956F927A
:104BC0007F928F929F92AF92BF92CF92DF92EF929D
:104BD000FF920F931F9380913205909133050196B8
:104BE0009093330580933205895E9D4F20F08FEFBF
:104BF00080931A05A8C00E942B1A992787FD9095CB
:104C00009093490380934803892B09F09BC010912E
:104C10003405183CF8F41431D0F0609135057091EA
:104C2000360580913705909138052091A602309184
:104C3000A7024091A8025091A9020E949639609360
:104C400035057093360580933705909338051F5FBF
:104C500010933405609092027090930280909402B9
:104C600090909502C401B30120E030E040E85FEB92
:104C70000E94133C18160CF065C0A0909602B090EC
:104C80009702C0909802D0909902C601B50120E029
:104C900030E040E85FEB0E94133C18160CF052C065
:104CA000E0909A02F0909B0200919C0210919D026C
:104CB000C801B70120E030E040E85FEB0E94133C00
:104CC00018160CF03FC0C401B30120E030E040E80A
:104CD0005FE30E94733A8823ACF5C601B50120E07A
:104CE00030E040E85FE30E94733A88235CF5C80136
:104CF000B70120E030E040E85FE30E94733A882388
:104D00000CF56091340570E064517040882777FDA0
:104D10008095982F0E94123B9B01AC016091350554
:104D20007091360580913705909138050E94773A49
:104D30006093B6027093B7028093B8029093B90261
:104D400080E001C08FEF1F910F91FF90EF90DF90F7
:104D5000CF90BF90AF909F908F907F906F9008956D
:104D60002F923F924F925F926F927F928F929F927B
:104D7000AF92BF92CF92DF92EF92FF920F931F9369
:104D8000DF93CF93CDB7DEB72D970FB6F894DEBF84
:104D90000FBECDBF0E94531D992787FD909590931C
:104DA0004903809348030E942B1A992787FD909509
:104DB00090934903809348038130910509F402C61A
:104DC00097FF06C00E943F238DEF80931A05FAC516
:104DD000809119058F5F80931905883C11F410921A
:104DE00019050E94A93520912E0530912F0540917B
:104DF000300550913105621B730B840B950B0E949B
:104E0000103B20E030E04AE754E40E94773A609398
:104E10000701709308018093090190930A010E9491
:104E2000A93560932E0570932F05809330059093DC
:104E300031056091070170910801809109019091FD
:104E40000A012AE037ED43E25CE30E94133C1816A6
:104E500034F48EEF80931A050E943F23B3C50E945D
:104E60007C24882309F0AEC50E945523882309F0CD
:104E7000A9C580910A05882309F4BCC2815080939A
:104E80000A05E090A602F090A7020091A8021091F6
:104E9000A902C801B70120E030E040E85FEB0E94C2
:104EA000733A88232CF430E020E885E764EC1AC0DC
:104EB000C801B70120E030E040E85FE30E94133C06
:104EC00018162CF430E020E885E764E40BC0C80134
:104ED000B70120E030E845E754E40E941E3C362F3D
:104EE000272F692F3A872B878C876D87832F922FE7
:104EF000AC85B62F8093C6049093C704A093C804D2
:104F0000B093C904A0900701B0900801C0900901B6
:104F1000D0900A016091DE047091DF048091E0047A
:104F20009091E10420910605309107054091080514
:104F3000509109050E941E3CA60195010E941E3C4D
:104F40009B01AC016091CE047091CF048091D0049C
:104F50009091D1040E9496397B018C016093CE041C
:104F60007093CF048093D0049093D1046091DE04B9
:104F70007091DF048091E0049091E104209102059A
:104F80003091030540910405509105050E941E3C97
:104F9000A60195010E941E3C9B01AC016091EA04B0
:104FA0007091EB048091EC049091ED040E9496398D
:104FB0001B012C016091DE047091DF048091E004FC
:104FC0009091E1042091FE043091FF04409100058E
:104FD000509101050E941E3CA60195010E941E3CB5
:104FE0009B01AC016091D2047091D3048091D404F0
:104FF0009091D5040E9496393B014C016093D204F4
:105000007093D3048093D4049093D5046A857B85F0
:105010008C859D85A80197010E949639A60195016E
:105020000E941E3C7B018C016093D6047093D704D0
:105030008093D8049093D90420E030E040E05FE30F
:105040000E941E3CA20191010E949639A601950181
:105050000E941E3C2091E2043091E3044091E4045C
:105060005091E5040E9496395B016C016093E20463
:105070007093E3048093E4049093E504A401930106
:105080000E9496396093E6047093E7048093E804E5
:105090009093E904C201B101A80197010E949639D9
:1050A0006093EA047093EB048093EC049093ED0416
:1050B0009091BD048091BF04981711F41092BD0423
:1050C0002091BD04822F90E0880F991F880F991FAF
:1050D000E091C004F091C104E80FF91FA082B182F1
:1050E000C282D3822F5F2093BD049091BE04809131
:1050F000BF04981728F48091BE048F5F8093BE048C
:1051000060910C0570910D0580910E0590910F0531
:105110002091E6043091E7044091E8045091E904BD
:105120000E9495395B016C016093EE047093EF046B
:105130008093F0049093F104E0906D04F0906E047D
:1051400000916F0410917004C801B701A801970184
:105150000E949639A80197010E941E3C9B01AC0158
:1051600060E070E08AE793E40E94773A7B018C016B
:105170006093C2047093C3048093C4049093C504E5
:10518000A80197010E9496399B01AC01C601B501A7
:105190000E94133C18167CF4C601B501A8019701C2
:1051A0000E94953920E030E04AEF53E40E941E3C13
:1051B0000E94853C20C0C801B70120E030E040E0FB
:1051C00050EC0E941E3C9B01AC01C601B5010E943F
:1051D000733A8823CCF4C601B5019058A801970111
:1051E0000E94953920E030E04AEF53E40E941E3CD3
:1051F0000E94853C90586093F2047093F30480936E
:10520000F4049093F5041EC0009107011091080169
:105210002091090130910A018DE694E0B601A501C3
:105220000E94671E8091890490918A04A0918B044A
:10523000B0918C048093F2049093F304A093F4044F
:10524000B093F50480910B05823081F48091F604CF
:105250009091F704A091F804B091F9048093F204BE
:105260009093F304A093F404B093F504E090DA046F
:10527000F090DB040091DC041091DD046091F204F5
:105280007091F3048091F4049091F5042091EA0464
:105290003091EB044091EC045091ED040E9495395B
:1052A000A80197010E94953924EE30EA44EE5DE3AF
:1052B0000E941E3C9B01AC01C801B7010E949639B7
:1052C000AB01BC01CA01DB018093DA049093DB04DB
:1052D000A093DC04B093DD04009107011091080154
:1052E0002091090130910A0185E994E00E94671E2E
:1052F000E090CA04F090CB040091CC041091CD044E
:105300006091B1047091B2048091B3049091B4049F
:105310002091C6043091C7044091C8045091C9043B
:105320000E949539A80197010E9495392BEA34E231
:1053300042E75DE30E941E3C9B01AC01C801B7013E
:105340000E949639AB01BC01CA01DB018093CA04FB
:105350009093CB04A093CC04B093CD0400910701AB
:10536000109108012091090130910A0185E494E02F
:105370000E94671E80910B058823D9F060914F032E
:1053800070915003882777FD8095982F0E94123BDB
:10539000209161043091620440916304509164044F
:1053A0000E9496390E94DF3A70932D0560932C0578
:1053B00027C08DE694E00E945D1E85E994E00E947E
:1053C0005D1E85E494E00E945D1E80E090E0A0E018
:1053D000B0E08093CA049093CB04A093CC04B09324
:1053E000CD048093DA049093DB04A093DC04B093A3
:1053F000DD0406C010922D0510922C0510920B05AD
:10540000E0908E02F0908F02009190021091910234
:10541000C801B70120E030E040E050E00E94133CBA
:1054200018165CF4C801B70120E030E048E452E40B
:105430000E94133C18165CF01AC0C801B70120E0A6
:1054400030E048E452EC0E94733A882384F480915F
:10545000860290918702A0918802B0918902809380
:105460001E0590931F05A0932005B0932105E090A1
:105470008A02F0908B0200918C0210918D02C8017B
:10548000B70120E030E040E050E00E94133C1816E5
:105490005CF4C801B70120E030E048E452E40E9427
:1054A000133C18165CF01AC0C801B70120E030E0C8
:1054B00048E452EC0E94733A882384F48091860277
:1054C00090918702A0918802B091890280931E0575
:1054D00090931F05A0932005B0932105E0901E0531
:1054E000F0901F050091200510912105C801B7011A
:1054F0002091860230918702409188025091890262
:105500000E94953920E030E044E353EC0E94733A66
:1055100088235CF4D801C701B05880931E0590938E
:105520001F05A0932005B0932105E0901E05F09083
:105530001F050091200510912105C801B701209198
:1055400086023091870240918802509189020E9420
:10555000953920E030E044E353E40E94133C1816F0
:105560005CF4D801C701B05880931E0590931F05C5
:10557000A0932005B09321052091260530912705A1
:10558000B90137FF04C066277727621B730B6630AB
:105590007105D4F1C9010E94283D8BEF9FEFAB014B
:1055A000489FB001499F700D589F700D1124620FE4
:1055B000731F882777FD8095982F0E94123B9B01CF
:1055C000AC01609141047091420480914304909138
:1055D00044040E941E3C6093E5037093E6038093AD
:1055E000E7039093E8038091860290918702A0914F
:1055F0008802B091890280931E0590931F05A093A5
:105600002005B093210520C060911E0570911F05F3
:10561000809120059091210520918602309187028A
:1056200040918802509189020E949539AB01BC01DA
:1056300000910701109108012091090130910A01A0
:1056400089EC93E00E94671E80911B05882309F076
:1056500042C081E080931D05A8E2CA2ED12C36C03D
:1056600010E00C9D70010D9DF00C1C9DF00C1124A0
:1056700089EC93E0E80EF91E000F111FF801EA5DB6
:10568000FA4F60817181882777FD8095982F0E945D
:10569000123B000F111F0A571D4FD8012D913D914C
:1056A0004D915C910E949539AB01BC0100910701BD
:1056B000109108012091090130910A01C7010E944F
:1056C000671E80911D058F5F80931D0500911D054C
:1056D000033030F240C08130F1F580931D0558E26F
:1056E000C52ED12C34C0F0E0EC9D7001ED9DF00C86
:1056F000FC9DF00C112449EC53E0E40EF51EEE0F76
:10570000FF1FEA5DFA4F60817181882777FD8095E0
:10571000982F0E94123B2091410430914204409105
:105720004304509144040E941E3CAB01BC01009113
:105730000701109108012091090130910A01C70168
:105740000E94671E80911D058F5F80931D05E0916B
:105750001D05E33040F210921D0538E2C32ED12C16
:1057600034C0F0E0EC9DD001ED9DB00DFC9DB00D7E
:10577000112421E5E22E23E0F22EEA0EFB1EA753B0
:10578000BC4FEE0FFF1FEE0FFF1FEE56FD4F5C9656
:105790006D917D918D919C915F97208131814281A6
:1057A00053810E949539AB01BC0100910701109112
:1057B00008012091090130910A01C7010E94671E6A
:1057C00080911D058F5F80931D05E0911D05E330DD
:1057D00040F2509106015987E52EFF2460912C0577
:1057E00070912D05882777FD8095982F0E94123B98
:1057F0006D837E838F8398878091BD039091BE03D4
:10580000A091BF03B091C00389839A83AB83BC830B
:105810006D817E818F81988529813A814B815C8160
:105820000E9496391B012C01A0909503B09096031D
:10583000C0909703D090980360906D0370906E03B2
:1058400080906F0390907003870103701070000FB9
:10585000111F0B501D4FC201B101A60195010E94FD
:105860009539A40193010E9496390E94DF3AD8012C
:105870006D937C93F694E7948701067010700B503B
:105880001D4FC201B101A60195010E949639A401E4
:1058900093010E9495390E94DF3AF8017183608379
:1058A0006D817E818F81988529813A814B815C81D0
:1058B0000E9495391B012C01F694E794F694E79425
:1058C000F6E0EF22FF2445EF52E0E40EF51EA601BC
:1058D00095010E949539A40193010E9495390E9477
:1058E000DF3AD7016D937C93B985B295B695B6959D
:1058F000B3700B2F10E0000F111F0B501D4FC20192
:10590000B101A60195010E949639A40193010E945C
:1059100096390E94DF3AF801718360830E94BC22AD
:1059200020914D0330914E0380912C0590912D05CF
:105930008217930784F50E943F23809186029091FD
:105940008702A0918802B091890280931E059093EE
:105950001F05A0932005B093210510921D0518E2A4
:1059600015C0819FC00111248F5A9C4F0E945D1E5B
:1059700080911D05819FC001112487539C4F0E9477
:105980005D1E80911D058F5F80931D0580911D0513
:10599000833038F317C040E00FC0E42FF0E0EE0F83
:1059A000FF1FEB50FD4F80819181821793070CF40C
:1059B000C901918380834F5F443078F340931D0584
:1059C0000E94431F2D960FB6F894DEBF0FBECDBFC9
:1059D000CF91DF911F910F91FF90EF90DF90CF90CB
:1059E000BF90AF909F908F907F906F905F904F90FF
:1059F0003F902F90089580E991E060E00E94CC06EE
:105A000080E00E9490398CE061E00E944B368CB5BA
:105A100080648CBD8CB580688CBD08951F931092F6
:105A20001D0518E215C0819FC00111248F5A9C4F9B
:105A30000E942D1E80911D05819FC0011124875356
:105A40009C4F0E942D1E80911D058F5F80931D0528
:105A500080911D05833038F385E494E00E942D1E6B
:105A600085E994E00E942D1E8DE694E00E942D1E93
:105A70001092BE048091BE048093BD048FE0809399
:105A8000BF048CE390E00E948A368093C004909318
:105A9000C10480E090E0A0ECB0E48093FA0490931D
:105AA000FB04A093FC04B093FD0480E090E0A0E030
:105AB000BFE38093FE049093FF04A0930005B0938E
:105AC000010580E595E5A5E5BFE380930205909388
:105AD0000305A0930405B09305058EED9EEAA7E9A2
