:100000000C9493060C94BB060C94BB060C94BB0694
:100010000C94BB060C94BB060C94BB060C94BB065C
:100020000C94BB060C94BB060C94BB060C948E3847
:100030000C94BB060C94BB060C94BB060C94BB063C
:100040000C942A330C9494220C94DD350C942B36AA
:100050000C94BB060C94BB060C94BB060C94BB061C
:100060000C94BB060C94BB06036EDB363D9A999943
:10007000993DABAAAA2A3E000000803F084AD73B20
:100080003BCE016E84BCBFFDC12F3D6C74319ABD67
:1000900056833DDA3D00C77F11BED9E4BB4C3E918B
:1000A0006BAAAABE000000803F072C7AA5BA6CC5D7
:1000B00090DA3B9365FC8BBC53F810FD3C56928361
:1000C0004DBD879D3AB63DCBC9BF5BBE73DA0FC944
:1000D0003F00007000000000240000000200030048
:1000E0000000650054FFEF0000FA80000B12820050
:1000F00001030C30C30E8C8CE914D5400213710F30
:100100008E3883F8833000F883258EF8833000F82A
:1001100083FFFFFFFF0FFEA9D6240004001A827997
:10012000A10000003CFFFF00000010000038836FBA
:10013000A2003E03304000000002CAE3093E8000F6
:1001400000200000000000000040000000600000EF
:1001500000000C0000000C186E000006920A16C089
:10016000DFFFFF0256FD8CD377FFE1C496E0C5BEEA
:10017000AA00000000FFFF0B2B0000165700000331
:10018000594000000000001DFA00026C1D00000034
:10019000003FFFDFEB003EB3B6000D227800002FDA
:1001A0003C00000000001942B5000039A20000B375
:1001B00065D90E9FC91DCF4C34300000005000009F
:1001C000003BB67AE80064000000C80000000000B0
:1001D00000100000001000FA921000225E000D22B4
:1001E0009F0001000000320000FF46000063D400C1
:1001F000001000000004D6000004CC000004CC0075
:10020000000000107200000040000000000000002C
:100210000000060002000500070000000000640066
:100220000000000000000000050005006400200040
:10023000000000000000000000000040000000037B
:100240000000000032F8980000FF650000830F00F6
:1002500000FF9BFC00000000000000000000000008
:10026000000000000000000000000000000000008E
:10027000000000000000000000000000000000106E
:100280000040000000000000060000B26A0002000A
:10029000000001FB830068000000D9FC007CF1FF36
:1002A000830000000000650000006403E8006400B3
:1002B00028000000250000000016A000000000102B
:1002C0000000001000002F0000000001F4000010EA
:1002D0000000280000FFFF4581FFFFFA72000000C8
:1002E0000000000000004400050005BAC600477881
:1002F000A200000001000000000000060000000055
:10030000140000254D002F706D000005AE000C029A
:10031000D00000000000000000000000000000000D
:1003200000001B00000000000000000000000000B2
:100330000000640000000800000000000000000051
:1003400000000000000000000000000000000000AD
:10035000000000000000000000000000000000009D
:10036000000000000000000000000000000000008D
:10037000000000000000000000000000000000007D
:10038000000000000000000000000000000000006D
:1003900000001B00000000000000000000000E0034
:1003A0000E00000AC70004000000000032FFFFFF3B
:1003B0009C00000B2B000000020000000100000068
:1003C00064FFE500000000000000000000000000E5
:1003D000000000000100000000000100000000001B
:1003E0000000018000000180000001800000242640
:1003F000D30000000000000000000600100096007E
:100400003C000000000000000000000000000000B0
:10041000000C0A4E68CDCF770950166759C619CE21
:10042000820000000000000000000000000000004A
:1004300000000000000000000017D7840003000047
:10044000000000000000000000C7938F9D1E1B1CD1
:100450001900000000000000000000000000000083
:1004600000000000000000000002031885000040AA
:100470000000000003000000030000000000000076
:10048000004000000000000000000000000000002C
:10049000000000000000000000000000000000005C
:1004A000000000000000000000000000000000004C
:1004B0000000000000677DDF7E72902E554CF6E64E
:1004C00088000000000000000000000000000000A4
:1004D00000D8DCB4B8B0D8B9ABF3F8FAB3B7BB8E78
:1004E0009EAEF132F51BF1B4B8B08097F1A9DFDF11
:1004F000DFAADFDFDFF2AAC5CDC7A90CC92C97F1AF
:10050000A989264666B28999A92D557DB0B08AA8D9
:1005100096365676F1BAA3B4B280C0B8A89711B295
:100520008398BAA3F0240844106418B2B9B498832D
:10053000F1A329557DBAB5B1A38393F0002850F5F6
:10054000B2B6AA839328547CF1B9A3829361BAA26C
:10055000DADEDFDB819AB9AEF5606870F1DABAA253
:10056000DFD9BAA2FAB9A38292DB31BAA2D9BAA270
:10057000F8DF85A4D0C1BBAD83C2C5C7B8A2DFDF99
:10058000DFBAA0DFDFDFD8D8F1B8AAB38DB4980DF9
:10059000355DB2B6BAAF8C96198F9FA70E161EB4F2
:1005A0009AB8AA872C547CBAA4B08AB691325676EF
:1005B000B28494A4C808CDD8B8B4B0F19982A82D5B
:1005C000557D98A80E161EA22C547C92A4F02C5097
:1005D00078F184A898C4CDFCD80DDBA8FC2DF3D904
:1005E000BAA6F8DABAA6DED8BAB2B68696A6D0F31C
:1005F000C841DAA6C8F8D8B0B4B882A892F52C548D
:100600008898F135D9F418D8F1A2D0F8F9A884D98E
:10061000C7DFF8F883C5DADF69DF83C1D8F40114D6
:10062000F1A8824EA884F311D182F5D99228978837
:10063000F109F41C1CD884A8F3C0F9D1D99782F130
:1006400029F40DD8F3F9F9D1D982F4C203D8DEDF49
:100650001AD8F1A2FAF9A88498D9C7DFF8F8F88374
:10066000C7DADF69DFF883C3D8F40114F198A882F0
:100670002EA884F311D182F5D992509788F109F40C
:100680001CD884A8F3C0F8F9D1D99782F149F40DA8
:10069000D8F3F9F9D1D982F4C403D8DEDFD8F1ADAB
:1006A0008898CCA809F9D98292A8F57CF1883ACF2C
:1006B000944A6E98DB6931DAADF2DEF9D88795A8F5
:1006C000F221D1DAA5F9F417D9F1AE8ED0C0C3AEBC
:1006D00082C684C3A88595C8A588F2C0F1F4010E2E
:1006E000F18E9EA8C63E56F554F18872F40115F1BC
:1006F0009845856EF58E9E0488F142985A8E9E0626
:100700008869F4011CF1981E1108D0F504F11E97B8
:100710000202983625DBF9D985A5F3C1DA85A5F360
:10072000DFD88595A8F309DAA5FAD88292A8F578DA
:10073000F1881A849F26889821DAF41DF3D8879FC0
:1007400039D1AFD9DFDFFBF9F40CF3D8FAD0F8DAFE
:10075000F9F9D0DFD9F9D8F40BD8F3879F39D1AFA5
:10076000D9DFDFF41DF3D8FAFCA869F9F9AFD0DAC4
:10077000DEFAD9F88F9FA8F1CCF398DB45D9AFDF2B
:10078000D0F8D8F18F9FA8CAF38809DAAF8FCBF8D9
:10079000D8F2AD978D0CD9A5DFF9BAA6F3FAF41209
:1007A000F2D8950DD1D9BAA6F3FADAA5F2C1BAA654
:1007B000F3DFD8F1BAB2B68696A6D0CAF349DAA664
:1007C000CBF8D8B0B4B8D8AD84F2C0DFF18FCBC3CA
:1007D000A8B2B68696C8C1CBC3F3B0B48898A82196
:1007E000DB718D9D71859521D9ADF2FAD88597A8D9
:1007F00028D9F408D8F28D29DAF405D9F285A4C2F3
:10080000F2D8A88D9401D1D9F411F2D88721D8F467
:100810000AD8F28498A8C801D1D9F411D8F3A4C891
:10082000BBAFD0F2DEF8F8F8F8F8F8F8F8D8F1B87D
:10083000F6B5B9B08A95A3DE3CA3D9F8D85CA3D9A4
:10084000F8D87CA3D9F8D8F8F9D1A5D9DFDAFAD845
:10085000B18530F7D9DED8F830ADDADED8F2B48C15
:1008600099A32D557DA083DFDFDFB591A0F629D9AF
:10087000FBD8A0FC29D9FAD8A0D051D9F8D8FC517E
:10088000D9F9D879D9FBD8A0D0FC79D9FAD8A1F96F
:10089000F9F9F9F9A0DADFDFDFD8A1F8F8F8F8F80C
:1008A000ACDEF8ADDE8393AC2C547CF1A8DFDFDF47
:1008B000F69D2CDAA0DFD9FADB2DF8D8A850DAA003
:1008C000D0DED9D0F8F8F8DB55F8D8A878DAA0D07F
:1008D000DFD9D0FAF8F8F8F8DB7DF8D89CA88CF5C9
:1008E00030DB38D9D0DEDFA0D0DEDFD8A848DB5837
:1008F000D9DFD0DEA0DFD0DED8A868DB70D9DFDF9B
:10090000A0DFDFD8F1A888902C547C98A8D05C3860
:10091000D1DAF2AE8CDFF9D8B087A8C1C1B188A80E
:10092000C6F9F9DA36D8A8F9DA36D8A8F9DA36D815
:10093000A8F9DA36D8A8F9DA36D8F78D9DADF818C7
:10094000DAF2AEDFD8F7ADFA30D9A4DEF9D8F2AEDC
:10095000DEFAF983A7D9C3C5C7F1889BA77AADF79B
:10096000DEDFA4F8849408A797F300AEF29819A4E8
:1009700088C6A39488F632DFF28393DB09D9F2AA02
:10098000DFD8D8AEF8F9D1DAF3A4DEA7F1889B7AE4
:10099000D8F38494AE19F9DAAAF1DFD8A881C0C3DC
:1009A000C5C7A39283F628ADDED9F8D8A350ADD938
:1009B000F8D8A378ADD9F8D8F8F9D1A1DADEC3C553
:1009C000C7D8A18194F818F2B089ACC3C5C7F1D8D3
:1009D000B8B4B09786A8319B069907AB9728889B37
:1009E000F00C201440B0B4B8F0A88A9A285078B718
:1009F0009BA8295179247059446938644831F1BB66
:100A0000AB88002C547CF0B38BB8A804285078F144
:100A1000B088B49726A85998BBABB38B022646661C
:100A2000B0B8F08A9CA82951798B2951798A247011
:100A3000598B2058718A4469388B3940688A6448D8
:100A4000318B30496088F1AC002C547CF08CA804C8
:100A5000285078F1889726A85998AC8C02264666CB
:100A6000F0899CA829517924705944693864483127
:100A7000A98809205970AB11384069A8193148601C
:100A80008CA83C415C207C00F187981986A86E7682
:100A90007EA999882D557DD8B1B5B9A3DFDFDFAE2A
:100AA000D0DFAAD0DEF2ABF8F9D9B087C4AAF1DF63
:100AB000DFBBAFDFDFB9D8B1F1A3978E60DFB084C1
:100AC000F2C8F8F9D9DED89385F14AB183A308B505
:100AD000839A0810B79F10D8F1B0BAAEB08AC2B2EC
:100AE000B68E9EF1FBD9F41DD8F9D90CF1D8F8F8DF
:100AF000AD61D9AEFBD8F40CF1D8F8F8AD19D9AE88
:100B0000FBDFD8F416F1D8F8AD8D61D9F4F4ACF56B
:100B10009C9C8DDF2BBAB6AEFAF8F40BD8F1AED0B0
:100B2000F8AD51DAAEFAF8F1D8B9B1B6A3839C08A2
:100B3000B9B1839AB5AAC0FD3083B79F10B58B9326
:100B4000F20202D1ABDADED8F1B080BAABC0C3B2E8
:100B500084C1C3D8B1B9F38BA391B609B4D9ABDEC4
:100B6000B0879CB9A3DDF1B38B8B8B8B8BB087A344
:100B7000A3A3A3B28BB69BF2A3A3A3A3A3A3A3A3F4
:100B8000A3A3F1B087B59AA3F39BA3A3DCBAACDF10
:100B9000B9A3A3A3A3A3A3A3A3A3A3A3A3A3A3A30F
:100BA000A3D8D8D8BBB3B7F1AAF9DAFFD9809AAAEB
:100BB00028B48098A720B79787A86688F07951F164
:100BC000902C870CA781976293F0717160859401D6
:100BD00029517990A5F1284C6C870C95188578A33C
:100BE0008390284C6C886CD8F3A28200F210A892F3
:100BF0001980A2F2D926D8F188A84DD948D896A84C
:100C00003980D93CD89580A839A68698D92CDA871E
:100C1000A72CD8A8899519A980D938D8A88939A925
:100C200080DA3CD8A82EA83990D90CD8A89531984C
:100C3000D90CD8A809D9FFD801DAFFD89539A9DA93
:100C400026FFD890A80D8999A810809821DA2ED86F
:100C50008999A83180DA2ED8A886963180DA2ED8E4
:100C6000A8873180DA2ED8A88292F34180F1D92E5C
:100C7000D8A882F31980F1D92ED882ACF3C0A28013
:100C800022F1A62EA72EA92298A829DAACDEFFD839
:100C9000A2F22AF1A92E8292A8F23180A696F1D969
:100CA00000AC8C9C0C30ACDED0DEFFD88C9CACD081
:100CB00010ACDE8092A2F24C82A8F1CAF235F19615
:100CC00088A6D900D8F1FF00000000240027002AE0
:100CD0000000000000250028002B00000000002379
:100CE000002600290004040404040404040202028F
:100CF000020202030303030303010204081020405D
:100D000080010204081020010204081020000000E5
:100D100007000201000003040600000000000000BC
:100D20000000C224103711241FBECFEFD8E0DEBF71
:100D3000CDBF11E0A0E0B1E0EEE6FAE702C0059019
:100D40000D92A834B107D9F716E0A8E4B1E001C0CC
:100D50001D92AB34B107E1F71DE0C6E2DDE004C04F
:100D60002297FE010E94313DC232D107C9F70E948D
:100D700066370C94BD060C940000F8940C94353D35
:100D8000FB01DC0104C08D910190801921F44150D8
:100D90005040C8F7881B990B0895FC011092BC00C5
:100DA000662319F088B1806302C088B18F7C88B94E
:100DB0001092B9009F01442737FD4095542F60E8F9
:100DC0007EE380E090E00E94143D2051304040409E
:100DD0005040CA01B90122E030E040E050E00E94FA
:100DE000143D2093B80084E08093BC000895482F00
:100DF000440F92E064EB54E86093BC002AEF30E0CB
:100E00008091BC0087FD34C0215030408FEF2F3FD0
:100E10003807B1F727C08091B900887F883021F06A
:100E2000803111F082E008954093BB005093BC00E4
:100E30002AEF30E08091BC0087FD1EC02150304079
:100E40008FEF2F3F3807B1F70FC08091B900887F2F
:100E5000803221F4992351F09150CECF883131F472
:100E600080E0089581E0089583E0089584E0089586
:100E70001216130684F2F6CF1216130634F3F4CFCB
:100E8000EF92FF920F931F93162FE42E022FF32E53
:100E90000E94F7061093BB0084E88093BC002AEF01
:100EA00030E08091BC0087FD07C0215030408FEFBB
:100EB0002F3F3807B1F703C0121613063CF0802FFE
:100EC0009F2D9C01F90190E044E81CC08091B9007D
:100ED000F6CF80818093BB004093BC002AEF30E0C6
:100EE0008091BC0087FD07C0215030408FEF2F3F1D
:100EF0003807B1F705C01216130614F48091B90033
:100F00009F5F31969E1528F384E98093BC002AEFF9
:100F100030E08091BC0087FD06C02115310519F035
:100F200021503040F6CF81E01F910F91FF90EF905C
:100F300008951F93F82F122F72E0B4EBE82FEE7F85
:100F4000A4E8B093BC002AEF30E08091BC0087FD9C
:100F5000D0C0215030408FEF2F3F3807B1F7B7C0D6
:100F60008091B900887F883021F0803111F091E1C3
:100F7000BDC0E093BB00A093BC002AEF30E080919D
:100F8000BC0087FDBBC0215030408FEF2F3F38079A
:100F9000B1F79FC09091B900987F903229F47723E0
:100FA00009F499C07150CDCF983109F094C0609385
:100FB000BB0084E88093BC002AEF30E08091BC0045
:100FC00087FDA1C0215030408FEF2F3F3807B1F788
:100FD00084C08091B900887F883211F095E186C085
:100FE00062E0A4EB7F2F7160E4E8A093BC002AEFDD
:100FF00030E08091BC0087FD8BC0215030408FEFE6
:101000002F3F3807B1F76BC08091B900887F8830D7
:1010100021F0803111F097E169C07093BB00E0933B
:10102000BC002AEF30E08091BC0087FD76C02150E3
:1010300030408FEF2F3F3807B1F758C08091B9008B
:10104000887F883429F4662309F44BC06150CDCFE2
:10105000803409F046C0FA0160E0412F50E0415071
:101060005040A4EC74E822C0862F90E084179507C6
:1010700019F47093BC0002C0A093BC002AEF30E0CA
:101080008091BC0087FD4EC0215030408FEF2F3F34
:101090003807B1F728C09091B900987F903511F0CA
:1010A000983521F58091BB0081936F5F6117E0F265
:1010B00084E98093BC002AEF30E08091BC0087FD7A
:1010C00014C02115310589F021503040F6CF90E150
:1010D0000DC092E10BC093E109C094E107C096E115
:1010E00005C099E103C09AE101C090E0892F1F91EA
:1010F0000895121613060CF433CFE9CF1216130617
:101100000CF448CFE6CF121613060CF462CFE5CFED
:10111000121613060CF478CFE2CF121613060CF455
:101120008DCFE4CF121613060CF4B5CFDCCF7F922F
:101130008F929F92AF92BF92CF92DF92EF92FF92E7
:101140000F931F93CF93DF93F82EE62E742E690131
:10115000E8010E9472334B015C018F2D880F6E2DC8
:10116000A601272D0E949907882311F01FEF01C0C7
:10117000172D2097C1F00E947233681979098A09E6
:101180009B099E0140E050E06217730784079507B2
:1011900050F0212F332727FD3095872D90E0281719
:1011A00039070CF41FEF812FDF91CF911F910F9121
:1011B000FF90EF90DF90CF90BF90AF909F908F9077
:1011C0007F9008959C018230910518F02FEF3FEF3A
:1011D00045C080936202909363028AE290E0AC0182
:1011E000249FC001259F900D349F900D1124885B92
:1011F0009E4F90935B0280935A02C901880F991FFA
:10120000820F931F880F991F880F991F84569E4F36
:1012100090935D0280935C0287E290E0AC01249F92
:10122000C001259F900D349F900D11248C549E4F2A
:1012300090935F0280935E028CE290E0AC01249F69
:10124000C001259F900D349F900D11248E5F9D4FFE
:10125000909361028093600220E030E0C90108951C
:101260000F931F93CF93DF93C0915A02D0915B02EB
:1012700085E7888389E189838AE18A838CE08B838F
:101280008AE68C8383E28D838BE18E838CE18F836E
:101290008FE18A8780E28B8782E78C8784E78D875E
:1012A00083E48E878BE38F8781E4888B88E3898B47
:1012B00089E38A8B8AE38B8B8BE68D8B8CE68E8B16
:1012C00087E38F8B8FE6888F86E0898F84E28A8F11
:1012D0008DE68B8F8EE68C8F80E78D8F89E488A7D3
:1012E00081E089A785E28E8F86E28F8F87E288A3CF
:1012F00088E289A389E28AA38AE28BA384E38CA390
:1013000083E68DA384E68EA387E68FA38091620295
:1013100090916302009719F0019769F406C0E0917B
:101320005C02F0915D0288E605C0E0915C02F091FC
:101330005D0289E6808300915C0210915D0280E08D
:1013400094E0F8019283818386E7838384E591E0CA
:101350009583848387EF9DEF9783868380E091E078
:101360009187808786E696E29387828720915E0246
:1013700030915F0283E890E0A0E0B0E0F901808363
:101380009183A283B38380E098E0A0E0B0E08483FF
:101390009583A683B783108681E08187128688E1D2
:1013A000838782E390E09587848785E0868780E065
:1013B00090E0A0E2B1E48787908BA18BB28B80E0B4
:1013C00090E0A2EDB2E4838B948BA58BB68B49E2BF
:1013D0005CE56FE07EE3478B508F618F728F8AE907
:1013E00099E9A9E9BEE3838F948FA58FB68F83E334
:1013F00093E3A3E7BFE3878F90A3A1A3B2A343A383
:1014000054A365A376A3E0916002F0916102D183B9
:10141000C0831383028333A722A7DF91CF911F914B
:101420000F910895DC01E0916002F09161028681E4
:10143000882319F081E08C9301C01C9280E090E039
:101440000895DF93CF930F92CDB7DEB7982FA09179
:101450006002B09161025D968C915D97882321F0C6
:10146000992389F082E00DC016968C9116978823F7
:10147000E9F0992341F01C968C911C978823F9F48C
:1014800081E0898301C019821296ED91FC91139736
:101490000D90BC91A02D808151966C9141E09E01F0
:1014A0002F5F3F4F0E944007882319F42FEF3FEF33
:1014B00008C0E0916002F09161028981848720E098
:1014C00030E0C9010F90CF91DF910895CF92DF9264
:1014D000EF92FF920F931F93DF93CF9300D0CDB77E
:1014E000DEB7D82EC92E8B017A014115510519F4AA
:1014F0002FEF3FEF41C0E0916002F09161028681E1
:10150000882319F42EEF3FEF37C0A281B3819B01EE
:101510002D0D311D18968D919C9119978217930767
:1015200018F42DEF3FEF28C0C982DA820190F081D4
:10153000E02D8C91638D42E09E012F5F3F4F0E9412
:101540004007882319F42CEF3FEF16C0E0916002AA
:10155000F0916102A281B3810190F081E02D8C9124
:10156000608D402F97010E944007882319F020E0EA
:1015700030E002C02BEF3FEFC9010F900F90CF91E9
:10158000DF911F910F91FF90EF90DF90CF90089522
:101590001F93DF93CF930F92CDB7DEB7182FA09193
:1015A0006002B09161025C968C915C97811781F129
:1015B000112319F080E3898301C019821D968C9153
:1015C0001D97882319F08981826089835B968C91AD
:1015D0005B97882319F08981806889831296ED9141
:1015E000FC9113970D90BC91A02D808157966C9122
:1015F00041E09E012F5F3F4F0E944007882319F46E
:101600002FEF3FEF07C0E0916002F0916102148F6D
:1016100020E030E0C9010F90CF91DF911F91089534
:10162000DF93CF930F92CDB7DEB7BC010097A9F13E
:101630002091600230916102D90119968D919C919F
:101640001A978617970748F16536710530F50E949D
:10165000CB3C61506983F90182819381A081B18182
:10166000FC01808194966C9141E09E012F5F3F4F79
:101670000E944007882389F0E0916002F0916102A6
:10168000698170E06F5F7F4F818592850E94CB3CBE
:1016900072A361A320E030E002C02FEF3FEFC90149
:1016A0000F90CF91DF910895DF93CF930F92CDB735
:1016B000DEB79C01A0916002B091610216968C91F8
:1016C0001697882399F12C3B310510F081E015C065
:1016D0002236310510F082E010C02A32310510F0B8
:1016E00083E00BC02431310510F084E006C02A30BD
:1016F000310510F085E001C086E0898317969C9142
:10170000179789819817D9F01296ED91FC9113974C
:101710000D90BC91A02D808112966C9141E09E01AC
:101720002F5F3F4F0E944007882319F42FEF3FEFB0
:1017300008C0E0916002F09161028981878320E016
:1017400030E0C9010F90CF91DF910895DF93CF93DF
:101750000F92CDB7DEB7982FA0916002B0916102D1
:1017600016968C9116978823A1F1943061F09530EC
:1017700018F4923071F505C0983039F0903149F580
:1017800006C0198206C088E003C080E101C088E17C
:10179000898315962C91159730E0898190E0E3E0DC
:1017A00095958795EA95E1F72817390709F112967B
:1017B000ED91FC9113970D90BC91A02D808117960F
:1017C0006C9141E09E012F5F3F4F0E9440078823AC
:1017D00019F42FEF3FEF0EC0E0916002F09161022B
:1017E000898190E073E0959587957A95E1F78583F7
:1017F00020E030E0C9010F90CF91DF910895DF9391
:10180000CF930F92CDB7DEB79C01A0916002B0914B
:10181000610216968C9116978823E1F181E0243FAE
:10182000380791F081E0253F380720F42A3F310541
:1018300089F508C083E0283E380741F0205D374035
:1018400049F506C0198206C088E003C080E101C0E6
:1018500088E1898314962C91149730E0898190E077
:1018600043E0959587954A95E1F72817390709F1DF
:101870001296ED91FC9113970D90BC91A02D808153
:1018800016966C9141E09E012F5F3F4F0E944007EA
:10189000882319F42FEF3FEF0EC0E0916002F09122
:1018A0006102898190E0A3E095958795AA95E1F77B
:1018B000848320E030E0C9010F90CF91DF9108953B
:1018C0000F931F93DF93CF930F92CDB7DEB7A09105
:1018D0006002B091610216968C911697882309F4E4
:1018E0001BC119821296ED91FC9113970D90BC913A
:1018F000A02D808151966C9141E08E010F5F1F4FAA
:1019000098010E944007882309F406C1E091600213
:10191000F0916102A281B3810190F081E02D8C9160
:10192000658141E098010E944007882309F4F4C0D2
:10193000E0916002F0916102A281B3810190F08197
:10194000E02D8C91648141E098010E94400788233A
:1019500009F4E2C0A0916002B09161025D968C91A1
:101960005D97882309F469C08CE089831296ED9114
:10197000FC9113970D90BC91A02D808114966C91D1
:1019800041E098010E944007882309F4C5C062E342
:1019900070E080E090E00E94803380EC8983A09129
:1019A0006002B091610216968C91169780FF02C07A
:1019B00080EE89831296ED91FC9113970D90BC9166
:1019C000A02D808114966C9141E09E012F5F3F4FC6
:1019D0000E944007882309F49FC0A0916002B09143
:1019E00061021C968C911C97882319F082E08983F0
:1019F00001C019821296ED91FC9113970D90BC9144
:101A0000A02D808151966C9141E08E010F5F1F4F98
:101A100098010E944007882309F47EC01982E09152
:101A20006002F0916102A281B3810190F081E02D0A
:101A30008C91658141E098016BC084E089831296A6
:101A4000ED91FC9113970D90BC91A02D808114967F
:101A50006C9141E098010E944007882309F45CC022
:101A6000A0916002B09161021D968C911D97882310
:101A700029F416968C91169780FD02C080E401C06F
:101A800080E689831296ED91FC9113970D90BC919D
:101A9000A02D808114966C9141E09E012F5F3F4FF5
:101AA0000E9440078823C1F162E370E080E090E08B
:101AB0000E948033A0916002B09161021C968C91CB
:101AC0001C97882319F081E0898301C0198212963E
:101AD000ED91FC9113970D90BC91A02D80815196B2
:101AE0006C9141E09E012F5F3F4F0E944007882389
:101AF00099F0E0916002F0916102A281B3812081AE
:101B000031813B968C91D90115966C9141E09F01F2
:101B10000E944007882319F42FEF3FEF02C020E016
:101B200030E0C9010F90CF91DF911F910F9108957F
:101B30000F931F93CF93DF93982FE0916002F09162
:101B40006102858D882319F0C0E0D0E029C086812C
:101B5000882321F1192F1E7F038581238387811715
:101B600019F4C0E0D0E002C0CFEFDFEF112319F489
:101B70008785882331F081E00E94210A112381F0BA
:101B800004C080E00E94210A0BC00E94600C892BD7
:101B900039F0E0916002F09161020387CFEFDFEF4F
:101BA000CE01DF91CF911F910F9108951F93DF9385
:101BB000CF9300D0CDB7DEB7182F893208F058C0C8
:101BC0008823F9F480E00E94C80A198287E08A839A
:101BD000E0916002F0916102A281B3810190F081F5
:101BE000E02D8C91658942E09E012F5F3F4F0E945E
:101BF00040078823E9F1E0916002F09161021786C5
:101C000046C081E00E94C80A80E28983113011F445
:101C10001A8204C0163028F481E08A8385E090E0BF
:101C20000BC0153128F482E08A838AE090E004C07A
:101C300083E08A8384E190E00E94540B8A8182953C
:101C4000880F880F807C87608A83E0916002F09122
:101C50006102A281B3810190F081E02D8C916589B0
:101C600042E09E012F5F3F4F0E944007882319F4F6
:101C70002FEF3FEF0EC0E0916002F091610288E02B
:101C80008683108681E0878780E00E94980D20E09F
:101C900030E0C9010F900F90CF91DF911F9108950F
:101CA0000F931F93DF93CF930F92CDB7DEB78C01C5
:101CB000E0916002F091610286818823B9F1858DFF
:101CC0008823A1F58785882359F0C8010197889753
:101CD00020F4802F0E94D60D4DC080E00E94D60DCA
:101CE0000430110518F464E070E007C0B80183E027
:101CF000093E180710F068EE73E088EE93E00E944A
:101D0000CB3C61506983E0916002F0916102A28155
:101D1000B3810190F081E02D8C91618141E09E01C1
:101D20002F5F3F4F0E944007882319F42FEF3FEFAA
:101D300023C0E0916002F0916102698170E06F5F01
:101D40007F4F88EE93E00E94DF3C7287618781A11C
:101D500092A18536910510F084E690E00E94100B68
:101D6000E0916002F0916102818592859695879558
:101D70000E94540B20E030E0C9010F90CF91DF9119
:101D80001F910F910895CF92DF92EF92FF920F93E0
:101D90001F93DF93CF9300D0CDB7DEB7182F092F55
:101DA0007B016A0141155105D1F1E0916002F0918A
:101DB00061028681882399F1A281B3819B01210F61
:101DC000311D18968D919C9119978217930738F1C0
:101DD00009831A830190F081E02D8C91638D42E09C
:101DE0009E012F5F3F4F0E9440078823C1F0E09182
:101DF0006002F0916102A281B3810190F081E02D37
:101E000000910001109101018C91608D4E2D960181
:101E10000E949708882319F020E030E002C02FEFDD
:101E20003FEFC9010F900F90CF91DF911F910F915C
:101E3000FF90EF90DF90CF900895DF92EF92FF92A6
:101E40000F931F93DF93CF930F92CDB7DEB7D82EAA
:101E5000E0916002F091610285858D1509F49EC0C4
:101E6000A281B3810190F081E02D009100011091D9
:101E700001017E010894E11CF11CDD2089F18C91A7
:101E8000648141E097010E949708882309F47EC08D
:101E900089818F7D8983E0916002F0916102A28146
:101EA000B3810190F081E02D8C91648141E0970134
:101EB0000E944007882309F469C063E070E080E075
:101EC00090E00E94803382E08983A0916002B0910B
:101ED00061025B968C915B978823F1F182E839C0AF
:101EE0008C91648141E097010E949708882309F44E
:101EF0004DC0A0916002B091610216968C91169728
:101F0000998180FF02C0906201C09F7D99831296E3
:101F1000ED91FC9113970D90BC91A02D80811496AA
:101F20006C9141E09E012F5F3F4F0E944007882344
:101F300069F163E070E080E090E00E948033A0915E
:101F40006002B09161025B968C915B97882319F0D7
:101F500080E8898301C019825C968C915C97882304
:101F600019F08981806389831296ED91FC91139712
:101F70000D90BC91A02D808157966C9141E09E01FF
:101F80002F5F3F4F0E944007882319F42FEF3FEF48
:101F900007C0E0916002F0916102D58620E030E058
:101FA000C9010F90CF91DF911F910F91FF90EF909A
:101FB000DF900895DF93CF930F92CDB7DEB7982FC0
:101FC000E0916002F0916102858D891709F44AC0A1
:101FD000992369F1868D882319F42FEF3FEF44C0D0
:101FE00080E00E94210A80E00E941D0FE0916002C3
:101FF000F0916102878D90A10E94500E1982E091AC
:102000006002F09161020280F381E02D808163E241
:1020100041E09E012F5F3F4F0E944007E091600228
:10202000F091610281E0858F0E94210A19C080E051
:102030000E94210AE0916002F09161028385898308
:102040000280F381E02D808163E241E09E012F5FF9
:102050003F4F0E944007E0916002F0916102158EAF
:102060000E94600C20E030E0C9010F90CF91DF9119
:1020700008956F927F928F929F92AF92BF92CF926C
:10208000DF92EF92FF920F931F93DF93CF9300D0D5
:10209000CDB7DEB76C013B014A01A0916002B0915F
:1020A00061025D968C915D97882319F42FEF3FEFC5
:1020B0007CC016968C911697882319F42EEF3FEF6B
:1020C00074C01296ED91FC9113970D90BC91A02DC8
:1020D000009100011091010180811C966C9142E0F9
:1020E0005E010894A11CB11C95010E9497088823E9
:1020F00019F42DEF3FEF59C0998180E02A81E22E3B
:10210000FF24E82AF92AEC14FD0428F4F4011082D3
:1021100021E030E04AC0E0916002F0916102A281CA
:10212000B38111968D919C911297969587958E15F6
:102130009F05D0F40190F081E02D009100011091F5
:1021400001018C91638941E095010E9497088823E1
:1021500019F42BEF3FEF29C0898184FF05C00E944D
:10216000600C22E030E021C0E0916002F091610259
:10217000A281B3810190F081E02D009100011091C6
:1021800001018C9165854C2D93010E94970888234D
:1021900019F429EF3FEF09C0C701B6010E94CB3CFB
:1021A0006150F401608320E030E0C9010F900F908E
:1021B000CF91DF911F910F91FF90EF90DF90CF9023
:1021C000BF90AF909F908F907F906F900895DF9217
:1021D000EF92FF920F931F93DF93CF9300D0CDB771
:1021E000DEB7D82EE82EFF24C70180779070892BA8
:1021F00011F081E005C0DD2011F0198202C080E4F9
:102200008983E0916002F0916102A281B381019023
:10221000F081E02D8C91658941E09E012F5F3F4F59
:102220000E944007A0916002B0916102882319F4D6
:1022300016961C9230C089818F7B18968C931897C4
:102240001982E6FC02C084E08983E5FC03C0898131
:1022500082608983E4FC03C0898181608983E3FC17
:1022600003C08981886389831296ED91FC9113974D
:102270000D90BC91A02D808156966C9141E09E01FD
:102280002F5F3F4F0E944007882341F4E091600296
:10229000F091610216822FEF3FEF6CC0DD2031F02C
:1022A00088E0D81619F080E00E94C80AE091600228
:1022B000F0916102A281B3810190F081E02D009143
:1022C0000001109101018C91648141E09E012E5F1B
:1022D0003F4F0E9497088823F1F29A81E0FE04C0E4
:1022E00081E08983906202C019829F7D9A83A091C8
:1022F0006002B09161025D968C915D979A8188230E
:1023000011F0906801C09F779A831296ED91FC912D
:1023100013970D90BC91A02D808196966C9141E011
:102320009E012F5F3F4F0E944007882309F4B3CFDF
:10233000E0916002F0916102A281B3810190F0818D
:10234000E02D8C91648141E09E012E5F3F4F0E9401
:102350004007882309F49FCFE0916002F091610269
:10236000D682178662E370E080E090E00E948033BE
:1023700020E030E0C9010F900F90CF91DF911F91C5
:102380000F91FF90EF90DF900895CF92DF92EF9240
:10239000FF920F931F93DF93CF93CDB7DEB72997AB
:1023A0000FB6F894DEBF0FBECDBF7C016B01A091CC
:1023B0006002B091610216968C91169780FD03C061
:1023C0002FEF3FEF96C01296ED91FC9113970D9071
:1023D000BC91A02D0091000110910101808198967F
:1023E0006C9148E09E012F5F3F4F0E949708882321
:1023F00019F42CEF3FEF7DC0898180FD03C021E0FF
:1024000030E077C0888587FD72C086FD70C03B8153
:1024100020E06A8170E0622B732BF7017183608387
:102420003D8120E04C8150E0242B352B33832283E7
:102430003F8120E04E8150E0242B352B35832483CF
:102440000091600210916102882777FD8095982F96
:10245000F80124A135A1442737FD4095542F0E944F
:10246000A03C672F782F892F992787FD9A95F70130
:102470007183608362817381882777FD8095982FAF
:10248000F80126A137A1442737FD4095542F0E941B
:10249000A03C672F782F892F992787FD9A95F70100
:1024A0007383628364817581882777FD8095982F77
:1024B000F80120A531A5442737FD4095542F0E94EF
:1024C000A03C672F782F892F992787FD9A95F701D0
:1024D00075836483C114D10439F00E947233F6010C
:1024E000608371838283938320E030E002C02AEF0F
:1024F0003FEFC90129960FB6F894DEBF0FBECDBFDE
:10250000CF91DF911F910F91FF90EF90DF90CF90CF
:1025100008952F923F924F925F926F927F928F9287
:102520009F92AF92BF92CF92DF92EF92FF920F9362
:102530001F93DF93CF93CDB7DEB764970FB6F894B0
:10254000DEBF0FBECDBF3C014B014B8B5C8B190135
:10255000E0916002F0916102868D882319F02FEFDF
:102560003FEF75C06115710519F42EEF3FEF6FC095
:1025700080E190E00E94A734B92EC82ED92EA82E53
:10258000EE24FF2463E0462E512C4C0E5D1E38C015
:1025900083010E191F090131110510F000E110E04F
:1025A00094012E0D3F1DD601A601400F511F05C0FD
:1025B000F90184918D932F5F3F4FA417B507C1F7A1
:1025C000C701B801A5010E94660A892B19F02DEFF9
:1025D0003FEF3DC0C701B801A2010E94C30E892B85
:1025E00019F02CEF3FEF33C0C501B201A8010E94E2
:1025F000C006009719F02BEF3FEF29C0E00EF11E47
:10260000E614F70428F2FC89F9838B898A83E09128
:102610006002F0916102A281B3810190F081E02D0E
:102620008C91658D42E09E012F5F3F4F0E944007D5
:10263000882319F42AEF3FEF0AC0E0916002F0917D
:10264000610281E0868F30A2278E20E030E0C90150
:1026500064960FB6F894DEBF0FBECDBFCF91DF9169
:102660001F910F91FF90EF90DF90CF90BF90AF90B0
:102670009F908F907F906F905F904F903F902F90A2
:102680000895EF92FF920F931F93DF93CF93CDB7EF
:10269000DEB72B970FB6F894DEBF0FBECDBF80E834
:1026A0008D83E0916002F0916102A281B38101907B
:1026B000F081E02D15E0E12EF12CEC0EFD1E8C9149
:1026C000658941E097010E944007882319F42FEFA4
:1026D0003FEF26C264E670E080E090E00E94803325
:1026E0001D82E0916002F0916102A281B3810190AC
:1026F000F081E02D8C91658941E097010E944007AF
:10270000882319F42EEF3FEF0BC2E0916002F091A5
:102710006102A281B3810190F081E02D009100015E
:10272000109101018C91618D46E097010E949708FC
:10273000882319F42DEF3FEFF3C18A8590E0817073
:102740009070880F991F880F991F288530E021709D
:102750003070220F331F982F922B8E818170982B0F
:1027600091F0913031F4E0916002F091610296872E
:1027700032C0923019F02CEF3FEFD2C1E0916002ED
:10278000F091610227C0E0916002F0916102A281A4
:10279000B3810190F081E02D0091000110910101C1
:1027A0008C91638141E097010E949708882319F476
:1027B0002BEF3FEFB5C18D818F7019F42AEF3FEFFA
:1027C000AFC1E0916002F0916102843019F481E0C0
:1027D000868701C01686E0916002F09161028FEF5A
:1027E00086838483858387832FEF3FEF328721871A
:1027F0008387858732A321A381E08087838F148E0E
:10280000108A178671968AE011928A95E9F7E0910D
:102810006002F0916102158E168E10A2178E80ED67
:1028200097E00E94FF0B892B19F026EF3FEF78C14C
:1028300082E00E94A60B892B19F025EF3FEF70C1B3
:102840008AE290E00E94540B892B19F024EF3FEFAD
:1028500067C182E390E00E94500E892B19F023EFAC
:102860003FEF5EC180E00E94980D892B19F022EFA6
:102870003FEF56C181E00E941D0F9CE07E0108944D
:10288000E11CF11C0091000110910101892F60E011
:1028900041E097019B870E9497089B85882399F0C8
:1028A0008981883481F4E0916002F091610293A300
:1028B000198283A16AE041E097010E9440078823C2
:1028C00009F420C104C09F5F9031E1F61BC161E0B3
:1028D00070E080E090E00E9480338FE08983E09197
:1028E0006002F091610283A16AE041E097010E94D9
:1028F0004007882309F406C161E070E080E090E0C1
:102900000E948033E0916002F09161020091000129
:102910001091010183A160E143E097010E949708B3
:10292000882309F4EFC0E0916002F091610289818F
:1029300090E080589F4F95A384A38A8190E08058AF
:102940009F4F97A386A38B8190E080589F4F91A7BC
:1029500080A7198283A16AE041E097010E944007A5
:10296000882309F4CFC061E070E080E090E00E942D
:10297000803380E00E941D0F80E48983E091600233
:10298000F0916102A281B3810190F081E02D8C91E0
:10299000628D41E097010E944007882309F4B2C08C
:1029A000E0916002F091610283A180688983A28135
:1029B000B3810190F081E02D8C91668D41E097010B
:1029C0000E944007882309F49DC082E08983E0913A
:1029D0006002F0916102A281B3810190F081E02D4B
:1029E0008C91678D41E097010E944007882309F48C
:1029F00089C088E88983E0916002F0916102A28138
:102A0000B3810190F081E02D8C9160A141E09701AC
:102A10000E944007882309F475C0E0916002F0919C
:102A2000610283A18983A281B3810190F081E02DAD
:102A30008C9161A141E08E010F5F1F4F98010E94B0
:102A40004007882309F45EC08AE08983E091600230
:102A5000F0916102A281B3810190F081E02D8C910F
:102A600062A141E098010E944007882309F44AC00E
:102A700081E88983E0916002F0916102A281B381D3
:102A80000190F081E02D8C9163A141E098010E94BA
:102A900040078823B9F181E08983E0916002F091D9
:102AA0006102A281B3810190F081E02D8C9166A139
:102AB00041E098010E944007882321F183E0898347
:102AC000E0916002F0916102A281B3810190F081F6
:102AD000E02D8C9167A141E098010E944007882376
:102AE00089F080E88983E0916002F0916102A2811F
:102AF000B3810190F081E02D8C9161A541E09801B6
:102B00000E9440078AE090E00E94100B892B19F088
:102B100021EF3FEF05C080E00E94E71020E030E0A9
:102B2000C9012B960FB6F894DEBF0FBECDBFCF9173
:102B3000DF911F910F91FF90EF9008959C018230DB
:102B4000910518F02FEF3FEF16C080937C02909311
:102B50007D028BE090E0AC01249FC001259F900D89
:102B6000349F900D11248C599D4F90937B0280933C
:102B70007A0220E030E0C9010895E0917A02F091F4
:102B80007B021182108213821282158214821782B4
:102B9000168211861086128608952F923F924F92C8
:102BA0005F926F927F928F929F92AF92BF92CF92DD
:102BB000DF92EF92FF920F931F93DF93CF93CDB7E6
:102BC000DEB7AC970FB6F894DEBF0FBECDBF9EA3A5
:102BD0008DA378A76FA32A013AA729A71CA70BA743
:102BE000A701D8011D921C92E0917A02F0917B021C
:102BF000828590E0BE016F5F7F4F0E9439109CA3D9
:102C00008BA3892B09F0B2C1E0917A02F0917B028B
:102C1000FAA3E9A38681978184719070892B11F4BE
:102C200040E017C1A980BB24CC24DD24DA2CCC24BD
:102C3000BB24AA248A8190E0A0E0B0E0DC019927BF
:102C40008827A82AB92ACA2ADB2A8C8190E0A0E02A
:102C5000B0E0A82AB92ACA2ADB2A8B8190E0A0E03A
:102C6000B0E0BA2FA92F982F8827A82AB92ACA2AF4
:102C7000DB2AD201AD92BD92CD92DC9213972D81C9
:102C800030E040E050E0522F4427332722278E8146
:102C900090E0A0E0B0E0DC0199278827282B392BB1
:102CA0004A2B5B2B888590E0A0E0B0E0282B392BE5
:102CB0004A2B5B2B8F8190E0A0E0B0E0BA2FA92FC8
:102CC000982F8827282B392B4A2B5B2BF201248342
:102CD000358346835783298530E040E050E0522F0A
:102CE0004427332722278A8590E0A0E0B0E0DC016A
:102CF00099278827282B392B4A2B5B2B8C8590E032
:102D0000A0E0B0E0282B392B4A2B5B2B8B8590E081
:102D1000A0E0B0E0BA2FA92F982F8827282B392BB5
:102D20004A2B5B2BD20118962D933D934D935C93C8
:102D30001B972D8530E040E050E0522F4427332789
:102D400022278E8590E0A0E0B0E0DC01992788275B
:102D5000282B392B4A2B5B2B888990E0A0E0B0E030
:102D6000282B392B4A2B5B2B8F8590E0A0E0B0E01D
:102D7000BA2FA92F982F8827282B392B4A2B5B2B6A
:102D800024873587468757875601DD24B7FCD094C2
:102D9000CD2C64807580868097803401992477FCDF
:102DA0009094892C208431844284538412015524C8
:102DB00037FC5094452C9A01552737FD5095452FE7
:102DC000CA01B9010E94A03C7B018C01C601B5017A
:102DD000A60195010E94A03CE60EF71E081F191FD0
:102DE000C401B301A40193010E94A03CE60EF71EAA
:102DF000081F191FC201B101A20191010E94A03C4C
:102E0000E60EF71E081F191F80E090E0A0E0B1EF6A
:102E1000E80EF91E0A1F1B1F91E0E91690E0F90663
:102E200090E0090792E0190758F00E94600CABA5EA
:102E3000BCA51D921C92E3E0F0E0FCA3EBA396C0BE
:102E4000ABA5BCA58D919C91119791608D939C939E
:102E500040E1E9A1FAA1868186FF39C0A42FB0E044
:102E6000FE01EA0FFB1F228130E0FE01EA0FFB1F8B
:102E7000918180E0282B392BEFA1F8A531832083A5
:102E8000FE01EA0FFB1F338120E0FE01EA0FFB1F6A
:102E9000848190E0282B392BEFA1F8A5338322837E
:102EA000FE01EA0FFB1F358120E0868190E0282B90
:102EB000392BAFA1B8A515963C932E9314974A5F72
:102EC000EBA5FCA580819181886091838083A9A175
:102ED000BAA116968D919C91179780789170892B45
:102EE000C1F1A42FB0E0FE01EA0FFB1F228130E008
:102EF000FE01EA0FFB1F918180E0282B392BEDA109
:102F0000FEA131832083FE01EA0FFB1F338120E005
:102F1000FE01EA0FFB1F848190E0282B392BEDA1E5
:102F2000FEA133832283FE01EA0FFB1F358120E0DF
:102F3000868190E0282B392BADA1BEA115963C933C
:102F40002E931497EBA5FCA58081918180679183D6
:102F5000808389A59AA5892B49F00E947233A9A57F
:102F6000BAA56D937D938D939C9313978BA19CA190
:102F7000AC960FB6F894DEBF0FBECDBFCF91DF91F8
:102F80001F910F91FF90EF90DF90CF90BF90AF9087
:102F90009F908F907F906F905F904F903F902F9079
:102FA0000895DF93CF93CDB7DEB729970FB6F89486
:102FB000DEBF0FBECDBF9E012F5F3F4F882349F07C
:102FC000D901E6E1F1E089E001900D928150E1F74D
:102FD00008C0D901EDE0F1E089E001900D92815047
:102FE000E1F788EB94E069E070E0AE014F5F5F4F7E
:102FF0000E94660A29960FB6F894DEBF0FBECDBFB9
:10300000CF91DF9108950F931F93DF93CF93CDB7A7
:10301000DEB728970FB6F894DEBF0FBECDBF8C0188
:10302000893C9105F0F488EC90E0B8010E94CB3C1B
:103030006150704079836A8386E192E062E070E0DB
:10304000AE014F5F5F4F0E94660A892B51F481ECFD
:103050009AE06CE070E04FE151E00E94660A892B33
:1030600019F02FEF3FEF08C0E0917A02F0917B0258
:103070001187008720E030E0C90128960FB6F89448
:10308000DEBF0FBECDBFCF91DF911F910F9108958D
:10309000EF92FF920F931F93DF93CF9300D000D056
:1030A00000D0CDB7DEB78C01AC0143705070FA018F
:1030B000EC5CFE4F80818983C801E3E0969587959B
:1030C000EA95E1F783709070FC01EC5CFE4F208183
:1030D0002A83D80176E0B695A7957A95E1F7A37093
:1030E000B070FD01EC5CFE4F20812B834F5C5E4F86
:1030F000FA0120812C838F5C9E4FFC0180818D839F
:10310000AF5CBE4F8C918E8386E294E063E070E00A
:103110007E010894E11CF11CA7010E94660A892B1C
:1031200009F04BC08AE294E063E070E0AE014C5FCE
:103130005F4F0E94660A892B09F03FC0D701EEE27B
:10314000F1E083E001900D928150E1F7DE011496E9
:10315000EBE2F1E083E001900D928150E1F702FF94
:1031600006C08981816089838C8181608C8305FFA1
:1031700006C08A8181608A838D8181608D8310FF82
:1031800006C08B8181608B838E8181608E8380E419
:1031900094E063E070E0AE014F5F5F4F0E94660A0B
:1031A000892B59F481E394E063E070E0AE014C5F59
:1031B0005F4F0E94660A892B19F02FEF3FEF08C07E
:1031C000E0917A02F0917B021583048320E030E0E5
:1031D000C90126960FB6F894DEBF0FBECDBFCF91C2
:1031E000DF911F910F91FF90EF900895DF93CF93A0
:1031F00000D000D0CDB7DEB7882349F080E28983C4
:1032000088E28A8380E38B8388E38C8308C083EA27
:1032100093EAA3EAB3EA89839A83AB83BC838EE9FA
:103220009AE064E070E0AE014F5F5F4F0E94660A73
:103230000E94600C0F900F900F900F90CF91DF9134
:103240000895DF93CF9300D000D0CDB7DEB78823A9
:1032500049F080EC898382EC8A8384EC8B8386EC52
:103260008C8308C08BE89BE8ABE8BBE889839A8332
:10327000AB83BC8388E99AE064E070E0AE014F5F05
:103280005F4F0E94660A0E94600C0F900F900F9093
:103290000F90CF91DF910895AF92BF92CF92DF92BE
:1032A000EF92FF920F931F93DF93CF93CDB7DEB7CB
:1032B0002A970FB6F894DEBF0FBECDBF8C0182E017
:1032C00089838AEC8A8383EE8B8389E08C8388E60A
:1032D00090E064E070E0AE014F5F5F4F0E94660ACD
:1032E00083EA8983B0E4AB2EB12CA022B12206FF81
:1032F00006C080EC8A8388EC8B8382EC02C08A83D0
:103300008B838C83A0E8EA2EA1E0FA2EE022F12242
:10331000E114F10431F084EC8D838CEC8E8386EC27
:1033200003C083EA8D838E838F8383EA88878987AE
:103330008A8787EA9AE06AE070E0AE014F5F5F4FEC
:103340000E94660AF3E0CF2ED12CC022D122C114F4
:10335000D10411F080E201C088ED898386EB9AE008
:1033600061E070E0AE014F5F5F4F0E94660A05FFAB
:1033700002C081E001C080E00E94D117E114F10495
:10338000D9F010FF08C082EB89838BE88A8386EB33
:103390008B838BE907C080EB898380E88A8384EB89
:1033A0008B8380E98C8382EA9AE064E070E0AE016E
:1033B0004F5F5F4F0E94660A02FF02C081E001C0BA
:1033C00080E00E94211904FF02C081E001C080E07A
:1033D0000E94F618E0917A02F0917B02C8018860A1
:1033E000978386830E94600CE0917A02F0917B02C1
:1033F0001286AB2811F086E08287EF2819F08285CB
:103400008A5F828704711070012B19F08285805FBA
:103410008287CD2819F082858C5F828780E090E0DA
:103420002A960FB6F894DEBF0FBECDBFCF91DF91C5
:103430001F910F91FF90EF90DF90CF90BF90AF90D2
:10344000089586EF9BE061ED70E040E054E028ECE9
:1034500030E00E94891208958091FE029091FF024F
:1034600062E370E00E94CB3C8091DC029091DD022F
:103470008617970710F481E0089580E093E060E0FC
:1034800070E00E94C5119093D3028093D2020097FE
:10349000D9F56091000370910103882777FD80952D
:1034A000982F0E94C93A6093A2027093A30280935E
:1034B000A4029093A50260910203709103038827F0
:1034C00077FD8095982F0E94C93A6093A602709369
:1034D000A7028093A8029093A902609104037091BF
:1034E0000503882777FD8095982F0E94C93A60933D
:1034F000AA027093AB028093AC029093AD0210923B
:10350000DD021092DC0280E008950E94600C0895B4
:103510002F923F924F925F926F927F928F929F92E3
:10352000AF92BF92CF92DF92EF92FF920F931F93D1
:10353000DF93CF93CDB7DEB7EC970FB6F894DEBF2D
:103540000FBECDBF1092C4021092C30285EC92E070
:103550006BEC72E043EB52E020E030E003EC12E071
:10356000E1EDEE2EE2E0FE2E0E94CD159093D30207
:103570008093D202009709F08CC58091D1028230ED
:1035800020F00E94600C81E884C56091B3027091C4
:10359000B4028091B5029091B6020E94C93A20E02F
:1035A00030E040E850E30E94D53B1B012C016093C2
:1035B000B3027093B4028093B5029093B602609107
:1035C000B7027091B8028091B9029091BA020E943C
:1035D000C93A20E030E040E850E30E94D53B698BD7
:1035E0007A8B8B8B9C8B6093B7027093B80280931D
:1035F000B9029093BA026091BB027091BC028091B3
:10360000BD029091BE020E94C93A20E030E040E83D
:1036100050E30E94D53B5B016C016093BB02709349
:10362000BC028093BD029093BE026091BF02709174
:10363000C0028091C1029091C2020E94C93A20E06A
:1036400030E040E850E30E94D53B6D8B7E8B8F8B42
:10365000988F6093BF027093C0028093C1029093D1
:10366000C202C601B501A60195010E94D53B698F32
:103670007A8F8B8F9C8F6093EE027093EF02809312
:10368000F0029093F1026D897E898F89988D9B015C
:10369000AC010E94D53B6D8F7E8F8F8F98A3609376
:1036A000F2027093F3028093F4029093F502C20148
:1036B000B101A20191010E94D53B69A37AA38BA31A
:1036C0009CA36093F6027093F7028093F8029093A4
:1036D000F90269897A898B899C892D893E894F896C
:1036E000588D0E94D53B7B018C01C201B101A6011E
:1036F00095010E94D53B9B01AC01C801B7010E9416
:103700004C393B014C016093FA027093FB028093A9
:10371000FC029093FD0225EE32EF4FEF5EE30E9434
:10372000CA3B1816BCF4C601B501A20191010E9462
:10373000D7399B01AC010E944D396093860270938A
:10374000870280938802909389028BED9FE0A9EC19
:10375000BFE322C0C401B30125EE32EF4FEF5EEBB1
:103760000E942A3A88236CF5C601B501A201910195
:103770000E94D73920E030E040E050EC0E94D53B79
:1037800060938602709387028093880290938902E7
:103790008BED9FE0A9ECBFEB8093820290938302B4
:1037A000A0938402B093850280E090E0A0E0B0E0B6
:1037B00080937E0290937F02A0938002B093810257
:1037C00094C069897A898B899C89A20191010E94A0
:1037D000D53B7B018C01C601B5012D893E894F89FE
:1037E000588D0E94D53B9B01AC01C801B7010E94D6
:1037F0004D399B01AC010E944D397B018C016D8DCF
:103800007E8D8F8D98A129A13AA14BA15CA10E9428
:103810004D3920E030E040E050EC0E94D53B20E004
:1038200030E040E85FE30E944D399B01AC01C801E4
:10383000B7010E94D7396093860270938702809304
:10384000880290938902C401B301A40193010E94EC
:103850004D390E94B1396093820270938302809344
:1038600084029093850269897A898B899C89A60153
:1038700095010E94D53B7B018C016D897E898F89E2
:10388000988DA20191010E94D53B9B01AC01C8011A
:10389000B7010E944C399B01AC010E944D397B015C
:1038A0008C01698D7A8D8B8D9C8D2D8D3E8D4F8DEC
:1038B00058A10E944D3920E030E040E050EC0E94D9
:1038C000D53B20E030E040E85FE30E944D399B01AA
:1038D000AC01C801B7010E94D73960937E02709392
:1038E0007F02809380029093810260917E027091AA
:1038F0007F02809180029091810221EE3EE245E6B6
:1039000052E40E94D53B905860937E0270937F02F0
:103910008093800290938102609182027091830271
:10392000809184029091850221EE3EE245E652E4C8
:103930000E94D53B905860938202709383028093DB
:103940008402909385026091860270918702809133
:1039500088029091890221EE3EE245E652E40E94FF
:10396000D53B5B016C0120E030E044E353E40E946E
:103970004D397B018C0120E030E044E353E40E94A8
:10398000CA3B181654F4C601B50120E030E044E308
:1039900053E40E944C397B018C01D801C701B05817
:1039A0008093860290938702A0938802B093890245
:1039B0006091C9027091CA02882777FD8095982F7F
:1039C0000E94C93A20E030E043E851E40E942E3AD8
:1039D00060938A0270938B0280938C0290938D0285
:1039E0006091C7027091C802882777FD8095982F53
:1039F0000E94C93A20E030E043E851E40E942E3AA8
:103A000060938E0270938F02809390029093910244
:103A10006091C5027091C602882777FD8095982F26
:103A20000E94C93A20E030E043E851E40E942E3A77
:103A30006093920270939302809394029093950204
:103A40008091D402882391F584ED92E00E9475372D
:103A5000892B61F180E090E0A0E8BFE38093DE0273
:103A60009093DF02A093E002B093E10280E090E047
:103A7000A0E0B0E08093E2029093E302A093E4021E
:103A8000B093E5028093E6029093E702A093E802E8
:103A9000B093E9028093EA029093EB02A093EC02C8
:103AA000B093ED0284ED92E00E947F378091B302E3
:103AB0009091B402A091B502B091B6028D879E8715
:103AC000AF87B88B8093DE029093DF02A093E00271
:103AD000B093E1022090B7023090B8024090B90252
:103AE0005090BA022092E2023092E3024092E40245
:103AF0005092E5026090BB027090BC028090BD02C3
:103B00009090BE026092E6027092E7028092E80214
:103B10009092E902A090BF02B090C002C090C10292
:103B2000D090C202A092EA02B092EB02C092EC02E4
:103B3000D092ED026091CB027091CC02882777FD84
:103B40008095982F0E94C93A0E94963A882777FD5F
:103B50008095982F0E94C93A69837A838B839C83CE
:103B60006091CD027091CE02882777FD8095982FC5
:103B70000E94C93A0E94963A882777FD8095982F2F
:103B80000E94C93A6D837E838F8398876091CF02AC
:103B90007091D002882777FD8095982F0E94C93AAE
:103BA0000E94963A882777FD8095982F0E94C93AFF
:103BB00069877A878B879C876D857E858F859889B5
:103BC00020E030E040E050E00E94D53B7B018C01DA
:103BD000C201B10129813A814B815C810E94D53BB0
:103BE0009B01AC01C801B7010E944C397B018C01DB
:103BF000C401B3012D813E814F8158850E94D53B80
:103C00009B01AC01C801B7010E944C397B018C01BA
:103C1000C601B50129853A854B855C850E94D53B57
:103C20009B01AC01C801B7010E944C396DA37EA372
:103C30008FA398A76D857E858F85988929813A8184
:103C40004B815C810E94D53B7B018C01C201B1019B
:103C500020E030E040E050E00E94D53B9B01AC0109
:103C6000C801B7010E944D397B018C01C401B30129
:103C700029853A854B855C850E94D53B9B01AC012B
:103C8000C801B7010E944D397B018C01C601B50105
:103C90002D813E814F8158850E94D53B9B01AC010F
:103CA000C801B7010E944C3969A77AA78BA79CA7C6
:103CB0006D857E858F8598892D813E814F815885C0
:103CC0000E94D53B7B018C01C201B10129853A8557
:103CD0004B855C850E94D53B9B01AC01C801B701B7
:103CE0000E944C397B018C01C401B30120E030E01B
:103CF00040E050E00E94D53B9B01AC01C801B701F8
:103D00000E944D397B018C01C601B50129813A81A0
:103D10004B815C810E94D53B9B01AC01C801B7017E
:103D20000E944D396DA77EA78FA798AB6D857E85C4
:103D30008F85988929853A854B855C850E94D53B7E
:103D40007B018C01C201B1012D813E814F815885DB
:103D50000E94D53B9B01AC01C801B7010E944D39BF
:103D60007B018C01C401B30129813A814B815C81C3
:103D70000E94D53B9B01AC01C801B7010E944C39A0
:103D80007B018C01C601B50120E030E040E050E04D
:103D90000E94D53B9B01AC01C801B7010E944D397F
:103DA00069AB7AAB8BAB9CAB57FA509457F85094F5
:103DB00097FA909497F89094D7FAD094D7F8D09433
:103DC0006DA17EA18FA198A5A20191010E94D53B72
:103DD0007B018C0169A57AA58BA59CA52D853E85C7
:103DE0004F8558890E94D53B9B01AC01C801B701A2
:103DF0000E944D397B018C016DA57EA58FA598A9E8
:103E0000A60195010E94D53B9B01AC01C801B701F9
:103E10000E944D397B018C0169A97AA98BA99CA9C3
:103E2000A40193010E94D53B9B01AC01C801B701DD
:103E30000E944C390E94963A882777FD8095982FEA
:103E40000E94C93A20E030E040E858E30E94D53BA8
:103E50006DAB7EAB8FAB98AF609396027093970279
:103E600080939802909399026DA17EA18FA198A54D
:103E7000A40193010E94D53B7B018C0169A57AA521
:103E80008BA59CA5A60195010E94D53B9B01AC0189
:103E9000C801B7010E944C397B018C016DA57EA53C
:103EA0008FA598A92D853E854F8558890E94D53BC1
:103EB0009B01AC01C801B7010E944D397B018C0107
:103EC00069A97AA98BA99CA9A20191010E94D53B5D
:103ED0009B01AC01C801B7010E944D390E94963A7E
:103EE000882777FD8095982F0E94C93A20E030E01E
:103EF00040E858E30E94D53B69AF7AAF8BAF9CAFE7
:103F00006DA17EA18FA198A5A60195010E94D53B28
:103F10007B018C0169A57AA58BA59CA5A4019301C1
:103F20000E94D53B9B01AC01C801B7010E944D39ED
:103F30007B018C016DA57EA58FA598A9A201910199
:103F40000E94D53B9B01AC01C801B7010E944C39CE
:103F50007B018C0169A97AA98BA99CA92D853E8535
:103F60004F8558890E94D53B9B01AC01C801B70120
:103F70000E944D390E94963A882777FD8095982FA8
:103F80000E94C93A20E030E040E858E30E94D53B67
:103F900060939E0270939F028093A0029093A1026F
:103FA00089AD9AADABADBCADB05880939A029093F9
:103FB0009B02A0939C02B0939D028091B202882341
:103FC00009F45DC08091820290918302A0918402E5
:103FD000B0918502B0588093820290938302A0939F
:103FE0008402B09385028091860290918702A0910D
:103FF0008802B0918902B05880938602909387021C
:10400000A0938802B093890280918E0290918F02D2
:10401000A0919002B0919102B05880938E0290933B
:104020008F02A0939002B09391028091920290919E
:104030009302A0919402B0919502B058809392029D
:1040400090939302A0939402B09395028DA99EA998
:10405000AFA9B8ADB0588093960290939702A09301
:104060009802B093990289AD9AADABADBCAD809387
:104070009A0290939B02A0939C02B0939D02809120
:10408000DC029091DD0201969093DD028093DC02C8
:1040900080E0EC960FB6F894DEBF0FBECDBFCF9197
:1040A000DF911F910F91FF90EF90DF90CF90BF9025
:1040B000AF909F908F907F906F905F904F903F90C8
:1040C0002F900895EF92FF920F931F938B017A0127
:1040D0007093FF026093FE021092DD021092DC02E8
:1040E0000E94E2080E94300980E090E0A0E0B0E089
:1040F0008093AE029093AF02A093B002B093B1024E
:1041000080E090E00E9441139093D3028093D2020A
:1041100089E70E94E7109093D3028093D20280ED4A
:1041200097E00E94FF0B9093D3028093D20282E02B
:104130000E94A60B9093D3028093D20282E390E078
:104140000E94100B9093D3028093D20282ED92E0F2
:104150000E94120A88E70E94980D9093D3028093E0
:10416000D20280E090E00E949E150E94BD150E9440
:10417000211A9093D3028093D202C7010E9448185B
:104180009093D3028093D202C8010E9403189093A7
:10419000D3028093D20281E00E94DA0F9093D3027F
:1041A0008093D20280E791E00E944C199093D30251
:1041B0008093D20280E01F910F91FF90EF900895BD
:1041C000FC0180E090E0A0E0B0E080879187A287CA
:1041D000B38784839583A683B78380839183A283E7
:1041E000B383808F918FA28FB38F848B958BA68B97
:1041F000B78B848F958FA68FB78F84A395A3A6A323
:10420000B7A380A391A3A2A3B3A384879587A6870E
:10421000B787808B918BA28BB38B80E090E0089561
:1042200020E030E040E050E0FC01248735874687FD
:10423000578708952F923F924F925F926F927F928D
:104240008F929F92AF92BF92CF92DF92EF92FF92A6
:104250000F931F93CF93DF93EC013A014B011801A9
:104260002901CB01BA012C813D814E815F810E94E1
:10427000D53BA20191010E94D53B2C853D854E8501
:104280005F850E944D395B016C016C877D878E874D
:104290009F87E88CF98C0A8D1B8DA80197010E94DD
:1042A000CA3B181664F017FB109517F91095C60154
:1042B000B501A80197010E942A3A882324F4EC86CC
:1042C000FD860E871F8768A179A18AA19BA1A20103
:1042D00091010E942E3A9B01AC01C401B3010E94DE
:1042E0004C39688B798B8A8B9B8BECA0FDA00EA13F
:1042F0001FA1A80197010E944C392EEB39ED4CE526
:104300005FE30E94D53B9B01AC01C801B7010E944D
:104310004D395B016C01688B798B8A8B9B8BC40157
:10432000B301288139814A815B810E94D53B2C856C
:104330003D854E855F850E944D397B018C01C6010C
:10434000B501288539854A855B850E94D53B9B014F
:10435000AC01C801B7010E944C396C8F7D8F8E8FE4
:104360009F8FEC88FD880E891F89A80197010E9404
:10437000CA3B181624F4EC8EFD8E0E8F1F8F8C898D
:104380009D89AE89BF897C018D0117FB109517F9B6
:1043900010956C8D7D8D8E8D9F8DA80197010E944B
:1043A0002A3A882324F4EC8EFD8E0E8F1F8F68A28C
:1043B00079A28AA29BA288899989AA89BB898CA3A0
:1043C0009DA3AEA3BFA3DF91CF911F910F91FF904B
:1043D000EF90DF90CF90BF90AF909F908F907F90A5
:1043E0006F905F904F903F902F900895AC01809117
:1043F0002A0390E0860F911D80970CF03DC0FA01D2
:10440000762F30E0ACE80DC0208198E0822F832722
:10441000369580FD3A27915011F02695F7CF3196C9
:104420007150772389F7FA01E60FF11D30836F5F32
:10443000DA0120E030E21EC080912903803210F0C2
:104440001092290390912903E92FF0E0E55DFC4FDC
:104450008C9180839F5F9093290380912A038F5FC3
:1044600080932A0380912A03813210F030932A032B
:104470002F5F1196261700F30895CF93DF93EC0179
:1044800080910803843008F449C0DE0120E0809167
:1044900008038823E9F09091070380910803981797
:1044A00038F480910803E0910703F0E0B09605C06E
:1044B000E091070380910803F0E0E81BF109E75F52
:1044C000FC4F80818C938091080381508093080376
:1044D0002F5F11962430D9F6FE0130E043E05CE80E
:1044E0000CC0208198E0822F8327369580FD3527E8
:1044F000915011F02695F7CF3196415090F78B816E
:10450000381719F420E030E00BC0809106038F5F6C
:104510008093060310920703109208032FEF3FEFDA
:10452000C901DF91CF9108951F920F920FB60F929C
:1045300011242F938F939F93EF93FF932EB5809128
:104540002A038823F1F09091290380912A03981778
:1045500038F480912A03E0912903F0E0B09605C079
:10456000E091290380912A03F0E0E81BF109E55D61
:10457000FC4F80818EBD80912A03815080932A0355
:1045800001C01EBC80910703803210F01092070317
:1045900080910703E82FF0E0E75FFC4F20838F5FF7
:1045A00080930703809108038F5F809308038091B5
:1045B0000803813218F080E280930803FF91EF91A5
:1045C0009F918F912F910F900FBE0F901F90189574
:1045D00080932B0560932C0570932D058BE295E05D
:1045E00063E00E94F621089560911D0570911E05FB
:1045F00080911F05909120050E94963A9B01AC0185
:1046000082E1B9010E94E8226091FB047091FC04F0
:104610008091FD049091FE040E94963A9B01AC01AA
:1046200083E1B9010E94E8226091FF0470910005C6
:1046300080910105909102050E94963A9B01AC0180
:1046400084E1B9010E94E82260917A0470917B04B0
:1046500080917C0490917D040E94963A9B01AC016C
:1046600085E1B9010E94E82208956F927F928F92AE
:104670009F92AF92BF92CF92DF92EF92FF920F93F1
:104680001F93CF93DF9326E9A22E22E0B22E92E46D
:10469000692E95E0792E8EE4882E85E0982E6301B0
:1046A000E401F501E080F18002811381C801B701C6
:1046B000F60120813181428153810E942A3A882368
:1046C0002CF4F601E082F18202831383C801B70162
:1046D000288139814A815B810E94CA3B181624F4E3
:1046E000E882F9820A831B8384E090E0A80EB91E59
:1046F000C80ED91E249692EAA91692E0B90689F648
:104700008091230564E10E94BF3C992341F51CE0A0
:104710000F2EF0E0CF2EF0E0DF2EF0E0EF2EF0E0F5
:10472000FF2EF02DF401608171818281938120E060
:1047300030E04AE754E40E94D53B0E94963A9B0140
:10474000AC01812FB9010E94E822F401C192D192FB
:10475000E192F1924F011F5F1F3021F729C09A307B
:1047600039F51FE00F2EF0E0CF2EF0E0DF2EF0E065
:10477000EF2EF0E0FF2EF02DF30160817181828138
:10478000938120E030E04AE754E40E94D53B0E9448
:10479000963A9B01AC01812FB9010E94E822F301F6
:1047A000C192D192E192F1923F011F5F123121F744
:1047B000DF91CF911F910F91FF90EF90DF90CF90FD
:1047C000BF90AF909F908F907F906F9008951F93B0
:1047D000CF93DF93CAE8D2E011E069917991899192
:1047E000999120E030E048EC52E40E94D53B0E94D1
:1047F000963A9B01AC01812FB9010E94E8221F5F0C
:10480000143059F7DF91CF911F9108951F93CF93E3
:10481000DF93CEE7D2E014E0699179918991999183
:1048200020E030E048EC52E40E94D53B0E94963AEA
:104830009B01AC01812FB9010E94E8221F5F173054
:1048400059F760912705709128058091290590916D
:104850002A0520E030E048EC52E40E94D53B0E945B
:10486000963A9B01AC0187E0B9010E94E822DF91F2
:10487000CF911F9108951F93CF93DF93C9E5D3E0A4
:1048800018E069917991812F0E94E8221F5F1C3006
:10489000C1F7DF91CF911F91089580912605823055
:1048A00069F0833018F4813059F505C0833081F008
:1048B000843031F51CC00E94352308958091230572
:1048C00064E10E94BF3C992369F40E94E7230895A4
:1048D0008091230564E10E94BF3C992319F40E9452
:1048E000062408959A3061F40E943B240895809133
:1048F000230564E10E94BF3C992311F40E94F42235
:104900000895FC018181882321F470E060E090E04B
:1049100032C090818181A381B481981748F431819C
:104920002081828190E0820F911D831B910905C037
:104930008081218190E0821B9109880F991F880F47
:10494000991FA80FB91F8D919D910D90BC91A02D1D
:104950008093430690934406A0934506B093460681
:1049600081818150818370914306609144069091CA
:10497000450680914606272F362F492F582FB9011B
:10498000CA0108950F931F930DE413E0C8010E941C
:10499000B237C80103960E94B237C80106960E943A
:1049A000B237C80109960E94B2371F910F9108953E
:1049B0006F927F928F929F92AF92BF92CF92DF922F
:1049C000EF92FF920F931F9380913B0590913C05CE
:1049D000019690933C0580933B05895E9D4F20F0A6
:1049E0008FEF80932405A8C00E94881A992787FD1D
:1049F000909590934C0380934B03892B09F09BC0B7
:104A000010913D05183CF8F41431D0F060913E054A
:104A100070913F05809140059091410520919E0243
:104A200030919F024091A0025091A1020E944D3905
:104A300060933E0570933F05809340059093410538
:104A40001F5F10933D0560908A0270908B028090EA
:104A50008C0290908D02C401B30120E030E040E868
:104A60005FEB0E94CA3B18160CF065C0A0908E0246
:104A7000B0908F02C0909002D0909102C601B50113
:104A800020E030E040E85FEB0E94CA3B18160CF0D3
:104A900052C0E0909202F090930200919402109123
:104AA0009502C801B70120E030E040E85FEB0E94CA
:104AB000CA3B18160CF03FC0C401B30120E030E03F
:104AC00040E85FE30E942A3A8823ACF5C601B501AD
:104AD00020E030E040E85FE30E942A3A88235CF55A
:104AE000C801B70120E030E040E85FE30E942A3AC5
:104AF00088230CF560913D0570E064517040882773
:104B000077FD8095982F0E94C93A9B01AC01609176
:104B10003E0570913F0580914005909141050E94AE
:104B20002E3A6093AE027093AF028093B0029093DE
:104B3000B10280E001C08FEF1F910F91FF90EF90C5
:104B4000DF90CF90BF90AF909F908F907F906F90AD
:104B500008950F931F930DE413E060916603709125
:104B60006703C8010E94CC376091660370916703A8
:104B7000C80103960E94CC37609166037091670369
:104B8000C80106960E94CC37609166037091670356
:104B9000C80109960E94CC371F910F9108952F925A
:104BA0003F924F925F926F927F928F929F92AF92BD
:104BB000BF92CF92DF92EF92FF920F931F93DF93FA
:104BC000CF93CDB7DEB72C970FB6F894DEBF0FBEEC
:104BD000CDBF0E942C1A992787FD909590934C0386
:104BE00080934B030E94881A992787FD9095909394
:104BF0004C0380934B0397FF06C00E94A9258DEFBD
:104C00008093240543C5809123058F5F80932305FE
:104C1000883C11F4109223050E94723320913705CD
:104C2000309138054091390550913A05621B730B5C
:104C3000840B950B0E94C73A20E030E04AE754E429
:104C40000E942E3A60930301709304018093050142
:104C5000909306010E947233609337057093380574
:104C60008093390590933A05809103019091040156
:104C7000A0910501B09106018D839E83AF83B88713
:104C8000BC01CD012AE037ED43E25CE30E94CA3B60
:104C9000181634F48EEF809324050E94A925F6C4DB
:104CA00080911B05882309F44BC2815080931B051A
:104CB00060919E0270919F028091A0029091A1024A
:104CC00020E030E845E754E40E94D53B1B012C016D
:104CD0006093DF047093E0048093E1049093E20416
:104CE0006091F3047091F4048091F5049091F604BE
:104CF00020911705309118054091190550911A051A
:104D00000E94D53B2D813E814F8158850E94D53B25
:104D10009B01AC016091E7047091E8048091E90483
:104D20009091EA040E944D395B016C016093E704A5
:104D30007093E8048093E9049093EA04E090F3040C
:104D4000F090F4040091F5041091F604C801B70145
:104D500020911305309114054091150550911605C9
:104D60000E94D53B2D813E814F8158850E94D53BC5
:104D70002091FF04309100054091010550910205FA
:104D80000E944D3969877A878B879C87C801B70154
:104D900020910F0530911005409111055091120599
:104DA0000E94D53B2D813E814F8158850E94D53B85
:104DB0009B01AC016091EB047091EC048091ED04D7
:104DC0009091EE040E944D393B014C016093EB043D
:104DD0007093EC048093ED049093EE04C201B10152
:104DE000A60195010E944D392D813E814F81588544
:104DF0000E94D53B7B018C016093EF047093F0041B
:104E00008093F1049093F20420E030E040E05FE30F
:104E10000E94D53B9B01AC0169857A858B859C8579
:104E20000E944D392D813E814F8158850E94D53B8E
:104E30002091F7043091F8044091F9045091FA045C
:104E40000E944D395B016C016093F7047093F80484
:104E50008093F9049093FA04A40193010E944D39C0
:104E60006093FB047093FC048093FD049093FE0414
:104E700069857A858B859C85A80197010E944D39AB
:104E80006093FF04709300058093010590930205E1
:104E90009091D6048091D804981711F41092D604FA
:104EA0002091D604822F90E0880F991F880F991FB8
:104EB000E091D904F091DA04E80FF91FA082B182E1
:104EC000C282D3822F5F2093D6049091D704809121
:104ED000D804981728F48091D7048F5F8093D70463
:104EE00060911D0570911E0580911F059091200510
:104EF0002091FB043091FC044091FD045091FE048C
:104F00000E944C395B016C016093030570930405AA
:104F10008093050590930605E0908604F090870441
:104F20000091880410918904C801B701A801970174
:104F30000E944D39A80197010E94D53B9B01AC010D
:104F400060E070E08AE793E40E942E3A7B018C01D6
:104F50006093DB047093DC048093DD049093DE04A3
:104F6000A80197010E944D399B01AC01C601B50112
:104F70000E94CA3B18167CF4C601B501A80197012E
:104F80000E944C3920E030E04AEF53E40E94D53BC8
:104F90000E943C3C20C0C801B70120E030E040E066
:104FA00050EC0E94D53B9B01AC01C601B5010E94AB
:104FB0002A3A8823CCF4C601B5019058A80197017C
:104FC0000E944C3920E030E04AEF53E40E94D53B88
:104FD0000E943C3C905860930705709308058093AD
:104FE000090590930A051EC0009103011091040168
:104FF000209105013091060186E894E0B601A501F3
:105000000E941A218091A2049091A304A091A4046B
:10501000B091A5048093070590930805A093090516
:10502000B0930A0560910705709108058091090504
:1050300090910A052091FF043091000540910105EF
:10504000509102050E944C39AB01BC010091030153
:105050001091040120910501309106018EEA94E03F
:105060000E941A21E090E304F090E4040091E5042A
:105070001091E6046091CA047091CB048091CC0435
:105080009091CD042091DF043091E0044091E1043F
:105090005091E2040E944C39A80197010E944C39BA
:1050A00023E833EA44EE5DE30E94D53B9B01AC016B
:1050B000C801B7010E944D39AB01BC01CA01DB0137
:1050C0008093E3049093E404A093E504B093E60492
:1050D0000091030110910401209105013091060116
:1050E0008EE594E00E941A2180911C058823D9F056
:1050F0006091210570912205882777FD8095982F72
:105100000E94C93A20917A0430917B0440917C043A
:1051100050917D040E944D390E94963A7093360555
:10512000609335050FC086E894E00E9410218EEA56
:1051300094E00E9410218EE594E00E94102102C0AC
:1051400010921C05E0908602F09087020091880280
:1051500010918902C801B70120E030E040E050E042
:105160000E94CA3B18165CF4C801B70120E030E089
:1051700048E452E40E94CA3B18165CF01AC0C80109
:10518000B70120E030E048E452EC0E942A3A88233C
:1051900084F480917E0290917F02A0918002B09170
:1051A00081028093270590932805A0932905B09349
:1051B0002A05E0908202F09083020091840210910F
:1051C0008502C801B70120E030E040E050E00E94D5
:1051D000CA3B18165CF4C801B70120E030E048E48F
:1051E00052E40E94CA3B18165CF01AC0C801B7010D
:1051F00020E030E048E452EC0E942A3A882384F40C
:1052000080917E0290917F02A0918002B0918102F4
:105210008093270590932805A0932905B0932A052C
:10522000E0902705F09028050091290510912A05A6
:10523000A0907E02B0907F02C0908002D090810248
:10524000C801B701A60195010E944C3920E030E069
:1052500044E353EC0E942A3A88235CF4D801C70146
:10526000B0588093270590932805A0932905B09303
:105270002A05E0902705F090280500912905109156
:105280002A05C801B701A60195010E944C3920E00A
:1052900030E044E353E40E94CA3B18165CF4D801A2
:1052A000C701B0588093270590932805A09329053E
:1052B000B0932A0520912F0530913005B90137FFB1
:1052C00004C066277727621B730B6630710594F163
:1052D000C9010E94DF3C8BEF9FEFDB01A89FB0016B
:1052E000A99F700DB89F700D1124620F731F88273E
:1052F00077FD8095982F0E94C93A9B01AC0160917F
:105300005A0470915B0480915C0490915D040E944A
:10531000D53B6093FE037093FF038093000490934A
:105320000104A0922705B0922805C0922905D092C9
:105330002A051AC0609127057091280580912905DA
:1053400090912A05A60195010E944C39AB01BC0140
:105350000091030110910401209105013091060193
:1053600082EE93E00E941A21809125058823B9F5E9
:105370006091310570913205882777FD8095982FCF
:105380000E94C93A209182023091830240918402A6
:10539000509185020E944C39AB01BC010091030180
:1053A0001091040120910501309106018AE094E0FA
:1053B0000E941A216091330570913405882777FD8A
:1053C0008095982F0E94C93A2091860230918702D9
:1053D00040918802509189020E944C3939C0813035
:1053E00009F044C06091310570913205882777FD3E
:1053F0008095982F0E94C93A20915A0430915B04FD
:1054000040915C0450915D040E94D53BAB01BC010E
:1054100000910301109104012091050130910601D2
:105420008AE094E00E941A2160913305709134055E
:10543000882777FD8095982F0E94C93A20915A04B9
:1054400030915B0440915C0450915D040E94D53B17
:10545000AB01BC01009103011091040120910501F1
:105460003091060182E394E00E941A21FEEFCF2ED4
:10547000F3E0DF2EEAE8AE2EE2E0BE2E66247724CB
:1054800078E2872E912C689C7001699CF00C789CC6
:10549000F00C1124EAE6F3E0EE0EFF1ED6016D914A
:1054A0007D918D919C91F501219131914191519185
:1054B0005F010E944C39AB01BC01009103011091C6
:1054C00004012091050130910601C7010E941A21B3
:1054D0000894611C711C48E250E0C40ED51E53E0D4
:1054E0006516710481F6609135057091360588273F
:1054F00077FD8095982F0E94C93A1B012C0180915D
:10550000D6039091D703A091D803B091D903898392
:105510009A83AB83BC83C201B10129813A814B815B
:105520005C810E944D395B016C01E090AE03F0900C
:10553000AF030091B0031091B103609086037090A7
:1055400087038090880390908903A80197010E94A7
:105550004C39A40193010E944D390E94963A7093F0
:105560005A0360935903C601B501A80197010E942F
:105570004D39A40193010E944C390E94963A7093D0
:105580005C0360935B03C201B10129813A814B81C5
:105590005C810E944C395B016C01A80197010E945B
:1055A0004C39A40193010E944C390E94963A7093A1
:1055B0005E0360935D03C601B501A80197010E94D7
:1055C0004D39A40193010E944D390E94963A70937F
:1055D000600360935F030E944D2420913505309154
:1055E00036058091680390916903281739075CF5A7
:1055F0000E94A92580917E0290917F02A091800255
:10560000B09181028093270590932805A0932905E6
:10561000B0932A058AE693E00E94102182EE93E07F
:105620000E94102182E993E00E9410218AE094E018
:105630000E9410218AEB93E00E94102182E394E003
:105640000E94102123C069E5E62E63E0F62E00E0FB
:1056500010E0D7018D919C9160916803709169036E
:10566000681779070CF4BC01F701619371937F010E
:10567000C801880F991F800F911F835B9C4F0E9468
:10568000CC370F5F1F4F0430110519F72C960FB65A
:10569000F894DEBF0FBECDBFCF91DF911F910F9168
:1056A000FF90EF90DF90CF90BF90AF909F908F9042
:1056B0007F906F905F904F903F902F90089580E97A
:1056C00091E060E00E94CD0680E00E94AD378CE062
:1056D00061E00E9414348CB580648CBD8CB5806808
:1056E0008CBD0895EF92FF920F931F93BAE6EB2EB5
:1056F000B3E0FB2EC7010E94E02002EE13E0C801D8
:105700000E94E020C70188960E94E020C801889688
:105710000E94E0208AEB93E00E94E02082E394E084
:105720000E94E0208EE594E00E94E0208EEA94E062
:105730000E94E02086E894E00E94E0201092D704C6
:105740008091D70406ED14E0F80181938F018FE07A
:105750008093D8048CE390E00E94A7348093D9040E
:10576000F801938380E090E0A0ECB0E480930B0517
:1057700090930C05A0930D05B0930E0580E090E08A
:10578000A0E0BFE380930F0590931005A09311054F
:10579000B093120580E595E5A5E5BFE38093130579
:1057A00090931405A0931505B09316058EED9EEA0F
:1057B000A7E9BBE38093170590931805A0931905FB
:1057C000B0931A0580E090E0A0E0B0E08093270558
:1057D00090932805A0932905B0932A0510922305DC
:1057E00010922405109225051092260510920603AA
:1057F00010921C0580931D0590931E05A0931F0514
:10580000B093200510922205109221058093DF04A9
:105810009093E004A093E104B093E2048093E30446
:105820009093E404A093E504B093E6048093E70426
:105830009093E804A093E904B093EA048093EB0406
:105840009093EC04A093ED04B093EE048093EF04E6
:105850009093F004A093F104B093F2048093F304C6
:105860009093F404A093F504B093F6048093F704A6
:105870009093F804A093F904B093FA048093FB0486
:105880009093FC04A093FD04B093FE048093FF0466
:1058900090930005A0930105B09302051F910F910D
:1058A000FF90EF900895FC01880F991F8E0F9F1FA6
:1058B000EF59FC4F6081835B9C4F70E00E948738FA
:1058C0000895AF92BF92CF92DF92EF92FF920F9323
:1058D0001F93CF93DF9380915A058823A1F48AE523
:1058E00095E00E947537892B71F00E9472336093A6
:1058F00066057093670580936805909369058AE54E
:1059000095E00E947F370E947233209166053091A6
:1059100067054091680550916905621B730B840B04
:10592000950B655C79408040904090F010921C058A
:1059300010923605109235051092340510923305F9
:1059400010923205109231051092300510922F05F9
:105950008BE295E00E943D22892B09F00AC6E09176
:105960002B0590912D0580E020912C05C22FD0E0D1
:10597000C82BD92BE53609F484C3E63608F072C08B
:10598000E53409F4FCC1E63488F5EB3009F414C1C0
:10599000EC30B0F4E93068F4E53008F000C1E330F1
:1059A00009F4E1C0E43008F0F1C0E23009F0E1C5EB
:1059B000D7C0E93009F4F8C0EA3009F0DAC5F7C019
:1059C000EF3009F462C1E03138F4ED3009F4FEC083
:1059D000EE3008F00AC1F5C0E13109F4C6C1E13189
:1059E00008F466C1E23109F0C4C5C4C1E23509F466
:1059F00094C2E335D8F4E93409F443C2EA3460F4DC
:105A0000E73409F41DC2BE01882777FD8095982FE1
:105A1000E83408F025C209C2E03509F45EC2E13578
:105A200008F06BC2EA3409F0A4C541C2EB3509F4B1
:105A3000C6C2EC3550F4E43509F49BC2E43508F4F1
:105A400082C2EA3509F095C5AAC2ED3509F4DDC276
:105A5000ED3508F4C4C2EE3509F4EDC2E43609F0C0
:105A600088C5FFC2EA3C09F44EC4EB3C08F03FC0D5
:105A7000E23709F49AC3E337D8F4EE3609F453C396
:105A8000EF3650F4E73609F422C3E73608F409C3C9
:105A9000E83609F06EC531C3E03709F45FC3BE01D3
:105AA000882777FD8095982FE13708F06DC34BC3A9
:105AB000EB3709F4C6C3EC3750F4E93709F49BC35C
:105AC000EA3708F0A8C3E83709F053C584C3E238C1
:105AD00009F4E3C3E33820F4EC3709F04AC5C7C33F
