:100000000C9492060C94BA060C94BA060C94BA0698
:100010000C94BA060C94BA060C94BA060C94BA0660
:100020000C94BA060C94BA060C94BA060C94BA0650
:100030000C94BA060C94BA060C94791C0C943E1CD1
:100040000C94E0310C947A1D0C943F340C948D3454
:100050000C94BA060C94BA060C94BA060C94BA0620
:100060000C94BA060C94BA06036EDB363D9A999945
:10007000993DABAAAA2A3E000000803F084AD73B20
:100080003BCE016E84BCBFFDC12F3D6C74319ABD67
:1000900056833DDA3D00C77F11BED9E4BB4C3E918B
:1000A0006BAAAABE000000803F072C7AA5BA6CC5D7
:1000B00090DA3B9365FC8BBC53F810FD3C56928361
:1000C0004DBD879D3AB63DCBC9BF5BBE73DA0FC944
:1000D0003F00007000000000240000000200030048
:1000E0000000650054FFEF0000FA80000B12820050
:1000F00001030C30C30E8C8CE914D5400213710F30
:100100008E3883F8833000F883258EF8833000F82A
:1001100083FFFFFFFF0FFEA9D6240004001A827997
:10012000A10000003CFFFF00000010000038836FBA
:10013000A2003E03304000000002CAE3093E8000F6
:1001400000200000000000000040000000600000EF
:1001500000000C0000000C186E000006920A16C089
:10016000DFFFFF0256FD8CD377FFE1C496E0C5BEEA
:10017000AA00000000FFFF0B2B0000165700000331
:10018000594000000000001DFA00026C1D00000034
:10019000003FFFDFEB003EB3B6000D227800002FDA
:1001A0003C00000000001942B5000039A20000B375
:1001B00065D90E9FC91DCF4C34300000005000009F
:1001C000003BB67AE80064000000C80000000000B0
:1001D00000100000001000FA921000225E000D22B4
:1001E0009F0001000000320000FF46000063D400C1
:1001F000001000000004D6000004CC000004CC0075
:10020000000000107200000040000000000000002C
:100210000000060002000500070000000000640066
:100220000000000000000000050005006400200040
:10023000000000000000000000000040000000037B
:100240000000000032F8980000FF650000830F00F6
:1002500000FF9BFC00000000000000000000000008
:10026000000000000000000000000000000000008E
:10027000000000000000000000000000000000106E
:100280000040000000000000060000B26A0002000A
:10029000000001FB830068000000D9FC007CF1FF36
:1002A000830000000000650000006403E8006400B3
:1002B00028000000250000000016A000000000102B
:1002C0000000001000002F0000000001F4000010EA
:1002D0000000280000FFFF4581FFFFFA72000000C8
:1002E0000000000000004400050005BAC600477881
:1002F000A200000001000000000000060000000055
:10030000140000254D002F706D000005AE000C029A
:10031000D00000000000000000000000000000000D
:1003200000001B00000000000000000000000000B2
:100330000000640000000800000000000000000051
:1003400000000000000000000000000000000000AD
:10035000000000000000000000000000000000009D
:10036000000000000000000000000000000000008D
:10037000000000000000000000000000000000007D
:10038000000000000000000000000000000000006D
:1003900000001B00000000000000000000000E0034
:1003A0000E00000AC70004000000000032FFFFFF3B
:1003B0009C00000B2B000000020000000100000068
:1003C00064FFE500000000000000000000000000E5
:1003D000000000000100000000000100000000001B
:1003E0000000018000000180000001800000242640
:1003F000D30000000000000000000600100096007E
:100400003C000000000000000000000000000000B0
:10041000000C0A4E68CDCF770950166759C619CE21
:10042000820000000000000000000000000000004A
:1004300000000000000000000017D7840003000047
:10044000000000000000000000C7938F9D1E1B1CD1
:100450001900000000000000000000000000000083
:1004600000000000000000000002031885000040AA
:100470000000000003000000030000000000000076
:10048000004000000000000000000000000000002C
:10049000000000000000000000000000000000005C
:1004A000000000000000000000000000000000004C
:1004B0000000000000677DDF7E72902E554CF6E64E
:1004C00088000000000000000000000000000000A4
:1004D00000D8DCB4B8B0D8B9ABF3F8FAB3B7BB8E78
:1004E0009EAEF132F51BF1B4B8B08097F1A9DFDF11
:1004F000DFAADFDFDFF2AAC5CDC7A90CC92C97F1AF
:10050000A989264666B28999A92D557DB0B08AA8D9
:1005100096365676F1BAA3B4B280C0B8A89711B295
:100520008398BAA3F0240844106418B2B9B498832D
:10053000F1A329557DBAB5B1A38393F0002850F5F6
:10054000B2B6AA839328547CF1B9A3829361BAA26C
:10055000DADEDFDB819AB9AEF5606870F1DABAA253
:10056000DFD9BAA2FAB9A38292DB31BAA2D9BAA270
:10057000F8DF85A4D0C1BBAD83C2C5C7B8A2DFDF99
:10058000DFBAA0DFDFDFD8D8F1B8AAB38DB4980DF9
:10059000355DB2B6BAAF8C96198F9FA70E161EB4F2
:1005A0009AB8AA872C547CBAA4B08AB691325676EF
:1005B000B28494A4C808CDD8B8B4B0F19982A82D5B
:1005C000557D98A80E161EA22C547C92A4F02C5097
:1005D00078F184A898C4CDFCD80DDBA8FC2DF3D904
:1005E000BAA6F8DABAA6DED8BAB2B68696A6D0F31C
:1005F000C841DAA6C8F8D8B0B4B882A892F52C548D
:100600008898F135D9F418D8F1A2D0F8F9A884D98E
:10061000C7DFF8F883C5DADF69DF83C1D8F40114D6
:10062000F1A8824EA884F311D182F5D99228978837
:10063000F109F41C1CD884A8F3C0F9D1D99782F130
:1006400029F40DD8F3F9F9D1D982F4C203D8DEDF49
:100650001AD8F1A2FAF9A88498D9C7DFF8F8F88374
:10066000C7DADF69DFF883C3D8F40114F198A882F0
:100670002EA884F311D182F5D992509788F109F40C
:100680001CD884A8F3C0F8F9D1D99782F149F40DA8
:10069000D8F3F9F9D1D982F4C403D8DEDFD8F1ADAB
:1006A0008898CCA809F9D98292A8F57CF1883ACF2C
:1006B000944A6E98DB6931DAADF2DEF9D88795A8F5
:1006C000F221D1DAA5F9F417D9F1AE8ED0C0C3AEBC
:1006D00082C684C3A88595C8A588F2C0F1F4010E2E
:1006E000F18E9EA8C63E56F554F18872F40115F1BC
:1006F0009845856EF58E9E0488F142985A8E9E0626
:100700008869F4011CF1981E1108D0F504F11E97B8
:100710000202983625DBF9D985A5F3C1DA85A5F360
:10072000DFD88595A8F309DAA5FAD88292A8F578DA
:10073000F1881A849F26889821DAF41DF3D8879FC0
:1007400039D1AFD9DFDFFBF9F40CF3D8FAD0F8DAFE
:10075000F9F9D0DFD9F9D8F40BD8F3879F39D1AFA5
:10076000D9DFDFF41DF3D8FAFCA869F9F9AFD0DAC4
:10077000DEFAD9F88F9FA8F1CCF398DB45D9AFDF2B
:10078000D0F8D8F18F9FA8CAF38809DAAF8FCBF8D9
:10079000D8F2AD978D0CD9A5DFF9BAA6F3FAF41209
:1007A000F2D8950DD1D9BAA6F3FADAA5F2C1BAA654
:1007B000F3DFD8F1BAB2B68696A6D0CAF349DAA664
:1007C000CBF8D8B0B4B8D8AD84F2C0DFF18FCBC3CA
:1007D000A8B2B68696C8C1CBC3F3B0B48898A82196
:1007E000DB718D9D71859521D9ADF2FAD88597A8D9
:1007F00028D9F408D8F28D29DAF405D9F285A4C2F3
:10080000F2D8A88D9401D1D9F411F2D88721D8F467
:100810000AD8F28498A8C801D1D9F411D8F3A4C891
:10082000BBAFD0F2DEF8F8F8F8F8F8F8F8D8F1B87D
:10083000F6B5B9B08A95A3DE3CA3D9F8D85CA3D9A4
:10084000F8D87CA3D9F8D8F8F9D1A5D9DFDAFAD845
:10085000B18530F7D9DED8F830ADDADED8F2B48C15
:1008600099A32D557DA083DFDFDFB591A0F629D9AF
:10087000FBD8A0FC29D9FAD8A0D051D9F8D8FC517E
:10088000D9F9D879D9FBD8A0D0FC79D9FAD8A1F96F
:10089000F9F9F9F9A0DADFDFDFD8A1F8F8F8F8F80C
:1008A000ACDEF8ADDE8393AC2C547CF1A8DFDFDF47
:1008B000F69D2CDAA0DFD9FADB2DF8D8A850DAA003
:1008C000D0DED9D0F8F8F8DB55F8D8A878DAA0D07F
:1008D000DFD9D0FAF8F8F8F8DB7DF8D89CA88CF5C9
:1008E00030DB38D9D0DEDFA0D0DEDFD8A848DB5837
:1008F000D9DFD0DEA0DFD0DED8A868DB70D9DFDF9B
:10090000A0DFDFD8F1A888902C547C98A8D05C3860
:10091000D1DAF2AE8CDFF9D8B087A8C1C1B188A80E
:10092000C6F9F9DA36D8A8F9DA36D8A8F9DA36D815
:10093000A8F9DA36D8A8F9DA36D8F78D9DADF818C7
:10094000DAF2AEDFD8F7ADFA30D9A4DEF9D8F2AEDC
:10095000DEFAF983A7D9C3C5C7F1889BA77AADF79B
:10096000DEDFA4F8849408A797F300AEF29819A4E8
:1009700088C6A39488F632DFF28393DB09D9F2AA02
:10098000DFD8D8AEF8F9D1DAF3A4DEA7F1889B7AE4
:10099000D8F38494AE19F9DAAAF1DFD8A881C0C3DC
:1009A000C5C7A39283F628ADDED9F8D8A350ADD938
:1009B000F8D8A378ADD9F8D8F8F9D1A1DADEC3C553
:1009C000C7D8A18194F818F2B089ACC3C5C7F1D8D3
:1009D000B8B4B09786A8319B069907AB9728889B37
:1009E000F00C201440B0B4B8F0A88A9A285078B718
:1009F0009BA8295179247059446938644831F1BB66
:100A0000AB88002C547CF0B38BB8A804285078F144
:100A1000B088B49726A85998BBABB38B022646661C
:100A2000B0B8F08A9CA82951798B2951798A247011
:100A3000598B2058718A4469388B3940688A6448D8
:100A4000318B30496088F1AC002C547CF08CA804C8
:100A5000285078F1889726A85998AC8C02264666CB
:100A6000F0899CA829517924705944693864483127
:100A7000A98809205970AB11384069A8193148601C
:100A80008CA83C415C207C00F187981986A86E7682
:100A90007EA999882D557DD8B1B5B9A3DFDFDFAE2A
:100AA000D0DFAAD0DEF2ABF8F9D9B087C4AAF1DF63
:100AB000DFBBAFDFDFB9D8B1F1A3978E60DFB084C1
:100AC000F2C8F8F9D9DED89385F14AB183A308B505
:100AD000839A0810B79F10D8F1B0BAAEB08AC2B2EC
:100AE000B68E9EF1FBD9F41DD8F9D90CF1D8F8F8DF
:100AF000AD61D9AEFBD8F40CF1D8F8F8AD19D9AE88
:100B0000FBDFD8F416F1D8F8AD8D61D9F4F4ACF56B
:100B10009C9C8DDF2BBAB6AEFAF8F40BD8F1AED0B0
:100B2000F8AD51DAAEFAF8F1D8B9B1B6A3839C08A2
:100B3000B9B1839AB5AAC0FD3083B79F10B58B9326
:100B4000F20202D1ABDADED8F1B080BAABC0C3B2E8
:100B500084C1C3D8B1B9F38BA391B609B4D9ABDEC4
:100B6000B0879CB9A3DDF1B38B8B8B8B8BB087A344
:100B7000A3A3A3B28BB69BF2A3A3A3A3A3A3A3A3F4
:100B8000A3A3F1B087B59AA3F39BA3A3DCBAACDF10
:100B9000B9A3A3A3A3A3A3A3A3A3A3A3A3A3A3A30F
:100BA000A3D8D8D8BBB3B7F1AAF9DAFFD9809AAAEB
:100BB00028B48098A720B79787A86688F07951F164
:100BC000902C870CA781976293F0717160859401D6
:100BD00029517990A5F1284C6C870C95188578A33C
:100BE0008390284C6C886CD8F3A28200F210A892F3
:100BF0001980A2F2D926D8F188A84DD948D896A84C
:100C00003980D93CD89580A839A68698D92CDA871E
:100C1000A72CD8A8899519A980D938D8A88939A925
:100C200080DA3CD8A82EA83990D90CD8A89531984C
:100C3000D90CD8A809D9FFD801DAFFD89539A9DA93
:100C400026FFD890A80D8999A810809821DA2ED86F
:100C50008999A83180DA2ED8A886963180DA2ED8E4
:100C6000A8873180DA2ED8A88292F34180F1D92E5C
:100C7000D8A882F31980F1D92ED882ACF3C0A28013
:100C800022F1A62EA72EA92298A829DAACDEFFD839
:100C9000A2F22AF1A92E8292A8F23180A696F1D969
:100CA00000AC8C9C0C30ACDED0DEFFD88C9CACD081
:100CB00010ACDE8092A2F24C82A8F1CAF235F19615
:100CC00088A6D900D8F1FF00000000240027002AE0
:100CD0000000000000250028002B00000000002379
:100CE000002600290004040404040404040202028F
:100CF000020202030303030303010204081020405D
:100D000080010204081020010204081020000000E5
:100D100007000201000003040600000000000000BC
:100D20000000723511241FBECFEFD8E0DEBFCDBF6B
:100D300011E0A0E0B1E0EEEFF3E702C005900D9204
:100D4000A235B107D9F715E0A2E5B1E001C01D92C7
:100D5000A93EB107E1F71DE0C4E2DDE004C022973F
:100D6000FE010E94F939C232D107C9F70E94C83585
:100D70000C94BC060C940000F8940C94FD39FB0113
:100D8000DC0104C08D910190801921F44150504044
:100D9000C8F7881B990B0895FC011092BC006623CC
:100DA00019F088B1806302C088B18F7C88B9109235
:100DB000B9009F01442737FD4095542F60E87EE33A
:100DC00080E090E00E94DC392051304040405040AB
:100DD000CA01B90122E030E040E050E00E94DC3975
:100DE0002093B80084E08093BC000895482F440FFE
:100DF00092E064EB54E86093BC002AEF30E080910D
:100E0000BC0087FD34C0215030408FEF2F3F3807A2
:100E1000B1F727C08091B900887F883021F08031F8
:100E200011F082E008954093BB005093BC002AEF7C
:100E300030E08091BC0087FD1EC0215030408FEF14
:100E40002F3F3807B1F70FC08091B900887F8032FB
:100E500021F4992351F09150CECF883131F480E0C4
:100E6000089581E0089583E0089584E008951216BE
:100E7000130684F2F6CF1216130634F3F4CFEF9272
:100E8000FF920F931F93162FE42E022FF32E0E9432
:100E9000F6061093BB0084E88093BC002AEF30E094
:100EA0008091BC0087FD07C0215030408FEF2F3F5D
:100EB0003807B1F703C0121613063CF0802F9F2DA0
:100EC0009C01F90190E044E81CC08091B900F6CF84
:100ED00080818093BB004093BC002AEF30E080917A
:100EE000BC0087FD07C0215030408FEF2F3F3807EF
:100EF000B1F705C01216130614F48091B9009F5F74
:100F000031969E1528F384E98093BC002AEF30E0E7
:100F10008091BC0087FD06C02115310519F02150D4
:100F20003040F6CF81E01F910F91FF90EF90089530
:100F30001F93F82F122F72E0B4EBE82FEE7FA4E896
:100F4000B093BC002AEF30E08091BC0087FDD0C098
:100F5000215030408FEF2F3F3807B1F7B7C0809155
:100F6000B900887F883021F0803111F091E1BDC057
:100F7000E093BB00A093BC002AEF30E08091BC005E
:100F800087FDBBC0215030408FEF2F3F3807B1F7AE
:100F90009FC09091B900987F903229F4772309F48B
:100FA00099C07150CDCF983109F094C06093BB00C7
:100FB00084E88093BC002AEF30E08091BC0087FD7C
:100FC000A1C0215030408FEF2F3F3807B1F784C0C8
:100FD0008091B900887F883211F095E186C062E087
:100FE000A4EB7F2F7160E4E8A093BC002AEF30E00F
:100FF0008091BC0087FD8BC0215030408FEF2F3F88
:101000003807B1F76BC08091B900887F883021F034
:10101000803111F097E169C07093BB00E093BC0090
:101020002AEF30E08091BC0087FD76C0215030402F
:101030008FEF2F3F3807B1F758C08091B900887FF4
:10104000883429F4662309F44BC06150CDCF803435
:1010500009F046C0FA0160E0412F50E04150504095
:10106000A4EC74E822C0862F90E08417950719F449
:101070007093BC0002C0A093BC002AEF30E08091C6
:10108000BC0087FD4EC0215030408FEF2F3F380706
:10109000B1F728C09091B900987F903511F098353C
:1010A00021F58091BB0081936F5F6117E0F284E9C5
:1010B0008093BC002AEF30E08091BC0087FD14C013
:1010C0002115310589F021503040F6CF90E10DC057
:1010D00092E10BC093E109C094E107C096E105C01D
:1010E00099E103C09AE101C090E0892F1F91089512
:1010F000121613060CF433CFE9CF121613060CF4B4
:1011000048CFE6CF121613060CF462CFE5CF1216C5
:1011100013060CF478CFE2CF121613060CF48DCF21
:10112000E4CF121613060CF4B5CFDCCF7F928F926A
:101130009F92AF92BF92CF92DF92EF92FF920F9366
:101140001F93CF93DF93F82EE62E742E6901E801EA
:101150000E9428324B015C018F2D880F6E2DA60155
:10116000272D0E949807882311F01FEF01C0172D2B
:101170002097C1F00E942832681979098A099B09D1
:101180009E0140E050E0621773078407950750F016
:10119000212F332727FD3095872D90E02817390719
:1011A0000CF41FEF812FDF91CF911F910F91FF90D2
:1011B000EF90DF90CF90BF90AF909F908F907F90F7
:1011C0000895AC018230910518F02FEF3FEF44C035
:1011D00080933E0290933F029C01220F331F75E0E3
:1011E000880F991F7A95E1F7821B930B8E5A9E4FB9
:1011F0009093370280933602CA0163E0880F991FEB
:101200006A95E1F7280F391F22573E4F3093390274
:101210002093380287E290E09C01429FC001439FE7
:10122000900D529F900D11248E559E4F90933B022E
:1012300080933A0283E290E09C01429FC001439F69
:10124000900D529F900D112480519E4F90933D021E
:1012500080933C0220E030E0C90108950F931F9372
:10126000CF93DF93C0913602D091370285E7888310
:1012700089E189838AE18A838CE08B838AE68C8387
:1012800083E28D838BE18E838CE18F838FE18A876C
:1012900080E28B8782E78C8784E78D8783E48E8763
:1012A0008BE38F8781E4888B88E3898B89E38A8B42
:1012B0008AE38B8B8BE68D8B8CE68E8B87E38F8B13
:1012C0008FE6888F86E0898F84E28A8F8DE68B8F08
:1012D0008EE68C8F80E78D8F80913E0290913F0249
:1012E000009719F0019769F406C0E0913802F09177
:1012F000390288E605C0E0913802F091390289E6AA
:101300008083009138021091390280E094E0F80166
:101310009283818386E7838384E591E09583848348
:1013200087EF9DEF9783868380E091E091878087A8
:1013300020913A0230913B0283E890E0A0E0B0E0D7
:10134000F90180839183A283B38380E098E0A0E0D9
:10135000B0E084839583A683B783108681E081877C
:10136000128688E1838782E390E09587848785E011
:10137000868780E090E0A0E2B1E48787908BA18B24
:10138000B28B80E090E0A2EDB2E4838B948BA58BCE
:10139000B68B49E25CE56FE07EE3478B508F618F4F
:1013A000728F8AE999E9A9E9BEE3838F948FA58FAB
:1013B000B68F83E393E3A3E7BFE3878F90A3A1A353
:1013C000B2A343A354A365A376A3E0913C02F0919A
:1013D0003D02D183C0831383028332A321A3DF9113
:1013E000CF911F910F910895DC01E0913C02F091A3
:1013F0003D028681882319F081E08C9301C01C9204
:1014000080E090E00895DF93CF930F92CDB7DEB7E1
:10141000982FA0913C02B0913D025D968C915D9712
:10142000882321F0992389F082E00DC016968C91D3
:1014300016978823E9F0992341F01C968C911C970C
:101440008823F9F481E0898301C019821296ED9115
:10145000FC9113970D90BC91A02D808151966C91B9
:1014600041E09E012F5F3F4F0E943F07882319F400
:101470002FEF3FEF08C0E0913C02F0913D028981DF
:10148000848720E030E0C9010F90CF91DF9108956B
:10149000CF92DF92EF92FF920F931F93DF93CF9340
:1014A00000D0CDB7DEB7D82EC92E8B017A014115F9
:1014B000510519F42FEF3FEF41C0E0913C02F0914C
:1014C0003D028681882319F42EEF3FEF37C0A281B9
:1014D000B3819B012D0D311D18968D919C9119970B
:1014E0008217930718F42DEF3FEF28C0C982DA82E4
:1014F0000190F081E02D8C91638D42E09E012F5F81
:101500003F4F0E943F07882319F42CEF3FEF16C08E
:10151000E0913C02F0913D02A281B3810190F08103
:10152000E02D8C91608D402F97010E943F0788230A
:1015300019F020E030E002C02BEF3FEFC9010F901F
:101540000F90CF91DF911F910F91FF90EF90DF905F
:10155000CF9008951F93DF93CF930F92CDB7DEB74F
:10156000182FA0913C02B0913D025C968C915C9743
:10157000811781F1112319F080E3898301C0198259
:101580001D968C911D97882319F08981826089832B
:101590005B968C915B97882319F089818068898399
:1015A0001296ED91FC9113970D90BC91A02D808126
:1015B00057966C9141E09E012F5F3F4F0E943F077D
:1015C000882319F42FEF3FEF07C0E0913C02F09120
:1015D0003D02148F20E030E0C9010F90CF91DF91E0
:1015E0001F910895DF93CF930F92CDB7DEB79C0183
:1015F000A0913C02B0913D0216968C9116978823DB
:1016000099F12C3B310510F081E015C022363105EF
:1016100010F082E010C02A32310510F083E00BC0D8
:101620002431310510F084E006C02A30310510F075
:1016300085E001C086E0898317969C911797898180
:101640009817D9F01296ED91FC9113970D90BC91DB
:10165000A02D808112966C9141E09E012F5F3F4F3B
:101660000E943F07882319F42FEF3FEF08C0E09155
:101670003C02F0913D028981878320E030E0C9017E
:101680000F90CF91DF910895DF93CF930F92CDB755
:10169000DEB7982FA0913C02B0913D0216968C9136
:1016A00016978823A1F1943061F0953018F49230A8
:1016B00071F505C0983039F0903149F506C01982AE
:1016C00006C088E003C080E101C088E189831596E7
:1016D0002C91159730E0898190E043E095958795AE
:1016E0004A95E1F72817390709F11296ED91FC9117
:1016F00013970D90BC91A02D808117966C9141E0BD
:101700009E012F5F3F4F0E943F07882319F42FEF60
:101710003FEF0EC0E0913C02F0913D02898190E0E4
:10172000A3E095958795AA95E1F7858320E030E0C1
:10173000C9010F90CF91DF910895DF93CF930F925E
:10174000CDB7DEB79C01A0913C02B0913D02169648
:101750008C9116978823E1F181E0243F380791F0BE
:1017600081E0253F380720F42A3F310589F508C07C
:1017700083E0283E380741F0205D374049F506C038
:10178000198206C088E003C080E101C088E1898336
:1017900014962C91149730E0898190E063E0959540
:1017A00087956A95E1F72817390709F11296ED91A7
:1017B000FC9113970D90BC91A02D808116966C9191
:1017C00041E09E012F5F3F4F0E943F07882319F49D
:1017D0002FEF3FEF0EC0E0913C02F0913D02898176
:1017E00090E053E0959587955A95E1F7848320E042
:1017F00030E0C9010F90CF91DF910895FF920F93D0
:101800001F93DF93CF930F92CDB7DEB7F82E082F3B
:1018100010E0C80180779070892B11F081E005C03D
:10182000FF2011F0198202C080E48983E0913C021C
:10183000F0913D02A281B3810190F081E02D8C9165
:10184000658941E09E012F5F3F4F0E943F07A091B5
:101850003C02B0913D02882319F416961C9230C0C8
:1018600089818F7B18968C931897198206FD02C088
:1018700084E0898305FD03C089818260898304FD3A
:1018800003C089818160898303FD03C089818863E6
:1018900089831296ED91FC9113970D90BC91A02D28
:1018A000808156966C9141E09E012F5F3F4F0E94D0
:1018B0003F07882341F4E0913C02F0913D021682FB
:1018C0002FEF3FEF16C0FF2031F088E0F81619F037
:1018D00080E00E94AA0AE0913C02F0913D02F6826B
:1018E000178662E370E080E090E00E94363220E0EC
:1018F00030E0C9010F90CF91DF911F910F91FF90C0
:1019000008950F931F93DF93CF930F92CDB7DEB758
:10191000A0913C02B0913D0216968C9116978823B7
:1019200009F41BC119821296ED91FC9113970D9049
:10193000BC91A02D808151966C9141E08E010F5F8A
:101940001F4F98010E943F07882309F406C1E091C8
:101950003C02F0913D02A281B3810190F081E02D23
:101960008C91658141E098010E943F07882309F42A
:10197000F4C0E0913C02F0913D02A281B38101905C
:10198000F081E02D8C91648141E098010E943F0735
:10199000882309F4E2C0A0913C02B0913D025D961B
:1019A0008C915D97882309F469C08CE08983129635
:1019B000ED91FC9113970D90BC91A02D8081149610
:1019C0006C9141E098010E943F07882309F4C5C04B
:1019D00062E370E080E090E00E94363280EC898320
:1019E000A0913C02B0913D0216968C91169780FF13
:1019F00002C080EE89831296ED91FC9113970D90B1
:101A0000BC91A02D808114966C9141E09E012F5FC6
:101A10003F4F0E943F07882309F49FC0A0913C02DA
:101A2000B0913D021C968C911C97882319F082E09E
:101A3000898301C019821296ED91FC9113970D9044
:101A4000BC91A02D808151966C9141E08E010F5F79
:101A50001F4F98010E943F07882309F47EC0198216
:101A6000E0913C02F0913D02A281B3810190F081AE
:101A7000E02D8C91658141E098016BC084E0898301
:101A80001296ED91FC9113970D90BC91A02D808141
:101A900014966C9141E098010E943F07882309F455
:101AA0005CC0A0913C02B0913D021D968C911D97A7
:101AB000882329F416968C91169780FD02C080E445
:101AC00001C080E689831296ED91FC9113970D90E9
:101AD000BC91A02D808114966C9141E09E012F5FF6
:101AE0003F4F0E943F078823C1F162E370E080E02E
:101AF00090E00E943632A0913C02B0913D021C96CB
:101B00008C911C97882319F081E0898301C0198288
:101B10001296ED91FC9113970D90BC91A02D8081B0
:101B200051966C9141E09E012F5F3F4F0E943F070D
:101B3000882399F0E0913C02F0913D02A281B381AB
:101B4000208131813B968C91D90115966C9141E0B1
:101B50009F010E943F07882319F42FEF3FEF02C037
:101B600020E030E0C9010F90CF91DF911F910F91DC
:101B700008950F931F93CF93DF93982FE0913C022A
:101B8000F0913D02858D882319F0C0E0D0E029C096
:101B90008681882321F1192F1E7F03858123838766
:101BA000811719F4C0E0D0E002C0CFEFDFEF1123BE
:101BB00019F48785882331F081E00E94030A1123FC
:101BC00081F004C080E00E94030A0BC00E94810CD7
:101BD000892B39F0E0913C02F0913D020387CFEF71
:101BE000DFEFCE01DF91CF911F910F9108951F93E9
:101BF000DF93CF9300D0CDB7DEB7182F893208F02E
:101C000058C08823F9F480E00E94AA0A198287E06C
:101C10008A83E0913C02F0913D02A281B381019060
:101C2000F081E02D8C91658942E09E012F5F3F4F4E
:101C30000E943F078823E9F1E0913C02F0913D02C8
:101C4000178646C081E00E94AA0A80E2898311308B
:101C500011F41A8204C0163028F481E08A8385E0EA
:101C600090E00BC0153128F482E08A838AE090E08E
:101C700004C083E08A8384E190E00E94F20A8A81B2
:101C80008295880F880F807C87608A83E0913C0270
:101C9000F0913D02A281B3810190F081E02D8C9101
:101CA000658942E09E012F5F3F4F0E943F078823D6
:101CB00019F42FEF3FEF0EC0E0913C02F0913D028E
:101CC00088E08683108681E0878780E00E94B90DD6
:101CD00020E030E0C9010F900F90CF91DF911F916C
:101CE00008950F931F93DF93CF930F92CDB7DEB775
:101CF0008C01E0913C02F0913D0286818823B9F18C
:101D0000858D8823A1F58785882359F0C80101971F
:101D1000889720F4802F0E94F70D3FC080E00E943A
:101D2000F70D0430110518F464E070E007C0B80145
:101D300083E0093E180710F068EE73E088EE93E048
:101D40000E94933961506983E0913C02F0913D0219
:101D5000A281B3810190F081E02D8C91618141E0FD
:101D60009E012F5F3F4F0E943F07882319F42FEFFA
:101D70003FEF15C0698170E06F5F7F4F88EE93E0A1
:101D80000E94A739CB01E0913C02F0913D0272879D
:101D90006187969587950E94F20A20E030E0C9019C
:101DA0000F90CF91DF911F910F910895CF92DF9205
:101DB000EF92FF920F931F93DF93CF9300D0CDB795
:101DC000DEB7182F092F7B016A0141155105D1F1AA
:101DD000E0913C02F0913D028681882399F1A28135
:101DE000B3819B01210F311D18968D919C911997FC
:101DF0008217930738F109831A830190F081E02D4F
:101E00008C91638D42E09E012F5F3F4F0E943F0700
:101E10008823C1F0E0913C02F0913D02A281B381A0
:101E20000190F081E02D00910001109101018C9151
:101E3000608D4E2D96010E949608882319F020E0AF
:101E400030E002C02FEF3FEFC9010F900F90CF910C
:101E5000DF911F910F91FF90EF90DF90CF90089549
:101E60002F923F924F925F926F927F928F929F92AA
:101E7000AF92BF92CF92DF92EF92FF920F931F9398
:101E8000DF93CF93CDB7DEB764970FB6F894DEBF7C
:101E90000FBECDBF3C014B014B8B5C8B1901E09118
:101EA0003C02F0913D02868D882319F02FEF3FEF21
:101EB00075C06115710519F42EEF3FEF6FC080E119
:101EC00090E00E940933B92EC82ED92EA82EEE24F8
:101ED000FF24E3E04E2E512C4C0E5D1E38C08301D2
:101EE0000E191F090131110510F000E110E09401F5
:101EF0002E0D3F1DD601A601400F511F05C0F9014F
:101F000084918D932F5F3F4FA417B507C1F7C70189
:101F1000B801A5010E94480A892B19F02DEF3FEF67
:101F20003DC0C701B801A2010E94D60E892B19F04D
:101F30002CEF3FEF33C0C501B201A8010E94BF06DC
:101F4000009719F02BEF3FEF29C0E00EF11EE614C9
:101F5000F70428F2FC89F9838B898A83E0913C029B
:101F6000F0913D02A281B3810190F081E02D8C912E
:101F7000658D42E09E012F5F3F4F0E943F078823FF
:101F800019F42AEF3FEF0AC0E0913C02F0913D02C4
:101F900081E0868F30A2278E20E030E0C901649670
:101FA0000FB6F894DEBF0FBECDBFCF91DF911F916A
:101FB0000F91FF90EF90DF90CF90BF90AF909F90E8
:101FC0008F907F906F905F904F903F902F900895EB
:101FD000DF92EF92FF920F931F93DF93CF930F92B5
:101FE000CDB7DEB7D82EE0913C02F0913D02858559
:101FF0008D1509F49EC0A281B3810190F081E02D7E
:1020000000910001109101017E010894E11CF11C76
:10201000DD2089F18C91648141E097010E9496084E
:10202000882309F47EC089818F7D8983E0913C02F9
:10203000F0913D02A281B3810190F081E02D8C915D
:10204000648141E097010E943F07882309F469C039
:1020500063E070E080E090E00E94363282E08983A5
:10206000A0913C02B0913D025B968C915B978823D6
:10207000F1F182E839C08C91648141E097010E94BE
:102080009608882309F44DC0A0913C02B0913D020E
:1020900016968C911697998180FF02C0906201C0BC
:1020A0009F7D99831296ED91FC9113970D90BC91B1
:1020B000A02D808114966C9141E09E012F5F3F4FCF
:1020C0000E943F07882369F163E070E080E090E0C0
:1020D0000E943632A0913C02B0913D025B968C91F9
:1020E0005B97882319F080E8898301C019825C9688
:1020F0008C915C97882319F089818063898312967B
:10210000ED91FC9113970D90BC91A02D8081579675
:102110006C9141E09E012F5F3F4F0E943F07882353
:1021200019F42FEF3FEF07C0E0913C02F0913D0220
:10213000D58620E030E0C9010F90CF91DF911F914B
:102140000F91FF90EF90DF900895DF93CF930F9260
:10215000CDB7DEB7982FE0913C02F0913D02858D1E
:10216000891709F44AC0992369F1868D882319F4E7
:102170002FEF3FEF44C080E00E94030A80E00E94FE
:10218000E80FE0913C02F0913D02878D90A10E9402
:10219000710E1982E0913C02F0913D020280F381C0
:1021A000E02D808163E241E09E012F5F3F4F0E945E
:1021B0003F07E0913C02F0913D0281E0858F0E9453
:1021C000030A19C080E00E94030AE0913C02F091EA
:1021D0003D02838589830280F381E02D808163E263
:1021E00041E09E012F5F3F4F0E943F07E0913C027C
:1021F000F0913D02158E0E94810C20E030E0C90173
:102200000F90CF91DF9108956F927F928F929F925E
:10221000AF92BF92CF92DF92EF92FF920F931F93F4
:10222000DF93CF9300D0CDB7DEB76C013B014A01FD
:10223000A0913C02B0913D025D968C915D97882300
:1022400019F42FEF3FEF7CC016968C9116978823D8
:1022500019F42EEF3FEF74C01296ED91FC91139795
:102260000D90BC91A02D0091000110910101808181
:102270001C966C9142E05E010894A11CB11C950172
:102280000E949608882319F42DEF3FEF59C09981D9
:1022900080E02A81E22EFF24E82AF92AEC14FD04CA
:1022A00028F4F401108221E030E04AC0E0913C02C1
:1022B000F0913D02A281B38111968D919C9112976C
:1022C000969587958E159F05D0F40190F081E02DAD
:1022D00000910001109101018C91638941E0950109
:1022E0000E949608882319F42BEF3FEF29C08981BB
:1022F00084FF05C00E94810C22E030E021C0E09103
:102300003C02F0913D02A281B3810190F081E02D69
:1023100000910001109101018C9165854C2D930174
:102320000E949608882319F429EF3FEF09C0C701DE
:10233000B6010E9493396150F401608320E030E0DF
:10234000C9010F900F90CF91DF911F910F91FF90D6
:10235000EF90DF90CF90BF90AF909F908F907F9045
:102360006F900895EF92FF920F931F93DF93CF9397
:1023700000D000D000D0CDB7DEB780E88983E091EF
:102380003C02F0913D02A281B3810190F081E02DE9
:102390008C91658941E07E010894E11CF11C970154
:1023A0000E943F07882319F42FEF3FEFDBC064E65C
:1023B00070E080E090E00E9436321982E0913C02A9
:1023C000F0913D02A281B3810190F081E02D8C91CA
:1023D000658941E097010E943F07882319F42EEF99
:1023E0003FEFC0C0E0913C02F0913D02A281B38179
:1023F0000190F081E02D00910001109101018C917C
:10240000618D46E097010E949608882319F42DEF0C
:102410003FEFA8C08E8190E081709070880F991F67
:10242000880F991F2C8130E021703070220F331FEC
:10243000982F922B8A818170982B91F0913031F4F2
:10244000E0913C02F0913D02968732C0923019F043
:102450002CEF3FEF87C0E0913C02F0913D0227C096
:10246000E0913C02F0913D02A281B3810190F081A4
:10247000E02D00910001109101018C91638141E0F8
:1024800097010E949608882319F42BEF3FEF6AC04A
:1024900089818F7019F42AEF3FEF64C0E0913C020C
:1024A000F0913D02843019F481E0868701C01686E0
:1024B000E0913C02F0913D022FEF26832483258397
:1024C00027838FEF9FEF928781872387258781E07E
:1024D0008087838F148E108A178671968AE01192F6
:1024E0008A95E9F7E0913C02F0913D02158E168E37
:1024F00010A2178E80ED97E00E949D0B892B19F09A
:1025000026EF3FEF2FC082E00E94440B892B19F089
:1025100025EF3FEF27C08AE290E00E94F20A892B64
:1025200019F024EF3FEF1EC082E390E00E94710E8D
:10253000892B19F023EF3FEF15C080E00E94B90D01
:10254000892B19F022EF3FEF0DC080E00E94E80FC9
:10255000892B19F020EF3FEF05C080E00E94FE0BB1
:1025600020E030E0C90126960FB6F894DEBF0FBE1A
:10257000CDBFCF91DF911F910F91FF90EF90089504
:102580009C018230910518F02FEF3FEF16C0809329
:102590005802909359028BE090E0AC01249FC00157
:1025A000259F900D349F900D1124805C9D4F90933A
:1025B00057028093560220E030E0C9010895E0916F
:1025C0005602F091570211821082138212821582F4
:1025D00014821782168211861086128608952F9211
:1025E0003F924F925F926F927F928F929F92AF92A3
:1025F000BF92CF92DF92EF92FF920F931F93DF93E0
:10260000CF93CDB7DEB7AC970FB6F894DEBF0FBE51
:10261000CDBF9EA38DA378A76FA32A013AA729A7B0
:102620001CA70BA7A701D8011D921C92E09156028E
:10263000F0915702828590E0BE016F5F7F4F0E944C
:1026400004119CA38BA3892B09F0B2C1E09156021F
:10265000F0915702FAA3E9A3868197818471907063
:10266000892B11F440E017C1A980BB24CC24DD24C0
:10267000DA2CCC24BB24AA248A8190E0A0E0B0E02C
:10268000DC0199278827A82AB92ACA2ADB2A8C8143
:1026900090E0A0E0B0E0A82AB92ACA2ADB2A8B8100
:1026A00090E0A0E0B0E0BA2FA92F982F8827A82AA1
:1026B000B92ACA2ADB2AD201AD92BD92CD92DC9210
:1026C00013972D8130E040E050E0522F442733270C
:1026D00022278E8190E0A0E0B0E0DC0199278827D6
:1026E000282B392B4A2B5B2B888590E0A0E0B0E0AB
:1026F000282B392B4A2B5B2B8F8190E0A0E0B0E098
:10270000BA2FA92F982F8827282B392B4A2B5B2BE0
:10271000F2012483358346835783298530E040E0E6
:1027200050E0522F4427332722278A8590E0A0E0EB
:10273000B0E0DC0199278827282B392B4A2B5B2B0B
:102740008C8590E0A0E0B0E0282B392B4A2B5B2B46
:102750008B8590E0A0E0B0E0BA2FA92F982F8827B2
:10276000282B392B4A2B5B2BD20118962D933D93A6
:102770004D935C931B972D8530E040E050E0522F45
:102780004427332722278E8590E0A0E0B0E0DC01CB
:1027900099278827282B392B4A2B5B2B888990E097
:1027A000A0E0B0E0282B392B4A2B5B2B8F8590E0E3
:1027B000A0E0B0E0BA2FA92F982F8827282B392B1B
:1027C0004A2B5B2B24873587468757875601DD24A4
:1027D000B7FCD094CD2C64807580868097803401BE
:1027E000992477FC9094892C2084318442845384EA
:1027F0001201552437FC5094452C9A01552737FD7A
:102800005095452FCA01B9010E9468397B018C019E
:10281000C601B501A60195010E946839E60EF71EB2
:10282000081F191FC401B301A40193010E94683954
:10283000E60EF71E081F191FC201B101A201910186
:102840000E946839E60EF71E081F191F80E090E00D
:10285000A0E0B1EFE80EF91E0A1F1B1F91E0E91678
:1028600090E0F90690E0090792E0190758F00E94FD
:10287000810CABA5BCA51D921C92E3E0F0E0FCA38B
:10288000EBA396C0ABA5BCA58D919C9111979160CF
:102890008D939C9340E1E9A1FAA1868186FF39C01E
:1028A000A42FB0E0FE01EA0FFB1F228130E0FE0101
:1028B000EA0FFB1F918180E0282B392BEFA1F8A5AF
:1028C00031832083FE01EA0FFB1F338120E0FE01EC
:1028D000EA0FFB1F848190E0282B392BEFA1F8A58C
:1028E00033832283FE01EA0FFB1F358120E08681BE
:1028F00090E0282B392BAFA1B8A515963C932E93C9
:1029000014974A5FEBA5FCA5808191818860918333
:102910008083A9A1BAA116968D919C911797807872
:102920009170892BC1F1A42FB0E0FE01EA0FFB1FCB
:10293000228130E0FE01EA0FFB1F918180E0282B0D
:10294000392BEDA1FEA131832083FE01EA0FFB1F8D
:10295000338120E0FE01EA0FFB1F848190E0282BE9
:10296000392BEDA1FEA133832283FE01EA0FFB1F69
:10297000358120E0868190E0282B392BADA1BEA1C6
:1029800015963C932E931497EBA5FCA5808191811D
:1029900080679183808389A59AA5892B49F00E943D
:1029A0002832A9A5BAA56D937D938D939C93139717
:1029B0008BA19CA1AC960FB6F894DEBF0FBECDBF25
:1029C000CF91DF911F910F91FF90EF90DF90CF900B
:1029D000BF90AF909F908F907F906F905F904F903F
:1029E0003F902F900895DF93CF93CDB7DEB729970F
:1029F0000FB6F894DEBF0FBECDBF9E012F5F3F4FD5
:102A0000882349F0D901E0E2F1E089E001900D92DC
:102A10008150E1F708C0D901E7E1F1E089E00190D8
:102A20000D928150E1F788EB94E069E070E0AE012F
:102A30004F5F5F4F0E94480A29960FB6F894DEBF99
:102A40000FBECDBFCF91DF9108950F931F93DF93FA
:102A5000CF93CDB7DEB728970FB6F894DEBF0FBE81
:102A6000CDBF8C01893C9105F0F488EC90E0B80171
:102A70000E9493396150704079836A8386E192E0C5
:102A800062E070E0AE014F5F5F4F0E94480A892B01
:102A900051F481EC9AE06CE070E049E251E00E9470
:102AA000480A892B19F02FEF3FEF08C0E09156023A
:102AB000F09157021187008720E030E0C901289685
:102AC0000FB6F894DEBF0FBECDBFCF91DF911F913F
:102AD0000F910895EF92FF920F931F93DF93CF937F
:102AE00000D000D000D0CDB7DEB78C01AC01437070
:102AF0005070FA01E25CFE4F80818983C801E3E0F7
:102B000096958795EA95E1F783709070FC01E25CF9
:102B1000FE4F20812A83D80176E0B695A7957A9555
:102B2000E1F7A370B070FD01E25CFE4F20812B83C2
:102B3000455C5E4FFA0120812C83855C9E4FFC0131
:102B400080818D83A55CBE4F8C918E8386E294E05C
:102B500063E070E07E010894E11CF11CA7010E9473
:102B6000480A892B09F04BC08AE294E063E070E0E8
:102B7000AE014C5F5F4F0E94480A892B09F03FC0AD
:102B8000D701E8E3F1E083E001900D928150E1F795
:102B9000DE011496E5E3F1E083E001900D928150AF
:102BA000E1F702FF06C08981816089838C818160A1
:102BB0008C8305FF06C08A8181608A838D81816054
:102BC0008D8310FF06C08B8181608B838E81816035
:102BD0008E8380E494E063E070E0AE014F5F5F4F6E
:102BE0000E94480A892B59F481E394E063E070E085
:102BF000AE014C5F5F4F0E94480A892B19F02FEFFE
:102C00003FEF08C0E0915602F0915702158304830C
:102C100020E030E0C90126960FB6F894DEBF0FBE63
:102C2000CDBFCF91DF911F910F91FF90EF9008954D
:102C3000DF93CF9300D000D0CDB7DEB7882349F023
:102C400080E2898388E28A8380E38B8388E38C83B4
:102C500008C083EA93EAA3EAB3EA89839A83AB8341
:102C6000BC838EE99AE064E070E0AE014F5F5F4F95
:102C70000E94480A0E94810C0F900F900F900F90B5
:102C8000CF91DF910895DF93CF9300D000D0CDB7DF
:102C9000DEB7882349F080EC898382EC8A8384EC58
:102CA0008B8386EC8C8308C08BE89BE8ABE8BBE8A1
:102CB00089839A83AB83BC8388E99AE064E070E0FF
:102CC000AE014F5F5F4F0E94480A0E94810C0F9037
:102CD0000F900F900F90CF91DF910895AF92BF9218
:102CE000CF92DF92EF92FF920F931F93DF93CF93D8
:102CF000CDB7DEB72A970FB6F894DEBF0FBECDBFB3
:102D00008C0182E089838AEC8A8383EE8B8389E05D
:102D10008C8388E690E064E070E0AE014F5F5F4F27
:102D20000E94480A83EA8983B0E4AB2EB12CA0222A
:102D3000B12206FF06C080EC8A8388EC8B8382EC8C
:102D400002C08A838B838C83A0E8EA2EA1E0FA2E4E
:102D5000E022F122E114F10431F084EC8D838CEC5B
:102D60008E8386EC03C083EA8D838E838F8383EA10
:102D7000888789878A8787EA9AE06AE070E0AE01EF
:102D80004F5F5F4F0E94480AF3E0CF2ED12CC02244
:102D9000D122C114D10411F080E201C088ED8983F1
:102DA00086EB9AE061E070E0AE014F5F5F4F0E94FA
:102DB000480A05FF02C081E001C080E00E94F314D0
:102DC000E114F104D9F010FF08C082EB89838BE88D
:102DD0008A8386EB8B838BE907C080EB898380E84D
:102DE0008A8384EB8B8380E98C8382EA9AE064E0B7
:102DF00070E0AE014F5F5F4F0E94480A02FF02C0C1
:102E000081E001C080E00E94431604FF02C081E01F
:102E100001C080E00E941816E0915602F09157021E
:102E2000C8018860978386830E94810CE0915602D6
:102E3000F09157021286AB2811F086E08287EF28C6
:102E400019F082858A5F828704711070012B19F056
:102E50008285805F8287CD2819F082858C5F82878A
:102E600080E090E02A960FB6F894DEBF0FBECDBF8B
:102E7000CF91DF911F910F91FF90EF90DF90CF9056
:102E8000BF90AF90089586EF9BE061ED70E040E069
:102E900054E028EC30E00E94300F08952F923F92CA
:102EA0004F925F926F927F928F929F92AF92BF925A
:102EB000CF92DF92EF92FF920F931F93DF93CF9306
:102EC000CDB7DEB764970FB6F894DEBF0FBECDBFA7
:102ED000109293021092920284E992E06AE972E001
:102EE00042E852E020E030E002E912E0F0EAEF2EA2
:102EF000F2E0FF2E0E94EF129093A2028093A102B3
:102F0000009709F0DAC28091A0028230E8F084E9EB
:102F100092E06AE972E042E852E020E030E002E943
:102F200012E0E0EAEE2EE2E0FE2E0E94EF129C019B
:102F30009093A2028093A1028091A002823008F4B3
:102F4000BBC2232B21F3B8C260918202709183022D
:102F500080918402909185020E94913720E030E0B8
:102F600040E850E30E949D381B012C0160938202CF
:102F7000709383028093840290938502609186020D
:102F80007091870280918802909189020E94913706
:102F900020E030E040E850E30E949D3869837A8366
:102FA0008B839C8360938602709387028093880250
:102FB0009093890260918A0270918B0280918C02B9
:102FC00090918D020E94913720E030E040E850E37C
:102FD0000E949D385B016C0160938A0270938B02A2
:102FE00080938C0290938D0260918E0270918F027B
:102FF00080919002909191020E94913720E030E000
:1030000040E850E30E949D386D837E838F839887CC
:1030100060938E0270938F0280939002909391023E
:10302000C601B501A60195010E949D3869877A877E
:103030008B879C876093A5027093A6028093A7025A
:103040009093A8026D817E818F8198859B01AC0150
:103050000E949D386D877E878F87988B6093A90229
:103060007093AA028093AB029093AC02C201B101AB
:10307000A20191010E949D38698B7A8B8B8B9C8B6E
:103080006093AD027093AE028093AF029093B00252
:1030900069817A818B819C812D813E814F81588508
:1030A0000E949D387B018C01C201B101A6019501EE
:1030B0000E949D389B01AC01C801B7010E941436E3
:1030C0003B014C016093B1027093B2028093B30252
:1030D0009093B40225EE32EF4FEF5EE30E949238F8
:1030E0001816BCF4C601B501A20191010E949F36D9
:1030F0009B01AC010E9415366093620270936302DB
:1031000080936402909365028BED9FE0A9ECBFE38E
:1031100022C0C401B30125EE32EF4FEF5EEB0E94F7
:10312000F23688236CF5C601B501A20191010E9417
:103130009F3620E030E040E050EC0E949D386093E4
:1031400062027093630280936402909365028BED38
:103150009FE0A9ECBFEB80935E0290935F02A09387
:103160006002B093610280E090E0A0E0B0E0809364
:103170005A0290935B02A0935C02B0935D0294C0EC
:1031800069817A818B819C81A20191010E949D3885
:103190007B018C01C601B5012D813E814F8158858F
:1031A0000E949D389B01AC01C801B7010E941536F1
:1031B0009B01AC010E9415367B018C016D857E85DB
:1031C0008F85988929893A894B895C890E941536AF
:1031D00020E030E040E050EC0E949D3820E030E0FC
:1031E00040E85FE30E9415369B01AC01C801B701BE
:1031F0000E949F3660936202709363028093640220
:1032000090936502C401B301A40193010E94153695
:103210000E94793660935E0270935F028093600231
:103220009093610269817A818B819C81A6019501CD
:103230000E949D387B018C016D817E818F819885F4
:10324000A20191010E949D389B01AC01C801B70108
:103250000E9414369B01AC010E9415367B018C0143
:1032600069857A858B859C852D853E854F85588916
:103270000E94153620E030E040E050EC0E949D387E
:1032800020E030E040E85FE30E9415369B01AC018E
:10329000C801B7010E949F3660935A0270935B0287
:1032A00080935C0290935D0260915A0270915B0280
:1032B00080915C0290915D0221EE3EE245E652E48F
:1032C0000E949D38905860935A0270935B028093DD
:1032D0005C0290935D0260915E0270915F0280914A
:1032E00060029091610221EE3EE245E652E40E94C6
:1032F0009D38905860935E0270935F0280936002E5
:103300009093610260916202709163028091640205
:103310009091650221EE3EE245E652E40E949D381E
:103320005B016C0120E030E044E353E40E94153679
:103330007B018C0120E030E044E353E40E949238AA
:10334000181654F4C601B50120E030E044E353E41C
:103350000E9414367B018C01D801C701B0588093BC
:10336000620290936302A0936402B093650260913D
:10337000980270919902882777FD8095982F0E9476
:10338000913720E030E043E851E40E94F636609344
:10339000660270936702809368029093690260915D
:1033A000960270919702882777FD8095982F0E944A
:1033B000913720E030E043E851E40E94F636609314
:1033C0006A0270936B0280936C0290936D0260911D
:1033D000940270919502882777FD8095982F0E941E
:1033E000913720E030E043E851E40E94F6366093E4
:1033F0006E0270936F0280937002909371026091DD
:103400009A0270919B02882777FD8095982F0E94E1
:10341000913720E030E040E858E30E949D38609307
:10342000720270937302809374029093750260919C
:103430009C0270919D02882777FD8095982F0E94AD
:10344000913720E030E040E858E30E949D386093D7
:10345000760270937702809378029093790260915C
:103460009E0270919F02882777FD8095982F0E9479
:10347000913720E030E040E858E30E949D382091E9
:103480007E0230917F0240918002509181020E9421
:10349000143660937A0270937B0280937C0290933F
:1034A0007D028091A3029091A40201969093A402C0
:1034B0008093A30280E001C081E864960FB6F8947F
:1034C000DEBF0FBECDBFCF91DF911F910F91FF9057
:1034D000EF90DF90CF90BF90AF909F908F907F90B4
:1034E0006F905F904F903F902F9008950E94810CB5
:1034F0000895EF92FF920F931F938B017A017093BF
:10350000B6026093B5021092A4021092A3020E9428
:10351000E1080E942E0980E090E0A0E0B0E08093F6
:103520007E0290937F02A0938002B093810280E09C
:1035300090E00E94B2119093A2028093A10288E7CA
:103540000E94FE0B9093A2028093A10280ED97E06F
:103550000E949D0B9093A2028093A10282E00E94A0
:10356000440B9093A2028093A10281EA92E00E9410
:10357000F40988E70E94B90D9093A2028093A102FA
:1035800080E090E00E94C0120E94DF120E94431768
:103590009093A2028093A102C7010E946A159093A2
:1035A000A2028093A102C8010E9425159093A20255
:1035B0008093A10281E00E94A5109093A2028093C3
:1035C000A10280E791E00E946E169093A202809380
:1035D000A10280E01F910F91FF90EF900895FC01F0
:1035E00080E090E0A0E0B0E080879187A287B38779
:1035F00084839583A683B78380839183A283B383D7
:10360000808F918FA28FB38F848B958BA68BB78B76
:10361000848F958FA68FB78F84A395A3A6A3B7A3F6
:1036200080A391A3A2A3B3A384879587A687B78716
:10363000808B918BA28BB38B80E090E0089520E08B
:1036400030E040E050E0FC0124873587468757870B
:1036500008952F923F924F925F926F927F928F9236
:103660009F92AF92BF92CF92DF92EF92FF920F9311
:103670001F93CF93DF93EC013A014B01180129010D
:10368000CB01BA012C813D814E815F810E949D3822
:10369000A20191010E949D382C853D854E855F8554
:1036A0000E9415365B016C016C877D878E879F8732
:1036B000E88CF98C0A8D1B8DA80197010E94923825
:1036C000181664F017FB109517F91095C601B5018F
:1036D000A80197010E94F236882324F4EC86FD8627
:1036E0000E871F8768A179A18AA19BA1A2019101E0
:1036F0000E94F6369B01AC01C401B3010E9414364E
:10370000688B798B8A8B9B8BECA0FDA00EA11FA1EF
:10371000A80197010E94143621EB30E945EC5EE3E5
:103720000E949D389B01AC01C801B7010E9415366B
:103730005B016C01688B798B8A8B9B8BC401B30115
:10374000288139814A815B810E949D382C853D8585
:103750004E855F850E9415367B018C01C601B5013F
:10376000288539854A855B850E949D389B01AC017F
:10377000C801B7010E9414366C8F7D8F8E8F9F8F8A
:10378000EC88FD880E891F89A80197010E94923854
:10379000181624F4EC8EFD8E0E8F1F8F8C899D8958
:1037A000AE89BF897C018D0117FB109517F9109523
:1037B0006C8D7D8D8E8D9F8DA80197010E94F236B4
:1037C000882324F4EC8EFD8E0E8F1F8F68A279A2C1
:1037D0008AA29BA288899989AA89BB898CA39DA367
:1037E000AEA3BFA3DF91CF911F910F91FF90EF90F8
:1037F000DF90CF90BF90AF909F908F907F906F9011
:103800005F904F903F902F9008958091B7029091D4
:10381000B80253E0959587955A95E1F79093890002
:10382000809388008091B9029091BA0243E0959507
:1038300087954A95E1F78093B4008091BB029091FF
:10384000BC0233E0959587953A95E1F78093C202E3
:103850008091BD029091BE0223E0959587952A95AF
:10386000E1F78093C0028091C20280958093C102EB
:103870008091C00280958093BF0208951F920F929D
:103880000FB60F9211248F939F938091C4028823C7
:1038900059F48091C00281115D9A88B59091C0025F
:1038A000980F98BD81E008C0813049F488B59091A7
:1038B000C002980F98BD82E08093C40213C082308A
:1038C00041F45D9888B59091BF02980F98BD83E050
:1038D000F3CF833039F498B58091BF02890F88BD4A
:1038E0001092C4029F918F910F900FBE0F901F9066
:1038F00018951F920F920FB60F9211248F939F93DA
:103900008091C302882359F48091C20281115E9A8A
:1039100087B59091C202980F97BD81E008C08130B1
:1039200049F487B59091C202980F97BD82E08093C9
:10393000C30213C0823041F45E9887B59091C102F2
:10394000980F97BD83E0F3CF833039F497B580911A
:10395000C102890F87BD1092C3029F918F910F9072
:103960000FBE0F901F9018958091020161E00E9498
:10397000CA328091030161E00E94CA328091040141
:1039800061E00E94CA328091050161E00E94CA3262
:10399000E0E8F0E0808180688083E0EBF0E0808107
:1039A0008062808314BCEEE6F0E0808184608083D6
:1039B0008081826080830895AC018091E90290E06B
:1039C000860F911D80970CF03DC0FA01762F30E0F4
:1039D000ACE80DC0208198E0822F8327369580FDCA
:1039E0003A27915011F02695F7CF319671507723F1
:1039F00089F7FA01E60FF11D30836F5FDA0120E0ED
:103A000030E21EC08091E802803210F01092E8028D
:103A10009091E802E92FF0E0E651FD4F8C91808310
:103A20009F5F9093E8028091E9028F5F8093E902A3
:103A30008091E902813210F03093E9022F5F1196F4
:103A4000261700F30895CF93DF93EC018091C7020E
:103A5000843008F449C0DE0120E08091C702882349
:103A6000E9F09091C6028091C702981738F48091CE
:103A7000C702E091C602F0E0B09605C0E091C60230
:103A80008091C702F0E0E81BF109E853FD4F808107
:103A90008C938091C70281508093C7022F5F11964B
:103AA0002430D9F6FE0130E043E05CE80CC0208110
:103AB00098E0822F8327369580FD3527915011F0AD
:103AC0002695F7CF3196415090F78B81381719F42E
:103AD00020E030E00BC08091C5028F5F8093C5026B
:103AE0001092C6021092C7022FEF3FEFC901DF917B
:103AF000CF9108951F920F920FB60F9211242F931A
:103B00008F939F93EF93FF932EB58091E9028823C3
:103B1000F1F09091E8028091E902981738F48091D1
:103B2000E902E091E802F0E0B09605C0E091E80219
:103B30008091E902F0E0E81BF109E651FD4F808138
:103B40008EBD8091E90281508093E90201C01EBCC4
:103B50008091C602803210F01092C6028091C60297
:103B6000E82FF0E0E853FD4F20838F5F8093C6027B
:103B70008091C7028F5F8093C7028091C702813214
:103B800018F080E28093C702FF91EF919F918F918F
:103B90002F910F900FBE0F901F9018958093E50402
:103BA0006093E6047093E70485EE94E063E00E947E
:103BB000DC1C08956091CE047091CF048091D004F4
:103BC0009091D1040E945E379B01AC0182E1B90162
:103BD0000E94CE1D6091A8047091A9048091AA044E
:103BE0009091AB040E945E379B01AC0183E1B90167
:103BF0000E94CE1D6091AC047091AD048091AE0422
:103C00009091AF040E945E379B01AC0184E1B90141
:103C10000E94CE1D6091230470912404809125049C
:103C2000909126040E945E379B01AC0185E1B901A9
:103C30000E94CE1D0895BF92CF92DF92EF92FF9225
:103C40000F931F93CF93DF93BB2438C0CB2CDD247D
:103C5000F601EE0FFF1FEE0FFF1FEE58FD4FE08045
:103C6000F18002811381E601CC0FDD1FCC0FDD1F37
:103C7000CA5FDA4FC801B701288139814A815B8167
:103C80000E94F236882324F4E882F9820A831B8397
:103C9000E601CC0FDD1FCC0FDD1FCE5EDA4FC80171
:103CA000B701288139814A815B810E9492381816B8
:103CB00024F4E882F9820A831B83B39482E08B1593
:103CC00028F6B092E0048091DB0464E10E94873919
:103CD0009923F1F51092E0040F2EF0E0CF2EF0E0E2
:103CE000DF2EF0E0EF2EF0E0FF2EF02D2CC01E2F87
:103CF000145FF0E0EE0FFF1FEE0FFF1FEE5EFA4FB6
:103D0000608171818281938120E030E04AE754E450
:103D10000E949D380E945E379B01AC01812FB90142
:103D20000E94CE1D8091E004E82FF0E0EE0FFF1F0F
:103D3000EE0FFF1FEE5EFA4FC082D182E282F38265
:103D40008F5F8093E004E091E004E33080F23FC0B5
:103D50009A30E9F51092E0040F2EF0E0CF2EF0E05B
:103D6000DF2EF0E0EF2EF0E0FF2EF02D2CC01E2F06
:103D7000115FF0E0EE0FFF1FEE0FFF1FEA5FFA4F3B
:103D8000608171818281938120E030E04AE754E4D0
:103D90000E949D380E945E379B01AC01812FB901C2
:103DA0000E94CE1D8091E004E82FF0E0EE0FFF1F8F
:103DB000EE0FFF1FEA5FFA4FC082D182E282F382E8
:103DC0008F5F8093E004E091E004E33080F2DF91C4
:103DD000CF911F910F91FF90EF90DF90CF90BF9008
:103DE00008951F931092E00420C01E2F1F5FF0E083
:103DF000EE0FFF1FEE0FFF1FEA59FD4F608171812B
:103E00008281938120E030E048EC52E40E949D38AA
:103E10000E945E379B01AC01812FB9010E94CE1D2B
:103E20008091E0048F5F8093E004E091E004E33050
:103E3000E0F21F9108951F931092E00420C01E2FFE
:103E40001C5FF0E0EE0FFF1FEE0FFF1FE65AFD4F65
:103E5000608171818281938120E030E048EC52E4FE
:103E60000E949D380E945E379B01AC01812FB901F1
:103E70000E94CE1D8091E0048F5F8093E004E0916A
:103E8000E004E330E0F26091E1047091E20480919B
:103E9000E3049091E40420E030E048EC52E40E9416
:103EA0009D380E945E379B01AC0187E0B9010E94FA
:103EB000CE1D1F9108951092E0041BC0E0910601F1
:103EC000F0E0892F880F02C0F595E7958A95E2F713
:103ED000E370F070EE0FFF1FE954FD4F60817181B8
:103EE000892F885F0E94CE1D8091E0048F5F8093B0
:103EF000E0049091E004943008F308958091DF0489
:103F00008330C9F0843028F4813041F08230B9F533
:103F100008C08430E1F0853091F523C00E941B1E5B
:103F200008958091DB0464E10E948739992351F45C
:103F30000E94F11E08958091DB0464E10E9487399C
:103F40009923B1F09A30D9F40E945B1F08958091B3
:103F5000DB0464E10E948739992389F40E94DA1D09
:103F600008958091DB0464E10E948739992319F454
:103F70000E941B1F08959A3011F40E94DA1D0895C3
:103F8000FC018181882321F470E060E090E032C080
:103F900090818181A381B481981748F43181208177
:103FA000828190E0820F911D831B910905C0808161
:103FB000218190E0821B9109880F991F880F991F1A
:103FC000A80FB91F8D919D910D90BC91A02D80934C
:103FD000D9059093DA05A093DB05B093DC058181C8
:103FE000815081837091D9056091DA059091DB054C
:103FF0008091DC05272F362F492F582FB901CA0190
:1040000008951092DE041092EE041092ED041092C6
:10401000EC041092EB041092EA041092E9048091EF
:10402000D2048823E1F48091DC048530C1F420912E
:10403000EF043091F00480910F03909110038217E8
:1040400093076CF40E9428326093D3047093D404D5
:104050008093D5049093D60481E08093D204089590
:104060001092CD0420910D0330910E033093F00493
:104070002093EF0480E009C0E82FF0E0EE0FFF1F6F
:10408000E954FD4F318320838F5F8430A8F3809300
:10409000E0040E94051C0895DF92EF92FF920F93B7
:1040A0001F939091D204992309F40EC1913031F5F8
:1040B0001092000582E08093D2049093CD04809109
:1040C000A8049091A904A091AA04B091AB04809394
:1040D000FC049093FD04A093FE04B093FF0410929F
:1040E000EE041092ED041092EC041092EB04109286
:1040F000EA041092E9041092DE04E6C00E9428321D
:104100002091D3043091D4044091D5045091D60429
:10411000621B730B840B950B20910C0130910D01E8
:1041200040910E0150910F016217730784079507A4
:1041300038F08CEF8093DC040E9430208FEFC5C0F4
:104140000E9428322091D3043091D4044091D504A8
:104150005091D604621B730B840B950B605D774006
:104160008040904008F4B0C06091AC047091AD0400
:104170008091AE049091AF0420E030E040EF51EC2C
:104180000E94923818168CF42091EF043091F004BC
:1041900080910F03909110032817390734F4809110
:1041A00000058F5F8093000502C01092000580918A
:1041B0000005883C38F00E9430208EEF8093DC04AC
:1041C00081E083C0E090A804F090A9040091AA04C3
:1041D0001091AB04C801B70120E030E04AEF53E48E
:1041E0000E94923818161CF072E3D72E0FC0C80137
:1041F000B70120E030E84BEB54E40E9492381816E7
:104200001CF064E6D62E02C056E9D52E6D2D772718
:1042100067FD7095872F972F0E9491372091080195
:104220003091090140910A0150910B010E949D3883
:104230009B01AC016091FC047091FD048091FE042F
:104240009091FF040E9414367B018C016093FC0462
:104250007093FD048093FE049093FF04D1946D2D20
:10426000772767FD7095872F972F0E94913760936E
:10427000B8047093B9048093BA049093BB04C80146
:10428000B7010E945E37772767FD7095872F972FBC
:104290000E9491376093CE047093CF048093D00432
:1042A0009093D1048091CD04882321F082E0809303
:1042B000CD040AC01092D20480910D0390910E0398
:1042C0009093F0048093EF0480E01F910F91FF9092
:1042D000EF90DF900895AF92BF92CF92DF92EF926E
:1042E000FF920F931F938091DE04882309F019C178
:1042F000E0905E02F0905F02009160021091610216
:10430000C801B70120E030E040E050E00E94923860
:1043100018165CF4C801B70120E030E040E752E431
:104320000E94923887FF32C00AC0C801B70120E05E
:1043300030E040E752EC0E94F23618163CF5E0906F
:104340006202F09063020091640210916502C8015C
:10435000B70120E030E040E050E00E9492381816AB
:104360005CF4C801B70120E030E040E752E40E946D
:10437000923818165CF010C0C801B70120E030E098
:1043800040E752EC0E94F236882334F48091050510
:104390008F5F8093050502C0109205058091050589
:1043A000813089F48091A8049091A904A091AA0475
:1043B000B091AB048093010590930205A09303058F
:1043C000B093040533C06091A8047091A904809152
:1043D000AA049091AB04209101053091020540910F
:1043E0000305509104050E9414367B018C0120E0E6
:1043F00030E040E050E00E94923818165CF4C801AA
:10440000B70120E030E048E452E40E9492381816E8
:104410005CF00CC0C801B70120E030E048E452EC89
:104420000E94F236882314F410920505A090D70458
:10443000B090D804C090D904D090DA04C601B50178
:1044400020E030E040E050E00E94923818160CF076
:104450005DC0E0907202F0907302009174021091BE
:104460007502C801B70120E030E040E050E00E9452
:104470009238181624F017FB109517F91095C801FB
:10448000B701A60195010E9492381816E4F1E09058
:104490007602F09077020091780210917902C801BB
:1044A000B70120E030E040E050E00E94923818165A
:1044B00024F017FB109517F91095C801B701A60154
:1044C00095010E9492381816F4F0E0907A02F0906C
:1044D0007B0200917C0210917D02C801B70120E0AF
:1044E00030E040E050E00E949238181624F017FBAC
:1044F000109517F91095C801B701A60195010E9402
:10450000923818161CF488EC8093050580910505F7
:10451000883C38F08BEF8093DC040E94302081E0EF
:1045200001C080E01F910F91FF90EF90DF90CF903E
:10453000BF90AF9008956F927F928F929F92AF92AB
:10454000BF92CF92DF92EF92FF920F931F938091D1
:10455000F5049091F60401969093F6048093F50487
:10456000895E9D4F20F08FEF8093DC04A8C00E94ED
:104570004E17992787FD909590930B0380930A031C
:10458000892B09F09BC01091F704183CF8F4143102
:10459000D0F06091F8047091F9048091FA04909140
:1045A000FB0420917A0230917B0240917C02509171
:1045B0007D020E9415366093F8047093F90480938D
:1045C000FA049093FB041F5F1093F7046090660257
:1045D000709067028090680290906902C401B301F4
:1045E00020E030E040E85FEB0E94923818160CF0B3
:1045F00065C0A0906A02B0906B02C0906C02D0902F
:104600006D02C601B50120E030E040E85FEB0E949A
:10461000923818160CF052C0E0906E02F0906F02C3
:104620000091700210917102C801B70120E030E0E2
:1046300040E85FEB0E94923818160CF03FC0C401AE
:10464000B30120E030E040E85FE30E94F2368823C7
:10465000ACF5C601B50120E030E040E85FE30E9420
:10466000F23688235CF5C801B70120E030E040E86D
:104670005FE30E94F23688230CF56091F70470E046
:1046800064517040882777FD8095982F0E9491375C
:104690009B01AC016091F8047091F9048091FA04D7
:1046A0009091FB040E94F63660937E0270937F0225
:1046B000809380029093810280E001C08FEF1F9170
:1046C0000F91FF90EF90DF90CF90BF90AF909F90B1
:1046D0008F907F906F9008952F923F924F925F92AC
:1046E0006F927F928F929F92AF92BF92CF92DF9202
:1046F000EF92FF920F931F93DF93CF93CDB7DEB767
:104700002D970FB6F894DEBF0FBECDBF0E944E1797
:10471000992787FD909590930B0380930A0381302E
:10472000910509F4F8C597FF0AC00E9430208DEF6B
:104730008093DC0480910A038093DD04ECC58091B2
:10474000DB048F5F8093DB04883C11F41092DB0460
:104750000E9428322091F104621B6093070170E0EF
:1047600080E090E00E948F3720E030E04AE754E498
:104770000E94F636609308017093090180930A0144
:1047800090930B010E9428326093F1047093F2041D
:104790008093F3049093F404809107018B3028F008
:1047A00081E08093DD040E9401200E946B21882318
:1047B00009F0B1C50E944C20882309F0ACC5809156
:1047C000CC04882309F4BCC281508093CC04E090CF
:1047D0007A02F0907B0200917C0210917D02C80168
:1047E000B70120E030E040E85FEB0E94F23688231A
:1047F0002CF430E020E885E764EC1AC0C801B7016A
:1048000020E030E040E85FE30E94923818162CF474
:1048100030E020E885E764E40BC0C801B70120E080
:1048200030E845E754E40E949D38362F272F692F42
:104830003A872B878C876D87832F922FAC85B62F75
:104840008093880490938904A0938A04B0938B0486
:10485000A0900801B0900901C0900A01D0900B010E
:104860006091A0047091A1048091A2049091A3048E
:104870002091C8043091C9044091CA045091CB04DE
:104880000E949D38A60195010E949D389B01AC01B4
:10489000609190047091910480919204909193049E
:1048A0000E9415367B018C016093900470939104F3
:1048B00080939204909393046091A0047091A1045A
:1048C0008091A2049091A3042091C4043091C50466
:1048D0004091C6045091C7040E949D38A6019501DD
:1048E0000E949D389B01AC016091AC047091AD04B5
:1048F0008091AE049091AF040E9415361B012C01EB
:104900006091A0047091A1048091A2049091A304ED
:104910002091C0043091C1044091C2045091C3045D
:104920000E949D38A60195010E949D389B01AC0113
:1049300060919404709195048091960490919704ED
:104940000E9415363B014C016093940470939504CA
:1049500080939604909397046A857B858C859D85CA
:10496000A80197010E941536A60195010E949D3865
:104970007B018C01609398047093990480939A044E
:1049800090939B0420E030E040E05FE30E949D387C
:10499000A20191010E941536A60195010E949D3841
:1049A0002091A4043091A5044091A6045091A7043D
:1049B0000E9415365B016C016093A4047093A504FA
:1049C0008093A6049093A704A40193010E94153636
:1049D0006093A8047093A9048093AA049093AB04F5
:1049E000C201B101A80197010E9415366093AC0481
:1049F0007093AD048093AE049093AF0490917F04C4
:104A000080918104981711F410927F0420917F0403
:104A1000822F90E0880F991F880F991FE0918204E0
:104A2000F0918304E80FF91FA082B182C282D38281
:104A30002F5F20937F0490918004809181049817C8
:104A400028F4809180048F5F809380046091CE046D
:104A50007091CF048091D0049091D1042091A8044A
:104A60003091A9044091AA045091AB040E941436DD
:104A70005B016C016093B0047093B1048093B20445
:104A80009093B304E0902F04F0903004009131042F
:104A900010913204C801B701A80197010E94153690
:104AA000A80197010E949D389B01AC0160E070E075
:104AB0008AE793E40E94F6367B018C0160938404BC
:104AC000709385048093860490938704A8019701CE
:104AD0000E9415369B01AC01C601B5010E949238B7
:104AE00018167CF4C601B501A80197010E9414367E
:104AF00020E030E04AEF53E40E949D380E940439E0
:104B000020C0C801B70120E030E040E050EC0E9436
:104B10009D389B01AC01C601B5010E94F236882385
:104B2000CCF4C601B5019058A80197010E94143633
:104B300020E030E04AEF53E40E949D380E9404399F
:104B400090586093B4047093B5048093B604909326
:104B5000B7041EC0009108011091090120910A01BB
:104B600030910B018FE294E0B601A5010E94291B50
:104B700080914B0490914C04A0914D04B0914E044F
:104B80008093B4049093B504A093B604B093B70493
:104B90008091CD04823081F48091B8049091B90461
:104BA000A091BA04B091BB048093B4049093B5046F
:104BB000A093B604B093B704E0909C04F0909D04D9
:104BC00000919E0410919F046091B4047091B5040B
:104BD0008091B6049091B7042091AC043091AD045B
:104BE0004091AE045091AF040E941436A801970181
:104BF0000E94143624EE30EA44EE5DE30E949D38B4
:104C00009B01AC01C801B7010E941536AB01BC0184
:104C1000CA01DB0180939C0490939D04A0939E04A1
:104C2000B0939F04009108011091090120910A019D
:104C300030910B0187E594E00E94291BE0908C04E1
:104C4000F0908D0400918E0410918F046091730494
:104C50007091740480917504909176042091880479
:104C60003091890440918A0450918B040E9414363B
:104C7000A80197010E9414362BEA34E242E75DE373
:104C80000E949D389B01AC01C801B7010E941536F6
:104C9000AB01BC01CA01DB0180938C0490938D04AD
:104CA000A0938E04B0938F04009108011091090124
:104CB00020910A0130910B0187E094E00E94291BAA
:104CC0008091CD048823D9F0609111037091120373
:104CD000882777FD8095982F0E9491372091230493
:104CE0003091240440912504509126040E941536E9
:104CF0000E945E377093F0046093EF042AC08FE245
:104D000094E00E941F1B87E594E00E941F1B87E030
:104D100094E00E941F1B80E090E0A0E0B0E0809350
:104D20008C0490938D04A0938E04B0938F04809391
:104D30009C0490939D04A0939E04B0939F0409C08B
:104D40008091CD04882319F082E08093DD041092D5
:104D5000CD04E0906202F090630200916402109131
:104D60006502C801B70120E030E040E050E00E9459
:104D7000923818165CF4C801B70120E030E048E42E
:104D800052E40E94923818165CF01AC0C801B701AC
:104D900020E030E048E452EC0E94F236882384F4AC
:104DA00080915A0290915B02A0915C02B0915D02E9
:104DB0008093E1049093E204A093E304B093E404AD
:104DC000E0905E02F0905F0200916002109161023B
:104DD000C801B70120E030E040E050E00E94923886
:104DE00018165CF4C801B70120E030E048E452E452
:104DF0000E94923818165CF01AC0C801B70120E072
:104E000030E048E452EC0E94F236882384F480912A
:104E10005A0290915B02A0915C02B0915D02809376
:104E2000E1049093E204A093E304B093E404E090DF
:104E3000E104F090E2040091E3041091E404C8015D
:104E4000B70120915A0230915B0240915C0250916F
:104E50005D020E94143620E030E044E353EC0E94EF
:104E6000F23688235CF4D801C701B0588093E1047E
:104E70009093E204A093E304B093E404E090E1048F
:104E8000F090E2040091E3041091E404C801B7013A
:104E900020915A0230915B0240915C0250915D0278
:104EA0000E94143620E030E044E353E40E9492383C
:104EB00018165CF4D801C701B0588093E1049093B0
:104EC000E204A093E304B093E4042091E904309158
:104ED000EA04B90137FF04C066277727621B730B0A
:104EE00066307105D4F1C9010E94A7398BEF9FEF9D
:104EF000AB01489FB001499F700D589F700D112460
:104F0000620F731F882777FD8095982F0E94913735
:104F10009B01AC016091030470910404809105042D
:104F2000909106040E949D386093A7037093A80394
:104F30008093A9039093AA0380915A0290915B02F7
:104F4000A0915C02B0915D028093E1049093E20431
:104F5000A093E304B093E40420C06091E104709155
:104F6000E2048091E3049091E40420915A0230918C
:104F70005B0240915C0250915D020E941436AB01CD
:104F8000BC01009108011091090120910A013091A2
:104F90000B018BE893E00E94291B8091DE0488239B
:104FA00009F042C081E08093E004A8E2CA2ED12C2F
:104FB00036C010E00C9D70010D9DF00C1C9DF00C96
:104FC00011248BE893E0E80EF91E000F111FF80181
:104FD000E751FB4F60817181882777FD8095982F7D
:104FE0000E949137000F111F065A1D4FD8012D91B5
:104FF0003D914D915C910E941436AB01BC01009132
:1050000008011091090120910A0130910B01C7019B
:105010000E94291B8091E0048F5F8093E00400913F
:10502000E004033030F240C08130F1F58093E004B9
:1050300058E2C52ED12C34C0F0E0EC9D7001ED9DFE
:10504000F00CFC9DF00C11244BE853E0E40EF51E2F
:10505000EE0FFF1FE751FB4F60817181882777FDBD
:105060008095982F0E949137209103043091040479
:1050700040910504509106040E949D38AB01BC018B
:10508000009108011091090120910A0130910B0152
:10509000C7010E94291B8091E0048F5F8093E00488
:1050A000E091E004E33040F21092E00438E2C32ED5
:1050B000D12C34C0F0E0EC9DD001ED9DB00DFC9DF5
:1050C000B00D112423E1E22E23E0F22EEA0EFB1EA6
:1050D000A557BC4FEE0FFF1FEE0FFF1FEA59FD4F04
:1050E0005C966D917D918D919C915F97208131812E
:1050F000428153810E941436AB01BC01009108012A
:105100001091090120910A0130910B01C7010E9401
:10511000291B8091E0048F5F8093E004E091E0041C
:10512000E33040F2509106015987E52EFF2460914B
:10513000EF047091F004882777FD8095982F0E94E6
:1051400091376D837E838F83988780917F039091C1
:105150008003A0918103B091820389839A83AB83FA
:10516000BC836D817E818F81988529813A814B81B5
:105170005C810E9415361B012C01A0905703B09052
:105180005803C0905903D0905A0360902F03709039
:1051900030038090310390903203870103701070C8
:1051A000000F111F09541D4FC201B101A601950145
:1051B0000E941436A40193010E9415360E945E37A6
:1051C000D8016D937C93F694E79487010670107074
:1051D00009541D4FC201B101A60195010E94153667
:1051E000A40193010E9414360E945E37F801718376
:1051F00060836D817E818F81988529813A814B8181
:105200005C810E9414361B012C01F694E794F694FD
:10521000E794F6E0EF22FF2447EB52E0E40EF51EA0
:10522000A60195010E941436A40193010E94143630
:105230000E945E37D7016D937C93B985B295B69580
:10524000B695B3700B2F10E0000F111F09541D4FBE
:10525000C201B101A60195010E941536A401930176
:105260000E9415360E945E37F801718360830E94A8
:105270007E1F20910F03309110038091EF049091D5
:10528000F0048217930784F50E94302080915A021F
:1052900090915B02A0915C02B0915D028093E10469
:1052A0009093E204A093E304B093E4041092E0042A
:1052B00018E215C0819FC00111248D5E9C4F0E9491
:1052C0001F1B8091E004819FC001112485579C4FD2
:1052D0000E941F1B8091E0048F5F8093E004809107
:1052E000E004833038F317C040E00FC0E42FF0E053
:1052F000EE0FFF1FE954FD4F8081918182179307C4
:105300000CF4C901918380834F5F443078F340935C
:10531000E0040E94051C2D960FB6F894DEBF0FBE68
:10532000CDBFCF91DF911F910F91FF90EF90DF9054
:10533000CF90BF90AF909F908F907F906F905F9035
:105340004F903F902F90089580E991E060E00E9497
:10535000CC0680E00E940F368CE061E00E94CA32E9
:105360008CB580648CBD8CB580688CBD08951F930E
:105370001092E00418E215C0819FC00111248D5ED7
:105380009C4F0E94EF1A8091E004819FC00111247C
:1053900085579C4F0E94EF1A8091E0048F5F8093A5
:1053A000E0048091E004833038F387E094E00E94C9
:1053B000EF1A87E594E00E94EF1A8FE294E00E94D2
:1053C000EF1A109280048091800480937F048FE014
:1053D000809381048CE390E00E94093380938204DF
:1053E0009093830480E090E0A0ECB0E48093BC0450
:1053F0009093BD04A093BE04B093BF0480E090E0FE
:10540000A0E0BFE38093C0049093C104A093C204C2
:10541000B093C30480E595E5A5E5BFE38093C4049C
:105420009093C504A093C604B093C7048EED9EEA82
:10543000A7E9BBE38093C8049093C904A093CA046E
:10544000B093CB0480E090E0A0E0B0E08093E10472
:105450009093E204A093E304B093E4041092DB047D
:105460001092DC041092DE041092DF041092C50248
:105470001092CD048093CE049093CF04A093D004D7
:10548000B093D1048093880490938904A0938A04F4
:10549000B0938B0480938C0490938D04A0938E041E
:1054A000B0938F048093900490939104A0939204FE
:1054B000B09393048093940490939504A0939604DE
:1054C000B09397048093980490939904A0939A04BE
:1054D000B0939B048093A0049093A104A093A20492
:1054E000B093A3048093A4049093A504A093A6046E
:1054F000B093A7048093A8049093A904A093AA044E
:10550000B093AB048093AC049093AD04A093AE042D
:10551000B093AF041F9108950E94B41C6CE271E037
:1055200080E090E00E9436320E9430200895AF92D1
:10553000BF92CF92DF92EF92FF920F931F93CF9380
:10554000DF938091D1058823A1F481ED95E00E943D
:10555000D735892B71F00E9428326093E105709352
:10556000E2058093E3059093E40581ED95E00E94C8
:10557000E1350E9428322091E1053091E205409109
:10558000E3055091E405621B730B840B950B655C7E
:1055900079408040904010F00E94012085EE94E018
:1055A0000E94231D892B09F0AAC63091E504909131
:1055B000E70480E02091E604C22FD0E0C82BD92B6D
:1055C0003E3509F4D2C33F3508F07EC0343109F4CA
:1055D0003AC23531B8F53B3009F41EC13C30C8F44D
:1055E000353009F40BC1363050F4333009F4F0C0D3
:1055F000343008F000C1323009F081C6E6C03930DD
:1056000009F402C13A3008F002C1363009F077C619
:10561000F8C03F3009F4A0C1303138F43D3009F40E
:1056200005C13E3008F011C1FCC0313109F4FCC1A4
:10563000313108F49CC1323109F4FBC1333109F036
:105640005EC6FCC1303509F4ECC23135E0F43634C5
:1056500009F485C2373450F4393109F427C235349E
:1056600009F427C2353109F04AC60AC2383409F4B0
:1056700096C2383408F483C2393409F4A6C23A34E5
:1056800009F03DC6B8C2343509F40DC3353560F4B0
:10569000323509F4E1C2BE01882777FD8095982F45
:1056A000333508F0EFC2CDC23B3509F422C33C3597
:1056B00020F43A3509F023C60CC33C3509F429C35C
:1056C0003D3509F01CC63BC3383C09F4A0C4393C45
:1056D000D0F5303709F4E1C33137C8F4373609F46F
:1056E00090C3383650F4353609F465C3363608F0C1
:1056F00072C3343609F003C64EC33E3609F4ADC357
:105700003F3608F0BAC3383609F0F9C590C33937C7
:1057100009F415C43A3750F4323709F4EAC3323782
:1057200008F4D1C3383709F0EAC5F9C33B3709F4A7
:105730002CC43B3708F413C43C3709F43CC432385A
:1057400009F0DDC54EC4363D09F405C5373D08F501
:105750003C3C09F49EC43D3C60F43A3C09F472C4FC
:10576000BE01882777FD8095982F3B3C08F080C4C8
:105770005EC4333D09F4B3C4343D20F4323D09F036
:10578000BEC59DC4343D09F4BAC4353D09F0B7C562
:10579000CCC43F3D09F42BC5303E50F43D3D09F4E7
:1057A00000C53E3D08F00DC53C3D09F0A8C5E9C463
:1057B0003E3F38F43A3F08F046C5303E09F09FC5F9
:1057C0002CC53F3F09F09BC557C5C093DF0497C563
:1057D000C093DE0480915A0290915B02A0915C021A
:1057E000B0915D028093E1049093E204A093E304FE
:1057F000B093E40484C5C093100181C5C093060131
:105800007EC50E948C2A7BC5C0930C0378C5D093BB
:10581000EA04C093E90473C5D093EC04C093EB048D
:105820006EC5D093EE04C093ED0469C50E94283282
:105830006093E1057093E2058093E3059093E4059E
:10584000D093F004C093EF045AC58091CD0488230F
:1058500099F1BE01882777FD8095982F0E94913796
:105860009B01AC016091A8047091A9048091AA04E5
:105870009091AB040E9414367B018C0120E030E053
:1058800040E050E00E949238181664F4C801B70155
:1058900020E030E04AE754E40E94923818160CF4F5
:1058A0002EC50AC0C801B70120E030E04AE754EC39
:1058B0000E94F23687FD23C588EC8093CC0490913A
:1058C000800480918104891769F48FE794E00E9435
:1058D000C01F6093DD057093DE058093DF05909314
:1058E000E00510C08091A4049091A504A091A604A5
:1058F000B091A7048093DD059093DE05A093DF05AA
:10590000B093E005BE01882777FD8095982F0E940F
:1059100091377B018C016091DD057091DE058091EE
:10592000DF059091E0052091940430919504409119
:105930009604509197040E9415369B01AC01C80152
:10594000B7010E9414366093A0047093A104809361
:10595000A2049093A304D3C4C093CD048091A8045F
:105960009091A904A091AA04B091AB0454C043E063
:10597000C93ED4076CF06091CE047091CF04809141
:10598000D0049091D10420E030E04AE754E424C0F0
:105990005CEFC831D5077CF46091CE047091CF04E0
:1059A0008091D0049091D10420E030E04AE754E4A3
:1059B0000E94143613C0BE01882777FD8095982F6A
:1059C0000E9491379B01AC016091CE047091CF048D
:1059D0008091D0049091D1040E9415366093CE043A
:1059E0007093CF048093D0049093D1046091CE043F
:1059F0007091CF048091D0049091D10420E030E4E4
:105A00004CE956E40E94923818160CF078C480E0F5
:105A100090E4ACE9B6E48093CE049093CF04A093D5
:105A2000D004B093D1046BC4D0930E03C0930D0384
:105A300066C4D0931003C0930F0361C4D0931203C4
:105A4000C09311035CC49E01D7FF03C0309521951C
:105A50003F4F88EE93E0AC01249FC001259F900D3D
:105A6000349F900D1124AA2797FDA095BA2F8093FB
:105A70000C0190930D01A0930E01B0930F013FC450
:105A8000BE01882777FD8095982F0E94913720E0EE
:105A900030E048EC52E40E94F6366093D7047093ED
:105AA000D8048093D9049093DA0429C40E94012079
:105AB00026C4BE01882777FD8095982F0E949137D4
:105AC00020E030E048EC52E40E94F6367B018C0185
:105AD0006093BC047093BD048093BE049093BF0494
