:100000000C9493060C94BB060C94BB060C94BB0694
:100010000C94BB060C94BB060C94BB060C94BB065C
:100020000C94BB060C94BB060C94BB060C941235C6
:100030000C94BB060C94BB060C94BB060C94BB063C
:100040000C94AE2F0C94181F0C9461320C94AF32A8
:100050000C94BB060C94BB060C94BB060C94BB061C
:100060000C94BB060C94BB06036EDB363D9A999943
:10007000993DABAAAA2A3E000000803F084AD73B20
:100080003BCE016E84BCBFFDC12F3D6C74319ABD67
:1000900056833DDA3D00C77F11BED9E4BB4C3E918B
:1000A0006BAAAABE000000803F072C7AA5BA6CC5D7
:1000B00090DA3B9365FC8BBC53F810FD3C56928361
:1000C0004DBD879D3AB63DCBC9BF5BBE73DA0FC944
:1000D0003F00007000000000240000000200030048
:1000E0000000650054FFEF0000FA80000B12820050
:1000F00001030C30C30E8C8CE914D5400213710F30
:100100008E3883F8833000F883258EF8833000F82A
:1001100083FFFFFFFF0FFEA9D6240004001A827997
:10012000A10000003CFFFF00000010000038836FBA
:10013000A2003E03304000000002CAE3093E8000F6
:1001400000200000000000000040000000600000EF
:1001500000000C0000000C186E000006920A16C089
:10016000DFFFFF0256FD8CD377FFE1C496E0C5BEEA
:10017000AA00000000FFFF0B2B0000165700000331
:10018000594000000000001DFA00026C1D00000034
:10019000003FFFDFEB003EB3B6000D227800002FDA
:1001A0003C00000000001942B5000039A20000B375
:1001B00065D90E9FC91DCF4C34300000005000009F
:1001C000003BB67AE80064000000C80000000000B0
:1001D00000100000001000FA921000225E000D22B4
:1001E0009F0001000000320000FF46000063D400C1
:1001F000001000000004D6000004CC000004CC0075
:10020000000000107200000040000000000000002C
:100210000000060002000500070000000000640066
:100220000000000000000000050005006400200040
:10023000000000000000000000000040000000037B
:100240000000000032F8980000FF650000830F00F6
:1002500000FF9BFC00000000000000000000000008
:10026000000000000000000000000000000000008E
:10027000000000000000000000000000000000106E
:100280000040000000000000060000B26A0002000A
:10029000000001FB830068000000D9FC007CF1FF36
:1002A000830000000000650000006403E8006400B3
:1002B00028000000250000000016A000000000102B
:1002C0000000001000002F0000000001F4000010EA
:1002D0000000280000FFFF4581FFFFFA72000000C8
:1002E0000000000000004400050005BAC600477881
:1002F000A200000001000000000000060000000055
:10030000140000254D002F706D000005AE000C029A
:10031000D00000000000000000000000000000000D
:1003200000001B00000000000000000000000000B2
:100330000000640000000800000000000000000051
:1003400000000000000000000000000000000000AD
:10035000000000000000000000000000000000009D
:10036000000000000000000000000000000000008D
:10037000000000000000000000000000000000007D
:10038000000000000000000000000000000000006D
:1003900000001B00000000000000000000000E0034
:1003A0000E00000AC70004000000000032FFFFFF3B
:1003B0009C00000B2B000000020000000100000068
:1003C00064FFE500000000000000000000000000E5
:1003D000000000000100000000000100000000001B
:1003E0000000018000000180000001800000242640
:1003F000D30000000000000000000600100096007E
:100400003C000000000000000000000000000000B0
:10041000000C0A4E68CDCF770950166759C619CE21
:10042000820000000000000000000000000000004A
:1004300000000000000000000017D7840003000047
:10044000000000000000000000C7938F9D1E1B1CD1
:100450001900000000000000000000000000000083
:1004600000000000000000000002031885000040AA
:100470000000000003000000030000000000000076
:10048000004000000000000000000000000000002C
:10049000000000000000000000000000000000005C
:1004A000000000000000000000000000000000004C
:1004B0000000000000677DDF7E72902E554CF6E64E
:1004C00088000000000000000000000000000000A4
:1004D00000D8DCB4B8B0D8B9ABF3F8FAB3B7BB8E78
:1004E0009EAEF132F51BF1B4B8B08097F1A9DFDF11
:1004F000DFAADFDFDFF2AAC5CDC7A90CC92C97F1AF
:10050000A989264666B28999A92D557DB0B08AA8D9
:1005100096365676F1BAA3B4B280C0B8A89711B295
:100520008398BAA3F0240844106418B2B9B498832D
:10053000F1A329557DBAB5B1A38393F0002850F5F6
:10054000B2B6AA839328547CF1B9A3829361BAA26C
:10055000DADEDFDB819AB9AEF5606870F1DABAA253
:10056000DFD9BAA2FAB9A38292DB31BAA2D9BAA270
:10057000F8DF85A4D0C1BBAD83C2C5C7B8A2DFDF99
:10058000DFBAA0DFDFDFD8D8F1B8AAB38DB4980DF9
:10059000355DB2B6BAAF8C96198F9FA70E161EB4F2
:1005A0009AB8AA872C547CBAA4B08AB691325676EF
:1005B000B28494A4C808CDD8B8B4B0F19982A82D5B
:1005C000557D98A80E161EA22C547C92A4F02C5097
:1005D00078F184A898C4CDFCD80DDBA8FC2DF3D904
:1005E000BAA6F8DABAA6DED8BAB2B68696A6D0F31C
:1005F000C841DAA6C8F8D8B0B4B882A892F52C548D
:100600008898F135D9F418D8F1A2D0F8F9A884D98E
:10061000C7DFF8F883C5DADF69DF83C1D8F40114D6
:10062000F1A8824EA884F311D182F5D99228978837
:10063000F109F41C1CD884A8F3C0F9D1D99782F130
:1006400029F40DD8F3F9F9D1D982F4C203D8DEDF49
:100650001AD8F1A2FAF9A88498D9C7DFF8F8F88374
:10066000C7DADF69DFF883C3D8F40114F198A882F0
:100670002EA884F311D182F5D992509788F109F40C
:100680001CD884A8F3C0F8F9D1D99782F149F40DA8
:10069000D8F3F9F9D1D982F4C403D8DEDFD8F1ADAB
:1006A0008898CCA809F9D98292A8F57CF1883ACF2C
:1006B000944A6E98DB6931DAADF2DEF9D88795A8F5
:1006C000F221D1DAA5F9F417D9F1AE8ED0C0C3AEBC
:1006D00082C684C3A88595C8A588F2C0F1F4010E2E
:1006E000F18E9EA8C63E56F554F18872F40115F1BC
:1006F0009845856EF58E9E0488F142985A8E9E0626
:100700008869F4011CF1981E1108D0F504F11E97B8
:100710000202983625DBF9D985A5F3C1DA85A5F360
:10072000DFD88595A8F309DAA5FAD88292A8F578DA
:10073000F1881A849F26889821DAF41DF3D8879FC0
:1007400039D1AFD9DFDFFBF9F40CF3D8FAD0F8DAFE
:10075000F9F9D0DFD9F9D8F40BD8F3879F39D1AFA5
:10076000D9DFDFF41DF3D8FAFCA869F9F9AFD0DAC4
:10077000DEFAD9F88F9FA8F1CCF398DB45D9AFDF2B
:10078000D0F8D8F18F9FA8CAF38809DAAF8FCBF8D9
:10079000D8F2AD978D0CD9A5DFF9BAA6F3FAF41209
:1007A000F2D8950DD1D9BAA6F3FADAA5F2C1BAA654
:1007B000F3DFD8F1BAB2B68696A6D0CAF349DAA664
:1007C000CBF8D8B0B4B8D8AD84F2C0DFF18FCBC3CA
:1007D000A8B2B68696C8C1CBC3F3B0B48898A82196
:1007E000DB718D9D71859521D9ADF2FAD88597A8D9
:1007F00028D9F408D8F28D29DAF405D9F285A4C2F3
:10080000F2D8A88D9401D1D9F411F2D88721D8F467
:100810000AD8F28498A8C801D1D9F411D8F3A4C891
:10082000BBAFD0F2DEF8F8F8F8F8F8F8F8D8F1B87D
:10083000F6B5B9B08A95A3DE3CA3D9F8D85CA3D9A4
:10084000F8D87CA3D9F8D8F8F9D1A5D9DFDAFAD845
:10085000B18530F7D9DED8F830ADDADED8F2B48C15
:1008600099A32D557DA083DFDFDFB591A0F629D9AF
:10087000FBD8A0FC29D9FAD8A0D051D9F8D8FC517E
:10088000D9F9D879D9FBD8A0D0FC79D9FAD8A1F96F
:10089000F9F9F9F9A0DADFDFDFD8A1F8F8F8F8F80C
:1008A000ACDEF8ADDE8393AC2C547CF1A8DFDFDF47
:1008B000F69D2CDAA0DFD9FADB2DF8D8A850DAA003
:1008C000D0DED9D0F8F8F8DB55F8D8A878DAA0D07F
:1008D000DFD9D0FAF8F8F8F8DB7DF8D89CA88CF5C9
:1008E00030DB38D9D0DEDFA0D0DEDFD8A848DB5837
:1008F000D9DFD0DEA0DFD0DED8A868DB70D9DFDF9B
:10090000A0DFDFD8F1A888902C547C98A8D05C3860
:10091000D1DAF2AE8CDFF9D8B087A8C1C1B188A80E
:10092000C6F9F9DA36D8A8F9DA36D8A8F9DA36D815
:10093000A8F9DA36D8A8F9DA36D8F78D9DADF818C7
:10094000DAF2AEDFD8F7ADFA30D9A4DEF9D8F2AEDC
:10095000DEFAF983A7D9C3C5C7F1889BA77AADF79B
:10096000DEDFA4F8849408A797F300AEF29819A4E8
:1009700088C6A39488F632DFF28393DB09D9F2AA02
:10098000DFD8D8AEF8F9D1DAF3A4DEA7F1889B7AE4
:10099000D8F38494AE19F9DAAAF1DFD8A881C0C3DC
:1009A000C5C7A39283F628ADDED9F8D8A350ADD938
:1009B000F8D8A378ADD9F8D8F8F9D1A1DADEC3C553
:1009C000C7D8A18194F818F2B089ACC3C5C7F1D8D3
:1009D000B8B4B09786A8319B069907AB9728889B37
:1009E000F00C201440B0B4B8F0A88A9A285078B718
:1009F0009BA8295179247059446938644831F1BB66
:100A0000AB88002C547CF0B38BB8A804285078F144
:100A1000B088B49726A85998BBABB38B022646661C
:100A2000B0B8F08A9CA82951798B2951798A247011
:100A3000598B2058718A4469388B3940688A6448D8
:100A4000318B30496088F1AC002C547CF08CA804C8
:100A5000285078F1889726A85998AC8C02264666CB
:100A6000F0899CA829517924705944693864483127
:100A7000A98809205970AB11384069A8193148601C
:100A80008CA83C415C207C00F187981986A86E7682
:100A90007EA999882D557DD8B1B5B9A3DFDFDFAE2A
:100AA000D0DFAAD0DEF2ABF8F9D9B087C4AAF1DF63
:100AB000DFBBAFDFDFB9D8B1F1A3978E60DFB084C1
:100AC000F2C8F8F9D9DED89385F14AB183A308B505
:100AD000839A0810B79F10D8F1B0BAAEB08AC2B2EC
:100AE000B68E9EF1FBD9F41DD8F9D90CF1D8F8F8DF
:100AF000AD61D9AEFBD8F40CF1D8F8F8AD19D9AE88
:100B0000FBDFD8F416F1D8F8AD8D61D9F4F4ACF56B
:100B10009C9C8DDF2BBAB6AEFAF8F40BD8F1AED0B0
:100B2000F8AD51DAAEFAF8F1D8B9B1B6A3839C08A2
:100B3000B9B1839AB5AAC0FD3083B79F10B58B9326
:100B4000F20202D1ABDADED8F1B080BAABC0C3B2E8
:100B500084C1C3D8B1B9F38BA391B609B4D9ABDEC4
:100B6000B0879CB9A3DDF1B38B8B8B8B8BB087A344
:100B7000A3A3A3B28BB69BF2A3A3A3A3A3A3A3A3F4
:100B8000A3A3F1B087B59AA3F39BA3A3DCBAACDF10
:100B9000B9A3A3A3A3A3A3A3A3A3A3A3A3A3A3A30F
:100BA000A3D8D8D8BBB3B7F1AAF9DAFFD9809AAAEB
:100BB00028B48098A720B79787A86688F07951F164
:100BC000902C870CA781976293F0717160859401D6
:100BD00029517990A5F1284C6C870C95188578A33C
:100BE0008390284C6C886CD8F3A28200F210A892F3
:100BF0001980A2F2D926D8F188A84DD948D896A84C
:100C00003980D93CD89580A839A68698D92CDA871E
:100C1000A72CD8A8899519A980D938D8A88939A925
:100C200080DA3CD8A82EA83990D90CD8A89531984C
:100C3000D90CD8A809D9FFD801DAFFD89539A9DA93
:100C400026FFD890A80D8999A810809821DA2ED86F
:100C50008999A83180DA2ED8A886963180DA2ED8E4
:100C6000A8873180DA2ED8A88292F34180F1D92E5C
:100C7000D8A882F31980F1D92ED882ACF3C0A28013
:100C800022F1A62EA72EA92298A829DAACDEFFD839
:100C9000A2F22AF1A92E8292A8F23180A696F1D969
:100CA00000AC8C9C0C30ACDED0DEFFD88C9CACD081
:100CB00010ACDE8092A2F24C82A8F1CAF235F19615
:100CC00088A6D900D8F1FF00000000240027002AE0
:100CD0000000000000250028002B00000000002379
:100CE000002600290004040404040404040202028F
:100CF000020202030303030303010204081020405D
:100D000080010204081020010204081020000000E5
:100D100007000201000003040600000000000000BC
:100D200000004721943311241FBECFEFD8E0DEBF6F
:100D3000CDBF11E0A0E0B1E0E6E7F3E702C0059027
:100D40000D92A634B107D9F716E0A6E4B1E001C0D0
:100D50001D92A934B107E1F71DE0C6E2DDE004C051
:100D60002297FE010E94B539C232D107C9F70E940D
:100D7000EA330C94BD060C940000F8940C94B93935
:100D8000FB01DC0104C08D910190801921F44150D8
:100D90005040C8F7881B990B0895FC011092BC00C5
:100DA000662319F088B1806302C088B18F7C88B94E
:100DB0001092B9009F01442737FD4095542F60E8F9
:100DC0007EE380E090E00E9498392051304040401E
:100DD0005040CA01B90122E030E040E050E00E94FA
:100DE00098392093B80084E08093BC000895482F80
:100DF000440F92E064EB54E86093BC002AEF30E0CB
:100E00008091BC0087FD34C0215030408FEF2F3FD0
:100E10003807B1F727C08091B900887F883021F06A
:100E2000803111F082E008954093BB005093BC00E4
:100E30002AEF30E08091BC0087FD1EC02150304079
:100E40008FEF2F3F3807B1F70FC08091B900887F2F
:100E5000803221F4992351F09150CECF883131F472
:100E600080E0089581E0089583E0089584E0089586
:100E70001216130684F2F6CF1216130634F3F4CFCB
:100E8000EF92FF920F931F93162FE42E022FF32E53
:100E90000E94F7061093BB0084E88093BC002AEF01
:100EA00030E08091BC0087FD07C0215030408FEFBB
:100EB0002F3F3807B1F703C0121613063CF0802FFE
:100EC0009F2D9C01F90190E044E81CC08091B9007D
:100ED000F6CF80818093BB004093BC002AEF30E0C6
:100EE0008091BC0087FD07C0215030408FEF2F3F1D
:100EF0003807B1F705C01216130614F48091B90033
:100F00009F5F31969E1528F384E98093BC002AEFF9
:100F100030E08091BC0087FD06C02115310519F035
:100F200021503040F6CF81E01F910F91FF90EF905C
:100F300008951F93F82F122F72E0B4EBE82FEE7F85
:100F4000A4E8B093BC002AEF30E08091BC0087FD9C
:100F5000D0C0215030408FEF2F3F3807B1F7B7C0D6
:100F60008091B900887F883021F0803111F091E1C3
:100F7000BDC0E093BB00A093BC002AEF30E080919D
:100F8000BC0087FDBBC0215030408FEF2F3F38079A
:100F9000B1F79FC09091B900987F903229F47723E0
:100FA00009F499C07150CDCF983109F094C0609385
:100FB000BB0084E88093BC002AEF30E08091BC0045
:100FC00087FDA1C0215030408FEF2F3F3807B1F788
:100FD00084C08091B900887F883211F095E186C085
:100FE00062E0A4EB7F2F7160E4E8A093BC002AEFDD
:100FF00030E08091BC0087FD8BC0215030408FEFE6
:101000002F3F3807B1F76BC08091B900887F8830D7
:1010100021F0803111F097E169C07093BB00E0933B
:10102000BC002AEF30E08091BC0087FD76C02150E3
:1010300030408FEF2F3F3807B1F758C08091B9008B
:10104000887F883429F4662309F44BC06150CDCFE2
:10105000803409F046C0FA0160E0412F50E0415071
:101060005040A4EC74E822C0862F90E084179507C6
:1010700019F47093BC0002C0A093BC002AEF30E0CA
:101080008091BC0087FD4EC0215030408FEF2F3F34
:101090003807B1F728C09091B900987F903511F0CA
:1010A000983521F58091BB0081936F5F6117E0F265
:1010B00084E98093BC002AEF30E08091BC0087FD7A
:1010C00014C02115310589F021503040F6CF90E150
:1010D0000DC092E10BC093E109C094E107C096E115
:1010E00005C099E103C09AE101C090E0892F1F91EA
:1010F0000895121613060CF433CFE9CF1216130617
:101100000CF448CFE6CF121613060CF462CFE5CFED
:10111000121613060CF478CFE2CF121613060CF455
:101120008DCFE4CF121613060CF4B5CFDCCF7F922F
:101130008F929F92AF92BF92CF92DF92EF92FF92E7
:101140000F931F93CF93DF93F82EE62E742E690131
:10115000E8010E94F62F4B015C018F2D880F6E2D48
:10116000A601272D0E949907882311F01FEF01C0C7
:10117000172D2097C1F00E94F62F681979098A0966
:101180009B099E0140E050E06217730784079507B2
:1011900050F0212F332727FD3095872D90E0281719
:1011A00039070CF41FEF812FDF91CF911F910F9121
:1011B000FF90EF90DF90CF90BF90AF909F908F9077
:1011C0007F900895AC018230910518F02FEF3FEF2A
:1011D00044C080933202909333029C01220F331F4C
:1011E00075E0880F991F7A95E1F7821B930B8A5B54
:1011F0009E4F90932B0280932A02CA0163E0880FCE
:10120000991F6A95E1F7280F391F2E573E4F3093EB
:101210002D0220932C0287E290E09C01429FC001A6
:10122000439F900D529F900D11248A569E4F90938C
:101230002F0280932E0283E290E09C01429FC00126
:10124000439F900D529F900D11248C519E4F90936F
:1012500031028093300220E030E0C90108950F93FD
:101260001F93CF93DF93C0912A02D0912B0285E781
:10127000888389E189838AE18A838CE08B838AE68B
:101280008C8383E28D838BE18E838CE18F838FE16E
:101290008A8780E28B8782E78C8784E78D8783E467
:1012A0008E878BE38F8781E4888B88E3898B89E342
:1012B0008A8B8AE38B8B8BE68D8B8CE68E8B87E318
:1012C0008F8B8FE6888F86E0898F84E28A8F8DE608
:1012D0008B8F8EE68C8F80E78D8F8091320290917C
:1012E0003302009719F0019769F406C0E0912C02CF
:1012F000F0912D0288E605C0E0912C02F0912D02BC
:1013000089E6808300912C0210912D0280E094E008
:10131000F8019283818386E7838384E591E0958356
:10132000848387EF9DEF9783868380E091E09187A8
:10133000808720912E0230912F0283E890E0A0E078
:10134000B0E0F90180839183A283B38380E098E0C9
:10135000A0E0B0E084839583A683B783108681E004
:101360008187128688E1838782E390E0958784876E
:1013700085E0868780E090E0A0E2B1E48787908BEB
:10138000A18BB28B80E090E0A2EDB2E4838B948BD2
:10139000A58BB68B49E25CE56FE07EE3478B508F0F
:1013A000618F728F8AE999E9A9E9BEE3838F948FEF
:1013B000A58FB68F83E393E3A3E7BFE3878F90A363
:1013C000A1A3B2A343A354A365A376A3E0913002E3
:1013D000F0913102D183C0831383028332A321A30E
:1013E000DF91CF911F910F910895DC01E0913002C0
:1013F000F09131028681882319F081E08C9301C03D
:101400001C9280E090E00895DF93CF930F92CDB7C8
:10141000DEB7982FA0913002B09131025D968C9189
:101420005D97882321F0992389F082E00DC01696FC
:101430008C9116978823E9F0992341F01C968C91A2
:101440001C978823F9F481E0898301C019821296E0
:10145000ED91FC9113970D90BC91A02D8081519638
:101460006C9141E09E012F5F3F4F0E94400788230F
:1014700019F42FEF3FEF08C0E0913002F0913102F4
:101480008981848720E030E0C9010F90CF91DF91FE
:101490000895CF92DF92EF92FF920F931F93DF9305
:1014A000CF9300D0CDB7DEB7D82EC92E8B017A01ED
:1014B0004115510519F42FEF3FEF41C0E091300283
:1014C000F09131028681882319F42EEF3FEF37C067
:1014D000A281B3819B012D0D311D18968D919C9198
:1014E00019978217930718F42DEF3FEF28C0C98290
:1014F000DA820190F081E02D8C91638D42E09E01B3
:101500002F5F3F4F0E944007882319F42CEF3FEFD5
:1015100016C0E0913002F0913102A281B3810190B6
:10152000F081E02D8C91608D402F97010E94400743
:10153000882319F020E030E002C02BEF3FEFC90113
:101540000F900F90CF91DF911F910F91FF90EF902F
:10155000DF90CF9008951F93DF93CF930F92CDB775
:10156000DEB7182FA0913002B09131025C968C91B9
:101570005C97811781F1112319F080E3898301C001
:1015800019821D968C911D97882319F0898182609C
:1015900089835B968C915B97882319F08981806899
:1015A00089831296ED91FC9113970D90BC91A02D1B
:1015B000808157966C9141E09E012F5F3F4F0E94C2
:1015C0004007882319F42FEF3FEF07C0E091300266
:1015D000F0913102148F20E030E0C9010F90CF91DB
:1015E000DF911F910895DF93CF930F92CDB7DEB7B0
:1015F0009C01A0913002B091310216968C91169701
:10160000882399F12C3B310510F081E015C022367A
:10161000310510F082E010C02A32310510F083E06D
:101620000BC02431310510F084E006C02A303105AA
:1016300010F085E001C086E0898317969C9117978A
:1016400089819817D9F01296ED91FC9113970D901E
:10165000BC91A02D808112966C9141E09E012F5F7C
:101660003F4F0E944007882319F42FEF3FEF08C037
:10167000E0913002F09131028981878320E030E0EF
:10168000C9010F90CF91DF910895DF93CF930F920F
:10169000CDB7DEB7982FA0913002B09131021696E7
:1016A0008C9116978823A1F1943061F0953018F44D
:1016B000923071F505C0983039F0903149F506C087
:1016C000198206C088E003C080E101C088E18983F7
:1016D00015962C91159730E0898190E043E095951F
:1016E00087954A95E1F72817390709F11296ED9188
:1016F000FC9113970D90BC91A02D808117966C9151
:1017000041E09E012F5F3F4F0E944007882319F45C
:101710002FEF3FEF0EC0E0913002F091310289814E
:1017200090E0A3E095958795AA95E1F7858320E061
:1017300030E0C9010F90CF91DF910895DF93CF93EF
:101740000F92CDB7DEB79C01A0913002B09131026B
:1017500016968C9116978823E1F181E0243F380793
:1017600091F081E0253F380720F42A3F310589F5C3
:1017700008C083E0283E380741F0205D374049F536
:1017800006C0198206C088E003C080E101C088E17C
:10179000898314962C91149730E0898190E063E05E
:1017A000959587956A95E1F72817390709F11296FB
:1017B000ED91FC9113970D90BC91A02D8081169610
:1017C0006C9141E09E012F5F3F4F0E9440078823AC
:1017D00019F42FEF3FEF0EC0E0913002F09131028B
:1017E000898190E053E0959587955A95E1F7848338
:1017F00020E030E0C9010F90CF91DF910895FF9272
:101800000F931F93DF93CF930F92CDB7DEB7F82ED0
:10181000082F10E0C80180779070892B11F081E0CB
:1018200005C0FF2011F0198202C080E48983E09195
:101830003002F0913102A281B3810190F081E02D5C
:101840008C91658941E09E012F5F3F4F0E944007C8
:10185000A0913002B0913102882319F416961C929F
:1018600030C089818F7B18968C931897198206FD5A
:1018700002C084E0898305FD03C089818260898379
:1018800004FD03C089818160898303FD03C08981D0
:10189000886389831296ED91FC9113970D90BC910A
:1018A000A02D808156966C9141E09E012F5F3F4FA5
:1018B0000E944007882341F4E0913002F091310208
:1018C00016822FEF3FEF16C0FF2031F088E0F816A8
:1018D00019F080E00E94AB0AE0913002F0913102F1
:1018E000F682178662E370E080E090E00E940430A8
:1018F00020E030E0C9010F90CF91DF911F910F914F
:10190000FF9008950F931F93DF93CF930F92CDB75E
:10191000DEB7A0913002B091310216968C911697E5
:10192000882309F41BC119821296ED91FC9113973B
:101930000D90BC91A02D808151966C9141E08E015B
:101940000F5F1F4F98010E944007882309F406C1CA
:10195000E0913002F0913102A281B3810190F081D7
:10196000E02D8C91658141E098010E944007882319
:1019700009F4F4C0E0913002F0913102A281B38108
:101980000190F081E02D8C91648141E098010E94EA
:101990004007882309F4E2C0A0913002B0913102DF
:1019A0005D968C915D97882309F469C08CE08983EA
:1019B0001296ED91FC9113970D90BC91A02D808112
:1019C00014966C9141E098010E944007882309F425
:1019D000C5C062E370E080E090E00E94043080ECDB
:1019E0008983A0913002B091310216968C9116979E
:1019F00080FF02C080EE89831296ED91FC911397CF
:101A00000D90BC91A02D808114966C9141E09E01B7
:101A10002F5F3F4F0E944007882309F49FC0A09189
:101A20003002B09131021C968C911C97882319F0DA
:101A300082E0898301C019821296ED91FC9113977F
:101A40000D90BC91A02D808151966C9141E08E014A
:101A50000F5F1F4F98010E944007882309F47EC042
:101A60001982E0913002F0913102A281B38101909C
:101A7000F081E02D8C91658141E098016BC084E09C
:101A800089831296ED91FC9113970D90BC91A02D36
:101A9000808114966C9141E098010E944007882350
:101AA00009F45CC0A0913002B09131021D968C9176
:101AB0001D97882329F416968C91169780FD02C0F5
:101AC00080E401C080E689831296ED91FC91139722
:101AD0000D90BC91A02D808114966C9141E09E01E7
:101AE0002F5F3F4F0E9440078823C1F162E370E0FF
:101AF00080E090E00E940430A0913002B091310269
:101B00001C968C911C97882319F081E0898301C071
:101B100019821296ED91FC9113970D90BC91A02D16
:101B2000808151966C9141E09E012F5F3F4F0E9452
:101B30004007882399F0E0913002F0913102A281B0
:101B4000B381208131813B968C91D90115966C919E
:101B500041E09F010E944007882319F42FEF3FEFD7
:101B600002C020E030E0C9010F90CF91DF911F91BA
:101B70000F9108950F931F93CF93DF93982FE091C8
:101B80003002F0913102858D882319F0C0E0D0E059
:101B900029C08681882321F1192F1E7F0385812387
:101BA0008387811719F4C0E0D0E002C0CFEFDFEFE8
:101BB000112319F48785882331F081E00E94040AFB
:101BC000112381F004C080E00E94040A0BC00E942F
:101BD000820C892B39F0E0913002F09131020387B9
:101BE000CFEFDFEFCE01DF91CF911F910F910895DD
:101BF0001F93DF93CF9300D0CDB7DEB7182F893274
:101C000008F058C08823F9F480E00E94AB0A1982DA
:101C100087E08A83E0913002F0913102A281B381A2
:101C20000190F081E02D8C91658942E09E012F5F4B
:101C30003F4F0E9440078823E9F1E0913002F09184
:101C40003102178646C081E00E94AB0A80E2898398
:101C5000113011F41A8204C0163028F481E08A830E
:101C600085E090E00BC0153128F482E08A838AE099
:101C700090E004C083E08A8384E190E00E94F30A4C
:101C80008A818295880F880F807C87608A83E091A3
:101C90003002F0913102A281B3810190F081E02DF8
:101CA0008C91658942E09E012F5F3F4F0E94400763
:101CB000882319F42FEF3FEF0EC0E0913002F0912E
:101CC000310288E08683108681E0878780E00E9469
:101CD000BA0D20E030E0C9010F900F90CF91DF9155
:101CE0001F9108950F931F93DF93CF930F92CDB75A
:101CF000DEB78C01E0913002F091310286818823B9
:101D0000B9F1858D8823A1F58785882359F0C8010D
:101D10000197889720F4802F0E94F80D3FC080E043
:101D20000E94F80D0430110518F464E070E007C05B
:101D3000B80183E0093E180710F068EE73E088EE02
:101D400093E00E944F3961506983E0913002F09135
:101D50003102A281B3810190F081E02D8C916181EB
:101D600041E09E012F5F3F4F0E944007882319F4F6
:101D70002FEF3FEF15C0698170E06F5F7F4F88EEF6
:101D800093E00E946339CB01E0913002F09131027F
:101D900072876187969587950E94F30A20E030E06C
:101DA000C9010F90CF91DF911F910F910895CF92AC
:101DB000DF92EF92FF920F931F93DF93CF9300D0A8
:101DC000CDB7DEB7182F092F7B016A0141155105E8
:101DD000D1F1E0913002F09131028681882399F1AE
:101DE000A281B3819B01210F311D18968D919C9189
:101DF00019978217930738F109831A830190F081AC
:101E0000E02D8C91638D42E09E012F5F3F4F0E9439
:101E100040078823C1F0E0913002F0913102A281A5
:101E2000B3810190F081E02D00910001109101013A
:101E30008C91608D4E2D96010E949708882319F091
:101E400020E030E002C02FEF3FEFC9010F900F906C
:101E5000CF91DF911F910F91FF90EF90DF90CF9086
:101E600008952F923F924F925F926F927F928F923E
:101E70009F92AF92BF92CF92DF92EF92FF920F9319
:101E80001F93DF93CF93CDB7DEB764970FB6F89467
:101E9000DEBF0FBECDBF3C014B014B8B5C8B1901EC
:101EA000E0913002F0913102868D882319F02FEFF6
:101EB0003FEF75C06115710519F42EEF3FEF6FC04C
:101EC00080E190E00E942B31B92EC82ED92EA82E89
:101ED000EE24FF24E3E04E2E512C4C0E5D1E38C044
:101EE00083010E191F090131110510F000E110E006
:101EF00094012E0D3F1DD601A601400F511F05C0B4
:101F0000F90184918D932F5F3F4FA417B507C1F757
:101F1000C701B801A5010E94490A892B19F02DEFCC
:101F20003FEF3DC0C701B801A2010E94D70E892B27
:101F300019F02CEF3FEF33C0C501B201A8010E9498
:101F4000C006009719F02BEF3FEF29C0E00EF11EFD
:101F5000E614F70428F2FC89F9838B898A83E091DF
:101F60003002F0913102A281B3810190F081E02D25
:101F70008C91658D42E09E012F5F3F4F0E9440078C
:101F8000882319F42AEF3FEF0AC0E0913002F09164
:101F9000310281E0868F30A2278E20E030E0C90137
:101FA00064960FB6F894DEBF0FBECDBFCF91DF9120
:101FB0001F910F91FF90EF90DF90CF90BF90AF9067
:101FC0009F908F907F906F905F904F903F902F9059
:101FD0000895DF92EF92FF920F931F93DF93CF93B9
:101FE0000F92CDB7DEB7D82EE0913002F0913102DA
:101FF00085858D1509F49EC0A281B3810190F08181
:10200000E02D00910001109101017E010894E11C76
:10201000F11CDD2089F18C91648141E097010E94DF
:102020009708882309F47EC089818F7D8983E09198
:102030003002F0913102A281B3810190F081E02D54
:102040008C91648141E097010E944007882309F444
:1020500069C063E070E080E090E00E94043082E0BC
:102060008983A0913002B09131025B968C915B978D
:102070008823F1F182E839C08C91648141E09701B5
:102080000E949708882309F44DC0A0913002B091B6
:10209000310216968C911697998180FF02C090624A
:1020A00001C09F7D99831296ED91FC9113970D903D
:1020B000BC91A02D808114966C9141E09E012F5F10
:1020C0003F4F0E944007882369F163E070E080E0A1
:1020D00090E00E940430A0913002B09131025B96F2
:1020E0008C915B97882319F080E8898301C019825D
:1020F0005C968C915C97882319F089818063898331
:102100001296ED91FC9113970D90BC91A02D8081BA
:1021100057966C9141E09E012F5F3F4F0E94400710
:10212000882319F42FEF3FEF07C0E0913002F091C0
:102130003102D58620E030E0C9010F90CF91DF91C8
:102140001F910F91FF90EF90DF900895DF93CF9351
:102150000F92CDB7DEB7982FE0913002F0913102A7
:10216000858D891709F44AC0992369F1868D8823E2
:1021700019F42FEF3FEF44C080E00E94040A80E092
:102180000E94E90FE0913002F0913102878D90A119
:102190000E94720E1982E0913002F09131020280A9
:1021A000F381E02D808163E241E09E012F5F3F4F8C
:1021B0000E944007E0913002F091310281E0858F6A
:1021C0000E94040A19C080E00E94040AE0913002D3
:1021D000F0913102838589830280F381E02D808133
:1021E00063E241E09E012F5F3F4F0E944007E09174
:1021F0003002F0913102158E0E94820C20E030E016
:10220000C9010F90CF91DF9108956F927F928F92C5
:102210009F92AF92BF92CF92DF92EF92FF920F9375
:102220001F93DF93CF9300D0CDB7DEB76C013B0196
:102230004A01A0913002B09131025D968C915D9778
:10224000882319F42FEF3FEF7CC016968C911697D8
:10225000882319F42EEF3FEF74C01296ED91FC9194
:1022600013970D90BC91A02D0091000110910101D8
:1022700080811C966C9142E05E010894A11CB11C07
:1022800095010E949708882319F42DEF3FEF59C05C
:10229000998180E02A81E22EFF24E82AF92AEC14B1
:1022A000FD0428F4F401108221E030E04AC0E091FE
:1022B0003002F0913102A281B38111968D919C91EF
:1022C0001297969587958E159F05D0F40190F08111
:1022D000E02D00910001109101018C91638941E092
:1022E00095010E949708882319F42BEF3FEF29C02E
:1022F000898184FF05C00E94820C22E030E021C069
:10230000E0913002F0913102A281B3810190F0811D
:10231000E02D00910001109101018C9165854C2DFB
:1023200093010E949708882319F429EF3FEF09C011
:10233000C701B6010E944F396150F401608320E06B
:1023400030E0C9010F900F90CF91DF911F910F9155
:10235000FF90EF90DF90CF90BF90AF909F908F90C5
:102360007F906F900895EF92FF920F931F93DF93EA
:10237000CF9300D000D000D0CDB7DEB780E88983FE
:10238000E0913002F0913102A281B3810190F0819D
:10239000E02D8C91658941E07E010894E11CF11CDF
:1023A00097010E944007882319F42FEF3FEFDBC00D
:1023B00064E670E080E090E00E9404301982E091D1
:1023C0003002F0913102A281B3810190F081E02DC1
:1023D0008C91658941E097010E944007882319F498
:1023E0002EEF3FEFC0C0E0913002F0913102A281A8
:1023F000B3810190F081E02D009100011091010165
:102400008C91618D46E097010E949708882319F40A
:102410002DEF3FEFA8C08E8190E081709070880F03
:10242000991F880F991F2C8130E021703070220F86
:10243000331F982F922B8A818170982B91F09130C5
:1024400031F4E0913002F0913102968732C092303F
:1024500019F02CEF3FEF87C0E0913002F09131028C
:1024600027C0E0913002F0913102A281B381019046
:10247000F081E02D00910001109101018C916381A8
:1024800041E097010E949708882319F42BEF3FEF52
:102490006AC089818F7019F42AEF3FEF64C0E09120
:1024A0003002F0913102843019F481E0868701C056
:1024B0001686E0913002F09131022FEF26832483BB
:1024C000258327838FEF9FEF928781872387258737
:1024D00081E08087838F148E108A178671968AE038
:1024E00011928A95E9F7E0913002F0913102158E50
:1024F000168E10A2178E80ED97E00E949E0B892BFE
:1025000019F026EF3FEF2FC082E00E94450B892B88
:1025100019F025EF3FEF27C08AE290E00E94F30A0E
:10252000892B19F024EF3FEF1EC082E390E00E9458
:10253000720E892B19F023EF3FEF15C080E00E9447
:10254000BA0D892B19F022EF3FEF0DC080E00E94F9
:10255000E90F892B19F020EF3FEF05C080E00E94C2
:10256000FF0B20E030E0C90126960FB6F894DEBFDD
:102570000FBECDBFCF91DF911F910F91FF90EF90D4
:1025800008959C018230910518F02FEF3FEF16C09F
:1025900080934C0290934D028BE090E0AC01249F1D
:1025A000C001259F900D349F900D11248C5C9D4F90
:1025B00090934B0280934A0220E030E0C9010895D5
:1025C000E0914A02F0914B02118210821382128232
:1025D000158214821782168211861086128608953B
:1025E0002F923F924F925F926F927F928F929F9223
:1025F000AF92BF92CF92DF92EF92FF920F931F9311
:10260000DF93CF93CDB7DEB7AC970FB6F894DEBFAC
:102610000FBECDBF9EA38DA378A76FA32A013AA7B3
:1026200029A71CA70BA7A701D8011D921C92E09116
:102630004A02F0914B02828590E0BE016F5F7F4FAE
:102640000E9405119CA38BA3892B09F0B2C1E091D4
:102650004A02F0914B02FAA3E9A386819781847123
:102660009070892B11F440E017C1A980BB24CC24C1
:10267000DD24DA2CCC24BB24AA248A8190E0A0E0BB
:10268000B0E0DC0199278827A82AB92ACA2ADB2AC0
:102690008C8190E0A0E0B0E0A82AB92ACA2ADB2AFF
:1026A0008B8190E0A0E0B0E0BA2FA92F982F882767
:1026B000A82AB92ACA2ADB2AD201AD92BD92CD92AC
:1026C000DC9213972D8130E040E050E0522F4427F8
:1026D000332722278E8190E0A0E0B0E0DC0199272B
:1026E0008827282B392B4A2B5B2B888590E0A0E08C
:1026F000B0E0282B392B4A2B5B2B8F8190E0A0E098
:10270000B0E0BA2FA92F982F8827282B392B4A2BD6
:102710005B2BF2012483358346835783298530E080
:1027200040E050E0522F4427332722278A8590E04B
:10273000A0E0B0E0DC0199278827282B392B4A2B11
:102740005B2B8C8590E0A0E0B0E0282B392B4A2B46
:102750005B2B8B8590E0A0E0B0E0BA2FA92F982FDB
:102760008827282B392B4A2B5B2BD20118962D93C7
:102770003D934D935C931B972D8530E040E050E0F6
:10278000522F4427332722278E8590E0A0E0B0E027
:10279000DC0199278827282B392B4A2B5B2B88892A
:1027A00090E0A0E0B0E0282B392B4A2B5B2B8F85E3
:1027B00090E0A0E0B0E0BA2FA92F982F8827282B0F
:1027C000392B4A2B5B2B2487358746875787560141
:1027D000DD24B7FCD094CD2C6480758086809780F2
:1027E0003401992477FC9094892C2084318442848C
:1027F00053841201552437FC5094452C9A015527D7
:1028000037FD5095452FCA01B9010E9424397B013B
:102810008C01C601B501A60195010E942439E60E7E
:10282000F71E081F191FC401B301A40193010E94E0
:102830002439E60EF71E081F191FC201B101A201BB
:1028400091010E942439E60EF71E081F191F80E02F
:1028500090E0A0E0B1EFE80EF91E0A1F1B1F91E007
:10286000E91690E0F90690E0090792E0190758F0A0
:102870000E94820CABA5BCA51D921C92E3E0F0E087
:10288000FCA3EBA396C0ABA5BCA58D919C91119721
:1028900091608D939C9340E1E9A1FAA1868186FF26
:1028A00039C0A42FB0E0FE01EA0FFB1F228130E007
:1028B000FE01EA0FFB1F918180E0282B392BEFA14D
:1028C000F8A531832083FE01EA0FFB1F338120E04E
:1028D000FE01EA0FFB1F848190E0282B392BEFA12A
:1028E000F8A533832283FE01EA0FFB1F358120E028
:1028F000868190E0282B392BAFA1B8A515963C9383
:102900002E9314974A5FEBA5FCA580819181886086
:1029100091838083A9A1BAA116968D919C91179756
:1029200080789170892BC1F1A42FB0E0FE01EA0FED
:10293000FB1F228130E0FE01EA0FFB1F918180E046
:10294000282B392BEDA1FEA131832083FE01EA0F54
:10295000FB1F338120E0FE01EA0FFB1F848190E022
:10296000282B392BEDA1FEA133832283FE01EA0F30
:10297000FB1F358120E0868190E0282B392BADA10B
:10298000BEA115963C932E931497EBA5FCA58081D0
:10299000918180679183808389A59AA5892B49F0CD
:1029A0000E94F62FA9A5BAA56D937D938D939C9354
:1029B00013978BA19CA1AC960FB6F894DEBF0FBE07
:1029C000CDBFCF91DF911F910F91FF90EF90DF90DE
:1029D000CF90BF90AF909F908F907F906F905F90BF
:1029E0004F903F902F900895DF93CF93CDB7DEB7F0
:1029F00029970FB6F894DEBF0FBECDBF9E012F5FA3
:102A00003F4F882349F0D901E5E1F1E089E00190E9
:102A10000D928150E1F708C0D901ECE0F1E089E0C6
:102A200001900D928150E1F788EB94E069E070E04D
:102A3000AE014F5F5F4F0E94490A29960FB6F89486
:102A4000DEBF0FBECDBFCF91DF9108950F931F93CF
:102A5000DF93CF93CDB7DEB728970FB6F894DEBFDC
:102A60000FBECDBF8C01893C9105F0F488EC90E05D
:102A7000B8010E944F396150704079836A8386E1C2
:102A800092E062E070E0AE014F5F5F4F0E94490A42
:102A9000892B51F481EC9AE06CE070E04EE151E05A
:102AA0000E94490A892B19F02FEF3FEF08C0E091EF
:102AB0004A02F0914B021187008720E030E0C90103
:102AC00028960FB6F894DEBF0FBECDBFCF91DF9131
:102AD0001F910F910895EF92FF920F931F93DF9331
:102AE000CF9300D000D000D0CDB7DEB78C01AC01C1
:102AF00043705070FA01ED5CFE4F80818983C801FC
:102B0000E3E096958795EA95E1F783709070FC0174
:102B1000ED5CFE4F20812A83D80176E0B695A7951B
:102B20007A95E1F7A370B070FD01ED5CFE4F208156
:102B30002B83405D5E4FFA0120812C83805D9E4F88
:102B4000FC0180818D83A05DBE4F8C918E8386E2D7
:102B500094E063E070E07E010894E11CF11CA701A1
:102B60000E94490A892B09F04BC08AE294E063E095
:102B700070E0AE014C5F5F4F0E94490A892B09F05B
:102B80003FC0D701EDE2F1E083E001900D9281506A
:102B9000E1F7DE011496EAE2F1E083E001900D92A4
:102BA0008150E1F702FF06C08981816089838C81B1
:102BB00081608C8305FF06C08A8181608A838D8154
:102BC00081608D8310FF06C08B8181608B838E8135
:102BD00081608E8380E494E063E070E0AE014F5F3B
:102BE0005F4F0E94490A892B59F481E394E063E026
:102BF00070E0AE014C5F5F4F0E94490A892B19F0CB
:102C00002FEF3FEF08C0E0914A02F0914B0215838D
:102C1000048320E030E0C90126960FB6F894DEBFA9
:102C20000FBECDBFCF91DF911F910F91FF90EF901D
:102C30000895DF93CF9300D000D0CDB7DEB78823BF
:102C400049F080E2898388E28A8380E38B8388E38A
:102C50008C8308C083EA93EAA3EAB3EA89839A8360
:102C6000AB83BC838EE99AE064E070E0AE014F5F15
:102C70005F4F0E94490A0E94820C0F900F900F90A4
:102C80000F90CF91DF910895DF93CF9300D000D0C4
:102C9000CDB7DEB7882349F080EC898382EC8A8344
:102CA00084EC8B8386EC8C8308C08BE89BE8ABE8D4
:102CB000BBE889839A83AB83BC8388E99AE064E0AC
:102CC00070E0AE014F5F5F4F0E94490A0E94820C84
:102CD0000F900F900F900F90CF91DF910895AF92CA
:102CE000BF92CF92DF92EF92FF920F931F93DF93E9
:102CF000CF93CDB7DEB72A970FB6F894DEBF0FBEDD
:102D0000CDBF8C0182E089838AEC8A8383EE8B833A
:102D100089E08C8388E690E064E070E0AE014F5F6C
:102D20005F4F0E94490A83EA8983B0E4AB2EB12C3D
:102D3000A022B12206FF06C080EC8A8388EC8B8338
:102D400082EC02C08A838B838C83A0E8EA2EA1E008
:102D5000FA2EE022F122E114F10431F084EC8D83AB
:102D60008CEC8E8386EC03C083EA8D838E838F8305
:102D700083EA888789878A8787EA9AE06AE070E031
:102D8000AE014F5F5F4F0E94490AF3E0CF2ED12C76
:102D9000C022D122C114D10411F080E201C088ED1B
:102DA000898386EB9AE061E070E0AE014F5F5F4F90
:102DB0000E94490A05FF02C081E001C080E00E9434
:102DC000F414E114F104D9F010FF08C082EB8983F8
:102DD0008BE88A8386EB8B838BE907C080EB898342
:102DE00080E88A8384EB8B8380E98C8382EA9AE093
:102DF00064E070E0AE014F5F5F4F0E94490A02FF3E
:102E000002C081E001C080E00E94441604FF02C0BD
:102E100081E001C080E00E941916E0914A02F09121
:102E20004B02C8018860978386830E94820CE091E0
:102E30004A02F0914B021286AB2811F086E082879D
:102E4000EF2819F082858A5F828704711070012B48
:102E500019F08285805F8287CD2819F082858C5F8A
:102E6000828780E090E02A960FB6F894DEBF0FBE0E
:102E7000CDBFCF91DF911F910F91FF90EF90DF9029
:102E8000CF90BF90AF90089586EF9BE061ED70E02A
:102E900040E054E028EC30E00E94310F08952F927A
:102EA0003F924F925F926F927F928F929F92AF92DA
:102EB000BF92CF92DF92EF92FF920F931F93DF9317
:102EC000CF93CDB7DEB7E4970FB6F894DEBF0FBE51
:102ED000CDBF109287021092860288E892E06EE8D9
:102EE00072E046E752E020E030E006E812E0F4E964
:102EF000EF2EF2E0FF2E0E94F01290939602809344
:102F00009502009709F042C5809194028230E8F062
:102F100088E892E06EE872E046E752E020E030E0B8
:102F200006E812E0E4E9EE2EE2E0FE2E0E94F01246
:102F30009C01909396028093950280919402823036
:102F400008F423C5232B21F320C5609176027091EC
:102F5000770280917802909179020E944D3720E0AB
:102F600030E040E850E30E9459381B012C01609387
:102F70007602709377028093780290937902609141
:102F80007A0270917B0280917C0290917D020E9476
:102F90004D3720E030E040E850E30E945938698B1B
:102FA0007A8B8B8B9C8B60937A0270937B028093DD
:102FB0007C0290937D0260917E0270917F028091ED
:102FC0008002909181020E944D3720E030E040E87D
:102FD00050E30E9459385B016C0160937E0270934C
:102FE0007F028093800290938102609182027091AF
:102FF000830280918402909185020E944D3720E0E7
:1030000030E040E850E30E9459386D8B7E8B8F8B07
:10301000988F6093820270938302809384029093CE
:103020008502C601B501A60195010E945938698F34
:103030007A8F8B8F9C8F6093B1027093B2028093D2
:10304000B3029093B4026D897E898F89988D9B011C
:10305000AC010E9459386D8F7E8F8F8F98A360933B
:10306000B5027093B6028093B7029093B802C20182
:10307000B101A20191010E94593869A37AA38BA3DF
:103080009CA36093B9027093BA028093BB029093A1
:10309000BC0269897A898B899C892D893E894F89EF
:1030A000588D0E9459387B018C01C201B101A601E3
:1030B00095010E9459389B01AC01C801B7010E94DB
:1030C000D0353B014C016093BD027093BE028093EA
:1030D000BF029093C00225EE32EF4FEF5EE30E94F5
:1030E0004E381816BCF4C601B501A20191010E9428
:1030F0005B369B01AC010E94D13560935602709300
:10310000570280935802909359028BED9FE0A9ECEF
:10311000BFE322C0C401B30125EE32EF4FEF5EEBF7
:103120000E94AE3688236CF5C601B501A20191015B
:103130000E945B3620E030E040E050EC0E945938BD
:1031400060935602709357028093580290935902ED
:103150008BED9FE0A9ECBFEB80935202909353025A
:10316000A0935402B093550280E090E0A0E0B0E05C
:1031700080934E0290934F02A0935002B09351025D
:1031800094C069897A898B899C89A20191010E94E6
:1031900059387B018C01C601B5012D893E894F89C3
:1031A000588D0E9459389B01AC01C801B7010E949B
:1031B000D1359B01AC010E94D1357B018C016D8D15
:1031C0007E8D8F8D98A129A13AA14BA15CA10E946F
:1031D000D13520E030E040E050EC0E94593820E04A
:1031E00030E040E85FE30E94D1359B01AC01C801AB
:1031F000B7010E945B36609356027093570280932A
:10320000580290935902C401B301A40193010E9492
:10321000D1350E94353660935202709353028093E9
:1032200054029093550269897A898B899C89A601F9
:1032300095010E9459387B018C016D897E898F89A7
:10324000988DA20191010E9459389B01AC01C801DF
:10325000B7010E94D0359B01AC010E94D1357B01A2
:103260008C01698D7A8D8B8D9C8D2D8D3E8D4F8D32
:1032700058A10E94D13520E030E040E050EC0E949F
:10328000593820E030E040E85FE30E94D1359B01EF
:10329000AC01C801B7010E945B3660934E02709387
:1032A0004F02809350029093510260914E027091B0
:1032B0004F02809150029091510221EE3EE245E68C
:1032C00052E40E945938905860934E0270934F0216
:1032D0008093500290935102609152027091530278
:1032E000809154029091550221EE3EE245E652E46F
:1032F0000E94593890586093520270935302809301
:103300005402909355026091560270915702809139
:1033100058029091590221EE3EE245E652E40E94A5
:1033200059385B016C0120E030E044E353E40E9433
:10333000D1357B018C0120E030E044E353E40E946E
:103340004E38181654F4C601B50120E030E044E3CD
:1033500053E40E94D0357B018C01D801C701B058DD
:103360008093560290935702A0935802B09359024B
:1033700080919702882391F587E992E00E94F933C2
:10338000892B61F180E090E0A0E8BFE38093A10287
:103390009093A202A093A302B093A40280E090E0D5
:1033A000A0E0B0E08093A5029093A602A093A702AC
:1033B000B093A8028093A9029093AA02A093AB02B3
:1033C000B093AC028093AD029093AE02A093AF0293
:1033D000B093B00287E992E00E94033480917602B4
:1033E00090917702A0917802B09179028D879E87A3
:1033F000AF87B88B8093A1029093A202A093A302FF
:10340000B093A40220907A0230907B0240907C021C
:1034100050907D022092A5023092A6024092A7020F
:103420005092A80260907E0270907F02809080028D
:10343000909081026092A9027092AA028092AB02DF
:103440009092AC02A0908202B0908302C09084025D
:10345000D0908502A092AD02B092AE02C092AF02AF
:10346000D092B00260918E0270918F02882777FD12
:103470008095982F0E944D370E941A37882777FD34
:103480008095982F0E944D3769837A838B839C8324
:103490006091900270919102882777FD8095982F16
:1034A0000E944D370E941A37882777FD8095982F04
:1034B0000E944D376D837E838F839887609192023F
:1034C00070919302882777FD8095982F0E944D3741
:1034D0000E941A37882777FD8095982F0E944D37D4
:1034E00069877A878B879C876D857E858F8598898C
:1034F00020E030E040E050E00E9459387B018C0130
:10350000C201B10129813A814B815C810E94593805
:103510009B01AC01C801B7010E94D0357B018C0131
:10352000C401B3012D813E814F8158850E945938D5
:103530009B01AC01C801B7010E94D0357B018C0111
:10354000C601B50129853A854B855C850E945938AD
:103550009B01AC01C801B7010E94D0356DA37EA3C9
:103560008FA398A76D857E858F85988929813A815B
:103570004B815C810E9459387B018C01C201B101F1
:1035800020E030E040E050E00E9459389B01AC015F
:10359000C801B7010E94D1357B018C01C401B30180
:1035A00029853A854B855C850E9459389B01AC0181
:1035B000C801B7010E94D1357B018C01C601B5015C
:1035C0002D813E814F8158850E9459389B01AC0165
:1035D000C801B7010E94D03569A77AA78BA79CA71D
:1035E0006D857E858F8598892D813E814F81588597
:1035F0000E9459387B018C01C201B10129853A85AD
:103600004B855C850E9459389B01AC01C801B7010C
:103610000E94D0357B018C01C401B30120E030E071
:1036200040E050E00E9459389B01AC01C801B7014D
:103630000E94D1357B018C01C601B50129813A81F7
:103640004B815C810E9459389B01AC01C801B701D4
:103650000E94D1356DA77EA78FA798AB6D857E851B
:103660008F85988929853A854B855C850E945938D4
:103670007B018C01C201B1012D813E814F815885B2
:103680000E9459389B01AC01C801B7010E94D13595
:103690007B018C01C401B30129813A814B815C819A
:1036A0000E9459389B01AC01C801B7010E94D03576
:1036B0007B018C01C601B50120E030E040E050E024
:1036C0000E9459389B01AC01C801B7010E94D13555
:1036D00069AB7AAB8BAB9CAB57FA509457F85094CC
:1036E00097FA909497F89094D7FAD094D7F8D0940A
:1036F0006DA17EA18FA198A5A20191010E945938C8
:103700007B018C0169A57AA58BA59CA52D853E859D
:103710004F8558890E9459389B01AC01C801B701F7
:103720000E94D1357B018C016DA57EA58FA598A93E
:10373000A60195010E9459389B01AC01C801B7014F
:103740000E94D1357B018C0169A97AA98BA99CA91A
:10375000A40193010E9459389B01AC01C801B70133
:103760000E94D0350E941A37882777FD8095982FC0
:103770000E944D3720E030E040E858E30E9459387D
:103780006093660270936702809368029093690267
:103790006DA17EA18FA198A5A40193010E94593823
:1037A0007B018C0169A57AA58BA59CA5A601950135
:1037B0000E9459389B01AC01C801B7010E94D03565
:1037C0007B018C016DA57EA58FA598A92D853E85D1
:1037D0004F8558890E9459389B01AC01C801B70137
:1037E0000E94D1357B018C0169A97AA98BA99CA97A
:1037F000A20191010E9459389B01AC01C801B70197
:103800000E94D1350E941A37882777FD8095982F1E
:103810000E944D3720E030E040E858E30E945938DC
:1038200060936A0270936B0280936C0290936D02B6
:103830006DA17EA18FA198A5A60195010E9459387E
:103840007B018C0169A57AA58BA59CA5A401930198
:103850000E9459389B01AC01C801B7010E94D135C3
:103860007B018C016DA57EA58FA598A9A201910170
:103870000E9459389B01AC01C801B7010E94D035A4
:103880007B018C0169A97AA98BA99CA92D853E850C
:103890004F8558890E9459389B01AC01C801B70176
:1038A0000E94D1350E941A37882777FD8095982F7E
:1038B0000E944D3720E030E040E858E30E9459383C
:1038C00020917202309173024091740250917502FE
:1038D0000E94D03560936E0270936F0280937002E5
:1038E0009093710260918C0270918D02882777FD10
:1038F0008095982F0E944D3720E030E043E851E456
:103900000E94B23660935A0270935B0280935C020D
:1039100090935D0260918A0270918B02882777FDF7
:103920008095982F0E944D3720E030E043E851E425
:103930000E94B23660935E0270935F0280936002D1
:10394000909361026091880270918902882777FDC7
:103950008095982F0E944D3720E030E043E851E4F5
:103960000E94B23660936202709363028093640295
:103970009093650280919F029091A002019690938E
:10398000A00280939F0280E001C080E8E4960FB619
:10399000F894DEBF0FBECDBFCF91DF911F910F9185
:1039A000FF90EF90DF90CF90BF90AF909F908F905F
:1039B0007F906F905F904F903F902F900895EF927F
:1039C000FF920F931F938B017A017093C202609351
:1039D000C1021092A00210929F020E94E2080E946F
:1039E0002F0980E090E0A0E0B0E080937202909315
:1039F0007302A0937402B093750280E090E00E947D
:103A0000B311909396028093950288E70E94FF0B72
:103A1000909396028093950280ED97E00E949E0B12
:103A2000909396028093950282E00E94450B9093BA
:103A300096028093950285E992E00E94F50988E755
:103A40000E94BA0D909396028093950280E090E0D8
:103A50000E94C1120E94E0120E94441790939602A5
:103A600080939502C7010E946B15909396028093F4
:103A70009502C8010E9426159093960280939502A4
:103A800081E00E94A610909396028093950280E7B1
:103A900091E00E946F16909396028093950280E0C9
:103AA0001F910F91FF90EF900895FC0180E090E04E
:103AB000A0E0B0E080879187A287B3878483958355
:103AC000A683B78380839183A283B383808F918FF2
:103AD000A28FB38F848B958BA68BB78B848F958F9A
:103AE000A68FB78F84A395A3A6A3B7A380A391A302
:103AF000A2A3B3A384879587A687B787808B918B72
:103B0000A28BB38B80E090E0089520E030E040E0AD
:103B100050E0FC01248735874687578708952F9208
:103B20003F924F925F926F927F928F929F92AF924D
:103B3000BF92CF92DF92EF92FF920F931F93CF939A
:103B4000DF93EC013A014B0118012901CB01BA01C5
:103B50002C813D814E815F810E945938A2019101E3
:103B60000E9459382C853D854E855F850E94D13550
:103B70005B016C016C877D878E879F87E88CF98C51
:103B80000A8D1B8DA80197010E944E38181664F00B
:103B900017FB109517F91095C601B501A8019701FB
:103BA0000E94AE36882324F4EC86FD860E871F879C
:103BB00068A179A18AA19BA1A20191010E94B236BC
:103BC0009B01AC01C401B3010E94D035688B798B95
:103BD0008A8B9B8BECA0FDA00EA11FA1A8019701D1
:103BE0000E94D0352EEB39ED4CE55FE30E94593849
:103BF0009B01AC01C801B7010E94D1355B016C018A
:103C0000688B798B8A8B9B8BC401B30128813981A6
:103C10004A815B810E9459382C853D854E855F85A0
:103C20000E94D1357B018C01C601B50128853985FB
:103C30004A855B850E9459389B01AC01C801B701D8
:103C40000E94D0356C8F7D8F8E8F9F8FEC88FD8882
:103C50000E891F89A80197010E944E38181624F476
:103C6000EC8EFD8E0E8F1F8F8C899D89AE89BF894A
:103C70007C018D0117FB109517F910956C8D7D8DCA
:103C80008E8D9F8DA80197010E94AE36882324F463
:103C9000EC8EFD8E0E8F1F8F68A279A28AA29BA246
:103CA00088899989AA89BB898CA39DA3AEA3BFA348
:103CB000DF91CF911F910F91FF90EF90DF90CF9008
:103CC000BF90AF909F908F907F906F905F904F903C
:103CD0003F902F900895CF93DF93EC0180910703DD
:103CE00090E0860F911D803491050CF042C0FE01DA
:103CF000462F30E05CE80DC0208198E0822F8327BA
:103D0000369580FD3527915011F02695F7CF3196E5
:103D10004150442389F7FE01E60FF11D30836F5FA8
:103D200020E030E070E040E421C080910603803460
:103D300010F01092060390910603E92FF0E0E85F7F
:103D4000FC4FDE01A20FB31F8C9180839F5F909385
:103D50000603809107038F5F809307038091070319
:103D6000813410F0409307032F5F3F4F261737072A
:103D7000E4F2DF91CF910895CF93DF93EC0180912E
:103D8000C50290E004970CF44DC0DE0120E030E065
:103D90008091C5028823F1F09091C4028091C50200
:103DA000981740F48091C502E091C402F0E0E05C15
:103DB000FF4F05C0E091C4028091C502F0E0E81B0E
:103DC000F109EA53FD4F80818C938091C5028150A7
:103DD0008093C5022F5F3F4F119624303105C1F605
:103DE000FE0130E043E05CE80CC0208198E0822FC7
:103DF0008327369580FD3527915011F02695F7CF12
:103E00003196415090F78B81381719F420E030E05B
:103E10000BC08091C3028F5F8093C3021092C402D3
:103E20001092C5022FEF3FEFC901DF91CF910895A6
:103E30001F920F920FB60F9211242F938F939F937F
:103E4000EF93FF932EB5809107038823F9F09091AB
:103E5000060380910703981740F480910703E091CF
:103E60000603F0E0E05CFF4F05C0E091060380919F
:103E70000703F0E0E81BF109E85FFC4F80818EBD8D
:103E80008091070381508093070301C01EBC80917D
:103E9000C402803410F01092C4028091C402E82F52
:103EA000F0E0EA53FD4F20838F5F8093C40280913E
:103EB000C5028F5F8093C5028091C502813418F0DE
:103EC00080E48093C502FF91EF919F918F912F9194
:103ED0000F900FBE0F901F90189580932905609347
:103EE0002A0570932B0589E295E063E00E946B1E22
:103EF000089560911A0570911B0580911C059091A1
:103F00001D050E941A379B01AC0182E1B9010E9494
:103F10006D1F6091F8047091F9048091FA049091FA
:103F2000FB040E941A379B01AC0183E1B9010E9496
:103F30006D1F6091FC047091FD048091FE049091CE
:103F4000FF040E941A379B01AC0184E1B9010E9471
:103F50006D1F60917704709178048091790490913D
:103F60007A040E941A379B01AC0185E1B9010E94D5
:103F70006D1F08956F927F928F929F92AF92BF9222
:103F8000CF92DF92EF92FF920F931F93CF93DF9325
:103F900026E6A22E22E0B22E90E4692E95E0792E3C
:103FA0008CE4882E85E0982E6301E401F501E08021
:103FB000F18002811381C801B701F60120813181AE
:103FC000428153810E94AE3688232CF4F601E082B0
:103FD000F18202831383C801B701288139814A81A4
:103FE0005B810E944E38181624F4E882F9820A8315
:103FF0001B8384E090E0A80EB91EC80ED91E24963B
:1040000092E7A91692E0B90689F68091200564E14D
:104010000E944339992341F51CE00F2EF0E0CF2E8A
:10402000F0E0DF2EF0E0EF2EF0E0FF2EF02DF401B7
:10403000608171818281938120E030E04AE754E41D
:104040000E9459380E941A379B01AC01812FB90197
:104050000E946D1FF401C192D192E192F1924F0141
:104060001F5F1F3021F729C09A3039F51FE00F2E4E
:10407000F0E0CF2EF0E0DF2EF0E0EF2EF0E0FF2EAC
:10408000F02DF301608171818281938120E030E025
:104090004AE754E40E9459380E941A379B01AC0148
:1040A000812FB9010E946D1FF301C192D192E1925B
:1040B000F1923F011F5F123121F7DF91CF911F91E4
:1040C0000F91FF90EF90DF90CF90BF90AF909F90B7
:1040D0008F907F906F9008951F93CF93DF93CAE5E1
:1040E000D2E011E0699179918991999120E030E0D5
:1040F00048EC52E40E9459380E941A379B01AC01E7
:10410000812FB9010E946D1F1F5F143059F7DF9195
:10411000CF911F9108951F93CF93DF93CEE4D2E008
:1041200014E0699179918991999120E030E048EC0F
:1041300052E40E9459380E941A379B01AC01812F2A
:10414000B9010E946D1F1F5F173059F76091250557
:1041500070912605809127059091280520E030E098
:1041600048EC52E40E9459380E941A379B01AC0176
:1041700087E0B9010E946D1FDF91CF911F910895D3
:104180001F93CF93DF93C6E5D3E018E0699179914F
:10419000812F0E946D1F1F5F1C30C1F7DF91CF91EF
:1041A0001F91089580912305823069F0833018F4BF
:1041B000813059F505C0833081F0843031F51CC061
:1041C0000E94BA1F08958091200564E10E9443393E
:1041D000992369F40E946C2008958091200564E180
:1041E0000E944339992319F40E948B2008959A3034
:1041F00061F40E94C02008958091200564E10E942E
:104200004339992311F40E94791F0895FC0181819B
:10421000882321F470E060E090E032C090818181D9
:10422000A381B481981748F431812081828190E084
:10423000820F911D831B910905C08081218190E02F
:10424000821B9109880F991F880F991FA80FB91F0A
:104250008D919D910D90BC91A02D809341069093DE
:104260004206A0934306B093440681818150818326
:1042700070914106609142069091430680914406F8
:10428000272F362F492F582FB901CA0108950F93B0
:104290001F930AE413E0C8010E943634C801039654
:1042A0000E943634C80106960E943634C801099629
:1042B0000E9436341F910F9108956F927F928F92D2
:1042C0009F92AF92BF92CF92DF92EF92FF920F93A5
:1042D0001F938091390590913A05019690933A0584
:1042E000809339058155934C18F08FEF8093210509
:1042F0000E944F17992787FD9095909349038093CB
:104300004803892B09F09CC010913B05183CF8F438
:104310001431D0F060913C0570913D0580913E05CF
:1043200090913F0520916E0230916F024091700292
:10433000509171020E94D13560933C0570933D0508
:1043400080933E0590933F051F5F10933B0560905F
:104350005A0270905B0280905C0290905D02C401F2
:10436000B30120E030E040E85FEB0E944E381816C1
:104370000CF066C0A0905E02B0905F02C090600238
:10438000D0906102C601B50120E030E040E85FEB6B
:104390000E944E3818160CF053C0E0906202F09064
:1043A00063020091640210916502C801B70120E028
:1043B00030E040E85FEB0E944E3818160CF040C029
:1043C000C401B30120E030E040E85FE30E94AE3674
:1043D0008823B4F5C601B50120E030E040E85FE392
:1043E0000E94AE36882364F5C801B70120E030E0B2
:1043F00040E85FE30E94AE36882314F560913B05E8
:1044000070E064517040882777FD8095982F0E9456
:104410004D379B01AC0160913C0570913D05809149
:104420003E0590913F050E94B236609372027093F0
:104430007302809374029093750220E030E002C012
:104440002FEF3FEFC9011F910F91FF90EF90DF9089
:10445000CF90BF90AF909F908F907F906F90089576
:104460000F931F930AE413E0609163037091640358
:10447000C8010E9450346091630370916403C801C5
:1044800003960E9450346091630370916403C801E5
:1044900006960E9450346091630370916403C801D2
:1044A00009960E9450341F910F9108952F923F92C8
:1044B0004F925F926F927F928F929F92AF92BF9234
:1044C000CF92DF92EF92FF920F931F93DF93CF93E0
:1044D000CDB7DEB72C970FB6F894DEBF0FBECDBFB9
:1044E0000E944F17992787FD9095909349038093D9
:1044F000480397FF06C00E9430228DEF809321056C
:1045000043C5809120058F5F80932005883C11F47E
:10451000109220050E94F62F209135053091360526
:104520004091370550913805621B730B840B950B36
:104530000E944B3720E030E04AE754E40E94B23654
:10454000609302017093030180930401909305012D
:104550000E94F62F609335057093360580933705DA
:10456000909338058091020190910301A09104017C
:10457000B09105018D839E83AF83B887BC01CD01C7
:104580002AE037ED43E25CE30E944E38181634F41B
:104590008EEF809321050E943022F6C48091180589
:1045A000882309F44BC281508093180560916E02F4
:1045B00070916F02809170029091710220E030E85A
:1045C00045E754E40E9459381B012C016093DC0438
:1045D0007093DD048093DE049093DF046091F00417
:1045E0007091F1048091F2049091F30420911405EC
:1045F0003091150540911605509117050E945938C4
:104600002D813E814F8158850E9459389B01AC0114
:104610006091E4047091E5048091E6049091E704D0
:104620000E94D1355B016C016093E4047093E50452
:104630008093E6049093E704E090F004F090F10496
:104640000091F2041091F304C801B7012091100504
:104650003091110540911205509113050E9459386F
:104660002D813E814F8158850E9459382091FC044C
:104670003091FD044091FE045091FF040E94D13519
:1046800069877A878B879C87C801B70120910C05C1
:1046900030910D0540910E0550910F050E9459383B
:1046A0002D813E814F8158850E9459389B01AC0174
:1046B0006091E8047091E9048091EA049091EB0420
:1046C0000E94D1353B014C016093E8047093E904EA
:1046D0008093EA049093EB04C201B101A601950115
:1046E0000E94D1352D813E814F8158850E945938D5
:1046F0007B018C016093EC047093ED048093EE04D5
:104700009093EF0420E030E040E05FE30E945938EE
:104710009B01AC0169857A858B859C850E94D1358A
:104720002D813E814F8158850E9459382091F40493
:104730003091F5044091F6045091F7040E94D13570
:104740005B016C016093F4047093F5048093F604AC
:104750009093F704A40193010E94D1356093F8046B
:104760007093F9048093FA049093FB0469857A8529
:104770008B859C85A80197010E94D1356093FC042C
:104780007093FD048093FE049093FF049091D304F2
:104790008091D504981711F41092D3042091D3047A
:1047A000822F90E0880F991F880F991FE091D604FF
:1047B000F091D704E80FF91FA082B182C282D382A0
:1047C0002F5F2093D3049091D4048091D50498173F
:1047D00028F48091D4048F5F8093D40460911A05EB
:1047E00070911B0580911C0590911D052091F80486
:1047F0003091F9044091FA045091FB040E94D035A5
:104800005B016C01609300057093010580930205C4
:1048100090930305E0908304F09084040091850454
:1048200010918604C801B701A80197010E94D135F3
:10483000A80197010E9459389B01AC0160E070E02B
:104840008AE793E40E94B2367B018C016093D8041E
:104850007093D9048093DA049093DB04A801970144
:104860000E94D1359B01AC01C601B5010E944E38B2
:1048700018167CF4C601B501A80197010E94D03535
:1048800020E030E04AEF53E40E9459380E94C038DB
:1048900020C0C801B70120E030E040E050EC0E94A9
:1048A00059389B01AC01C601B5010E94AE36882380
:1048B000CCF4C601B5019058A80197010E94D035EB
:1048C00020E030E04AEF53E40E9459380E94C0389B
:1048D00090586093040570930505809306059093A6
:1048E00007051EC0009102011091030120910401EF
:1048F0003091050183E894E0B601A5010E948F1D67
:1049000080919F049091A004A091A104B091A20471
:104910008093040590930505A0930605B0930705C1
:104920006091040570910505809106059091070539
:104930002091FC043091FD044091FE045091FF044D
:104940000E94D035AB01BC0100910201109103011E
:1049500020910401309105018BEA94E00E948F1DA3
:10496000E090E004F090E1040091E2041091E3048F
:104970006091C7047091C8048091C9049091CA04E1
:104980002091DC043091DD044091DE045091DF047D
:104990000E94D035A80197010E94D03523E833EA60
:1049A00044EE5DE30E9459389B01AC01C801B70198
:1049B0000E94D135AB01BC01CA01DB018093E00448
:1049C0009093E104A093E204B093E3040091020108
:1049D0001091030120910401309105018BE594E0D1
:1049E0000E948F1D809119058823D9F060911E05C2
:1049F00070911F05882777FD8095982F0E944D376D
:104A000020917704309178044091790450917A0490
:104A10000E94D1350E941A37709334056093330594
:104A20000FC083E894E00E94851D8BEA94E00E9409
:104A3000851D8BE594E00E94851D02C0109219052A
:104A4000E0905602F09057020091580210915902DE
:104A5000C801B70120E030E040E050E00E944E384D
:104A600018165CF4C801B70120E030E048E452E4D5
:104A70000E944E3818165CF01AC0C801B70120E039
:104A800030E048E452EC0E94AE36882384F48091F2
:104A90004E0290914F02A0915002B091510280932A
:104AA000250590932605A0932705B0932805E0904F
:104AB0005202F09053020091540210915502C80125
:104AC000B70120E030E040E050E00E944E38181678
:104AD0005CF4C801B70120E030E048E452E40E94F1
:104AE0004E3818165CF01AC0C801B70120E030E05B
:104AF00048E452EC0E94AE36882384F480914E0242
:104B000090914F02A0915002B091510280932505DF
:104B100090932605A0932705B0932805E0902505DE
:104B2000F09026050091270510912805A0904E02CF
:104B3000B0904F02C0905002D0905102C801B7010E
:104B4000A60195010E94D03520E030E044E353EC0B
:104B50000E94AE3688235CF4D801C701B058809318
:104B6000250590932605A0932705B0932805E0908E
:104B70002505F09026050091270510912805C8010C
:104B8000B701A60195010E94D03520E030E044E352
:104B900053E40E944E3818165CF4D801C701B0588F
:104BA0008093250590932605A0932705B0932805AB
:104BB00020912D0530912E05B90137FF04C06627DD
:104BC0007727621B730B6630710594F1C9010E944F
:104BD00063398BEF9FEFDB01A89FB001A99F700D98
:104BE000B89F700D1124620F731F882777FD809581
:104BF000982F0E944D379B01AC0160915704709132
:104C000058048091590490915A040E945938609335
:104C1000FB037093FC038093FD039093FE03A0922B
:104C20002505B0922605C0922705D09228051AC006
:104C300060912505709126058091270590912805A2
:104C4000A60195010E94D035AB01BC010091020183
:104C50001091030120910401309105018FED93E043
:104C60000E948F1D809122058823B9F560912F0540
:104C700070913005882777FD8095982F0E944D37D9
:104C800020915202309153024091540250915502AA
:104C90000E94D035AB01BC010091020110910301CB
:104CA000209104013091050187E094E00E948F1D5E
:104CB0006091310570913205882777FD8095982F96
:104CC0000E944D3720915602309157024091580270
:104CD000509159020E94D03539C0813009F044C04A
:104CE00060912F0570913005882777FD8095982F6A
:104CF0000E944D3720915704309158044091590437
:104D000050915A040E945938AB01BC010091020134
:104D100010910301209104013091050187E094E096
:104D20000E948F1D6091310570913205882777FDB3
:104D30008095982F0E944D37209157043091580448
:104D40004091590450915A040E945938AB01BC015A
:104D5000009102011091030120910401309105019D
:104D60008FE294E00E948F1DFBEFCF2EF3E0DF2E49
:104D7000EAE5AE2EE2E0BE2E6624772478E2872EA6
:104D8000912C689C7001699CF00C789CF00C1124AB
:104D9000E7E6F3E0EE0EFF1ED6016D917D918D9159
:104DA0009C91F50121913191419151915F010E94B6
:104DB000D035AB01BC01009102011091030120919B
:104DC000040130910501C7010E948F1D0894611CE8
:104DD000711C48E250E0C40ED51E53E06516710404
:104DE00081F66091330570913405882777FD8095B1
:104DF000982F0E944D371B012C018091D303909175
:104E0000D403A091D503B091D60389839A83AB8351
:104E1000BC83C201B10129813A814B815C810E942E
:104E2000D1355B016C01E090AB03F090AC030091D5
:104E3000AD031091AE036090830370908403809063
:104E4000850390908603A80197010E94D035A401A4
:104E500093010E94D1350E941A37709357036093D3
:104E60005603C601B501A80197010E94D135A401DE
:104E700093010E94D0350E941A37709359036093B2
:104E80005803C201B10129813A814B815C810E94A2
:104E9000D0355B016C01A80197010E94D035A401B7
:104EA00093010E94D0350E941A3770935B03609380
:104EB0005A03C601B501A80197010E94D135A4018A
:104EC00093010E94D1350E941A3770935D0360935D
:104ED0005C030E94D22020913305309134058091EB
:104EE000650390916603281739075CF50E9430220C
:104EF00080914E0290914F02A0915002B0915102C8
:104F00008093250590932605A0932705B093280547
:104F100087E693E00E94851D8FED93E00E94851D3A
:104F20008FE893E00E94851D87E094E00E94851D34
:104F300087EB93E00E94851D8FE294E00E94851D1F
:104F400023C066E5E62E63E0F62E00E010E0D70110
:104F50008D919C9160916503709166036817790744
:104F60000CF4BC01F701619371937F01C801880FB4
:104F7000991F800F911F865B9C4F0E9450340F5FDA
:104F80001F4F0430110519F72C960FB6F894DEBFA9
:104F90000FBECDBFCF91DF911F910F91FF90EF908A
:104FA000DF90CF90BF90AF909F908F907F906F9049
:104FB0005F904F903F902F90089580E991E060E0DE
:104FC0000E94CD0680E00E9431348CE061E00E94B6
:104FD00098308CB580648CBD8CB580688CBD08958C
:104FE000EF92FF920F931F93B7E6EB2EB3E0FB2EE9
:104FF000C7010E94551D0FED13E0C8010E94551D09
:10500000C70188960E94551DC80188960E94551DAB
:1050100087EB93E00E94551D8FE294E00E94551D9E
:105020008BE594E00E94551D8BEA94E00E94551D8B
:1050300083E894E00E94551D1092D4048091D4041A
:1050400003ED14E0F80181938F018FE08093D50484
:105050008CE390E00E942B318093D604F801938377
:1050600080E090E0A0ECB0E48093080590930905FF
:10507000A0930A05B0930B0580E090E0A0E0BFE3A9
:1050800080930C0590930D05A0930E05B0930F052A
:1050900080E595E5A5E5BFE38093100590931105A4
:1050A000A0931205B09313058EED9EEAA7E9BBE32A
:1050B0008093140590931505A0931605B0931705DA
:1050C00080E090E0A0E0B0E0809325059093260575
:1050D000A0932705B0932805109220051092210572
:1050E000109222051092230528E82093240510929F
:1050F000C3021092190580931A0590931B05A09383
:105100001C05B0931D0510921F0510921E0580937B
:10511000DC049093DD04A093DE04B093DF0480935D
:10512000E0049093E104A093E204B093E30480933D
:10513000E4049093E504A093E604B093E70480931D
:10514000E8049093E904A093EA04B093EB048093FD
:10515000EC049093ED04A093EE04B093EF048093DD
:10516000F0049093F104A093F204B093F3048093BD
:10517000F4049093F504A093F604B093F70480939D
:10518000F8049093F904A093FA04B093FB0480937D
:10519000FC049093FD04A093FE04B093FF041F91C0
:1051A0000F91FF90EF900895FC01880F991F8E0FCB
:1051B0009F1FE25AFC4F6081865B9C4F70E00E940B
:1051C0000B350895AF92BF92CF92DF92EF92FF928C
:1051D0000F931F93CF93DF93809158058823A1F4F9
:1051E00088E595E00E94F933892B71F00E94F62F33
:1051F00060936405709365058093660590936705D9
:1052000088E595E00E9403340E94F62F2091640502
:10521000309165054091660550916705621B730BDF
:10522000840B950B695E73408040904090F0109223
:105230001905109234051092330510923205109220
:1052400031051092300510922F0510922E05109204
:105250002D0589E295E00E94BC1E892B09F004C649
:10526000E091290590912B0580E020912A05C22F1D
:10527000D0E0C82BD92BE53609F47EC3E63608F01A
:1052800072C0E53409F4F6C1E63488F5EB3009F470
:105290000EC1EC30B0F4E93068F4E53008F0FAC043
:1052A000E33009F4E1C0E43008F0F1C0E23009F085
:1052B000DBC5D7C0E93009F4F2C0EA3009F0D4C543
:1052C000F1C0EF3009F45CC1E03138F4ED3009F49D
:1052D000F8C0EE3008F004C1EFC0E13109F4C0C1FC
:1052E000E13108F460C1E23109F0BEC5BEC1E2356A
:1052F00009F48EC2E335D8F4E93409F43DC2EA3446
:1053000060F4E73409F417C2BE01882777FD809561
:10531000982FE83408F01FC203C2E03509F458C2E0
:10532000E13508F065C2EA3409F09EC53BC2EB35B1
:1053300009F4C0C2EC3550F4E43509F495C2E43503
:1053400008F47CC2EA3509F08FC5A4C2ED3509F432
:10535000D7C2ED3508F4BEC2EE3509F4E7C2E43633
:1053600009F082C5F9C2EA3C09F448C4EB3C08F0F4
:105370003FC0E23709F494C3E337D8F4EE3609F4BA
:105380004DC3EF3650F4E73609F41CC3E73608F492
:1053900003C3E83609F068C52BC3E03709F459C3E5
:1053A000BE01882777FD8095982FE13708F067C305
:1053B00045C3EB3709F4C0C3EC3750F4E93709F4BF
:1053C00095C3EA3708F0A2C3E83709F04DC57EC39C
:1053D000E23809F4DDC3E33820F4EC3709F044C5C2
:1053E000C1C3E83C09F4EAC3E93C09F03DC5F6C392
:1053F000EC3D09F4A7C4ED3DC8F4E33D09F450C405
:10540000E43D50F4EC3C09F425C4EC3C08F40CC435
:10541000E23D09F029C534C4E53D09F467C4E53D22
:1054200008F44EC4E63D09F01FC576C4E03E09F419
:10543000CBC4E13E60F4EE3D09F49FC4BE01882771
:1054400077FD8095982FEF3D08F0ADC48BC4EE3FFB
:1054500009F4DFC4EF3F08F0E0C4EA3F08F404C5F4
:10546000C9C4C093230500C5C093220580914E0294
:1054700090914F02A0915002B09151028093250566
:1054800090932605A0932705B0932805EDC4C093FB
:105490002405EAC4F0E0E75AFC4FC083E5C4C0939A
:1054A0006203E2C4D0932E05C0932D05DDC4D093D2
:1054B0003005C0932F05D8C4D0933205C093310571
:1054C000D3C40E94F62F60936405709365058093A2
:1054D000660590936705D0933405C0933305C4C423
:1054E00088EC809318059091D4048091D504891795
:1054F00069F483ED94E00E94062160936005709347
:105500006105809362059093630510C08091F40457
:105510009091F504A091F604B091F7048093600592
:1055200090936105A0936205B0936305BE0188273F
:1055300077FD8095982F0E944D377B018C016091FB
:1055400060057091610580916205909163052091DD
:10555000E8043091E9044091EA045091EB040E9480
:10556000D1359B01AC01C801B7010E94D0356093D1
:10557000F0047093F1048093F2049093F30474C4E4
:10558000C0931905809133059091340590931F05C0
:1055900080931E058091F8049091F904A091FA047B
:1055A000B091FB0454C083E0C93ED8076CF0609111
:1055B0001A0570911B0580911C0590911D0520E036
:1055C00030E04AE754E424C02CEFC831D2077CF421
:1055D00060911A0570911B0580911C0590911D0525
:1055E00020E030E04AE754E40E94D03513C0BE0109
:1055F000882777FD8095982F0E944D379B01AC013D
:1056000060911A0570911B0580911C0590911D05F4
:105610000E94D13560931A0570931B0580931C0579
:1056200090931D0560911A0570911B0580911C05D2
:1056300090911D0520E030E44CE956E40E944E387C
:1056400018160CF011C480E090E4ACE9B6E4809345
:105650001A0590931B05A0931C05B0931D0504C467
:10566000D0936403C0936303FFC3D0936603C093D6
:105670006503FAC3BE01882777FD8095982F0E94A5
:105680004D3720E030E048EC52E40E94B2367B0116
:105690008C01609308057093090580930A05909327
:1056A0000B0560E070E080E490E4A80197010E949F
:1056B000B23660930C0570930D0580930E059093A0
:1056C0000F05C801B701A80197010E9459385B0175
:1056D0006C0160E070E080E490E4A60195010E9416
:1056E000B236609310057093110580931205909364
:1056F0001305C601B501A80197010E9459389B0105
:10570000AC0160E070E080E89FE30E94B2366093F5
:105710001405709315058093160590931705A4C37F
:105720000E944D3760936F047093700480937104EE
:105730009093720499C3BE01882777FD8095982FB6
:105740000E944D37609373047093740480937504C2
:105750009093760489C30E944D3720E030E04AE7F9
:1057600054E40E94B23660935B0470935C048093AF
:105770005D0490935E0478C3BE01882777FD809511
:10578000982F0E944D3720E030E04AE754E40E9411
:10579000B23660935F0470936004809361049093C9
:1057A000620462C3BE01882777FD8095982F0E940E
:1057B0004D3720E030E44CE156E40E94B23660936D
:1057C00063047093640480936504909366044CC3EF
:1057D000BE01882777FD8095982F0E944D376093F2
:1057E0009704709398048093990490939A043CC30F
:1057F000BE01882777FD8095982F0E944D376093D2
:105800009B0470939C0480939D0490939E042CC3EE
:10581000BE01882777FD8095982F0E944D3720E0A4
:1058200030E04AE754E40E94B236609383047093F8
:105830008404809385049093860416C3BE01882750
:1058400077FD8095982F0E944D3720E030E04AE7A1
:1058500054E40E94B2366093870470938804809366
:10586000890490938A0400C3BE01882777FD809540
:10587000982F0E944D3720E030E44CE156E40E941E
:10588000B23660938B0470938C0480938D04909354
:105890008E04EAC2BE01882777FD8095982F0E946A
:1058A0004D376093BF047093C0048093C1049093FC
:1058B000C204DAC2BE01882777FD8095982F0E9426
:1058C0004D376093C3047093C4048093C5049093D0
:1058D000C604CAC2BE01882777FD8095982F0E9412
:1058E0004D3720E030E04AE754E40E94B23660933E
:1058F000AB047093AC048093AD049093AE04B4C237
:10590000BE01882777FD8095982F0E944D3720E0B3
:1059100030E04AE754E40E94B2366093AF047093DB
:10592000B0048093B1049093B2049EC2BE01882754
:1059300077FD8095982F0E944D3720E030E44CE1B0
:1059400056E40E94B2366093B3047093B40480931B
:10595000B5049093B60488C2BE01882777FD809570
:10596000982F0E944D3760937B0370937C03809344
:105970007D0390937E0378C2BE01882777FD8095D2
:10598000982F0E944D3760937F037093800380931C
:1059900081039093820368C2BE01882777FD8095BA
:1059A000982F0E944D3720E030E04AE754E40E94EF
:1059B000B236609367037093680380936903909392
:1059C0006A0352C2BE01882777FD8095982F0E94F6
:1059D0004D3720E030E04AE754E40E94B23660934D
:1059E0006B0370936C0380936D0390936E033CC2C2
:1059F000BE01882777FD8095982F0E944D3720E0C3
:105A000030E44CE156E40E94B23660936F03709329
:105A10007003809371039093720326C2BE0188279E
:105A200077FD8095982F0E944D376093A303709364
:105A3000A4038093A5039093A60316C20E944D373A
:105A40006093A7037093A8038093A9039093AA037C
:105A50000BC2BE01882777FD8095982F0E944D3795
:105A600020E030E04AE754E40E94B23660938F03AE
:105A7000709390038093910390939203F5C10E94D9
:105A80004D3720E030E04AE754E40E94B23660939C
:105A90009303709394038093950390939603E4C1CA
:105AA000BE01882777FD8095982F0E944D3720E012
:105AB00030E44CE156E40E94B23660939703709351
:105AC00098038093990390939A03CEC1BE018827CF
:105AD00077FD8095982F0E944D376093CB0370938C
