:100000000C9492060C94BA060C94BA060C94BA0698
:100010000C94BA060C94BA060C94BA060C94BA0660
:100020000C94BA060C94BA060C94BA060C94BA0650
:100030000C94BA060C94BA060C94D41F0C94991F15
:100040000C9482350C94D5200C94E1370C942F3805
:100050000C94BA060C94BA060C94BA060C94BA0620
:100060000C94BA060C94BA06036EDB363D9A999945
:10007000993DABAAAA2A3E000000803F084AD73B20
:100080003BCE016E84BCBFFDC12F3D6C74319ABD67
:1000900056833DDA3D00C77F11BED9E4BB4C3E918B
:1000A0006BAAAABE000000803F072C7AA5BA6CC5D7
:1000B00090DA3B9365FC8BBC53F810FD3C56928361
:1000C0004DBD879D3AB63DCBC9BF5BBE73DA0FC944
:1000D0003F00007000000000240000000200030048
:1000E0000000650054FFEF0000FA80000B12820050
:1000F00001030C30C30E8C8CE914D5400213710F30
:100100008E3883F8833000F883258EF8833000F82A
:1001100083FFFFFFFF0FFEA9D6240004001A827997
:10012000A10000003CFFFF00000010000038836FBA
:10013000A2003E03304000000002CAE3093E8000F6
:1001400000200000000000000040000000600000EF
:1001500000000C0000000C186E000006920A16C089
:10016000DFFFFF0256FD8CD377FFE1C496E0C5BEEA
:10017000AA00000000FFFF0B2B0000165700000331
:10018000594000000000001DFA00026C1D00000034
:10019000003FFFDFEB003EB3B6000D227800002FDA
:1001A0003C00000000001942B5000039A20000B375
:1001B00065D90E9FC91DCF4C34300000005000009F
:1001C000003BB67AE80064000000C80000000000B0
:1001D00000100000001000FA921000225E000D22B4
:1001E0009F0001000000320000FF46000063D400C1
:1001F000001000000004D6000004CC000004CC0075
:10020000000000107200000040000000000000002C
:100210000000060002000500070000000000640066
:100220000000000000000000050005006400200040
:10023000000000000000000000000040000000037B
:100240000000000032F8980000FF650000830F00F6
:1002500000FF9BFC00000000000000000000000008
:10026000000000000000000000000000000000008E
:10027000000000000000000000000000000000106E
:100280000040000000000000060000B26A0002000A
:10029000000001FB830068000000D9FC007CF1FF36
:1002A000830000000000650000006403E8006400B3
:1002B00028000000250000000016A000000000102B
:1002C0000000001000002F0000000001F4000010EA
:1002D0000000280000FFFF4581FFFFFA72000000C8
:1002E0000000000000004400050005BAC600477881
:1002F000A200000001000000000000060000000055
:10030000140000254D002F706D000005AE000C029A
:10031000D00000000000000000000000000000000D
:1003200000001B00000000000000000000000000B2
:100330000000640000000800000000000000000051
:1003400000000000000000000000000000000000AD
:10035000000000000000000000000000000000009D
:10036000000000000000000000000000000000008D
:10037000000000000000000000000000000000007D
:10038000000000000000000000000000000000006D
:1003900000001B00000000000000000000000E0034
:1003A0000E00000AC70004000000000032FFFFFF3B
:1003B0009C00000B2B000000020000000100000068
:1003C00064FFE500000000000000000000000000E5
:1003D000000000000100000000000100000000001B
:1003E0000000018000000180000001800000242640
:1003F000D30000000000000000000600100096007E
:100400003C000000000000000000000000000000B0
:10041000000C0A4E68CDCF770950166759C619CE21
:10042000820000000000000000000000000000004A
:1004300000000000000000000017D7840003000047
:10044000000000000000000000C7938F9D1E1B1CD1
:100450001900000000000000000000000000000083
:1004600000000000000000000002031885000040AA
:100470000000000003000000030000000000000076
:10048000004000000000000000000000000000002C
:10049000000000000000000000000000000000005C
:1004A000000000000000000000000000000000004C
:1004B0000000000000677DDF7E72902E554CF6E64E
:1004C00088000000000000000000000000000000A4
:1004D00000D8DCB4B8B0D8B9ABF3F8FAB3B7BB8E78
:1004E0009EAEF132F51BF1B4B8B08097F1A9DFDF11
:1004F000DFAADFDFDFF2AAC5CDC7A90CC92C97F1AF
:10050000A989264666B28999A92D557DB0B08AA8D9
:1005100096365676F1BAA3B4B280C0B8A89711B295
:100520008398BAA3F0240844106418B2B9B498832D
:10053000F1A329557DBAB5B1A38393F0002850F5F6
:10054000B2B6AA839328547CF1B9A3829361BAA26C
:10055000DADEDFDB819AB9AEF5606870F1DABAA253
:10056000DFD9BAA2FAB9A38292DB31BAA2D9BAA270
:10057000F8DF85A4D0C1BBAD83C2C5C7B8A2DFDF99
:10058000DFBAA0DFDFDFD8D8F1B8AAB38DB4980DF9
:10059000355DB2B6BAAF8C96198F9FA70E161EB4F2
:1005A0009AB8AA872C547CBAA4B08AB691325676EF
:1005B000B28494A4C808CDD8B8B4B0F19982A82D5B
:1005C000557D98A80E161EA22C547C92A4F02C5097
:1005D00078F184A898C4CDFCD80DDBA8FC2DF3D904
:1005E000BAA6F8DABAA6DED8BAB2B68696A6D0F31C
:1005F000C841DAA6C8F8D8B0B4B882A892F52C548D
:100600008898F135D9F418D8F1A2D0F8F9A884D98E
:10061000C7DFF8F883C5DADF69DF83C1D8F40114D6
:10062000F1A8824EA884F311D182F5D99228978837
:10063000F109F41C1CD884A8F3C0F9D1D99782F130
:1006400029F40DD8F3F9F9D1D982F4C203D8DEDF49
:100650001AD8F1A2FAF9A88498D9C7DFF8F8F88374
:10066000C7DADF69DFF883C3D8F40114F198A882F0
:100670002EA884F311D182F5D992509788F109F40C
:100680001CD884A8F3C0F8F9D1D99782F149F40DA8
:10069000D8F3F9F9D1D982F4C403D8DEDFD8F1ADAB
:1006A0008898CCA809F9D98292A8F57CF1883ACF2C
:1006B000944A6E98DB6931DAADF2DEF9D88795A8F5
:1006C000F221D1DAA5F9F417D9F1AE8ED0C0C3AEBC
:1006D00082C684C3A88595C8A588F2C0F1F4010E2E
:1006E000F18E9EA8C63E56F554F18872F40115F1BC
:1006F0009845856EF58E9E0488F142985A8E9E0626
:100700008869F4011CF1981E1108D0F504F11E97B8
:100710000202983625DBF9D985A5F3C1DA85A5F360
:10072000DFD88595A8F309DAA5FAD88292A8F578DA
:10073000F1881A849F26889821DAF41DF3D8879FC0
:1007400039D1AFD9DFDFFBF9F40CF3D8FAD0F8DAFE
:10075000F9F9D0DFD9F9D8F40BD8F3879F39D1AFA5
:10076000D9DFDFF41DF3D8FAFCA869F9F9AFD0DAC4
:10077000DEFAD9F88F9FA8F1CCF398DB45D9AFDF2B
:10078000D0F8D8F18F9FA8CAF38809DAAF8FCBF8D9
:10079000D8F2AD978D0CD9A5DFF9BAA6F3FAF41209
:1007A000F2D8950DD1D9BAA6F3FADAA5F2C1BAA654
:1007B000F3DFD8F1BAB2B68696A6D0CAF349DAA664
:1007C000CBF8D8B0B4B8D8AD84F2C0DFF18FCBC3CA
:1007D000A8B2B68696C8C1CBC3F3B0B48898A82196
:1007E000DB718D9D71859521D9ADF2FAD88597A8D9
:1007F00028D9F408D8F28D29DAF405D9F285A4C2F3
:10080000F2D8A88D9401D1D9F411F2D88721D8F467
:100810000AD8F28498A8C801D1D9F411D8F3A4C891
:10082000BBAFD0F2DEF8F8F8F8F8F8F8F8D8F1B87D
:10083000F6B5B9B08A95A3DE3CA3D9F8D85CA3D9A4
:10084000F8D87CA3D9F8D8F8F9D1A5D9DFDAFAD845
:10085000B18530F7D9DED8F830ADDADED8F2B48C15
:1008600099A32D557DA083DFDFDFB591A0F629D9AF
:10087000FBD8A0FC29D9FAD8A0D051D9F8D8FC517E
:10088000D9F9D879D9FBD8A0D0FC79D9FAD8A1F96F
:10089000F9F9F9F9A0DADFDFDFD8A1F8F8F8F8F80C
:1008A000ACDEF8ADDE8393AC2C547CF1A8DFDFDF47
:1008B000F69D2CDAA0DFD9FADB2DF8D8A850DAA003
:1008C000D0DED9D0F8F8F8DB55F8D8A878DAA0D07F
:1008D000DFD9D0FAF8F8F8F8DB7DF8D89CA88CF5C9
:1008E00030DB38D9D0DEDFA0D0DEDFD8A848DB5837
:1008F000D9DFD0DEA0DFD0DED8A868DB70D9DFDF9B
:10090000A0DFDFD8F1A888902C547C98A8D05C3860
:10091000D1DAF2AE8CDFF9D8B087A8C1C1B188A80E
:10092000C6F9F9DA36D8A8F9DA36D8A8F9DA36D815
:10093000A8F9DA36D8A8F9DA36D8F78D9DADF818C7
:10094000DAF2AEDFD8F7ADFA30D9A4DEF9D8F2AEDC
:10095000DEFAF983A7D9C3C5C7F1889BA77AADF79B
:10096000DEDFA4F8849408A797F300AEF29819A4E8
:1009700088C6A39488F632DFF28393DB09D9F2AA02
:10098000DFD8D8AEF8F9D1DAF3A4DEA7F1889B7AE4
:10099000D8F38494AE19F9DAAAF1DFD8A881C0C3DC
:1009A000C5C7A39283F628ADDED9F8D8A350ADD938
:1009B000F8D8A378ADD9F8D8F8F9D1A1DADEC3C553
:1009C000C7D8A18194F818F2B089ACC3C5C7F1D8D3
:1009D000B8B4B09786A8319B069907AB9728889B37
:1009E000F00C201440B0B4B8F0A88A9A285078B718
:1009F0009BA8295179247059446938644831F1BB66
:100A0000AB88002C547CF0B38BB8A804285078F144
:100A1000B088B49726A85998BBABB38B022646661C
:100A2000B0B8F08A9CA82951798B2951798A247011
:100A3000598B2058718A4469388B3940688A6448D8
:100A4000318B30496088F1AC002C547CF08CA804C8
:100A5000285078F1889726A85998AC8C02264666CB
:100A6000F0899CA829517924705944693864483127
:100A7000A98809205970AB11384069A8193148601C
:100A80008CA83C415C207C00F187981986A86E7682
:100A90007EA999882D557DD8B1B5B9A3DFDFDFAE2A
:100AA000D0DFAAD0DEF2ABF8F9D9B087C4AAF1DF63
:100AB000DFBBAFDFDFB9D8B1F1A3978E60DFB084C1
:100AC000F2C8F8F9D9DED89385F14AB183A308B505
:100AD000839A0810B79F10D8F1B0BAAEB08AC2B2EC
:100AE000B68E9EF1FBD9F41DD8F9D90CF1D8F8F8DF
:100AF000AD61D9AEFBD8F40CF1D8F8F8AD19D9AE88
:100B0000FBDFD8F416F1D8F8AD8D61D9F4F4ACF56B
:100B10009C9C8DDF2BBAB6AEFAF8F40BD8F1AED0B0
:100B2000F8AD51DAAEFAF8F1D8B9B1B6A3839C08A2
:100B3000B9B1839AB5AAC0FD3083B79F10B58B9326
:100B4000F20202D1ABDADED8F1B080BAABC0C3B2E8
:100B500084C1C3D8B1B9F38BA391B609B4D9ABDEC4
:100B6000B0879CB9A3DDF1B38B8B8B8B8BB087A344
:100B7000A3A3A3B28BB69BF2A3A3A3A3A3A3A3A3F4
:100B8000A3A3F1B087B59AA3F39BA3A3DCBAACDF10
:100B9000B9A3A3A3A3A3A3A3A3A3A3A3A3A3A3A30F
:100BA000A3D8D8D8BBB3B7F1AAF9DAFFD9809AAAEB
:100BB00028B48098A720B79787A86688F07951F164
:100BC000902C870CA781976293F0717160859401D6
:100BD00029517990A5F1284C6C870C95188578A33C
:100BE0008390284C6C886CD8F3A28200F210A892F3
:100BF0001980A2F2D926D8F188A84DD948D896A84C
:100C00003980D93CD89580A839A68698D92CDA871E
:100C1000A72CD8A8899519A980D938D8A88939A925
:100C200080DA3CD8A82EA83990D90CD8A89531984C
:100C3000D90CD8A809D9FFD801DAFFD89539A9DA93
:100C400026FFD890A80D8999A810809821DA2ED86F
:100C50008999A83180DA2ED8A886963180DA2ED8E4
:100C6000A8873180DA2ED8A88292F34180F1D92E5C
:100C7000D8A882F31980F1D92ED882ACF3C0A28013
:100C800022F1A62EA72EA92298A829DAACDEFFD839
:100C9000A2F22AF1A92E8292A8F23180A696F1D969
:100CA00000AC8C9C0C30ACDED0DEFFD88C9CACD081
:100CB00010ACDE8092A2F24C82A8F1CAF235F19615
:100CC00088A6D900D8F1FF00000000240027002AE0
:100CD0000000000000250028002B00000000002379
:100CE000002600290004040404040404040202028F
:100CF000020202030303030303010204081020405D
:100D000080010204081020010204081020000000E5
:100D100007000201000003040600000000000000BC
:100D20000000143911241FBECFEFD8E0DEBFCDBFC5
:100D300011E0A0E0B1E0E2E4FBE702C005900D9213
:100D4000A235B107D9F716E0A2E5B1E001C01D92C6
:100D5000A932B107E1F71DE0C4E2DDE004C022974B
:100D6000FE010E949B3DC232D107C9F70E946A3939
:100D70000C94BC060C940000F8940C949F3DFB016D
:100D8000DC0104C08D910190801921F44150504044
:100D9000C8F7881B990B0895FC011092BC006623CC
:100DA00019F088B1806302C088B18F7C88B9109235
:100DB000B9009F01442737FD4095542F60E87EE33A
:100DC00080E090E00E947E3D205130404040504005
:100DD000CA01B90122E030E040E050E00E947E3DCF
:100DE0002093B80084E08093BC000895482F440FFE
:100DF00092E064EB54E86093BC002AEF30E080910D
:100E0000BC0087FD34C0215030408FEF2F3F3807A2
:100E1000B1F727C08091B900887F883021F08031F8
:100E200011F082E008954093BB005093BC002AEF7C
:100E300030E08091BC0087FD1EC0215030408FEF14
:100E40002F3F3807B1F70FC08091B900887F8032FB
:100E500021F4992351F09150CECF883131F480E0C4
:100E6000089581E0089583E0089584E008951216BE
:100E7000130684F2F6CF1216130634F3F4CFEF9272
:100E8000FF920F931F93162FE42E022FF32E0E9432
:100E9000F6061093BB0084E88093BC002AEF30E094
:100EA0008091BC0087FD07C0215030408FEF2F3F5D
:100EB0003807B1F703C0121613063CF0802F9F2DA0
:100EC0009C01F90190E044E81CC08091B900F6CF84
:100ED00080818093BB004093BC002AEF30E080917A
:100EE000BC0087FD07C0215030408FEF2F3F3807EF
:100EF000B1F705C01216130614F48091B9009F5F74
:100F000031969E1528F384E98093BC0081E01F91FF
:100F10000F91FF90EF9008951F93F82F122F72E01A
:100F2000B4EBE82FEE7FA4E8B093BC002AEF30E0EA
:100F30008091BC0087FDC3C0215030408FEF2F3F10
:100F40003807B1F7ACC08091B900887F883021F0B4
:100F5000803111F091E1B0C0E093BB00A093BC00E0
:100F60002AEF30E08091BC0087FDAEC021503040B8
:100F70008FEF2F3F3807B1F794C09091B900987F59
:100F8000903229F4772309F48EC07150CDCF983177
:100F900009F089C06093BB0084E88093BC002AEF0D
:100FA00030E08091BC0087FD94C0215030408FEF2D
:100FB0002F3F3807B1F779C08091B900887F883218
:100FC00011F095E179C062E0A4EB7F2F7160E4E855
:100FD000A093BC002AEF30E08091BC0087FD7EC06A
:100FE000215030408FEF2F3F3807B1F760C080911C
:100FF000B900887F883021F0803111F097E15CC022
:101000007093BB00E093BC002AEF30E08091BC00FD
:1010100087FD69C0215030408FEF2F3F3807B1F76F
:101020004BC08091B900887F883429F4662309F485
:1010300040C06150CDCF8034E1F5FA0160E0412F2E
:1010400050E041505040A4EC74E822C0862F90E05C
:101050008417950719F47093BC0002C0A093BC00DC
:101060002AEF30E08091BC0087FD42C02150304023
:101070008FEF2F3F3807B1F71EC09091B900987FCE
:10108000903511F09835C1F48091BB0081936F5F6A
:101090006117E0F284E98093BC0090E00DC090E11C
:1010A0000BC092E109C093E107C094E105C096E14D
:1010B00003C099E101C09AE1892F1F91089512168A
:1010C00013060CF440CFEBCF121613060CF455CFD9
:1010D000E8CF121613060CF46FCFE7CF12161306E3
:1010E0000CF485CFE4CF121613060CF49ACFE4CF9C
:1010F0001216130614F2DFCF1092BC0008957F92EF
:101100008F929F92AF92BF92CF92DF92EF92FF9217
:101110000F931F93CF93DF93F82EE62E742E690161
:10112000E8010E94CA354B015C018F2D880F6E2D9E
:10113000A601272D0E948C07882311F01FEF01C004
:10114000172D2097C1F00E94CA35681979098A09BC
:101150009B099E0140E050E06217730784079507E2
:1011600050F0212F332727FD3095872D90E0281749
:1011700039070CF41FEF812FDF91CF911F910F9151
:10118000FF90EF90DF90CF90BF90AF909F908F90A7
:101190007F9008959C018230910518F02FEF3FEF6A
:1011A00045C080936C0290936D028AE290E0AC019E
:1011B000249FC001259F900D349F900D11248E5ABD
:1011C0009E4F9093650280936402C901880F991F16
:1011D000820F931F880F991F880F991F8A559E4F62
:1011E000909367028093660287E290E0AC01249FAF
:1011F000C001259F900D349F900D112482549E4F65
:1012000090936902809368028CE290E0AC01249F85
:10121000C001259F900D349F900D1124845F9D4F38
:1012200090936B0280936A0220E030E0C901089538
:101230000F931F93CF93DF93C0916402D091650207
:1012400085E7888389E189838AE18A838CE08B83BF
:101250008AE68C8383E28D838BE18E838CE18F839E
:101260008FE18A8780E28B8782E78C8784E78D878E
:1012700083E48E878BE38F8781E4888B88E3898B77
:1012800089E38A8B8AE38B8B8BE68D8B8CE68E8B46
:1012900087E38F8B8FE6888F86E0898F84E28A8F41
:1012A0008DE68B8F8EE68C8F80E78D8F89E488A703
:1012B00081E089A785E28E8F86E28F8F87E288A3FF
:1012C00088E289A389E28AA38AE28BA384E38CA3C0
:1012D00083E68DA384E68EA387E68FA380916C02BC
:1012E00090916D02009719F0019769F406C0E091A2
:1012F0006602F091670288E605C0E0916602F0910F
:10130000670289E68083009166021091670280E09F
:1013100094E0F8019283818386E7838384E591E0FA
:101320009583848387EF9DEF9783868380E091E0A8
:101330009187808786E696E293878287209168026C
:101340003091690283E890E0A0E0B0E0F901808389
:101350009183A283B38380E098E0A0E0B0E084832F
:101360009583A683B783108681E08187128688E102
:10137000838782E390E09587848785E0868780E095
:1013800090E0A0E2B1E48787908BA18BB28B80E0E4
:1013900090E0A2EDB2E4838B948BA58BB68B49E2EF
:1013A0005CE56FE07EE3478B508F618F728F8AE937
:1013B00099E9A9E9BEE3838F948FA58FB68F83E364
:1013C00093E3A3E7BFE3878F90A3A1A3B2A343A3B3
:1013D00054A365A376A3E0916A02F0916B02D183D6
:1013E000C0831383028333A722A7DF91CF911F917C
:1013F0000F910895DC01E0916A02F0916B02868101
:10140000882319F081E08C9301C01C9280E090E069
:101410000895DF93CF930F92CDB7DEB7982FA091A9
:101420006A02B0916B025D968C915D97882321F0E2
:10143000992389F082E00DC016968C911697882327
:10144000E9F0992341F01C968C911C978823F9F4BC
:1014500081E0898301C019821296ED91FC91139766
:101460000D90BC91A02D808151966C9141E09E0120
:101470002F5F3F4F0E943F07882319F42FEF3FEF64
:1014800008C0E0916A02F0916B028981848720E0B4
:1014900030E0C9010F90CF91DF910895CF92DF9294
:1014A000EF92FF920F931F93DF93CF9300D0CDB7AE
:1014B000DEB7D82EC92E8B017A014115510519F4DA
:1014C0002FEF3FEF41C0E0916A02F0916B028681FD
:1014D000882319F42EEF3FEF37C0A281B3819B011F
:1014E0002D0D311D18968D919C9119978217930798
:1014F00018F42DEF3FEF28C0C982DA820190F08105
:10150000E02D8C91638D42E09E012F5F3F4F0E9442
:101510003F07882319F42CEF3FEF16C0E0916A02D1
:10152000F0916B02A281B3810190F081E02D8C914A
:10153000608D402F97010E943F07882319F020E01B
:1015400030E002C02BEF3FEFC9010F900F90CF9119
:10155000DF911F910F91FF90EF90DF90CF90089552
:101560001F93DF93CF930F92CDB7DEB7182FA091C3
:101570006A02B0916B025C968C915C97811781F145
:10158000112319F080E3898301C019821D968C9183
:101590001D97882319F08981826089835B968C91DD
:1015A0005B97882319F08981806889831296ED9171
:1015B000FC9113970D90BC91A02D808157966C9152
:1015C00041E09E012F5F3F4F0E943F07882319F49F
:1015D0002FEF3FEF07C0E0916A02F0916B02148F8A
:1015E00020E030E0C9010F90CF91DF911F91089565
:1015F000DF93CF930F92CDB7DEB7BC010097A9F16F
:1016000020916A0230916B02D90119968D919C91BB
:101610001A978617970748F16536710530F50E94CD
:10162000353D61506983F90182819381A081B18147
:10163000FC01808194966C9141E09E012F5F3F4FA9
:101640000E943F07882389F0E0916A02F0916B02C3
:10165000698170E06F5F7F4F818592850E94353D83
:1016600072A361A320E030E002C02FEF3FEFC90179
:101670000F90CF91DF910895DF93CF930F92CDB765
:10168000DEB79C01A0916A02B0916B0216968C9114
:101690001697882399F12C3B310510F081E015C095
:1016A0002236310510F082E010C02A32310510F0E8
:1016B00083E00BC02431310510F084E006C02A30ED
:1016C000310510F085E001C086E0898317969C9172
:1016D000179789819817D9F01296ED91FC9113977D
:1016E0000D90BC91A02D808112966C9141E09E01DD
:1016F0002F5F3F4F0E943F07882319F42FEF3FEFE2
:1017000008C0E0916A02F0916B028981878320E032
:1017100030E0C9010F90CF91DF910895DF93CF930F
:101720000F92CDB7DEB7982FA0916A02B0916B02ED
:1017300016968C9116978823A1F1943061F095301C
:1017400018F4923071F505C0983039F0903149F5B0
:1017500006C0198206C088E003C080E101C088E1AC
:10176000898315962C91159730E0898190E0E3E00C
:1017700095958795EA95E1F72817390709F11296AB
:10178000ED91FC9113970D90BC91A02D808117963F
:101790006C9141E09E012F5F3F4F0E943F078823DD
:1017A00019F42FEF3FEF0EC0E0916A02F0916B0247
:1017B000898190E073E0959587957A95E1F7858327
:1017C00020E030E0C9010F90CF91DF910895DF93C1
:1017D000CF930F92CDB7DEB79C01A0916A02B09172
:1017E0006B0216968C9116978823E1F181E0243FD5
:1017F000380791F081E0253F380720F42A3F310572
:1018000089F508C083E0283E380741F0205D374065
:1018100049F506C0198206C088E003C080E101C016
:1018200088E1898314962C91149730E0898190E0A7
:1018300043E0959587954A95E1F72817390709F10F
:101840001296ED91FC9113970D90BC91A02D808183
:1018500016966C9141E09E012F5F3F4F0E943F071B
:10186000882319F42FEF3FEF0EC0E0916A02F09148
:101870006B02898190E0A3E095958795AA95E1F7A1
:10188000848320E030E0C9010F90CF91DF9108956B
:101890000F931F93DF93CF930F92CDB7DEB7A09135
:1018A0006A02B0916B0216968C911697882309F400
:1018B0001BC119821296ED91FC9113970D90BC916A
:1018C000A02D808151966C9141E08E010F5F1F4FDA
:1018D00098010E943F07882309F406C1E0916A023B
:1018E000F0916B02A281B3810190F081E02D8C9187
:1018F000658141E098010E943F07882309F4F4C004
:10190000E0916A02F0916B02A281B3810190F081B3
:10191000E02D8C91648141E098010E943F0788236B
:1019200009F4E2C0A0916A02B0916B025D968C91BD
:101930005D97882309F469C08CE089831296ED9144
:10194000FC9113970D90BC91A02D808114966C9101
:1019500041E098010E943F07882309F4C5C062E373
:1019600070E080E090E00E94D83580EC8983A091FF
:101970006A02B0916B0216968C91169780FF02C096
:1019800080EE89831296ED91FC9113970D90BC9196
:10199000A02D808114966C9141E09E012F5F3F4FF6
:1019A0000E943F07882309F49FC0A0916A02B0916A
:1019B0006B021C968C911C97882319F082E0898316
:1019C00001C019821296ED91FC9113970D90BC9174
:1019D000A02D808151966C9141E08E010F5F1F4FC9
:1019E00098010E943F07882309F47EC01982E09184
:1019F0006A02F0916B02A281B3810190F081E02D27
:101A00008C91658141E098016BC084E089831296D6
:101A1000ED91FC9113970D90BC91A02D80811496AF
:101A20006C9141E098010E943F07882309F45CC053
:101A3000A0916A02B0916B021D968C911D9788232C
:101A400029F416968C91169780FD02C080E401C09F
:101A500080E689831296ED91FC9113970D90BC91CD
:101A6000A02D808114966C9141E09E012F5F3F4F25
:101A70000E943F078823C1F162E370E080E090E0BC
:101A80000E94D835A0916A02B0916B021C968C918D
:101A90001C97882319F081E0898301C0198212966E
:101AA000ED91FC9113970D90BC91A02D80815196E2
:101AB0006C9141E09E012F5F3F4F0E943F078823BA
:101AC00099F0E0916A02F0916B02A281B3812081CA
:101AD00031813B968C91D90115966C9141E09F0123
:101AE0000E943F07882319F42FEF3FEF02C020E048
:101AF00030E0C9010F90CF91DF911F910F910895B0
:101B00000F931F93CF93DF93982FE0916A02F09188
:101B10006B02858D882319F0C0E0D0E029C0868152
:101B2000882321F1192F1E7F038581238387811745
:101B300019F4C0E0D0E002C0CFEFDFEF112319F4B9
:101B40008785882331F081E00E94090A112381F002
:101B500004C080E00E94090A0BC00E94480C892B37
:101B600039F0E0916A02F0916B020387CFEFDFEF6B
:101B7000CE01DF91CF911F910F9108951F93DF93B5
:101B8000CF9300D0CDB7DEB7182F893208F058C0F8
:101B90008823F9F480E00E94B00A198287E08A83E2
:101BA000E0916A02F0916B02A281B3810190F08111
:101BB000E02D8C91658942E09E012F5F3F4F0E948E
:101BC0003F078823E9F1E0916A02F0916B021786E2
:101BD00046C081E00E94B00A80E28983113011F48E
:101BE0001A8204C0163028F481E08A8385E090E0F0
:101BF0000BC0153128F482E08A838AE090E004C0AB
:101C000083E08A8384E190E00E943C0B8A81829584
:101C1000880F880F807C87608A83E0916A02F09148
:101C20006B02A281B3810190F081E02D8C916589D6
:101C300042E09E012F5F3F4F0E943F07882319F427
:101C40002FEF3FEF0EC0E0916A02F0916B0288E047
:101C50008683108681E0878780E00E94800D20E0E7
:101C600030E0C9010F900F90CF91DF911F9108953F
:101C70000F931F93DF93CF930F92CDB7DEB78C01F5
:101C8000E0916A02F0916B0286818823B9F1858D1B
:101C90008823A1F58785882359F0C8010197889783
:101CA00020F4802F0E94BE0D4DC080E00E94BE0D2A
:101CB0000430110518F464E070E007C0B80183E057
:101CC000093E180710F068EE73E088EE93E00E947A
:101CD000353D61506983E0916A02F0916B02A28107
:101CE000B3810190F081E02D8C91618141E09E01F2
:101CF0002F5F3F4F0E943F07882319F42FEF3FEFDC
:101D000023C0E0916A02F0916B02698170E06F5F1D
:101D10007F4F88EE93E00E94493D7287618781A1E1
:101D200092A18536910510F084E690E00E94F80AB1
:101D3000E0916A02F0916B02818592859695879574
:101D40000E943C0B20E030E0C9010F90CF91DF9161
:101D50001F910F910895CF92DF92EF92FF920F9310
:101D60001F93DF93CF9300D0CDB7DEB7182F092F85
:101D70007B016A0141155105D1F1E0916A02F091B0
:101D80006B028681882399F1A281B3819B01210F87
:101D9000311D18968D919C9119978217930738F1F0
:101DA00009831A830190F081E02D8C91638D42E0CC
:101DB0009E012F5F3F4F0E943F078823C1F0E091B3
:101DC0006A02F0916B02A281B3810190F081E02D53
:101DD00000910001109101018C91608D4E2D9601B2
:101DE0000E947F08882319F020E030E002C02FEF26
:101DF0003FEFC9010F900F90CF91DF911F910F918D
:101E0000FF90EF90DF90CF900895DF92EF92FF92D6
:101E10000F931F93DF93CF930F92CDB7DEB7D82EDA
:101E2000E0916A02F0916B0285858D1509F49EC0E0
:101E3000A281B3810190F081E02D00910001109109
:101E400001017E010894E11CF11CDD2089F18C91D7
:101E5000648141E097010E947F08882309F47EC0D5
:101E600089818F7D8983E0916A02F0916B02A28162
:101E7000B3810190F081E02D8C91648141E0970164
:101E80000E943F07882309F469C063E070E080E0A6
:101E900090E00E94D83582E08983A0916A02B091D7
:101EA0006B025B968C915B978823F1F182E839C0D5
:101EB0008C91648141E097010E947F08882309F496
:101EC0004DC0A0916A02B0916B0216968C91169744
:101ED000998180FF02C0906201C09F7D9983129614
:101EE000ED91FC9113970D90BC91A02D80811496DB
:101EF0006C9141E09E012F5F3F4F0E943F07882376
:101F000069F163E070E080E090E00E94D835A09134
:101F10006A02B0916B025B968C915B97882319F0F3
:101F200080E8898301C019825C968C915C97882334
:101F300019F08981806389831296ED91FC91139742
:101F40000D90BC91A02D808157966C9141E09E012F
:101F50002F5F3F4F0E943F07882319F42FEF3FEF79
:101F600007C0E0916A02F0916B02D58620E030E074
:101F7000C9010F90CF91DF911F910F91FF90EF90CA
:101F8000DF900895DF93CF930F92CDB7DEB7982FF0
:101F9000E0916A02F0916B02858D891709F44AC0BD
:101FA000992369F1868D882319F42FEF3FEF44C000
:101FB00080E00E94090A80E00E94050FE0916A0219
:101FC000F0916B02878D90A10E94380E1982E091EA
:101FD0006A02F0916B020280F381E02D808163E25E
:101FE00041E09E012F5F3F4F0E943F07E0916A0250
:101FF000F0916B0281E0858F0E94090A19C080E090
:102000000E94090AE0916A02F0916B02838589833C
:102010000280F381E02D808163E241E09E012F5F29
:102020003F4F0E943F07E0916A02F0916B02158ECC
:102030000E94480C20E030E0C9010F90CF91DF9161
:1020400008956F927F928F929F92AF92BF92CF929C
:10205000DF92EF92FF920F931F93DF93CF9300D005
:10206000CDB7DEB76C013B014A01A0916A02B09185
:102070006B025D968C915D97882319F42FEF3FEFEB
:102080007CC016968C911697882319F42EEF3FEF9B
:1020900074C01296ED91FC9113970D90BC91A02DF8
:1020A000009100011091010180811C966C9142E029
:1020B0005E010894A11CB11C95010E947F08882331
:1020C00019F42DEF3FEF59C0998180E02A81E22E6B
:1020D000FF24E82AF92AEC14FD0428F4F401108204
:1020E00021E030E04AC0E0916A02F0916B02A281E7
:1020F000B38111968D919C911297969587958E1527
:102100009F05D0F40190F081E02D00910001109125
:1021100001018C91638941E095010E947F08882329
:1021200019F42BEF3FEF29C0898184FF05C00E947D
:10213000480C22E030E021C0E0916A02F0916B028D
:10214000A281B3810190F081E02D009100011091F6
:1021500001018C9165854C2D93010E947F08882395
:1021600019F429EF3FEF09C0C701B6010E94353DC0
:102170006150F401608320E030E0C9010F900F90BE
:10218000CF91DF911F910F91FF90EF90DF90CF9053
:10219000BF90AF909F908F907F906F900895DF9247
:1021A000EF92FF920F931F93DF93CF9300D0CDB7A1
:1021B000DEB7D82EE82EFF24C70180779070892BD8
:1021C00011F081E005C0DD2011F0198202C080E429
:1021D0008983E0916A02F0916B02A281B381019040
:1021E000F081E02D8C91658941E09E012F5F3F4F8A
:1021F0000E943F07A0916A02B0916B02882319F4F4
:1022000016961C9230C089818F7B18968C931897F4
:102210001982E6FC02C084E08983E5FC03C0898161
:1022200082608983E4FC03C0898181608983E3FC47
:1022300003C08981886389831296ED91FC9113977D
:102240000D90BC91A02D808156966C9141E09E012D
:102250002F5F3F4F0E943F07882341F4E0916A02BD
:10226000F0916B0216822FEF3FEF6CC0DD2031F052
:1022700088E0D81619F080E00E94B00AE0916A0266
:10228000F0916B02A281B3810190F081E02D009169
:102290000001109101018C91648141E09E012E5F4B
:1022A0003F4F0E947F088823F1F29A81E0FE04C02C
:1022B00081E08983906202C019829F7D9A83A091F8
:1022C0006A02B0916B025D968C915D979A8188232A
:1022D00011F0906801C09F779A831296ED91FC915E
:1022E00013970D90BC91A02D808196966C9141E042
:1022F0009E012F5F3F4F0E943F07882309F4B3CF11
:10230000E0916A02F0916B02A281B3810190F081A9
:10231000E02D8C91648141E09E012E5F3F4F0E9431
:102320003F07882309F49FCFE0916A02F0916B0286
:10233000D682178662E370E080E090E00E94D83594
:1023400020E030E0C9010F900F90CF91DF911F91F5
:102350000F91FF90EF90DF900895CF92DF92EF9270
:10236000FF920F931F93DF93CF93CDB7DEB72997DB
:102370000FB6F894DEBF0FBECDBF7C016B01A091FC
:102380006A02B0916B0216968C91169780FD03C07D
:102390002FEF3FEF96C01296ED91FC9113970D90A1
:1023A000BC91A02D009100011091010180819896AF
:1023B0006C9148E09E012F5F3F4F0E947F08882369
:1023C00019F42CEF3FEF7DC0898180FD03C021E02F
:1023D00030E077C0888587FD72C086FD70C03B8184
:1023E00020E06A8170E0622B732BF70171836083B8
:1023F0003D8120E04C8150E0242B352B3383228318
:102400003F8120E04E8150E0242B352B35832483FF
:1024100000916A0210916B02882777FD8095982FB2
:10242000F80124A135A1442737FD4095542F0E947F
:102430000A3D672F782F892F992787FD9A95F701F5
:102440007183608362817381882777FD8095982FDF
:10245000F80126A137A1442737FD4095542F0E944B
:102460000A3D672F782F892F992787FD9A95F701C5
:102470007383628364817581882777FD8095982FA7
:10248000F80120A531A5442737FD4095542F0E941F
:102490000A3D672F782F892F992787FD9A95F70195
:1024A00075836483C114D10439F00E94CA35F601E2
:1024B000608371838283938320E030E002C02AEF3F
:1024C0003FEFC90129960FB6F894DEBF0FBECDBF0E
:1024D000CF91DF911F910F91FF90EF90DF90CF9000
:1024E00008952F923F924F925F926F927F928F92B8
:1024F0009F92AF92BF92CF92DF92EF92FF920F9393
:102500001F93DF93CF93CDB7DEB764970FB6F894E0
:10251000DEBF0FBECDBF3C014B014B8B5C8B190165
:10252000E0916A02F0916B02868D882319F02FEFFB
:102530003FEF75C06115710519F42EEF3FEF6FC0C5
:1025400080E190E00E94AB36B92EC82ED92EA82E7D
:10255000EE24FF2463E0462E512C4C0E5D1E38C045
:1025600083010E191F090131110510F000E110E07F
:1025700094012E0D3F1DD601A601400F511F05C02D
:10258000F90184918D932F5F3F4FA417B507C1F7D1
:10259000C701B801A5010E944E0A892B19F02DEF41
:1025A0003FEF3DC0C701B801A2010E94AB0E892BCD
:1025B00019F02CEF3FEF33C0C501B201A8010E9412
:1025C000BF06009719F02BEF3FEF29C0E00EF11E78
:1025D000E614F70428F2FC89F9838B898A83E09159
:1025E0006A02F0916B02A281B3810190F081E02D2B
:1025F0008C91658D42E09E012F5F3F4F0E943F0707
:10260000882319F42AEF3FEF0AC0E0916A02F091A3
:102610006B0281E0868F30A2278E20E030E0C90176
:1026200064960FB6F894DEBF0FBECDBFCF91DF9199
:102630001F910F91FF90EF90DF90CF90BF90AF90E0
:102640009F908F907F906F905F904F903F902F90D2
:102650000895EF92FF920F931F93DF93CF93CDB71F
:10266000DEB72B970FB6F894DEBF0FBECDBF80E864
:102670008D83E0916A02F0916B02A281B381019097
:10268000F081E02D15E0E12EF12CEC0EFD1E8C9179
:10269000658941E097010E943F07882319F42FEFD5
:1026A0003FEF26C264E670E080E090E00E94D835FB
:1026B0001D82E0916A02F0916B02A281B3810190C8
:1026C000F081E02D8C91658941E097010E943F07E0
:1026D000882319F42EEF3FEF0BC2E0916A02F091CC
:1026E0006B02A281B3810190F081E02D0091000185
:1026F000109101018C91618D46E097010E947F0845
:10270000882319F42DEF3FEFF3C18A8590E08170A3
:102710009070880F991F880F991F288530E02170CD
:102720003070220F331F982F922B8E818170982B3F
:1027300091F0913031F4E0916A02F0916B0296874A
:1027400032C0923019F02CEF3FEFD2C1E0916A0213
:10275000F0916B0227C0E0916A02F0916B02A281B6
:10276000B3810190F081E02D0091000110910101F1
:102770008C91638141E097010E947F08882319F4BE
:102780002BEF3FEFB5C18D818F7019F42AEF3FEF2A
:10279000AFC1E0916A02F0916B02843019F481E0DC
:1027A000868701C01686E0916A02F0916B028FEF76
:1027B00086838483858387832FEF3FEF328721874A
:1027C0008387858732A321A381E08087838F148E3E
:1027D000108A178671968AE011928A95E9F7E0913E
:1027E0006A02F0916B02158E168E10A2178E80ED84
:1027F00097E00E94E70B892B19F026EF3FEF78C195
:1028000082E00E948E0B892B19F025EF3FEF70C1FB
:102810008AE290E00E943C0B892B19F024EF3FEFF5
:1028200067C182E390E00E94380E892B19F023EFF4
:102830003FEF5EC180E00E94800D892B19F022EFEE
:102840003FEF56C181E00E94050F9CE07E01089495
:10285000E11CF11C0091000110910101892F60E041
:1028600041E097019B870E947F089B85882399F010
:102870008981883481F4E0916A02F0916B0293A31C
:10288000198283A16AE041E097010E943F078823F3
:1028900009F420C104C09F5F9031E1F61BC161E0E3
:1028A00070E080E090E00E94D8358FE08983E0916D
:1028B0006A02F0916B0283A16AE041E097010E94F5
:1028C0003F07882309F406C161E070E080E090E0F2
:1028D0000E94D835E0916A02F0916B0200910001EC
:1028E0001091010183A160E143E097010E947F08FC
:1028F000882309F4EFC0E0916A02F0916B028981AC
:1029000090E080589F4F95A384A38A8190E08058DF
:102910009F4F97A386A38B8190E080589F4F91A7EC
:1029200080A7198283A16AE041E097010E943F07D6
:10293000882309F4CFC061E070E080E090E00E945D
:10294000D83580E00E94050F80E48983E0916A0217
:10295000F0916B02A281B3810190F081E02D8C9106
:10296000628D41E097010E943F07882309F4B2C0BD
:10297000E0916A02F0916B0283A180688983A28151
:10298000B3810190F081E02D8C91668D41E097013B
:102990000E943F07882309F49DC082E08983E0916B
:1029A0006A02F0916B02A281B3810190F081E02D67
:1029B0008C91678D41E097010E943F07882309F4BD
:1029C00089C088E88983E0916A02F0916B02A28154
:1029D000B3810190F081E02D8C9160A141E09701DD
:1029E0000E943F07882309F475C0E0916A02F091C4
:1029F0006B0283A18983A281B3810190F081E02DD4
:102A00008C9161A141E08E010F5F1F4F98010E94E0
:102A10003F07882309F45EC08AE08983E0916A0257
:102A2000F0916B02A281B3810190F081E02D8C9135
:102A300062A141E098010E943F07882309F44AC03F
:102A400081E88983E0916A02F0916B02A281B381EF
:102A50000190F081E02D8C9163A141E098010E94EA
:102A60003F078823B9F181E08983E0916A02F09100
:102A70006B02A281B3810190F081E02D8C9166A15F
:102A800041E098010E943F07882321F183E0898378
:102A9000E0916A02F0916B02A281B3810190F08112
:102AA000E02D8C9167A141E098010E943F078823A7
:102AB00089F080E88983E0916A02F0916B02A2813B
:102AC000B3810190F081E02D8C9161A541E09801E6
:102AD0000E943F078AE090E00E94F80A892B19F0D3
:102AE00021EF3FEF05C080E00E94CF1020E030E0F2
:102AF000C9012B960FB6F894DEBF0FBECDBFCF91A4
:102B0000DF911F910F91FF90EF9008959C0182300B
:102B1000910518F02FEF3FEF16C080938602909337
:102B200087028BE090E0AC01249FC001259F900DAF
:102B3000349F900D112482599D4F9093850280936C
:102B4000840220E030E0C9010895E0918402F09110
:102B500085021182108213821282158214821782DA
:102B6000168211861086128608952F923F924F92F8
:102B70005F926F927F928F929F92AF92BF92CF920D
:102B8000DF92EF92FF920F931F93DF93CF93CDB716
:102B9000DEB7AC970FB6F894DEBF0FBECDBF9EA3D5
:102BA0008DA378A76FA32A013AA729A71CA70BA773
:102BB000A701D8011D921C92E0918402F091850238
:102BC000828590E0BE016F5F7F4F0E9421109CA321
:102BD0008BA3892B09F0B2C1E0918402F0918502A8
:102BE000FAA3E9A38681978184719070892B11F4EF
:102BF00040E017C1A980BB24CC24DD24DA2CCC24EE
:102C0000BB24AA248A8190E0A0E0B0E0DC019927EF
:102C10008827A82AB92ACA2ADB2A8C8190E0A0E05A
:102C2000B0E0A82AB92ACA2ADB2A8B8190E0A0E06A
:102C3000B0E0BA2FA92F982F8827A82AB92ACA2A24
:102C4000DB2AD201AD92BD92CD92DC9213972D81F9
:102C500030E040E050E0522F4427332722278E8176
:102C600090E0A0E0B0E0DC0199278827282B392BE1
:102C70004A2B5B2B888590E0A0E0B0E0282B392B15
:102C80004A2B5B2B8F8190E0A0E0B0E0BA2FA92FF8
:102C9000982F8827282B392B4A2B5B2BF201248372
:102CA000358346835783298530E040E050E0522F3A
:102CB0004427332722278A8590E0A0E0B0E0DC019A
:102CC00099278827282B392B4A2B5B2B8C8590E062
:102CD000A0E0B0E0282B392B4A2B5B2B8B8590E0B2
:102CE000A0E0B0E0BA2FA92F982F8827282B392BE6
:102CF0004A2B5B2BD20118962D933D934D935C93F9
:102D00001B972D8530E040E050E0522F44273327B9
:102D100022278E8590E0A0E0B0E0DC01992788278B
:102D2000282B392B4A2B5B2B888990E0A0E0B0E060
:102D3000282B392B4A2B5B2B8F8590E0A0E0B0E04D
:102D4000BA2FA92F982F8827282B392B4A2B5B2B9A
:102D500024873587468757875601DD24B7FCD094F2
:102D6000CD2C64807580868097803401992477FC0F
:102D70009094892C208431844284538412015524F8
:102D800037FC5094452C9A01552737FD5095452F17
:102D9000CA01B9010E940A3D7B018C01C601B5013F
:102DA000A60195010E940A3DE60EF71E081F191F95
:102DB000C401B301A40193010E940A3DE60EF71E6F
:102DC000081F191FC201B101A20191010E940A3D11
:102DD000E60EF71E081F191F80E090E0A0E0B1EF9B
:102DE000E80EF91E0A1F1B1F91E0E91690E0F90694
:102DF00090E0090792E0190758F00E94480CABA533
:102E0000BCA51D921C92E3E0F0E0FCA3EBA396C0EE
:102E1000ABA5BCA58D919C91119791608D939C93CE
:102E200040E1E9A1FAA1868186FF39C0A42FB0E074
:102E3000FE01EA0FFB1F228130E0FE01EA0FFB1FBB
:102E4000918180E0282B392BEFA1F8A531832083D5
:102E5000FE01EA0FFB1F338120E0FE01EA0FFB1F9A
:102E6000848190E0282B392BEFA1F8A533832283AE
:102E7000FE01EA0FFB1F358120E0868190E0282BC0
:102E8000392BAFA1B8A515963C932E9314974A5FA2
:102E9000EBA5FCA580819181886091838083A9A1A5
:102EA000BAA116968D919C91179780789170892B75
:102EB000C1F1A42FB0E0FE01EA0FFB1F228130E038
:102EC000FE01EA0FFB1F918180E0282B392BEDA139
:102ED000FEA131832083FE01EA0FFB1F338120E036
:102EE000FE01EA0FFB1F848190E0282B392BEDA116
:102EF000FEA133832283FE01EA0FFB1F358120E010
:102F0000868190E0282B392BADA1BEA115963C936C
:102F10002E931497EBA5FCA5808191818067918306
:102F2000808389A59AA5892B49F00E94CA35A9A555
:102F3000BAA56D937D938D939C9313978BA19CA1C0
:102F4000AC960FB6F894DEBF0FBECDBFCF91DF9128
:102F50001F910F91FF90EF90DF90CF90BF90AF90B7
:102F60009F908F907F906F905F904F903F902F90A9
:102F70000895DF93CF93CDB7DEB729970FB6F894B6
:102F8000DEBF0FBECDBF9E012F5F3F4F882349F0AC
:102F9000D901E0E2F1E089E001900D928150E1F782
:102FA00008C0D901E7E1F1E089E001900D9281507C
:102FB000E1F788EB94E069E070E0AE014F5F5F4FAE
:102FC0000E944E0A29960FB6F894DEBF0FBECDBF01
:102FD000CF91DF9108950F931F93DF93CF93CDB7D8
:102FE000DEB728970FB6F894DEBF0FBECDBF8C01B9
:102FF000893C9105F0F488EC90E0B8010E94353DE1
:103000006150704079836A8386E192E062E070E00B
:10301000AE014F5F5F4F0E944E0A892B51F481EC45
:103020009AE06CE070E049E251E00E944E0A892B80
:1030300019F02FEF3FEF08C0E0918402F091850274
:103040001187008720E030E0C90128960FB6F89478
:10305000DEBF0FBECDBFCF91DF911F910F910895BD
:10306000EF92FF920F931F93DF93CF9300D000D086
:1030700000D0CDB7DEB78C01AC0143705070FA01BF
:10308000E25CFE4F80818983C801E3E096958795D5
:10309000EA95E1F783709070FC01E25CFE4F2081BD
:1030A0002A83D80176E0B695A7957A95E1F7A370C3
:1030B000B070FD01E25CFE4F20812B83455C5E4FCA
:1030C000FA0120812C83855C9E4FFC0180818D83D9
:1030D000A55CBE4F8C918E8386E294E063E070E045
:1030E0007E010894E11CF11CA7010E944E0A892B65
:1030F00009F04BC08AE294E063E070E0AE014C5FFF
:103100005F4F0E944E0A892B09F03FC0D701E8E3C8
:10311000F1E083E001900D928150E1F7DE01149619
:10312000E5E3F1E083E001900D928150E1F702FFC9
:1031300006C08981816089838C8181608C8305FFD1
:1031400006C08A8181608A838D8181608D8310FFB2
:1031500006C08B8181608B838E8181608E8380E449
:1031600094E063E070E0AE014F5F5F4F0E944E0A53
:10317000892B59F481E394E063E070E0AE014C5F89
:103180005F4F0E944E0A892B19F02FEF3FEF08C0C6
:10319000E0918402F09185021583048320E030E001
:1031A000C90126960FB6F894DEBF0FBECDBFCF91F2
:1031B000DF911F910F91FF90EF900895DF93CF93D0
:1031C00000D000D0CDB7DEB7882349F080E28983F4
:1031D00088E28A8380E38B8388E38C8308C083EA58
:1031E00093EAA3EAB3EA89839A83AB83BC838EE92B
:1031F0009AE064E070E0AE014F5F5F4F0E944E0ABC
:103200000E94480C0F900F900F900F90CF91DF917C
:103210000895DF93CF9300D000D0CDB7DEB78823D9
:1032200049F080EC898382EC8A8384EC8B8386EC82
:103230008C8308C08BE89BE8ABE8BBE889839A8362
:10324000AB83BC8388E99AE064E070E0AE014F5F35
:103250005F4F0E944E0A0E94480C0F900F900F90F3
:103260000F90CF91DF910895AF92BF92CF92DF92EE
:10327000EF92FF920F931F93DF93CF93CDB7DEB7FB
:103280002A970FB6F894DEBF0FBECDBF8C0182E047
:1032900089838AEC8A8383EE8B8389E08C8388E63A
:1032A00090E064E070E0AE014F5F5F4F0E944E0A15
:1032B00083EA8983B0E4AB2EB12CA022B12206FFB1
:1032C00006C080EC8A8388EC8B8382EC02C08A8300
:1032D0008B838C83A0E8EA2EA1E0FA2EE022F12273
:1032E000E114F10431F084EC8D838CEC8E8386EC58
:1032F00003C083EA8D838E838F8383EA88878987DF
:103300008A8787EA9AE06AE070E0AE014F5F5F4F1C
:103310000E944E0AF3E0CF2ED12CC022D122C1143C
:10332000D10411F080E201C088ED898386EB9AE038
:1033300061E070E0AE014F5F5F4F0E944E0A05FFF3
:1033400002C081E001C080E00E94B917E114F104DD
:10335000D9F010FF08C082EB89838BE88A8386EB63
:103360008B838BE907C080EB898380E88A8384EBB9
:103370008B8380E98C8382EA9AE064E070E0AE019E
:103380004F5F5F4F0E944E0A02FF02C081E001C002
:1033900080E00E94091904FF02C081E001C080E0C2
:1033A0000E94DE18E0918402F0918502C8018860D5
:1033B000978386830E94480CE0918402F0918502F5
:1033C0001286AB2811F086E08287EF2819F08285FB
:1033D0008A5F828704711070012B19F08285805FEB
:1033E0008287CD2819F082858C5F828780E090E00B
:1033F0002A960FB6F894DEBF0FBECDBFCF91DF91F6
:103400001F910F91FF90EF90DF90CF90BF90AF9002
:10341000089586EF9BE061ED70E040E054E028EC19
:1034200030E00E94711208952F923F924F925F9266
:103430006F927F928F929F92AF92BF92CF92DF92C4
:10344000EF92FF920F931F93DF93CF93CDB7DEB729
:1034500064970FB6F894DEBF0FBECDBF1092CD02B9
:103460001092CC028EEC92E064ED72E04CEB52E0F4
:1034700020E030E00CEC12E0FAEDEF2EF2E0FF2E4F
:103480000E94B5159093DC028093DB02009709F04F
:10349000DAC28091DA028230E8F08EEC92E064EDDC
:1034A00072E04CEB52E020E030E00CEC12E0EAED90
:1034B000EE2EE2E0FE2E0E94B5159C019093DC02F8
:1034C0008093DB028091DA02823008F4BBC2232BA6
:1034D00021F3B8C26091BC027091BD028091BE021E
:1034E0009091BF020E94333B20E030E040E850E37F
:1034F0000E943F3C1B012C016093BC027093BD02F3
:103500008093BE029093BF026091C0027091C1028D
:103510008091C2029091C3020E94333B20E030E0D0
:1035200040E850E30E943F3C69837A838B839C830D
:103530006093C0027093C1028093C2029093C30251
:103540006091C4027091C5028091C6029091C70239
:103550000E94333B20E030E040E850E30E943F3CD3
:103560005B016C016093C4027093C5028093C60234
:103570009093C7026091C8027091C9028091CA02FB
:103580009091CB020E94333B20E030E040E850E3D2
:103590000E943F3C6D837E838F8398876093C8022F
:1035A0007093C9028093CA029093CB02C601B50101
:1035B000A60195010E943F3C69877A878B879C878B
:1035C0006093DF027093E0028093E1029093E20245
:1035D0006D817E818F8198859B01AC010E943F3C6B
:1035E0006D877E878F87988B6093E3027093E402E8
:1035F0008093E5029093E602C201B101A20191011C
:103600000E943F3C698B7A8B8B8B9C8B6093E7028B
:103610007093E8028093E9029093EA0269817A81CB
:103620008B819C812D813E814F8158850E943F3C3A
:103630007B018C01C201B101A60195010E943F3CB2
:103640009B01AC01C801B7010E94B6393B014C0196
:103650006093EB027093EC028093ED029093EE0284
:1036600025EE32EF4FEF5EE30E94343C1816BCF4B7
:10367000C601B501A20191010E94413A9B01AC0132
:103680000E94B739609390027093910280939202E6
:10369000909393028BED9FE0A9ECBFE322C0C4019D
:1036A000B30125EE32EF4FEF5EEB0E94943A882390
:1036B0006CF5C601B501A20191010E94413A20E0DA
:1036C00030E040E050EC0E943F3C609390027093E9
:1036D000910280939202909393028BED9FE0A9EC6C
:1036E000BFEB80938C0290938D02A0938E02B093D7
:1036F0008F0280E090E0A0E0B0E080938802909399
:103700008902A0938A02B0938B0294C069817A8166
:103710008B819C81A20191010E943F3C7B018C0125
:10372000C601B5012D813E814F8158850E943F3CE5
:103730009B01AC01C801B7010E94B7399B01AC01E4
:103740000E94B7397B018C016D857E858F859889B4
:1037500029893A894B895C890E94B73920E030E099
:1037600040E050EC0E943F3C20E030E040E85FE366
:103770000E94B7399B01AC01C801B7010E94413AD0
:1037800060939002709391028093920290939302BF
:10379000C401B301A40193010E94B7390E941B3AEE
:1037A00060938C0270938D0280938E0290938F02AF
:1037B00069817A818B819C81A60195010E943F3CA1
:1037C0007B018C016D817E818F819885A2019101A1
:1037D0000E943F3C9B01AC01C801B7010E94B63971
:1037E0009B01AC010E94B7397B018C0169857A8508
:1037F0008B859C852D853E854F8558890E94B739DC
:1038000020E030E040E050EC0E943F3C20E030E01F
:1038100040E85FE30E94B7399B01AC01C801B701E2
:103820000E94413A609388027093890280938A02D1
:1038300090938B02609188027091890280918A0234
:1038400090918B0221EE3EE245E652E40E943F3C1D
:103850009058609388027093890280938A029093B3
:103860008B0260918C0270918D0280918E029091FA
:103870008F0221EE3EE245E652E40E943F3C905822
:1038800060938C0270938D0280938E0290938F02CE
:1038900060919002709191028091920290919302B6
:1038A00021EE3EE245E652E40E943F3C5B016C01A2
:1038B00020E030E044E353E40E94B7397B018C01FF
:1038C00020E030E044E353E40E94343C181654F402
:1038D000C601B50120E030E044E353E40E94B6396C
:1038E0007B018C01D801C701B0588093900290935E
:1038F0009102A0939202B09393026091D2027091D0
:10390000D302882777FD8095982F0E94333B20E0D3
:1039100030E043E851E40E94983A60939402709337
:10392000950280939602909397026091D0027091D5
:10393000D102882777FD8095982F0E94333B20E0A5
:1039400030E043E851E40E94983A60939802709303
:10395000990280939A0290939B026091CE0270919B
:10396000CF02882777FD8095982F0E94333B20E077
:1039700030E043E851E40E94983A60939C027093CF
:103980009D0280939E0290939F026091D402709159
:10399000D502882777FD8095982F0E94333B20E041
:1039A00030E040E858E30E943F3C6093A0027093EF
:1039B000A1028093A2029093A3026091D60270911B
:1039C000D702882777FD8095982F0E94333B20E00F
:1039D00030E040E858E30E943F3C6093A4027093BB
:1039E000A5028093A6029093A7026091D8027091DD
:1039F000D902882777FD8095982F0E94333B20E0DD
:103A000030E040E858E30E943F3C2091B8023091FA
:103A1000B9024091BA025091BB020E94B63960933C
:103A2000A8027093A9028093AA029093AB0280919E
:103A3000DD029091DE0201969093DE028093DD021A
:103A400080E001C081E864960FB6F894DEBF0FBE37
:103A5000CDBFCF91DF911F910F91FF90EF90DF903D
:103A6000CF90BF90AF909F908F907F906F905F901E
:103A70004F903F902F9008958091EF029091F00227
:103A800062E370E00E94353D8091DD029091DE029C
:103A90008617970710F481E0089581EF92E060E0C7
:103AA00070E00E94AD119093DC028093DB020097DE
:103AB000D9F56091F1027091F202882777FD809527
:103AC000982F0E94333B6093AC027093AD028093B9
:103AD000AE029093AF026091F3027091F4028827D6
:103AE00077FD8095982F0E94333B6093B0027093CE
:103AF000B1028093B2029093B3026091F50270918B
:103B0000F602882777FD8095982F0E94333B6093BB
:103B1000B4027093B5028093B6029093B7021092EC
:103B2000DE021092DD0280E008950E94480C0895A4
:103B30000F931F93CF93DF93EB018A017093F002F1
:103B40006093EF021092DE021092DD020E94CA081A
:103B50000E94180980E090E0A0E0B0E08093B802F5
:103B60009093B902A093BA02B093BB0280E090E0B8
:103B70000E9429139093DC028093DB02009711F0DE
:103B8000865F83C089E70E94CF109093DC02809308
:103B9000DB02009711F08C5E78C080ED97E00E9408
:103BA000E70B9093DC028093DB02009711F0825EBA
:103BB0006CC082E00E948E0B9093DC028093DB024B
:103BC000009711F0885D61C082E390E00E94F80ADE
:103BD0009093DC028093DB02009711F08E5C55C05D
:103BE0008BED92E00E94FA098091DB029091DC0259
:103BF000892B11F48CE349C088E70E94800D9093D3
:103C0000DC028093DB02009711F08A5B3EC080E00B
:103C100090E00E9486150E94A5150E94091A9093B3
:103C2000DC028093DB02009711F0805B2EC0C8019C
:103C30000E9430189093DC028093DB02009711F011
:103C4000865A23C0CE010E94EB179093DC0280932A
:103C5000DB02009711F08C5918C081E00E94C20F5E
:103C60009093DC028093DB02009711F082590DC023
:103C700080E791E00E9434199093DC028093DB028C
:103C8000009711F480E001C08858DF91CF911F9117
:103C90000F910895FC0180E090E0A0E0B0E0808703
:103CA0009187A287B38784839583A683B783808314
:103CB0009183A283B383808F918FA28FB38F848BE4
:103CC000958BA68BB78B848F958FA68FB78F84A388
:103CD00095A3A6A3B7A380A391A3A2A3B3A384870C
:103CE0009587A687B787808B918BA28BB38B80E05B
:103CF00090E0089520E030E040E050E0FC012487AF
:103D000035874687578708952F923F924F925F924B
:103D10006F927F928F929F92AF92BF92CF92DF92DB
:103D2000EF92FF920F931F93CF93DF93EC013A0131
:103D30004B0118012901CB01BA012C813D814E8133
:103D40005F810E943F3CA20191010E943F3C2C8573
:103D50003D854E855F850E94B7395B016C016C879C
:103D60007D878E879F87E88CF98C0A8D1B8DA80133
:103D700097010E94343C181664F017FB109517F950
:103D80001095C601B501A80197010E94943A8823B5
:103D900024F4EC86FD860E871F8768A179A18AA18D
:103DA0009BA1A20191010E94983A9B01AC01C40120
:103DB000B3010E94B639688B798B8A8B9B8BECA000
:103DC000FDA00EA11FA1A80197010E94B63921EB09
:103DD00030E945EC5EE30E943F3C9B01AC01C80129
:103DE000B7010E94B7395B016C01688B798B8A8BB4
:103DF0009B8BC401B301288139814A815B810E9478
:103E00003F3C2C853D854E855F850E94B7397B01FF
:103E10008C01C601B501288539854A855B850E94DC
:103E20003F3C9B01AC01C801B7010E94B6396C8FC1
:103E30007D8F8E8F9F8FEC88FD880E891F89A8014A
:103E400097010E94343C181624F4EC8EFD8E0E8FE0
:103E50001F8F8C899D89AE89BF897C018D0117FBDD
:103E6000109517F910956C8D7D8D8E8D9F8DA80105
:103E700097010E94943A882324F4EC8EFD8E0E8FD5
:103E80001F8F68A279A28AA29BA288899989AA8990
:103E9000BB898CA39DA3AEA3BFA3DF91CF911F913C
:103EA0000F91FF90EF90DF90CF90BF90AF909F90D9
:103EB0008F907F906F905F904F903F902F900895DC
:103EC0008091F7029091F80253E0959587955A9565
:103ED000E1F790938900809388008091F902909196
:103EE000FA0243E0959587954A95E1F78093B400EF
:103EF0008091FB029091FC0233E0959587953A956D
:103F0000E1F7809302038091FD029091FE0223E08D
:103F1000959587952A95E1F7809300038091020398
:103F20008095809301038091000380958093FF0228
:103F300008951F920F920FB60F9211248F939F93A3
:103F400080910403882359F48091000381115D9AC4
:103F500088B590910003980F98BD81E008C081302A
:103F600049F488B590910003980F98BD82E0809342
:103F7000040313C0823041F45D9888B59091FF022C
:103F8000980F98BD83E0F3CF833039F498B58091D2
:103F9000FF02890F88BD109204039F918F910F90AB
:103FA0000FBE0F901F9018951F920F920FB60F9291
:103FB00011248F939F9380910303882359F4809158
:103FC000020381115E9A87B590910203980F97BD05
:103FD00081E008C0813049F487B590910203980FC1
:103FE00097BD82E08093030313C0823041F45E9852
:103FF00087B590910103980F97BD83E0F3CF83308D
:1040000039F497B580910103890F87BD109203039E
:104010009F918F910F900FBE0F901F9018958091D8
:10402000020161E00E946C368091030161E00E9410
:104030006C368091040161E00E946C36809105012C
:1040400061E00E946C36E0E8F0E080818068808367
:10405000E0EBF0E080818062808314BCEEE6F0E06B
:104060008081846080838081826080830895AC0138
:1040700080912A0390E0860F911D80970CF03DC03F
:10408000FA01762F30E0ACE80DC0208198E0822F55
:104090008327369580FD3A27915011F02695F7CF6A
:1040A00031967150772389F7FA01E60FF11D3083BD
:1040B0006F5FDA0120E030E21EC080912903803278
:1040C00010F01092290390912903E92FF0E0E55DAB
:1040D000FC4F8C9180839F5F9093290380912A03EA
:1040E0008F5F80932A0380912A03813210F03093EE
:1040F0002A032F5F1196261700F30895CF93DF93BD
:10410000EC0180910803843008F449C0DE0120E00E
:10411000809108038823E9F09091070380910803B8
:10412000981738F480910803E0910703F0E0B09607
:1041300005C0E091070380910803F0E0E81BF10956
:10414000E75FFC4F80818C938091080381508093BE
:1041500008032F5F11962430D9F6FE0130E043E0CA
:104160005CE80CC0208198E0822F8327369580FD83
:104170003527915011F02695F7CF3196415090F7A1
:104180008B81381719F420E030E00BC080910503D3
:104190008F5F8093050310920703109208032FEF9F
:1041A0003FEFC901DF91CF9108951F920F920FB693
:1041B0000F9211242F938F939F93EF93FF932EB51C
:1041C00080912A038823F1F09091290380912A039A
:1041D000981738F480912A03E0912903F0E0B09613
:1041E00005C0E091290380912A03F0E0E81BF10962
:1041F000E55DFC4F80818EBD80912A0381508093C4
:104200002A0301C01EBC80910703803210F0109277
:10421000070380910703E82FF0E0E75FFC4F20835E
:104220008F5F80930703809108038F5F809308035B
:1042300080910803813218F080E280930803FF9197
:10424000EF919F918F912F910F900FBE0F901F9024
:10425000189580932605609327057093280586E2BC
:1042600095E063E00E943720089560910F057091FA
:10427000100580911105909112050E94003B9B0151
:10428000AC0182E1B9010E9429216091E904709199
:10429000EA048091EB049091EC040E94003B9B01A6
:1042A000AC0183E1B9010E9429216091ED04709174
:1042B000EE048091EF049091F0040E94003B9B017A
:1042C000AC0184E1B9010E942921609164047091DC
:1042D000650480916604909167040E94003B9B01F5
:1042E000AC0185E1B9010E9429210895BF92CF92C6
:1042F000DF92EF92FF920F931F93CF93DF93BB2434
:1043000038C0CB2CDD24F601EE0FFF1FEE0FFF1F90
:10431000E056FD4FE080F18002811381E601CC0F71
:10432000DD1FCC0FDD1FCA5BDA4FC801B701288142
:1043300039814A815B810E94943A882324F4E8827F
:10434000F9820A831B83E601CC0FDD1FCC0FDD1F32
:10435000CE5ADA4FC801B701288139814A815B8181
:104360000E94343C181624F4E882F9820A831B83E5
:10437000B39482E08B1528F6B092210580911C053C
:1043800064E10E94293D9923F1F5109221050F2E39
:10439000F0E0CF2EF0E0DF2EF0E0EF2EF0E0FF2E89
:1043A000F02D2CC01E2F145FF0E0EE0FFF1FEE0F5C
:1043B000FF1FEE5AFA4F608171818281938120E064
:1043C00030E04AE754E40E943F3C0E94003B9B01DE
:1043D000AC01812FB9010E94292180912105E82F8C
:1043E000F0E0EE0FFF1FEE0FFF1FEE5AFA4FC082F4
:1043F000D182E282F3828F5F80932105E0912105D3
:10440000E33080F23FC09A30E9F5109221050F2E7B
:10441000F0E0CF2EF0E0DF2EF0E0EF2EF0E0FF2E08
:10442000F02D2CC01E2F115FF0E0EE0FFF1FEE0FDE
:10443000FF1FEA5BFA4F608171818281938120E0E6
:1044400030E04AE754E40E943F3C0E94003B9B015D
:10445000AC01812FB9010E94292180912105E82F0B
:10446000F0E0EE0FFF1FEE0FFF1FEA5BFA4FC08276
:10447000D182E282F3828F5F80932105E091210552
:10448000E33080F2DF91CF911F910F91FF90EF9079
:10449000DF90CF90BF9008951F931092210520C008
:1044A0001E2F1F5FF0E0EE0FFF1FEE0FFF1FEC56F9
:1044B000FD4F608171818281938120E030E048EC82
:1044C00052E40E943F3C0E94003B9B01AC01812FC3
:1044D000B9010E942921809121058F5F80932105D8
:1044E000E0912105E330E0F21F9108951F931092AF
:1044F000210520C01E2F1C5FF0E0EE0FFF1FEE0F06
:10450000FF1FE857FD4F608171818281938120E018
:1045100030E048EC52E40E943F3C0E94003B9B018B
:10452000AC01812FB9010E942921809121058F5F63
:1045300080932105E0912105E330E0F260912205AE
:1045400070912305809124059091250520E030E0AD
:1045500048EC52E40E943F3C0E94003B9B01AC01AE
:1045600087E0B9010E9429211F9108951092210529
:104570001BC0E0910601F0E0892F880F02C0F5957D
:10458000E7958A95E2F7E370F070EE0FFF1FE950B0
:10459000FD4F60817181892F885F0E942921809160
:1045A00021058F5F8093210590912105943008F3B8
:1045B0000895809120058330C9F0843028F481303B
:1045C00041F08230B9F508C08430E1F0853091F5D2
:1045D00023C00E947621089580911C0564E10E9409
:1045E000293D992351F40E944C22089580911C0585
:1045F00064E10E94293D9923B1F09A30D9F40E94D8
:10460000B622089580911C0564E10E94293D9923FA
:1046100089F40E943521089580911C0564E10E946F
:10462000293D992319F40E94762208959A3011F4B5
:104630000E9435210895FC018181882321F470E0D6
:1046400060E090E032C090818181A381B4819817AD
:1046500048F431812081828190E0820F911D831B7B
:10466000910905C08081218190E0821B9109880F0A
:10467000991F880F991FA80FB91F8D919D910D90BB
:10468000BC91A02D8093190690931A06A0931B0647
:10469000B0931C06818181508183709119066091CD
:1046A0001A0690911B0680911C06272F362F492F42
:1046B000582FB901CA01089510921F0510922F05B5
:1046C00010922E0510922D0510922C0510922B059C
:1046D00010922A05809113058823E1F480911D052D
:1046E0008530C1F42091300530913105809150031F
:1046F00090915103821793076CF40E94CA3560931E
:10470000140570931505809316059093170581E0A5
:1047100080931305089510920E0520914E03309159
:104720004F03309331052093300580E009C0E82F16
:10473000F0E0EE0FFF1FE950FD4F318320838F5FC4
:104740008430A8F3809321050E94601F0895DF92B2
:10475000EF92FF920F931F9390911305992309F401
:104760000EC1913031F51092400582E0809313051F
:1047700090930E058091E9049091EA04A091EB04D6
:10478000B091EC0480933C0590933D05A0933E05C9
:10479000B0933F0510922F0510922E0510922D0513
:1047A00010922C0510922B0510922A0510921F05CD
:1047B000E6C00E94CA35209114053091150540913C
:1047C000160550911705621B730B840B950B2091F6
:1047D0000C0130910D0140910E0150910F016217B3
:1047E00073078407950738F08CEF80931D050E94AE
:1047F0008B238FEFC5C00E94CA35209114053091DC
:1048000015054091160550911705621B730B840B1B
:10481000950B605D77408040904008F4B0C0609197
:10482000ED047091EE048091EF049091F00420E08B
:1048300030E040EF51EC0E94343C18168CF420918B
:104840003005309131058091500390915103281724
:10485000390734F4809140058F5F8093400502C092
:104860001092400580914005883C38F00E948B23CF
:104870008EEF80931D0581E083C0E090E904F09005
:10488000EA040091EB041091EC04C801B70120E0A8
:1048900030E04AEF53E40E94343C18161CF072E3F7
:1048A000D72E0FC0C801B70120E030E84BEB54E42D
:1048B0000E94343C18161CF064E6D62E02C056E95D
:1048C000D52E6D2D772767FD7095872F972F0E9426
:1048D000333B209108013091090140910A01509128
:1048E0000B010E943F3C9B01AC0160913C05709123
:1048F0003D0580913E0590913F050E94B6397B01B0
:104900008C0160933C0570933D0580933E05909328
:104910003F05D1946D2D772767FD7095872F972FD1
:104920000E94333B6093F9047093FA048093FB0474
:104930009093FC04C801B7010E94003B772767FDF4
:104940007095872F972F0E94333B60930F057093CC
:104950001005809311059093120580910E05882310
:1049600021F082E080930E050AC010921305809119
:104970004E0390914F03909331058093300580E072
:104980001F910F91FF90EF90DF900895AF92BF922B
:10499000CF92DF92EF92FF920F931F9380911F05AA
:1049A000882309F019C1E0908C02F0908D020091EB
:1049B0008E0210918F02C801B70120E030E040E084
:1049C00050E00E94343C18165CF4C801B70120E0A6
:1049D00030E040E752E40E94343C87FF32C00AC016
:1049E000C801B70120E030E040E752EC0E94943A61
:1049F00018163CF5E0909002F0909102009192021E
:104A000010919302C801B70120E030E040E050E08F
:104A10000E94343C18165CF4C801B70120E030E075
:104A200040E752E40E94343C18165CF010C0C80104
:104A3000B70120E030E040E752EC0E94943A88232E
:104A400034F4809145058F5F8093450502C0109234
:104A5000450580914505813089F48091E904909164
:104A6000EA04A091EB04B091EC048093410590938B
:104A70004205A0934305B093440533C06091E90417
:104A80007091EA048091EB049091EC04209141052F
:104A90003091420540914305509144050E94B6393A
:104AA0007B018C0120E030E040E050E00E94343C8B
:104AB00018165CF4C801B70120E030E048E452E485
:104AC0000E94343C18165CF00CC0C801B70120E00D
:104AD00030E048E452EC0E94943A882314F4109297
:104AE0004505A0901805B0901905C0901A05D09002
:104AF0001B05C601B50120E030E040E050E00E9417
:104B0000343C18160CF05DC0E090A002F090A102B9
:104B10000091A2021091A302C801B70120E030E089
:104B200040E050E00E94343C181624F017FB10952A
:104B300017F91095C801B701A60195010E94343CF0
:104B40001816E4F1E090A402F090A5020091A602EC
:104B50001091A702C801B70120E030E040E050E02A
:104B60000E94343C181624F017FB109517F9109585
:104B7000C801B701A60195010E94343C1816F4F053
:104B8000E090A802F090A9020091AA021091AB0255
:104B9000C801B70120E030E040E050E00E94343C22
:104BA000181624F017FB109517F91095C801B701D6
:104BB000A60195010E94343C18161CF488EC8093E1
:104BC000450580914505883C38F08BEF80931D05A5
:104BD0000E948B2381E001C080E01F910F91FF9024
:104BE000EF90DF90CF90BF90AF9008956F927F923B
:104BF0008F929F92AF92BF92CF92DF92EF92FF92ED
:104C00000F931F930E94141A282F992787FD9095C0
:104C100090934C0380934B03009789F0019709F41C
:104C2000B2C0809106038F5F809306038B3008F437
:104C3000AAC08DEF80931D0520931E05A4C010927D
:104C40000603609094027090950280909602909076
:104C50009702C401B30120E030E040E85FEB0E941E
:104C6000343C18160CF06CC0A0909802B0909902D9
:104C7000C0909A02D0909B02C601B50120E030E0BE
:104C800040E85FEB0E94343C18160CF059C0E090ED
:104C90009C02F0909D0200919E0210919F02C8011B
:104CA000B70120E030E040E85FEB0E94343C18168A
:104CB0000CF046C0C401B30120E030E040E85FE3FF
:104CC0000E94943A88230CF03BC0C601B50120E055
:104CD00030E040E85FE30E94943A88238CF5C801F5
:104CE000B70120E030E040E85FE30E94943A882377
:104CF0003CF58091360590913705019690933705E4
:104D00008093360581549640F8F060913805709193
:104D1000390580913A0590913B052091A802309188
:104D2000A9024091AA025091AB020E94B739609348
:104D300038057093390580933A0590933B0504C07C
:104D400010923705109236058091360590913705FF
:104D500088509740C0F06091380570913905809176
:104D60003A0590913B0520E030E048E453E40E948E
:104D7000983A6093B8027093B9028093BA02909304
:104D8000BB0280E001C08FEF1F910F91FF90EF9069
:104D9000DF90CF90BF90AF909F908F907F906F905B
:104DA00008952F923F924F925F926F927F928F92CF
:104DB0009F92AF92BF92CF92DF92EF92FF920F93AA
:104DC0001F93DF93CF93CDB7DEB72D970FB6F8942F
:104DD000DEBF0FBECDBF0E943C1D992787FD909579
:104DE00090934C0380934B030E94141A992787FDDC
:104DF000909590934C0380934B030097A9F00197F3
:104E000009F400C6809106038F5F809306038B3000
:104E100008F4F8C50E948B238DEF80931D058091C7
:104E20004B0380931E05EEC51092060380911C056E
:104E30008F5F80931C05883C11F410921C050E9422
:104E4000CA3520913205621B6093070170E080E053
:104E500090E00E94313B20E030E04AE754E40E94B9
:104E6000983A609308017093090180930A01909326
:104E70000B010E94CA35609332057093330580930D
:104E8000340590933505809107018B3028F081E03F
:104E900080931E050E945C230E94C624882309F08B
:104EA000B1C50E94A723882309F0ACC580910D05E8
:104EB000882309F4BCC2815080930D05E090A802BC
:104EC000F090A9020091AA021091AB02C801B701AB
:104ED00020E030E040E85FEB0E94943A88232CF415
:104EE00030E020E885E764EC1AC0C801B70120E093
:104EF00030E040E85FE30E94343C18162CF430E0C8
:104F000020E885E764E40BC0C801B70120E030E881
:104F100045E754E40E943F3C362F272F692F3A87FC
:104F20002B878C876D87832F922FAC85B62F80932C
:104F3000C9049093CA04A093CB04B093CC04A0906E
:104F40000801B0900901C0900A01D0900B01609156
:104F5000E1047091E2048091E3049091E4042091D3
:104F6000090530910A0540910B0550910C050E94EE
:104F70003F3CA60195010E943F3C9B01AC01609122
:104F8000D1047091D2048091D3049091D4040E94F2
:104F9000B7397B018C016093D1047093D204809364
:104FA000D3049093D4046091E1047091E204809161
:104FB000E3049091E40420910505309106054091A9
:104FC0000705509108050E943F3CA60195010E94EB
:104FD0003F3C9B01AC016091ED047091EE04809127
:104FE000EF049091F0040E94B7391B012C016091ED
:104FF000E1047091E2048091E3049091E404209133
:1050000001053091020540910305509104050E946D
:105010003F3CA60195010E943F3C9B01AC01609181
:10502000D5047091D6048091D7049091D8040E9441
:10503000B7393B014C016093D5047093D60480933B
:10504000D7049093D8046A857B858C859D85A801BB
:1050500097010E94B739A60195010E943F3C7B0150
:105060008C016093D9047093DA048093DB049093ED
:10507000DC0420E030E040E05FE30E943F3CA2011E
:1050800091010E94B739A60195010E943F3C2091F1
:10509000E5043091E6044091E7045091E8040E9451
:1050A000B7395B016C016093E5047093E60480936B
:1050B000E7049093E804A40193010E94B739609338
:1050C000E9047093EA048093EB049093EC04C2012A
:1050D000B101A80197010E94B7396093ED04709364
:1050E000EE048093EF049093F0049091C0048091BB
:1050F000C204981711F41092C0042091C004822FAA
:1051000090E0880F991F880F991FE091C304F091D8
:10511000C404E80FF91FA082B182C282D3822F5F3C
:105120002093C0049091C1048091C204981728F480
:105130008091C1048F5F8093C10460910F057091CD
:10514000100580911105909112052091E90430918C
:10515000EA044091EB045091EC040E94B6395B01E3
:105160006C016093F1047093F2048093F3049093C4
:10517000F404E0907004F0907104009172041091B6
:105180007304C801B701A80197010E94B739A801AB
:1051900097010E943F3C9B01AC0160E070E08AE710
:1051A00093E40E94983A7B018C016093C50470934C
:1051B000C6048093C7049093C804A80197010E9475
:1051C000B7399B01AC01C601B5010E94343C1816E9
:1051D0007CF4C601B501A80197010E94B63920E010
:1051E00030E04AEF53E40E943F3C0E94A63C20C0BE
:1051F000C801B70120E030E040E050EC0E943F3CA5
:105200009B01AC01C601B5010E94943A8823CCF4FD
:10521000C601B5019058A80197010E94B63920E057
:1052200030E04AEF53E40E943F3C0E94A63C905875
:105230006093F5047093F6048093F7049093F80458
:105240001EC0009108011091090120910A013091BE
:105250000B0180E794E0B601A5010E94841E8091B5
:105260008C0490918D04A0918E04B0918F04809352
:10527000F5049093F604A093F704B093F80480919A
:105280000E05823081F48091F9049091FA04A09186
:10529000FB04B091FC048093F5049093F604A09372
:1052A000F704B093F804E090DD04F090DE04009180
:1052B000DF041091E0046091F5047091F604809190
:1052C000F7049091F8042091ED043091EE044091A0
:1052D000EF045091F0040E94B639A80197010E9492
:1052E000B63924EE30EA44EE5DE30E943F3C9B0178
:1052F000AC01C801B7010E94B739AB01BC01CA01BA
:10530000DB018093DD049093DE04A093DF04B0936F
:10531000E004009108011091090120910A013091E7
:105320000B0188E994E00E94841EE090CD04F09087
:10533000CE040091CF041091D0046091B404709118
:10534000B5048091B6049091B7042091C9043091BE
:10535000CA044091CB045091CC040E94B639A801F4
:1053600097010E94B6392BEA34E242E75DE30E94DE
:105370003F3C9B01AC01C801B7010E94B739AB01AA
:10538000BC01CA01DB018093CD049093CE04A093AD
:10539000CF04B093D004009108011091090120912D
:1053A0000A0130910B0188E494E00E94841E8091F0
:1053B0000E058823D9F0609152037091530388271A
:1053C00077FD8095982F0E94333B209164043091A3
:1053D000650440916604509167040E94B7390E94A9
:1053E000003B70933105609330052AC080E794E05C
:1053F0000E947A1E88E994E00E947A1E88E494E074
:105400000E947A1E80E090E0A0E0B0E08093CD049E
:105410009093CE04A093CF04B093D0048093DD0486
:105420009093DE04A093DF04B093E00409C0809160
:105430000E05882319F082E080931E0510920E0558
:10544000E0909002F09091020091920210919302EC
:10545000C801B70120E030E040E050E00E94343C59
:1054600018165CF4C801B70120E030E048E452E4CB
:105470000E94343C18165CF01AC0C801B70120E045
:1054800030E048E452EC0E94943A882384F48091FE
:10549000880290918902A0918A02B0918B02809338
:1054A000220590932305A0932405B0932505E09051
:1054B0008C02F0908D0200918E0210918F02C80133
:1054C000B70120E030E040E050E00E94343C181684
:1054D0005CF4C801B70120E030E048E452E40E94E7
:1054E000343C18165CF01AC0C801B70120E030E067
:1054F00048E452EC0E94943A882384F48091880214
:1055000090918902A0918A02B0918B02809322052A
:1055100090932305A0932405B0932505E0902205E0
:10552000F09023050091240510912505C801B701CD
:10553000209188023091890240918A0250918B0219
:105540000E94B63920E030E044E353EC0E94943AE4
:1055500088235CF4D801C701B0588093220590934A
:105560002305A0932405B0932505E0902205F09033
:1055700023050091240510912505C801B70120914C
:1055800088023091890240918A0250918B020E94D8
:10559000B63920E030E044E353E40E94343C18166E
:1055A0005CF4D801C701B05880932205909323057D
:1055B000A0932405B093250520912A0530912B0551
:1055C000B90137FF04C066277727621B730B66306B
:1055D0007105D4F1C9010E94493D8BEF9FEFAB01EA
:1055E000489FB001499F700D589F700D1124620FA4
:1055F000731F882777FD8095982F0E94333B9B016E
:10560000AC016091440470914504809146049091EE
:1056100047040E943F3C6093E8037093E903809342
:10562000EA039093EB038091880290918902A09104
:105630008A02B0918B028093220590932305A09358
:105640002405B093250520C06091220570912305A3
:10565000809124059091250520918802309189023E
:1056600040918A0250918B020E94B639AB01BC0175
:10567000009108011091090120910A0130910B015C
:105680008CEC93E00E94841E80911F05882309F012
:1056900042C081E080932105A8E2CA2ED12C36C0F9
:1056A00010E00C9D70010D9DF00C1C9DF00C112460
:1056B0008CEC93E0E80EF91E000F111FF801E65D77
:1056C000FA4F60817181882777FD8095982F0E941D
:1056D000333B000F111F08571D4FD8012D913D91ED
:1056E0004D915C910E94B639AB01BC01009108015B
:1056F0001091090120910A0130910B01C7010E940C
:10570000841E809121058F5F8093210500912105E2
:10571000033030F240C08130F1F58093210558E22A
:10572000C52ED12C34C0F0E0EC9D7001ED9DF00C45
:10573000FC9DF00C11244CEC53E0E40EF51EEE0F32
:10574000FF1FE65DFA4F60817181882777FD8095A4
:10575000982F0E94333B209144043091450440919E
:105760004604509147040E943F3CAB01BC010091AC
:1057700008011091090120910A0130910B01C70124
:105780000E94841E809121058F5F80932105E09106
:105790002105E33040F21092210538E2C32ED12CCE
:1057A00034C0F0E0EC9DD001ED9DB00DFC9DB00D3E
:1057B000112424E5E22E23E0F22EEA0EFB1EA45370
:1057C000BC4FEE0FFF1FEE0FFF1FEC56FD4F5C9618
:1057D0006D917D918D919C915F9720813181428166
:1057E00053810E94B639AB01BC01009108011091B0
:1057F000090120910A0130910B01C7010E94841E0A
:10580000809121058F5F80932105E0912105E33090
:1058100040F2509106015987E52EFF246091300532
:1058200070913105882777FD8095982F0E94333B32
:105830006D837E838F8398878091C0039091C1038D
:10584000A091C203B091C30389839A83AB83BC83C5
:105850006D817E818F81988529813A814B815C8120
:105860000E94B7391B012C01A0909803B0909903B6
:10587000C0909A03D0909B03609070037090710366
:105880008090720390907303870103701070000F73
:10589000111F09501D4FC201B101A60195010E94BF
:1058A000B639A40193010E94B7390E94003BD80188
:1058B0006D937C93F694E7948701067010700950FD
:1058C0001D4FC201B101A60195010E94B739A40183
:1058D00093010E94B6390E94003BF80171836083F6
:1058E0006D817E818F81988529813A814B815C8190
:1058F0000E94B6391B012C01F694E794F694E794C4
:10590000F6E0EF22FF2447EF52E0E40EF51EA60179
:1059100095010E94B639A40193010E94B6390E94F4
:10592000003BD7016D937C93B985B295B695B6953A
:10593000B3700B2F10E0000F111F09501D4FC20153
:10594000B101A60195010E94B739A40193010E94FB
:10595000B7390E94003BF801718360830E94D9220D
:105960002091500330915103809130059091310581
:105970008217930784F50E948B238091880290916F
:105980008902A0918A02B0918B02809322059093A4
:105990002305A0932405B09325051092210518E254
:1059A00015C0819FC00111248C5A9C4F0E947A1E01
:1059B00080912105819FC001112484539C4F0E9436
:1059C0007A1E809121058F5F8093210580912105AA
:1059D000833038F317C040E00FC0E42FF0E0EE0F43
:1059E000FF1FE950FD4F80819181821793070CF4CE
:1059F000C901918380834F5F443078F34093210540
:105A00000E94601F2D960FB6F894DEBF0FBECDBF6B
:105A1000CF91DF911F910F91FF90EF90DF90CF908A
:105A2000BF90AF909F908F907F906F905F904F90BE
:105A30003F902F90089580E991E060E00E94CC06AD
:105A400080E00E94B1398CE061E00E946C368CB538
:105A500080648CBD8CB580688CBD08951F931092B6
:105A6000210518E215C0819FC00111248C5A9C4F5A
:105A70000E944A1E80912105819FC00111248453F8
:105A80009C4F0E944A1E809121058F5F80932105C3
:105A900080912105833038F388E494E00E944A1E07
:105AA00088E994E00E944A1E80E794E00E944A1E22
:105AB0001092C1048091C1048093C0048FE0809350
:105AC000C2048CE390E00E94AB368093C3049093B1
:105AD000C40480E090E0A0ECB0E48093FD049093D7
