:100000000C9493060C94BB060C94BB060C94BB0694
:100010000C94BB060C94BB060C94BB060C94BB065C
:100020000C94BB060C94BB060C94BB060C94473591
:100030000C94BB060C94BB060C94BB060C94BB063C
:100040000C94E32F0C94561F0C9496320C94E432CB
:100050000C94BB060C94BB060C94BB060C94BB061C
:100060000C94BB060C94BB06036EDB363D9A999943
:10007000993DABAAAA2A3E000000803F084AD73B20
:100080003BCE016E84BCBFFDC12F3D6C74319ABD67
:1000900056833DDA3D00C77F11BED9E4BB4C3E918B
:1000A0006BAAAABE000000803F072C7AA5BA6CC5D7
:1000B00090DA3B9365FC8BBC53F810FD3C56928361
:1000C0004DBD879D3AB63DCBC9BF5BBE73DA0FC944
:1000D0003F00007000000000240000000200030048
:1000E0000000650054FFEF0000FA80000B12820050
:1000F00001030C30C30E8C8CE914D5400213710F30
:100100008E3883F8833000F883258EF8833000F82A
:1001100083FFFFFFFF0FFEA9D6240004001A827997
:10012000A10000003CFFFF00000010000038836FBA
:10013000A2003E03304000000002CAE3093E8000F6
:1001400000200000000000000040000000600000EF
:1001500000000C0000000C186E000006920A16C089
:10016000DFFFFF0256FD8CD377FFE1C496E0C5BEEA
:10017000AA00000000FFFF0B2B0000165700000331
:10018000594000000000001DFA00026C1D00000034
:10019000003FFFDFEB003EB3B6000D227800002FDA
:1001A0003C00000000001942B5000039A20000B375
:1001B00065D90E9FC91DCF4C34300000005000009F
:1001C000003BB67AE80064000000C80000000000B0
:1001D00000100000001000FA921000225E000D22B4
:1001E0009F0001000000320000FF46000063D400C1
:1001F000001000000004D6000004CC000004CC0075
:10020000000000107200000040000000000000002C
:100210000000060002000500070000000000640066
:100220000000000000000000050005006400200040
:10023000000000000000000000000040000000037B
:100240000000000032F8980000FF650000830F00F6
:1002500000FF9BFC00000000000000000000000008
:10026000000000000000000000000000000000008E
:10027000000000000000000000000000000000106E
:100280000040000000000000060000B26A0002000A
:10029000000001FB830068000000D9FC007CF1FF36
:1002A000830000000000650000006403E8006400B3
:1002B00028000000250000000016A000000000102B
:1002C0000000001000002F0000000001F4000010EA
:1002D0000000280000FFFF4581FFFFFA72000000C8
:1002E0000000000000004400050005BAC600477881
:1002F000A200000001000000000000060000000055
:10030000140000254D002F706D000005AE000C029A
:10031000D00000000000000000000000000000000D
:1003200000001B00000000000000000000000000B2
:100330000000640000000800000000000000000051
:1003400000000000000000000000000000000000AD
:10035000000000000000000000000000000000009D
:10036000000000000000000000000000000000008D
:10037000000000000000000000000000000000007D
:10038000000000000000000000000000000000006D
:1003900000001B00000000000000000000000E0034
:1003A0000E00000AC70004000000000032FFFFFF3B
:1003B0009C00000B2B000000020000000100000068
:1003C00064FFE500000000000000000000000000E5
:1003D000000000000100000000000100000000001B
:1003E0000000018000000180000001800000242640
:1003F000D30000000000000000000600100096007E
:100400003C000000000000000000000000000000B0
:10041000000C0A4E68CDCF770950166759C619CE21
:10042000820000000000000000000000000000004A
:1004300000000000000000000017D7840003000047
:10044000000000000000000000C7938F9D1E1B1CD1
:100450001900000000000000000000000000000083
:1004600000000000000000000002031885000040AA
:100470000000000003000000030000000000000076
:10048000004000000000000000000000000000002C
:10049000000000000000000000000000000000005C
:1004A000000000000000000000000000000000004C
:1004B0000000000000677DDF7E72902E554CF6E64E
:1004C00088000000000000000000000000000000A4
:1004D00000D8DCB4B8B0D8B9ABF3F8FAB3B7BB8E78
:1004E0009EAEF132F51BF1B4B8B08097F1A9DFDF11
:1004F000DFAADFDFDFF2AAC5CDC7A90CC92C97F1AF
:10050000A989264666B28999A92D557DB0B08AA8D9
:1005100096365676F1BAA3B4B280C0B8A89711B295
:100520008398BAA3F0240844106418B2B9B498832D
:10053000F1A329557DBAB5B1A38393F0002850F5F6
:10054000B2B6AA839328547CF1B9A3829361BAA26C
:10055000DADEDFDB819AB9AEF5606870F1DABAA253
:10056000DFD9BAA2FAB9A38292DB31BAA2D9BAA270
:10057000F8DF85A4D0C1BBAD83C2C5C7B8A2DFDF99
:10058000DFBAA0DFDFDFD8D8F1B8AAB38DB4980DF9
:10059000355DB2B6BAAF8C96198F9FA70E161EB4F2
:1005A0009AB8AA872C547CBAA4B08AB691325676EF
:1005B000B28494A4C808CDD8B8B4B0F19982A82D5B
:1005C000557D98A80E161EA22C547C92A4F02C5097
:1005D00078F184A898C4CDFCD80DDBA8FC2DF3D904
:1005E000BAA6F8DABAA6DED8BAB2B68696A6D0F31C
:1005F000C841DAA6C8F8D8B0B4B882A892F52C548D
:100600008898F135D9F418D8F1A2D0F8F9A884D98E
:10061000C7DFF8F883C5DADF69DF83C1D8F40114D6
:10062000F1A8824EA884F311D182F5D99228978837
:10063000F109F41C1CD884A8F3C0F9D1D99782F130
:1006400029F40DD8F3F9F9D1D982F4C203D8DEDF49
:100650001AD8F1A2FAF9A88498D9C7DFF8F8F88374
:10066000C7DADF69DFF883C3D8F40114F198A882F0
:100670002EA884F311D182F5D992509788F109F40C
:100680001CD884A8F3C0F8F9D1D99782F149F40DA8
:10069000D8F3F9F9D1D982F4C403D8DEDFD8F1ADAB
:1006A0008898CCA809F9D98292A8F57CF1883ACF2C
:1006B000944A6E98DB6931DAADF2DEF9D88795A8F5
:1006C000F221D1DAA5F9F417D9F1AE8ED0C0C3AEBC
:1006D00082C684C3A88595C8A588F2C0F1F4010E2E
:1006E000F18E9EA8C63E56F554F18872F40115F1BC
:1006F0009845856EF58E9E0488F142985A8E9E0626
:100700008869F4011CF1981E1108D0F504F11E97B8
:100710000202983625DBF9D985A5F3C1DA85A5F360
:10072000DFD88595A8F309DAA5FAD88292A8F578DA
:10073000F1881A849F26889821DAF41DF3D8879FC0
:1007400039D1AFD9DFDFFBF9F40CF3D8FAD0F8DAFE
:10075000F9F9D0DFD9F9D8F40BD8F3879F39D1AFA5
:10076000D9DFDFF41DF3D8FAFCA869F9F9AFD0DAC4
:10077000DEFAD9F88F9FA8F1CCF398DB45D9AFDF2B
:10078000D0F8D8F18F9FA8CAF38809DAAF8FCBF8D9
:10079000D8F2AD978D0CD9A5DFF9BAA6F3FAF41209
:1007A000F2D8950DD1D9BAA6F3FADAA5F2C1BAA654
:1007B000F3DFD8F1BAB2B68696A6D0CAF349DAA664
:1007C000CBF8D8B0B4B8D8AD84F2C0DFF18FCBC3CA
:1007D000A8B2B68696C8C1CBC3F3B0B48898A82196
:1007E000DB718D9D71859521D9ADF2FAD88597A8D9
:1007F00028D9F408D8F28D29DAF405D9F285A4C2F3
:10080000F2D8A88D9401D1D9F411F2D88721D8F467
:100810000AD8F28498A8C801D1D9F411D8F3A4C891
:10082000BBAFD0F2DEF8F8F8F8F8F8F8F8D8F1B87D
:10083000F6B5B9B08A95A3DE3CA3D9F8D85CA3D9A4
:10084000F8D87CA3D9F8D8F8F9D1A5D9DFDAFAD845
:10085000B18530F7D9DED8F830ADDADED8F2B48C15
:1008600099A32D557DA083DFDFDFB591A0F629D9AF
:10087000FBD8A0FC29D9FAD8A0D051D9F8D8FC517E
:10088000D9F9D879D9FBD8A0D0FC79D9FAD8A1F96F
:10089000F9F9F9F9A0DADFDFDFD8A1F8F8F8F8F80C
:1008A000ACDEF8ADDE8393AC2C547CF1A8DFDFDF47
:1008B000F69D2CDAA0DFD9FADB2DF8D8A850DAA003
:1008C000D0DED9D0F8F8F8DB55F8D8A878DAA0D07F
:1008D000DFD9D0FAF8F8F8F8DB7DF8D89CA88CF5C9
:1008E00030DB38D9D0DEDFA0D0DEDFD8A848DB5837
:1008F000D9DFD0DEA0DFD0DED8A868DB70D9DFDF9B
:10090000A0DFDFD8F1A888902C547C98A8D05C3860
:10091000D1DAF2AE8CDFF9D8B087A8C1C1B188A80E
:10092000C6F9F9DA36D8A8F9DA36D8A8F9DA36D815
:10093000A8F9DA36D8A8F9DA36D8F78D9DADF818C7
:10094000DAF2AEDFD8F7ADFA30D9A4DEF9D8F2AEDC
:10095000DEFAF983A7D9C3C5C7F1889BA77AADF79B
:10096000DEDFA4F8849408A797F300AEF29819A4E8
:1009700088C6A39488F632DFF28393DB09D9F2AA02
:10098000DFD8D8AEF8F9D1DAF3A4DEA7F1889B7AE4
:10099000D8F38494AE19F9DAAAF1DFD8A881C0C3DC
:1009A000C5C7A39283F628ADDED9F8D8A350ADD938
:1009B000F8D8A378ADD9F8D8F8F9D1A1DADEC3C553
:1009C000C7D8A18194F818F2B089ACC3C5C7F1D8D3
:1009D000B8B4B09786A8319B069907AB9728889B37
:1009E000F00C201440B0B4B8F0A88A9A285078B718
:1009F0009BA8295179247059446938644831F1BB66
:100A0000AB88002C547CF0B38BB8A804285078F144
:100A1000B088B49726A85998BBABB38B022646661C
:100A2000B0B8F08A9CA82951798B2951798A247011
:100A3000598B2058718A4469388B3940688A6448D8
:100A4000318B30496088F1AC002C547CF08CA804C8
:100A5000285078F1889726A85998AC8C02264666CB
:100A6000F0899CA829517924705944693864483127
:100A7000A98809205970AB11384069A8193148601C
:100A80008CA83C415C207C00F187981986A86E7682
:100A90007EA999882D557DD8B1B5B9A3DFDFDFAE2A
:100AA000D0DFAAD0DEF2ABF8F9D9B087C4AAF1DF63
:100AB000DFBBAFDFDFB9D8B1F1A3978E60DFB084C1
:100AC000F2C8F8F9D9DED89385F14AB183A308B505
:100AD000839A0810B79F10D8F1B0BAAEB08AC2B2EC
:100AE000B68E9EF1FBD9F41DD8F9D90CF1D8F8F8DF
:100AF000AD61D9AEFBD8F40CF1D8F8F8AD19D9AE88
:100B0000FBDFD8F416F1D8F8AD8D61D9F4F4ACF56B
:100B10009C9C8DDF2BBAB6AEFAF8F40BD8F1AED0B0
:100B2000F8AD51DAAEFAF8F1D8B9B1B6A3839C08A2
:100B3000B9B1839AB5AAC0FD3083B79F10B58B9326
:100B4000F20202D1ABDADED8F1B080BAABC0C3B2E8
:100B500084C1C3D8B1B9F38BA391B609B4D9ABDEC4
:100B6000B0879CB9A3DDF1B38B8B8B8B8BB087A344
:100B7000A3A3A3B28BB69BF2A3A3A3A3A3A3A3A3F4
:100B8000A3A3F1B087B59AA3F39BA3A3DCBAACDF10
:100B9000B9A3A3A3A3A3A3A3A3A3A3A3A3A3A3A30F
:100BA000A3D8D8D8BBB3B7F1AAF9DAFFD9809AAAEB
:100BB00028B48098A720B79787A86688F07951F164
:100BC000902C870CA781976293F0717160859401D6
:100BD00029517990A5F1284C6C870C95188578A33C
:100BE0008390284C6C886CD8F3A28200F210A892F3
:100BF0001980A2F2D926D8F188A84DD948D896A84C
:100C00003980D93CD89580A839A68698D92CDA871E
:100C1000A72CD8A8899519A980D938D8A88939A925
:100C200080DA3CD8A82EA83990D90CD8A89531984C
:100C3000D90CD8A809D9FFD801DAFFD89539A9DA93
:100C400026FFD890A80D8999A810809821DA2ED86F
:100C50008999A83180DA2ED8A886963180DA2ED8E4
:100C6000A8873180DA2ED8A88292F34180F1D92E5C
:100C7000D8A882F31980F1D92ED882ACF3C0A28013
:100C800022F1A62EA72EA92298A829DAACDEFFD839
:100C9000A2F22AF1A92E8292A8F23180A696F1D969
:100CA00000AC8C9C0C30ACDED0DEFFD88C9CACD081
:100CB00010ACDE8092A2F24C82A8F1CAF235F19615
:100CC00088A6D900D8F1FF00000000240027002AE0
:100CD0000000000000250028002B00000000002379
:100CE000002600290004040404040404040202028F
:100CF000020202030303030303010204081020405D
:100D000080010204081020010204081020000000E5
:100D100007000201000003040600000000000000BC
:100D200000008421C93311241FBECFEFD8E0DEBFFD
:100D3000CDBF11E0A0E0B1E0E0EEF3E702C0059026
:100D40000D92A834B107D9F716E0A8E4B1E001C0CC
:100D50001D92AB30B107E1F71DE0C6E2DDE004C053
:100D60002297FE010E94EA39C232D107C9F70E94D8
:100D70001F340C94BD060C940000F8940C94EE39CA
:100D8000FB01DC0104C08D910190801921F44150D8
:100D90005040C8F7881B990B0895FC011092BC00C5
:100DA000662319F088B1806302C088B18F7C88B94E
:100DB0001092B9009F01442737FD4095542F60E8F9
:100DC0007EE380E090E00E94CD39205130404040E9
:100DD0005040CA01B90122E030E040E050E00E94FA
:100DE000CD392093B80084E08093BC000895482F4B
:100DF000440F92E064EB54E86093BC002AEF30E0CB
:100E00008091BC0087FD34C0215030408FEF2F3FD0
:100E10003807B1F727C08091B900887F883021F06A
:100E2000803111F082E008954093BB005093BC00E4
:100E30002AEF30E08091BC0087FD1EC02150304079
:100E40008FEF2F3F3807B1F70FC08091B900887F2F
:100E5000803221F4992351F09150CECF883131F472
:100E600080E0089581E0089583E0089584E0089586
:100E70001216130684F2F6CF1216130634F3F4CFCB
:100E8000EF92FF920F931F93162FE42E022FF32E53
:100E90000E94F7061093BB0084E88093BC002AEF01
:100EA00030E08091BC0087FD07C0215030408FEFBB
:100EB0002F3F3807B1F703C0121613063CF0802FFE
:100EC0009F2D9C01F90190E044E81CC08091B9007D
:100ED000F6CF80818093BB004093BC002AEF30E0C6
:100EE0008091BC0087FD07C0215030408FEF2F3F1D
:100EF0003807B1F705C01216130614F48091B90033
:100F00009F5F31969E1528F384E98093BC002AEFF9
:100F100030E08091BC0087FD06C02115310519F035
:100F200021503040F6CF81E01F910F91FF90EF905C
:100F300008951F93F82F122F72E0B4EBE82FEE7F85
:100F4000A4E8B093BC002AEF30E08091BC0087FD9C
:100F5000D0C0215030408FEF2F3F3807B1F7B7C0D6
:100F60008091B900887F883021F0803111F091E1C3
:100F7000BDC0E093BB00A093BC002AEF30E080919D
:100F8000BC0087FDBBC0215030408FEF2F3F38079A
:100F9000B1F79FC09091B900987F903229F47723E0
:100FA00009F499C07150CDCF983109F094C0609385
:100FB000BB0084E88093BC002AEF30E08091BC0045
:100FC00087FDA1C0215030408FEF2F3F3807B1F788
:100FD00084C08091B900887F883211F095E186C085
:100FE00062E0A4EB7F2F7160E4E8A093BC002AEFDD
:100FF00030E08091BC0087FD8BC0215030408FEFE6
:101000002F3F3807B1F76BC08091B900887F8830D7
:1010100021F0803111F097E169C07093BB00E0933B
:10102000BC002AEF30E08091BC0087FD76C02150E3
:1010300030408FEF2F3F3807B1F758C08091B9008B
:10104000887F883429F4662309F44BC06150CDCFE2
:10105000803409F046C0FA0160E0412F50E0415071
:101060005040A4EC74E822C0862F90E084179507C6
:1010700019F47093BC0002C0A093BC002AEF30E0CA
:101080008091BC0087FD4EC0215030408FEF2F3F34
:101090003807B1F728C09091B900987F903511F0CA
:1010A000983521F58091BB0081936F5F6117E0F265
:1010B00084E98093BC002AEF30E08091BC0087FD7A
:1010C00014C02115310589F021503040F6CF90E150
:1010D0000DC092E10BC093E109C094E107C096E115
:1010E00005C099E103C09AE101C090E0892F1F91EA
:1010F0000895121613060CF433CFE9CF1216130617
:101100000CF448CFE6CF121613060CF462CFE5CFED
:10111000121613060CF478CFE2CF121613060CF455
:101120008DCFE4CF121613060CF4B5CFDCCF7F922F
:101130008F929F92AF92BF92CF92DF92EF92FF92E7
:101140000F931F93CF93DF93F82EE62E742E690131
:10115000E8010E942B304B015C018F2D880F6E2D12
:10116000A601272D0E949907882311F01FEF01C0C7
:10117000172D2097C1F00E942B30681979098A0930
:101180009B099E0140E050E06217730784079507B2
:1011900050F0212F332727FD3095872D90E0281719
:1011A00039070CF41FEF812FDF91CF911F910F9121
:1011B000FF90EF90DF90CF90BF90AF909F908F9077
:1011C0007F900895AC018230910518F02FEF3FEF2A
:1011D00044C080933402909335029C01220F331F48
:1011E00075E0880F991F7A95E1F7821B930B885B56
:1011F0009E4F90932D0280932C02CA0163E0880FCA
:10120000991F6A95E1F7280F391F2C573E4F3093ED
:101210002F0220932E0287E290E09C01429FC001A2
:10122000439F900D529F900D112488569E4F90938E
:1012300031028093300283E290E09C01429FC00122
:10124000439F900D529F900D11248A519E4F909371
:1012500033028093320220E030E0C90108950F93F9
:101260001F93CF93DF93C0912C02D0912D0285E77D
:10127000888389E189838AE18A838CE08B838AE68B
:101280008C8383E28D838BE18E838CE18F838FE16E
:101290008A8780E28B8782E78C8784E78D8783E467
:1012A0008E878BE38F8781E4888B88E3898B89E342
:1012B0008A8B8AE38B8B8BE68D8B8CE68E8B87E318
:1012C0008F8B8FE6888F86E0898F84E28A8F8DE608
:1012D0008B8F8EE68C8F80E78D8F8091340290917A
:1012E0003502009719F0019769F406C0E0912E02CB
:1012F000F0912F0288E605C0E0912E02F0912F02B6
:1013000089E6808300912E0210912F0280E094E004
:10131000F8019283818386E7838384E591E0958356
:10132000848387EF9DEF9783868380E091E09187A8
:101330008087209130023091310283E890E0A0E074
:10134000B0E0F90180839183A283B38380E098E0C9
:10135000A0E0B0E084839583A683B783108681E004
:101360008187128688E1838782E390E0958784876E
:1013700085E0868780E090E0A0E2B1E48787908BEB
:10138000A18BB28B80E090E0A2EDB2E4838B948BD2
:10139000A58BB68B49E25CE56FE07EE3478B508F0F
:1013A000618F728F8AE999E9A9E9BEE3838F948FEF
:1013B000A58FB68F83E393E3A3E7BFE3878F90A363
:1013C000A1A3B2A343A354A365A376A3E0913202E1
:1013D000F0913302D183C0831383028332A321A30C
:1013E000DF91CF911F910F910895DC01E0913202BE
:1013F000F09133028681882319F081E08C9301C03B
:101400001C9280E090E00895DF93CF930F92CDB7C8
:10141000DEB7982FA0913202B09133025D968C9185
:101420005D97882321F0992389F082E00DC01696FC
:101430008C9116978823E9F0992341F01C968C91A2
:101440001C978823F9F481E0898301C019821296E0
:10145000ED91FC9113970D90BC91A02D8081519638
:101460006C9141E09E012F5F3F4F0E94400788230F
:1014700019F42FEF3FEF08C0E0913202F0913302F0
:101480008981848720E030E0C9010F90CF91DF91FE
:101490000895CF92DF92EF92FF920F931F93DF9305
:1014A000CF9300D0CDB7DEB7D82EC92E8B017A01ED
:1014B0004115510519F42FEF3FEF41C0E091320281
:1014C000F09133028681882319F42EEF3FEF37C065
:1014D000A281B3819B012D0D311D18968D919C9198
:1014E00019978217930718F42DEF3FEF28C0C98290
:1014F000DA820190F081E02D8C91638D42E09E01B3
:101500002F5F3F4F0E944007882319F42CEF3FEFD5
:1015100016C0E0913202F0913302A281B3810190B2
:10152000F081E02D8C91608D402F97010E94400743
:10153000882319F020E030E002C02BEF3FEFC90113
:101540000F900F90CF91DF911F910F91FF90EF902F
:10155000DF90CF9008951F93DF93CF930F92CDB775
:10156000DEB7182FA0913202B09133025C968C91B5
:101570005C97811781F1112319F080E3898301C001
:1015800019821D968C911D97882319F0898182609C
:1015900089835B968C915B97882319F08981806899
:1015A00089831296ED91FC9113970D90BC91A02D1B
:1015B000808157966C9141E09E012F5F3F4F0E94C2
:1015C0004007882319F42FEF3FEF07C0E091320264
:1015D000F0913302148F20E030E0C9010F90CF91D9
:1015E000DF911F910895DF93CF930F92CDB7DEB7B0
:1015F0009C01A0913202B091330216968C911697FD
:10160000882399F12C3B310510F081E015C022367A
:10161000310510F082E010C02A32310510F083E06D
:101620000BC02431310510F084E006C02A303105AA
:1016300010F085E001C086E0898317969C9117978A
:1016400089819817D9F01296ED91FC9113970D901E
:10165000BC91A02D808112966C9141E09E012F5F7C
:101660003F4F0E944007882319F42FEF3FEF08C037
:10167000E0913202F09133028981878320E030E0EB
:10168000C9010F90CF91DF910895DF93CF930F920F
:10169000CDB7DEB7982FA0913202B09133021696E3
:1016A0008C9116978823A1F1943061F0953018F44D
:1016B000923071F505C0983039F0903149F506C087
:1016C000198206C088E003C080E101C088E18983F7
:1016D00015962C91159730E0898190E043E095951F
:1016E00087954A95E1F72817390709F11296ED9188
:1016F000FC9113970D90BC91A02D808117966C9151
:1017000041E09E012F5F3F4F0E944007882319F45C
:101710002FEF3FEF0EC0E0913202F091330289814A
:1017200090E0A3E095958795AA95E1F7858320E061
:1017300030E0C9010F90CF91DF910895DF93CF93EF
:101740000F92CDB7DEB79C01A0913202B091330267
:1017500016968C9116978823E1F181E0243F380793
:1017600091F081E0253F380720F42A3F310589F5C3
:1017700008C083E0283E380741F0205D374049F536
:1017800006C0198206C088E003C080E101C088E17C
:10179000898314962C91149730E0898190E063E05E
:1017A000959587956A95E1F72817390709F11296FB
:1017B000ED91FC9113970D90BC91A02D8081169610
:1017C0006C9141E09E012F5F3F4F0E9440078823AC
:1017D00019F42FEF3FEF0EC0E0913202F091330287
:1017E000898190E053E0959587955A95E1F7848338
:1017F00020E030E0C9010F90CF91DF910895FF9272
:101800000F931F93DF93CF930F92CDB7DEB7F82ED0
:10181000082F10E0C80180779070892B11F081E0CB
:1018200005C0FF2011F0198202C080E48983E09195
:101830003202F0913302A281B3810190F081E02D58
:101840008C91658941E09E012F5F3F4F0E944007C8
:10185000A0913202B0913302882319F416961C929B
:1018600030C089818F7B18968C931897198206FD5A
:1018700002C084E0898305FD03C089818260898379
:1018800004FD03C089818160898303FD03C08981D0
:10189000886389831296ED91FC9113970D90BC910A
:1018A000A02D808156966C9141E09E012F5F3F4FA5
:1018B0000E944007882341F4E0913202F091330204
:1018C00016822FEF3FEF16C0FF2031F088E0F816A8
:1018D00019F080E00E94AB0AE0913202F0913302ED
:1018E000F682178662E370E080E090E00E94393073
:1018F00020E030E0C9010F90CF91DF911F910F914F
:10190000FF9008950F931F93DF93CF930F92CDB75E
:10191000DEB7A0913202B091330216968C911697E1
:10192000882309F41BC119821296ED91FC9113973B
:101930000D90BC91A02D808151966C9141E08E015B
:101940000F5F1F4F98010E944007882309F406C1CA
:10195000E0913202F0913302A281B3810190F081D3
:10196000E02D8C91658141E098010E944007882319
:1019700009F4F4C0E0913202F0913302A281B38104
:101980000190F081E02D8C91648141E098010E94EA
:101990004007882309F4E2C0A0913202B0913302DB
:1019A0005D968C915D97882309F469C08CE08983EA
:1019B0001296ED91FC9113970D90BC91A02D808112
:1019C00014966C9141E098010E944007882309F425
:1019D000C5C062E370E080E090E00E94393080ECA6
:1019E0008983A0913202B091330216968C9116979A
:1019F00080FF02C080EE89831296ED91FC911397CF
:101A00000D90BC91A02D808114966C9141E09E01B7
:101A10002F5F3F4F0E944007882309F49FC0A09189
:101A20003202B09133021C968C911C97882319F0D6
:101A300082E0898301C019821296ED91FC9113977F
:101A40000D90BC91A02D808151966C9141E08E014A
:101A50000F5F1F4F98010E944007882309F47EC042
:101A60001982E0913202F0913302A281B381019098
:101A7000F081E02D8C91658141E098016BC084E09C
:101A800089831296ED91FC9113970D90BC91A02D36
:101A9000808114966C9141E098010E944007882350
:101AA00009F45CC0A0913202B09133021D968C9172
:101AB0001D97882329F416968C91169780FD02C0F5
:101AC00080E401C080E689831296ED91FC91139722
:101AD0000D90BC91A02D808114966C9141E09E01E7
:101AE0002F5F3F4F0E9440078823C1F162E370E0FF
:101AF00080E090E00E943930A0913202B091330230
:101B00001C968C911C97882319F081E0898301C071
:101B100019821296ED91FC9113970D90BC91A02D16
:101B2000808151966C9141E09E012F5F3F4F0E9452
:101B30004007882399F0E0913202F0913302A281AC
:101B4000B381208131813B968C91D90115966C919E
:101B500041E09F010E944007882319F42FEF3FEFD7
:101B600002C020E030E0C9010F90CF91DF911F91BA
:101B70000F9108950F931F93CF93DF93982FE091C8
:101B80003202F0913302858D882319F0C0E0D0E055
:101B900029C08681882321F1192F1E7F0385812387
:101BA0008387811719F4C0E0D0E002C0CFEFDFEFE8
:101BB000112319F48785882331F081E00E94040AFB
:101BC000112381F004C080E00E94040A0BC00E942F
:101BD000820C892B39F0E0913202F09133020387B5
:101BE000CFEFDFEFCE01DF91CF911F910F910895DD
:101BF0001F93DF93CF9300D0CDB7DEB7182F893274
:101C000008F058C08823F9F480E00E94AB0A1982DA
:101C100087E08A83E0913202F0913302A281B3819E
:101C20000190F081E02D8C91658942E09E012F5F4B
:101C30003F4F0E9440078823E9F1E0913202F09182
:101C40003302178646C081E00E94AB0A80E2898396
:101C5000113011F41A8204C0163028F481E08A830E
:101C600085E090E00BC0153128F482E08A838AE099
:101C700090E004C083E08A8384E190E00E94F30A4C
:101C80008A818295880F880F807C87608A83E091A3
:101C90003202F0913302A281B3810190F081E02DF4
:101CA0008C91658942E09E012F5F3F4F0E94400763
:101CB000882319F42FEF3FEF0EC0E0913202F0912C
:101CC000330288E08683108681E0878780E00E9467
:101CD000BA0D20E030E0C9010F900F90CF91DF9155
:101CE0001F9108950F931F93DF93CF930F92CDB75A
:101CF000DEB78C01E0913202F091330286818823B5
:101D0000B9F1858D8823A1F58785882359F0C8010D
:101D10000197889720F4802F0E94F80D3FC080E043
:101D20000E94F80D0430110518F464E070E007C05B
:101D3000B80183E0093E180710F068EE73E088EE02
:101D400093E00E94843961506983E0913202F091FE
:101D50003302A281B3810190F081E02D8C916181E9
:101D600041E09E012F5F3F4F0E944007882319F4F6
:101D70002FEF3FEF15C0698170E06F5F7F4F88EEF6
:101D800093E00E949839CB01E0913202F091330246
:101D900072876187969587950E94F30A20E030E06C
:101DA000C9010F90CF91DF911F910F910895CF92AC
:101DB000DF92EF92FF920F931F93DF93CF9300D0A8
:101DC000CDB7DEB7182F092F7B016A0141155105E8
:101DD000D1F1E0913202F09133028681882399F1AA
:101DE000A281B3819B01210F311D18968D919C9189
:101DF00019978217930738F109831A830190F081AC
:101E0000E02D8C91638D42E09E012F5F3F4F0E9439
:101E100040078823C1F0E0913202F0913302A281A1
:101E2000B3810190F081E02D00910001109101013A
:101E30008C91608D4E2D96010E949708882319F091
:101E400020E030E002C02FEF3FEFC9010F900F906C
:101E5000CF91DF911F910F91FF90EF90DF90CF9086
:101E600008952F923F924F925F926F927F928F923E
:101E70009F92AF92BF92CF92DF92EF92FF920F9319
:101E80001F93DF93CF93CDB7DEB764970FB6F89467
:101E9000DEBF0FBECDBF3C014B014B8B5C8B1901EC
:101EA000E0913202F0913302868D882319F02FEFF2
:101EB0003FEF75C06115710519F42EEF3FEF6FC04C
:101EC00080E190E00E946031B92EC82ED92EA82E54
:101ED000EE24FF24E3E04E2E512C4C0E5D1E38C044
:101EE00083010E191F090131110510F000E110E006
:101EF00094012E0D3F1DD601A601400F511F05C0B4
:101F0000F90184918D932F5F3F4FA417B507C1F757
:101F1000C701B801A5010E94490A892B19F02DEFCC
:101F20003FEF3DC0C701B801A2010E94D70E892B27
:101F300019F02CEF3FEF33C0C501B201A8010E9498
:101F4000C006009719F02BEF3FEF29C0E00EF11EFD
:101F5000E614F70428F2FC89F9838B898A83E091DF
:101F60003202F0913302A281B3810190F081E02D21
:101F70008C91658D42E09E012F5F3F4F0E9440078C
:101F8000882319F42AEF3FEF0AC0E0913202F09162
:101F9000330281E0868F30A2278E20E030E0C90135
:101FA00064960FB6F894DEBF0FBECDBFCF91DF9120
:101FB0001F910F91FF90EF90DF90CF90BF90AF9067
:101FC0009F908F907F906F905F904F903F902F9059
:101FD0000895DF92EF92FF920F931F93DF93CF93B9
:101FE0000F92CDB7DEB7D82EE0913202F0913302D6
:101FF00085858D1509F49EC0A281B3810190F08181
:10200000E02D00910001109101017E010894E11C76
:10201000F11CDD2089F18C91648141E097010E94DF
:102020009708882309F47EC089818F7D8983E09198
:102030003202F0913302A281B3810190F081E02D50
:102040008C91648141E097010E944007882309F444
:1020500069C063E070E080E090E00E94393082E087
:102060008983A0913202B09133025B968C915B9789
:102070008823F1F182E839C08C91648141E09701B5
:102080000E949708882309F44DC0A0913202B091B4
:10209000330216968C911697998180FF02C0906248
:1020A00001C09F7D99831296ED91FC9113970D903D
:1020B000BC91A02D808114966C9141E09E012F5F10
:1020C0003F4F0E944007882369F163E070E080E0A1
:1020D00090E00E943930A0913202B09133025B96B9
:1020E0008C915B97882319F080E8898301C019825D
:1020F0005C968C915C97882319F089818063898331
:102100001296ED91FC9113970D90BC91A02D8081BA
:1021100057966C9141E09E012F5F3F4F0E94400710
:10212000882319F42FEF3FEF07C0E0913202F091BE
:102130003302D58620E030E0C9010F90CF91DF91C6
:102140001F910F91FF90EF90DF900895DF93CF9351
:102150000F92CDB7DEB7982FE0913202F0913302A3
:10216000858D891709F44AC0992369F1868D8823E2
:1021700019F42FEF3FEF44C080E00E94040A80E092
:102180000E94E90FE0913202F0913302878D90A115
:102190000E94720E1982E0913202F09133020280A5
:1021A000F381E02D808163E241E09E012F5F3F4F8C
:1021B0000E944007E0913202F091330281E0858F66
:1021C0000E94040A19C080E00E94040AE0913202D1
:1021D000F0913302838589830280F381E02D808131
:1021E00063E241E09E012F5F3F4F0E944007E09174
:1021F0003202F0913302158E0E94820C20E030E012
:10220000C9010F90CF91DF9108956F927F928F92C5
:102210009F92AF92BF92CF92DF92EF92FF920F9375
:102220001F93DF93CF9300D0CDB7DEB76C013B0196
:102230004A01A0913202B09133025D968C915D9774
:10224000882319F42FEF3FEF7CC016968C911697D8
:10225000882319F42EEF3FEF74C01296ED91FC9194
:1022600013970D90BC91A02D0091000110910101D8
:1022700080811C966C9142E05E010894A11CB11C07
:1022800095010E949708882319F42DEF3FEF59C05C
:10229000998180E02A81E22EFF24E82AF92AEC14B1
:1022A000FD0428F4F401108221E030E04AC0E091FE
:1022B0003202F0913302A281B38111968D919C91EB
:1022C0001297969587958E159F05D0F40190F08111
:1022D000E02D00910001109101018C91638941E092
:1022E00095010E949708882319F42BEF3FEF29C02E
:1022F000898184FF05C00E94820C22E030E021C069
:10230000E0913202F0913302A281B3810190F08119
:10231000E02D00910001109101018C9165854C2DFB
:1023200093010E949708882319F429EF3FEF09C011
:10233000C701B6010E9484396150F401608320E036
:1023400030E0C9010F900F90CF91DF911F910F9155
:10235000FF90EF90DF90CF90BF90AF909F908F90C5
:102360007F906F900895EF92FF920F931F93DF93EA
:10237000CF9300D000D000D0CDB7DEB780E88983FE
:10238000E0913202F0913302A281B3810190F08199
:10239000E02D8C91658941E07E010894E11CF11CDF
:1023A00097010E944007882319F42FEF3FEFDBC00D
:1023B00064E670E080E090E00E9439301982E0919C
:1023C0003202F0913302A281B3810190F081E02DBD
:1023D0008C91658941E097010E944007882319F498
:1023E0002EEF3FEFC0C0E0913202F0913302A281A4
:1023F000B3810190F081E02D009100011091010165
:102400008C91618D46E097010E949708882319F40A
:102410002DEF3FEFA8C08E8190E081709070880F03
:10242000991F880F991F2C8130E021703070220F86
:10243000331F982F922B8A818170982B91F09130C5
:1024400031F4E0913202F0913302968732C092303B
:1024500019F02CEF3FEF87C0E0913202F091330288
:1024600027C0E0913202F0913302A281B381019042
:10247000F081E02D00910001109101018C916381A8
:1024800041E097010E949708882319F42BEF3FEF52
:102490006AC089818F7019F42AEF3FEF64C0E09120
:1024A0003202F0913302843019F481E0868701C052
:1024B0001686E0913202F09133022FEF26832483B7
:1024C000258327838FEF9FEF928781872387258737
:1024D00081E08087838F148E108A178671968AE038
:1024E00011928A95E9F7E0913202F0913302158E4C
:1024F000168E10A2178E80ED97E00E949E0B892BFE
:1025000019F026EF3FEF2FC082E00E94450B892B88
:1025100019F025EF3FEF27C08AE290E00E94F30A0E
:10252000892B19F024EF3FEF1EC082E390E00E9458
:10253000720E892B19F023EF3FEF15C080E00E9447
:10254000BA0D892B19F022EF3FEF0DC080E00E94F9
:10255000E90F892B19F020EF3FEF05C080E00E94C2
:10256000FF0B20E030E0C90126960FB6F894DEBFDD
:102570000FBECDBFCF91DF911F910F91FF90EF90D4
:1025800008959C018230910518F02FEF3FEF16C09F
:1025900080934E0290934F028BE090E0AC01249F19
:1025A000C001259F900D349F900D11248A5C9D4F92
:1025B00090934D0280934C0220E030E0C9010895D1
:1025C000E0914C02F0914D0211821082138212822E
:1025D000158214821782168211861086128608953B
:1025E0002F923F924F925F926F927F928F929F9223
:1025F000AF92BF92CF92DF92EF92FF920F931F9311
:10260000DF93CF93CDB7DEB7AC970FB6F894DEBFAC
:102610000FBECDBF9EA38DA378A76FA32A013AA7B3
:1026200029A71CA70BA7A701D8011D921C92E09116
:102630004C02F0914D02828590E0BE016F5F7F4FAA
:102640000E9405119CA38BA3892B09F0B2C1E091D4
:102650004C02F0914D02FAA3E9A38681978184711F
:102660009070892B11F440E017C1A980BB24CC24C1
:10267000DD24DA2CCC24BB24AA248A8190E0A0E0BB
:10268000B0E0DC0199278827A82AB92ACA2ADB2AC0
:102690008C8190E0A0E0B0E0A82AB92ACA2ADB2AFF
:1026A0008B8190E0A0E0B0E0BA2FA92F982F882767
:1026B000A82AB92ACA2ADB2AD201AD92BD92CD92AC
:1026C000DC9213972D8130E040E050E0522F4427F8
:1026D000332722278E8190E0A0E0B0E0DC0199272B
:1026E0008827282B392B4A2B5B2B888590E0A0E08C
:1026F000B0E0282B392B4A2B5B2B8F8190E0A0E098
:10270000B0E0BA2FA92F982F8827282B392B4A2BD6
:102710005B2BF2012483358346835783298530E080
:1027200040E050E0522F4427332722278A8590E04B
:10273000A0E0B0E0DC0199278827282B392B4A2B11
:102740005B2B8C8590E0A0E0B0E0282B392B4A2B46
:102750005B2B8B8590E0A0E0B0E0BA2FA92F982FDB
:102760008827282B392B4A2B5B2BD20118962D93C7
:102770003D934D935C931B972D8530E040E050E0F6
:10278000522F4427332722278E8590E0A0E0B0E027
:10279000DC0199278827282B392B4A2B5B2B88892A
:1027A00090E0A0E0B0E0282B392B4A2B5B2B8F85E3
:1027B00090E0A0E0B0E0BA2FA92F982F8827282B0F
:1027C000392B4A2B5B2B2487358746875787560141
:1027D000DD24B7FCD094CD2C6480758086809780F2
:1027E0003401992477FC9094892C2084318442848C
:1027F00053841201552437FC5094452C9A015527D7
:1028000037FD5095452FCA01B9010E9459397B0106
:102810008C01C601B501A60195010E945939E60E49
:10282000F71E081F191FC401B301A40193010E94E0
:102830005939E60EF71E081F191FC201B101A20186
:1028400091010E945939E60EF71E081F191F80E0FA
:1028500090E0A0E0B1EFE80EF91E0A1F1B1F91E007
:10286000E91690E0F90690E0090792E0190758F0A0
:102870000E94820CABA5BCA51D921C92E3E0F0E087
:10288000FCA3EBA396C0ABA5BCA58D919C91119721
:1028900091608D939C9340E1E9A1FAA1868186FF26
:1028A00039C0A42FB0E0FE01EA0FFB1F228130E007
:1028B000FE01EA0FFB1F918180E0282B392BEFA14D
:1028C000F8A531832083FE01EA0FFB1F338120E04E
:1028D000FE01EA0FFB1F848190E0282B392BEFA12A
:1028E000F8A533832283FE01EA0FFB1F358120E028
:1028F000868190E0282B392BAFA1B8A515963C9383
:102900002E9314974A5FEBA5FCA580819181886086
:1029100091838083A9A1BAA116968D919C91179756
:1029200080789170892BC1F1A42FB0E0FE01EA0FED
:10293000FB1F228130E0FE01EA0FFB1F918180E046
:10294000282B392BEDA1FEA131832083FE01EA0F54
:10295000FB1F338120E0FE01EA0FFB1F848190E022
:10296000282B392BEDA1FEA133832283FE01EA0F30
:10297000FB1F358120E0868190E0282B392BADA10B
:10298000BEA115963C932E931497EBA5FCA58081D0
:10299000918180679183808389A59AA5892B49F0CD
:1029A0000E942B30A9A5BAA56D937D938D939C931E
:1029B00013978BA19CA1AC960FB6F894DEBF0FBE07
:1029C000CDBFCF91DF911F910F91FF90EF90DF90DE
:1029D000CF90BF90AF909F908F907F906F905F90BF
:1029E0004F903F902F900895DF93CF93CDB7DEB7F0
:1029F00029970FB6F894DEBF0FBECDBF9E012F5FA3
:102A00003F4F882349F0D901E6E1F1E089E00190E8
:102A10000D928150E1F708C0D901EDE0F1E089E0C5
:102A200001900D928150E1F788EB94E069E070E04D
:102A3000AE014F5F5F4F0E94490A29960FB6F89486
:102A4000DEBF0FBECDBFCF91DF9108950F931F93CF
:102A5000DF93CF93CDB7DEB728970FB6F894DEBFDC
:102A60000FBECDBF8C01893C9105F0F488EC90E05D
:102A7000B8010E9484396150704079836A8386E18D
:102A800092E062E070E0AE014F5F5F4F0E94490A42
:102A9000892B51F481EC9AE06CE070E04FE151E059
:102AA0000E94490A892B19F02FEF3FEF08C0E091EF
:102AB0004C02F0914D021187008720E030E0C901FF
:102AC00028960FB6F894DEBF0FBECDBFCF91DF9131
:102AD0001F910F910895EF92FF920F931F93DF9331
:102AE000CF9300D000D000D0CDB7DEB78C01AC01C1
:102AF00043705070FA01EC5CFE4F80818983C801FD
:102B0000E3E096958795EA95E1F783709070FC0174
:102B1000EC5CFE4F20812A83D80176E0B695A7951C
:102B20007A95E1F7A370B070FD01EC5CFE4F208157
:102B30002B834F5C5E4FFA0120812C838F5C9E4F6C
:102B4000FC0180818D83AF5CBE4F8C918E8386E2C9
:102B500094E063E070E07E010894E11CF11CA701A1
:102B60000E94490A892B09F04BC08AE294E063E095
:102B700070E0AE014C5F5F4F0E94490A892B09F05B
:102B80003FC0D701EEE2F1E083E001900D92815069
:102B9000E1F7DE011496EBE2F1E083E001900D92A3
:102BA0008150E1F702FF06C08981816089838C81B1
:102BB00081608C8305FF06C08A8181608A838D8154
:102BC00081608D8310FF06C08B8181608B838E8135
:102BD00081608E8380E494E063E070E0AE014F5F3B
:102BE0005F4F0E94490A892B59F481E394E063E026
:102BF00070E0AE014C5F5F4F0E94490A892B19F0CB
:102C00002FEF3FEF08C0E0914C02F0914D02158389
:102C1000048320E030E0C90126960FB6F894DEBFA9
:102C20000FBECDBFCF91DF911F910F91FF90EF901D
:102C30000895DF93CF9300D000D0CDB7DEB78823BF
:102C400049F080E2898388E28A8380E38B8388E38A
:102C50008C8308C083EA93EAA3EAB3EA89839A8360
:102C6000AB83BC838EE99AE064E070E0AE014F5F15
:102C70005F4F0E94490A0E94820C0F900F900F90A4
:102C80000F90CF91DF910895DF93CF9300D000D0C4
:102C9000CDB7DEB7882349F080EC898382EC8A8344
:102CA00084EC8B8386EC8C8308C08BE89BE8ABE8D4
:102CB000BBE889839A83AB83BC8388E99AE064E0AC
:102CC00070E0AE014F5F5F4F0E94490A0E94820C84
:102CD0000F900F900F900F90CF91DF910895AF92CA
:102CE000BF92CF92DF92EF92FF920F931F93DF93E9
:102CF000CF93CDB7DEB72A970FB6F894DEBF0FBEDD
:102D0000CDBF8C0182E089838AEC8A8383EE8B833A
:102D100089E08C8388E690E064E070E0AE014F5F6C
:102D20005F4F0E94490A83EA8983B0E4AB2EB12C3D
:102D3000A022B12206FF06C080EC8A8388EC8B8338
:102D400082EC02C08A838B838C83A0E8EA2EA1E008
:102D5000FA2EE022F122E114F10431F084EC8D83AB
:102D60008CEC8E8386EC03C083EA8D838E838F8305
:102D700083EA888789878A8787EA9AE06AE070E031
:102D8000AE014F5F5F4F0E94490AF3E0CF2ED12C76
:102D9000C022D122C114D10411F080E201C088ED1B
:102DA000898386EB9AE061E070E0AE014F5F5F4F90
:102DB0000E94490A05FF02C081E001C080E00E9434
:102DC000F414E114F104D9F010FF08C082EB8983F8
:102DD0008BE88A8386EB8B838BE907C080EB898342
:102DE00080E88A8384EB8B8380E98C8382EA9AE093
:102DF00064E070E0AE014F5F5F4F0E94490A02FF3E
:102E000002C081E001C080E00E94441604FF02C0BD
:102E100081E001C080E00E941916E0914C02F0911F
:102E20004D02C8018860978386830E94820CE091DE
:102E30004C02F0914D021286AB2811F086E0828799
:102E4000EF2819F082858A5F828704711070012B48
:102E500019F08285805F8287CD2819F082858C5F8A
:102E6000828780E090E02A960FB6F894DEBF0FBE0E
:102E7000CDBFCF91DF911F910F91FF90EF90DF9029
:102E8000CF90BF90AF90089586EF9BE061ED70E02A
:102E900040E054E028EC30E00E94310F08950E9499
:102EA000820C08952F923F924F925F926F927F9281
:102EB0008F929F92AF92BF92CF92DF92EF92FF924A
:102EC0000F931F93DF93CF93CDB7DEB7EC970FB679
:102ED000F894DEBF0FBECDBF10928A021092890215
:102EE0008BE892E061E972E049E752E020E030E0EF
:102EF00009E812E0E7E9EE2EE2E0FE2E0E94F01271
:102F00009093990280939802009709F08CC5809164
:102F10009702823020F00E94820C81E884C5609183
:102F2000790270917A0280917B0290917C020E94DA
:102F3000823720E030E040E850E30E948E381B01E9
:102F40002C016093790270937A0280937B029093B4
:102F50007C0260917D0270917E0280917F0290914F
:102F600080020E94823720E030E040E850E30E9477
:102F70008E38698B7A8B8B8B9C8B60937D027093E0
:102F80007E0280937F029093800260918102709113
:102F9000820280918302909184020E94823720E015
:102FA00030E040E850E30E948E385B016C01609392
:102FB00081027093820280938302909384026091D5
:102FC00085027091860280918702909188020E940A
:102FD000823720E030E040E850E30E948E386D8B6D
:102FE0007E8B8F8B988F609385027093860280937F
:102FF000870290938802C601B501A60195010E943F
:103000008E38698F7A8F8B8F9C8F6093B402709308
:10301000B5028093B6029093B7026D897E898F893D
:10302000988D9B01AC010E948E386D8F7E8F8F8FA3
:1030300098A36093B8027093B9028093BA029093F8
:10304000BB02C201B101A20191010E948E3869A3A5
:103050007AA38BA39CA36093BC027093BD02809360
:10306000BE029093BF0269897A898B899C892D89D8
:103070003E894F89588D0E948E387B018C01C20198
:10308000B101A60195010E948E389B01AC01C801D7
:10309000B7010E9405363B014C016093C00270935A
:1030A000C1028093C2029093C30225EE32EF4FEF2C
:1030B0005EE30E9483381816BCF4C601B501A20174
:1030C00091010E9490369B01AC010E9406366093EC
:1030D00058027093590280935A0290935B028BEDD1
:1030E0009FE0A9ECBFE322C0C401B30125EE32EF9B
:1030F0004FEF5EEB0E94E33688236CF5C601B50105
:10310000A20191010E94903620E030E040E050ECB6
:103110000E948E38609358027093590280935A022D
:1031200090935B028BED9FE0A9ECBFEB8093540280
:1031300090935502A0935602B093570280E090E01E
:10314000A0E0B0E08093500290935102A09352020D
:10315000B093530294C069897A898B899C89A201B2
:1031600091010E948E387B018C01C601B5012D8929
:103170003E894F89588D0E948E389B01AC01C80151
:10318000B7010E9406369B01AC010E9406367B0106
:103190008C016D8D7E8D8F8D98A129A13AA14BA1B7
:1031A0005CA10E94063620E030E040E050EC0E9436
:1031B0008E3820E030E040E85FE30E9406369B0155
:1031C000AC01C801B7010E94903660935802709319
:1031D000590280935A0290935B02C401B301A40187
:1031E00093010E9406360E946A36609354027093DF
:1031F0005502809356029093570269897A898B8988
:103200009C89A60195010E948E387B018C016D89F5
:103210007E898F89988DA20191010E948E389B0131
:10322000AC01C801B7010E9405369B01AC010E94A8
:1032300006367B018C01698D7A8D8B8D9C8D2D8D51
:103240003E8D4F8D58A10E94063620E030E040E0D0
:1032500050EC0E948E3820E030E040E85FE30E94AE
:1032600006369B01AC01C801B7010E9490366093FD
:1032700050027093510280935202909353026091D6
:10328000500270915102809152029091530221EEAE
:103290003EE245E652E40E948E3890586093500218
:1032A00070935102809352029093530260915402A2
:1032B00070915502809156029091570221EE3EE2A4
:1032C00045E652E40E948E38905860935402709301
:1032D0005502809356029093570260915802709164
:1032E000590280915A0290915B0221EE3EE245E63E
:1032F00052E40E948E385B016C0120E030E044E330
:1033000053E40E9406367B018C0120E030E044E368
:1033100053E40E948338181654F4C601B50120E026
:1033200030E044E353E40E9405367B018C01D80170
:10333000C701B0588093580290935902A0935A0243
:10334000B0935B0260918F0270919002882777FDA5
:103350008095982F0E94823720E030E043E851E4C6
:103360000E94E73660935C0270935D0280935E0278
:1033700090935F0260918D0270918E02882777FD95
:103380008095982F0E94823720E030E043E851E496
:103390000E94E7366093600270936102809362023C
:1033A0009093630260918B0270918C02882777FD65
:1033B0008095982F0E94823720E030E043E851E466
:1033C0000E94E73660936402709365028093660200
:1033D0009093670280919A02882391F58AE992E09E
:1033E0000E942E34892B61F180E090E0A0E8BFE3D9
:1033F0008093A4029093A502A093A602B093A70283
:1034000080E090E0A0E0B0E08093A8029093A90251
:10341000A093AA02B093AB028093AC029093AD024A
:10342000A093AE02B093AF028093B0029093B1022A
:10343000A093B202B093B3028AE992E00E943834BA
:103440008091790290917A02A0917B02B0917C02E6
:103450008D879E87AF87B88B8093A4029093A50237
:10346000A093A602B093A70220907D0230907E0226
:1034700040907F02509080022092A8023092A902D0
:103480004092AA025092AB02609081027090820238
:1034900080908302909084026092AC027092AD02A0
:1034A0008092AE029092AF02A0908502B090860208
:1034B000C0908702D0908802A092B002B092B10270
:1034C000C092B202D092B3026091910270919202C6
:1034D000882777FD8095982F0E9482370E944F376A
:1034E000882777FD8095982F0E94823769837A8399
:1034F0008B839C836091930270919402882777FD5F
:103500008095982F0E9482370E944F37882777FD39
:103510008095982F0E9482376D837E838F83988752
:103520006091950270919602882777FD8095982F7B
:103530000E9482370E944F37882777FD8095982F09
:103540000E94823769877A878B879C876D857E8505
:103550008F85988920E030E040E050E00E948E386E
:103560007B018C01C201B10129813A814B815C81CF
:103570000E948E389B01AC01C801B7010E9405363C
:103580007B018C01C401B3012D813E814F8158859F
:103590000E948E389B01AC01C801B7010E9405361C
:1035A0007B018C01C601B50129853A854B855C8577
:1035B0000E948E389B01AC01C801B7010E940536FC
:1035C0006DA37EA38FA398A76D857E858F8598892F
:1035D00029813A814B815C810E948E387B018C016C
:1035E000C201B10120E030E040E050E00E948E389E
:1035F0009B01AC01C801B7010E9406367B018C011A
:10360000C401B30129853A854B855C850E948E38BB
:103610009B01AC01C801B7010E9406367B018C01F9
:10362000C601B5012D813E814F8158850E948E389B
:103630009B01AC01C801B7010E94053669A77AA7B2
:103640008BA79CA76D857E858F8598892D813E816E
:103650004F8158850E948E387B018C01C201B101D7
:1036600029853A854B855C850E948E389B01AC018B
:10367000C801B7010E9405367B018C01C401B3016A
:1036800020E030E040E050E00E948E389B01AC0129
:10369000C801B7010E9406367B018C01C601B50145
:1036A00029813A814B815C810E948E389B01AC015B
:1036B000C801B7010E9406366DA77EA78FA798ABF9
:1036C0006D857E858F85988929853A854B855C85B2
:1036D0000E948E387B018C01C201B1012D813E8197
:1036E0004F8158850E948E389B01AC01C801B701FB
:1036F0000E9406367B018C01C401B30129813A8105
:103700004B815C810E948E389B01AC01C801B701DE
:103710000E9405367B018C01C601B50120E030E036
:1037200040E050E00E948E389B01AC01C801B70117
:103730000E94063669AB7AAB8BAB9CAB57FA5094C0
:1037400057F8509497FA909497F89094D7FAD094A9
:10375000D7F8D0946DA17EA18FA198A5A201910167
:103760000E948E387B018C0169A57AA58BA59CA54A
:103770002D853E854F8558890E948E389B01AC016E
:10378000C801B7010E9406367B018C016DA57EA59C
:103790008FA598A9A60195010E948E389B01AC01C6
:1037A000C801B7010E9406367B018C0169A97AA97C
:1037B0008BA99CA9A40193010E948E389B01AC01A6
:1037C000C801B7010E9405360E944F37882777FD50
:1037D0008095982F0E94823720E030E040E858E33F
:1037E0000E948E386DAB7EAB8FAB98AF6093680252
:1037F0007093690280936A0290936B026DA17EA11F
:103800008FA198A5A40193010E948E387B018C01A1
:1038100069A57AA58BA59CA5A60195010E948E3865
:103820009B01AC01C801B7010E9405367B018C01E8
:103830006DA57EA58FA598A92D853E854F855889B4
:103840000E948E389B01AC01C801B7010E94063668
:103850007B018C0169A97AA98BA99CA9A20191017C
:103860000E948E389B01AC01C801B7010E94063648
:103870000E944F37882777FD8095982F0E948237C6
:1038800020E030E040E858E30E948E3869AF7AAF1C
:103890008BAF9CAF6DA17EA18FA198A5A6019501CC
:1038A0000E948E387B018C0169A57AA58BA59CA509
:1038B000A40193010E948E389B01AC01C801B7019D
:1038C0000E9406367B018C016DA57EA58FA598A967
:1038D000A20191010E948E389B01AC01C801B70181
:1038E0000E9405367B018C0169A97AA98BA99CA944
:1038F0002D853E854F8558890E948E389B01AC01ED
:10390000C801B7010E9406360E944F37882777FD0D
:103910008095982F0E94823720E030E040E858E3FD
:103920000E948E38609370027093710280937202CD
:103930009093730289AD9AADABADBCADB058809396
:103940006C0290936D02A0936E02B0936F0280910F
:103950007802882309F45DC0809154029091550249
:10396000A0915602B0915702B058809354029093A0
:103970005502A0935602B09357028091580290913D
:103980005902A0915A02B0915B02B058809358023C
:1039900090935902A0935A02B0935B028091600207
:1039A00090916102A0916202B0916302B05880933D
:1039B000600290936102A0936202B09363028091CF
:1039C000640290916502A0916602B0916702B058BE
:1039D0008093640290936502A0936602B09367029D
:1039E0008DA99EA9AFA9B8ADB058809368029093F5
:1039F0006902A0936A02B0936B0289AD9AADABAD38
:103A0000BCAD80936C0290936D02A0936E02B09354
:103A10006F028091A2029091A30201969093A3025B
:103A20008093A20280E0EC960FB6F894DEBF0FBE42
:103A3000CDBFCF91DF911F910F91FF90EF90DF905D
:103A4000CF90BF90AF909F908F907F906F905F903E
:103A50004F903F902F900895EF92FF920F931F93F6
:103A60008B017A017093C5026093C4021092A30285
:103A70001092A2020E94E2080E942F0980E090E0CA
:103A8000A0E0B0E08093740290937502A093760258
:103A9000B093770280E090E00E94B3119093990276
:103AA0008093980288E70E94FF0B9093990280937D
:103AB000980280ED97E00E949E0B9093990280936C
:103AC000980282E00E94450B90939902809398029D
:103AD00088E992E00E94F50988E70E94BA0D909368
:103AE00099028093980280E090E00E94C1120E94A7
:103AF000E0120E9444179093990280939802C701A4
:103B00000E946B159093990280939802C8010E94BD
:103B10002615909399028093980281E00E94A61046
:103B2000909399028093980280E791E00E946F162B
:103B3000909399028093980280E01F910F91FF90DB
:103B4000EF900895FC0180E090E0A0E0B0E0808775
:103B50009187A287B38784839583A683B783808365
:103B60009183A283B383808F918FA28FB38F848B35
:103B7000958BA68BB78B848F958FA68FB78F84A3D9
:103B800095A3A6A3B7A380A391A3A2A3B3A384875D
:103B90009587A687B787808B918BA28BB38B80E0AC
:103BA00090E0089520E030E040E050E0FC01248700
:103BB00035874687578708952F923F924F925F929D
:103BC0006F927F928F929F92AF92BF92CF92DF922D
:103BD000EF92FF920F931F93CF93DF93EC013A0183
:103BE0004B0118012901CB01BA012C813D814E8185
:103BF0005F810E948E38A20191010E948E382C852F
:103C00003D854E855F850E9406365B016C016C87A1
:103C10007D878E879F87E88CF98C0A8D1B8DA80184
:103C200097010E948338181664F017FB109517F956
:103C30001095C601B501A80197010E94E3368823BB
:103C400024F4EC86FD860E871F8768A179A18AA1DE
:103C50009BA1A20191010E94E7369B01AC01C40126
:103C6000B3010E940536688B798B8A8B9B8BECA005
:103C7000FDA00EA11FA1A80197010E9405362EEB01
:103C800039ED4CE55FE30E948E389B01AC01C80121
:103C9000B7010E9406365B016C01688B798B8A8BB9
:103CA0009B8BC401B301288139814A815B810E94C9
:103CB0008E382C853D854E855F850E9406367B01BA
:103CC0008C01C601B501288539854A855B850E942E
:103CD0008E389B01AC01C801B7010E9405366C8F7C
:103CE0007D8F8E8F9F8FEC88FD880E891F89A8019C
:103CF00097010E948338181624F4EC8EFD8E0E8FE7
:103D00001F8F8C899D89AE89BF897C018D0117FB2E
:103D1000109517F910956C8D7D8D8E8D9F8DA80156
:103D200097010E94E336882324F4EC8EFD8E0E8FDB
:103D30001F8F68A279A28AA29BA288899989AA89E1
:103D4000BB898CA39DA3AEA3BFA3DF91CF911F918D
:103D50000F91FF90EF90DF90CF90BF90AF909F902A
:103D60008F907F906F905F904F903F902F9008952D
:103D7000AC018091EA0290E0860F911D80970CF0D3
:103D80003DC0FA01762F30E0ACE80DC0208198E00C
:103D9000822F8327369580FD3A27915011F0269582
:103DA000F7CF31967150772389F7FA01E60FF11DAD
:103DB00030836F5FDA0120E030E21EC08091E902BB
:103DC000803210F01092E9029091E902E92FF0E0C0
:103DD000E551FD4F8C9180839F5F9093E902809124
:103DE000EA028F5F8093EA028091EA02813210F04A
:103DF0003093EA022F5F1196261700F30895CF93B0
:103E0000DF93EC018091C802843008F449C0DE01E0
:103E100020E08091C8028823E9F09091C702809148
:103E2000C802981738F48091C802E091C702F0E008
:103E3000B09605C0E091C7028091C802F0E0E81B8F
:103E4000F109E753FD4F80818C938091C802815026
:103E50008093C8022F5F11962430D9F6FE0130E01E
:103E600043E05CE80CC0208198E0822F83273695E0
:103E700080FD3527915011F02695F7CF31964150AE
:103E800090F78B81381719F420E030E00BC0809157
:103E9000C6028F5F8093C6021092C7021092C802BA
:103EA0002FEF3FEFC901DF91CF9108951F920F923D
:103EB0000FB60F9211242F938F939F93EF93FF933D
:103EC0002EB58091EA028823F1F09091E902809169
:103ED000EA02981738F48091EA02E091E902F0E0F2
:103EE000B09605C0E091E9028091EA02F0E0E81B9B
:103EF000F109E551FD4F80818EBD8091EA0281502C
:103F00008093EA0201C01EBC8091C702803210F08B
:103F10001092C7028091C702E82FF0E0E753FD4FEF
:103F200020838F5F8093C7028091C8028F5F809348
:103F3000C8028091C802813218F080E28093C802E2
:103F4000FF91EF919F918F912F910F900FBE0F9046
:103F50001F9018958093EB046093EC047093ED042C
:103F60008BEE94E063E00E94B81E08956091DD043A
:103F70007091DE048091DF049091E0040E944F373D
:103F80009B01AC0182E1B9010E94AA1F6091BB04B0
:103F90007091BC048091BD049091BE040E944F3783
:103FA0009B01AC0183E1B9010E94AA1F6091BF048B
:103FB0007091C0048091C1049091C2040E944F3757
:103FC0009B01AC0184E1B9010E94AA1F60913A04EF
:103FD00070913B0480913C0490913D040E944F37C6
:103FE0009B01AC0185E1B9010E94AA1F08956F925F
:103FF0007F928F929F92AF92BF92CF92DF92EF9279
:10400000FF920F931F93CF93DF9328E6A22E22E017
:10401000B22E92E0692E95E0792E8EE0882E85E012
:10402000982E6301E401F501E080F18002811381A3
:10403000C801B701F60120813181428153810E947C
:10404000E33688232CF4F601E082F18202831383A5
:10405000C801B701288139814A815B810E94833878
:10406000181624F4E882F9820A831B8384E090E026
:10407000A80EB91EC80ED91E249694E7A91692E080
:10408000B90689F68091E30464E10E9478399923A6
:1040900041F51CE00F2EF0E0CF2EF0E0DF2EF0E037
:1040A000EF2EF0E0FF2EF02DF4016081718182810E
:1040B000938120E030E04AE754E40E948E380E9469
:1040C0004F379B01AC01812FB9010E94AA1FF40157
:1040D000C192D192E192F1924F011F5F1F3021F7FF
:1040E00029C09A3039F51FE00F2EF0E0CF2EF0E016
:1040F000DF2EF0E0EF2EF0E0FF2EF02DF3016081D7
:1041000071818281938120E030E04AE754E40E948B
:104110008E380E944F379B01AC01812FB9010E945C
:10412000AA1FF301C192D192E192F1923F011F5F68
:10413000123121F7DF91CF911F910F91FF90EF90F6
:10414000DF90CF90BF90AF909F908F907F906F90B7
:1041500008951F93CF93DF93CCE5D2E011E06991EE
:1041600079918991999120E030E048EC52E40E94E5
:104170008E380E944F379B01AC01812FB9010E94FC
:10418000AA1F1F5F143059F7DF91CF911F91089537
:104190001F93CF93DF93C0E5D2E014E0699179914A
:1041A0008991999120E030E048EC52E40E948E38E9
:1041B0000E944F379B01AC01812FB9010E94AA1FB9
:1041C0001F5F173059F76091E7047091E804809100
:1041D000E9049091EA0420E030E048EC52E40E94C7
:1041E0008E380E944F379B01AC0187E0B9010E94D5
:1041F000AA1FDF91CF911F9108951F93CF93DF9353
:10420000C9E1D3E018E069917991812F0E94AA1F3A
:104210001F5F1C30C1F7DF91CF911F9108958091EE
:10422000E604823069F0833018F4813059F505C016
:10423000833081F0843031F51CC00E94F71F08954F
:104240008091E30464E10E947839992369F40E9423
:10425000A92008958091E30464E10E9478399923AC
:1042600019F40E94C82008959A3061F40E94FD203C
:1042700008958091E30464E10E947839992311F450
:104280000E94B61F0895FC018181882321F470E00B
:1042900060E090E032C090818181A381B481981761
:1042A00048F431812081828190E0820F911D831B2F
:1042B000910905C08081218190E0821B9109880FBE
:1042C000991F880F991FA80FB91F8D919D910D906F
:1042D000BC91A02D8093030690930406A09305063D
:1042E000B0930606818181508183709103066091AD
:1042F00004069091050680910606272F362F492F38
:10430000582FB901CA0108950F931F930DE013E0D0
:10431000C8010E946B34C80103960E946B34C80127
:1043200006960E946B34C80109960E946B341F9157
:104330000F9108956F927F928F929F92AF92BF924A
:10434000CF92DF92EF92FF920F931F938091FB0425
:104350009091FC0401969093FC048093FB04895E89
:104360009D4F20F08FEF8093E404A8C00E94521765
:10437000992787FD909590930C0380930B03892BCD
:1043800009F09BC01091FD04183CF8F41431D0F0F2
:104390006091FE047091FF048091000590910105E9
:1043A000209170023091710240917202509173021B
:1043B0000E9406366093FE047093FF04809300050C
:1043C000909301051F5F1093FD0460905C02709054
:1043D0005D0280905E0290905F02C401B30120E014
:1043E00030E040E85FEB0E94833818160CF065C09F
:1043F000A0906002B0906102C0906202D09063020F
:10440000C601B50120E030E040E85FEB0E94833850
:1044100018160CF052C0E0906402F0906502009112
:10442000660210916702C801B70120E030E040E861
:104430005FEB0E94833818160CF03FC0C401B30133
:1044400020E030E040E85FE30E94E3368823ACF5EB
:10445000C601B50120E030E040E85FE30E94E336AA
:1044600088235CF5C801B70120E030E040E85FE355
:104470000E94E33688230CF56091FD0470E06451DE
:104480007040882777FD8095982F0E9482379B0186
:10449000AC016091FE047091FF0480910005909141
:1044A00001050E94E7366093740270937502809351
:1044B00076029093770280E001C08FEF1F910F91F9
:1044C000FF90EF90DF90CF90BF90AF909F908F9034
:1044D0007F906F9008950F931F930DE013E060910C
:1044E000260370912703C8010E948534609126033A
:1044F00070912703C80103960E94853460912603BA
:1045000070912703C80106960E94853460912603A6
:1045100070912703C80109960E9485341F910F915D
:1045200008952F923F924F925F926F927F928F9257
:104530009F92AF92BF92CF92DF92EF92FF920F9332
:104540001F93DF93CF93CDB7DEB72C970FB6F894B8
:10455000DEBF0FBECDBF0E945217992787FD9095F1
:1045600090930C0380930B0397FF06C00E946B226D
:104570008DEF8093E40443C58091E3048F5F8093C3
:10458000E304883C11F41092E3040E942B30209144
:10459000F7043091F8044091F9045091FA04621B39
:1045A000730B840B950B0E94803720E030E04AE7C4
:1045B00054E40E94E73660930301709304018093F2
:1045C0000501909306010E942B306093F7047093CD
:1045D000F8048093F9049093FA0480910301909178
:1045E0000401A0910501B09106018D839E83AF83E4
:1045F000B887BC01CD012AE037ED43E25CE30E94BD
:104600008338181634F48EEF8093E4040E946B22F2
:10461000F6C48091DB04882309F44BC28150809357
:10462000DB0460917002709171028091720290912E
:10463000730220E030E845E754E40E948E381B0105
:104640002C0160939F047093A0048093A104909325
:10465000A2046091B3047091B4048091B504909168
:10466000B6042091D7043091D8044091D9045091D8
:10467000DA040E948E382D813E814F8158850E9438
:104680008E389B01AC016091A7047091A8048091C1
:10469000A9049091AA040E9406365B016C01609304
:1046A000A7047093A8048093A9049093AA04E090AF
:1046B000B304F090B4040091B5041091B604C8019D
:1046C000B7012091D3043091D4044091D504509186
:1046D000D6040E948E382D813E814F8158850E94DC
:1046E0008E382091BF043091C0044091C104509194
:1046F000C2040E94063669877A878B879C87C80127
:10470000B7012091CF043091D0044091D104509151
:10471000D2040E948E382D813E814F8158850E949F
:104720008E389B01AC016091AB047091AC04809118
:10473000AD049091AE040E9406363B014C0160939B
:10474000AB047093AC048093AD049093AE04C201AB
:10475000B101A60195010E9406362D813E814F814F
:1047600058850E948E387B018C016093AF04709352
:10477000B0048093B1049093B20420E030E040E0B4
:104780005FE30E948E389B01AC0169857A858B8539
:104790009C850E9406362D813E814F8158850E945E
:1047A0008E382091B7043091B8044091B9045091EB
:1047B000BA040E9406365B016C016093B7047093E3
:1047C000B8048093B9049093BA04A40193010E94A1
:1047D00006366093BB047093BC048093BD04909331
:1047E000BE0469857A858B859C85A80197010E9406
:1047F00006366093BF047093C0048093C104909305
:10480000C2049091960480919804981711F4109224
:10481000960420919604822F90E0880F991F880FAC
:10482000991FE0919904F0919A04E80FF91FA08272
:10483000B182C282D3822F5F209396049091970415
:1048400080919804981728F4809197048F5F809343
:1048500097046091DD047091DE048091DF049091F3
:10486000E0042091BB043091BC044091BD04509100
:10487000BE040E9405365B016C016093C304709313
:10488000C4048093C5049093C604E0904604F0905D
:1048900047040091480410914904C801B701A801D8
:1048A00097010E940636A80197010E948E389B014D
:1048B000AC0160E070E08AE793E40E94E7367B0198
:1048C0008C0160939B0470939C0480939D0490934F
:1048D0009E04A80197010E9406369B01AC01C60107
:1048E000B5010E94833818167CF4C601B501A801F1
:1048F00097010E94053620E030E04AEF53E40E9421
:104900008E380E94F53820C0C801B70120E030E0A1
:1049100040E050EC0E948E389B01AC01C601B5010D
:104920000E94E3368823CCF4C601B5019058A80153
:1049300097010E94053620E030E04AEF53E40E94E0
:104940008E380E94F53890586093C7047093C8045D
:104950008093C9049093CA041EC000910301109172
:104960000401209105013091060186E494E0B6012E
:10497000A5010E94DC1D8091620490916304A091C6
:104980006404B09165048093C7049093C804A09315
:10499000C904B093CA046091C7047091C80480919F
:1049A000C9049091CA042091BF043091C004409181
:1049B000C1045091C2040E940536AB01BC010091B4
:1049C00003011091040120910501309106018EE64A
:1049D00094E00E94DC1DE090A304F090A4040091F8
:1049E000A5041091A60460918A0470918B048091B3
:1049F0008C0490918D0420919F043091A0044091EB
:104A0000A1045091A2040E940536A80197010E94BA
:104A1000053623E833EA44EE5DE30E948E389B01BD
:104A2000AC01C801B7010E940636AB01BC01CA0146
:104A3000DB018093A3049093A404A093A504B093F6
:104A4000A604009103011091040120910501309109
:104A500006018EE194E00E94DC1D8091DC04882335
:104A6000D9F06091E1047091E204882777FD809588
:104A7000982F0E94823720913A0430913B04409154
:104A80003C0450913D040E9406360E944F377093BB
:104A9000F6046093F5040FC086E494E00E94D21DF2
:104AA0008EE694E00E94D21D8EE194E00E94D21D19
:104AB00002C01092DC04E0905802F090590200917C
:104AC0005A0210915B02C801B70120E030E040E0DB
:104AD00050E00E94833818165CF4C801B70120E04A
:104AE00030E048E452E40E94833818165CF01AC0A3
:104AF000C801B70120E030E048E452EC0E94E33600
:104B0000882384F48091500290915102A091520226
:104B1000B09153028093E7049093E804A093E904D2
:104B2000B093EA04E0905402F090550200915602CE
:104B300010915702C801B70120E030E040E050E09A
:104B40000E94833818165CF4C801B70120E030E0F9
:104B500048E452E40E94833818165CF01AC0C80179
:104B6000B70120E030E048E452EC0E94E3368823AD
:104B700084F48091500290915102A0915202B09120
:104B800053028093E7049093E804A093E904B09360
:104B9000EA04E090E704F090E8040091E904109141
:104BA000EA04A0905002B0905102C0905202D090FE
:104BB0005302C801B701A60195010E94053620E005
:104BC00030E044E353EC0E94E33688235CF4D801E0
:104BD000C701B0588093E7049093E804A093E904D8
:104BE000B093EA04E090E704F090E8040091E9044F
:104BF0001091EA04C801B701A60195010E9405368B
:104C000020E030E044E353E40E94833818165CF45B
:104C1000D801C701B0588093E7049093E804A093AB
:104C2000E904B093EA042091EF043091F004B90153
:104C300037FF04C066277727621B730B6630710548
:104C400094F1C9010E9498398BEF9FEFDB01A89F77
:104C5000B001A99F700DB89F700D1124620F731FD2
:104C6000882777FD8095982F0E9482379B01AC01A1
:104C700060911A0470911B0480911C0490911D0492
:104C80000E948E386093BE037093BF038093C0036D
:104C90009093C103A092E704B092E804C092E904A3
:104CA000D092EA041AC06091E7047091E804809100
:104CB000E9049091EA04A60195010E940536AB0132
:104CC000BC01009103011091040120910501309174
:104CD000060182EA93E00E94DC1D8091E5048823AE
:104CE000B9F56091F1047091F204882777FD809501
:104CF000982F0E94823720915402309155024091A2
:104D00005602509157020E940536AB01BC0100913A
:104D100003011091040120910501309106018AECF4
:104D200093E00E94DC1D6091F3047091F4048827E5
:104D300077FD8095982F0E948237209158023091FC
:104D4000590240915A0250915B020E94053639C0C7
:104D5000813009F044C06091F1047091F204882719
:104D600077FD8095982F0E94823720911A04309108
:104D70001B0440911C0450911D040E948E38AB010D
:104D8000BC010091030110910401209105013091B3
:104D900006018AEC93E00E94DC1D6091F30470919F
:104DA000F404882777FD8095982F0E948237209100
:104DB0001A0430911B0440911C0450911D040E9460
:104DC0008E38AB01BC0100910301109104012091C8
:104DD00005013091060182EF93E00E94DC1DFEEB9D
:104DE000CF2EF3E0DF2EECE5AE2EE2E0BE2E662401
:104DF000772478E2872E912C689C7001699CF00CD6
:104E0000789CF00C1124EAE2F3E0EE0EFF1ED601CE
:104E10006D917D918D919C91F501219131914191FF
:104E200051915F010E940536AB01BC010091030165
:104E3000109104012091050130910601C7010E94E3
:104E4000DC1D0894611C711C48E250E0C40ED51EA4
:104E500053E06516710481F66091F5047091F604D3
:104E6000882777FD8095982F0E9482371B012C019F
:104E70008091960390919703A0919803B091990324
:104E800089839A83AB83BC83C201B10129813A81B2
:104E90004B815C810E9406365B016C01E0906E03E1
:104EA000F0906F03009170031091710360904603BE
:104EB000709047038090480390904903A8019701A0
:104EC0000E940536A40193010E9406360E944F37C6
:104ED00070931A0360931903C601B501A8019701E5
:104EE0000E940636A40193010E9405360E944F37A6
:104EF00070931C0360931B03C201B10129813A81A5
:104F00004B815C810E9405365B016C01A801970111
:104F10000E940536A40193010E9405360E944F3776
:104F200070931E0360931D03C601B501A80197018C
:104F30000E940636A40193010E9406360E944F3754
:104F40007093200360931F030E940F212091F504AA
:104F50003091F6048091280390912903281739078E
:104F60005CF50E946B228091500290915102A091B9
:104F70005202B09153028093E7049093E804A09307
:104F8000E904B093EA048AE293E00E94D21D82EA27
:104F900093E00E94D21D82E593E00E94D21D8AEC2C
:104FA00093E00E94D21D8AE793E00E94D21D82EF17
:104FB00093E00E94D21D23C069E1E62E63E0F62E45
:104FC00000E010E0D7018D919C91609128037091D1
:104FD0002903681779070CF4BC01F70161937193F9
:104FE0007F01C801880F991F800F911F835F9C4F1D
:104FF0000E9485340F5F1F4F0430110519F72C965E
:105000000FB6F894DEBF0FBECDBFCF91DF911F91D9
:105010000F91FF90EF90DF90CF90BF90AF909F9057
:105020008F907F906F905F904F903F902F9008955A
:1050300080E991E060E00E94CD0680E00E94663445
:105040008CE061E00E94CD308CB580648CBD8CB565
:1050500080688CBD0895EF92FF920F931F93BAE280
:10506000EB2EB3E0FB2EC7010E94A21D02EA13E063
:10507000C8010E94A21DC70188960E94A21DC801F6
:1050800088960E94A21D8AE793E00E94A21D82EFEB
:1050900093E00E94A21D8EE194E00E94A21D8EE684
:1050A00094E00E94A21D86E494E00E94A21D10924A
:1050B00097048091970406E914E0F80181938F0129
:1050C0008FE0809398048CE390E00E94603180939D
:1050D0009904F801938380E090E0A0ECB0E4809321
:1050E000CB049093CC04A093CD04B093CE0480E085
:1050F00090E0A0E0BFE38093CF049093D004A0930E
:10510000D104B093D20480E595E5A5E5BFE3809393
:10511000D3049093D404A093D504B093D6048EED19
:105120009EEAA7E9BBE38093D7049093D804A093A9
:10513000D904B093DA0480E090E0A0E0B0E080937E
:10514000E7049093E804A093E904B093EA04109272
:10515000E3041092E4041092E5041092E604109225
:10516000C6021092DC048093DD049093DE04A093C9
:10517000DF04B093E0041092E2041092E104809303
:105180009F049093A004A093A104B093A2048093E1
:10519000A3049093A404A093A504B093A6048093C1
:1051A000A7049093A804A093A904B093AA048093A1
:1051B000AB049093AC04A093AD04B093AE04809381
:1051C000AF049093B004A093B104B093B204809361
:1051D000B3049093B404A093B504B093B604809341
:1051E000B7049093B804A093B904B093BA04809321
:1051F000BB049093BC04A093BD04B093BE04809301
:10520000BF049093C004A093C104B093C2041F9143
:105210000F91FF90EF900895FC01880F991F8E0F5A
:105220009F1FEF5DFC4F6081835F9C4F70E00E9489
:1052300040350895AF92BF92CF92DF92EF92FF92E6
:105240000F931F93CF93DF9380911A058823A1F4C6
:105250008AE195E00E942E34892B71F00E942B3058
:105260006093260570932705809328059093290560
:105270008AE195E00E9438340E942B302091260567
:10528000309127054091280550912905621B730B29
:10529000840B950B655C79408040904090F01092B3
:1052A000DC041092F6041092F5041092F4041092AB
:1052B000F3041092F2041092F1041092F004109290
:1052C000EF048BEE94E00E94FF1E892B09F00AC6C2
:1052D000E091EB049091ED0480E02091EC04C22F6A
:1052E000D0E0C82BD92BE53609F484C3E63608F0A4
:1052F00072C0E53409F4FCC1E63488F5EB3009F4FA
:1053000014C1EC30B0F4E93068F4E53008F000C1C5
:10531000E33009F4E1C0E43008F0F1C0E23009F014
:10532000E1C5D7C0E93009F4F8C0EA3009F0DAC5C0
:10533000F7C0EF3009F462C1E03138F4ED3009F420
:10534000FEC0EE3008F00AC1F5C0E13109F4C6C173
:10535000E13108F466C1E23109F0C4C5C4C1E235E7
:1053600009F494C2E335D8F4E93409F443C2EA34C9
:1053700060F4E73409F41DC2BE01882777FD8095EB
:10538000982FE83408F025C209C2E03509F45EC25E
:10539000E13508F06BC2EA3409F0A4C541C2EB352F
:1053A00009F4C6C2EC3550F4E43509F49BC2E43587
:1053B00008F482C2EA3509F095C5AAC2ED3509F4B0
:1053C000DDC2ED3508F4C4C2EE3509F4EDC2E436B1
:1053D00009F088C5FFC2EA3C09F44EC4EB3C08F072
:1053E0003FC0E23709F49AC3E337D8F4EE3609F444
:1053F00053C3EF3650F4E73609F422C3E73608F416
:1054000009C3E83609F06EC531C3E03709F45FC35C
:10541000BE01882777FD8095982FE13708F06DC38E
:105420004BC3EB3709F4C6C3EC3750F4E93709F442
:105430009BC3EA3708F0A8C3E83709F053C584C313
:10544000E23809F4E3C3E33820F4EC3709F04AC545
:10545000C7C3E83C09F4F0C3E93C09F043C5FCC309
:10546000EC3D09F4ADC4ED3DC8F4E33D09F456C488
:10547000E43D50F4EC3C09F42BC4EC3C08F412C4B9
:10548000E23D09F02FC53AC4E53D09F46DC4E53DA0
:1054900008F454C4E63D09F025C57CC4E03E09F497
:1054A000D1C4E13E60F4EE3D09F4A5C4BE018827F5
:1054B00077FD8095982FEF3D08F0B3C491C4EE3F7F
:1054C00009F4E5C4EF3F08F0E6C4EA3F08F40AC572
:1054D000CFC4C093E60406C5C093E5048091500292
:1054E00090915102A0915202B09153028093E7042F
:1054F0009093E804A093E904B093EA04F3C42197DD
:1055000021F481E080937802EDC410927802EAC41D
:10551000F0E0E45EFC4FC083E5C4C0932503E2C421
:10552000D093F004C093EF04DDC4D093F204C09391
:10553000F104D8C4D093F404C093F304D3C40E94FC
:105540002B30609326057093270580932805909350
:105550002905D093F604C093F504C4C488EC809365
:10556000DB049091970480919804891769F486E987
:1055700094E00E9443216093220570932305809359
:1055800024059093250510C08091B7049091B8042C
:10559000A091B904B091BA04809322059093230599
:1055A000A0932405B0932505BE01882777FD80953B
:1055B000982F0E9482377B018C01609122057091A7
:1055C000230580912405909125052091AB0430910D
:1055D000AC044091AD045091AE040E9406369B018C
:1055E000AC01C801B7010E9405366093B304709303
:1055F000B4048093B5049093B60474C4C093DC04DF
:105600008091F5049091F6049093E2048093E10474
:105610008091BB049091BC04A091BD04B091BE04E4
:1056200054C083E0C93ED8076CF06091DD047091EE
:10563000DE048091DF049091E00420E030E04AE74E
:1056400054E424C02CEFC831D2077CF46091DD040F
:105650007091DE048091DF049091E00420E030E05E
:105660004AE754E40E94053613C0BE01882777FD3F
:105670008095982F0E9482379B01AC016091DD04D8
:105680007091DE048091DF049091E0040E94063660
:105690006093DD047093DE048093DF049093E00454
:1056A0006091DD047091DE048091DF049091E0044C
:1056B00020E030E44CE956E40E94833818160CF0E0
:1056C00011C480E090E4ACE9B6E48093DD049093EB
:1056D000DE04A093DF04B093E00404C4D093270356
:1056E000C0932603FFC3D0932903C0932803FAC3B2
:1056F000BE01882777FD8095982F0E94823720E091
:1057000030E048EC52E40E94E7367B018C01609364
:10571000CB047093CC048093CD049093CE0460E0CE
:1057200070E080E490E4A80197010E94E73660935E
:10573000CF047093D0048093D1049093D204C80115
:10574000B701A80197010E948E385B016C0160E0EF
:1057500070E080E490E4A60195010E94E736609332
:10576000D3047093D4048093D5049093D604C601D7
:10577000B501A80197010E948E389B01AC0160E041
:1057800070E080E89FE30E94E7366093D70470934F
:10579000D8048093D9049093DA04A4C30E9482377A
:1057A00060933204709333048093340490933504EF
:1057B00099C3BE01882777FD8095982F0E94823774
:1057C00060933604709337048093380490933904BF
:1057D00089C30E94823720E030E04AE754E40E9407
:1057E000E73660931E0470931F0480932004909307
:1057F000210478C3BE01882777FD8095982F0E94E9
:10580000823720E030E04AE754E40E94E7366093B4
:10581000220470932304809324049093250462C38C
:10582000BE01882777FD8095982F0E94823720E05F
:1058300030E44CE156E40E94E7366093260470930E
:10584000270480932804909329044CC3BE01882721
:1058500077FD8095982F0E94823760935A04709349
:105860005B0480935C0490935D043CC3BE01882775
:1058700077FD8095982F0E94823760935E04709325
:105880005F0480936004909361042CC3BE01882759
:1058900077FD8095982F0E94823720E030E04AE71C
:1058A00054E40E94E7366093460470934704809363
:1058B00048049093490416C3BE01882777FD80955C
:1058C000982F0E94823720E030E04AE754E40E949B
:1058D000E73660934A0470934B0480934C04909392
:1058E0004D0400C3BE01882777FD8095982F0E9444
:1058F000823720E030E44CE156E40E94E7366093C2
:105900004E0470934F048093500490935104EAC264
:10591000BE01882777FD8095982F0E94823760937B
:105920008204709383048093840490938504DAC284
:10593000BE01882777FD8095982F0E94823760935B
:105940008604709387048093880490938904CAC264
:10595000BE01882777FD8095982F0E94823720E02E
:1059600030E04AE754E40E94E73660936E04709397
:105970006F048093700490937104B4C2BE018827B1
:1059800077FD8095982F0E94823720E030E04AE72B
:1059900054E40E94E736609372047093730480931A
:1059A0007404909375049EC2BE01882777FD80958C
:1059B000982F0E94823720E030E44CE156E40E94A8
:1059C000E73660937604709377048093780490931D
:1059D000790488C2BE01882777FD8095982F0E94A0
:1059E000823760933E0370933F038093400390930C
:1059F000410378C2BE01882777FD8095982F0E94C9
:105A000082376093420370934303809344039093DF
:105A1000450368C2BE01882777FD8095982F0E94B4
:105A2000823720E030E04AE754E40E94E736609392
:105A30002A0370932B0380932C0390932D0352C25F
:105A4000BE01882777FD8095982F0E94823720E03D
:105A500030E04AE754E40E94E73660932E037093E7
:105A60002F0380933003909331033CC2BE018827FB
:105A700077FD8095982F0E94823720E030E44CE13A
:105A800056E40E94E73660933203709333038093A9
:105A900034039093350326C2BE01882777FD809595
:105AA000982F0E94823760936603709367038093F8
:105AB00068039093690316C20E94823760936A0359
:105AC00070936B0380936C0390936D030BC2BE01C4
:105AD000882777FD8095982F0E94823720E030E05C
