:100000000C9492060C94BA060C94BA060C94BA0698
:100010000C94BA060C94BA060C94BA060C94BA0660
:100020000C94BA060C94BA060C94BA060C94BA0650
:100030000C94BA060C94BA060C94B71F0C947C1F4F
:100040000C9401350C94B8200C9460370C94AE37A6
:100050000C94BA060C94BA060C94BA060C94BA0620
:100060000C94BA060C94BA06036EDB363D9A999945
:10007000993DABAAAA2A3E000000803F084AD73B20
:100080003BCE016E84BCBFFDC12F3D6C74319ABD67
:1000900056833DDA3D00C77F11BED9E4BB4C3E918B
:1000A0006BAAAABE000000803F072C7AA5BA6CC5D7
:1000B00090DA3B9365FC8BBC53F810FD3C56928361
:1000C0004DBD879D3AB63DCBC9BF5BBE73DA0FC944
:1000D0003F00007000000000240000000200030048
:1000E0000000650054FFEF0000FA80000B12820050
:1000F00001030C30C30E8C8CE914D5400213710F30
:100100008E3883F8833000F883258EF8833000F82A
:1001100083FFFFFFFF0FFEA9D6240004001A827997
:10012000A10000003CFFFF00000010000038836FBA
:10013000A2003E03304000000002CAE3093E8000F6
:1001400000200000000000000040000000600000EF
:1001500000000C0000000C186E000006920A16C089
:10016000DFFFFF0256FD8CD377FFE1C496E0C5BEEA
:10017000AA00000000FFFF0B2B0000165700000331
:10018000594000000000001DFA00026C1D00000034
:10019000003FFFDFEB003EB3B6000D227800002FDA
:1001A0003C00000000001942B5000039A20000B375
:1001B00065D90E9FC91DCF4C34300000005000009F
:1001C000003BB67AE80064000000C80000000000B0
:1001D00000100000001000FA921000225E000D22B4
:1001E0009F0001000000320000FF46000063D400C1
:1001F000001000000004D6000004CC000004CC0075
:10020000000000107200000040000000000000002C
:100210000000060002000500070000000000640066
:100220000000000000000000050005006400200040
:10023000000000000000000000000040000000037B
:100240000000000032F8980000FF650000830F00F6
:1002500000FF9BFC00000000000000000000000008
:10026000000000000000000000000000000000008E
:10027000000000000000000000000000000000106E
:100280000040000000000000060000B26A0002000A
:10029000000001FB830068000000D9FC007CF1FF36
:1002A000830000000000650000006403E8006400B3
:1002B00028000000250000000016A000000000102B
:1002C0000000001000002F0000000001F4000010EA
:1002D0000000280000FFFF4581FFFFFA72000000C8
:1002E0000000000000004400050005BAC600477881
:1002F000A200000001000000000000060000000055
:10030000140000254D002F706D000005AE000C029A
:10031000D00000000000000000000000000000000D
:1003200000001B00000000000000000000000000B2
:100330000000640000000800000000000000000051
:1003400000000000000000000000000000000000AD
:10035000000000000000000000000000000000009D
:10036000000000000000000000000000000000008D
:10037000000000000000000000000000000000007D
:10038000000000000000000000000000000000006D
:1003900000001B00000000000000000000000E0034
:1003A0000E00000AC70004000000000032FFFFFF3B
:1003B0009C00000B2B000000020000000100000068
:1003C00064FFE500000000000000000000000000E5
:1003D000000000000100000000000100000000001B
:1003E0000000018000000180000001800000242640
:1003F000D30000000000000000000600100096007E
:100400003C000000000000000000000000000000B0
:10041000000C0A4E68CDCF770950166759C619CE21
:10042000820000000000000000000000000000004A
:1004300000000000000000000017D7840003000047
:10044000000000000000000000C7938F9D1E1B1CD1
:100450001900000000000000000000000000000083
:1004600000000000000000000002031885000040AA
:100470000000000003000000030000000000000076
:10048000004000000000000000000000000000002C
:10049000000000000000000000000000000000005C
:1004A000000000000000000000000000000000004C
:1004B0000000000000677DDF7E72902E554CF6E64E
:1004C00088000000000000000000000000000000A4
:1004D00000D8DCB4B8B0D8B9ABF3F8FAB3B7BB8E78
:1004E0009EAEF132F51BF1B4B8B08097F1A9DFDF11
:1004F000DFAADFDFDFF2AAC5CDC7A90CC92C97F1AF
:10050000A989264666B28999A92D557DB0B08AA8D9
:1005100096365676F1BAA3B4B280C0B8A89711B295
:100520008398BAA3F0240844106418B2B9B498832D
:10053000F1A329557DBAB5B1A38393F0002850F5F6
:10054000B2B6AA839328547CF1B9A3829361BAA26C
:10055000DADEDFDB819AB9AEF5606870F1DABAA253
:10056000DFD9BAA2FAB9A38292DB31BAA2D9BAA270
:10057000F8DF85A4D0C1BBAD83C2C5C7B8A2DFDF99
:10058000DFBAA0DFDFDFD8D8F1B8AAB38DB4980DF9
:10059000355DB2B6BAAF8C96198F9FA70E161EB4F2
:1005A0009AB8AA872C547CBAA4B08AB691325676EF
:1005B000B28494A4C808CDD8B8B4B0F19982A82D5B
:1005C000557D98A80E161EA22C547C92A4F02C5097
:1005D00078F184A898C4CDFCD80DDBA8FC2DF3D904
:1005E000BAA6F8DABAA6DED8BAB2B68696A6D0F31C
:1005F000C841DAA6C8F8D8B0B4B882A892F52C548D
:100600008898F135D9F418D8F1A2D0F8F9A884D98E
:10061000C7DFF8F883C5DADF69DF83C1D8F40114D6
:10062000F1A8824EA884F311D182F5D99228978837
:10063000F109F41C1CD884A8F3C0F9D1D99782F130
:1006400029F40DD8F3F9F9D1D982F4C203D8DEDF49
:100650001AD8F1A2FAF9A88498D9C7DFF8F8F88374
:10066000C7DADF69DFF883C3D8F40114F198A882F0
:100670002EA884F311D182F5D992509788F109F40C
:100680001CD884A8F3C0F8F9D1D99782F149F40DA8
:10069000D8F3F9F9D1D982F4C403D8DEDFD8F1ADAB
:1006A0008898CCA809F9D98292A8F57CF1883ACF2C
:1006B000944A6E98DB6931DAADF2DEF9D88795A8F5
:1006C000F221D1DAA5F9F417D9F1AE8ED0C0C3AEBC
:1006D00082C684C3A88595C8A588F2C0F1F4010E2E
:1006E000F18E9EA8C63E56F554F18872F40115F1BC
:1006F0009845856EF58E9E0488F142985A8E9E0626
:100700008869F4011CF1981E1108D0F504F11E97B8
:100710000202983625DBF9D985A5F3C1DA85A5F360
:10072000DFD88595A8F309DAA5FAD88292A8F578DA
:10073000F1881A849F26889821DAF41DF3D8879FC0
:1007400039D1AFD9DFDFFBF9F40CF3D8FAD0F8DAFE
:10075000F9F9D0DFD9F9D8F40BD8F3879F39D1AFA5
:10076000D9DFDFF41DF3D8FAFCA869F9F9AFD0DAC4
:10077000DEFAD9F88F9FA8F1CCF398DB45D9AFDF2B
:10078000D0F8D8F18F9FA8CAF38809DAAF8FCBF8D9
:10079000D8F2AD978D0CD9A5DFF9BAA6F3FAF41209
:1007A000F2D8950DD1D9BAA6F3FADAA5F2C1BAA654
:1007B000F3DFD8F1BAB2B68696A6D0CAF349DAA664
:1007C000CBF8D8B0B4B8D8AD84F2C0DFF18FCBC3CA
:1007D000A8B2B68696C8C1CBC3F3B0B48898A82196
:1007E000DB718D9D71859521D9ADF2FAD88597A8D9
:1007F00028D9F408D8F28D29DAF405D9F285A4C2F3
:10080000F2D8A88D9401D1D9F411F2D88721D8F467
:100810000AD8F28498A8C801D1D9F411D8F3A4C891
:10082000BBAFD0F2DEF8F8F8F8F8F8F8F8D8F1B87D
:10083000F6B5B9B08A95A3DE3CA3D9F8D85CA3D9A4
:10084000F8D87CA3D9F8D8F8F9D1A5D9DFDAFAD845
:10085000B18530F7D9DED8F830ADDADED8F2B48C15
:1008600099A32D557DA083DFDFDFB591A0F629D9AF
:10087000FBD8A0FC29D9FAD8A0D051D9F8D8FC517E
:10088000D9F9D879D9FBD8A0D0FC79D9FAD8A1F96F
:10089000F9F9F9F9A0DADFDFDFD8A1F8F8F8F8F80C
:1008A000ACDEF8ADDE8393AC2C547CF1A8DFDFDF47
:1008B000F69D2CDAA0DFD9FADB2DF8D8A850DAA003
:1008C000D0DED9D0F8F8F8DB55F8D8A878DAA0D07F
:1008D000DFD9D0FAF8F8F8F8DB7DF8D89CA88CF5C9
:1008E00030DB38D9D0DEDFA0D0DEDFD8A848DB5837
:1008F000D9DFD0DEA0DFD0DED8A868DB70D9DFDF9B
:10090000A0DFDFD8F1A888902C547C98A8D05C3860
:10091000D1DAF2AE8CDFF9D8B087A8C1C1B188A80E
:10092000C6F9F9DA36D8A8F9DA36D8A8F9DA36D815
:10093000A8F9DA36D8A8F9DA36D8F78D9DADF818C7
:10094000DAF2AEDFD8F7ADFA30D9A4DEF9D8F2AEDC
:10095000DEFAF983A7D9C3C5C7F1889BA77AADF79B
:10096000DEDFA4F8849408A797F300AEF29819A4E8
:1009700088C6A39488F632DFF28393DB09D9F2AA02
:10098000DFD8D8AEF8F9D1DAF3A4DEA7F1889B7AE4
:10099000D8F38494AE19F9DAAAF1DFD8A881C0C3DC
:1009A000C5C7A39283F628ADDED9F8D8A350ADD938
:1009B000F8D8A378ADD9F8D8F8F9D1A1DADEC3C553
:1009C000C7D8A18194F818F2B089ACC3C5C7F1D8D3
:1009D000B8B4B09786A8319B069907AB9728889B37
:1009E000F00C201440B0B4B8F0A88A9A285078B718
:1009F0009BA8295179247059446938644831F1BB66
:100A0000AB88002C547CF0B38BB8A804285078F144
:100A1000B088B49726A85998BBABB38B022646661C
:100A2000B0B8F08A9CA82951798B2951798A247011
:100A3000598B2058718A4469388B3940688A6448D8
:100A4000318B30496088F1AC002C547CF08CA804C8
:100A5000285078F1889726A85998AC8C02264666CB
:100A6000F0899CA829517924705944693864483127
:100A7000A98809205970AB11384069A8193148601C
:100A80008CA83C415C207C00F187981986A86E7682
:100A90007EA999882D557DD8B1B5B9A3DFDFDFAE2A
:100AA000D0DFAAD0DEF2ABF8F9D9B087C4AAF1DF63
:100AB000DFBBAFDFDFB9D8B1F1A3978E60DFB084C1
:100AC000F2C8F8F9D9DED89385F14AB183A308B505
:100AD000839A0810B79F10D8F1B0BAAEB08AC2B2EC
:100AE000B68E9EF1FBD9F41DD8F9D90CF1D8F8F8DF
:100AF000AD61D9AEFBD8F40CF1D8F8F8AD19D9AE88
:100B0000FBDFD8F416F1D8F8AD8D61D9F4F4ACF56B
:100B10009C9C8DDF2BBAB6AEFAF8F40BD8F1AED0B0
:100B2000F8AD51DAAEFAF8F1D8B9B1B6A3839C08A2
:100B3000B9B1839AB5AAC0FD3083B79F10B58B9326
:100B4000F20202D1ABDADED8F1B080BAABC0C3B2E8
:100B500084C1C3D8B1B9F38BA391B609B4D9ABDEC4
:100B6000B0879CB9A3DDF1B38B8B8B8B8BB087A344
:100B7000A3A3A3B28BB69BF2A3A3A3A3A3A3A3A3F4
:100B8000A3A3F1B087B59AA3F39BA3A3DCBAACDF10
:100B9000B9A3A3A3A3A3A3A3A3A3A3A3A3A3A3A30F
:100BA000A3D8D8D8BBB3B7F1AAF9DAFFD9809AAAEB
:100BB00028B48098A720B79787A86688F07951F164
:100BC000902C870CA781976293F0717160859401D6
:100BD00029517990A5F1284C6C870C95188578A33C
:100BE0008390284C6C886CD8F3A28200F210A892F3
:100BF0001980A2F2D926D8F188A84DD948D896A84C
:100C00003980D93CD89580A839A68698D92CDA871E
:100C1000A72CD8A8899519A980D938D8A88939A925
:100C200080DA3CD8A82EA83990D90CD8A89531984C
:100C3000D90CD8A809D9FFD801DAFFD89539A9DA93
:100C400026FFD890A80D8999A810809821DA2ED86F
:100C50008999A83180DA2ED8A886963180DA2ED8E4
:100C6000A8873180DA2ED8A88292F34180F1D92E5C
:100C7000D8A882F31980F1D92ED882ACF3C0A28013
:100C800022F1A62EA72EA92298A829DAACDEFFD839
:100C9000A2F22AF1A92E8292A8F23180A696F1D969
:100CA00000AC8C9C0C30ACDED0DEFFD88C9CACD081
:100CB00010ACDE8092A2F24C82A8F1CAF235F19615
:100CC00088A6D900D8F1FF00000000240027002AE0
:100CD0000000000000250028002B00000000002379
:100CE000002600290004040404040404040202028F
:100CF000020202030303030303010204081020405D
:100D000080010204081020010204081020000000E5
:100D100007000201000003040600000000000000BC
:100D20000000933811241FBECFEFD8E0DEBFCDBF47
:100D300011E0A0E0B1E0E0E4FAE702C005900D9216
:100D4000A235B107D9F716E0A2E5B1E001C01D92C6
:100D5000A532B107E1F71DE0C4E2DDE004C022974F
:100D6000FE010E941A3DC232D107C9F70E94E9383C
:100D70000C94BC060C940000F8940C941E3DFB01EE
:100D8000DC0104C08D910190801921F44150504044
:100D9000C8F7881B990B0895FC011092BC006623CC
:100DA00019F088B1806302C088B18F7C88B9109235
:100DB000B9009F01442737FD4095542F60E87EE33A
:100DC00080E090E00E94FD3C205130404040504087
:100DD000CA01B90122E030E040E050E00E94FD3C51
:100DE0002093B80084E08093BC000895482F440FFE
:100DF00092E064EB54E86093BC002AEF30E080910D
:100E0000BC0087FD34C0215030408FEF2F3F3807A2
:100E1000B1F727C08091B900887F883021F08031F8
:100E200011F082E008954093BB005093BC002AEF7C
:100E300030E08091BC0087FD1EC0215030408FEF14
:100E40002F3F3807B1F70FC08091B900887F8032FB
:100E500021F4992351F09150CECF883131F480E0C4
:100E6000089581E0089583E0089584E008951216BE
:100E7000130684F2F6CF1216130634F3F4CFEF9272
:100E8000FF920F931F93162FE42E022FF32E0E9432
:100E9000F6061093BB0084E88093BC002AEF30E094
:100EA0008091BC0087FD07C0215030408FEF2F3F5D
:100EB0003807B1F703C0121613063CF0802F9F2DA0
:100EC0009C01F90190E044E81CC08091B900F6CF84
:100ED00080818093BB004093BC002AEF30E080917A
:100EE000BC0087FD07C0215030408FEF2F3F3807EF
:100EF000B1F705C01216130614F48091B9009F5F74
:100F000031969E1528F384E98093BC002AEF30E0E7
:100F10008091BC0087FD06C02115310519F02150D4
:100F20003040F6CF81E01F910F91FF90EF90089530
:100F30001F93F82F122F72E0B4EBE82FEE7FA4E896
:100F4000B093BC002AEF30E08091BC0087FDD0C098
:100F5000215030408FEF2F3F3807B1F7B7C0809155
:100F6000B900887F883021F0803111F091E1BDC057
:100F7000E093BB00A093BC002AEF30E08091BC005E
:100F800087FDBBC0215030408FEF2F3F3807B1F7AE
:100F90009FC09091B900987F903229F4772309F48B
:100FA00099C07150CDCF983109F094C06093BB00C7
:100FB00084E88093BC002AEF30E08091BC0087FD7C
:100FC000A1C0215030408FEF2F3F3807B1F784C0C8
:100FD0008091B900887F883211F095E186C062E087
:100FE000A4EB7F2F7160E4E8A093BC002AEF30E00F
:100FF0008091BC0087FD8BC0215030408FEF2F3F88
:101000003807B1F76BC08091B900887F883021F034
:10101000803111F097E169C07093BB00E093BC0090
:101020002AEF30E08091BC0087FD76C0215030402F
:101030008FEF2F3F3807B1F758C08091B900887FF4
:10104000883429F4662309F44BC06150CDCF803435
:1010500009F046C0FA0160E0412F50E04150504095
:10106000A4EC74E822C0862F90E08417950719F449
:101070007093BC0002C0A093BC002AEF30E08091C6
:10108000BC0087FD4EC0215030408FEF2F3F380706
:10109000B1F728C09091B900987F903511F098353C
:1010A00021F58091BB0081936F5F6117E0F284E9C5
:1010B0008093BC002AEF30E08091BC0087FD14C013
:1010C0002115310589F021503040F6CF90E10DC057
:1010D00092E10BC093E109C094E107C096E105C01D
:1010E00099E103C09AE101C090E0892F1F91089512
:1010F000121613060CF433CFE9CF121613060CF4B4
:1011000048CFE6CF121613060CF462CFE5CF1216C5
:1011100013060CF478CFE2CF121613060CF48DCF21
:10112000E4CF121613060CF4B5CFDCCF7F928F926A
:101130009F92AF92BF92CF92DF92EF92FF920F9366
:101140001F93CF93DF93F82EE62E742E6901E801EA
:101150000E9449354B015C018F2D880F6E2DA60131
:10116000272D0E949807882311F01FEF01C0172D2B
:101170002097C1F00E944935681979098A099B09AD
:101180009E0140E050E0621773078407950750F016
:10119000212F332727FD3095872D90E02817390719
:1011A0000CF41FEF812FDF91CF911F910F91FF90D2
:1011B000EF90DF90CF90BF90AF909F908F907F90F7
:1011C00008959C018230910518F02FEF3FEF45C044
:1011D00080936C0290936D028AE290E0AC01249FB0
:1011E000C001259F900D349F900D11248E5A9E4F63
:1011F0009093650280936402C901880F991F820F42
:10120000931F880F991F880F991F8A559E4F90939F
:1012100067028093660287E290E0AC01249FC001E0
:10122000259F900D349F900D112482549E4F9093D2
:101230006902809368028CE290E0AC01249FC001B7
:10124000259F900D349F900D1124845F9D4F9093A6
:101250006B0280936A0220E030E0C90108950F9389
:101260001F93CF93DF93C0916402D091650285E70D
:10127000888389E189838AE18A838CE08B838AE68B
:101280008C8383E28D838BE18E838CE18F838FE16E
:101290008A8780E28B8782E78C8784E78D8783E467
:1012A0008E878BE38F8781E4888B88E3898B89E342
:1012B0008A8B8AE38B8B8BE68D8B8CE68E8B87E318
:1012C0008F8B8FE6888F86E0898F84E28A8F8DE608
:1012D0008B8F8EE68C8F80E78D8F89E488A781E0E5
:1012E00089A785E28E8F86E28F8F87E288A388E2C6
:1012F00089A389E28AA38AE28BA384E38CA383E691
:101300008DA384E68EA387E68FA380916C029091D3
:101310006D02009719F0019769F406C0E09166022A
:10132000F091670288E605C0E0916602F0916702DD
:1013300089E68083009166021091670280E094E064
:10134000F8019283818386E7838384E591E0958326
:10135000848387EF9DEF9783868380E091E0918778
:10136000808786E696E29387828720916802309193
:10137000690283E890E0A0E0B0E0F9018083918306
:10138000A283B38380E098E0A0E0B0E084839583FB
:10139000A683B783108681E08187128688E18387E0
:1013A00082E390E09587848785E0868780E090E0FF
:1013B000A0E2B1E48787908BA18BB28B80E090E0B4
:1013C000A2EDB2E4838B948BA58BB68B49E25CE5EE
:1013D0006FE07EE3478B508F618F728F8AE999E9C6
:1013E000A9E9BEE3838F948FA58FB68F83E393E340
:1013F000A3E7BFE3878F90A3A1A3B2A343A354A302
:1014000065A376A3E0916A02F0916B02D183C08359
:101410001383028333A722A7DF91CF911F910F91EE
:101420000895DC01E0916A02F0916B0286818823C5
:1014300019F081E08C9301C01C9280E090E0089547
:10144000DF93CF930F92CDB7DEB7982FA0916A02AA
:10145000B0916B025D968C915D97882321F0992362
:1014600089F082E00DC016968C9116978823E9F0DA
:10147000992341F01C968C911C978823F9F481E004
:10148000898301C019821296ED91FC9113970D90FA
:10149000BC91A02D808151966C9141E09E012F5FFF
:1014A0003F4F0E943F07882319F42FEF3FEF08C0FA
:1014B000E0916A02F0916B028981848720E030E03C
:1014C000C9010F90CF91DF910895CF92DF92EF92F3
:1014D000FF920F931F93DF93CF9300D0CDB7DEB76A
:1014E000D82EC92E8B017A014115510519F42FEF21
:1014F0003FEF41C0E0916A02F0916B028681882340
:1015000019F42EEF3FEF37C0A281B3819B012D0D5F
:10151000311D18968D919C9119978217930718F495
:101520002DEF3FEF28C0C982DA820190F081E02DD3
:101530008C91638D42E09E012F5F3F4F0E943F07D9
:10154000882319F42CEF3FEF16C0E0916A02F09166
:101550006B02A281B3810190F081E02D8C91608DAE
:10156000402F97010E943F07882319F020E030E0C8
:1015700002C02BEF3FEFC9010F900F90CF91DF9189
:101580001F910F91FF90EF90DF90CF9008951F93E0
:10159000DF93CF930F92CDB7DEB7182FA0916A02D9
:1015A000B0916B025C968C915C97811781F111234D
:1015B00019F080E3898301C019821D968C911D97D3
:1015C000882319F08981826089835B968C915B976F
:1015D000882319F08981806889831296ED91FC91A6
:1015E00013970D90BC91A02D808157966C9141E08E
:1015F0009E012F5F3F4F0E943F07882319F42FEF72
:101600003FEF07C0E0916A02F0916B02148F20E077
:1016100030E0C9010F90CF91DF911F910895DF93C2
:10162000CF930F92CDB7DEB7BC010097A9F12091FF
:101630006A0230916B02D90119968D919C911A978B
:101640008617970748F16536710530F50E94B43C5E
:1016500061506983F90182819381A081B181FC018C
:10166000808194966C9141E09E012F5F3F4F0E94D4
:101670003F07882389F0E0916A02F0916B0269814B
:1016800070E06F5F7F4F818592850E94B43C72A3AA
:1016900061A320E030E002C02FEF3FEFC9010F90BF
:1016A000CF91DF910895DF93CF930F92CDB7DEB73F
:1016B0009C01A0916A02B0916B0216968C911697CC
:1016C000882399F12C3B310510F081E015C02236BA
:1016D000310510F082E010C02A32310510F083E0AD
:1016E0000BC02431310510F084E006C02A303105EA
:1016F00010F085E001C086E0898317969C911797CA
:1017000089819817D9F01296ED91FC9113970D905D
:10171000BC91A02D808112966C9141E09E012F5FBB
:101720003F4F0E943F07882319F42FEF3FEF08C077
:10173000E0916A02F0916B028981878320E030E0BA
:10174000C9010F90CF91DF910895DF93CF930F924E
:10175000CDB7DEB7982FA0916A02B0916B021696B2
:101760008C9116978823A1F1943061F0953018F48C
:10177000923071F505C0983039F0903149F506C0C6
:10178000198206C088E003C080E101C088E1898336
:1017900015962C91159730E0898190E0E3E09595BE
:1017A0008795EA95E1F72817390709F11296ED9127
:1017B000FC9113970D90BC91A02D808117966C9190
:1017C00041E09E012F5F3F4F0E943F07882319F49D
:1017D0002FEF3FEF0EC0E0916A02F0916B0289811A
:1017E00090E073E0959587957A95E1F7858320E001
:1017F00030E0C9010F90CF91DF910895DF93CF932F
:101800000F92CDB7DEB79C01A0916A02B0916B0236
:1018100016968C9116978823E1F181E0243F3807D2
:1018200091F081E0253F380720F42A3F310589F502
:1018300008C083E0283E380741F0205D374049F575
:1018400006C0198206C088E003C080E101C088E1BB
:10185000898314962C91149730E0898190E043E0BD
:10186000959587954A95E1F72817390709F112965A
:10187000ED91FC9113970D90BC91A02D808116964F
:101880006C9141E09E012F5F3F4F0E943F078823EC
:1018900019F42FEF3FEF0EC0E0916A02F0916B0256
:1018A000898190E0A3E095958795AA95E1F78483D7
:1018B00020E030E0C9010F90CF91DF9108950F93A0
:1018C0001F93DF93CF930F92CDB7DEB7A0916A023B
:1018D000B0916B0216968C911697882309F41BC160
:1018E00019821296ED91FC9113970D90BC91A02D49
:1018F000808151966C9141E08E010F5F1F4F9801DE
:101900000E943F07882309F406C1E0916A02F09122
:101910006B02A281B3810190F081E02D8C916581F1
:1019200041E098010E943F07882309F4F4C0E09148
:101930006A02F0916B02A281B3810190F081E02DE7
:101940008C91648141E098010E943F07882309F44B
:10195000E2C0A0916A02B0916B025D968C915D9796
:10196000882309F469C08CE089831296ED91FC917B
:1019700013970D90BC91A02D808114966C9141E03D
:1019800098010E943F07882309F4C5C062E370E014
:1019900080E090E00E94573580EC8983A0916A0234
:1019A000B0916B0216968C91169780FF02C080EE64
:1019B00089831296ED91FC9113970D90BC91A02D07
:1019C000808114966C9141E09E012F5F3F4F0E94F1
:1019D0003F07882309F49FC0A0916A02B0916B026F
:1019E0001C968C911C97882319F082E0898301C092
:1019F00019821296ED91FC9113970D90BC91A02D38
:101A0000808151966C9141E08E010F5F1F4F9801CC
:101A10000E943F07882309F47EC01982E0916A0280
:101A2000F0916B02A281B3810190F081E02D8C9145
:101A3000658141E098016BC084E089831296ED9145
:101A4000FC9113970D90BC91A02D808114966C9100
:101A500041E098010E943F07882309F45CC0A091EF
:101A60006A02B0916B021D968C911D97882329F410
:101A700016968C91169780FD02C080E401C080E626
:101A800089831296ED91FC9113970D90BC91A02D36
:101A9000808114966C9141E09E012F5F3F4F0E9420
:101AA0003F078823C1F162E370E080E090E00E948C
:101AB0005735A0916A02B0916B021C968C911C97CD
:101AC000882319F081E0898301C019821296ED9173
:101AD000FC9113970D90BC91A02D808151966C9133
:101AE00041E09E012F5F3F4F0E943F07882399F0FE
:101AF000E0916A02F0916B02A281B3812081318171
:101B00003B968C91D90115966C9141E09F010E9402
:101B10003F07882319F42FEF3FEF02C020E030E0A9
:101B2000C9010F90CF91DF911F910F9108950F93ED
:101B30001F93CF93DF93982FE0916A02F0916B028D
:101B4000858D882319F0C0E0D0E029C086818823E4
:101B500021F1192F1E7F038581238387811719F4B3
:101B6000C0E0D0E002C0CFEFDFEF112319F487858A
:101B7000882331F081E00E94200A112381F004C003
:101B800080E00E94200A0BC00E945F0C892B39F074
:101B9000E0916A02F0916B020387CFEFDFEFCE0195
:101BA000DF91CF911F910F9108951F93DF93CF93F2
:101BB00000D0CDB7DEB7182F893208F058C088237F
:101BC000F9F480E00E94C70A198287E08A83E091D5
:101BD0006A02F0916B02A281B3810190F081E02D45
:101BE0008C91658942E09E012F5F3F4F0E943F0725
:101BF0008823E9F1E0916A02F0916B02178646C0F2
:101C000081E00E94C70A80E28983113011F41A82B0
:101C100004C0163028F481E08A8385E090E00BC090
:101C2000153128F482E08A838AE090E004C083E0E2
:101C30008A8384E190E00E94530B8A818295880F09
:101C4000880F807C87608A83E0916A02F0916B0242
:101C5000A281B3810190F081E02D8C91658942E0F1
:101C60009E012F5F3F4F0E943F07882319F42FEFFB
:101C70003FEF0EC0E0916A02F0916B0288E086832C
:101C8000108681E0878780E00E94970D20E030E099
:101C9000C9010F900F90CF91DF911F9108950F937D
:101CA0001F93DF93CF930F92CDB7DEB78C01E091F6
:101CB0006A02F0916B0286818823B9F1858D8823B1
:101CC000A1F58785882359F0C8010197889720F4EA
:101CD000802F0E94D50D4DC080E00E94D50D0430AC
:101CE000110518F464E070E007C0B80183E0093E14
:101CF000180710F068EE73E088EE93E00E94B43CA1
:101D000061506983E0916A02F0916B02A281B38114
:101D10000190F081E02D8C91618141E09E012F5F67
:101D20003F4F0E943F07882319F42FEF3FEF23C056
:101D3000E0916A02F0916B02698170E06F5F7F4F02
:101D400088EE93E00E94C83C7287618781A192A1CE
:101D50008536910510F084E690E00E940F0BE0912B
:101D60006A02F0916B0281859285969587950E9413
:101D7000530B20E030E0C9010F90CF91DF911F910C
:101D80000F910895CF92DF92EF92FF920F931F93DE
:101D9000DF93CF9300D0CDB7DEB7182F092F7B018B
:101DA0006A0141155105D1F1E0916A02F0916B028F
:101DB0008681882399F1A281B3819B01210F311D76
:101DC00018968D919C9119978217930738F1098382
:101DD0001A830190F081E02D8C91638D42E09E0189
:101DE0002F5F3F4F0E943F078823C1F0E0916A02B6
:101DF000F0916B02A281B3810190F081E02D0091FE
:101E00000001109101018C91608D4E2D96010E9470
:101E10009608882319F020E030E002C02FEF3FEF52
:101E2000C9010F900F90CF91DF911F910F91FF90FB
:101E3000EF90DF90CF900895DF92EF92FF920F9393
:101E40001F93DF93CF930F92CDB7DEB7D82EE091DB
:101E50006A02F0916B0285858D1509F49EC0A281FE
:101E6000B3810190F081E02D0091000110910101FA
:101E70007E010894E11CF11CDD2089F18C916481C4
:101E800041E097010E949608882309F47EC0898169
:101E90008F7D8983E0916A02F0916B02A281B38108
:101EA0000190F081E02D8C91648141E097010E94C6
:101EB0003F07882309F469C063E070E080E090E0A8
:101EC0000E94573582E08983A0916A02B0916B022B
:101ED0005B968C915B978823F1F182E839C08C91F5
:101EE000648141E097010E949608882309F44DC05F
:101EF000A0916A02B0916B0216968C911697998107
:101F000080FF02C0906201C09F7D99831296ED917F
:101F1000FC9113970D90BC91A02D808114966C912B
:101F200041E09E012F5F3F4F0E943F07882369F1E8
:101F300063E070E080E090E00E945735A0916A0273
:101F4000B0916B025B968C915B97882319F080E8C7
:101F5000898301C019825C968C915C97882319F063
:101F60008981806389831296ED91FC9113970D907E
:101F7000BC91A02D808157966C9141E09E012F5F0E
:101F80003F4F0E943F07882319F42FEF3FEF07C010
:101F9000E0916A02F0916B02D58620E030E0C90141
:101FA0000F90CF91DF911F910F91FF90EF90DF90F5
:101FB0000895DF93CF930F92CDB7DEB7982FE091BE
:101FC0006A02F0916B02858D891709F44AC0992342
:101FD00069F1868D882319F42FEF3FEF44C080E02C
:101FE0000E94200A80E00E941C0FE0916A02F0919A
:101FF0006B02878D90A10E944F0E1982E0916A02B8
:10200000F0916B020280F381E02D808163E241E078
:102010009E012F5F3F4F0E943F07E0916A02F091BF
:102020006B0281E0858F0E94200A19C080E00E9427
:10203000200AE0916A02F0916B0283858983028015
:10204000F381E02D808163E241E09E012F5F3F4FED
:102050000E943F07E0916A02F0916B02158E0E9488
:102060005F0C20E030E0C9010F90CF91DF9108951F
:102070006F927F928F929F92AF92BF92CF92DF9298
:10208000EF92FF920F931F93DF93CF9300D0CDB7C2
:10209000DEB76C013B014A01A0916A02B0916B026C
:1020A0005D968C915D97882319F42FEF3FEF7CC0EC
:1020B00016968C911697882319F42EEF3FEF74C073
:1020C0001296ED91FC9113970D90BC91A02D00916B
:1020D00000011091010180811C966C9142E05E012B
:1020E0000894A11CB11C95010E949608882319F43C
:1020F0002DEF3FEF59C0998180E02A81E22EFF2425
:10210000E82AF92AEC14FD0428F4F401108221E0F5
:1021100030E04AC0E0916A02F0916B02A281B38183
:1021200011968D919C911297969587958E159F0586
:10213000D0F40190F081E02D009100011091010197
:102140008C91638941E095010E949608882319F4D7
:102150002BEF3FEF29C0898184FF05C00E945F0CEF
:1021600022E030E021C0E0916A02F0916B02A2818E
:10217000B3810190F081E02D0091000110910101E7
:102180008C9165854C2D93010E949608882319F443
:1021900029EF3FEF09C0C701B6010E94B43C61506E
:1021A000F401608320E030E0C9010F900F90CF91DF
:1021B000DF911F910F91FF90EF90DF90CF90BF9034
:1021C000AF909F908F907F906F900895DF92EF92E5
:1021D000FF920F931F93DF93CF9300D0CDB7DEB75D
:1021E000D82EE82EFF24C70180779070892B11F03C
:1021F00081E005C0DD2011F0198202C080E48983EE
:10220000E0916A02F0916B02A281B3810190F081AA
:10221000E02D8C91658941E09E012F5F3F4F0E9428
:102220003F07A0916A02B0916B02882319F41696B9
:102230001C9230C089818F7B18968C9318971982D5
:10224000E6FC02C084E08983E5FC03C089818260EA
:102250008983E4FC03C0898181608983E3FC03C036
:102260008981886389831296ED91FC9113970D9073
:10227000BC91A02D808156966C9141E09E012F5F0C
:102280003F4F0E943F07882341F4E0916A02F0919A
:102290006B0216822FEF3FEF6CC0DD2031F088E03B
:1022A000D81619F080E00E94C70AE0916A02F09106
:1022B0006B02A281B3810190F081E02D00910001B9
:1022C000109101018C91648141E09E012E5F3F4F8E
:1022D0000E9496088823F1F29A81E0FE04C081E012
:1022E0008983906202C019829F7D9A83A0916A02BD
:1022F000B0916B025D968C915D979A81882311F065
:10230000906801C09F779A831296ED91FC91139784
:102310000D90BC91A02D808196966C9141E09E011C
:102320002F5F3F4F0E943F07882309F4B3CFE0910E
:102330006A02F0916B02A281B3810190F081E02DDD
:102340008C91648141E09E012E5F3F4F0E943F07C8
:10235000882309F49FCFE0916A02F0916B02D68244
:10236000178662E370E080E090E00E94573520E03D
:1023700030E0C9010F900F90CF91DF911F910F9125
:10238000FF90EF90DF900895CF92DF92EF92FF924F
:102390000F931F93DF93CF93CDB7DEB729970FB677
:1023A000F894DEBF0FBECDBF7C016B01A0916A0225
:1023B000B0916B0216968C91169780FD03C02FEF9B
:1023C0003FEF96C01296ED91FC9113970D90BC9142
:1023D000A02D0091000110910101808198966C91CF
:1023E00048E09E012F5F3F4F0E949608882319F412
:1023F0002CEF3FEF7DC0898180FD03C021E030E0FC
:1024000077C0888587FD72C086FD70C03B8120E063
:102410006A8170E0622B732BF701718360833D81C9
:1024200020E04C8150E0242B352B338322833F81E5
:1024300020E04E8150E0242B352B358324830091FE
:102440006A0210916B02882777FD8095982FF8011A
:1024500024A135A1442737FD4095542F0E94893C83
:10246000672F782F892F992787FD9A95F701718318
:10247000608362817381882777FD8095982FF801AA
:1024800026A137A1442737FD4095542F0E94893C4F
:10249000672F782F892F992787FD9A95F7017383E6
:1024A000628364817581882777FD8095982FF80174
:1024B00020A531A5442737FD4095542F0E94893C23
:1024C000672F782F892F992787FD9A95F7017583B4
:1024D0006483C114D10439F00E944935F601608348
:1024E00071838283938320E030E002C02AEF3FEFC4
:1024F000C90129960FB6F894DEBF0FBECDBFCF91AC
:10250000DF911F910F91FF90EF90DF90CF90089592
:102510002F923F924F925F926F927F928F929F92F3
:10252000AF92BF92CF92DF92EF92FF920F931F93E1
:10253000DF93CF93CDB7DEB764970FB6F894DEBFC5
:102540000FBECDBF3C014B014B8B5C8B1901E09161
:102550006A02F0916B02868D882319F02FEF3FEF0E
:1025600075C06115710519F42EEF3FEF6FC080E162
:1025700090E00E942A36B92EC82ED92EA82EEE241D
:10258000FF2463E0462E512C4C0E5D1E38C08301A3
:102590000E191F090131110510F000E110E094013E
:1025A0002E0D3F1DD601A601400F511F05C0F90198
:1025B00084918D932F5F3F4FA417B507C1F7C701D3
:1025C000B801A5010E94650A892B19F02DEF3FEF94
:1025D0003DC0C701B801A2010E94C20E892B19F0AB
:1025E0002CEF3FEF33C0C501B201A8010E94BF0626
:1025F000009719F02BEF3FEF29C0E00EF11EE61413
:10260000F70428F2FC89F9838B898A83E0916A02B6
:10261000F0916B02A281B3810190F081E02D8C9149
:10262000658D42E09E012F5F3F4F0E943F07882348
:1026300019F42AEF3FEF0AC0E0916A02F0916B02B1
:1026400081E0868F30A2278E20E030E0C9016496B9
:102650000FB6F894DEBF0FBECDBFCF91DF911F91B3
:102660000F91FF90EF90DF90CF90BF90AF909F9031
:102670008F907F906F905F904F903F902F90089534
:10268000EF92FF920F931F93DF93CF93CDB7DEB7F7
:102690002B970FB6F894DEBF0FBECDBF80E88D83B9
:1026A000E0916A02F0916B02A281B3810190F08106
:1026B000E02D15E0E12EF12CEC0EFD1E8C916589CC
:1026C00041E097010E943F07882319F42FEF3FEF65
:1026D00026C264E670E080E090E00E9457351D82DB
:1026E000E0916A02F0916B02A281B3810190F081C6
:1026F000E02D8C91658941E097010E943F07882376
:1027000019F42EEF3FEF0BC2E0916A02F0916B02D9
:10271000A281B3810190F081E02D00910001109120
:1027200001018C91618D46E097010E9496088823F3
:1027300019F42DEF3FEFF3C18A8590E0817090701E
:10274000880F991F880F991F288530E021703070FD
:10275000220F331F982F922B8E818170982B91F02E
:10276000913031F4E0916A02F0916B02968732C0A9
:10277000923019F02CEF3FEFD2C1E0916A02F09154
:102780006B0227C0E0916A02F0916B02A281B381D3
:102790000190F081E02D00910001109101018C91D8
:1027A000638141E097010E949608882319F42BEF7A
:1027B0003FEFB5C18D818F7019F42AEF3FEFAFC1A4
:1027C000E0916A02F0916B02843019F481E086870F
:1027D00001C01686E0916A02F0916B028FEF86834A
:1027E0008483858387832FEF3FEF32872187838719
:1027F000858732A321A381E08087838F148E108A7E
:10280000178671968AE011928A95E9F7E0916A023B
:10281000F0916B02158E168E10A2178E80ED97E048
:102820000E94FE0B892B19F026EF3FEF78C182E062
:102830000E94A50B892B19F025EF3FEF70C18AE2AA
:1028400090E00E94530B892B19F024EF3FEF67C1F2
:1028500082E390E00E944F0E892B19F023EF3FEFA7
:102860005EC180E00E94970D892B19F022EF3FEFA7
:1028700056C181E00E941C0F9CE07E010894E11C7F
:10288000F11C0091000110910101892F60E041E0ED
:1028900097019B870E9496089B85882399F08981E0
:1028A000883481F4E0916A02F0916B0293A319825B
:1028B00083A16AE041E097010E943F07882309F461
:1028C00020C104C09F5F9031E1F61BC161E070E060
:1028D00080E090E00E9457358FE08983E0916A02A2
:1028E000F0916B0283A16AE041E097010E943F07EB
:1028F000882309F406C161E070E080E090E00E9466
:102900005735E0916A02F0916B020091000110913D
:10291000010183A160E143E097010E9496088823AA
:1029200009F4EFC0E0916A02F0916B02898190E0B6
:1029300080589F4F95A384A38A8190E080589F4F31
:1029400097A386A38B8190E080589F4F91A780A783
:10295000198283A16AE041E097010E943F07882322
:1029600009F4CFC061E070E080E090E00E9457354C
:1029700080E00E941C0F80E48983E0916A02F0915C
:102980006B02A281B3810190F081E02D8C91628D68
:1029900041E097010E943F07882309F4B2C0E0910B
:1029A0006A02F0916B0283A180688983A281B3815E
:1029B0000190F081E02D8C91668D41E097010E949D
:1029C0003F07882309F49DC082E08983E0916A0271
:1029D000F0916B02A281B3810190F081E02D8C9186
:1029E000678D41E097010E943F07882309F489C061
:1029F00088E88983E0916A02F0916B02A281B38139
:102A00000190F081E02D8C9160A141E097010E943E
:102A10003F07882309F475C0E0916A02F0916B02C8
:102A200083A18983A281B3810190F081E02D8C91F3
:102A300061A141E08E010F5F1F4F98010E943F0787
:102A4000882309F45EC08AE08983E0916A02F091EC
:102A50006B02A281B3810190F081E02D8C9162A183
:102A600041E098010E943F07882309F44AC081E8A9
:102A70008983E0916A02F0916B02A281B381019097
:102A8000F081E02D8C9163A141E098010E943F0705
:102A90008823B9F181E08983E0916A02F0916B02A9
:102AA000A281B3810190F081E02D8C9166A141E07B
:102AB00098010E943F07882321F183E08983E091F8
:102AC0006A02F0916B02A281B3810190F081E02D46
:102AD0008C9167A141E098010E943F07882389F00B
:102AE00080E88983E0916A02F0916B02A281B38150
:102AF0000190F081E02D8C9161A541E098010E9448
:102B00003F078AE090E00E940F0B892B19F021EF1C
:102B10003FEF05C080E00E94E61020E030E0C901F0
:102B20002B960FB6F894DEBF0FBECDBFCF91DF91CD
:102B30001F910F91FF90EF9008959C0182309105B5
:102B400018F02FEF3FEF16C0809386029093870214
:102B50008BE090E0AC01249FC001259F900D349F35
:102B6000900D112482599D4F909385028093840289
:102B700020E030E0C9010895E0918402F0918502DF
:102B80001182108213821282158214821782168299
:102B900011861086128608952F923F924F925F926F
:102BA0006F927F928F929F92AF92BF92CF92DF925D
:102BB000EF92FF920F931F93DF93CF93CDB7DEB7C2
:102BC000AC970FB6F894DEBF0FBECDBF9EA38DA30A
:102BD00078A76FA32A013AA729A71CA70BA7A701CB
:102BE000D8011D921C92E0918402F09185028285A9
:102BF00090E0BE016F5F7F4F0E9438109CA38BA3B3
:102C0000892B09F0B2C1E0918402F0918502FAA308
:102C1000E9A38681978184719070892B11F440E03B
:102C200017C1A980BB24CC24DD24DA2CCC24BB24FE
:102C3000AA248A8190E0A0E0B0E0DC0199278827EF
:102C4000A82AB92ACA2ADB2A8C8190E0A0E0B0E049
:102C5000A82AB92ACA2ADB2A8B8190E0A0E0B0E03A
:102C6000BA2FA92F982F8827A82AB92ACA2ADB2A7F
:102C7000D201AD92BD92CD92DC9213972D8130E0BE
:102C800040E050E0522F4427332722278E8190E0E6
:102C9000A0E0B0E0DC0199278827282B392B4A2BAC
:102CA0005B2B888590E0A0E0B0E0282B392B4A2BE5
:102CB0005B2B8F8190E0A0E0B0E0BA2FA92F982F76
:102CC0008827282B392B4A2B5B2BF2012483358351
:102CD00046835783298530E040E050E0522F442757
:102CE000332722278A8590E0A0E0B0E0DC01992715
:102CF0008827282B392B4A2B5B2B8C8590E0A0E072
:102D0000B0E0282B392B4A2B5B2B8B8590E0A0E081
:102D1000B0E0BA2FA92F982F8827282B392B4A2BC0
:102D20005B2BD20118962D933D934D935C931B978B
:102D30002D8530E040E050E0522F442733272227F2
:102D40008E8590E0A0E0B0E0DC0199278827282B51
:102D5000392B4A2B5B2B888990E0A0E0B0E0282B30
:102D6000392B4A2B5B2B8F8590E0A0E0B0E0BA2F87
:102D7000A92F982F8827282B392B4A2B5B2B2487A8
:102D80003587468757875601DD24B7FCD094CD2C74
:102D900064807580868097803401992477FC9094B4
:102DA000892C20843184428453841201552437FCB9
:102DB0005094452C9A01552737FD5095452FCA014F
:102DC000B9010E94893C7B018C01C601B501A601B5
:102DD00095010E94893CE60EF71E081F191FC401C9
:102DE000B301A40193010E94893CE60EF71E081F5F
:102DF000191FC201B101A20191010E94893CE60E96
:102E0000F71E081F191F80E090E0A0E0B1EFE80E68
:102E1000F91E0A1F1B1F91E0E91690E0F90690E0E9
:102E2000090792E0190758F00E945F0CABA5BCA5FA
:102E30001D921C92E3E0F0E0FCA3EBA396C0ABA5CF
:102E4000BCA58D919C91119791608D939C9340E1CD
:102E5000E9A1FAA1868186FF39C0A42FB0E0FE0166
:102E6000EA0FFB1F228130E0FE01EA0FFB1F918178
:102E700080E0282B392BEFA1F8A531832083FE01B8
:102E8000EA0FFB1F338120E0FE01EA0FFB1F848164
:102E900090E0282B392BEFA1F8A533832283FE0184
:102EA000EA0FFB1F358120E0868190E0282B392B2B
:102EB000AFA1B8A515963C932E9314974A5FEBA546
:102EC000FCA580819181886091838083A9A1BAA1AA
:102ED00016968D919C91179780789170892BC1F1EE
:102EE000A42FB0E0FE01EA0FFB1F228130E0FE01BB
:102EF000EA0FFB1F918180E0282B392BEDA1FEA169
:102F000031832083FE01EA0FFB1F338120E0FE01A5
:102F1000EA0FFB1F848190E0282B392BEDA1FEA145
:102F200033832283FE01EA0FFB1F358120E0868177
:102F300090E0282B392BADA1BEA115963C932E9382
:102F40001497EBA5FCA58081918180679183808394
:102F500089A59AA5892B49F00E944935A9A5BAA54A
:102F60006D937D938D939C9313978BA19CA1AC96AD
:102F70000FB6F894DEBF0FBECDBFCF91DF911F918A
:102F80000F91FF90EF90DF90CF90BF90AF909F9008
:102F90008F907F906F905F904F903F902F9008950B
:102FA000DF93CF93CDB7DEB729970FB6F894DEBF86
:102FB0000FBECDBF9E012F5F3F4F882349F0D9013F
:102FC000E0E2F1E089E001900D928150E1F708C064
:102FD000D901E7E1F1E089E001900D928150E1F73C
:102FE00088EB94E069E070E0AE014F5F5F4F0E94B4
:102FF000650A29960FB6F894DEBF0FBECDBFCF91FC
:10300000DF9108950F931F93DF93CF93CDB7DEB772
:1030100028970FB6F894DEBF0FBECDBF8C01893C58
:103020009105F0F488EC90E0B8010E94B43C615046
:10303000704079836A8386E192E062E070E0AE01DD
:103040004F5F5F4F0E94650A892B51F481EC9AE033
:103050006CE070E049E251E00E94650A892B19F0AA
:103060002FEF3FEF08C0E0918402F09185021187B5
:10307000008720E030E0C90128960FB6F894DEBF43
:103080000FBECDBFCF91DF911F910F910895EF92A9
:10309000FF920F931F93DF93CF9300D000D000D007
:1030A000CDB7DEB78C01AC0143705070FA01E25C21
:1030B000FE4F80818983C801E3E096958795EA9564
:1030C000E1F783709070FC01E25CFE4F20812A835F
:1030D000D80176E0B695A7957A95E1F7A370B07020
:1030E000FD01E25CFE4F20812B83455C5E4FFA01BF
:1030F00020812C83855C9E4FFC0180818D83A55CA3
:10310000BE4F8C918E8386E294E063E070E07E0196
:103110000894E11CF11CA7010E94650A892B09F0A3
:103120004BC08AE294E063E070E0AE014C5F5F4F19
:103130000E94650A892B09F03FC0D701E8E3F1E05E
:1031400083E001900D928150E1F7DE011496E5E3F2
:10315000F1E083E001900D928150E1F702FF06C09B
:103160008981816089838C8181608C8305FF06C0A1
:103170008A8181608A838D8181608D8310FF06C082
:103180008B8181608B838E8181608E8380E494E06B
:1031900063E070E0AE014F5F5F4F0E94650A892BCC
:1031A00059F481E394E063E070E0AE014C5F5F4F5F
:1031B0000E94650A892B19F02FEF3FEF08C0E091BC
:1031C0008402F09185021583048320E030E0C90178
:1031D00026960FB6F894DEBF0FBECDBFCF91DF911C
:1031E0001F910F91FF90EF900895DF93CF9300D040
:1031F00000D0CDB7DEB7882349F080E2898388E22A
:103200008A8380E38B8388E38C8308C083EA93EA14
:10321000A3EAB3EA89839A83AB83BC838EE99AE0FD
:1032200064E070E0AE014F5F5F4F0E94650A0E944C
:103230005F0C0F900F900F900F90CF91DF9108953A
:10324000DF93CF9300D000D0CDB7DEB7882349F00D
:1032500080EC898382EC8A8384EC8B8386EC8C837C
:1032600008C08BE89BE8ABE8BBE889839A83AB8313
:10327000BC8388E99AE064E070E0AE014F5F5F4F85
:103280000E94650A0E945F0C0F900F900F900F90A4
:10329000CF91DF910895AF92BF92CF92DF92EF92DC
:1032A000FF920F931F93DF93CF93CDB7DEB72A978B
:1032B0000FB6F894DEBF0FBECDBF8C0182E08983CC
:1032C0008AEC8A8383EE8B8389E08C8388E690E0A6
:1032D00064E070E0AE014F5F5F4F0E94650A83EAD1
:1032E0008983B0E4AB2EB12CA022B12206FF06C028
:1032F00080EC8A8388EC8B8382EC02C08A838B8388
:103300008C83A0E8EA2EA1E0FA2EE022F122E1145B
:10331000F10431F084EC8D838CEC8E8386EC03C059
:1033200083EA8D838E838F8383EA888789878A8760
:1033300087EA9AE06AE070E0AE014F5F5F4F0E945B
:10334000650AF3E0CF2ED12CC022D122C114D104C2
:1033500011F080E201C088ED898386EB9AE061E09C
:1033600070E0AE014F5F5F4F0E94650A05FF02C02B
:1033700081E001C080E00E94D017E114F104D9F08F
:1033800010FF08C082EB89838BE88A8386EB8B83EE
:103390008BE907C080EB898380E88A8384EB8B8389
:1033A00080E98C8382EA9AE064E070E0AE014F5FCE
:1033B0005F4F0E94650A02FF02C081E001C080E009
:1033C0000E94201904FF02C081E001C080E00E9439
:1033D000F518E0918402F0918502C8018860978316
:1033E00086830E945F0CE0918402F0918502128630
:1033F000AB2811F086E08287EF2819F082858A5F7A
:10340000828704711070012B19F08285805F82879A
:10341000CD2819F082858C5F828780E090E02A9623
:103420000FB6F894DEBF0FBECDBFCF91DF911F91D5
:103430000F91FF90EF90DF90CF90BF90AF900895E5
:1034400086EF9BE061ED70E040E054E028EC30E076
:103450000E94881208952F923F924F925F926F922E
:103460007F928F929F92AF92BF92CF92DF92EF9214
:10347000FF920F931F93DF93CF93CDB7DEB764977F
:103480000FB6F894DEBF0FBECDBF1092CD021092E2
:10349000CC028EEC92E064ED72E04CEB52E020E066
:1034A00030E00CEC12E0FAEDEF2EF2E0FF2E0E947D
:1034B000CC159093DC028093DB02009709F0DAC20E
:1034C0008091DA028230E8F08EEC92E064ED72E0F6
:1034D0004CEB52E020E030E00CEC12E0EAEDEE2E96
:1034E000E2E0FE2E0E94CC159C019093DC028093BA
:1034F000DB028091DA02823008F4BBC2232B21F375
:10350000B8C26091BC027091BD028091BE029091E0
:10351000BF020E94B23A20E030E040E850E30E944F
:10352000BE3B1B012C016093BC027093BD028093D3
:10353000BE029093BF026091C0027091C10280915F
:10354000C2029091C3020E94B23A20E030E040E80B
:1035500050E30E94BE3B69837A838B839C83609394
:10356000C0027093C1028093C2029093C302609123
:10357000C4027091C5028091C6029091C7020E9458
:10358000B23A20E030E040E850E30E94BE3B5B01ED
:103590006C016093C4027093C5028093C60290933D
:1035A000C7026091C8027091C9028091CA029091CD
:1035B000CB020E94B23A20E030E040E850E30E94A3
:1035C000BE3B6D837E838F8398876093C802709320
:1035D000C9028093CA029093CB02C601B501A6012D
:1035E00095010E94BE3B69877A878B879C87609391
:1035F000DF027093E0028093E1029093E2026D811A
:103600007E818F8198859B01AC010E94BE3B6D87B6
:103610007E878F87988B6093E3027093E402809398
:10362000E5029093E602C201B101A20191010E945C
:10363000BE3B698B7A8B8B8B9C8B6093E70270937C
:10364000E8028093E9029093EA0269817A818B8192
:103650009C812D813E814F8158850E94BE3B7B011C
:103660008C01C201B101A60195010E94BE3B9B01E4
:10367000AC01C801B7010E9435393B014C01609390
:10368000EB027093EC028093ED029093EE0225EE34
:1036900032EF4FEF5EE30E94B33B1816BCF4C60155
:1036A000B501A20191010E94C0399B01AC010E94A9
:1036B00036396093900270939102809392029093B6
:1036C00093028BED9FE0A9ECBFE322C0C401B301DC
:1036D00025EE32EF4FEF5EEB0E94133A88236CF534
:1036E000C601B501A20191010E94C03920E030E07D
:1036F00040E050EC0E94BE3B6093900270939102B8
:1037000080939202909393028BED9FE0A9ECBFEB24
:1037100080938C0290938D02A0938E02B0938F02BF
:1037200080E090E0A0E0B0E080938802909389026E
:10373000A0938A02B0938B0294C069817A818B81B5
:103740009C81A20191010E94BE3B7B018C01C601BC
:10375000B5012D813E814F8158850E94BE3B9B0162
:10376000AC01C801B7010E9436399B01AC010E942F
:1037700036397B018C016D857E858F8598892989F5
:103780003A894B895C890E94363920E030E040E07C
:1037900050EC0E94BE3B20E030E040E85FE30E9436
:1037A00036399B01AC01C801B7010E94C039609352
:1037B0009002709391028093920290939302C401BD
:1037C000B301A40193010E9436390E949A39609393
:1037D0008C0270938D0280938E0290938F02698188
:1037E0007A818B819C81A60195010E94BE3B7B0161
:1037F0008C016D817E818F819885A20191010E944B
:10380000BE3B9B01AC01C801B7010E9435399B0149
:10381000AC010E9436397B018C0169857A858B85E4
:103820009C852D853E854F8558890E94363920E03C
:1038300030E040E050EC0E94BE3B20E030E040E849
:103840005FE30E9436399B01AC01C801B7010E94B9
:10385000C039609388027093890280938A029093A2
:103860008B02609188027091890280918A02909106
:103870008B0221EE3EE245E652E40E94BE3B9058A8
:10388000609388027093890280938A0290938B02DE
:1038900060918C0270918D0280918E0290918F02C6
:1038A00021EE3EE245E652E40E94BE3B9058609312
:1038B0008C0270938D0280938E0290938F026091A0
:1038C000900270919102809192029091930221EE68
:1038D0003EE245E652E40E94BE3B5B016C0120E003
:1038E00030E044E353E40E9436397B018C0120E050
:1038F00030E044E353E40E94B33B181654F4C6018D
:10390000B50120E030E044E353E40E9435397B0107
:103910008C01D801C701B058809390029093910216
:10392000A0939202B09393026091D2027091D3025D
:10393000882777FD8095982F0E94B23A20E030E0EA
:1039400043E851E40E94173A609394027093950201
:1039500080939602909397026091D0027091D10269
:10396000882777FD8095982F0E94B23A20E030E0BA
:1039700043E851E40E94173A6093980270939902C9
:1039800080939A0290939B026091CE027091CF0235
:10399000882777FD8095982F0E94B23A20E030E08A
:1039A00043E851E40E94173A60939C0270939D0291
:1039B00080939E0290939F026091D4027091D502F1
:1039C000882777FD8095982F0E94B23A20E030E05A
:1039D00040E858E30E94BE3B6093A0027093A102AE
:1039E0008093A2029093A3026091D6027091D702B5
:1039F000882777FD8095982F0E94B23A20E030E02A
:103A000040E858E30E94BE3B6093A4027093A50275
:103A10008093A6029093A7026091D8027091D90278
:103A2000882777FD8095982F0E94B23A20E030E0F9
:103A300040E858E30E94BE3B2091B8023091B902A1
:103A40004091BA025091BB020E9435396093A8029E
:103A50007093A9028093AA029093AB028091DD0239
:103A60009091DE0201969093DE028093DD0280E069
:103A700001C081E864960FB6F894DEBF0FBECDBFDB
:103A8000CF91DF911F910F91FF90EF90DF90CF903A
:103A9000BF90AF909F908F907F906F905F904F906E
:103AA0003F902F9008958091EF029091F00262E391
:103AB00070E00E94B43C8091DD029091DE02861796
:103AC000970710F481E0089581EF92E060E070E0E4
:103AD0000E94C4119093DC028093DB020097D9F519
:103AE0006091F1027091F202882777FD8095982FFE
:103AF0000E94B23A6093AC027093AD028093AE0222
:103B00009093AF026091F3027091F402882777FDE1
:103B10008095982F0E94B23A6093B0027093B102E0
:103B20008093B2029093B3026091F5027091F60215
:103B3000882777FD8095982F0E94B23A6093B4024F
:103B40007093B5028093B6029093B7021092DE0292
:103B50001092DD0280E008950E945F0C0895EF92BC
:103B6000FF920F931F938B017A017093F002609381
:103B7000EF021092DE021092DD020E94E1080E9424
:103B80002F0980E090E0A0E0B0E08093B80290932D
:103B9000B902A093BA02B093BB0280E090E00E9409
:103BA00040139093DC028093DB0289E70E94E610C9
:103BB0009093DC028093DB0280ED97E00E94FE0B85
:103BC0009093DC028093DB0282E00E94A50B90932D
:103BD000DC028093DB0282E390E00E940F0B909363
:103BE000DC028093DB028BED92E00E94110A88E7F1
:103BF0000E94970D9093DC028093DB0280E090E0BE
:103C00000E949D150E94BC150E94201A9093DC0210
:103C10008093DB02C7010E9447189093DC028093D7
:103C2000DB02C8010E9402189093DC028093DB0241
:103C300081E00E94D90F9093DC028093DB0280E741
:103C400091E00E944B199093DC028093DB0280E0AC
:103C50001F910F91FF90EF900895FC0180E090E09C
:103C6000A0E0B0E080879187A287B38784839583A3
:103C7000A683B78380839183A283B383808F918F40
:103C8000A28FB38F848B958BA68BB78B848F958FE8
:103C9000A68FB78F84A395A3A6A3B7A380A391A350
:103CA000A2A3B3A384879587A687B787808B918BC0
:103CB000A28BB38B80E090E0089520E030E040E0FC
:103CC00050E0FC01248735874687578708952F9257
:103CD0003F924F925F926F927F928F929F92AF929C
:103CE000BF92CF92DF92EF92FF920F931F93CF93E9
:103CF000DF93EC013A014B0118012901CB01BA0114
:103D00002C813D814E815F810E94BE3BA2019101C9
:103D10000E94BE3B2C853D854E855F850E943639CD
:103D20005B016C016C877D878E879F87E88CF98C9F
:103D30000A8D1B8DA80197010E94B33B181664F0F1
:103D400017FB109517F91095C601B501A801970149
:103D50000E94133A882324F4EC86FD860E871F8781
:103D600068A179A18AA19BA1A20191010E94173AA1
:103D70009B01AC01C401B3010E943539688B798B7A
:103D80008A8B9B8BECA0FDA00EA11FA1A80197011F
:103D90000E94353921EB30E945EC5EE30E94BE3BE1
:103DA0009B01AC01C801B7010E9436395B016C016F
:103DB000688B798B8A8B9B8BC401B30128813981F5
:103DC0004A815B810E94BE3B2C853D854E855F8587
:103DD0000E9436397B018C01C601B50128853985E1
:103DE0004A855B850E94BE3B9B01AC01C801B701BF
:103DF0000E9435396C8F7D8F8E8F9F8FEC88FD8868
:103E00000E891F89A80197010E94B33B181624F45C
:103E1000EC8EFD8E0E8F1F8F8C899D89AE89BF8998
:103E20007C018D0117FB109517F910956C8D7D8D18
:103E30008E8D9F8DA80197010E94133A882324F448
:103E4000EC8EFD8E0E8F1F8F68A279A28AA29BA294
:103E500088899989AA89BB898CA39DA3AEA3BFA396
:103E6000DF91CF911F910F91FF90EF90DF90CF9056
:103E7000BF90AF909F908F907F906F905F904F908A
:103E80003F902F9008958091F7029091F80253E0AF
:103E9000959587955A95E1F79093890080938800CE
:103EA0008091F9029091FA0243E0959587954A95A1
:103EB000E1F78093B4008091FB029091FC0233E023
:103EC000959587953A95E1F7809302038091FD02DD
:103ED0009091FE0223E0959587952A95E1F78093CE
:103EE0000003809102038095809301038091000379
:103EF00080958093FF0208951F920F920FB60F9244
:103F000011248F939F9380910403882359F4809107
:103F1000000381115D9A88B590910003980F98BDB8
:103F200081E008C0813049F488B590910003980F72
:103F300098BD82E08093040313C0823041F45D9801
:103F400088B59091FF02980F98BD83E0F3CF83303E
:103F500039F498B58091FF02890F88BD109204034F
:103F60009F918F910F900FBE0F901F9018951F92E9
:103F70000F920FB60F9211248F939F93809103039A
:103F8000882359F48091020381115E9A87B590913C
:103F90000203980F97BD81E008C0813049F487B5CE
:103FA00090910203980F97BD82E08093030313C0A2
:103FB000823041F45E9887B590910103980F97BDC8
:103FC00083E0F3CF833039F497B580910103890FF3
:103FD00087BD109203039F918F910F900FBE0F909A
:103FE0001F9018958091020161E00E94EB3580914D
:103FF000030161E00E94EB358091040161E00E94C1
:10400000EB358091050161E00E94EB35E0E8F0E0DE
:10401000808180688083E0EBF0E080818062808333
:1040200014BCEEE6F0E08081846080838081826051
:1040300080830895AC018091290390E0860F911D43
:1040400080970CF03DC0FA01762F30E0ACE80DC04F
:10405000208198E0822F8327369580FD3A27915062
:1040600011F02695F7CF31967150772389F7FA0131
:10407000E60FF11D30836F5FDA0120E030E21EC0F1
:1040800080912803803210F0109228039091280329
:10409000E92FF0E0E65DFC4F8C9180839F5F909369
:1040A0002803809129038F5F80932903809129033E
:1040B000813210F0309329032F5F1196261700F3F9
:1040C0000895CF93DF93EC0180910703843008F4C7
:1040D00049C0DE0120E0809107038823E9F0909138
:1040E000060380910703981738F480910703E09145
:1040F0000603F0E0B09605C0E09106038091070347
:10410000F0E0E81BF109E85FFC4F80818C9380911F
:1041100007038150809307032F5F11962430D9F64F
:10412000FE0130E043E05CE80CC0208198E0822F83
:104130008327369580FD3527915011F02695F7CFCE
:104140003196415090F78B81381719F420E030E018
:104150000BC0809105038F5F8093050310920603C7
:10416000109207032FEF3FEFC901DF91CF91089520
:104170001F920F920FB60F9211242F938F939F933C
:10418000EF93FF932EB5809129038823F1F090914E
:10419000280380912903981738F480912903E0912E
:1041A0002803F0E0B09605C0E09128038091290330
:1041B000F0E0E81BF109E65DFC4F80818EBD809147
:1041C000290381508093290301C01EBC80910603FE
:1041D000803210F01092060380910603E82FF0E081
:1041E000E85FFC4F20838F5F809306038091070375
:1041F0008F5F8093070380910703813218F080E27C
:1042000080930703FF91EF919F918F912F910F90D2
:104210000FBE0F901F90189580932505609326057B
:104220007093270585E295E063E00E941A200895C7
:1042300060910E0570910F05809110059091110508
:104240000E947F3A9B01AC0182E1B9010E940C21DE
:104250006091E8047091E9048091EA049091EB0484
:104260000E947F3A9B01AC0183E1B9010E940C21BD
:104270006091EC047091ED048091EE049091EF0454
:104280000E947F3A9B01AC0184E1B9010E940C219C
:104290006091630470916404809165049091660458
:1042A0000E947F3A9B01AC0185E1B9010E940C217B
:1042B0000895BF92CF92DF92EF92FF920F931F93D8
:1042C000CF93DF93BB2438C0CB2CDD24F601EE0F57
:1042D000FF1FEE0FFF1FE056FD4FE080F1800281CF
:1042E0001381E601CC0FDD1FCC0FDD1FCE5BDA4F53
:1042F000C801B701288139814A815B810E94133A44
:10430000882324F4E882F9820A831B83E601CC0F18
:10431000DD1FCC0FDD1FC25BDA4FC801B70128815A
:1043200039814A815B810E94B33B181624F4E882EC
:10433000F9820A831B83B39482E08B1528F6B0922E
:10434000200580911B0564E10E94A83C9923F1F5AA
:10435000109220050F2EF0E0CF2EF0E0DF2EF0E0DF
:10436000EF2EF0E0FF2EF02D2CC01E2F145FF0E09A
:10437000EE0FFF1FEE0FFF1FE25BFA4F60817181AE
:104380008281938120E030E04AE754E40E94BE3B02
:104390000E947F3A9B01AC01812FB9010E940C2140
:1043A00080912005E82FF0E0EE0FFF1FEE0FFF1FBA
:1043B000E25BFA4FC082D182E282F3828F5F809308
:1043C0002005E0912005E33080F23FC09A30E9F506
:1043D000109220050F2EF0E0CF2EF0E0DF2EF0E05F
:1043E000EF2EF0E0FF2EF02D2CC01E2F115FF0E01D
:1043F000EE0FFF1FEE0FFF1FEE5BFA4F6081718122
:104400008281938120E030E04AE754E40E94BE3B81
:104410000E947F3A9B01AC01812FB9010E940C21BF
:1044200080912005E82FF0E0EE0FFF1FEE0FFF1F39
:10443000EE5BFA4FC082D182E282F3828F5F80937B
:104440002005E0912005E33080F2DF91CF911F91AC
:104450000F91FF90EF90DF90CF90BF9008951F9342
:104460001092200520C01E2F1F5FF0E0EE0FFF1FEF
:10447000EE0FFF1FEC56FD4F6081718182819381A9
:1044800020E030E048EC52E40E94BE3B0E947F3ABC
:104490009B01AC01812FB9010E940C218091200564
:1044A0008F5F80932005E0912005E330E0F21F91BB
:1044B00008951F931092200520C01E2F1C5FF0E06E
:1044C000EE0FFF1FEE0FFF1FE857FD4F6081718158
:1044D0008281938120E030E048EC52E40E94BE3BB0
:1044E0000E947F3A9B01AC01812FB9010E940C21EF
:1044F000809120058F5F80932005E0912005E330B7
:10450000E0F2609121057091220580912305909140
:10451000240520E030E048EC52E40E94BE3B0E94BB
:104520007F3A9B01AC0187E0B9010E940C211F91E9
:104530000895109220051BC0E0910601F0E0892F3C
:10454000880F02C0F595E7958A95E2F7E370F07061
:10455000EE0FFF1FE950FD4F60817181892F885F49
:104560000E940C21809120058F5F809320059091FF
:104570002005943008F3089580911F058330C9F019
:10458000843028F4813041F08230B9F508C084309D
:10459000E1F0853091F523C00E9459210895809162
:1045A0001B0564E10E94A83C992351F40E942F222C
:1045B000089580911B0564E10E94A83C9923B1F005
:1045C0009A30D9F40E949922089580911B0564E1E4
:1045D0000E94A83C992389F40E9418210895809193
:1045E0001B0564E10E94A83C992319F40E945922FA
:1045F00008959A3011F40E9418210895FC018181D8
:10460000882321F470E060E090E032C090818181E5
:10461000A381B481981748F431812081828190E090
:10462000820F911D831B910905C08081218190E03B
:10463000821B9109880F991F880F991FA80FB91F16
:104640008D919D910D90BC91A02D80931506909316
:104650001606A0931706B0931806818181508183B6
:1046600070911506609116069091170680911806B4
:10467000272F362F492F582FB901CA01089580914D
:1046800012058823E1F480911C058530C1F4209146
:104690002F053091300580914F0390915003821780
:1046A00093076CF40E9449356093130570931405C9
:1046B000809315059093160581E080931205089567
:1046C00010920D0520914D0330914E03309330052B
:1046D00020932F0580E009C0E82FF0E0EE0FFF1FC8
:1046E000E950FD4F318320838F5F8430A8F380939E
:1046F00020050E94431F0895DF92EF92FF920F93CF
:104700001F9390911205992309F405C1913021F569
:1047100082E08093120590930D058091E8049091BA
:10472000E904A091EA04B091EB0480930E05909304
:104730000F05A0931005B093110510922E0510924D
:104740002D0510922C0510922B0510922A0510921F
:10475000290510921E05DFC00E94493520911305DE
:10476000309114054091150550911605621B730B8D
:10477000840B950B20910C0130910D0140910E019D
:1047800050910F01621773078407950738F08CEF7B
:1047900080931C050E9460238FEFBEC00E944935A4
:1047A000209113053091140540911505509116057F
:1047B000621B730B840B950B605D774080409040CB
:1047C00008F4A9C06091EC047091ED048091EE04AE
:1047D0009091EF0420E030E040EF51EC0E94B33BB9
:1047E00018168CF420912F053091300580914F03DD
:1047F000909150032817390734F480913C058F5F5E
:1048000080933C0502C010923C0580913C05883C99
:1048100048F00E94602382E080931D0510923C05C1
:1048200081E07AC0E090E804F090E9040091EA04A5
:104830001091EB04C801B70120E030E04AEF53E4E7
:104840000E94B33B18161CF072E3D72E0FC0C801AC
:10485000B70120E030E84BEB54E40E94B33B18165C
:104860001CF064E6D62E02C056E9D52E6D2D7727B2
:1048700067FD7095872F972F0E94B23A209108010B
:104880003091090140910A0150910B010E94BE3BF9
:104890009B01AC0160910E0570910F058091100590
:1048A000909111050E9435390E947F3A7B018C015D
:1048B000D1946D2D772767FD7095872F972F0E94D4
:1048C000B23A6093F8047093F9048093FA049093D9
:1048D000FB046E2D772767FD7095872F972F0E9419
:1048E000B23A60930E0570930F0580931005909374
:1048F000110580910D05882321F082E080930D053C
:104900000AC01092120580914D0390914E0390932E
:10491000300580932F0580E01F910F91FF90EF905D
:10492000DF900895AF92BF92CF92DF92EF92FF9205
:104930000F931F9380911E05882309F019C1E09001
:104940008C02F0908D0200918E0210918F02C801AE
:10495000B70120E030E040E050E00E94B33B181681
:104960005CF4C801B70120E030E040E752E40E9467
:10497000B33B87FF32C00AC0C801B70120E030E076
:1049800040E752EC0E94133A18163CF5E090900272
:10499000F09091020091920210919302C801B70128
:1049A00020E030E040E050E00E94B33B18165CF499
:1049B000C801B70120E030E040E752E40E94B33B79
:1049C00018165CF010C0C801B70120E030E040E7E5
:1049D00052EC0E94133A882334F4809141058F5F92
:1049E0008093410502C010924105809141058130BC
:1049F00089F48091E8049091E904A091EA04B091CF
:104A0000EB0480933D0590933E05A0933F05B09342
:104A1000400533C06091E8047091E9048091EA0494
:104A20009091EB0420913D0530913E0540913F056A
:104A3000509140050E9435397B018C0120E030E027
:104A400040E050E00E94B33B18165CF4C801B70187
:104A500020E030E048E452E40E94B33B18165CF0DA
:104A60000CC0C801B70120E030E048E452EC0E94DD
:104A7000133A882314F410924105A0901705B090C2
:104A80001805C0901905D0901A05C601B50120E09F
:104A900030E040E050E00E94B33B18160CF05DC0DF
:104AA000E090A002F090A1020091A2021091A30256
:104AB000C801B70120E030E040E050E00E94B33B85
:104AC000181624F017FB109517F91095C801B701B7
:104AD000A60195010E94B33B1816E4F1E090A402F0
:104AE000F090A5020091A6021091A702C801B7019B
:104AF00020E030E040E050E00E94B33B181624F084
:104B000017FB109517F91095C801B701A60195017B
:104B10000E94B33B1816F4F0E090A802F090A902AE
:104B20000091AA021091AB02C801B70120E030E069
:104B300040E050E00E94B33B181624F017FB10959C
:104B400017F91095C801B701A60195010E94B33B62
:104B500018161CF488EC8093410580914105883C2F
:104B600038F08BEF80931C050E94602381E001C028
:104B700080E01F910F91FF90EF90DF90CF90BF905A
:104B8000AF9008956F927F928F929F92AF92BF9253
:104B9000CF92DF92EF92FF920F931F938091350592
:104BA0009091360501969093360580933505895E80
:104BB0009D4F20F08FEF80931C05A8C00E942B1AF8
:104BC000992787FD909590934B0380934A03892BF7
:104BD00009F09BC010913705183CF8F41431D0F05F
:104BE000609138057091390580913A0590913B05A7
:104BF0002091A8023091A9024091AA025091AB02E3
:104C00000E943639609338057093390580933A05D0
:104C100090933B051F5F109337056090940270904E
:104C200095028090960290909702C401B30120E013
:104C300030E040E85FEB0E94B33B18160CF065C013
:104C4000A0909802B0909902C0909A02D0909B02D6
:104C5000C601B50120E030E040E85FEB0E94B33BC5
:104C600018160CF052C0E0909C02F0909D0200914A
:104C70009E0210919F02C801B70120E030E040E899
:104C80005FEB0E94B33B18160CF03FC0C401B301A8
:104C900020E030E040E85FE30E94133A8823ACF55F
:104CA000C601B50120E030E040E85FE30E94133A1E
:104CB00088235CF5C801B70120E030E040E85FE3FD
:104CC0000E94133A88230CF56091370570E0645117
:104CD0007040882777FD8095982F0E94B23A9B01FB
:104CE000AC01609138057091390580913A05909139
:104CF0003B050E94173A6093B8027093B902809303
:104D0000BA029093BB0280E001C08FEF1F910F9118
:104D1000FF90EF90DF90CF90BF90AF909F908F90DB
:104D20007F906F9008952F923F924F925F926F9273
:104D30007F928F929F92AF92BF92CF92DF92EF922B
:104D4000FF920F931F93DF93CF93CDB7DEB72D97CD
:104D50000FB6F894DEBF0FBECDBF0E94531D99273A
:104D600087FD909590934B0380934A030E942B1AE2
:104D7000992787FD909590934B0380934A03813048
:104D8000910509F4EDC597FF06C00E9460238DEFE1
:104D900080931C05E5C580911B058F5F80931B05E3
:104DA000883C11F410921B050E9449352091310571
:104DB000621B6093070170E080E090E00E94B03ACF
:104DC00020E030E04AE754E40E94173A609308017B
:104DD0007093090180930A0190930B010E94493559
:104DE00060933105709332058093330590933405B9
:104DF000809107018B3028F081E080931D050E948F
:104E00003F230E949224882309F0AAC50E947C2394
:104E1000882309F0A5C580910C05882309F4BCC23C
:104E2000815080930C05E090A802F090A9020091B7
:104E3000AA021091AB02C801B70120E030E040E8BF
:104E40005FEB0E94133A88232CF430E020E885E7DA
:104E500064EC1AC0C801B70120E030E040E85FE32D
:104E60000E94B33B18162CF430E020E885E764E498
:104E70000BC0C801B70120E030E845E754E40E94C8
:104E8000BE3B362F272F692F3A872B878C876D875C
:104E9000832F922FAC85B62F8093C8049093C904BA
:104EA000A093CA04B093CB04A0900801B09009016C
:104EB000C0900A01D0900B016091E0047091E10470
:104EC0008091E2049091E304209108053091090556
:104ED00040910A0550910B050E94BE3BA601950129
:104EE0000E94BE3B9B01AC016091D0047091D10443
:104EF0008091D2049091D3040E9436397B018C01B9
:104F00006093D0047093D1048093D2049093D3041F
:104F10006091E0047091E1048091E2049091E304D7
:104F20002091040530910505409106055091070533
:104F30000E94BE3BA60195010E94BE3B9B01AC01B5
:104F40006091EC047091ED048091EE049091EF0477
:104F50000E9436391B012C016091E0047091E1043C
:104F60008091E2049091E3042091000530910105C5
:104F700040910205509103050E94BE3BA601950198
:104F80000E94BE3B9B01AC016091D4047091D5049A
:104F90008091D6049091D7040E9436393B014C0190
:104FA0006093D4047093D5048093D6049093D7046F
:104FB0006A857B858C859D85A80197010E9436397D
:104FC000A60195010E94BE3B7B018C016093D80431
:104FD0007093D9048093DA049093DB0420E030E0EE
:104FE00040E05FE30E94BE3BA20191010E9436397E
:104FF000A60195010E94BE3B2091E4043091E50496
:105000004091E6045091E7040E9436395B016C013F
:105010006093E4047093E5048093E6049093E704BE
:10502000A40193010E9436396093E8047093E90467
:105030008093EA049093EB04C201B101A8019701A7
:105040000E9436396093EC047093ED048093EE0473
:105050009093EF049091BF048091C104981711F4CC
:105060001092BF042091BF04822F90E0880F991FF7
:10507000880F991FE091C204F091C304E80FF91F53
:10508000A082B182C282D3822F5F2093BF0490910D
:10509000C0048091C104981728F48091C0048F5FE8
:1050A0008093C00460910E0570910F0580911005EA
:1050B000909111052091E8043091E9044091EA04AF
:1050C0005091EB040E9435395B016C016093F00450
:1050D0007093F1048093F2049093F304E0906F04D2
:1050E000F09070040091710410917204C801B7012E
:1050F000A80197010E943639A80197010E94BE3B82
:105100009B01AC0160E070E08AE793E40E94173AEB
:105110007B018C016093C4047093C5048093C60422
:105120009093C704A80197010E9436399B01AC01F6
:10513000C601B5010E94B33B18167CF4C601B50147
:10514000A80197010E94353920E030E04AEF53E48E
:105150000E94BE3B0E94253C20C0C801B70120E050
:1051600030E040E050EC0E94BE3B9B01AC01C60128
:10517000B5010E94133A8823CCF4C601B5019058BA
:10518000A80197010E94353920E030E04AEF53E44E
:105190000E94BE3B0E94253C90586093F40470939B
:1051A000F5048093F6049093F7041EC00091080163
:1051B0001091090120910A0130910B018FE694E0D2
:1051C000B601A5010E94671E80918B0490918C040A
:1051D000A0918D04B0918E048093F4049093F50413
:1051E000A093F604B093F70480910D05823081F40A
:1051F0008091F8049091F904A091FA04B091FB0415
:105200008093F4049093F504A093F604B093F7040C
:10521000E090DC04F090DD040091DE041091DF04E6
:105220006091F4047091F5048091F6049091F70474
:105230002091EC043091ED044091EE045091EF0484
:105240000E943539A80197010E94353924EE30EAD1
:1052500044EE5DE30E94BE3B9B01AC01C801B70177
:105260000E943639AB01BC01CA01DB018093DC042A
:105270009093DD04A093DE04B093DF040091080155
:105280001091090120910A0130910B0187E994E006
:105290000E94671EE090CC04F090CD040091CE04F3
:1052A0001091CF046091B3047091B4048091B5045F
:1052B0009091B6042091C8043091C9044091CA0469
:1052C0005091CB040E943539A80197010E943539CD
:1052D0002BEA34E242E75DE30E94BE3B9B01AC0156
:1052E000C801B7010E943639AB01BC01CA01DB011C
:1052F0008093CC049093CD04A093CE04B093CF04BC
:10530000009108011091090120910A0130910B01CF
:1053100087E494E00E94671E80910D058823D9F0F0
:105320006091510370915203882777FD8095982FE3
:105330000E94B23A20916304309164044091650464
:10534000509166040E9436390E947F3A709330056E
:1053500060932F0523C08FE694E00E945D1E87E9CD
:1053600094E00E945D1E87E494E00E945D1E80E050
:1053700090E0A0E0B0E08093CC049093CD04A093A3
:10538000CE04B093CF048093DC049093DD04A0930B
:10539000DE04B093DF0402C010920D05E09090028D
:1053A000F09091020091920210919302C801B7010E
:1053B00020E030E040E050E00E94B33B18165CF47F
:1053C000C801B70120E030E048E452E40E94B33B5A
:1053D00018165CF01AC0C801B70120E030E048E4BC
:1053E00052EC0E94133A882384F4809188029091B1
:1053F0008902A0918A02B0918B028093210590933B
:105400002205A0932305B0932405E0908C02F09030
:105410008D0200918E0210918F02C801B70120E029
:1054200030E040E050E00E94B33B18165CF4C80145
:10543000B70120E030E048E452E40E94B33B181684
:105440005CF01AC0C801B70120E030E048E452EC3B
:105450000E94133A882384F48091880290918902F3
:10546000A0918A02B0918B0280932105909322052E
:10547000A0932305B0932405E0902105F090220528
:105480000091230510912405C801B70120918802DD
:105490003091890240918A0250918B020E943539E5
:1054A00020E030E044E353EC0E94133A88235CF49C
:1054B000D801C701B0588093210590932205A0938D
:1054C0002305B0932405E0902105F090220500917A
:1054D000230510912405C801B7012091880230915D
:1054E000890240918A0250918B020E94353920E056
:1054F00030E044E353E40E94B33B18165CF4D80157
:10550000C701B0588093210590932205A0932305ED
:10551000B09324052091290530912A05B90137FF60
:1055200004C066277727621B730B66307105D4F1C0
:10553000C9010E94C83C8BEF9FEFAB01489FB001AF
:10554000499F700D589F700D1124620F731F88279B
:1055500077FD8095982F0E94B23A9B01AC01609133
:1055600043047091440480914504909146040E9444
:10557000BE3B6093E7037093E8038093E903909345
:10558000EA038091880290918902A0918A02B091E9
:105590008B028093210590932205A0932305B0935D
:1055A000240520C06091210570912205809123057A
:1055B00090912405209188023091890240918A02BD
:1055C00050918B020E943539AB01BC01009108015A
:1055D0001091090120910A0130910B018BEC93E0AD
:1055E0000E94671E80911E05882309F042C081E059
:1055F00080932005A8E2CA2ED12C36C010E00C9D65
:1056000070010D9DF00C1C9DF00C11248BEC93E0AF
:10561000E80EF91E000F111FF801E75DFA4F6081D7
:105620007181882777FD8095982F0E94B23A000FEC
:10563000111F08571D4FD8012D913D914D915C913F
:105640000E943539AB01BC0100910801109109019C
:1056500020910A0130910B01C7010E94671E8091C1
:1056600020058F5F8093200500912005033030F2E4
:1056700040C08130F1F58093200558E2C52ED12C31
:1056800034C0F0E0EC9D7001ED9DF00CFC9DF00C41
:1056900011244BEC53E0E40EF51EEE0FFF1FE75D07
:1056A000FA4F60817181882777FD8095982F0E943D
:1056B000B23A209143043091440440914504509102
:1056C00046040E94BE3BAB01BC0100910801109151
:1056D000090120910A0130910B01C7010E94671E48
:1056E000809120058F5F80932005E0912005E330B5
:1056F00040F21092200538E2C32ED12C34C0F0E0E5
:10570000EC9DD001ED9DB00DFC9DB00D112423E565
:10571000E22E23E0F22EEA0EFB1EA553BC4FEE0F45
:10572000FF1FEE0FFF1FEC56FD4F5C966D917D91B4
:105730008D919C915F9720813181428153810E949C
:105740003539AB01BC01009108011091090120918C
:105750000A0130910B01C7010E94671E809120054C
:105760008F5F80932005E0912005E33040F2509157
:1057700006015987E52EFF2460912F0570913005B1
:10578000882777FD8095982F0E94B23A6D837E839B
:105790008F8398878091BF039091C003A091C1032C
:1057A000B091C20389839A83AB83BC836D817E8170
:1057B0008F81988529813A814B815C810E9436399D
:1057C0001B012C01A0909703B0909803C0909903FF
:1057D000D0909A0360906F03709070038090710373
:1057E00090907203870103701070000F111F095011
:1057F0001D4FC201B101A60195010E943539A401D6
:1058000093010E9436390E947F3AD8016D937C93B0
:10581000F694E79487010670107009501D4FC2017D
:10582000B101A60195010E943639A40193010E949D
:1058300035390E947F3AF801718360836D817E81E2
:105840008F81988529813A814B815C810E9435390D
:105850001B012C01F694E794F694E794F6E0EF220E
:10586000FF2447EF52E0E40EF51EA60195010E94C9
:105870003539A40193010E9435390E947F3AD7013E
:105880006D937C93B985B295B695B695B3700B2F91
:1058900010E0000F111F09501D4FC201B101A601F8
:1058A00095010E943639A40193010E9436390E9465
:1058B0007F3AF801718360830E94BC2220914F03DC
:1058C0003091500380912F059091300582179307F6
:1058D00084F50E9460238091880290918902A091B2
:1058E0008A02B0918B028093210590932205A093A8
:1058F0002305B09324051092200518E215C0819F5E
:10590000C00111248D5A9C4F0E945D1E809120057C
:10591000819FC001112485539C4F0E945D1E809180
:1059200020058F5F8093200580912005833038F318
:1059300017C040E00FC0E42FF0E0EE0FFF1FE9506A
:10594000FD4F80819181821793070CF4C9019183E7
:1059500080834F5F443078F3409320050E94431FBB
:105960002D960FB6F894DEBF0FBECDBFCF91DF915D
:105970001F910F91FF90EF90DF90CF90BF90AF906D
:105980009F908F907F906F905F904F903F902F905F
:10599000089580E991E060E00E94CC0680E00E94DA
:1059A00030398CE061E00E94EB358CB580648CBDB1
:1059B0008CB580688CBD08951F931092200518E265
:1059C00015C0819FC00111248D5A9C4F0E942D1E2D
:1059D00080912005819FC001112485539C4F0E9416
:1059E0002D1E809120058F5F8093200580912005DA
:1059F000833038F387E494E00E942D1E87E994E019
:105A00000E942D1E8FE694E00E942D1E1092C0046D
:105A10008091C0048093BF048FE08093C1048CE325
:105A200090E00E942A368093C2049093C30480E0E1
:105A300090E0A0ECB0E48093FC049093FD04A0936C
:105A4000FE04B093FF0480E090E0A0E0BFE3809309
:105A5000000590930105A0930205B093030580E52E
:105A600095E5A5E5BFE38093040590930505A09314
:105A70000605B09307058EED9EEAA7E9BBE3809388
:105A8000080590930905A0930A05B0930B0580E0E3
:105A900090E0A0E0B0E08093210590932205A093D0
:105AA0002305B093240510921B0510921C0510923B
:105AB0001E0510921F051092050310920D0580938C
:105AC0000E0590930F05A0931005B09311058093D8
:105AD000C8049093C904A093CA04B093CB048093E4
