:100000000C9492060C94BA060C94BA060C94BA0698
:100010000C94BA060C94BA060C94BA060C94BA0660
:100020000C94BA060C94BA060C94BA060C94BA0650
:100030000C94BA060C94BA060C94B71F0C947C1F4F
:100040000C945B310C94B8200C94BA330C940834A3
:100050000C94BA060C94BA060C94BA060C94BA0620
:100060000C94BA060C94BA06036EDB363D9A999945
:10007000993DABAAAA2A3E000000803F084AD73B20
:100080003BCE016E84BCBFFDC12F3D6C74319ABD67
:1000900056833DDA3D00C77F11BED9E4BB4C3E918B
:1000A0006BAAAABE000000803F072C7AA5BA6CC5D7
:1000B00090DA3B9365FC8BBC53F810FD3C56928361
:1000C0004DBD879D3AB63DCBC9BF5BBE73DA0FC944
:1000D0003F00007000000000240000000200030048
:1000E0000000650054FFEF0000FA80000B12820050
:1000F00001030C30C30E8C8CE914D5400213710F30
:100100008E3883F8833000F883258EF8833000F82A
:1001100083FFFFFFFF0FFEA9D6240004001A827997
:10012000A10000003CFFFF00000010000038836FBA
:10013000A2003E03304000000002CAE3093E8000F6
:1001400000200000000000000040000000600000EF
:1001500000000C0000000C186E000006920A16C089
:10016000DFFFFF0256FD8CD377FFE1C496E0C5BEEA
:10017000AA00000000FFFF0B2B0000165700000331
:10018000594000000000001DFA00026C1D00000034
:10019000003FFFDFEB003EB3B6000D227800002FDA
:1001A0003C00000000001942B5000039A20000B375
:1001B00065D90E9FC91DCF4C34300000005000009F
:1001C000003BB67AE80064000000C80000000000B0
:1001D00000100000001000FA921000225E000D22B4
:1001E0009F0001000000320000FF46000063D400C1
:1001F000001000000004D6000004CC000004CC0075
:10020000000000107200000040000000000000002C
:100210000000060002000500070000000000640066
:100220000000000000000000050005006400200040
:10023000000000000000000000000040000000037B
:100240000000000032F8980000FF650000830F00F6
:1002500000FF9BFC00000000000000000000000008
:10026000000000000000000000000000000000008E
:10027000000000000000000000000000000000106E
:100280000040000000000000060000B26A0002000A
:10029000000001FB830068000000D9FC007CF1FF36
:1002A000830000000000650000006403E8006400B3
:1002B00028000000250000000016A000000000102B
:1002C0000000001000002F0000000001F4000010EA
:1002D0000000280000FFFF4581FFFFFA72000000C8
:1002E0000000000000004400050005BAC600477881
:1002F000A200000001000000000000060000000055
:10030000140000254D002F706D000005AE000C029A
:10031000D00000000000000000000000000000000D
:1003200000001B00000000000000000000000000B2
:100330000000640000000800000000000000000051
:1003400000000000000000000000000000000000AD
:10035000000000000000000000000000000000009D
:10036000000000000000000000000000000000008D
:10037000000000000000000000000000000000007D
:10038000000000000000000000000000000000006D
:1003900000001B00000000000000000000000E0034
:1003A0000E00000AC70004000000000032FFFFFF3B
:1003B0009C00000B2B000000020000000100000068
:1003C00064FFE500000000000000000000000000E5
:1003D000000000000100000000000100000000001B
:1003E0000000018000000180000001800000242640
:1003F000D30000000000000000000600100096007E
:100400003C000000000000000000000000000000B0
:10041000000C0A4E68CDCF770950166759C619CE21
:10042000820000000000000000000000000000004A
:1004300000000000000000000017D7840003000047
:10044000000000000000000000C7938F9D1E1B1CD1
:100450001900000000000000000000000000000083
:1004600000000000000000000002031885000040AA
:100470000000000003000000030000000000000076
:10048000004000000000000000000000000000002C
:10049000000000000000000000000000000000005C
:1004A000000000000000000000000000000000004C
:1004B0000000000000677DDF7E72902E554CF6E64E
:1004C00088000000000000000000000000000000A4
:1004D00000D8DCB4B8B0D8B9ABF3F8FAB3B7BB8E78
:1004E0009EAEF132F51BF1B4B8B08097F1A9DFDF11
:1004F000DFAADFDFDFF2AAC5CDC7A90CC92C97F1AF
:10050000A989264666B28999A92D557DB0B08AA8D9
:1005100096365676F1BAA3B4B280C0B8A89711B295
:100520008398BAA3F0240844106418B2B9B498832D
:10053000F1A329557DBAB5B1A38393F0002850F5F6
:10054000B2B6AA839328547CF1B9A3829361BAA26C
:10055000DADEDFDB819AB9AEF5606870F1DABAA253
:10056000DFD9BAA2FAB9A38292DB31BAA2D9BAA270
:10057000F8DF85A4D0C1BBAD83C2C5C7B8A2DFDF99
:10058000DFBAA0DFDFDFD8D8F1B8AAB38DB4980DF9
:10059000355DB2B6BAAF8C96198F9FA70E161EB4F2
:1005A0009AB8AA872C547CBAA4B08AB691325676EF
:1005B000B28494A4C808CDD8B8B4B0F19982A82D5B
:1005C000557D98A80E161EA22C547C92A4F02C5097
:1005D00078F184A898C4CDFCD80DDBA8FC2DF3D904
:1005E000BAA6F8DABAA6DED8BAB2B68696A6D0F31C
:1005F000C841DAA6C8F8D8B0B4B882A892F52C548D
:100600008898F135D9F418D8F1A2D0F8F9A884D98E
:10061000C7DFF8F883C5DADF69DF83C1D8F40114D6
:10062000F1A8824EA884F311D182F5D99228978837
:10063000F109F41C1CD884A8F3C0F9D1D99782F130
:1006400029F40DD8F3F9F9D1D982F4C203D8DEDF49
:100650001AD8F1A2FAF9A88498D9C7DFF8F8F88374
:10066000C7DADF69DFF883C3D8F40114F198A882F0
:100670002EA884F311D182F5D992509788F109F40C
:100680001CD884A8F3C0F8F9D1D99782F149F40DA8
:10069000D8F3F9F9D1D982F4C403D8DEDFD8F1ADAB
:1006A0008898CCA809F9D98292A8F57CF1883ACF2C
:1006B000944A6E98DB6931DAADF2DEF9D88795A8F5
:1006C000F221D1DAA5F9F417D9F1AE8ED0C0C3AEBC
:1006D00082C684C3A88595C8A588F2C0F1F4010E2E
:1006E000F18E9EA8C63E56F554F18872F40115F1BC
:1006F0009845856EF58E9E0488F142985A8E9E0626
:100700008869F4011CF1981E1108D0F504F11E97B8
:100710000202983625DBF9D985A5F3C1DA85A5F360
:10072000DFD88595A8F309DAA5FAD88292A8F578DA
:10073000F1881A849F26889821DAF41DF3D8879FC0
:1007400039D1AFD9DFDFFBF9F40CF3D8FAD0F8DAFE
:10075000F9F9D0DFD9F9D8F40BD8F3879F39D1AFA5
:10076000D9DFDFF41DF3D8FAFCA869F9F9AFD0DAC4
:10077000DEFAD9F88F9FA8F1CCF398DB45D9AFDF2B
:10078000D0F8D8F18F9FA8CAF38809DAAF8FCBF8D9
:10079000D8F2AD978D0CD9A5DFF9BAA6F3FAF41209
:1007A000F2D8950DD1D9BAA6F3FADAA5F2C1BAA654
:1007B000F3DFD8F1BAB2B68696A6D0CAF349DAA664
:1007C000CBF8D8B0B4B8D8AD84F2C0DFF18FCBC3CA
:1007D000A8B2B68696C8C1CBC3F3B0B48898A82196
:1007E000DB718D9D71859521D9ADF2FAD88597A8D9
:1007F00028D9F408D8F28D29DAF405D9F285A4C2F3
:10080000F2D8A88D9401D1D9F411F2D88721D8F467
:100810000AD8F28498A8C801D1D9F411D8F3A4C891
:10082000BBAFD0F2DEF8F8F8F8F8F8F8F8D8F1B87D
:10083000F6B5B9B08A95A3DE3CA3D9F8D85CA3D9A4
:10084000F8D87CA3D9F8D8F8F9D1A5D9DFDAFAD845
:10085000B18530F7D9DED8F830ADDADED8F2B48C15
:1008600099A32D557DA083DFDFDFB591A0F629D9AF
:10087000FBD8A0FC29D9FAD8A0D051D9F8D8FC517E
:10088000D9F9D879D9FBD8A0D0FC79D9FAD8A1F96F
:10089000F9F9F9F9A0DADFDFDFD8A1F8F8F8F8F80C
:1008A000ACDEF8ADDE8393AC2C547CF1A8DFDFDF47
:1008B000F69D2CDAA0DFD9FADB2DF8D8A850DAA003
:1008C000D0DED9D0F8F8F8DB55F8D8A878DAA0D07F
:1008D000DFD9D0FAF8F8F8F8DB7DF8D89CA88CF5C9
:1008E00030DB38D9D0DEDFA0D0DEDFD8A848DB5837
:1008F000D9DFD0DEA0DFD0DED8A868DB70D9DFDF9B
:10090000A0DFDFD8F1A888902C547C98A8D05C3860
:10091000D1DAF2AE8CDFF9D8B087A8C1C1B188A80E
:10092000C6F9F9DA36D8A8F9DA36D8A8F9DA36D815
:10093000A8F9DA36D8A8F9DA36D8F78D9DADF818C7
:10094000DAF2AEDFD8F7ADFA30D9A4DEF9D8F2AEDC
:10095000DEFAF983A7D9C3C5C7F1889BA77AADF79B
:10096000DEDFA4F8849408A797F300AEF29819A4E8
:1009700088C6A39488F632DFF28393DB09D9F2AA02
:10098000DFD8D8AEF8F9D1DAF3A4DEA7F1889B7AE4
:10099000D8F38494AE19F9DAAAF1DFD8A881C0C3DC
:1009A000C5C7A39283F628ADDED9F8D8A350ADD938
:1009B000F8D8A378ADD9F8D8F8F9D1A1DADEC3C553
:1009C000C7D8A18194F818F2B089ACC3C5C7F1D8D3
:1009D000B8B4B09786A8319B069907AB9728889B37
:1009E000F00C201440B0B4B8F0A88A9A285078B718
:1009F0009BA8295179247059446938644831F1BB66
:100A0000AB88002C547CF0B38BB8A804285078F144
:100A1000B088B49726A85998BBABB38B022646661C
:100A2000B0B8F08A9CA82951798B2951798A247011
:100A3000598B2058718A4469388B3940688A6448D8
:100A4000318B30496088F1AC002C547CF08CA804C8
:100A5000285078F1889726A85998AC8C02264666CB
:100A6000F0899CA829517924705944693864483127
:100A7000A98809205970AB11384069A8193148601C
:100A80008CA83C415C207C00F187981986A86E7682
:100A90007EA999882D557DD8B1B5B9A3DFDFDFAE2A
:100AA000D0DFAAD0DEF2ABF8F9D9B087C4AAF1DF63
:100AB000DFBBAFDFDFB9D8B1F1A3978E60DFB084C1
:100AC000F2C8F8F9D9DED89385F14AB183A308B505
:100AD000839A0810B79F10D8F1B0BAAEB08AC2B2EC
:100AE000B68E9EF1FBD9F41DD8F9D90CF1D8F8F8DF
:100AF000AD61D9AEFBD8F40CF1D8F8F8AD19D9AE88
:100B0000FBDFD8F416F1D8F8AD8D61D9F4F4ACF56B
:100B10009C9C8DDF2BBAB6AEFAF8F40BD8F1AED0B0
:100B2000F8AD51DAAEFAF8F1D8B9B1B6A3839C08A2
:100B3000B9B1839AB5AAC0FD3083B79F10B58B9326
:100B4000F20202D1ABDADED8F1B080BAABC0C3B2E8
:100B500084C1C3D8B1B9F38BA391B609B4D9ABDEC4
:100B6000B0879CB9A3DDF1B38B8B8B8B8BB087A344
:100B7000A3A3A3B28BB69BF2A3A3A3A3A3A3A3A3F4
:100B8000A3A3F1B087B59AA3F39BA3A3DCBAACDF10
:100B9000B9A3A3A3A3A3A3A3A3A3A3A3A3A3A3A30F
:100BA000A3D8D8D8BBB3B7F1AAF9DAFFD9809AAAEB
:100BB00028B48098A720B79787A86688F07951F164
:100BC000902C870CA781976293F0717160859401D6
:100BD00029517990A5F1284C6C870C95188578A33C
:100BE0008390284C6C886CD8F3A28200F210A892F3
:100BF0001980A2F2D926D8F188A84DD948D896A84C
:100C00003980D93CD89580A839A68698D92CDA871E
:100C1000A72CD8A8899519A980D938D8A88939A925
:100C200080DA3CD8A82EA83990D90CD8A89531984C
:100C3000D90CD8A809D9FFD801DAFFD89539A9DA93
:100C400026FFD890A80D8999A810809821DA2ED86F
:100C50008999A83180DA2ED8A886963180DA2ED8E4
:100C6000A8873180DA2ED8A88292F34180F1D92E5C
:100C7000D8A882F31980F1D92ED882ACF3C0A28013
:100C800022F1A62EA72EA92298A829DAACDEFFD839
:100C9000A2F22AF1A92E8292A8F23180A696F1D969
:100CA00000AC8C9C0C30ACDED0DEFFD88C9CACD081
:100CB00010ACDE8092A2F24C82A8F1CAF235F19615
:100CC00088A6D900D8F1FF00000000240027002AE0
:100CD0000000000000250028002B00000000002379
:100CE000002600290004040404040404040202028F
:100CF000020202030303030303010204081020405D
:100D000080010204081020010204081020000000E5
:100D100007000201000003040600000000000000BC
:100D20000000ED3411241FBECFEFD8E0DEBFCDBFF1
:100D300011E0A0E0B1E0E4EFF2E702C005900D920F
:100D4000AC34B107D9F716E0ACE4B1E001C01D92B4
:100D5000A630B107E1F71DE0C4E2DDE004C0229750
:100D6000FE010E947439C232D107C9F70E9443358F
:100D70000C94BC060C940000F8940C947839FB0198
:100D8000DC0104C08D910190801921F44150504044
:100D9000C8F7881B990B0895FC011092BC006623CC
:100DA00019F088B1806302C088B18F7C88B9109235
:100DB000B9009F01442737FD4095542F60E87EE33A
:100DC00080E090E00E945739205130404040504030
:100DD000CA01B90122E030E040E050E00E945739FA
:100DE0002093B80084E08093BC000895482F440FFE
:100DF00092E064EB54E86093BC002AEF30E080910D
:100E0000BC0087FD34C0215030408FEF2F3F3807A2
:100E1000B1F727C08091B900887F883021F08031F8
:100E200011F082E008954093BB005093BC002AEF7C
:100E300030E08091BC0087FD1EC0215030408FEF14
:100E40002F3F3807B1F70FC08091B900887F8032FB
:100E500021F4992351F09150CECF883131F480E0C4
:100E6000089581E0089583E0089584E008951216BE
:100E7000130684F2F6CF1216130634F3F4CFEF9272
:100E8000FF920F931F93162FE42E022FF32E0E9432
:100E9000F6061093BB0084E88093BC002AEF30E094
:100EA0008091BC0087FD07C0215030408FEF2F3F5D
:100EB0003807B1F703C0121613063CF0802F9F2DA0
:100EC0009C01F90190E044E81CC08091B900F6CF84
:100ED00080818093BB004093BC002AEF30E080917A
:100EE000BC0087FD07C0215030408FEF2F3F3807EF
:100EF000B1F705C01216130614F48091B9009F5F74
:100F000031969E1528F384E98093BC002AEF30E0E7
:100F10008091BC0087FD06C02115310519F02150D4
:100F20003040F6CF81E01F910F91FF90EF90089530
:100F30001F93F82F122F72E0B4EBE82FEE7FA4E896
:100F4000B093BC002AEF30E08091BC0087FDD0C098
:100F5000215030408FEF2F3F3807B1F7B7C0809155
:100F6000B900887F883021F0803111F091E1BDC057
:100F7000E093BB00A093BC002AEF30E08091BC005E
:100F800087FDBBC0215030408FEF2F3F3807B1F7AE
:100F90009FC09091B900987F903229F4772309F48B
:100FA00099C07150CDCF983109F094C06093BB00C7
:100FB00084E88093BC002AEF30E08091BC0087FD7C
:100FC000A1C0215030408FEF2F3F3807B1F784C0C8
:100FD0008091B900887F883211F095E186C062E087
:100FE000A4EB7F2F7160E4E8A093BC002AEF30E00F
:100FF0008091BC0087FD8BC0215030408FEF2F3F88
:101000003807B1F76BC08091B900887F883021F034
:10101000803111F097E169C07093BB00E093BC0090
:101020002AEF30E08091BC0087FD76C0215030402F
:101030008FEF2F3F3807B1F758C08091B900887FF4
:10104000883429F4662309F44BC06150CDCF803435
:1010500009F046C0FA0160E0412F50E04150504095
:10106000A4EC74E822C0862F90E08417950719F449
:101070007093BC0002C0A093BC002AEF30E08091C6
:10108000BC0087FD4EC0215030408FEF2F3F380706
:10109000B1F728C09091B900987F903511F098353C
:1010A00021F58091BB0081936F5F6117E0F284E9C5
:1010B0008093BC002AEF30E08091BC0087FD14C013
:1010C0002115310589F021503040F6CF90E10DC057
:1010D00092E10BC093E109C094E107C096E105C01D
:1010E00099E103C09AE101C090E0892F1F91089512
:1010F000121613060CF433CFE9CF121613060CF4B4
:1011000048CFE6CF121613060CF462CFE5CF1216C5
:1011100013060CF478CFE2CF121613060CF48DCF21
:10112000E4CF121613060CF4B5CFDCCF7F928F926A
:101130009F92AF92BF92CF92DF92EF92FF920F9366
:101140001F93CF93DF93F82EE62E742E6901E801EA
:101150000E94A3314B015C018F2D880F6E2DA601DB
:10116000272D0E949807882311F01FEF01C0172D2B
:101170002097C1F00E94A331681979098A099B0957
:101180009E0140E050E0621773078407950750F016
:10119000212F332727FD3095872D90E02817390719
:1011A0000CF41FEF812FDF91CF911F910F91FF90D2
:1011B000EF90DF90CF90BF90AF909F908F907F90F7
:1011C00008959C018230910518F02FEF3FEF45C044
:1011D00080936602909367028AE290E0AC01249FBC
:1011E000C001259F900D349F900D1124845B9E4F6C
:1011F00090935F0280935E02C901880F991F820F4E
:10120000931F880F991F880F991F80569E4F9093A8
:1012100061028093600287E290E0AC01249FC001EC
:10122000259F900D349F900D112488549E4F9093CC
:101230006302809362028CE290E0AC01249FC001C3
:10124000259F900D349F900D11248A5F9D4F9093A0
:1012500065028093640220E030E0C90108950F9395
:101260001F93CF93DF93C0915E02D0915F0285E719
:10127000888389E189838AE18A838CE08B838AE68B
:101280008C8383E28D838BE18E838CE18F838FE16E
:101290008A8780E28B8782E78C8784E78D8783E467
:1012A0008E878BE38F8781E4888B88E3898B89E342
:1012B0008A8B8AE38B8B8BE68D8B8CE68E8B87E318
:1012C0008F8B8FE6888F86E0898F84E28A8F8DE608
:1012D0008B8F8EE68C8F80E78D8F89E488A781E0E5
:1012E00089A785E28E8F86E28F8F87E288A388E2C6
:1012F00089A389E28AA38AE28BA384E38CA383E691
:101300008DA384E68EA387E68FA3809166029091D9
:101310006702009719F0019769F406C0E091600236
:10132000F091610288E605C0E0916002F0916102EF
:1013300089E68083009160021091610280E094E070
:10134000F8019283818386E7838384E591E0958326
:10135000848387EF9DEF9783868380E091E0918778
:10136000808786E696E29387828720916202309199
:10137000630283E890E0A0E0B0E0F901808391830C
:10138000A283B38380E098E0A0E0B0E084839583FB
:10139000A683B783108681E08187128688E18387E0
:1013A00082E390E09587848785E0868780E090E0FF
:1013B000A0E2B1E48787908BA18BB28B80E090E0B4
:1013C000A2EDB2E4838B948BA58BB68B49E25CE5EE
:1013D0006FE07EE3478B508F618F728F8AE999E9C6
:1013E000A9E9BEE3838F948FA58FB68F83E393E340
:1013F000A3E7BFE3878F90A3A1A3B2A343A354A302
:1014000065A376A3E0916402F0916502D183C08365
:101410001383028333A722A7DF91CF911F910F91EE
:101420000895DC01E0916402F091650286818823D1
:1014300019F081E08C9301C01C9280E090E0089547
:10144000DF93CF930F92CDB7DEB7982FA0916402B0
:10145000B09165025D968C915D97882321F0992368
:1014600089F082E00DC016968C9116978823E9F0DA
:10147000992341F01C968C911C978823F9F481E004
:10148000898301C019821296ED91FC9113970D90FA
:10149000BC91A02D808151966C9141E09E012F5FFF
:1014A0003F4F0E943F07882319F42FEF3FEF08C0FA
:1014B000E0916402F09165028981848720E030E048
:1014C000C9010F90CF91DF910895CF92DF92EF92F3
:1014D000FF920F931F93DF93CF9300D0CDB7DEB76A
:1014E000D82EC92E8B017A014115510519F42FEF21
:1014F0003FEF41C0E0916402F0916502868188234C
:1015000019F42EEF3FEF37C0A281B3819B012D0D5F
:10151000311D18968D919C9119978217930718F495
:101520002DEF3FEF28C0C982DA820190F081E02DD3
:101530008C91638D42E09E012F5F3F4F0E943F07D9
:10154000882319F42CEF3FEF16C0E0916402F0916C
:101550006502A281B3810190F081E02D8C91608DB4
:10156000402F97010E943F07882319F020E030E0C8
:1015700002C02BEF3FEFC9010F900F90CF91DF9189
:101580001F910F91FF90EF90DF90CF9008951F93E0
:10159000DF93CF930F92CDB7DEB7182FA0916402DF
:1015A000B09165025C968C915C97811781F1112353
:1015B00019F080E3898301C019821D968C911D97D3
:1015C000882319F08981826089835B968C915B976F
:1015D000882319F08981806889831296ED91FC91A6
:1015E00013970D90BC91A02D808157966C9141E08E
:1015F0009E012F5F3F4F0E943F07882319F42FEF72
:101600003FEF07C0E0916402F0916502148F20E083
:1016100030E0C9010F90CF91DF911F910895DF93C2
:10162000CF930F92CDB7DEB7BC010097A9F12091FF
:10163000640230916502D90119968D919C911A9797
:101640008617970748F16536710530F50E940E3907
:1016500061506983F90182819381A081B181FC018C
:10166000808194966C9141E09E012F5F3F4F0E94D4
:101670003F07882389F0E0916402F0916502698157
:1016800070E06F5F7F4F818592850E940E3972A353
:1016900061A320E030E002C02FEF3FEFC9010F90BF
:1016A000CF91DF910895DF93CF930F92CDB7DEB73F
:1016B0009C01A0916402B091650216968C911697D8
:1016C000882399F12C3B310510F081E015C02236BA
:1016D000310510F082E010C02A32310510F083E0AD
:1016E0000BC02431310510F084E006C02A303105EA
:1016F00010F085E001C086E0898317969C911797CA
:1017000089819817D9F01296ED91FC9113970D905D
:10171000BC91A02D808112966C9141E09E012F5FBB
:101720003F4F0E943F07882319F42FEF3FEF08C077
:10173000E0916402F09165028981878320E030E0C6
:10174000C9010F90CF91DF910895DF93CF930F924E
:10175000CDB7DEB7982FA0916402B09165021696BE
:101760008C9116978823A1F1943061F0953018F48C
:10177000923071F505C0983039F0903149F506C0C6
:10178000198206C088E003C080E101C088E1898336
:1017900015962C91159730E0898190E0E3E09595BE
:1017A0008795EA95E1F72817390709F11296ED9127
:1017B000FC9113970D90BC91A02D808117966C9190
:1017C00041E09E012F5F3F4F0E943F07882319F49D
:1017D0002FEF3FEF0EC0E0916402F0916502898126
:1017E00090E073E0959587957A95E1F7858320E001
:1017F00030E0C9010F90CF91DF910895DF93CF932F
:101800000F92CDB7DEB79C01A0916402B091650242
:1018100016968C9116978823E1F181E0243F3807D2
:1018200091F081E0253F380720F42A3F310589F502
:1018300008C083E0283E380741F0205D374049F575
:1018400006C0198206C088E003C080E101C088E1BB
:10185000898314962C91149730E0898190E043E0BD
:10186000959587954A95E1F72817390709F112965A
:10187000ED91FC9113970D90BC91A02D808116964F
:101880006C9141E09E012F5F3F4F0E943F078823EC
:1018900019F42FEF3FEF0EC0E0916402F091650262
:1018A000898190E0A3E095958795AA95E1F78483D7
:1018B00020E030E0C9010F90CF91DF9108950F93A0
:1018C0001F93DF93CF930F92CDB7DEB7A091640241
:1018D000B091650216968C911697882309F41BC166
:1018E00019821296ED91FC9113970D90BC91A02D49
:1018F000808151966C9141E08E010F5F1F4F9801DE
:101900000E943F07882309F406C1E0916402F09128
:101910006502A281B3810190F081E02D8C916581F7
:1019200041E098010E943F07882309F4F4C0E09148
:101930006402F0916502A281B3810190F081E02DF3
:101940008C91648141E098010E943F07882309F44B
:10195000E2C0A0916402B09165025D968C915D97A2
:10196000882309F469C08CE089831296ED91FC917B
:1019700013970D90BC91A02D808114966C9141E03D
:1019800098010E943F07882309F4C5C062E370E014
:1019900080E090E00E94B13180EC8983A0916402E4
:1019A000B091650216968C91169780FF02C080EE6A
:1019B00089831296ED91FC9113970D90BC91A02D07
:1019C000808114966C9141E09E012F5F3F4F0E94F1
:1019D0003F07882309F49FC0A0916402B09165027B
:1019E0001C968C911C97882319F082E0898301C092
:1019F00019821296ED91FC9113970D90BC91A02D38
:101A0000808151966C9141E08E010F5F1F4F9801CC
:101A10000E943F07882309F47EC01982E091640286
:101A2000F0916502A281B3810190F081E02D8C914B
:101A3000658141E098016BC084E089831296ED9145
:101A4000FC9113970D90BC91A02D808114966C9100
:101A500041E098010E943F07882309F45CC0A091EF
:101A60006402B09165021D968C911D97882329F41C
:101A700016968C91169780FD02C080E401C080E626
:101A800089831296ED91FC9113970D90BC91A02D36
:101A9000808114966C9141E09E012F5F3F4F0E9420
:101AA0003F078823C1F162E370E080E090E00E948C
:101AB000B131A0916402B09165021C968C911C9783
:101AC000882319F081E0898301C019821296ED9173
:101AD000FC9113970D90BC91A02D808151966C9133
:101AE00041E09E012F5F3F4F0E943F07882399F0FE
:101AF000E0916402F0916502A281B381208131817D
:101B00003B968C91D90115966C9141E09F010E9402
:101B10003F07882319F42FEF3FEF02C020E030E0A9
:101B2000C9010F90CF91DF911F910F9108950F93ED
:101B30001F93CF93DF93982FE0916402F091650299
:101B4000858D882319F0C0E0D0E029C086818823E4
:101B500021F1192F1E7F038581238387811719F4B3
:101B6000C0E0D0E002C0CFEFDFEF112319F487858A
:101B7000882331F081E00E94200A112381F004C003
:101B800080E00E94200A0BC00E945F0C892B39F074
:101B9000E0916402F09165020387CFEFDFEFCE01A1
:101BA000DF91CF911F910F9108951F93DF93CF93F2
:101BB00000D0CDB7DEB7182F893208F058C088237F
:101BC000F9F480E00E94C70A198287E08A83E091D5
:101BD0006402F0916502A281B3810190F081E02D51
:101BE0008C91658942E09E012F5F3F4F0E943F0725
:101BF0008823E9F1E0916402F0916502178646C0FE
:101C000081E00E94C70A80E28983113011F41A82B0
:101C100004C0163028F481E08A8385E090E00BC090
:101C2000153128F482E08A838AE090E004C083E0E2
:101C30008A8384E190E00E94530B8A818295880F09
:101C4000880F807C87608A83E0916402F09165024E
:101C5000A281B3810190F081E02D8C91658942E0F1
:101C60009E012F5F3F4F0E943F07882319F42FEFFB
:101C70003FEF0EC0E0916402F091650288E0868338
:101C8000108681E0878780E00E94970D20E030E099
:101C9000C9010F900F90CF91DF911F9108950F937D
:101CA0001F93DF93CF930F92CDB7DEB78C01E091F6
:101CB0006402F091650286818823B9F1858D8823BD
:101CC000A1F58785882359F0C8010197889720F4EA
:101CD000802F0E94D50D4DC080E00E94D50D0430AC
:101CE000110518F464E070E007C0B80183E0093E14
:101CF000180710F068EE73E088EE93E00E940E394A
:101D000061506983E0916402F0916502A281B38120
:101D10000190F081E02D8C91618141E09E012F5F67
:101D20003F4F0E943F07882319F42FEF3FEF23C056
:101D3000E0916402F0916502698170E06F5F7F4F0E
:101D400088EE93E00E9422397287618781A192A177
:101D50008536910510F084E690E00E940F0BE0912B
:101D60006402F091650281859285969587950E941F
:101D7000530B20E030E0C9010F90CF91DF911F910C
:101D80000F910895CF92DF92EF92FF920F931F93DE
:101D9000DF93CF9300D0CDB7DEB7182F092F7B018B
:101DA0006A0141155105D1F1E0916402F09165029B
:101DB0008681882399F1A281B3819B01210F311D76
:101DC00018968D919C9119978217930738F1098382
:101DD0001A830190F081E02D8C91638D42E09E0189
:101DE0002F5F3F4F0E943F078823C1F0E0916402BC
:101DF000F0916502A281B3810190F081E02D009104
:101E00000001109101018C91608D4E2D96010E9470
:101E10009608882319F020E030E002C02FEF3FEF52
:101E2000C9010F900F90CF91DF911F910F91FF90FB
:101E3000EF90DF90CF900895DF92EF92FF920F9393
:101E40001F93DF93CF930F92CDB7DEB7D82EE091DB
:101E50006402F091650285858D1509F49EC0A2810A
:101E6000B3810190F081E02D0091000110910101FA
:101E70007E010894E11CF11CDD2089F18C916481C4
:101E800041E097010E949608882309F47EC0898169
:101E90008F7D8983E0916402F0916502A281B38114
:101EA0000190F081E02D8C91648141E097010E94C6
:101EB0003F07882309F469C063E070E080E090E0A8
:101EC0000E94B13182E08983A0916402B0916502E1
:101ED0005B968C915B978823F1F182E839C08C91F5
:101EE000648141E097010E949608882309F44DC05F
:101EF000A0916402B091650216968C911697998113
:101F000080FF02C0906201C09F7D99831296ED917F
:101F1000FC9113970D90BC91A02D808114966C912B
:101F200041E09E012F5F3F4F0E943F07882369F1E8
:101F300063E070E080E090E00E94B131A091640223
:101F4000B09165025B968C915B97882319F080E8CD
:101F5000898301C019825C968C915C97882319F063
:101F60008981806389831296ED91FC9113970D907E
:101F7000BC91A02D808157966C9141E09E012F5F0E
:101F80003F4F0E943F07882319F42FEF3FEF07C010
:101F9000E0916402F0916502D58620E030E0C9014D
:101FA0000F90CF91DF911F910F91FF90EF90DF90F5
:101FB0000895DF93CF930F92CDB7DEB7982FE091BE
:101FC0006402F0916502858D891709F44AC099234E
:101FD00069F1868D882319F42FEF3FEF44C080E02C
:101FE0000E94200A80E00E941C0FE0916402F091A0
:101FF0006502878D90A10E944F0E1982E0916402C4
:10200000F09165020280F381E02D808163E241E07E
:102010009E012F5F3F4F0E943F07E0916402F091C5
:10202000650281E0858F0E94200A19C080E00E942D
:10203000200AE0916402F091650283858983028021
:10204000F381E02D808163E241E09E012F5F3F4FED
:102050000E943F07E0916402F0916502158E0E9494
:102060005F0C20E030E0C9010F90CF91DF9108951F
:102070006F927F928F929F92AF92BF92CF92DF9298
:10208000EF92FF920F931F93DF93CF9300D0CDB7C2
:10209000DEB76C013B014A01A0916402B091650278
:1020A0005D968C915D97882319F42FEF3FEF7CC0EC
:1020B00016968C911697882319F42EEF3FEF74C073
:1020C0001296ED91FC9113970D90BC91A02D00916B
:1020D00000011091010180811C966C9142E05E012B
:1020E0000894A11CB11C95010E949608882319F43C
:1020F0002DEF3FEF59C0998180E02A81E22EFF2425
:10210000E82AF92AEC14FD0428F4F401108221E0F5
:1021100030E04AC0E0916402F0916502A281B3818F
:1021200011968D919C911297969587958E159F0586
:10213000D0F40190F081E02D009100011091010197
:102140008C91638941E095010E949608882319F4D7
:102150002BEF3FEF29C0898184FF05C00E945F0CEF
:1021600022E030E021C0E0916402F0916502A2819A
:10217000B3810190F081E02D0091000110910101E7
:102180008C9165854C2D93010E949608882319F443
:1021900029EF3FEF09C0C701B6010E940E39615017
:1021A000F401608320E030E0C9010F900F90CF91DF
:1021B000DF911F910F91FF90EF90DF90CF90BF9034
:1021C000AF909F908F907F906F900895DF92EF92E5
:1021D000FF920F931F93DF93CF9300D0CDB7DEB75D
:1021E000D82EE82EFF24C70180779070892B11F03C
:1021F00081E005C0DD2011F0198202C080E48983EE
:10220000E0916402F0916502A281B3810190F081B6
:10221000E02D8C91658941E09E012F5F3F4F0E9428
:102220003F07A0916402B0916502882319F41696C5
:102230001C9230C089818F7B18968C9318971982D5
:10224000E6FC02C084E08983E5FC03C089818260EA
:102250008983E4FC03C0898181608983E3FC03C036
:102260008981886389831296ED91FC9113970D9073
:10227000BC91A02D808156966C9141E09E012F5F0C
:102280003F4F0E943F07882341F4E0916402F091A0
:10229000650216822FEF3FEF6CC0DD2031F088E041
:1022A000D81619F080E00E94C70AE0916402F0910C
:1022B0006502A281B3810190F081E02D00910001BF
:1022C000109101018C91648141E09E012E5F3F4F8E
:1022D0000E9496088823F1F29A81E0FE04C081E012
:1022E0008983906202C019829F7D9A83A0916402C3
:1022F000B09165025D968C915D979A81882311F06B
:10230000906801C09F779A831296ED91FC91139784
:102310000D90BC91A02D808196966C9141E09E011C
:102320002F5F3F4F0E943F07882309F4B3CFE0910E
:102330006402F0916502A281B3810190F081E02DE9
:102340008C91648141E09E012E5F3F4F0E943F07C8
:10235000882309F49FCFE0916402F0916502D68250
:10236000178662E370E080E090E00E94B13120E0E7
:1023700030E0C9010F900F90CF91DF911F910F9125
:10238000FF90EF90DF900895CF92DF92EF92FF924F
:102390000F931F93DF93CF93CDB7DEB729970FB677
:1023A000F894DEBF0FBECDBF7C016B01A09164022B
:1023B000B091650216968C91169780FD03C02FEFA1
:1023C0003FEF96C01296ED91FC9113970D90BC9142
:1023D000A02D0091000110910101808198966C91CF
:1023E00048E09E012F5F3F4F0E949608882319F412
:1023F0002CEF3FEF7DC0898180FD03C021E030E0FC
:1024000077C0888587FD72C086FD70C03B8120E063
:102410006A8170E0622B732BF701718360833D81C9
:1024200020E04C8150E0242B352B338322833F81E5
:1024300020E04E8150E0242B352B358324830091FE
:10244000640210916502882777FD8095982FF80126
:1024500024A135A1442737FD4095542F0E94E3382D
:10246000672F782F892F992787FD9A95F701718318
:10247000608362817381882777FD8095982FF801AA
:1024800026A137A1442737FD4095542F0E94E338F9
:10249000672F782F892F992787FD9A95F7017383E6
:1024A000628364817581882777FD8095982FF80174
:1024B00020A531A5442737FD4095542F0E94E338CD
:1024C000672F782F892F992787FD9A95F7017583B4
:1024D0006483C114D10439F00E94A331F6016083F2
:1024E00071838283938320E030E002C02AEF3FEFC4
:1024F000C90129960FB6F894DEBF0FBECDBFCF91AC
:10250000DF911F910F91FF90EF90DF90CF90089592
:102510002F923F924F925F926F927F928F929F92F3
:10252000AF92BF92CF92DF92EF92FF920F931F93E1
:10253000DF93CF93CDB7DEB764970FB6F894DEBFC5
:102540000FBECDBF3C014B014B8B5C8B1901E09161
:102550006402F0916502868D882319F02FEF3FEF1A
:1025600075C06115710519F42EEF3FEF6FC080E162
:1025700090E00E948432B92EC82ED92EA82EEE24C7
:10258000FF2463E0462E512C4C0E5D1E38C08301A3
:102590000E191F090131110510F000E110E094013E
:1025A0002E0D3F1DD601A601400F511F05C0F90198
:1025B00084918D932F5F3F4FA417B507C1F7C701D3
:1025C000B801A5010E94650A892B19F02DEF3FEF94
:1025D0003DC0C701B801A2010E94C20E892B19F0AB
:1025E0002CEF3FEF33C0C501B201A8010E94BF0626
:1025F000009719F02BEF3FEF29C0E00EF11EE61413
:10260000F70428F2FC89F9838B898A83E0916402BC
:10261000F0916502A281B3810190F081E02D8C914F
:10262000658D42E09E012F5F3F4F0E943F07882348
:1026300019F42AEF3FEF0AC0E0916402F0916502BD
:1026400081E0868F30A2278E20E030E0C9016496B9
:102650000FB6F894DEBF0FBECDBFCF91DF911F91B3
:102660000F91FF90EF90DF90CF90BF90AF909F9031
:102670008F907F906F905F904F903F902F90089534
:10268000EF92FF920F931F93DF93CF93CDB7DEB7F7
:102690002B970FB6F894DEBF0FBECDBF80E88D83B9
:1026A000E0916402F0916502A281B3810190F08112
:1026B000E02D15E0E12EF12CEC0EFD1E8C916589CC
:1026C00041E097010E943F07882319F42FEF3FEF65
:1026D00026C264E670E080E090E00E94B1311D8285
:1026E000E0916402F0916502A281B3810190F081D2
:1026F000E02D8C91658941E097010E943F07882376
:1027000019F42EEF3FEF0BC2E0916402F0916502E5
:10271000A281B3810190F081E02D00910001109120
:1027200001018C91618D46E097010E9496088823F3
:1027300019F42DEF3FEFF3C18A8590E0817090701E
:10274000880F991F880F991F288530E021703070FD
:10275000220F331F982F922B8E818170982B91F02E
:10276000913031F4E0916402F0916502968732C0B5
:10277000923019F02CEF3FEFD2C1E0916402F0915A
:10278000650227C0E0916402F0916502A281B381E5
:102790000190F081E02D00910001109101018C91D8
:1027A000638141E097010E949608882319F42BEF7A
:1027B0003FEFB5C18D818F7019F42AEF3FEFAFC1A4
:1027C000E0916402F0916502843019F481E086871B
:1027D00001C01686E0916402F09165028FEF868356
:1027E0008483858387832FEF3FEF32872187838719
:1027F000858732A321A381E08087838F148E108A7E
:10280000178671968AE011928A95E9F7E091640241
:10281000F0916502158E168E10A2178E80ED97E04E
:102820000E94FE0B892B19F026EF3FEF78C182E062
:102830000E94A50B892B19F025EF3FEF70C18AE2AA
:1028400090E00E94530B892B19F024EF3FEF67C1F2
:1028500082E390E00E944F0E892B19F023EF3FEFA7
:102860005EC180E00E94970D892B19F022EF3FEFA7
:1028700056C181E00E941C0F9CE07E010894E11C7F
:10288000F11C0091000110910101892F60E041E0ED
:1028900097019B870E9496089B85882399F08981E0
:1028A000883481F4E0916402F091650293A3198267
:1028B00083A16AE041E097010E943F07882309F461
:1028C00020C104C09F5F9031E1F61BC161E070E060
:1028D00080E090E00E94B1318FE08983E091640252
:1028E000F091650283A16AE041E097010E943F07F1
:1028F000882309F406C161E070E080E090E00E9466
:10290000B131E0916402F0916502009100011091F3
:10291000010183A160E143E097010E9496088823AA
:1029200009F4EFC0E0916402F0916502898190E0C2
:1029300080589F4F95A384A38A8190E080589F4F31
:1029400097A386A38B8190E080589F4F91A780A783
:10295000198283A16AE041E097010E943F07882322
:1029600009F4CFC061E070E080E090E00E94B131F6
:1029700080E00E941C0F80E48983E0916402F09162
:102980006502A281B3810190F081E02D8C91628D6E
:1029900041E097010E943F07882309F4B2C0E0910B
:1029A0006402F091650283A180688983A281B3816A
:1029B0000190F081E02D8C91668D41E097010E949D
:1029C0003F07882309F49DC082E08983E091640277
:1029D000F0916502A281B3810190F081E02D8C918C
:1029E000678D41E097010E943F07882309F489C061
:1029F00088E88983E0916402F0916502A281B38145
:102A00000190F081E02D8C9160A141E097010E943E
:102A10003F07882309F475C0E0916402F0916502D4
:102A200083A18983A281B3810190F081E02D8C91F3
:102A300061A141E08E010F5F1F4F98010E943F0787
:102A4000882309F45EC08AE08983E0916402F091F2
:102A50006502A281B3810190F081E02D8C9162A189
:102A600041E098010E943F07882309F44AC081E8A9
:102A70008983E0916402F0916502A281B3810190A3
:102A8000F081E02D8C9163A141E098010E943F0705
:102A90008823B9F181E08983E0916402F0916502B5
:102AA000A281B3810190F081E02D8C9166A141E07B
:102AB00098010E943F07882321F183E08983E091F8
:102AC0006402F0916502A281B3810190F081E02D52
:102AD0008C9167A141E098010E943F07882389F00B
:102AE00080E88983E0916402F0916502A281B3815C
:102AF0000190F081E02D8C9161A541E098010E9448
:102B00003F078AE090E00E940F0B892B19F021EF1C
:102B10003FEF05C080E00E94E61020E030E0C901F0
:102B20002B960FB6F894DEBF0FBECDBFCF91DF91CD
:102B30001F910F91FF90EF9008959C0182309105B5
:102B400018F02FEF3FEF16C0809380029093810220
:102B50008BE090E0AC01249FC001259F900D349F35
:102B6000900D112488599D4F90937F0280937E028F
:102B700020E030E0C9010895E0917E02F0917F02EB
:102B80001182108213821282158214821782168299
:102B900011861086128608952F923F924F925F926F
:102BA0006F927F928F929F92AF92BF92CF92DF925D
:102BB000EF92FF920F931F93DF93CF93CDB7DEB7C2
:102BC000AC970FB6F894DEBF0FBECDBF9EA38DA30A
:102BD00078A76FA32A013AA729A71CA70BA7A701CB
:102BE000D8011D921C92E0917E02F0917F028285B5
:102BF00090E0BE016F5F7F4F0E9438109CA38BA3B3
:102C0000892B09F0B2C1E0917E02F0917F02FAA314
:102C1000E9A38681978184719070892B11F440E03B
:102C200017C1A980BB24CC24DD24DA2CCC24BB24FE
:102C3000AA248A8190E0A0E0B0E0DC0199278827EF
:102C4000A82AB92ACA2ADB2A8C8190E0A0E0B0E049
:102C5000A82AB92ACA2ADB2A8B8190E0A0E0B0E03A
:102C6000BA2FA92F982F8827A82AB92ACA2ADB2A7F
:102C7000D201AD92BD92CD92DC9213972D8130E0BE
:102C800040E050E0522F4427332722278E8190E0E6
:102C9000A0E0B0E0DC0199278827282B392B4A2BAC
:102CA0005B2B888590E0A0E0B0E0282B392B4A2BE5
:102CB0005B2B8F8190E0A0E0B0E0BA2FA92F982F76
:102CC0008827282B392B4A2B5B2BF2012483358351
:102CD00046835783298530E040E050E0522F442757
:102CE000332722278A8590E0A0E0B0E0DC01992715
:102CF0008827282B392B4A2B5B2B8C8590E0A0E072
:102D0000B0E0282B392B4A2B5B2B8B8590E0A0E081
:102D1000B0E0BA2FA92F982F8827282B392B4A2BC0
:102D20005B2BD20118962D933D934D935C931B978B
:102D30002D8530E040E050E0522F442733272227F2
:102D40008E8590E0A0E0B0E0DC0199278827282B51
:102D5000392B4A2B5B2B888990E0A0E0B0E0282B30
:102D6000392B4A2B5B2B8F8590E0A0E0B0E0BA2F87
:102D7000A92F982F8827282B392B4A2B5B2B2487A8
:102D80003587468757875601DD24B7FCD094CD2C74
:102D900064807580868097803401992477FC9094B4
:102DA000892C20843184428453841201552437FCB9
:102DB0005094452C9A01552737FD5095452FCA014F
:102DC000B9010E94E3387B018C01C601B501A6015F
:102DD00095010E94E338E60EF71E081F191FC40173
:102DE000B301A40193010E94E338E60EF71E081F09
:102DF000191FC201B101A20191010E94E338E60E40
:102E0000F71E081F191F80E090E0A0E0B1EFE80E68
:102E1000F91E0A1F1B1F91E0E91690E0F90690E0E9
:102E2000090792E0190758F00E945F0CABA5BCA5FA
:102E30001D921C92E3E0F0E0FCA3EBA396C0ABA5CF
:102E4000BCA58D919C91119791608D939C9340E1CD
:102E5000E9A1FAA1868186FF39C0A42FB0E0FE0166
:102E6000EA0FFB1F228130E0FE01EA0FFB1F918178
:102E700080E0282B392BEFA1F8A531832083FE01B8
:102E8000EA0FFB1F338120E0FE01EA0FFB1F848164
:102E900090E0282B392BEFA1F8A533832283FE0184
:102EA000EA0FFB1F358120E0868190E0282B392B2B
:102EB000AFA1B8A515963C932E9314974A5FEBA546
:102EC000FCA580819181886091838083A9A1BAA1AA
:102ED00016968D919C91179780789170892BC1F1EE
:102EE000A42FB0E0FE01EA0FFB1F228130E0FE01BB
:102EF000EA0FFB1F918180E0282B392BEDA1FEA169
:102F000031832083FE01EA0FFB1F338120E0FE01A5
:102F1000EA0FFB1F848190E0282B392BEDA1FEA145
:102F200033832283FE01EA0FFB1F358120E0868177
:102F300090E0282B392BADA1BEA115963C932E9382
:102F40001497EBA5FCA58081918180679183808394
:102F500089A59AA5892B49F00E94A331A9A5BAA5F4
:102F60006D937D938D939C9313978BA19CA1AC96AD
:102F70000FB6F894DEBF0FBECDBFCF91DF911F918A
:102F80000F91FF90EF90DF90CF90BF90AF909F9008
:102F90008F907F906F905F904F903F902F9008950B
:102FA000DF93CF93CDB7DEB729970FB6F894DEBF86
:102FB0000FBECDBF9E012F5F3F4F882349F0D9013F
:102FC000EBE1F1E089E001900D928150E1F708C05A
:102FD000D901E2E1F1E089E001900D928150E1F741
:102FE00088EB94E069E070E0AE014F5F5F4F0E94B4
:102FF000650A29960FB6F894DEBF0FBECDBFCF91FC
:10300000DF9108950F931F93DF93CF93CDB7DEB772
:1030100028970FB6F894DEBF0FBECDBF8C01893C58
:103020009105F0F488EC90E0B8010E940E396150EF
:10303000704079836A8386E192E062E070E0AE01DD
:103040004F5F5F4F0E94650A892B51F481EC9AE033
:103050006CE070E044E251E00E94650A892B19F0AF
:103060002FEF3FEF08C0E0917E02F0917F021187C1
:10307000008720E030E0C90128960FB6F894DEBF43
:103080000FBECDBFCF91DF911F910F910895EF92A9
:10309000FF920F931F93DF93CF9300D000D000D007
:1030A000CDB7DEB78C01AC0143705070FA01E75C1C
:1030B000FE4F80818983C801E3E096958795EA9564
:1030C000E1F783709070FC01E75CFE4F20812A835A
:1030D000D80176E0B695A7957A95E1F7A370B07020
:1030E000FD01E75CFE4F20812B834A5C5E4FFA01B5
:1030F00020812C838A5C9E4FFC0180818D83AA5C99
:10310000BE4F8C918E8386E294E063E070E07E0196
:103110000894E11CF11CA7010E94650A892B09F0A3
:103120004BC08AE294E063E070E0AE014C5F5F4F19
:103130000E94650A892B09F03FC0D701E3E3F1E063
:1031400083E001900D928150E1F7DE011496E0E3F7
:10315000F1E083E001900D928150E1F702FF06C09B
:103160008981816089838C8181608C8305FF06C0A1
:103170008A8181608A838D8181608D8310FF06C082
:103180008B8181608B838E8181608E8380E494E06B
:1031900063E070E0AE014F5F5F4F0E94650A892BCC
:1031A00059F481E394E063E070E0AE014C5F5F4F5F
:1031B0000E94650A892B19F02FEF3FEF08C0E091BC
:1031C0007E02F0917F021583048320E030E0C90184
:1031D00026960FB6F894DEBF0FBECDBFCF91DF911C
:1031E0001F910F91FF90EF900895DF93CF9300D040
:1031F00000D0CDB7DEB7882349F080E2898388E22A
:103200008A8380E38B8388E38C8308C083EA93EA14
:10321000A3EAB3EA89839A83AB83BC838EE99AE0FD
:1032200064E070E0AE014F5F5F4F0E94650A0E944C
:103230005F0C0F900F900F900F90CF91DF9108953A
:10324000DF93CF9300D000D0CDB7DEB7882349F00D
:1032500080EC898382EC8A8384EC8B8386EC8C837C
:1032600008C08BE89BE8ABE8BBE889839A83AB8313
:10327000BC8388E99AE064E070E0AE014F5F5F4F85
:103280000E94650A0E945F0C0F900F900F900F90A4
:10329000CF91DF910895AF92BF92CF92DF92EF92DC
:1032A000FF920F931F93DF93CF93CDB7DEB72A978B
:1032B0000FB6F894DEBF0FBECDBF8C0182E08983CC
:1032C0008AEC8A8383EE8B8389E08C8388E690E0A6
:1032D00064E070E0AE014F5F5F4F0E94650A83EAD1
:1032E0008983B0E4AB2EB12CA022B12206FF06C028
:1032F00080EC8A8388EC8B8382EC02C08A838B8388
:103300008C83A0E8EA2EA1E0FA2EE022F122E1145B
:10331000F10431F084EC8D838CEC8E8386EC03C059
:1033200083EA8D838E838F8383EA888789878A8760
:1033300087EA9AE06AE070E0AE014F5F5F4F0E945B
:10334000650AF3E0CF2ED12CC022D122C114D104C2
:1033500011F080E201C088ED898386EB9AE061E09C
:1033600070E0AE014F5F5F4F0E94650A05FF02C02B
:1033700081E001C080E00E94D017E114F104D9F08F
:1033800010FF08C082EB89838BE88A8386EB8B83EE
:103390008BE907C080EB898380E88A8384EB8B8389
:1033A00080E98C8382EA9AE064E070E0AE014F5FCE
:1033B0005F4F0E94650A02FF02C081E001C080E009
:1033C0000E94201904FF02C081E001C080E00E9439
:1033D000F518E0917E02F0917F02C8018860978322
:1033E00086830E945F0CE0917E02F0917F0212863C
:1033F000AB2811F086E08287EF2819F082858A5F7A
:10340000828704711070012B19F08285805F82879A
:10341000CD2819F082858C5F828780E090E02A9623
:103420000FB6F894DEBF0FBECDBFCF91DF911F91D5
:103430000F91FF90EF90DF90CF90BF90AF900895E5
:1034400086EF9BE061ED70E040E054E028EC30E076
:103450000E94881208952F923F924F925F926F922E
:103460007F928F929F92AF92BF92CF92DF92EF9214
:10347000FF920F931F93DF93CF93CDB7DEB764977F
:103480000FB6F894DEBF0FBECDBF1092C7021092E8
:10349000C60288EC92E06EEC72E046EB52E020E06F
:1034A00030E006EC12E0F4EDEF2EF2E0FF2E0E9489
:1034B000CC159093D6028093D502009709F0DAC21A
:1034C0008091D4028230E8F088EC92E06EEC72E0F9
:1034D00046EB52E020E030E006EC12E0E4EDEE2EA8
:1034E000E2E0FE2E0E94CC159C019093D6028093C0
:1034F000D5028091D402823008F4BBC2232B21F381
:10350000B8C26091B6027091B7028091B8029091F2
:10351000B9020E940C3720E030E040E850E30E94FE
:1035200018381B012C016093B6027093B702809388
:10353000B8029093B9026091BA027091BB02809177
:10354000BC029091BD020E940C3720E030E040E8C0
:1035500050E30E94183869837A838B839C8360933D
:10356000BA027093BB028093BC029093BD0260913B
:10357000BE027091BF028091C0029091C1020E9470
:103580000C3720E030E040E850E30E9418385B013F
:103590006C016093BE027093BF028093C00290934F
:1035A000C1026091C2027091C3028091C4029091E5
:1035B000C5020E940C3720E030E040E850E30E9452
:1035C00018386D837E838F8398876093C2027093CF
:1035D000C3028093C4029093C502C601B501A6013F
:1035E00095010E94183869877A878B879C8760933A
:1035F000D9027093DA028093DB029093DC026D8132
:103600007E818F8198859B01AC010E9418386D875F
:103610007E878F87988B6093DD027093DE028093A4
:10362000DF029093E002C201B101A20191010E9468
:103630001838698B7A8B8B8B9C8B6093E10270932B
:10364000E2028093E3029093E40269817A818B81A4
:103650009C812D813E814F8158850E9418387B01C5
:103660008C01C201B101A60195010E9418389B018D
:10367000AC01C801B7010E948F353B014C0160933A
:10368000E5027093E6028093E7029093E80225EE4C
:1036900032EF4FEF5EE30E940D381816BCF4C601FE
:1036A000B501A20191010E941A369B01AC010E9452
:1036B000903560938A0270938B0280938C02909372
:1036C0008D028BED9FE0A9ECBFE322C0C401B301E2
:1036D00025EE32EF4FEF5EEB0E946D3688236CF5DE
:1036E000C601B501A20191010E941A3620E030E026
:1036F00040E050EC0E94183860938A0270938B026D
:1037000080938C0290938D028BED9FE0A9ECBFEB30
:103710008093860290938702A0938802B0938902D7
:1037200080E090E0A0E0B0E080938202909383027A
:10373000A0938402B093850294C069817A818B81C1
:103740009C81A20191010E9418387B018C01C60165
:10375000B5012D813E814F8158850E9418389B010B
:10376000AC01C801B7010E9490359B01AC010E94D9
:1037700090357B018C016D857E858F85988929899F
:103780003A894B895C890E94903520E030E040E026
:1037900050EC0E94183820E030E040E85FE30E94DF
:1037A00090359B01AC01C801B7010E941A366093A5
:1037B0008A0270938B0280938C0290938D02C401D5
:1037C000B301A40193010E9490350E94F4356093E7
:1037D00086027093870280938802909389026981A0
:1037E0007A818B819C81A60195010E9418387B010A
:1037F0008C016D817E818F819885A20191010E944B
:1038000018389B01AC01C801B7010E948F359B019C
:10381000AC010E9490357B018C0169857A858B858E
:103820009C852D853E854F8558890E94903520E0E6
:1038300030E040E050EC0E94183820E030E040E8F2
:103840005FE30E9490359B01AC01C801B7010E9463
:103850001A3660938202709383028093840290935D
:10386000850260918202709183028091840290911E
:10387000850221EE3EE245E652E40E941838905857
:1038800060938202709383028093840290938502F6
:1038900060918602709187028091880290918902DE
:1038A00021EE3EE245E652E40E94183890586093BB
:1038B00086027093870280938802909389026091B8
:1038C0008A0270918B0280918C0290918D0221EE80
:1038D0003EE245E652E40E9418385B016C0120E0AC
:1038E00030E044E353E40E9490357B018C0120E0FA
:1038F00030E044E353E40E940D38181654F4C60136
:10390000B50120E030E044E353E40E948F357B01B1
:103910008C01D801C701B05880938A0290938B0222
:10392000A0938C02B0938D026091CC027091CD0275
:10393000882777FD8095982F0E940C3720E030E093
:1039400043E851E40E94713660938E0270938F02B7
:1039500080939002909391026091CA027091CB0281
:10396000882777FD8095982F0E940C3720E030E063
:1039700043E851E40E94713660939202709393027F
:1039800080939402909395026091C8027091C9024D
:10399000882777FD8095982F0E940C3720E030E033
:1039A00043E851E40E947136609396027093970247
:1039B00080939802909399026091CE027091CF0209
:1039C000882777FD8095982F0E940C3720E030E003
:1039D00040E858E30E94183860939A0270939B0263
:1039E00080939C0290939D026091D0027091D102CD
:1039F000882777FD8095982F0E940C3720E030E0D3
:103A000040E858E30E94183860939E0270939F022A
:103A10008093A0029093A1026091D2027091D30290
:103A2000882777FD8095982F0E940C3720E030E0A2
:103A300040E858E30E9418382091B2023091B30256
:103A40004091B4025091B5020E948F356093A2025A
:103A50007093A3028093A4029093A5028091D70251
:103A60009091D80201969093D8028093D70280E07B
:103A700001C081E864960FB6F894DEBF0FBECDBFDB
:103A8000CF91DF911F910F91FF90EF90DF90CF903A
:103A9000BF90AF909F908F907F906F905F904F906E
:103AA0003F902F9008958091E9029091EA0262E39D
:103AB00070E00E940E398091D7029091D80286174B
:103AC000970710F481E008958BEE92E060E070E0DB
:103AD0000E94C4119093D6028093D5020097D9F525
:103AE0006091EB027091EC02882777FD8095982F0A
:103AF0000E940C376093A6027093A7028093A802DD
:103B00009093A9026091ED027091EE02882777FDF3
:103B10008095982F0E940C376093AA027093AB0295
:103B20008093AC029093AD026091EF027091F0022D
:103B3000882777FD8095982F0E940C376093AE02FE
:103B40007093AF028093B0029093B1021092D802AA
:103B50001092D70280E008950E945F0C0895EF92C2
:103B6000FF920F931F938B017A017093EA02609387
:103B7000E9021092D8021092D7020E94E1080E9436
:103B80002F0980E090E0A0E0B0E08093B202909333
:103B9000B302A093B402B093B50280E090E00E941B
:103BA00040139093D6028093D50289E70E94E610D5
:103BB0009093D6028093D50280ED97E00E94FE0B91
:103BC0009093D6028093D50282E00E94A50B909339
:103BD000D6028093D50282E390E00E940F0B90936F
:103BE000D6028093D50285ED92E00E94110A88E703
:103BF0000E94970D9093D6028093D50280E090E0CA
:103C00000E949D150E94BC150E94201A9093D60216
:103C10008093D502C7010E9447189093D6028093E3
:103C2000D502C8010E9402189093D6028093D50253
:103C300081E00E94D90F9093D6028093D50280E74D
:103C400091E00E944B199093D6028093D50280E0B8
:103C50001F910F91FF90EF900895FC0180E090E09C
:103C6000A0E0B0E080879187A287B38784839583A3
:103C7000A683B78380839183A283B383808F918F40
:103C8000A28FB38F848B958BA68BB78B848F958FE8
:103C9000A68FB78F84A395A3A6A3B7A380A391A350
:103CA000A2A3B3A384879587A687B787808B918BC0
:103CB000A28BB38B80E090E0089520E030E040E0FC
:103CC00050E0FC01248735874687578708952F9257
:103CD0003F924F925F926F927F928F929F92AF929C
:103CE000BF92CF92DF92EF92FF920F931F93CF93E9
:103CF000DF93EC013A014B0118012901CB01BA0114
:103D00002C813D814E815F810E941838A201910172
:103D10000E9418382C853D854E855F850E94903520
:103D20005B016C016C877D878E879F87E88CF98C9F
:103D30000A8D1B8DA80197010E940D38181664F09A
:103D400017FB109517F91095C601B501A801970149
:103D50000E946D36882324F4EC86FD860E871F872B
:103D600068A179A18AA19BA1A20191010E9471364B
:103D70009B01AC01C401B3010E948F35688B798B24
:103D80008A8B9B8BECA0FDA00EA11FA1A80197011F
:103D90000E948F3521EB30E945EC5EE30E94183834
:103DA0009B01AC01C801B7010E9490355B016C0119
:103DB000688B798B8A8B9B8BC401B30128813981F5
:103DC0004A815B810E9418382C853D854E855F8530
:103DD0000E9490357B018C01C601B501288539858B
:103DE0004A855B850E9418389B01AC01C801B70168
:103DF0000E948F356C8F7D8F8E8F9F8FEC88FD8812
:103E00000E891F89A80197010E940D38181624F405
:103E1000EC8EFD8E0E8F1F8F8C899D89AE89BF8998
:103E20007C018D0117FB109517F910956C8D7D8D18
:103E30008E8D9F8DA80197010E946D36882324F4F2
:103E4000EC8EFD8E0E8F1F8F68A279A28AA29BA294
:103E500088899989AA89BB898CA39DA3AEA3BFA396
:103E6000DF91CF911F910F91FF90EF90DF90CF9056
:103E7000BF90AF909F908F907F906F905F904F908A
:103E80003F902F9008958091F1029091F20253E0BB
:103E9000959587955A95E1F79093890080938800CE
:103EA0008091F3029091F40243E0959587954A95AD
:103EB000E1F78093B4008091F5029091F60233E02F
:103EC000959587953A95E1F78093FC028091F702EA
:103ED0009091F80223E0959587952A95E1F78093D4
:103EE000FA028091FC0280958093FB028091FA0295
:103EF00080958093F90208951F920F920FB60F924A
:103F000011248F939F938091FE02882359F480910E
:103F1000FA0281115D9A88B59091FA02980F98BDC6
:103F200081E008C0813049F488B59091FA02980F79
:103F300098BD82E08093FE0213C0823041F45D9808
:103F400088B59091F902980F98BD83E0F3CF833044
:103F500039F498B58091F902890F88BD1092FE025C
:103F60009F918F910F900FBE0F901F9018951F92E9
:103F70000F920FB60F9211248F939F938091FD02A1
:103F8000882359F48091FC0281115E9A87B5909143
:103F9000FC02980F97BD81E008C0813049F487B5D5
:103FA0009091FC02980F97BD82E08093FD0213C0B0
:103FB000823041F45E9887B59091FB02980F97BDCF
:103FC00083E0F3CF833039F497B58091FB02890FFA
:103FD00087BD1092FD029F918F910F900FBE0F90A1
:103FE0001F9018958091020161E00E9445328091F6
:103FF000030161E00E9445328091040161E00E946A
:1040000045328091050161E00E944532E0E8F0E030
:10401000808180688083E0EBF0E080818062808333
:1040200014BCEEE6F0E08081846080838081826051
:1040300080830895AC018091230390E0860F911D49
:1040400080970CF03DC0FA01762F30E0ACE80DC04F
:10405000208198E0822F8327369580FD3A27915062
:1040600011F02695F7CF31967150772389F7FA0131
:10407000E60FF11D30836F5FDA0120E030E21EC0F1
:1040800080912203803210F010922203909122033B
:10409000E92FF0E0EC5DFC4F8C9180839F5F909363
:1040A0002203809123038F5F809323038091230356
:1040B000813210F0309323032F5F1196261700F3FF
:1040C0000895CF93DF93EC0180910103843008F4CD
:1040D00049C0DE0120E0809101038823E9F090913E
:1040E000000380910103981738F480910103E09157
:1040F0000003F0E0B09605C0E09100038091010359
:10410000F0E0E81BF109EE5FFC4F80818C93809119
:1041100001038150809301032F5F11962430D9F65B
:10412000FE0130E043E05CE80CC0208198E0822F83
:104130008327369580FD3527915011F02695F7CFCE
:104140003196415090F78B81381719F420E030E018
:104150000BC08091FF028F5F8093FF0210920003DB
:10416000109201032FEF3FEFC901DF91CF91089526
:104170001F920F920FB60F9211242F938F939F933C
:10418000EF93FF932EB5809123038823F1F0909154
:10419000220380912303981738F480912303E09140
:1041A0002203F0E0B09605C0E09122038091230342
:1041B000F0E0E81BF109EC5DFC4F80818EBD809141
:1041C000230381508093230301C01EBC8091000310
:1041D000803210F01092000380910003E82FF0E08D
:1041E000EE5FFC4F20838F5F80930003809101037B
:1041F0008F5F8093010380910103813218F080E288
:1042000080930103FF91EF919F918F912F910F90D8
:104210000FBE0F901F90189580930C0560930D05AD
:1042200070930E058CE095E063E00E941A200895DB
:104230006091FE047091FF0480910005909101054A
:104240000E94D9369B01AC0182E1B9010E940C2188
:104250006091DC047091DD048091DE049091DF04B4
:104260000E94D9369B01AC0183E1B9010E940C2167
:104270006091E0047091E1048091E2049091E30484
:104280000E94D9369B01AC0184E1B9010E940C2146
:1042900060915B0470915C0480915D0490915E0478
:1042A0000E94D9369B01AC0185E1B9010E940C2125
:1042B00008956F927F928F929F92AF92BF92CF920A
:1042C000DF92EF92FF920F931F93CF93DF932AE930
:1042D000A22E22E0B22E93E2692E95E0792E8FE293
:1042E000882E85E0982E6301E401F501E080F180DD
:1042F00002811381C801B701F60120813181428119
:1043000053810E946D3688232CF4F601E082F182FD
:1043100002831383C801B701288139814A815B81F7
:104320000E940D38181624F4E882F9820A831B8350
:1043300084E090E0A80EB91EC80ED91E249696EA15
:10434000A91692E0B90689F68091040564E10E94FD
:104350000239992341F51CE00F2EF0E0CF2EF0E05A
:10436000DF2EF0E0EF2EF0E0FF2EF02DF401608163
:1043700071818281938120E030E04AE754E40E9419
:1043800018380E94D9369B01AC01812FB9010E94D7
:104390000C21F401C192D192E192F1924F011F5F81
:1043A0001F3021F729C09A3039F51FE00F2EF0E0B9
:1043B000CF2EF0E0DF2EF0E0EF2EF0E0FF2EF02D1C
:1043C000F301608171818281938120E030E04AE7CE
:1043D00054E40E9418380E94D9369B01AC01812F09
:1043E000B9010E940C21F301C192D192E192F192A4
:1043F0003F011F5F123121F7DF91CF911F910F9184
:10440000FF90EF90DF90CF90BF90AF909F908F90F4
:104410007F906F9008951F93CF93DF93CEE8D2E003
:1044200011E0699179918991999120E030E048EC0F
:1044300052E40E9418380E94D9369B01AC01812FAA
:10444000B9010E940C211F5F143059F7DF91CF9101
:104450001F9108951F93CF93DF93C2E8D2E014E039
:10446000699179918991999120E030E048EC52E48A
:104470000E9418380E94D9369B01AC01812FB901E6
:104480000E940C211F5F173059F760910805709149
:10449000090580910A0590910B0520E030E048EC79
:1044A00052E40E9418380E94D9369B01AC0187E083
:1044B000B9010E940C21DF91CF911F9108951F93A4
:1044C000CF93DF93C0E0D0E018E0E0910601F0E088
:1044D0000C2E02C0F595E7950A94E2F7E370F070B0
:1044E000EE0FFF1FEF50FD4F60817181812F0E9401
:1044F0000C2122961F5F1C3041F7DF91CF911F9155
:104500000895809107058330C9F0843028F4813004
:1045100041F08230B9F508C08430E1F0853091F582
:1045200023C00E94592108958091040564E10E94EE
:104530000239992351F40E940B22089580910405B9
:1045400064E10E9402399923B1F09A30D9F40E94B3
:104550005F2208958091040564E10E940239992345
:1045600089F40E94182108958091040564E10E9455
:104570000239992319F40E942A2208959A3011F4DD
:104580000E9418210895FC018181882321F470E0A4
:1045900060E090E032C090818181A381B48198175E
:1045A00048F431812081828190E0820F911D831B2C
:1045B000910905C08081218190E0821B9109880FBB
:1045C000991F880F991FA80FB91F8D919D910D906C
:1045D000BC91A02D8093FE059093FF05A09300064B
:1045E000B09301068181815081837091FE056091B5
:1045F000FF059091000680910106272F362F492F45
:10460000582FB901CA0108956F927F928F929F929D
:10461000AF92BF92CF92DF92EF92FF920F931F93D0
:1046200080911C0590911D05019690931D05809326
:104630001C05895E9D4F20F08FEF80930505A8C073
:104640000E942B1A992787FD90959093450380939C
:104650004403892B09F09BC010911E05183CF8F407
:104660001431D0F060911F057091200580912105D3
:10467000909122052091A2023091A3024091A402C0
:104680005091A5020E94903560931F0570932005FC
:1046900080932105909322051F5F10931E05609063
:1046A0008E0270908F028090900290909102C401CF
:1046B000B30120E030E040E85FEB0E940D381816AF
:1046C0000CF065C0A0909202B0909302C09094024A
:1046D000D0909502C601B50120E030E040E85FEBE4
:1046E0000E940D3818160CF052C0E0909602F0901F
:1046F00097020091980210919902C801B70120E039
:1047000030E040E85FEB0E940D3818160CF03FC017
:10471000C401B30120E030E040E85FE30E946D3661
:104720008823ACF5C601B50120E030E040E85FE346
:104730000E946D3688235CF5C801B70120E030E0A7
:1047400040E85FE30E946D3688230CF560911E05FA
:1047500070E064517040882777FD8095982F0E9403
:104760000C379B01AC0160911F0570912005809171
:104770002105909122050E9471366093B2027093D8
:10478000B3028093B4029093B50280E001C08FEF32
:104790001F910F91FF90EF90DF90CF90BF90AF905F
:1047A0009F908F907F906F90089580914703909194
:1047B00048039093F2028093F1029093F402809365
:1047C000F3029093F6028093F5029093F80280939F
:1047D000F7020E94431F08952F923F924F925F92DB
:1047E0006F927F928F929F92AF92BF92CF92DF9201
:1047F000EF92FF920F931F93DF93CF93CDB7DEB766
:1048000061970FB6F894DEBF0FBECDBF0E94531D57
:10481000992787FD909590934503809344030E94C8
:104820002B1A992787FD9095909345038093440315
:1048300097FF06C00E94D5238DEF809305056AC5BA
:10484000809104058F5F80930405883C11F41092D9
:1048500004050E94A331209118053091190540915B
:104860001A0550911B05621B730B840B950B0E945C
:104870000A3720E030E04AE754E40E947136609342
:1048800008017093090180930A0190930B010E9423
:10489000A331609318057093190580931A059093BE
:1048A0001B058091080190910901A0910A01B09126
:1048B0000B018A879B87AC87BD87BC01CD012AE0AD
:1048C00037ED43E25CE30E940D38181634F48EEFA6
:1048D000809305050E94D5231DC58091FC04882383
:1048E00009F457C281508093FC046091A202709138
:1048F000A3028091A4029091A50220E030E845E750
:1049000054E40E9418381B012C016093C00470937A
:10491000C1048093C2049093C3046091D404709145
:10492000D5048091D6049091D7042091F804309159
:10493000F9044091FA045091FB040E9418382A852A
:104940003B854C855D850E9418389B01AC016091C8
:10495000C8047091C9048091CA049091CB040E944C
:1049600090355B016C016093C8047093C904809317
:10497000CA049093CB04E090D404F090D504009145
:10498000D6041091D704C801B7012091F4043091E6
:10499000F5044091F6045091F7040E9418382A85D6
:1049A0003B854C855D850E9418382091E00430914C
:1049B000E1044091E2045091E3040E9490356E8737
:1049C0007F87888B998BC801B7012091F0043091C3
:1049D000F1044091F2045091F3040E9418382A85A2
:1049E0003B854C855D850E9418389B01AC01609128
:1049F000CC047091CD048091CE049091CF040E949C
:104A000090353B014C016093CC047093CD048093AE
:104A1000CE049093CF04C201B101A60195010E947A
:104A200090352A853B854C855D850E9418387B0131
:104A30008C016093D0047093D1048093D20490933E
:104A4000D30420E030E040E05FE30E9418389B018F
:104A5000AC016E857F85888999890E9490352A8569
:104A60003B854C855D850E9418382091D804309193
:104A7000D9044091DA045091DB040E9490355B0127
:104A80006C016093D8047093D9048093DA049093F6
:104A9000DB04A40193010E9490356093DC047093C1
:104AA000DD048093DE049093DF046E857F85888922
:104AB0009989A80197010E9490356093E004709352
:104AC000E1048093E2049093E3049091B704809111
:104AD000B904981711F41092B7042091B704822FEB
:104AE00090E0880F991F880F991FE091BA04F09108
:104AF000BB04E80FF91FA082B182C282D3822F5F6C
:104B00002093B7049091B8048091B904981728F4C1
:104B10008091B8048F5F8093B8046091FE04709117
:104B2000FF0480910005909101052091DC043091F3
:104B3000DD044091DE045091DF040E948F355B015B
:104B40006C016093E4047093E5048093E604909311
:104B5000E704E0906704F090680400916904109104
:104B60006A04C801B701A80197010E949035A80105
:104B700097010E9418389B01AC0160E070E08AE761
:104B800093E40E9471367B018C016093BC047093A6
:104B9000BD048093BE049093BF04A80197010E94B6
:104BA00090359B01AC01C601B5010E940D38181665
:104BB0007CF4C601B501A80197010E948F3520E061
:104BC00030E04AEF53E40E9418380E947F3820C03A
:104BD000C801B70120E030E040E050EC0E941838F6
:104BE0009B01AC01C601B5010E946D368823CCF44F
:104BF000C601B5019058A80197010E948F3520E0A9
:104C000030E04AEF53E40E9418380E947F389058F1
:104C10006093E8047093E9048093EA049093EB04B2
:104C20001EC0009108011091090120910A013091E4
:104C30000B0187E694E0B601A5010E94671E8091F2
:104C4000830490918404A0918504B091860480939C
:104C5000E8049093E904A093EA04B093EB04609114
:104C6000E8047091E9048091EA049091EB042091AA
:104C7000E0043091E1044091E2045091E3040E9489
:104C80008F35AB01BC010091080110910901209101
:104C90000A0130910B018FE894E00E94671EE090BA
:104CA000C404F090C5040091C6041091C70460913B
:104CB000AB047091AC048091AD049091AE0420914E
:104CC000C0043091C1044091C2045091C3040E94B9
:104CD0008F35A80197010E948F352BEA34E242E715
:104CE0005DE30E9418389B01AC01C801B7010E9426
:104CF0009035AB01BC01CA01DB018093C4049093E1
:104D0000C504A093C604B093C70400910801109194
:104D1000090120910A0130910B018FE394E00E9478
:104D2000671E8091FD048823D9F06091020570917F
:104D30000305882777FD8095982F0E940C372091D6
:104D40005B0430915C0440915D0450915E040E94CC
:104D500090350E94D93670931705609316051BC0D5
:104D600087E694E00E945D1E8FE894E00E945D1E3D
:104D70008FE394E00E945D1E80E090E0A0E0B0E050
:104D80008093C4049093C504A093C604B093C70451
:104D900002C01092FD04E0908A02F0908B02009114
:104DA0008C0210918D02C801B70120E030E040E094
:104DB00050E00E940D3818165CF4C801B70120E0DD
:104DC00030E048E452E40E940D3818165CF01AC036
:104DD000C801B70120E030E048E452EC0E946D3693
:104DE000882384F48091820290918302A0918402AE
:104DF000B09185028093080590930905A0930A0558
:104E0000B0930B05E0908602F09087020091880233
:104E100010918902C801B70120E030E040E050E085
:104E20000E940D3818165CF4C801B70120E030E08C
:104E300048E452E40E940D3818165CF01AC0C8010C
:104E4000B70120E030E048E452EC0E946D36882340
:104E500084F48091820290918302A0918402B091A7
:104E600085028093080590930905A0930A05B093E5
:104E70000B05E0900805F090090500910A051091D6
:104E80000B05A0908202B0908302C0908402D09063
:104E90008502C801B701A60195010E948F3520E067
:104EA00030E044E353EC0E946D3688235CF4D80173
:104EB000C701B0588093080590930905A0930A058F
:104EC000B0930B05E0900805F090090500910A05E4
:104ED00010910B05C801B701A60195010E948F35FD
:104EE00020E030E044E353E40E940D3818165CF4EF
:104EF000D801C701B0588093080590930905A09385
:104F00000A05B0930B052091100530911105B901E8
:104F100037FF04C066277727621B730B6630710565
:104F200094F1C9010E9422398BEF9FEFDB01A89F0A
:104F3000B001A99F700DB89F700D1124620F731FEF
:104F4000882777FD8095982F0E940C379B01AC0134
:104F500060913B0470913C0480913D0490913E042B
:104F60000E9418386093DF037093E0038093E1039D
:104F70009093E203A0920805B0920905C0920A0539
:104F8000D0920B051AC060910805709109058091B7
:104F90000A0590910B05A60195010E948F35AB0182
:104FA000BC01009108011091090120910A01309182
:104FB0000B0183EC93E00E94671E80910605882315
:104FC000B9F56091120570911305882777FD8095DA
:104FD000982F0E940C3720918602309187024091D1
:104FE0008802509189020E948F35AB01BC0100916B
:104FF00008011091090120910A0130910B018BEEFB
:1050000093E00E94671E6091140570911505882732
:1050100077FD8095982F0E940C3720918A0230915D
:105020008B0240918C0250918D020E948F3539C0C5
:10503000813009F044C060911205709113058827F2
:1050400077FD8095982F0E940C3720913B0430917A
:105050003C0440913D0450913E040E941838AB013D
:10506000BC01009108011091090120910A013091C1
:105070000B018BEE93E00E94671E60911405709106
:105080001505882777FD8095982F0E940C37209171
:105090003B0430913C0440913D0450913E040E94F9
:1050A0001838AB01BC010091080110910901209151
:1050B0000A0130910B0183E194E00E94671EBFED6D
:1050C000CB2EB3E0DB2EAEE8AA2EA2E0BA2E6624E9
:1050D0007724F8E28F2E912C689C7001699CF00C6B
:1050E000789CF00C1124EBE4F3E0EE0EFF1ED601E9
:1050F0006D917D918D919C91F5012191319141911D
:1051000051915F010E948F35AB01BC0100910801F4
:105110001091090120910A0130910B01C7010E94F1
:10512000671E0894611C711C48E250E0C40ED51E35
:1051300053E06516710481F6809106018987E82E97
:10514000FF246091160570911705882777FD8095DB
:10515000982F0E940C376D837E838F839887809170
:10516000B7039091B803A091B903B091BA038983B2
:105170009A83AB83BC836D817E818F8198852981E1
:105180003A814B815C810E9490351B012C01A090DB
:105190008F03B0909003C0909103D09092036090E1
:1051A0006703709068038090690390906A03870199
:1051B00003701070000F111F0F501D4FA6019501B5
:1051C0000E948F35A40193010E9490350E94D93628
:1051D000D8016D937C93F694E79487010670107064
:1051E0000F501D4FC201B101A60195010E949035DB
:1051F000A40193010E948F350E94D936F801718372
:1052000060836D817E818F81988529813A814B8170
:105210005C810E948F351B012C01F694E794F69473
:10522000E794F6E0EF22FF2441EF52E0E40EF51E92
:10523000C201B101A60195010E948F35A40193011D
:105240000E948F350E94D936D7016D937C93B98522
:10525000B295B695B695B3700B2F10E0000F111FE5
:105260000F501D4FC201B101A60195010E9490355A
:10527000A40193010E9490350E94D936F8017183F0
:1052800060830E9481222091490330914A038091DA
:10529000160590911705821793075CF50E94D52398
:1052A0008091820290918302A0918402B091850244
:1052B0008093080590930905A0930A05B0930B0508
:1052C0008BE493E00E945D1E83EC93E00E945D1EE0
:1052D00083E793E00E945D1E8BEE93E00E945D1ECB
:1052E0008BE993E00E945D1E83E194E00E945D1EC5
:1052F00011C0E1EFF2E040815181C9012417350767
:1053000008F4CA018193919342E0E93FF40799F7C9
:105310000E94431F61960FB6F894DEBF0FBECDBF4B
:10532000CF91DF911F910F91FF90EF90DF90CF9081
:10533000BF90AF909F908F907F906F905F904F90B5
:105340003F902F90089580E991E060E00E94CC06A4
:1053500080E00E948A358CE061E00E9445328CB585
:1053600080648CBD8CB580688CBD0895EF92FF92EF
:105370000F931F930BE4E02E03E0F02EC7010E9471
:105380002D1E03EC13E0C8010E942D1EC701889654
:105390000E942D1EC80188960E942D1E8BE993E065
:1053A0000E942D1E83E194E00E942D1E8FE394E065
:1053B0000E942D1E8FE894E00E942D1E87E694E047
:1053C0000E942D1E1092B8048091B80407EB14E0DF
:1053D000F80181938F018FE08093B9048CE390E012
:1053E0000E9484328093BA04F801938380E090E0B5
:1053F000A0ECB0E48093EC049093ED04A093EE0451
:10540000B093EF0480E090E0A0E0BFE38093F0046D
:105410009093F104A093F204B093F30480E595E532
:10542000A5E5BFE38093F4049093F504A093F604FC
:10543000B093F7048EED9EEAA7E9BBE38093F804EE
:105440009093F904A093FA04B093FB0480E090E0F9
:10545000A0E0B0E08093080590930905A0930A05A9
:10546000B0930B05109204051092050510920605E5
:10547000109207051092FF021092FD048093FE0423
:105480009093FF04A0930005B093010510920305CB
:10549000109202058093C0049093C104A093C204AB
:1054A000B093C3048093C4049093C504A093C6042E
:1054B000B093C7048093C8049093C904A093CA040E
:1054C000B093CB048093CC049093CD04A093CE04EE
:1054D000B093CF048093D0049093D104A093D204CE
:1054E000B093D3048093D4049093D504A093D604AE
:1054F000B093D7048093D8049093D904A093DA048E
:10550000B093DB048093DC049093DD04A093DE046D
:10551000B093DF048093E0049093E104A093E2044D
:10552000B093E3041F910F91FF90EF9008950E94B4
:10553000F21F6CE271E080E090E00E94B1310E94C5
:10554000D5230895AF92BF92CF92DF92EF92FF9250
:105550000F931F93CF93DF9380913B058823A1F492
:105560008BE395E00E945235892B71F00E94A331A4
:1055700060934705709348058093490590934A05C9
:105580008BE395E00E945C350E94A3312091470592
:10559000309148054091490550914A05621B730BB3
:1055A000840B950B655C79408040904090F01092A0
:1055B000FD04109217051092160510921505109211
:1055C00014051092130510921205109211051092F5
:1055D00010058CE095E00E946120892B09F00AC635
:1055E00030910C0590910E0580E020910D05C22FA1
:1055F000D0E0C82BD92B353609F47EC3363608F0F7
:1056000075C0353409F4F6C13634A0F53B3009F4E1
:105610000EC13C30C8F4353009F4FBC0363050F4CC
:10562000333009F4E0C0343008F0F0C0323009F013
:10563000E1C5D6C0393009F4F2C03A3008F0F2C002
:10564000363009F0D7C5E8C03F3009F459C13031D0
:1056500038F43D3009F4F5C03E3008F001C1ECC02B
:10566000313109F4BDC1313108F45DC1323109F085
:10567000C1C5BBC1323509F48BC23335D8F43934D6
:1056800009F43AC23A3460F4373409F414C2BE0162
:10569000882777FD8095982F383408F01CC200C207
:1056A000303509F455C2313508F062C23A3409F098
:1056B000A1C538C23B3509F4BDC23C3550F4343580
:1056C00009F492C2343508F479C23A3509F092C52A
:1056D000A1C23D3509F4D4C23D3508F4BBC23E3504
:1056E00009F4E4C2343609F085C5F6C2393C09F440
:1056F00035C43A3CC8F5323709F492C33337D8F48D
:105700003E3609F44BC33F3650F4373609F41AC31A
:10571000373608F401C3383609F06CC529C3303771
:1057200009F457C3BE01882777FD8095982F31373C
:1057300008F065C343C33B3709F4BEC33C3750F49C
:10574000393709F493C33A3708F0A0C3383709F062
:1057500051C57CC3323809F4DBC3383C09F4EEC3CD
:105760003C3709F047C5BEC3363D09F48BC4373D0D
:10577000D8F4323D09F444C4333D50F43B3C09F4C1
:1057800013C43B3C08F4FAC33C3C09F033C522C4C3
:10579000343D09F450C4BE01882777FD8095982FC9
:1057A000353D08F05EC43CC43F3D09F4B7C4303E0B
:1057B00050F43D3D09F48CC43E3D08F099C43C3D95
:1057C00009F018C575C43E3F38F43A3F08F0D2C41A
:1057D000303E09F00FC5B8C43F3F09F00BC5E3C424
:1057E000C093070507C5C09306058091820290917A
:1057F0008302A0918402B091850280930805909362
:105800000905A0930A05B0930B05F4C4C0930701E2
:10581000F1C4C0930601EEC40E94972AEBC4C09362
:105820004603E8C4D0931105C0931005E3C4D09398
:105830001305C0931205DEC4D0931505C09314055B
:10584000D9C40E94A33160934705709348058093A3
:10585000490590934A05D0931705C0931605CAC40D
:1058600088EC8093FC049091B8048091B904891766
:1058700069F487EB94E00E94C32260934305709320
:105880004405809345059093460510C08091D80447
:105890009091D904A091DA04B091DB048093430580
:1058A00090934405A0934505B0934605BE01882713
:1058B00077FD8095982F0E940C377B018C016091B9
:1058C00043057091440580914505909146052091CE
:1058D000CC043091CD044091CE045091CF040E946D
:1058E00090359B01AC01C801B7010E948F356093D0
:1058F000D4047093D5048093D6049093D7047AC4CB
:10590000C093FD04809116059091170590930305AF
:10591000809302058091DC049091DD04A091DE0467
:10592000B091DF0454C083E0C93ED8076CF06091A9
:10593000FE047091FF04809100059091010520E024
:1059400030E04AE754E424C02CEFC831D2077CF49D
:105950006091FE047091FF04809100059091010513
:1059600020E030E04AE754E40E948F3513C0BE01C6
:10597000882777FD8095982F0E940C379B01AC01FA
:105980006091FE047091FF048091000590910105E3
:105990000E9490356093FE047093FF04809300058D
:1059A000909301056091FE047091FF0480910005C1
:1059B0009091010520E030E44CE956E40E940D3856
:1059C00018160CF017C480E090E4ACE9B6E48093BC
:1059D000FE049093FF04A0930005B09301050AC450
:1059E000D0934803C093470305C4D0934A03C093A0
:1059F000490300C4BE01882777FD8095982F0E9437
:105A00000C3720E030E048EC52E40E9471367B0114
:105A10008C016093EC047093ED048093EE049093FA
:105A2000EF0460E070E080E490E4A80197010E9438
:105A300071366093F0047093F1048093F2049093B4
:105A4000F304C801B701A80197010E9418385B014F
:105A50006C0160E070E080E490E4A60195010E9492
:105A600071366093F4047093F5048093F604909378
:105A7000F704C601B501A80197010E9418389B01DF
:105A8000AC0160E070E080E89FE30E9471366093B3
:105A9000F8047093F9048093FA049093FB04AAC36A
:105AA0000E940C3760935304709354048093550400
:105AB000909356049FC3BE01882777FD8095982F49
:105AC0000E940C37609357047093580480935904D4
:105AD00090935A048FC30E940C3720E030E04AE7CD
