:100000000C9493060C94BB060C94BB060C94BB0694
:100010000C94BB060C94BB060C94BB060C94BB065C
:100020000C94BB060C94BB060C94BB060C94F035E8
:100030000C94BB060C94BB060C94BB060C94BB063C
:100040000C948C300C94E21F0C943F330C948D3341
:100050000C94BB060C94BB060C94BB060C94BB061C
:100060000C94BB060C94BB06036EDB363D9A999943
:10007000993DABAAAA2A3E000000803F084AD73B20
:100080003BCE016E84BCBFFDC12F3D6C74319ABD67
:1000900056833DDA3D00C77F11BED9E4BB4C3E918B
:1000A0006BAAAABE000000803F072C7AA5BA6CC5D7
:1000B00090DA3B9365FC8BBC53F810FD3C56928361
:1000C0004DBD879D3AB63DCBC9BF5BBE73DA0FC944
:1000D0003F00007000000000240000000200030048
:1000E0000000650054FFEF0000FA80000B12820050
:1000F00001030C30C30E8C8CE914D5400213710F30
:100100008E3883F8833000F883258EF8833000F82A
:1001100083FFFFFFFF0FFEA9D6240004001A827997
:10012000A10000003CFFFF00000010000038836FBA
:10013000A2003E03304000000002CAE3093E8000F6
:1001400000200000000000000040000000600000EF
:1001500000000C0000000C186E000006920A16C089
:10016000DFFFFF0256FD8CD377FFE1C496E0C5BEEA
:10017000AA00000000FFFF0B2B0000165700000331
:10018000594000000000001DFA00026C1D00000034
:10019000003FFFDFEB003EB3B6000D227800002FDA
:1001A0003C00000000001942B5000039A20000B375
:1001B00065D90E9FC91DCF4C34300000005000009F
:1001C000003BB67AE80064000000C80000000000B0
:1001D00000100000001000FA921000225E000D22B4
:1001E0009F0001000000320000FF46000063D400C1
:1001F000001000000004D6000004CC000004CC0075
:10020000000000107200000040000000000000002C
:100210000000060002000500070000000000640066
:100220000000000000000000050005006400200040
:10023000000000000000000000000040000000037B
:100240000000000032F8980000FF650000830F00F6
:1002500000FF9BFC00000000000000000000000008
:10026000000000000000000000000000000000008E
:10027000000000000000000000000000000000106E
:100280000040000000000000060000B26A0002000A
:10029000000001FB830068000000D9FC007CF1FF36
:1002A000830000000000650000006403E8006400B3
:1002B00028000000250000000016A000000000102B
:1002C0000000001000002F0000000001F4000010EA
:1002D0000000280000FFFF4581FFFFFA72000000C8
:1002E0000000000000004400050005BAC600477881
:1002F000A200000001000000000000060000000055
:10030000140000254D002F706D000005AE000C029A
:10031000D00000000000000000000000000000000D
:1003200000001B00000000000000000000000000B2
:100330000000640000000800000000000000000051
:1003400000000000000000000000000000000000AD
:10035000000000000000000000000000000000009D
:10036000000000000000000000000000000000008D
:10037000000000000000000000000000000000007D
:10038000000000000000000000000000000000006D
:1003900000001B00000000000000000000000E0034
:1003A0000E00000AC70004000000000032FFFFFF3B
:1003B0009C00000B2B000000020000000100000068
:1003C00064FFE500000000000000000000000000E5
:1003D000000000000100000000000100000000001B
:1003E0000000018000000180000001800000242640
:1003F000D30000000000000000000600100096007E
:100400003C000000000000000000000000000000B0
:10041000000C0A4E68CDCF770950166759C619CE21
:10042000820000000000000000000000000000004A
:1004300000000000000000000017D7840003000047
:10044000000000000000000000C7938F9D1E1B1CD1
:100450001900000000000000000000000000000083
:1004600000000000000000000002031885000040AA
:100470000000000003000000030000000000000076
:10048000004000000000000000000000000000002C
:10049000000000000000000000000000000000005C
:1004A000000000000000000000000000000000004C
:1004B0000000000000677DDF7E72902E554CF6E64E
:1004C00088000000000000000000000000000000A4
:1004D00000D8DCB4B8B0D8B9ABF3F8FAB3B7BB8E78
:1004E0009EAEF132F51BF1B4B8B08097F1A9DFDF11
:1004F000DFAADFDFDFF2AAC5CDC7A90CC92C97F1AF
:10050000A989264666B28999A92D557DB0B08AA8D9
:1005100096365676F1BAA3B4B280C0B8A89711B295
:100520008398BAA3F0240844106418B2B9B498832D
:10053000F1A329557DBAB5B1A38393F0002850F5F6
:10054000B2B6AA839328547CF1B9A3829361BAA26C
:10055000DADEDFDB819AB9AEF5606870F1DABAA253
:10056000DFD9BAA2FAB9A38292DB31BAA2D9BAA270
:10057000F8DF85A4D0C1BBAD83C2C5C7B8A2DFDF99
:10058000DFBAA0DFDFDFD8D8F1B8AAB38DB4980DF9
:10059000355DB2B6BAAF8C96198F9FA70E161EB4F2
:1005A0009AB8AA872C547CBAA4B08AB691325676EF
:1005B000B28494A4C808CDD8B8B4B0F19982A82D5B
:1005C000557D98A80E161EA22C547C92A4F02C5097
:1005D00078F184A898C4CDFCD80DDBA8FC2DF3D904
:1005E000BAA6F8DABAA6DED8BAB2B68696A6D0F31C
:1005F000C841DAA6C8F8D8B0B4B882A892F52C548D
:100600008898F135D9F418D8F1A2D0F8F9A884D98E
:10061000C7DFF8F883C5DADF69DF83C1D8F40114D6
:10062000F1A8824EA884F311D182F5D99228978837
:10063000F109F41C1CD884A8F3C0F9D1D99782F130
:1006400029F40DD8F3F9F9D1D982F4C203D8DEDF49
:100650001AD8F1A2FAF9A88498D9C7DFF8F8F88374
:10066000C7DADF69DFF883C3D8F40114F198A882F0
:100670002EA884F311D182F5D992509788F109F40C
:100680001CD884A8F3C0F8F9D1D99782F149F40DA8
:10069000D8F3F9F9D1D982F4C403D8DEDFD8F1ADAB
:1006A0008898CCA809F9D98292A8F57CF1883ACF2C
:1006B000944A6E98DB6931DAADF2DEF9D88795A8F5
:1006C000F221D1DAA5F9F417D9F1AE8ED0C0C3AEBC
:1006D00082C684C3A88595C8A588F2C0F1F4010E2E
:1006E000F18E9EA8C63E56F554F18872F40115F1BC
:1006F0009845856EF58E9E0488F142985A8E9E0626
:100700008869F4011CF1981E1108D0F504F11E97B8
:100710000202983625DBF9D985A5F3C1DA85A5F360
:10072000DFD88595A8F309DAA5FAD88292A8F578DA
:10073000F1881A849F26889821DAF41DF3D8879FC0
:1007400039D1AFD9DFDFFBF9F40CF3D8FAD0F8DAFE
:10075000F9F9D0DFD9F9D8F40BD8F3879F39D1AFA5
:10076000D9DFDFF41DF3D8FAFCA869F9F9AFD0DAC4
:10077000DEFAD9F88F9FA8F1CCF398DB45D9AFDF2B
:10078000D0F8D8F18F9FA8CAF38809DAAF8FCBF8D9
:10079000D8F2AD978D0CD9A5DFF9BAA6F3FAF41209
:1007A000F2D8950DD1D9BAA6F3FADAA5F2C1BAA654
:1007B000F3DFD8F1BAB2B68696A6D0CAF349DAA664
:1007C000CBF8D8B0B4B8D8AD84F2C0DFF18FCBC3CA
:1007D000A8B2B68696C8C1CBC3F3B0B48898A82196
:1007E000DB718D9D71859521D9ADF2FAD88597A8D9
:1007F00028D9F408D8F28D29DAF405D9F285A4C2F3
:10080000F2D8A88D9401D1D9F411F2D88721D8F467
:100810000AD8F28498A8C801D1D9F411D8F3A4C891
:10082000BBAFD0F2DEF8F8F8F8F8F8F8F8D8F1B87D
:10083000F6B5B9B08A95A3DE3CA3D9F8D85CA3D9A4
:10084000F8D87CA3D9F8D8F8F9D1A5D9DFDAFAD845
:10085000B18530F7D9DED8F830ADDADED8F2B48C15
:1008600099A32D557DA083DFDFDFB591A0F629D9AF
:10087000FBD8A0FC29D9FAD8A0D051D9F8D8FC517E
:10088000D9F9D879D9FBD8A0D0FC79D9FAD8A1F96F
:10089000F9F9F9F9A0DADFDFDFD8A1F8F8F8F8F80C
:1008A000ACDEF8ADDE8393AC2C547CF1A8DFDFDF47
:1008B000F69D2CDAA0DFD9FADB2DF8D8A850DAA003
:1008C000D0DED9D0F8F8F8DB55F8D8A878DAA0D07F
:1008D000DFD9D0FAF8F8F8F8DB7DF8D89CA88CF5C9
:1008E00030DB38D9D0DEDFA0D0DEDFD8A848DB5837
:1008F000D9DFD0DEA0DFD0DED8A868DB70D9DFDF9B
:10090000A0DFDFD8F1A888902C547C98A8D05C3860
:10091000D1DAF2AE8CDFF9D8B087A8C1C1B188A80E
:10092000C6F9F9DA36D8A8F9DA36D8A8F9DA36D815
:10093000A8F9DA36D8A8F9DA36D8F78D9DADF818C7
:10094000DAF2AEDFD8F7ADFA30D9A4DEF9D8F2AEDC
:10095000DEFAF983A7D9C3C5C7F1889BA77AADF79B
:10096000DEDFA4F8849408A797F300AEF29819A4E8
:1009700088C6A39488F632DFF28393DB09D9F2AA02
:10098000DFD8D8AEF8F9D1DAF3A4DEA7F1889B7AE4
:10099000D8F38494AE19F9DAAAF1DFD8A881C0C3DC
:1009A000C5C7A39283F628ADDED9F8D8A350ADD938
:1009B000F8D8A378ADD9F8D8F8F9D1A1DADEC3C553
:1009C000C7D8A18194F818F2B089ACC3C5C7F1D8D3
:1009D000B8B4B09786A8319B069907AB9728889B37
:1009E000F00C201440B0B4B8F0A88A9A285078B718
:1009F0009BA8295179247059446938644831F1BB66
:100A0000AB88002C547CF0B38BB8A804285078F144
:100A1000B088B49726A85998BBABB38B022646661C
:100A2000B0B8F08A9CA82951798B2951798A247011
:100A3000598B2058718A4469388B3940688A6448D8
:100A4000318B30496088F1AC002C547CF08CA804C8
:100A5000285078F1889726A85998AC8C02264666CB
:100A6000F0899CA829517924705944693864483127
:100A7000A98809205970AB11384069A8193148601C
:100A80008CA83C415C207C00F187981986A86E7682
:100A90007EA999882D557DD8B1B5B9A3DFDFDFAE2A
:100AA000D0DFAAD0DEF2ABF8F9D9B087C4AAF1DF63
:100AB000DFBBAFDFDFB9D8B1F1A3978E60DFB084C1
:100AC000F2C8F8F9D9DED89385F14AB183A308B505
:100AD000839A0810B79F10D8F1B0BAAEB08AC2B2EC
:100AE000B68E9EF1FBD9F41DD8F9D90CF1D8F8F8DF
:100AF000AD61D9AEFBD8F40CF1D8F8F8AD19D9AE88
:100B0000FBDFD8F416F1D8F8AD8D61D9F4F4ACF56B
:100B10009C9C8DDF2BBAB6AEFAF8F40BD8F1AED0B0
:100B2000F8AD51DAAEFAF8F1D8B9B1B6A3839C08A2
:100B3000B9B1839AB5AAC0FD3083B79F10B58B9326
:100B4000F20202D1ABDADED8F1B080BAABC0C3B2E8
:100B500084C1C3D8B1B9F38BA391B609B4D9ABDEC4
:100B6000B0879CB9A3DDF1B38B8B8B8B8BB087A344
:100B7000A3A3A3B28BB69BF2A3A3A3A3A3A3A3A3F4
:100B8000A3A3F1B087B59AA3F39BA3A3DCBAACDF10
:100B9000B9A3A3A3A3A3A3A3A3A3A3A3A3A3A3A30F
:100BA000A3D8D8D8BBB3B7F1AAF9DAFFD9809AAAEB
:100BB00028B48098A720B79787A86688F07951F164
:100BC000902C870CA781976293F0717160859401D6
:100BD00029517990A5F1284C6C870C95188578A33C
:100BE0008390284C6C886CD8F3A28200F210A892F3
:100BF0001980A2F2D926D8F188A84DD948D896A84C
:100C00003980D93CD89580A839A68698D92CDA871E
:100C1000A72CD8A8899519A980D938D8A88939A925
:100C200080DA3CD8A82EA83990D90CD8A89531984C
:100C3000D90CD8A809D9FFD801DAFFD89539A9DA93
:100C400026FFD890A80D8999A810809821DA2ED86F
:100C50008999A83180DA2ED8A886963180DA2ED8E4
:100C6000A8873180DA2ED8A88292F34180F1D92E5C
:100C7000D8A882F31980F1D92ED882ACF3C0A28013
:100C800022F1A62EA72EA92298A829DAACDEFFD839
:100C9000A2F22AF1A92E8292A8F23180A696F1D969
:100CA00000AC8C9C0C30ACDED0DEFFD88C9CACD081
:100CB00010ACDE8092A2F24C82A8F1CAF235F19615
:100CC00088A6D900D8F1FF00000000240027002AE0
:100CD0000000000000250028002B00000000002379
:100CE000002600290004040404040404040202028F
:100CF000020202030303030303010204081020405D
:100D000080010204081020010204081020000000E5
:100D100007000201000003040600000000000000BC
:100D200000001E22723411241FBECFEFD8E0DEBFB8
:100D3000CDBF11E0A0E0B1E0E2E3F5E702C005902D
:100D40000D92A834B107D9F716E0A8E4B1E001C0CC
:100D50001D92A233B107E1F71DE0C6E2DDE004C059
:100D60002297FE010E94933AC232D107C9F70E942E
:100D7000C8340C94BD060C940000F8940C94973A77
:100D8000FB01DC0104C08D910190801921F44150D8
:100D90005040C8F7881B990B0895FC011092BC00C5
:100DA000662319F088B1806302C088B18F7C88B94E
:100DB0001092B9009F01442737FD4095542F60E8F9
:100DC0007EE380E090E00E94763A2051304040403F
:100DD0005040CA01B90122E030E040E050E00E94FA
:100DE000763A2093B80084E08093BC000895482FA1
:100DF000440F92E064EB54E86093BC002AEF30E0CB
:100E00008091BC0087FD34C0215030408FEF2F3FD0
:100E10003807B1F727C08091B900887F883021F06A
:100E2000803111F082E008954093BB005093BC00E4
:100E30002AEF30E08091BC0087FD1EC02150304079
:100E40008FEF2F3F3807B1F70FC08091B900887F2F
:100E5000803221F4992351F09150CECF883131F472
:100E600080E0089581E0089583E0089584E0089586
:100E70001216130684F2F6CF1216130634F3F4CFCB
:100E8000EF92FF920F931F93162FE42E022FF32E53
:100E90000E94F7061093BB0084E88093BC002AEF01
:100EA00030E08091BC0087FD07C0215030408FEFBB
:100EB0002F3F3807B1F703C0121613063CF0802FFE
:100EC0009F2D9C01F90190E044E81CC08091B9007D
:100ED000F6CF80818093BB004093BC002AEF30E0C6
:100EE0008091BC0087FD07C0215030408FEF2F3F1D
:100EF0003807B1F705C01216130614F48091B90033
:100F00009F5F31969E1528F384E98093BC002AEFF9
:100F100030E08091BC0087FD06C02115310519F035
:100F200021503040F6CF81E01F910F91FF90EF905C
:100F300008951F93F82F122F72E0B4EBE82FEE7F85
:100F4000A4E8B093BC002AEF30E08091BC0087FD9C
:100F5000D0C0215030408FEF2F3F3807B1F7B7C0D6
:100F60008091B900887F883021F0803111F091E1C3
:100F7000BDC0E093BB00A093BC002AEF30E080919D
:100F8000BC0087FDBBC0215030408FEF2F3F38079A
:100F9000B1F79FC09091B900987F903229F47723E0
:100FA00009F499C07150CDCF983109F094C0609385
:100FB000BB0084E88093BC002AEF30E08091BC0045
:100FC00087FDA1C0215030408FEF2F3F3807B1F788
:100FD00084C08091B900887F883211F095E186C085
:100FE00062E0A4EB7F2F7160E4E8A093BC002AEFDD
:100FF00030E08091BC0087FD8BC0215030408FEFE6
:101000002F3F3807B1F76BC08091B900887F8830D7
:1010100021F0803111F097E169C07093BB00E0933B
:10102000BC002AEF30E08091BC0087FD76C02150E3
:1010300030408FEF2F3F3807B1F758C08091B9008B
:10104000887F883429F4662309F44BC06150CDCFE2
:10105000803409F046C0FA0160E0412F50E0415071
:101060005040A4EC74E822C0862F90E084179507C6
:1010700019F47093BC0002C0A093BC002AEF30E0CA
:101080008091BC0087FD4EC0215030408FEF2F3F34
:101090003807B1F728C09091B900987F903511F0CA
:1010A000983521F58091BB0081936F5F6117E0F265
:1010B00084E98093BC002AEF30E08091BC0087FD7A
:1010C00014C02115310589F021503040F6CF90E150
:1010D0000DC092E10BC093E109C094E107C096E115
:1010E00005C099E103C09AE101C090E0892F1F91EA
:1010F0000895121613060CF433CFE9CF1216130617
:101100000CF448CFE6CF121613060CF462CFE5CFED
:10111000121613060CF478CFE2CF121613060CF455
:101120008DCFE4CF121613060CF4B5CFDCCF7F922F
:101130008F929F92AF92BF92CF92DF92EF92FF92E7
:101140000F931F93CF93DF93F82EE62E742E690131
:10115000E8010E94D4304B015C018F2D880F6E2D69
:10116000A601272D0E949907882311F01FEF01C0C7
:10117000172D2097C1F00E94D430681979098A0987
:101180009B099E0140E050E06217730784079507B2
:1011900050F0212F332727FD3095872D90E0281719
:1011A00039070CF41FEF812FDF91CF911F910F9121
:1011B000FF90EF90DF90CF90BF90AF909F908F9077
:1011C0007F9008959C018230910518F02FEF3FEF3A
:1011D00045C080936202909363028AE290E0AC0182
:1011E000249FC001259F900D349F900D1124885B92
:1011F0009E4F90935B0280935A02C901880F991FFA
:10120000820F931F880F991F880F991F84569E4F36
:1012100090935D0280935C0287E290E0AC01249F92
:10122000C001259F900D349F900D11248C549E4F2A
:1012300090935F0280935E028CE290E0AC01249F69
:10124000C001259F900D349F900D11248E5F9D4FFE
:10125000909361028093600220E030E0C90108951C
:101260000F931F93CF93DF93C0915A02D0915B02EB
:1012700085E7888389E189838AE18A838CE08B838F
:101280008AE68C8383E28D838BE18E838CE18F836E
:101290008FE18A8780E28B8782E78C8784E78D875E
:1012A00083E48E878BE38F8781E4888B88E3898B47
:1012B00089E38A8B8AE38B8B8BE68D8B8CE68E8B16
:1012C00087E38F8B8FE6888F86E0898F84E28A8F11
:1012D0008DE68B8F8EE68C8F80E78D8F89E488A7D3
:1012E00081E089A785E28E8F86E28F8F87E288A3CF
:1012F00088E289A389E28AA38AE28BA384E38CA390
:1013000083E68DA384E68EA387E68FA38091620295
:1013100090916302009719F0019769F406C0E0917B
:101320005C02F0915D0288E605C0E0915C02F091FC
:101330005D0289E6808300915C0210915D0280E08D
:1013400094E0F8019283818386E7838384E591E0CA
:101350009583848387EF9DEF9783868380E091E078
:101360009187808786E696E29387828720915E0246
:1013700030915F0283E890E0A0E0B0E0F901808363
:101380009183A283B38380E098E0A0E0B0E08483FF
:101390009583A683B783108681E08187128688E1D2
:1013A000838782E390E09587848785E0868780E065
:1013B00090E0A0E2B1E48787908BA18BB28B80E0B4
:1013C00090E0A2EDB2E4838B948BA58BB68B49E2BF
:1013D0005CE56FE07EE3478B508F618F728F8AE907
:1013E00099E9A9E9BEE3838F948FA58FB68F83E334
:1013F00093E3A3E7BFE3878F90A3A1A3B2A343A383
:1014000054A365A376A3E0916002F0916102D183B9
:10141000C0831383028333A722A7DF91CF911F914B
:101420000F910895DC01E0916002F09161028681E4
:10143000882319F081E08C9301C01C9280E090E039
:101440000895DF93CF930F92CDB7DEB7982FA09179
:101450006002B09161025D968C915D97882321F0C6
:10146000992389F082E00DC016968C9116978823F7
:10147000E9F0992341F01C968C911C978823F9F48C
:1014800081E0898301C019821296ED91FC91139736
:101490000D90BC91A02D808151966C9141E09E01F0
:1014A0002F5F3F4F0E944007882319F42FEF3FEF33
:1014B00008C0E0916002F09161028981848720E098
:1014C00030E0C9010F90CF91DF910895CF92DF9264
:1014D000EF92FF920F931F93DF93CF9300D0CDB77E
:1014E000DEB7D82EC92E8B017A014115510519F4AA
:1014F0002FEF3FEF41C0E0916002F09161028681E1
:10150000882319F42EEF3FEF37C0A281B3819B01EE
:101510002D0D311D18968D919C9119978217930767
:1015200018F42DEF3FEF28C0C982DA820190F081D4
:10153000E02D8C91638D42E09E012F5F3F4F0E9412
:101540004007882319F42CEF3FEF16C0E0916002AA
:10155000F0916102A281B3810190F081E02D8C9124
:10156000608D402F97010E944007882319F020E0EA
:1015700030E002C02BEF3FEFC9010F900F90CF91E9
:10158000DF911F910F91FF90EF90DF90CF90089522
:101590001F93DF93CF930F92CDB7DEB7182FA09193
:1015A0006002B09161025C968C915C97811781F129
:1015B000112319F080E3898301C019821D968C9153
:1015C0001D97882319F08981826089835B968C91AD
:1015D0005B97882319F08981806889831296ED9141
:1015E000FC9113970D90BC91A02D808157966C9122
:1015F00041E09E012F5F3F4F0E944007882319F46E
:101600002FEF3FEF07C0E0916002F0916102148F6D
:1016100020E030E0C9010F90CF91DF911F91089534
:10162000DF93CF930F92CDB7DEB7BC010097A9F13E
:101630002091600230916102D90119968D919C919F
:101640001A978617970748F16536710530F50E949D
:101650002D3A61506983F90182819381A081B18122
:10166000FC01808194966C9141E09E012F5F3F4F79
:101670000E944007882389F0E0916002F0916102A6
:10168000698170E06F5F7F4F818592850E942D3A5E
:1016900072A361A320E030E002C02FEF3FEFC90149
:1016A0000F90CF91DF910895DF93CF930F92CDB735
:1016B000DEB79C01A0916002B091610216968C91F8
:1016C0001697882399F12C3B310510F081E015C065
:1016D0002236310510F082E010C02A32310510F0B8
:1016E00083E00BC02431310510F084E006C02A30BD
:1016F000310510F085E001C086E0898317969C9142
:10170000179789819817D9F01296ED91FC9113974C
:101710000D90BC91A02D808112966C9141E09E01AC
:101720002F5F3F4F0E944007882319F42FEF3FEFB0
:1017300008C0E0916002F09161028981878320E016
:1017400030E0C9010F90CF91DF910895DF93CF93DF
:101750000F92CDB7DEB7982FA0916002B0916102D1
:1017600016968C9116978823A1F1943061F09530EC
:1017700018F4923071F505C0983039F0903149F580
:1017800006C0198206C088E003C080E101C088E17C
:10179000898315962C91159730E0898190E0E3E0DC
:1017A00095958795EA95E1F72817390709F112967B
:1017B000ED91FC9113970D90BC91A02D808117960F
:1017C0006C9141E09E012F5F3F4F0E9440078823AC
:1017D00019F42FEF3FEF0EC0E0916002F09161022B
:1017E000898190E073E0959587957A95E1F78583F7
:1017F00020E030E0C9010F90CF91DF910895DF9391
:10180000CF930F92CDB7DEB79C01A0916002B0914B
:10181000610216968C9116978823E1F181E0243FAE
:10182000380791F081E0253F380720F42A3F310541
:1018300089F508C083E0283E380741F0205D374035
:1018400049F506C0198206C088E003C080E101C0E6
:1018500088E1898314962C91149730E0898190E077
:1018600043E0959587954A95E1F72817390709F1DF
:101870001296ED91FC9113970D90BC91A02D808153
:1018800016966C9141E09E012F5F3F4F0E944007EA
:10189000882319F42FEF3FEF0EC0E0916002F09122
:1018A0006102898190E0A3E095958795AA95E1F77B
:1018B000848320E030E0C9010F90CF91DF9108953B
:1018C0000F931F93DF93CF930F92CDB7DEB7A09105
:1018D0006002B091610216968C911697882309F4E4
:1018E0001BC119821296ED91FC9113970D90BC913A
:1018F000A02D808151966C9141E08E010F5F1F4FAA
:1019000098010E944007882309F406C1E091600213
:10191000F0916102A281B3810190F081E02D8C9160
:10192000658141E098010E944007882309F4F4C0D2
:10193000E0916002F0916102A281B3810190F08197
:10194000E02D8C91648141E098010E94400788233A
:1019500009F4E2C0A0916002B09161025D968C91A1
:101960005D97882309F469C08CE089831296ED9114
:10197000FC9113970D90BC91A02D808114966C91D1
:1019800041E098010E944007882309F4C5C062E342
:1019900070E080E090E00E94E23080EC8983A091CA
:1019A0006002B091610216968C91169780FF02C07A
:1019B00080EE89831296ED91FC9113970D90BC9166
:1019C000A02D808114966C9141E09E012F5F3F4FC6
:1019D0000E944007882309F49FC0A0916002B09143
:1019E00061021C968C911C97882319F082E08983F0
:1019F00001C019821296ED91FC9113970D90BC9144
:101A0000A02D808151966C9141E08E010F5F1F4F98
:101A100098010E944007882309F47EC01982E09152
:101A20006002F0916102A281B3810190F081E02D0A
:101A30008C91658141E098016BC084E089831296A6
:101A4000ED91FC9113970D90BC91A02D808114967F
:101A50006C9141E098010E944007882309F45CC022
:101A6000A0916002B09161021D968C911D97882310
:101A700029F416968C91169780FD02C080E401C06F
:101A800080E689831296ED91FC9113970D90BC919D
:101A9000A02D808114966C9141E09E012F5F3F4FF5
:101AA0000E9440078823C1F162E370E080E090E08B
:101AB0000E94E230A0916002B09161021C968C916C
:101AC0001C97882319F081E0898301C0198212963E
:101AD000ED91FC9113970D90BC91A02D80815196B2
:101AE0006C9141E09E012F5F3F4F0E944007882389
:101AF00099F0E0916002F0916102A281B3812081AE
:101B000031813B968C91D90115966C9141E09F01F2
:101B10000E944007882319F42FEF3FEF02C020E016
:101B200030E0C9010F90CF91DF911F910F9108957F
:101B30000F931F93CF93DF93982FE0916002F09162
:101B40006102858D882319F0C0E0D0E029C086812C
:101B5000882321F1192F1E7F038581238387811715
:101B600019F4C0E0D0E002C0CFEFDFEF112319F489
:101B70008785882331F081E00E94210A112381F0BA
:101B800004C080E00E94210A0BC00E94600C892BD7
:101B900039F0E0916002F09161020387CFEFDFEF4F
:101BA000CE01DF91CF911F910F9108951F93DF9385
:101BB000CF9300D0CDB7DEB7182F893208F058C0C8
:101BC0008823F9F480E00E94C80A198287E08A839A
:101BD000E0916002F0916102A281B3810190F081F5
:101BE000E02D8C91658942E09E012F5F3F4F0E945E
:101BF00040078823E9F1E0916002F09161021786C5
:101C000046C081E00E94C80A80E28983113011F445
:101C10001A8204C0163028F481E08A8385E090E0BF
:101C20000BC0153128F482E08A838AE090E004C07A
:101C300083E08A8384E190E00E94540B8A8182953C
:101C4000880F880F807C87608A83E0916002F09122
:101C50006102A281B3810190F081E02D8C916589B0
:101C600042E09E012F5F3F4F0E944007882319F4F6
:101C70002FEF3FEF0EC0E0916002F091610288E02B
:101C80008683108681E0878780E00E94980D20E09F
:101C900030E0C9010F900F90CF91DF911F9108950F
:101CA0000F931F93DF93CF930F92CDB7DEB78C01C5
:101CB000E0916002F091610286818823B9F1858DFF
:101CC0008823A1F58785882359F0C8010197889753
:101CD00020F4802F0E94D60D4DC080E00E94D60DCA
:101CE0000430110518F464E070E007C0B80183E027
:101CF000093E180710F068EE73E088EE93E00E944A
:101D00002D3A61506983E0916002F0916102A281F5
:101D1000B3810190F081E02D8C91618141E09E01C1
:101D20002F5F3F4F0E944007882319F42FEF3FEFAA
:101D300023C0E0916002F0916102698170E06F5F01
:101D40007F4F88EE93E00E94413A7287618781A1BC
:101D500092A18536910510F084E690E00E94100B68
:101D6000E0916002F0916102818592859695879558
:101D70000E94540B20E030E0C9010F90CF91DF9119
:101D80001F910F910895CF92DF92EF92FF920F93E0
:101D90001F93DF93CF9300D0CDB7DEB7182F092F55
:101DA0007B016A0141155105D1F1E0916002F0918A
:101DB00061028681882399F1A281B3819B01210F61
:101DC000311D18968D919C9119978217930738F1C0
:101DD00009831A830190F081E02D8C91638D42E09C
:101DE0009E012F5F3F4F0E9440078823C1F0E09182
:101DF0006002F0916102A281B3810190F081E02D37
:101E000000910001109101018C91608D4E2D960181
:101E10000E949708882319F020E030E002C02FEFDD
:101E20003FEFC9010F900F90CF91DF911F910F915C
:101E3000FF90EF90DF90CF900895DF92EF92FF92A6
:101E40000F931F93DF93CF930F92CDB7DEB7D82EAA
:101E5000E0916002F091610285858D1509F49EC0C4
:101E6000A281B3810190F081E02D009100011091D9
:101E700001017E010894E11CF11CDD2089F18C91A7
:101E8000648141E097010E949708882309F47EC08D
:101E900089818F7D8983E0916002F0916102A28146
:101EA000B3810190F081E02D8C91648141E0970134
:101EB0000E944007882309F469C063E070E080E075
:101EC00090E00E94E23082E08983A0916002B091AC
:101ED00061025B968C915B978823F1F182E839C0AF
:101EE0008C91648141E097010E949708882309F44E
:101EF0004DC0A0916002B091610216968C91169728
:101F0000998180FF02C0906201C09F7D99831296E3
:101F1000ED91FC9113970D90BC91A02D80811496AA
:101F20006C9141E09E012F5F3F4F0E944007882344
:101F300069F163E070E080E090E00E94E230A091FF
:101F40006002B09161025B968C915B97882319F0D7
:101F500080E8898301C019825C968C915C97882304
:101F600019F08981806389831296ED91FC91139712
:101F70000D90BC91A02D808157966C9141E09E01FF
:101F80002F5F3F4F0E944007882319F42FEF3FEF48
:101F900007C0E0916002F0916102D58620E030E058
:101FA000C9010F90CF91DF911F910F91FF90EF909A
:101FB000DF900895DF93CF930F92CDB7DEB7982FC0
:101FC000E0916002F0916102858D891709F44AC0A1
:101FD000992369F1868D882319F42FEF3FEF44C0D0
:101FE00080E00E94210A80E00E941D0FE0916002C3
:101FF000F0916102878D90A10E94500E1982E091AC
:102000006002F09161020280F381E02D808163E241
:1020100041E09E012F5F3F4F0E944007E091600228
:10202000F091610281E0858F0E94210A19C080E051
:102030000E94210AE0916002F09161028385898308
:102040000280F381E02D808163E241E09E012F5FF9
:102050003F4F0E944007E0916002F0916102158EAF
:102060000E94600C20E030E0C9010F90CF91DF9119
:1020700008956F927F928F929F92AF92BF92CF926C
:10208000DF92EF92FF920F931F93DF93CF9300D0D5
:10209000CDB7DEB76C013B014A01A0916002B0915F
:1020A00061025D968C915D97882319F42FEF3FEFC5
:1020B0007CC016968C911697882319F42EEF3FEF6B
:1020C00074C01296ED91FC9113970D90BC91A02DC8
:1020D000009100011091010180811C966C9142E0F9
:1020E0005E010894A11CB11C95010E9497088823E9
:1020F00019F42DEF3FEF59C0998180E02A81E22E3B
:10210000FF24E82AF92AEC14FD0428F4F4011082D3
:1021100021E030E04AC0E0916002F0916102A281CA
:10212000B38111968D919C911297969587958E15F6
:102130009F05D0F40190F081E02D009100011091F5
:1021400001018C91638941E095010E9497088823E1
:1021500019F42BEF3FEF29C0898184FF05C00E944D
:10216000600C22E030E021C0E0916002F091610259
:10217000A281B3810190F081E02D009100011091C6
:1021800001018C9165854C2D93010E94970888234D
:1021900019F429EF3FEF09C0C701B6010E942D3A9B
:1021A0006150F401608320E030E0C9010F900F908E
:1021B000CF91DF911F910F91FF90EF90DF90CF9023
:1021C000BF90AF909F908F907F906F900895DF9217
:1021D000EF92FF920F931F93DF93CF9300D0CDB771
:1021E000DEB7D82EE82EFF24C70180779070892BA8
:1021F00011F081E005C0DD2011F0198202C080E4F9
:102200008983E0916002F0916102A281B381019023
:10221000F081E02D8C91658941E09E012F5F3F4F59
:102220000E944007A0916002B0916102882319F4D6
:1022300016961C9230C089818F7B18968C931897C4
:102240001982E6FC02C084E08983E5FC03C0898131
:1022500082608983E4FC03C0898181608983E3FC17
:1022600003C08981886389831296ED91FC9113974D
:102270000D90BC91A02D808156966C9141E09E01FD
:102280002F5F3F4F0E944007882341F4E091600296
:10229000F091610216822FEF3FEF6CC0DD2031F02C
:1022A00088E0D81619F080E00E94C80AE091600228
:1022B000F0916102A281B3810190F081E02D009143
:1022C0000001109101018C91648141E09E012E5F1B
:1022D0003F4F0E9497088823F1F29A81E0FE04C0E4
:1022E00081E08983906202C019829F7D9A83A091C8
:1022F0006002B09161025D968C915D979A8188230E
:1023000011F0906801C09F779A831296ED91FC912D
:1023100013970D90BC91A02D808196966C9141E011
:102320009E012F5F3F4F0E944007882309F4B3CFDF
:10233000E0916002F0916102A281B3810190F0818D
:10234000E02D8C91648141E09E012E5F3F4F0E9401
:102350004007882309F49FCFE0916002F091610269
:10236000D682178662E370E080E090E00E94E2305F
:1023700020E030E0C9010F900F90CF91DF911F91C5
:102380000F91FF90EF90DF900895CF92DF92EF9240
:10239000FF920F931F93DF93CF93CDB7DEB72997AB
:1023A0000FB6F894DEBF0FBECDBF7C016B01A091CC
:1023B0006002B091610216968C91169780FD03C061
:1023C0002FEF3FEF96C01296ED91FC9113970D9071
:1023D000BC91A02D0091000110910101808198967F
:1023E0006C9148E09E012F5F3F4F0E949708882321
:1023F00019F42CEF3FEF7DC0898180FD03C021E0FF
:1024000030E077C0888587FD72C086FD70C03B8153
:1024100020E06A8170E0622B732BF7017183608387
:102420003D8120E04C8150E0242B352B33832283E7
:102430003F8120E04E8150E0242B352B35832483CF
:102440000091600210916102882777FD8095982F96
:10245000F80124A135A1442737FD4095542F0E944F
:10246000023A672F782F892F992787FD9A95F701D0
:102470007183608362817381882777FD8095982FAF
:10248000F80126A137A1442737FD4095542F0E941B
:10249000023A672F782F892F992787FD9A95F701A0
:1024A0007383628364817581882777FD8095982F77
:1024B000F80120A531A5442737FD4095542F0E94EF
:1024C000023A672F782F892F992787FD9A95F70170
:1024D00075836483C114D10439F00E94D430F601AD
:1024E000608371838283938320E030E002C02AEF0F
:1024F0003FEFC90129960FB6F894DEBF0FBECDBFDE
:10250000CF91DF911F910F91FF90EF90DF90CF90CF
:1025100008952F923F924F925F926F927F928F9287
:102520009F92AF92BF92CF92DF92EF92FF920F9362
:102530001F93DF93CF93CDB7DEB764970FB6F894B0
:10254000DEBF0FBECDBF3C014B014B8B5C8B190135
:10255000E0916002F0916102868D882319F02FEFDF
:102560003FEF75C06115710519F42EEF3FEF6FC095
:1025700080E190E00E940932B92EC82ED92EA82EF3
:10258000EE24FF2463E0462E512C4C0E5D1E38C015
:1025900083010E191F090131110510F000E110E04F
:1025A00094012E0D3F1DD601A601400F511F05C0FD
:1025B000F90184918D932F5F3F4FA417B507C1F7A1
:1025C000C701B801A5010E94660A892B19F02DEFF9
:1025D0003FEF3DC0C701B801A2010E94C30E892B85
:1025E00019F02CEF3FEF33C0C501B201A8010E94E2
:1025F000C006009719F02BEF3FEF29C0E00EF11E47
:10260000E614F70428F2FC89F9838B898A83E09128
:102610006002F0916102A281B3810190F081E02D0E
:102620008C91658D42E09E012F5F3F4F0E944007D5
:10263000882319F42AEF3FEF0AC0E0916002F0917D
:10264000610281E0868F30A2278E20E030E0C90150
:1026500064960FB6F894DEBF0FBECDBFCF91DF9169
:102660001F910F91FF90EF90DF90CF90BF90AF90B0
:102670009F908F907F906F905F904F903F902F90A2
:102680000895EF92FF920F931F93DF93CF93CDB7EF
:10269000DEB72B970FB6F894DEBF0FBECDBF80E834
:1026A0008D83E0916002F0916102A281B38101907B
:1026B000F081E02D15E0E12EF12CEC0EFD1E8C9149
:1026C000658941E097010E944007882319F42FEFA4
:1026D0003FEF26C264E670E080E090E00E94E230C6
:1026E0001D82E0916002F0916102A281B3810190AC
:1026F000F081E02D8C91658941E097010E944007AF
:10270000882319F42EEF3FEF0BC2E0916002F091A5
:102710006102A281B3810190F081E02D009100015E
:10272000109101018C91618D46E097010E949708FC
:10273000882319F42DEF3FEFF3C18A8590E0817073
:102740009070880F991F880F991F288530E021709D
:102750003070220F331F982F922B8E818170982B0F
:1027600091F0913031F4E0916002F091610296872E
:1027700032C0923019F02CEF3FEFD2C1E0916002ED
:10278000F091610227C0E0916002F0916102A281A4
:10279000B3810190F081E02D0091000110910101C1
:1027A0008C91638141E097010E949708882319F476
:1027B0002BEF3FEFB5C18D818F7019F42AEF3FEFFA
:1027C000AFC1E0916002F0916102843019F481E0C0
:1027D000868701C01686E0916002F09161028FEF5A
:1027E00086838483858387832FEF3FEF328721871A
:1027F0008387858732A321A381E08087838F148E0E
:10280000108A178671968AE011928A95E9F7E0910D
:102810006002F0916102158E168E10A2178E80ED67
:1028200097E00E94FF0B892B19F026EF3FEF78C14C
:1028300082E00E94A60B892B19F025EF3FEF70C1B3
:102840008AE290E00E94540B892B19F024EF3FEFAD
:1028500067C182E390E00E94500E892B19F023EFAC
:102860003FEF5EC180E00E94980D892B19F022EFA6
:102870003FEF56C181E00E941D0F9CE07E0108944D
:10288000E11CF11C0091000110910101892F60E011
:1028900041E097019B870E9497089B85882399F0C8
:1028A0008981883481F4E0916002F091610293A300
:1028B000198283A16AE041E097010E9440078823C2
:1028C00009F420C104C09F5F9031E1F61BC161E0B3
:1028D00070E080E090E00E94E2308FE08983E09138
:1028E0006002F091610283A16AE041E097010E94D9
:1028F0004007882309F406C161E070E080E090E0C1
:102900000E94E230E0916002F091610200910001CA
:102910001091010183A160E143E097010E949708B3
:10292000882309F4EFC0E0916002F091610289818F
:1029300090E080589F4F95A384A38A8190E08058AF
:102940009F4F97A386A38B8190E080589F4F91A7BC
:1029500080A7198283A16AE041E097010E944007A5
:10296000882309F4CFC061E070E080E090E00E942D
:10297000E23080E00E941D0F80E48983E0916002D4
:10298000F0916102A281B3810190F081E02D8C91E0
:10299000628D41E097010E944007882309F4B2C08C
:1029A000E0916002F091610283A180688983A28135
:1029B000B3810190F081E02D8C91668D41E097010B
:1029C0000E944007882309F49DC082E08983E0913A
:1029D0006002F0916102A281B3810190F081E02D4B
:1029E0008C91678D41E097010E944007882309F48C
:1029F00089C088E88983E0916002F0916102A28138
:102A0000B3810190F081E02D8C9160A141E09701AC
:102A10000E944007882309F475C0E0916002F0919C
:102A2000610283A18983A281B3810190F081E02DAD
:102A30008C9161A141E08E010F5F1F4F98010E94B0
:102A40004007882309F45EC08AE08983E091600230
:102A5000F0916102A281B3810190F081E02D8C910F
:102A600062A141E098010E944007882309F44AC00E
:102A700081E88983E0916002F0916102A281B381D3
:102A80000190F081E02D8C9163A141E098010E94BA
:102A900040078823B9F181E08983E0916002F091D9
:102AA0006102A281B3810190F081E02D8C9166A139
:102AB00041E098010E944007882321F183E0898347
:102AC000E0916002F0916102A281B3810190F081F6
:102AD000E02D8C9167A141E098010E944007882376
:102AE00089F080E88983E0916002F0916102A2811F
:102AF000B3810190F081E02D8C9161A541E09801B6
:102B00000E9440078AE090E00E94100B892B19F088
:102B100021EF3FEF05C080E00E94E71020E030E0A9
:102B2000C9012B960FB6F894DEBF0FBECDBFCF9173
:102B3000DF911F910F91FF90EF9008959C018230DB
:102B4000910518F02FEF3FEF16C080937C02909311
:102B50007D028BE090E0AC01249FC001259F900D89
:102B6000349F900D11248C599D4F90937B0280933C
:102B70007A0220E030E0C9010895E0917A02F091F4
:102B80007B021182108213821282158214821782B4
:102B9000168211861086128608952F923F924F92C8
:102BA0005F926F927F928F929F92AF92BF92CF92DD
:102BB000DF92EF92FF920F931F93DF93CF93CDB7E6
:102BC000DEB7AC970FB6F894DEBF0FBECDBF9EA3A5
:102BD0008DA378A76FA32A013AA729A71CA70BA743
:102BE000A701D8011D921C92E0917A02F0917B021C
:102BF000828590E0BE016F5F7F4F0E9439109CA3D9
:102C00008BA3892B09F0B2C1E0917A02F0917B028B
:102C1000FAA3E9A38681978184719070892B11F4BE
:102C200040E017C1A980BB24CC24DD24DA2CCC24BD
:102C3000BB24AA248A8190E0A0E0B0E0DC019927BF
:102C40008827A82AB92ACA2ADB2A8C8190E0A0E02A
:102C5000B0E0A82AB92ACA2ADB2A8B8190E0A0E03A
:102C6000B0E0BA2FA92F982F8827A82AB92ACA2AF4
:102C7000DB2AD201AD92BD92CD92DC9213972D81C9
:102C800030E040E050E0522F4427332722278E8146
:102C900090E0A0E0B0E0DC0199278827282B392BB1
:102CA0004A2B5B2B888590E0A0E0B0E0282B392BE5
:102CB0004A2B5B2B8F8190E0A0E0B0E0BA2FA92FC8
:102CC000982F8827282B392B4A2B5B2BF201248342
:102CD000358346835783298530E040E050E0522F0A
:102CE0004427332722278A8590E0A0E0B0E0DC016A
:102CF00099278827282B392B4A2B5B2B8C8590E032
:102D0000A0E0B0E0282B392B4A2B5B2B8B8590E081
:102D1000A0E0B0E0BA2FA92F982F8827282B392BB5
:102D20004A2B5B2BD20118962D933D934D935C93C8
:102D30001B972D8530E040E050E0522F4427332789
:102D400022278E8590E0A0E0B0E0DC01992788275B
:102D5000282B392B4A2B5B2B888990E0A0E0B0E030
:102D6000282B392B4A2B5B2B8F8590E0A0E0B0E01D
:102D7000BA2FA92F982F8827282B392B4A2B5B2B6A
:102D800024873587468757875601DD24B7FCD094C2
:102D9000CD2C64807580868097803401992477FCDF
:102DA0009094892C208431844284538412015524C8
:102DB00037FC5094452C9A01552737FD5095452FE7
:102DC000CA01B9010E94023A7B018C01C601B5011A
:102DD000A60195010E94023AE60EF71E081F191F70
:102DE000C401B301A40193010E94023AE60EF71E4A
:102DF000081F191FC201B101A20191010E94023AEC
:102E0000E60EF71E081F191F80E090E0A0E0B1EF6A
:102E1000E80EF91E0A1F1B1F91E0E91690E0F90663
:102E200090E0090792E0190758F00E94600CABA5EA
:102E3000BCA51D921C92E3E0F0E0FCA3EBA396C0BE
:102E4000ABA5BCA58D919C91119791608D939C939E
:102E500040E1E9A1FAA1868186FF39C0A42FB0E044
:102E6000FE01EA0FFB1F228130E0FE01EA0FFB1F8B
:102E7000918180E0282B392BEFA1F8A531832083A5
:102E8000FE01EA0FFB1F338120E0FE01EA0FFB1F6A
:102E9000848190E0282B392BEFA1F8A5338322837E
:102EA000FE01EA0FFB1F358120E0868190E0282B90
:102EB000392BAFA1B8A515963C932E9314974A5F72
:102EC000EBA5FCA580819181886091838083A9A175
:102ED000BAA116968D919C91179780789170892B45
:102EE000C1F1A42FB0E0FE01EA0FFB1F228130E008
:102EF000FE01EA0FFB1F918180E0282B392BEDA109
:102F0000FEA131832083FE01EA0FFB1F338120E005
:102F1000FE01EA0FFB1F848190E0282B392BEDA1E5
:102F2000FEA133832283FE01EA0FFB1F358120E0DF
:102F3000868190E0282B392BADA1BEA115963C933C
:102F40002E931497EBA5FCA58081918180679183D6
:102F5000808389A59AA5892B49F00E94D430A9A520
:102F6000BAA56D937D938D939C9313978BA19CA190
:102F7000AC960FB6F894DEBF0FBECDBFCF91DF91F8
:102F80001F910F91FF90EF90DF90CF90BF90AF9087
:102F90009F908F907F906F905F904F903F902F9079
:102FA0000895DF93CF93CDB7DEB729970FB6F89486
:102FB000DEBF0FBECDBF9E012F5F3F4F882349F07C
:102FC000D901E6E1F1E089E001900D928150E1F74D
:102FD00008C0D901EDE0F1E089E001900D92815047
:102FE000E1F788EB94E069E070E0AE014F5F5F4F7E
:102FF0000E94660A29960FB6F894DEBF0FBECDBFB9
:10300000CF91DF9108950F931F93DF93CF93CDB7A7
:10301000DEB728970FB6F894DEBF0FBECDBF8C0188
:10302000893C9105F0F488EC90E0B8010E942D3ABB
:103030006150704079836A8386E192E062E070E0DB
:10304000AE014F5F5F4F0E94660A892B51F481ECFD
:103050009AE06CE070E04FE151E00E94660A892B33
:1030600019F02FEF3FEF08C0E0917A02F0917B0258
:103070001187008720E030E0C90128960FB6F89448
:10308000DEBF0FBECDBFCF91DF911F910F9108958D
:10309000EF92FF920F931F93DF93CF9300D000D056
:1030A00000D0CDB7DEB78C01AC0143705070FA018F
:1030B000EC5CFE4F80818983C801E3E0969587959B
:1030C000EA95E1F783709070FC01EC5CFE4F208183
:1030D0002A83D80176E0B695A7957A95E1F7A37093
:1030E000B070FD01EC5CFE4F20812B834F5C5E4F86
:1030F000FA0120812C838F5C9E4FFC0180818D839F
:10310000AF5CBE4F8C918E8386E294E063E070E00A
:103110007E010894E11CF11CA7010E94660A892B1C
:1031200009F04BC08AE294E063E070E0AE014C5FCE
:103130005F4F0E94660A892B09F03FC0D701EEE27B
:10314000F1E083E001900D928150E1F7DE011496E9
:10315000EBE2F1E083E001900D928150E1F702FF94
:1031600006C08981816089838C8181608C8305FFA1
:1031700006C08A8181608A838D8181608D8310FF82
:1031800006C08B8181608B838E8181608E8380E419
:1031900094E063E070E0AE014F5F5F4F0E94660A0B
:1031A000892B59F481E394E063E070E0AE014C5F59
:1031B0005F4F0E94660A892B19F02FEF3FEF08C07E
:1031C000E0917A02F0917B021583048320E030E0E5
:1031D000C90126960FB6F894DEBF0FBECDBFCF91C2
:1031E000DF911F910F91FF90EF900895DF93CF93A0
:1031F00000D000D0CDB7DEB7882349F080E28983C4
:1032000088E28A8380E38B8388E38C8308C083EA27
:1032100093EAA3EAB3EA89839A83AB83BC838EE9FA
:103220009AE064E070E0AE014F5F5F4F0E94660A73
:103230000E94600C0F900F900F900F90CF91DF9134
:103240000895DF93CF9300D000D0CDB7DEB78823A9
:1032500049F080EC898382EC8A8384EC8B8386EC52
:103260008C8308C08BE89BE8ABE8BBE889839A8332
:10327000AB83BC8388E99AE064E070E0AE014F5F05
:103280005F4F0E94660A0E94600C0F900F900F9093
:103290000F90CF91DF910895AF92BF92CF92DF92BE
:1032A000EF92FF920F931F93DF93CF93CDB7DEB7CB
:1032B0002A970FB6F894DEBF0FBECDBF8C0182E017
:1032C00089838AEC8A8383EE8B8389E08C8388E60A
:1032D00090E064E070E0AE014F5F5F4F0E94660ACD
:1032E00083EA8983B0E4AB2EB12CA022B12206FF81
:1032F00006C080EC8A8388EC8B8382EC02C08A83D0
:103300008B838C83A0E8EA2EA1E0FA2EE022F12242
:10331000E114F10431F084EC8D838CEC8E8386EC27
:1033200003C083EA8D838E838F8383EA88878987AE
:103330008A8787EA9AE06AE070E0AE014F5F5F4FEC
:103340000E94660AF3E0CF2ED12CC022D122C114F4
:10335000D10411F080E201C088ED898386EB9AE008
:1033600061E070E0AE014F5F5F4F0E94660A05FFAB
:1033700002C081E001C080E00E94D117E114F10495
:10338000D9F010FF08C082EB89838BE88A8386EB33
:103390008B838BE907C080EB898380E88A8384EB89
:1033A0008B8380E98C8382EA9AE064E070E0AE016E
:1033B0004F5F5F4F0E94660A02FF02C081E001C0BA
:1033C00080E00E94211904FF02C081E001C080E07A
:1033D0000E94F618E0917A02F0917B02C8018860A1
:1033E000978386830E94600CE0917A02F0917B02C1
:1033F0001286AB2811F086E08287EF2819F08285CB
:103400008A5F828704711070012B19F08285805FBA
:103410008287CD2819F082858C5F828780E090E0DA
:103420002A960FB6F894DEBF0FBECDBFCF91DF91C5
:103430001F910F91FF90EF90DF90CF90BF90AF90D2
:10344000089586EF9BE061ED70E040E054E028ECE9
:1034500030E00E94891208952F923F924F925F921E
:103460006F927F928F929F92AF92BF92CF92DF9294
:10347000EF92FF920F931F93DF93CF93CDB7DEB7F9
:1034800064970FB6F894DEBF0FBECDBF1092C30293
:103490001092C20284EC92E06AEC72E042EB52E0DD
:1034A00020E030E002EC12E0F0EDEF2EF2E0FF2E33
:1034B0000E94CD159093D2028093D102009709F01B
:1034C000DAC28091D0028230E8F084EC92E06AECBB
:1034D00072E042EB52E020E030E002EC12E0E0ED7E
:1034E000EE2EE2E0FE2E0E94CD159C019093D202BA
:1034F0008093D1028091D002823008F4BBC2232B8A
:1035000021F3B8C26091B2027091B3028091B4020B
:103510009091B5020E942B3820E030E040E850E363
:103520000E9437391B012C016093B2027093B302E1
:103530008093B4029093B5026091B6027091B70285
:103540008091B8029091B9020E942B3820E030E0BF
:1035500040E850E30E94373969837A838B839C83E8
:103560006093B6027093B7028093B8029093B90249
:103570006091BA027091BB028091BC029091BD0231
:103580000E942B3820E030E040E850E30E943739B9
:103590005B016C016093BA027093BB028093BC0222
:1035A0009093BD026091BE027091BF028091C002F3
:1035B0009091C1020E942B3820E030E040E850E3B7
:1035C0000E9437396D837E838F8398876093BE0214
:1035D0007093BF028093C0029093C102C601B501EF
:1035E000A60195010E94373969877A878B879C8766
:1035F0006093D5027093D6028093D7029093D8023D
:103600006D817E818F8198859B01AC010E94373945
:103610006D877E878F87988B6093D9027093DA02CB
:103620008093DB029093DC02C201B101A2019101FF
:103630000E943739698B7A8B8B8B9C8B6093DD0270
:103640007093DE028093DF029093E00269817A81B9
:103650008B819C812D813E814F8158850E94373915
:103660007B018C01C201B101A60195010E9437398D
:103670009B01AC01C801B7010E94AE363B014C0171
:103680006093E1027093E2028093E3029093E4027C
:1036900025EE32EF4FEF5EE30E942C391816BCF492
:1036A000C601B501A20191010E9439379B01AC010D
:1036B0000E94AF36609386027093870280938802DF
:1036C000909389028BED9FE0A9ECBFE322C0C40177
:1036D000B30125EE32EF4FEF5EEB0E948C3788236B
:1036E0006CF5C601B501A20191010E94393720E0B5
:1036F00030E040E050EC0E943739609386027093CE
:10370000870280938802909389028BED9FE0A9EC59
:10371000BFEB8093820290938302A0938402B093C4
:10372000850280E090E0A0E0B0E080937E0290937C
:103730007F02A0938002B093810294C069817A8154
:103740008B819C81A20191010E9437397B018C0100
:10375000C601B5012D813E814F8158850E943739C0
:103760009B01AC01C801B7010E94AF369B01AC01BF
:103770000E94AF367B018C016D857E858F8598898F
:1037800029893A894B895C890E94AF3620E030E074
:1037900040E050EC0E94373920E030E040E85FE341
:1037A0000E94AF369B01AC01C801B7010E943937B6
:1037B00060938602709387028093880290938902B7
:1037C000C401B301A40193010E94AF360E941337D4
:1037D00060938202709383028093840290938502A7
:1037E00069817A818B819C81A60195010E9437397C
:1037F0007B018C016D817E818F819885A201910171
:103800000E9437399B01AC01C801B7010E94AE3656
:103810009B01AC010E94AF367B018C0169857A85E2
:103820008B859C852D853E854F8558890E94AF36B6
:1038300020E030E040E050EC0E94373920E030E0FA
:1038400040E85FE30E94AF369B01AC01C801B701BD
:103850000E94393760937E0270937F0280938002CA
:103860009093810260917E0270917F02809180022C
:103870009091810221EE3EE245E652E40E94373902
:10388000905860937E0270937F02809380029093A1
:1038900081026091820270918302809184029091F2
:1038A000850221EE3EE245E652E40E943739905807
:1038B00060938202709383028093840290938502C6
:1038C00060918602709187028091880290918902AE
:1038D00021EE3EE245E652E40E9437395B016C017D
:1038E00020E030E044E353E40E94AF367B018C01DA
:1038F00020E030E044E353E40E942C39181654F4DD
:10390000C601B50120E030E044E353E40E94AE3646
:103910007B018C01D801C701B05880938602909337
:103920008702A0938802B09389026091C8027091C7
:10393000C902882777FD8095982F0E942B3820E0B8
:1039400030E043E851E40E94903760938A0270931C
:103950008B0280938C0290938D026091C6027091CD
:10396000C702882777FD8095982F0E942B3820E08A
:1039700030E043E851E40E94903760938E027093E8
:103980008F0280939002909391026091C402709193
:10399000C502882777FD8095982F0E942B3820E05C
:1039A00030E043E851E40E949037609392027093B4
:1039B000930280939402909395026091CA02709151
:1039C000CB02882777FD8095982F0E942B3820E026
:1039D00030E040E858E30E943739609396027093D4
:1039E000970280939802909399026091CC02709113
:1039F000CD02882777FD8095982F0E942B3820E0F4
:103A000030E040E858E30E94373960939A0270939F
:103A10009B0280939C0290939D026091CE027091D4
:103A2000CF02882777FD8095982F0E942B3820E0C1
:103A300030E040E858E30E9437392091AE023091DF
:103A4000AF024091B0025091B1020E94AE36609335
:103A50009E0270939F028093A0029093A102809196
:103A6000D3029091D40201969093D4028093D30212
:103A700080E001C081E864960FB6F894DEBF0FBE07
:103A8000CDBFCF91DF911F910F91FF90EF90DF900D
:103A9000CF90BF90AF909F908F907F906F905F90EE
:103AA0004F903F902F9008958091E5029091E6020B
:103AB00062E370E00E942D3A8091D3029091D4028B
:103AC0008617970710F481E0089587EE92E060E092
:103AD00070E00E94C5119093D2028093D1020097AA
:103AE000D9F56091E7027091E802882777FD80950B
:103AF000982F0E942B386093A2027093A3028093A8
:103B0000A4029093A5026091E9027091EA028827CD
:103B100077FD8095982F0E942B386093A6027093B2
:103B2000A7028093A8029093A9026091EB02709182
:103B3000EC02882777FD8095982F0E942B386093A0
:103B4000AA027093AB028093AC029093AD021092E4
:103B5000D4021092D30280E008950E94600C089570
:103B6000EF92FF920F931F938B017A017093E602FD
:103B70006093E5021092D4021092D3020E94E208F0
:103B80000E94300980E090E0A0E0B0E08093AE02B7
:103B90009093AF02A093B002B093B10280E090E0A6
:103BA0000E9441139093D2028093D10289E70E9430
:103BB000E7109093D2028093D10280ED97E00E94AB
:103BC000FF0B9093D2028093D10282E00E94A60B59
:103BD0009093D2028093D10282E390E00E94100B76
:103BE0009093D2028093D10281ED92E00E94120A5A
:103BF00088E70E94980D9093D2028093D10280E0D2
:103C000090E00E949E150E94BD150E94211A90937B
:103C1000D2028093D102C7010E9448189093D20229
:103C20008093D102C8010E9403189093D20280931E
:103C3000D10281E00E94DA0F9093D2028093D102E8
:103C400080E791E00E944C199093D2028093D102B8
:103C500080E01F910F91FF90EF900895FC0180E0AC
:103C600090E0A0E0B0E080879187A287B38784834B
:103C70009583A683B78380839183A283B383808F48
:103C8000918FA28FB38F848B958BA68BB78B848FEC
:103C9000958FA68FB78F84A395A3A6A3B7A380A360
:103CA00091A3A2A3B3A384879587A687B787808BA8
:103CB000918BA28BB38B80E090E0089520E030E000
:103CC00040E050E0FC0124873587468757870895F8
:103CD0002F923F924F925F926F927F928F929F921C
:103CE000AF92BF92CF92DF92EF92FF920F931F930A
:103CF000CF93DF93EC013A014B0118012901CB016D
:103D0000BA012C813D814E815F810E943739A20129
:103D100091010E9437392C853D854E855F850E9433
:103D2000AF365B016C016C877D878E879F87E88C3F
:103D3000F98C0A8D1B8DA80197010E942C39181649
:103D400064F017FB109517F91095C601B501A8018D
:103D500097010E948C37882324F4EC86FD860E8719
:103D60001F8768A179A18AA19BA1A20191010E944C
:103D700090379B01AC01C401B3010E94AE36688B41
:103D8000798B8A8B9B8BECA0FDA00EA11FA1A801B3
:103D900097010E94AE3621EB30E945EC5EE30E94CC
:103DA00037399B01AC01C801B7010E94AF365B01F6
:103DB0006C01688B798B8A8B9B8BC401B301288142
:103DC00039814A815B810E9437392C853D854E853A
:103DD0005F850E94AF367B018C01C601B501288545
:103DE00039854A855B850E9437399B01AC01C80142
:103DF000B7010E94AE366C8F7D8F8E8F9F8FEC88BF
:103E0000FD880E891F89A80197010E942C39181678
:103E100024F4EC8EFD8E0E8F1F8F8C899D89AE89C8
:103E2000BF897C018D0117FB109517F910956C8DDA
:103E30007D8D8E8D9F8DA80197010E948C378823E0
:103E400024F4EC8EFD8E0E8F1F8F68A279A28AA2B9
:103E50009BA288899989AA89BB898CA39DA3AEA3BB
:103E6000BFA3DF91CF911F910F91FF90EF90DF9053
:103E7000CF90BF90AF909F908F907F906F905F900A
:103E80004F903F902F900895AC018091110390E0E6
:103E9000860F911D80970CF03DC0FA01762F30E01F
:103EA000ACE80DC0208198E0822F8327369580FDF5
:103EB0003A27915011F02695F7CF3196715077231C
:103EC00089F7FA01E60FF11D30836F5FDA0120E018
:103ED00030E21EC080911003803210F01092100367
:103EE00090911003E92FF0E0EE5EFC4F8C918083FF
:103EF0009F5F90931003809111038F5F8093110354
:103F000080911103813210F0309311032F5F1196CD
:103F1000261700F30895CF93DF93EC018091EF0211
:103F2000843008F449C0DE0120E08091EF0288234C
:103F3000E9F09091EE028091EF02981738F48091A9
:103F4000EF02E091EE02F0E0B09605C0E091EE02E3
:103F50008091EF02F0E0E81BF109E051FD4F808114
:103F60008C938091EF0281508093EF022F5F119626
:103F70002430D9F6FE0130E043E05CE80CC020813B
:103F800098E0822F8327369580FD3527915011F0D8
:103F90002695F7CF3196415090F78B81381719F459
:103FA00020E030E00BC08091ED028F5F8093ED0246
:103FB0001092EE021092EF022FEF3FEFC901DF9156
:103FC000CF9108951F920F920FB60F9211242F9345
:103FD0008F939F93EF93FF932EB5809111038823C6
:103FE000F1F09091100380911103981738F48091AB
:103FF0001103E0911003F0E0B09605C0E0911003CA
:1040000080911103F0E0E81BF109EE5EFC4F808126
:104010008EBD8091110381508093110301C01EBC9D
:104020008091EE02803210F01092EE028091EE024A
:10403000E82FF0E0E051FD4F20838F5F8093EE0288
:104040008091EF028F5F8093EF028091EF028132C7
:1040500018F080E28093EF02FF91EF919F918F9192
:104060002F910F900FBE0F901F90189580931205FF
:10407000609313057093140582E195E063E00E945C
:10408000441F08956091040570910505809106050F
:10409000909107050E94F8379B01AC0182E1B901BC
:1040A0000E9436206091E2047091E3048091E40460
:1040B0009091E5040E94F8379B01AC0183E1B901BE
:1040C0000E9436206091E6047091E7048091E80434
:1040D0009091E9040E94F8379B01AC0184E1B90199
:1040E0000E943620609161047091620480916304A3
:1040F000909164040E94F8379B01AC0185E1B901FD
:104100000E94362008956F927F928F929F92AF9275
:10411000BF92CF92DF92EF92FF920F931F93CF93B4
:10412000DF9326E9A22E22E0B22E99E2692E95E0D5
:10413000792E85E3882E85E0982E6301E401F50150
:10414000E080F18002811381C801B701F60120816E
:104150003181428153810E948C3788232CF4F601EF
:10416000E082F18202831383C801B701288139817B
:104170004A815B810E942C39181624F4E882F98266
:104180000A831B8384E090E0A80EB91EC80ED91ED6
:10419000249692EAA91692E0B90689F680910A055A
:1041A00064E10E94213A992341F51CE00F2EF0E0D2
:1041B000CF2EF0E0DF2EF0E0EF2EF0E0FF2EF02D1E
:1041C000F401608171818281938120E030E04AE7CF
:1041D00054E40E9437390E94F8379B01AC01812FCB
:1041E000B9010E943620F401C192D192E192F1927C
:1041F0004F011F5F1F3021F729C09A3039F51FE0AA
:104200000F2EF0E0CF2EF0E0DF2EF0E0EF2EF0E00A
:10421000FF2EF02DF301608171818281938120E076
:1042200030E04AE754E40E9437390E94F8379B0196
:10423000AC01812FB9010E943620F301C192D192C5
:10424000E192F1923F011F5F123121F7DF91CF918F
:104250001F910F91FF90EF90DF90CF90BF90AF90A4
:104260009F908F907F906F9008951F93CF93DF93CF
:10427000CAE8D2E011E0699179918991999120E0A1
:1042800030E048EC52E40E9437390E94F8379B0135
:10429000AC01812FB9010E9436201F5F143059F7FD
:1042A000DF91CF911F9108951F93CF93DF93CEE7B6
:1042B000D2E014E0699179918991999120E030E000
:1042C00048EC52E40E9437390E94F8379B01AC0158
:1042D000812FB9010E9436201F5F173059F7609176
:1042E0000E0570910F05809110059091110520E049
:1042F00030E048EC52E40E9437390E94F8379B01C5
:10430000AC0187E0B9010E943620DF91CF911F9167
:1043100008951F93CF93DF93C0E4D3E018E0699131
:104320007991812F0E9436201F5F1C30C1F7DF91E9
:10433000CF911F91089580910D058330C9F084308D
:1043400028F4813041F08230B9F508C08430E1F0C2
:10435000853091F523C00E948320089580910A053D
:1043600064E10E94213A992351F40E943521089575
:1043700080910A0564E10E94213A9923B1F09A30B4
:10438000D9F40E948921089580910A0564E10E9470
:10439000213A992389F40E944220089580910A05C8
:1043A00064E10E94213A992319F40E94542108954E
:1043B0009A3011F40E9442200895FC0181818823E3
:1043C00021F470E060E090E032C090818181A381AF
:1043D000B481981748F431812081828190E0820F66
:1043E000911D831B910905C08081218190E0821B72
:1043F0009109880F991F880F991FA80FB91F8D91D8
:104400009D910D90BC91A02D80932A0690932B0630
:10441000A0932C06B0932D068181815081837091E9
:104420002A0660912B0690912C0680912D06272F4D
:10443000362F492F582FB901CA0108950F931F93A2
:1044400004E313E0C8010E941435C80103960E94DA
:104450001435C80106960E941435C80109960E94B9
:1044600014351F910F9108956F927F928F929F92B2
:10447000AF92BF92CF92DF92EF92FF920F931F9372
:1044800080912205909123050196909323058093B6
:104490002205895E9D4F20F08FEF80930B05A8C009
:1044A0000E942C1A992787FD90959093330380934F
:1044B0003203892B09F09BC010912405183CF8F4B5
:1044C0001431D0F060912505709126058091270563
:1044D0009091280520919E0230919F024091A00268
:1044E0005091A1020E94AF36609325057093260576
:1044F00080932705909328051F5F109324056090F3
:104500008A0270908B0280908C0290908D02C40180
:10451000B30120E030E040E85FEB0E942C39181630
:104520000CF065C0A0908E02B0908F02C0909002F7
:10453000D0909102C601B50120E030E040E85FEB89
:104540000E942C3918160CF052C0E0909202F090A4
:1045500093020091940210919502C801B70120E0E6
:1045600030E040E85FEB0E942C3918160CF03FC099
:10457000C401B30120E030E040E85FE30E948C37E3
:104580008823ACF5C601B50120E030E040E85FE3E8
:104590000E948C3788235CF5C801B70120E030E029
:1045A00040E85FE30E948C3788230CF56091240576
:1045B00070E064517040882777FD8095982F0E94A5
:1045C0002B389B01AC0160912505709126058091E7
:1045D0002705909128050E9490376093AE02709352
:1045E000AF028093B0029093B10280E001C08FEFE0
:1045F0001F910F91FF90EF90DF90CF90BF90AF9001
:104600009F908F907F906F9008950F931F9304E376
:1046100013E060914D0370914E03C8010E942E3546
:1046200060914D0370914E03C80103960E942E3590
:1046300060914D0370914E03C80106960E942E357D
:1046400060914D0370914E03C80109960E942E356A
:104650001F910F9108952F923F924F925F926F9208
:104660007F928F929F92AF92BF92CF92DF92EF9202
:10467000FF920F931F93DF93CF93CDB7DEB72C97A5
:104680000FB6F894DEBF0FBECDBF0E94541D992710
:1046900087FD909590933303809332030E942C1AE8
:1046A000992787FD9095909333038093320397FF6A
:1046B00006C00E9405238DEF80930B054FC58091A6
:1046C0000A058F5F80930A05883C11F410920A0551
:1046D0000E94D43020911E0530911F054091200585
:1046E00050912105621B730B840B950B0E94293896
:1046F00020E030E04AE754E40E94903760930301E1
:104700007093040180930501909306010E94D430B8
:1047100060931E0570931F058093200590932105DB
:104720008091030190910401A0910501B0910601CF
:104730008D839E83AF83B887BC01CD012AE037ED1E
:1047400043E25CE30E942C39181634F48EEF809318
:104750000B050E94052302C580910205882309F4F8
:1047600057C281508093020560919E0270919F0212
:104770008091A0029091A10220E030E845E754E446
:104780000E9437391B012C016093C6047093C70443
:104790008093C8049093C9046091DA047091DB049B
:1047A0008091DC049091DD042091FE043091FF049F
:1047B00040910005509101050E9437392D813E81BD
:1047C0004F8158850E9437399B01AC016091CE041E
:1047D0007091CF048091D0049091D1040E94AF36A3
:1047E0005B016C016093CE047093CF048093D0047E
:1047F0009093D104E090DA04F090DB040091DC04A3
:104800001091DD04C801B7012091FA043091FB0436
:104810004091FC045091FD040E9437392D813E8166
:104820004F8158850E9437392091E6043091E70482
:104830004091E8045091E9040E94AF3669877A8775
:104840008B879C87C801B7012091F6043091F7044B
:104850004091F8045091F9040E9437392D813E812E
:104860004F8158850E9437399B01AC016091D20479
:104870007091D3048091D4049091D5040E94AF36F6
:104880003B014C016093D2047093D3048093D40411
:104890009093D504C201B101A60195010E94AF36E3
:1048A0002D813E814F8158850E9437397B018C01D3
:1048B0006093D6047093D7048093D8049093D9045E
:1048C00020E030E040E05FE30E9437399B01AC011B
:1048D00069857A858B859C850E94AF362D813E81C6
:1048E0004F8158850E9437392091DE043091DF04D2
:1048F0004091E0045091E1040E94AF365B016C01ED
:104900006093DE047093DF048093E0049093E104ED
:10491000A40193010E94AF366093E2047093E30414
:104920008093E4049093E50469857A858B859C8562
:10493000A80197010E94AF366093E6047093E704E4
:104940008093E8049093E9049091BD048091BF04A2
:10495000981711F41092BD042091BD04822F90E0AD
:10496000880F991F880F991FE091C004F091C1042E
:10497000E80FF91FA082B182C282D3822F5F2093F9
:10498000BD049091BE048091BF04981728F48091D3
:10499000BE048F5F8093BE0460910405709105058D
:1049A00080910605909107052091E2043091E3047F
:1049B0004091E4045091E5040E94AE365B016C0125
:1049C0006093EA047093EB048093EC049093ED04FD
:1049D000E0906D04F0906E0400916F0410917004EB
:1049E000C801B701A80197010E94AF36A80197013D
:1049F0000E9437399B01AC0160E070E08AE793E4E4
:104A00000E9490377B018C016093C2047093C304B1
:104A10008093C4049093C504A80197010E94AF3607
:104A20009B01AC01C601B5010E942C3918167CF41B
:104A3000C601B501A80197010E94AE3620E030E022
:104A40004AEF53E40E9437390E949E3920C0C801C2
:104A5000B70120E030E040E050EC0E9437399B0184
:104A6000AC01C601B5010E948C378823CCF4C60185
:104A7000B5019058A80197010E94AE3620E030E0C1
:104A80004AEF53E40E9437390E949E399058609350
:104A9000EE047093EF048093F0049093F1041EC031
:104AA000009103011091040120910501309106014C
:104AB0008DE694E0B601A5010E94681E80918904EC
:104AC00090918A04A0918B04B0918C048093EE04A1
:104AD0009093EF04A093F004B093F1046091EE047E
:104AE0007091EF048091F0049091F1042091E6041C
:104AF0003091E7044091E8045091E9040E94AE36F9
:104B0000AB01BC010091030110910401209105014A
:104B10003091060185E994E00E94681EE090CA0485
:104B2000F090CB040091CC041091CD046091B104BD
:104B30007091B2048091B3049091B4042091C604A2
:104B40003091C7044091C8045091C9040E94AE3608
:104B5000A80197010E94AE362BEA34E242E75DE3FA
:104B60000E9437399B01AC01C801B7010E94AF36E2
:104B7000AB01BC01CA01DB018093CA049093CB0452
:104B8000A093CC04B093CD040091030110910401D3
:104B9000209105013091060185E494E00E94681E91
:104BA000809103058823D9F060910805709109056B
:104BB000882777FD8095982F0E942B3820916104DB
:104BC0003091620440916304509164040E94AF36B6
:104BD0000E94F83770931D0560931C051BC08DE67D
:104BE00094E00E945E1E85E994E00E945E1E85E4CA
:104BF00094E00E945E1E80E090E0A0E0B0E0809330
:104C0000CA049093CB04A093CC04B093CD0402C00B
:104C100010920305E0908602F090870200918802CE
:104C200010918902C801B70120E030E040E050E077
:104C30000E942C3918165CF4C801B70120E030E05E
:104C400048E452E40E942C3918165CF01AC0C801DE
:104C5000B70120E030E048E452EC0E948C37882312
:104C600084F480917E0290917F02A0918002B091A5
:104C7000810280930E0590930F05A0931005B093C9
:104C80001105E0908202F09083020091840210915D
:104C90008502C801B70120E030E040E050E00E940A
:104CA0002C3918165CF4C801B70120E030E048E464
:104CB00052E40E942C3918165CF01AC0C801B701E2
:104CC00020E030E048E452EC0E948C37882384F4E2
:104CD00080917E0290917F02A0918002B09181022A
:104CE00080930E0590930F05A0931005B0931105C6
:104CF000E0900E05F0900F05009110051091110540
:104D0000A0907E02B0907F02C0908002D09081027D
:104D1000C801B701A60195010E94AE3620E030E03F
:104D200044E353EC0E948C3788235CF4D801C7011C
:104D3000B05880930E0590930F05A0931005B09383
:104D40001105E0900E05F0900F05009110051091EF
:104D50001105C801B701A60195010E94AE3620E0F9
:104D600030E044E353E40E942C3918165CF4D80177
:104D7000C701B05880930E0590930F05A0931005BE
:104D8000B09311052091160530911705B90137FF31
:104D900004C066277727621B730B6630710594F198
:104DA000C9010E94413A8BEF9FEFDB01A89FB00140
:104DB000A99F700DB89F700D1124620F731F882773
:104DC00077FD8095982F0E942B389B01AC01609154
:104DD00041047091420480914304909144040E94E4
:104DE00037396093E5037093E6038093E70390936C
:104DF000E803A0920E05B0920F05C0921005D09264
:104E000011051AC060910E0570910F058091100573
:104E100090911105A60195010E94AE36AB01BC012F
:104E200000910301109104012091050130910601C8
:104E300089EC93E00E94681E80910C058823B9F5E7
:104E40006091180570911905882777FD8095982F36
:104E50000E942B382091820230918302409184027B
:104E6000509185020E94AE36AB01BC010091030156
:104E700010910401209105013091060181EF93E02A
:104E80000E94681E60911A0570911B05882777FDA6
:104E90008095982F0E942B382091860230918702AE
:104EA00040918802509189020E94AE3639C081300B
:104EB00009F044C06091180570911905882777FDA5
:104EC0008095982F0E942B38209141043091420404
:104ED00040914304509144040E943739AB01BC0116
:104EE0000091030110910401209105013091060108
:104EF00081EF93E00E94681E60911A0570911B0576
:104F0000882777FD8095982F0E942B3820914104A7
:104F10003091420440914304509144040E94373937
:104F2000AB01BC0100910301109104012091050126
:104F30003091060189E194E00E94681EF5EECF2EC3
:104F4000F3E0DF2EEAE8AE2EE2E0BE2E6624772400
:104F500078E2872E912C689C7001699CF00C789CFB
:104F6000F00C1124E1E5F3E0EE0EFF1ED6016D9189
:104F70007D918D919C91F5012191319141915191BA
:104F80005F010E94AE36AB01BC010091030110919C
:104F900004012091050130910601C7010E94681E9D
:104FA0000894611C711C48E250E0C40ED51E53E009
:104FB0006516710481F660911C0570911D058827A6
:104FC00077FD8095982F0E942B381B012C01809132
:104FD000BD039091BE03A091BF03B091C00389832C
:104FE0009A83AB83BC83C201B10129813A814B8191
:104FF0005C810E94AF365B016C01E0909503F090FC
:105000009603009197031091980360906D03709040
:105010006E0380906F0390907003A80197010E9427
:10502000AE36A40193010E94AF360E94F837709308
:10503000410360934003C601B501A80197010E9496
:10504000AF36A40193010E94AE360E94F8377093E8
:10505000430360934203C201B10129813A814B812C
:105060005C810E94AE365B016C01A80197010E9431
:10507000AE36A40193010E94AE360E94F8377093B9
:10508000450360934403C601B501A80197010E943E
:10509000AF36A40193010E94AF360E94F837709397
:1050A0004703609346030E949B2120911C05309189
:1050B0001D0580914F0390915003281739075CF527
:1050C0000E94052380917E0290917F02A091800230
:1050D000B091810280930E0590930F05A093100567
:1050E000B093110581E593E00E945E1E89EC93E088
:1050F0000E945E1E89E793E00E945E1E81EF93E0AE
:105100000E945E1E81EA93E00E945E1E89E194E0A7
:105110000E945E1E23C060E4E62E63E0F62E00E0EF
:1051200010E0D7018D919C9160914F0370915003D5
:10513000681779070CF4BC01F701619371937F0143
:10514000C801880F991F800F911F8C5C9C4F0E9493
:105150002E350F5F1F4F0430110519F72C960FB62F
:10516000F894DEBF0FBECDBFCF91DF911F910F919D
:10517000FF90EF90DF90CF90BF90AF909F908F9077
:105180007F906F905F904F903F902F90089580E9AF
:1051900091E060E00E94CD0680E00E940F358CE037
:1051A00061E00E9476318CB580648CBD8CB58068DE
:1051B0008CBD0895EF92FF920F931F93B1E5EB2EF4
:1051C000B3E0FB2EC7010E942E1E09EC13E0C801BC
:1051D0000E942E1EC70188960E942E1EC801889626
:1051E0000E942E1E81EA93E00E942E1E89E194E027
:1051F0000E942E1E85E494E00E942E1E85E994E014
:105200000E942E1E8DE694E00E942E1E1092BE0477
:105210008091BE040DEB14E0F80181938F018FE0C3
:105220008093BF048CE390E00E9409328093C00415
:10523000F801938380E090E0A0ECB0E48093F20466
:105240009093F304A093F404B093F50480E090E00D
:10525000A0E0BFE38093F6049093F704A093F804D2
:10526000B093F90480E595E5A5E5BFE38093FA04E2
:105270009093FB04A093FC04B093FD048EED9EEA92
:10528000A7E9BBE38093FE049093FF04A09300057D
:10529000B093010580E090E0A0E0B0E080930E05BF
:1052A00090930F05A0931005B093110510920A0575
:1052B00010920B0510920C0510920D051092ED0244
:1052C000109203058093040590930505A0930605AD
:1052D000B093070510920905109208058093C60443
:1052E0009093C704A093C804B093C9048093CA04E0
:1052F0009093CB04A093CC04B093CD048093CE04C0
:105300009093CF04A093D004B093D1048093D2049F
:105310009093D304A093D404B093D5048093D6047F
:105320009093D704A093D804B093D9048093DA045F
:105330009093DB04A093DC04B093DD048093DE043F
:105340009093DF04A093E004B093E1048093E2041F
:105350009093E304A093E404B093E5048093E604FF
:105360009093E704A093E804B093E9041F910F9190
:10537000FF90EF900895FC01880F991F8E0F9F1FDB
:10538000E85BFC4F60818C5C9C4F70E00E94E935CB
:105390000895AF92BF92CF92DF92EF92FF920F9358
:1053A0001F93CF93DF93809141058823A1F481E47B
:1053B00095E00E94D734892B71F00E94D43060931D
:1053C0004D0570934E0580934F059093500581E4F1
:1053D00095E00E94E1340E94D43020914D05309137
:1053E0004E0540914F0550915005621B730B840B85
:1053F000950B655C79408040904090F010920305D9
:1054000010921D0510921C0510921B0510921A0592
:105410001092190510921805109217051092160592
:1054200082E195E00E948B1F892B09F004C6E09170
:1054300012059091140580E020911305C22FD0E051
:10544000C82BD92BE53609F47EC3E63608F072C0C6
:10545000E53409F4F6C1E63488F5EB3009F40EC101
:10546000EC30B0F4E93068F4E53008F0FAC0E3302D
:1054700009F4E1C0E43008F0F1C0E23009F0DBC526
:10548000D7C0E93009F4F2C0EA3009F0D4C5F1C060
:10549000EF3009F45CC1E03138F4ED3009F4F8C0C4
:1054A000EE3008F004C1EFC0E13109F4C0C1E131D0
:1054B00008F460C1E23109F0BEC5BEC1E23509F4AD
:1054C0008EC2E335D8F4E93409F43DC2EA3460F41D
:1054D000E73409F417C2BE01882777FD8095982F1D
:1054E000E83408F01FC203C2E03509F458C2E135C0
:1054F00008F065C2EA3409F09EC53BC2EB3509F4F9
:10550000C0C2EC3550F4E43509F495C2E43508F432
:105510007CC2EA3509F08FC5A4C2ED3509F4D7C2C3
:10552000ED3508F4BEC2EE3509F4E7C2E43609F001
:1055300082C5F9C2EA3C09F448C4EB3C08F03FC01C
:10554000E23709F494C3E337D8F4EE3609F44DC3D7
:10555000EF3650F4E73609F41CC3E73608F403C30A
:10556000E83609F068C52BC3E03709F459C3BE011A
:10557000882777FD8095982FE13708F067C345C3EA
:10558000EB3709F4C0C3EC3750F4E93709F495C39D
:10559000EA3708F0A2C3E83709F04DC57EC3E23808
:1055A00009F4DDC3E33820F4EC3709F044C5C1C386
:1055B000E83C09F4EAC3E93C09F03DC5F6C3EC3D1B
:1055C00009F4A7C4ED3DC8F4E33D09F450C4E43D3B
:1055D00050F4EC3C09F425C4EC3C08F40CC4E23D66
:1055E00009F029C534C4E53D09F467C4E53D08F474
:1055F0004EC4E63D09F01FC576C4E03E09F4CBC4B5
:10560000E13E60F4EE3D09F49FC4BE01882777FDBA
:105610008095982FEF3D08F0ADC48BC4EE3F09F4A0
:10562000DFC4EF3F08F0E0C4EA3F08F404C5C9C492
:10563000C0930D0500C5C0930C0580917E0290912A
:105640007F02A0918002B091810280930E05909319
:105650000F05A0931005B0931105EDC4C09302018E
:10566000EAC4F0E0ED5BFC4FC083E5C4C0934C039B
:10567000E2C4D0931705C0931605DDC4D093190575
:10568000C0931805D8C4D0931B05C0931A05D3C482
:105690000E94D43060934D0570934E0580934F0562
:1056A00090935005D0931D05C0931C05C4C488EC8D
:1056B000809302059091BE048091BF04891769F41C
:1056C0008DEB94E00E94DD216093490570934A05BB
:1056D00080934B0590934C0510C08091DE0490910F
:1056E000DF04A091E004B091E10480934905909318
:1056F0004A05A0934B05B0934C05BE01882777FD62
:105700008095982F0E942B387B018C016091490570
:1057100070914A0580914B0590914C052091D204DF
:105720003091D3044091D4045091D5040E94AF36F7
:105730009B01AC01C801B7010E94AE366093DA0448
:105740007093DB048093DC049093DD0474C4C093F5
:10575000030580911C0590911D0590930905809388
:1057600008058091E2049091E304A091E404B091D3
:10577000E50454C083E0C93ED8076CF0609104058D
:1057800070910505809106059091070520E030E0B5
:105790004AE754E424C02CEFC831D2077CF460916E
:1057A000040570910505809106059091070520E09C
:1057B00030E04AE754E40E94AE3613C0BE018827A9
:1057C00077FD8095982F0E942B389B01AC0160914A
:1057D00004057091050580910605909107050E94CA
:1057E000AF3660930405709305058093060590938A
:1057F000070560910405709105058091060590915B
:10580000070520E030E44CE956E40E942C391816D4
:105810000CF011C480E090E4ACE9B6E48093040598
:1058200090930505A0930605B093070504C4D09393
:105830004E03C0934D03FFC3D0935003C0934F0357
:10584000FAC3BE01882777FD8095982F0E942B38D8
:1058500020E030E048EC52E40E9490377B018C015C
:105860006093F2047093F3048093F4049093F5042E
:1058700060E070E080E490E4A80197010E94903716
:105880006093F6047093F7048093F8049093F904FE
:10589000C801B701A80197010E9437395B016C016B
:1058A00060E070E080E490E4A60195010E949037EA
:1058B0006093FA047093FB048093FC049093FD04BE
:1058C000C601B501A80197010E9437399B01AC01BF
:1058D00060E070E080E89FE30E9490376093FE04F0
:1058E0007093FF048093000590930105A4C30E9468
:1058F0002B386093590470935A0480935B049093FF
:105900005C0499C3BE01882777FD8095982F0E947B
:105910002B3860935D0470935E0480935F049093D2
:10592000600489C30E942B3820E030E04AE754E449
:105930000E94903760934504709346048093470417
:105940009093480478C3BE01882777FD8095982FEF
:105950000E942B3820E030E04AE754E40E94903760
:105960006093490470934A0480934B0490934C04D1
:1059700062C3BE01882777FD8095982F0E942B383F
:1059800020E030E44CE156E40E94903760934D04EF
:1059900070934E0480934F04909350044CC3BE0107
:1059A000882777FD8095982F0E942B38609381047B
:1059B0007093820480938304909384043CC3BE015B
:1059C000882777FD8095982F0E942B386093850457
:1059D0007093860480938704909388042CC3BE013F
:1059E000882777FD8095982F0E942B3820E030E0A3
:1059F0004AE754E40E94903760936D0470936E04FC
:105A000080936F049093700416C3BE01882777FDBE
:105A10008095982F0E942B3820E030E04AE754E42C
:105A20000E949037609371047093720480937304A2
:105A30009093740400C3BE01882777FD8095982F4A
:105A40000E942B3820E030E44CE156E40E9490376D
:105A50006093750470937604809377049093780430
:105A6000EAC2BE01882777FD8095982F0E942B38C7
:105A70006093A9047093AA048093AB049093AC0440
:105A8000DAC2BE01882777FD8095982F0E942B38B7
:105A90006093AD047093AE048093AF049093B00410
:105AA000CAC2BE01882777FD8095982F0E942B38A7
:105AB00020E030E04AE754E40E9490376093950478
:105AC000709396048093970490939804B4C2BE0197
:105AD000882777FD8095982F0E942B3820E030E0B2
