:100000000C9493060C94BB060C94BB060C94BB0694
:100010000C94BB060C94BB060C94BB060C94BB065C
:100020000C94BB060C94BB060C94BB060C94A93232
:100030000C94BB060C94BB060C94BB060C94BB063C
:100040000C94452D0C94A41C0C94F82F0C94463061
:100050000C94BB060C94BB060C94BB060C94BB061C
:100060000C94BB060C94BB06036EDB363D9A999943
:10007000993DABAAAA2A3E000000803F084AD73B20
:100080003BCE016E84BCBFFDC12F3D6C74319ABD67
:1000900056833DDA3D00C77F11BED9E4BB4C3E918B
:1000A0006BAAAABE000000803F072C7AA5BA6CC5D7
:1000B00090DA3B9365FC8BBC53F810FD3C56928361
:1000C0004DBD879D3AB63DCBC9BF5BBE73DA0FC944
:1000D0003F00007000000000240000000200030048
:1000E0000000650054FFEF0000FA80000B12820050
:1000F00001030C30C30E8C8CE914D5400213710F30
:100100008E3883F8833000F883258EF8833000F82A
:1001100083FFFFFFFF0FFEA9D6240004001A827997
:10012000A10000003CFFFF00000010000038836FBA
:10013000A2003E03304000000002CAE3093E8000F6
:1001400000200000000000000040000000600000EF
:1001500000000C0000000C186E000006920A16C089
:10016000DFFFFF0256FD8CD377FFE1C496E0C5BEEA
:10017000AA00000000FFFF0B2B0000165700000331
:10018000594000000000001DFA00026C1D00000034
:10019000003FFFDFEB003EB3B6000D227800002FDA
:1001A0003C00000000001942B5000039A20000B375
:1001B00065D90E9FC91DCF4C34300000005000009F
:1001C000003BB67AE80064000000C80000000000B0
:1001D00000100000001000FA921000225E000D22B4
:1001E0009F0001000000320000FF46000063D400C1
:1001F000001000000004D6000004CC000004CC0075
:10020000000000107200000040000000000000002C
:100210000000060002000500070000000000640066
:100220000000000000000000050005006400200040
:10023000000000000000000000000040000000037B
:100240000000000032F8980000FF650000830F00F6
:1002500000FF9BFC00000000000000000000000008
:10026000000000000000000000000000000000008E
:10027000000000000000000000000000000000106E
:100280000040000000000000060000B26A0002000A
:10029000000001FB830068000000D9FC007CF1FF36
:1002A000830000000000650000006403E8006400B3
:1002B00028000000250000000016A000000000102B
:1002C0000000001000002F0000000001F4000010EA
:1002D0000000280000FFFF4581FFFFFA72000000C8
:1002E0000000000000004400050005BAC600477881
:1002F000A200000001000000000000060000000055
:10030000140000254D002F706D000005AE000C029A
:10031000D00000000000000000000000000000000D
:1003200000001B00000000000000000000000000B2
:100330000000640000000800000000000000000051
:1003400000000000000000000000000000000000AD
:10035000000000000000000000000000000000009D
:10036000000000000000000000000000000000008D
:10037000000000000000000000000000000000007D
:10038000000000000000000000000000000000006D
:1003900000001B00000000000000000000000E0034
:1003A0000E00000AC70004000000000032FFFFFF3B
:1003B0009C00000B2B000000020000000100000068
:1003C00064FFE500000000000000000000000000E5
:1003D000000000000100000000000100000000001B
:1003E0000000018000000180000001800000242640
:1003F000D30000000000000000000600100096007E
:100400003C000000000000000000000000000000B0
:10041000000C0A4E68CDCF770950166759C619CE21
:10042000820000000000000000000000000000004A
:1004300000000000000000000017D7840003000047
:10044000000000000000000000C7938F9D1E1B1CD1
:100450001900000000000000000000000000000083
:1004600000000000000000000002031885000040AA
:100470000000000003000000030000000000000076
:10048000004000000000000000000000000000002C
:10049000000000000000000000000000000000005C
:1004A000000000000000000000000000000000004C
:1004B0000000000000677DDF7E72902E554CF6E64E
:1004C00088000000000000000000000000000000A4
:1004D00000D8DCB4B8B0D8B9ABF3F8FAB3B7BB8E78
:1004E0009EAEF132F51BF1B4B8B08097F1A9DFDF11
:1004F000DFAADFDFDFF2AAC5CDC7A90CC92C97F1AF
:10050000A989264666B28999A92D557DB0B08AA8D9
:1005100096365676F1BAA3B4B280C0B8A89711B295
:100520008398BAA3F0240844106418B2B9B498832D
:10053000F1A329557DBAB5B1A38393F0002850F5F6
:10054000B2B6AA839328547CF1B9A3829361BAA26C
:10055000DADEDFDB819AB9AEF5606870F1DABAA253
:10056000DFD9BAA2FAB9A38292DB31BAA2D9BAA270
:10057000F8DF85A4D0C1BBAD83C2C5C7B8A2DFDF99
:10058000DFBAA0DFDFDFD8D8F1B8AAB38DB4980DF9
:10059000355DB2B6BAAF8C96198F9FA70E161EB4F2
:1005A0009AB8AA872C547CBAA4B08AB691325676EF
:1005B000B28494A4C808CDD8B8B4B0F19982A82D5B
:1005C000557D98A80E161EA22C547C92A4F02C5097
:1005D00078F184A898C4CDFCD80DDBA8FC2DF3D904
:1005E000BAA6F8DABAA6DED8BAB2B68696A6D0F31C
:1005F000C841DAA6C8F8D8B0B4B882A892F52C548D
:100600008898F135D9F418D8F1A2D0F8F9A884D98E
:10061000C7DFF8F883C5DADF69DF83C1D8F40114D6
:10062000F1A8824EA884F311D182F5D99228978837
:10063000F109F41C1CD884A8F3C0F9D1D99782F130
:1006400029F40DD8F3F9F9D1D982F4C203D8DEDF49
:100650001AD8F1A2FAF9A88498D9C7DFF8F8F88374
:10066000C7DADF69DFF883C3D8F40114F198A882F0
:100670002EA884F311D182F5D992509788F109F40C
:100680001CD884A8F3C0F8F9D1D99782F149F40DA8
:10069000D8F3F9F9D1D982F4C403D8DEDFD8F1ADAB
:1006A0008898CCA809F9D98292A8F57CF1883ACF2C
:1006B000944A6E98DB6931DAADF2DEF9D88795A8F5
:1006C000F221D1DAA5F9F417D9F1AE8ED0C0C3AEBC
:1006D00082C684C3A88595C8A588F2C0F1F4010E2E
:1006E000F18E9EA8C63E56F554F18872F40115F1BC
:1006F0009845856EF58E9E0488F142985A8E9E0626
:100700008869F4011CF1981E1108D0F504F11E97B8
:100710000202983625DBF9D985A5F3C1DA85A5F360
:10072000DFD88595A8F309DAA5FAD88292A8F578DA
:10073000F1881A849F26889821DAF41DF3D8879FC0
:1007400039D1AFD9DFDFFBF9F40CF3D8FAD0F8DAFE
:10075000F9F9D0DFD9F9D8F40BD8F3879F39D1AFA5
:10076000D9DFDFF41DF3D8FAFCA869F9F9AFD0DAC4
:10077000DEFAD9F88F9FA8F1CCF398DB45D9AFDF2B
:10078000D0F8D8F18F9FA8CAF38809DAAF8FCBF8D9
:10079000D8F2AD978D0CD9A5DFF9BAA6F3FAF41209
:1007A000F2D8950DD1D9BAA6F3FADAA5F2C1BAA654
:1007B000F3DFD8F1BAB2B68696A6D0CAF349DAA664
:1007C000CBF8D8B0B4B8D8AD84F2C0DFF18FCBC3CA
:1007D000A8B2B68696C8C1CBC3F3B0B48898A82196
:1007E000DB718D9D71859521D9ADF2FAD88597A8D9
:1007F00028D9F408D8F28D29DAF405D9F285A4C2F3
:10080000F2D8A88D9401D1D9F411F2D88721D8F467
:100810000AD8F28498A8C801D1D9F411D8F3A4C891
:10082000BBAFD0F2DEF8F8F8F8F8F8F8F8D8F1B87D
:10083000F6B5B9B08A95A3DE3CA3D9F8D85CA3D9A4
:10084000F8D87CA3D9F8D8F8F9D1A5D9DFDAFAD845
:10085000B18530F7D9DED8F830ADDADED8F2B48C15
:1008600099A32D557DA083DFDFDFB591A0F629D9AF
:10087000FBD8A0FC29D9FAD8A0D051D9F8D8FC517E
:10088000D9F9D879D9FBD8A0D0FC79D9FAD8A1F96F
:10089000F9F9F9F9A0DADFDFDFD8A1F8F8F8F8F80C
:1008A000ACDEF8ADDE8393AC2C547CF1A8DFDFDF47
:1008B000F69D2CDAA0DFD9FADB2DF8D8A850DAA003
:1008C000D0DED9D0F8F8F8DB55F8D8A878DAA0D07F
:1008D000DFD9D0FAF8F8F8F8DB7DF8D89CA88CF5C9
:1008E00030DB38D9D0DEDFA0D0DEDFD8A848DB5837
:1008F000D9DFD0DEA0DFD0DED8A868DB70D9DFDF9B
:10090000A0DFDFD8F1A888902C547C98A8D05C3860
:10091000D1DAF2AE8CDFF9D8B087A8C1C1B188A80E
:10092000C6F9F9DA36D8A8F9DA36D8A8F9DA36D815
:10093000A8F9DA36D8A8F9DA36D8F78D9DADF818C7
:10094000DAF2AEDFD8F7ADFA30D9A4DEF9D8F2AEDC
:10095000DEFAF983A7D9C3C5C7F1889BA77AADF79B
:10096000DEDFA4F8849408A797F300AEF29819A4E8
:1009700088C6A39488F632DFF28393DB09D9F2AA02
:10098000DFD8D8AEF8F9D1DAF3A4DEA7F1889B7AE4
:10099000D8F38494AE19F9DAAAF1DFD8A881C0C3DC
:1009A000C5C7A39283F628ADDED9F8D8A350ADD938
:1009B000F8D8A378ADD9F8D8F8F9D1A1DADEC3C553
:1009C000C7D8A18194F818F2B089ACC3C5C7F1D8D3
:1009D000B8B4B09786A8319B069907AB9728889B37
:1009E000F00C201440B0B4B8F0A88A9A285078B718
:1009F0009BA8295179247059446938644831F1BB66
:100A0000AB88002C547CF0B38BB8A804285078F144
:100A1000B088B49726A85998BBABB38B022646661C
:100A2000B0B8F08A9CA82951798B2951798A247011
:100A3000598B2058718A4469388B3940688A6448D8
:100A4000318B30496088F1AC002C547CF08CA804C8
:100A5000285078F1889726A85998AC8C02264666CB
:100A6000F0899CA829517924705944693864483127
:100A7000A98809205970AB11384069A8193148601C
:100A80008CA83C415C207C00F187981986A86E7682
:100A90007EA999882D557DD8B1B5B9A3DFDFDFAE2A
:100AA000D0DFAAD0DEF2ABF8F9D9B087C4AAF1DF63
:100AB000DFBBAFDFDFB9D8B1F1A3978E60DFB084C1
:100AC000F2C8F8F9D9DED89385F14AB183A308B505
:100AD000839A0810B79F10D8F1B0BAAEB08AC2B2EC
:100AE000B68E9EF1FBD9F41DD8F9D90CF1D8F8F8DF
:100AF000AD61D9AEFBD8F40CF1D8F8F8AD19D9AE88
:100B0000FBDFD8F416F1D8F8AD8D61D9F4F4ACF56B
:100B10009C9C8DDF2BBAB6AEFAF8F40BD8F1AED0B0
:100B2000F8AD51DAAEFAF8F1D8B9B1B6A3839C08A2
:100B3000B9B1839AB5AAC0FD3083B79F10B58B9326
:100B4000F20202D1ABDADED8F1B080BAABC0C3B2E8
:100B500084C1C3D8B1B9F38BA391B609B4D9ABDEC4
:100B6000B0879CB9A3DDF1B38B8B8B8B8BB087A344
:100B7000A3A3A3B28BB69BF2A3A3A3A3A3A3A3A3F4
:100B8000A3A3F1B087B59AA3F39BA3A3DCBAACDF10
:100B9000B9A3A3A3A3A3A3A3A3A3A3A3A3A3A3A30F
:100BA000A3D8D8D8BBB3B7F1AAF9DAFFD9809AAAEB
:100BB00028B48098A720B79787A86688F07951F164
:100BC000902C870CA781976293F0717160859401D6
:100BD00029517990A5F1284C6C870C95188578A33C
:100BE0008390284C6C886CD8F3A28200F210A892F3
:100BF0001980A2F2D926D8F188A84DD948D896A84C
:100C00003980D93CD89580A839A68698D92CDA871E
:100C1000A72CD8A8899519A980D938D8A88939A925
:100C200080DA3CD8A82EA83990D90CD8A89531984C
:100C3000D90CD8A809D9FFD801DAFFD89539A9DA93
:100C400026FFD890A80D8999A810809821DA2ED86F
:100C50008999A83180DA2ED8A886963180DA2ED8E4
:100C6000A8873180DA2ED8A88292F34180F1D92E5C
:100C7000D8A882F31980F1D92ED882ACF3C0A28013
:100C800022F1A62EA72EA92298A829DAACDEFFD839
:100C9000A2F22AF1A92E8292A8F23180A696F1D969
:100CA00000AC8C9C0C30ACDED0DEFFD88C9CACD081
:100CB00010ACDE8092A2F24C82A8F1CAF235F19615
:100CC00088A6D900D8F1FF00000000240027002AE0
:100CD0000000000000250028002B00000000002379
:100CE000002600290004040404040404040202028F
:100CF000020202030303030303010204081020405D
:100D000080010204081020010204081020000000E5
:100D100007000201000003040600000000000000BC
:100D20000000E01E2B3111241FBECFEFD8E0DEBF44
:100D3000CDBF11E0A0E0B1E0E4EAFEE602C005901C
:100D40000D92A834B107D9F715E0A8E4B1E001C0CD
:100D50001D92A23FB107E1F71DE0C6E2DDE004C04D
:100D60002297FE010E944C37C232D107C9F70E9478
:100D700081310C94BD060C940000F8940C9450370B
:100D8000FB01DC0104C08D910190801921F44150D8
:100D90005040C8F7881B990B0895FC011092BC00C5
:100DA000662319F088B1806302C088B18F7C88B94E
:100DB0001092B9009F01442737FD4095542F60E8F9
:100DC0007EE380E090E00E942F3720513040404089
:100DD0005040CA01B90122E030E040E050E00E94FA
:100DE0002F372093B80084E08093BC000895482FEB
:100DF000440F92E064EB54E86093BC002AEF30E0CB
:100E00008091BC0087FD34C0215030408FEF2F3FD0
:100E10003807B1F727C08091B900887F883021F06A
:100E2000803111F082E008954093BB005093BC00E4
:100E30002AEF30E08091BC0087FD1EC02150304079
:100E40008FEF2F3F3807B1F70FC08091B900887F2F
:100E5000803221F4992351F09150CECF883131F472
:100E600080E0089581E0089583E0089584E0089586
:100E70001216130684F2F6CF1216130634F3F4CFCB
:100E8000EF92FF920F931F93162FE42E022FF32E53
:100E90000E94F7061093BB0084E88093BC002AEF01
:100EA00030E08091BC0087FD07C0215030408FEFBB
:100EB0002F3F3807B1F703C0121613063CF0802FFE
:100EC0009F2D9C01F90190E044E81CC08091B9007D
:100ED000F6CF80818093BB004093BC002AEF30E0C6
:100EE0008091BC0087FD07C0215030408FEF2F3F1D
:100EF0003807B1F705C01216130614F48091B90033
:100F00009F5F31969E1528F384E98093BC002AEFF9
:100F100030E08091BC0087FD06C02115310519F035
:100F200021503040F6CF81E01F910F91FF90EF905C
:100F300008951F93F82F122F72E0B4EBE82FEE7F85
:100F4000A4E8B093BC002AEF30E08091BC0087FD9C
:100F5000D0C0215030408FEF2F3F3807B1F7B7C0D6
:100F60008091B900887F883021F0803111F091E1C3
:100F7000BDC0E093BB00A093BC002AEF30E080919D
:100F8000BC0087FDBBC0215030408FEF2F3F38079A
:100F9000B1F79FC09091B900987F903229F47723E0
:100FA00009F499C07150CDCF983109F094C0609385
:100FB000BB0084E88093BC002AEF30E08091BC0045
:100FC00087FDA1C0215030408FEF2F3F3807B1F788
:100FD00084C08091B900887F883211F095E186C085
:100FE00062E0A4EB7F2F7160E4E8A093BC002AEFDD
:100FF00030E08091BC0087FD8BC0215030408FEFE6
:101000002F3F3807B1F76BC08091B900887F8830D7
:1010100021F0803111F097E169C07093BB00E0933B
:10102000BC002AEF30E08091BC0087FD76C02150E3
:1010300030408FEF2F3F3807B1F758C08091B9008B
:10104000887F883429F4662309F44BC06150CDCFE2
:10105000803409F046C0FA0160E0412F50E0415071
:101060005040A4EC74E822C0862F90E084179507C6
:1010700019F47093BC0002C0A093BC002AEF30E0CA
:101080008091BC0087FD4EC0215030408FEF2F3F34
:101090003807B1F728C09091B900987F903511F0CA
:1010A000983521F58091BB0081936F5F6117E0F265
:1010B00084E98093BC002AEF30E08091BC0087FD7A
:1010C00014C02115310589F021503040F6CF90E150
:1010D0000DC092E10BC093E109C094E107C096E115
:1010E00005C099E103C09AE101C090E0892F1F91EA
:1010F0000895121613060CF433CFE9CF1216130617
:101100000CF448CFE6CF121613060CF462CFE5CFED
:10111000121613060CF478CFE2CF121613060CF455
:101120008DCFE4CF121613060CF4B5CFDCCF7F922F
:101130008F929F92AF92BF92CF92DF92EF92FF92E7
:101140000F931F93CF93DF93F82EE62E742E690131
:10115000E8010E948D2D4B015C018F2D880F6E2DB3
:10116000A601272D0E949907882311F01FEF01C0C7
:10117000172D2097C1F00E948D2D681979098A09D1
:101180009B099E0140E050E06217730784079507B2
:1011900050F0212F332727FD3095872D90E0281719
:1011A00039070CF41FEF812FDF91CF911F910F9121
:1011B000FF90EF90DF90CF90BF90AF909F908F9077
:1011C0007F900895AC018230910518F02FEF3FEF2A
:1011D00044C080933402909335029C01220F331F48
:1011E00075E0880F991F7A95E1F7821B930B885B56
:1011F0009E4F90932D0280932C02CA0163E0880FCA
:10120000991F6A95E1F7280F391F2C573E4F3093ED
:101210002F0220932E0287E290E09C01429FC001A2
:10122000439F900D529F900D112488569E4F90938E
:1012300031028093300283E290E09C01429FC00122
:10124000439F900D529F900D11248A519E4F909371
:1012500033028093320220E030E0C90108950F93F9
:101260001F93CF93DF93C0912C02D0912D0285E77D
:10127000888389E189838AE18A838CE08B838AE68B
:101280008C8383E28D838BE18E838CE18F838FE16E
:101290008A8780E28B8782E78C8784E78D8783E467
:1012A0008E878BE38F8781E4888B88E3898B89E342
:1012B0008A8B8AE38B8B8BE68D8B8CE68E8B87E318
:1012C0008F8B8FE6888F86E0898F84E28A8F8DE608
:1012D0008B8F8EE68C8F80E78D8F8091340290917A
:1012E0003502009719F0019769F406C0E0912E02CB
:1012F000F0912F0288E605C0E0912E02F0912F02B6
:1013000089E6808300912E0210912F0280E094E004
:10131000F8019283818386E7838384E591E0958356
:10132000848387EF9DEF9783868380E091E09187A8
:101330008087209130023091310283E890E0A0E074
:10134000B0E0F90180839183A283B38380E098E0C9
:10135000A0E0B0E084839583A683B783108681E004
:101360008187128688E1838782E390E0958784876E
:1013700085E0868780E090E0A0E2B1E48787908BEB
:10138000A18BB28B80E090E0A2EDB2E4838B948BD2
:10139000A58BB68B49E25CE56FE07EE3478B508F0F
:1013A000618F728F8AE999E9A9E9BEE3838F948FEF
:1013B000A58FB68F83E393E3A3E7BFE3878F90A363
:1013C000A1A3B2A343A354A365A376A3E0913202E1
:1013D000F0913302D183C0831383028332A321A30C
:1013E000DF91CF911F910F910895DC01E0913202BE
:1013F000F09133028681882319F081E08C9301C03B
:101400001C9280E090E00895DF93CF930F92CDB7C8
:10141000DEB7982FA0913202B09133025D968C9185
:101420005D97882321F0992389F082E00DC01696FC
:101430008C9116978823E9F0992341F01C968C91A2
:101440001C978823F9F481E0898301C019821296E0
:10145000ED91FC9113970D90BC91A02D8081519638
:101460006C9141E09E012F5F3F4F0E94400788230F
:1014700019F42FEF3FEF08C0E0913202F0913302F0
:101480008981848720E030E0C9010F90CF91DF91FE
:101490000895CF92DF92EF92FF920F931F93DF9305
:1014A000CF9300D0CDB7DEB7D82EC92E8B017A01ED
:1014B0004115510519F42FEF3FEF41C0E091320281
:1014C000F09133028681882319F42EEF3FEF37C065
:1014D000A281B3819B012D0D311D18968D919C9198
:1014E00019978217930718F42DEF3FEF28C0C98290
:1014F000DA820190F081E02D8C91638D42E09E01B3
:101500002F5F3F4F0E944007882319F42CEF3FEFD5
:1015100016C0E0913202F0913302A281B3810190B2
:10152000F081E02D8C91608D402F97010E94400743
:10153000882319F020E030E002C02BEF3FEFC90113
:101540000F900F90CF91DF911F910F91FF90EF902F
:10155000DF90CF9008951F93DF93CF930F92CDB775
:10156000DEB7182FA0913202B09133025C968C91B5
:101570005C97811781F1112319F080E3898301C001
:1015800019821D968C911D97882319F0898182609C
:1015900089835B968C915B97882319F08981806899
:1015A00089831296ED91FC9113970D90BC91A02D1B
:1015B000808157966C9141E09E012F5F3F4F0E94C2
:1015C0004007882319F42FEF3FEF07C0E091320264
:1015D000F0913302148F20E030E0C9010F90CF91D9
:1015E000DF911F910895DF93CF930F92CDB7DEB7B0
:1015F0009C01A0913202B091330216968C911697FD
:10160000882399F12C3B310510F081E015C022367A
:10161000310510F082E010C02A32310510F083E06D
:101620000BC02431310510F084E006C02A303105AA
:1016300010F085E001C086E0898317969C9117978A
:1016400089819817D9F01296ED91FC9113970D901E
:10165000BC91A02D808112966C9141E09E012F5F7C
:101660003F4F0E944007882319F42FEF3FEF08C037
:10167000E0913202F09133028981878320E030E0EB
:10168000C9010F90CF91DF910895DF93CF930F920F
:10169000CDB7DEB7982FA0913202B09133021696E3
:1016A0008C9116978823A1F1943061F0953018F44D
:1016B000923071F505C0983039F0903149F506C087
:1016C000198206C088E003C080E101C088E18983F7
:1016D00015962C91159730E0898190E043E095951F
:1016E00087954A95E1F72817390709F11296ED9188
:1016F000FC9113970D90BC91A02D808117966C9151
:1017000041E09E012F5F3F4F0E944007882319F45C
:101710002FEF3FEF0EC0E0913202F091330289814A
:1017200090E0A3E095958795AA95E1F7858320E061
:1017300030E0C9010F90CF91DF910895DF93CF93EF
:101740000F92CDB7DEB79C01A0913202B091330267
:1017500016968C9116978823E1F181E0243F380793
:1017600091F081E0253F380720F42A3F310589F5C3
:1017700008C083E0283E380741F0205D374049F536
:1017800006C0198206C088E003C080E101C088E17C
:10179000898314962C91149730E0898190E063E05E
:1017A000959587956A95E1F72817390709F11296FB
:1017B000ED91FC9113970D90BC91A02D8081169610
:1017C0006C9141E09E012F5F3F4F0E9440078823AC
:1017D00019F42FEF3FEF0EC0E0913202F091330287
:1017E000898190E053E0959587955A95E1F7848338
:1017F00020E030E0C9010F90CF91DF910895FF9272
:101800000F931F93DF93CF930F92CDB7DEB7F82ED0
:10181000082F10E0C80180779070892B11F081E0CB
:1018200005C0FF2011F0198202C080E48983E09195
:101830003202F0913302A281B3810190F081E02D58
:101840008C91658941E09E012F5F3F4F0E944007C8
:10185000A0913202B0913302882319F416961C929B
:1018600030C089818F7B18968C931897198206FD5A
:1018700002C084E0898305FD03C089818260898379
:1018800004FD03C089818160898303FD03C08981D0
:10189000886389831296ED91FC9113970D90BC910A
:1018A000A02D808156966C9141E09E012F5F3F4FA5
:1018B0000E944007882341F4E0913202F091330204
:1018C00016822FEF3FEF16C0FF2031F088E0F816A8
:1018D00019F080E00E94AB0AE0913202F0913302ED
:1018E000F682178662E370E080E090E00E949B2D14
:1018F00020E030E0C9010F90CF91DF911F910F914F
:10190000FF9008950F931F93DF93CF930F92CDB75E
:10191000DEB7A0913202B091330216968C911697E1
:10192000882309F41BC119821296ED91FC9113973B
:101930000D90BC91A02D808151966C9141E08E015B
:101940000F5F1F4F98010E944007882309F406C1CA
:10195000E0913202F0913302A281B3810190F081D3
:10196000E02D8C91658141E098010E944007882319
:1019700009F4F4C0E0913202F0913302A281B38104
:101980000190F081E02D8C91648141E098010E94EA
:101990004007882309F4E2C0A0913202B0913302DB
:1019A0005D968C915D97882309F469C08CE08983EA
:1019B0001296ED91FC9113970D90BC91A02D808112
:1019C00014966C9141E098010E944007882309F425
:1019D000C5C062E370E080E090E00E949B2D80EC47
:1019E0008983A0913202B091330216968C9116979A
:1019F00080FF02C080EE89831296ED91FC911397CF
:101A00000D90BC91A02D808114966C9141E09E01B7
:101A10002F5F3F4F0E944007882309F49FC0A09189
:101A20003202B09133021C968C911C97882319F0D6
:101A300082E0898301C019821296ED91FC9113977F
:101A40000D90BC91A02D808151966C9141E08E014A
:101A50000F5F1F4F98010E944007882309F47EC042
:101A60001982E0913202F0913302A281B381019098
:101A7000F081E02D8C91658141E098016BC084E09C
:101A800089831296ED91FC9113970D90BC91A02D36
:101A9000808114966C9141E098010E944007882350
:101AA00009F45CC0A0913202B09133021D968C9172
:101AB0001D97882329F416968C91169780FD02C0F5
:101AC00080E401C080E689831296ED91FC91139722
:101AD0000D90BC91A02D808114966C9141E09E01E7
:101AE0002F5F3F4F0E9440078823C1F162E370E0FF
:101AF00080E090E00E949B2DA0913202B0913302D1
:101B00001C968C911C97882319F081E0898301C071
:101B100019821296ED91FC9113970D90BC91A02D16
:101B2000808151966C9141E09E012F5F3F4F0E9452
:101B30004007882399F0E0913202F0913302A281AC
:101B4000B381208131813B968C91D90115966C919E
:101B500041E09F010E944007882319F42FEF3FEFD7
:101B600002C020E030E0C9010F90CF91DF911F91BA
:101B70000F9108950F931F93CF93DF93982FE091C8
:101B80003202F0913302858D882319F0C0E0D0E055
:101B900029C08681882321F1192F1E7F0385812387
:101BA0008387811719F4C0E0D0E002C0CFEFDFEFE8
:101BB000112319F48785882331F081E00E94040AFB
:101BC000112381F004C080E00E94040A0BC00E942F
:101BD000820C892B39F0E0913202F09133020387B5
:101BE000CFEFDFEFCE01DF91CF911F910F910895DD
:101BF0001F93DF93CF9300D0CDB7DEB7182F893274
:101C000008F058C08823F9F480E00E94AB0A1982DA
:101C100087E08A83E0913202F0913302A281B3819E
:101C20000190F081E02D8C91658942E09E012F5F4B
:101C30003F4F0E9440078823E9F1E0913202F09182
:101C40003302178646C081E00E94AB0A80E2898396
:101C5000113011F41A8204C0163028F481E08A830E
:101C600085E090E00BC0153128F482E08A838AE099
:101C700090E004C083E08A8384E190E00E94F30A4C
:101C80008A818295880F880F807C87608A83E091A3
:101C90003202F0913302A281B3810190F081E02DF4
:101CA0008C91658942E09E012F5F3F4F0E94400763
:101CB000882319F42FEF3FEF0EC0E0913202F0912C
:101CC000330288E08683108681E0878780E00E9467
:101CD000BA0D20E030E0C9010F900F90CF91DF9155
:101CE0001F9108950F931F93DF93CF930F92CDB75A
:101CF000DEB78C01E0913202F091330286818823B5
:101D0000B9F1858D8823A1F58785882359F0C8010D
:101D10000197889720F4802F0E94F80D3FC080E043
:101D20000E94F80D0430110518F464E070E007C05B
:101D3000B80183E0093E180710F068EE73E088EE02
:101D400093E00E94E63661506983E0913202F0919F
:101D50003302A281B3810190F081E02D8C916181E9
:101D600041E09E012F5F3F4F0E944007882319F4F6
:101D70002FEF3FEF15C0698170E06F5F7F4F88EEF6
:101D800093E00E94FA36CB01E0913202F0913302E7
:101D900072876187969587950E94F30A20E030E06C
:101DA000C9010F90CF91DF911F910F910895CF92AC
:101DB000DF92EF92FF920F931F93DF93CF9300D0A8
:101DC000CDB7DEB7182F092F7B016A0141155105E8
:101DD000D1F1E0913202F09133028681882399F1AA
:101DE000A281B3819B01210F311D18968D919C9189
:101DF00019978217930738F109831A830190F081AC
:101E0000E02D8C91638D42E09E012F5F3F4F0E9439
:101E100040078823C1F0E0913202F0913302A281A1
:101E2000B3810190F081E02D00910001109101013A
:101E30008C91608D4E2D96010E949708882319F091
:101E400020E030E002C02FEF3FEFC9010F900F906C
:101E5000CF91DF911F910F91FF90EF90DF90CF9086
:101E600008952F923F924F925F926F927F928F923E
:101E70009F92AF92BF92CF92DF92EF92FF920F9319
:101E80001F93DF93CF93CDB7DEB764970FB6F89467
:101E9000DEBF0FBECDBF3C014B014B8B5C8B1901EC
:101EA000E0913202F0913302868D882319F02FEFF2
:101EB0003FEF75C06115710519F42EEF3FEF6FC04C
:101EC00080E190E00E94C22EB92EC82ED92EA82EF5
:101ED000EE24FF24E3E04E2E512C4C0E5D1E38C044
:101EE00083010E191F090131110510F000E110E006
:101EF00094012E0D3F1DD601A601400F511F05C0B4
:101F0000F90184918D932F5F3F4FA417B507C1F757
:101F1000C701B801A5010E94490A892B19F02DEFCC
:101F20003FEF3DC0C701B801A2010E94D70E892B27
:101F300019F02CEF3FEF33C0C501B201A8010E9498
:101F4000C006009719F02BEF3FEF29C0E00EF11EFD
:101F5000E614F70428F2FC89F9838B898A83E091DF
:101F60003202F0913302A281B3810190F081E02D21
:101F70008C91658D42E09E012F5F3F4F0E9440078C
:101F8000882319F42AEF3FEF0AC0E0913202F09162
:101F9000330281E0868F30A2278E20E030E0C90135
:101FA00064960FB6F894DEBF0FBECDBFCF91DF9120
:101FB0001F910F91FF90EF90DF90CF90BF90AF9067
:101FC0009F908F907F906F905F904F903F902F9059
:101FD0000895DF92EF92FF920F931F93DF93CF93B9
:101FE0000F92CDB7DEB7D82EE0913202F0913302D6
:101FF00085858D1509F49EC0A281B3810190F08181
:10200000E02D00910001109101017E010894E11C76
:10201000F11CDD2089F18C91648141E097010E94DF
:102020009708882309F47EC089818F7D8983E09198
:102030003202F0913302A281B3810190F081E02D50
:102040008C91648141E097010E944007882309F444
:1020500069C063E070E080E090E00E949B2D82E028
:102060008983A0913202B09133025B968C915B9789
:102070008823F1F182E839C08C91648141E09701B5
:102080000E949708882309F44DC0A0913202B091B4
:10209000330216968C911697998180FF02C0906248
:1020A00001C09F7D99831296ED91FC9113970D903D
:1020B000BC91A02D808114966C9141E09E012F5F10
:1020C0003F4F0E944007882369F163E070E080E0A1
:1020D00090E00E949B2DA0913202B09133025B965A
:1020E0008C915B97882319F080E8898301C019825D
:1020F0005C968C915C97882319F089818063898331
:102100001296ED91FC9113970D90BC91A02D8081BA
:1021100057966C9141E09E012F5F3F4F0E94400710
:10212000882319F42FEF3FEF07C0E0913202F091BE
:102130003302D58620E030E0C9010F90CF91DF91C6
:102140001F910F91FF90EF90DF900895DF93CF9351
:102150000F92CDB7DEB7982FE0913202F0913302A3
:10216000858D891709F44AC0992369F1868D8823E2
:1021700019F42FEF3FEF44C080E00E94040A80E092
:102180000E94E90FE0913202F0913302878D90A115
:102190000E94720E1982E0913202F09133020280A5
:1021A000F381E02D808163E241E09E012F5F3F4F8C
:1021B0000E944007E0913202F091330281E0858F66
:1021C0000E94040A19C080E00E94040AE0913202D1
:1021D000F0913302838589830280F381E02D808131
:1021E00063E241E09E012F5F3F4F0E944007E09174
:1021F0003202F0913302158E0E94820C20E030E012
:10220000C9010F90CF91DF9108956F927F928F92C5
:102210009F92AF92BF92CF92DF92EF92FF920F9375
:102220001F93DF93CF9300D0CDB7DEB76C013B0196
:102230004A01A0913202B09133025D968C915D9774
:10224000882319F42FEF3FEF7CC016968C911697D8
:10225000882319F42EEF3FEF74C01296ED91FC9194
:1022600013970D90BC91A02D0091000110910101D8
:1022700080811C966C9142E05E010894A11CB11C07
:1022800095010E949708882319F42DEF3FEF59C05C
:10229000998180E02A81E22EFF24E82AF92AEC14B1
:1022A000FD0428F4F401108221E030E04AC0E091FE
:1022B0003202F0913302A281B38111968D919C91EB
:1022C0001297969587958E159F05D0F40190F08111
:1022D000E02D00910001109101018C91638941E092
:1022E00095010E949708882319F42BEF3FEF29C02E
:1022F000898184FF05C00E94820C22E030E021C069
:10230000E0913202F0913302A281B3810190F08119
:10231000E02D00910001109101018C9165854C2DFB
:1023200093010E949708882319F429EF3FEF09C011
:10233000C701B6010E94E6366150F401608320E0D7
:1023400030E0C9010F900F90CF91DF911F910F9155
:10235000FF90EF90DF90CF90BF90AF909F908F90C5
:102360007F906F900895EF92FF920F931F93DF93EA
:10237000CF9300D000D000D0CDB7DEB780E88983FE
:10238000E0913202F0913302A281B3810190F08199
:10239000E02D8C91658941E07E010894E11CF11CDF
:1023A00097010E944007882319F42FEF3FEFDBC00D
:1023B00064E670E080E090E00E949B2D1982E0913D
:1023C0003202F0913302A281B3810190F081E02DBD
:1023D0008C91658941E097010E944007882319F498
:1023E0002EEF3FEFC0C0E0913202F0913302A281A4
:1023F000B3810190F081E02D009100011091010165
:102400008C91618D46E097010E949708882319F40A
:102410002DEF3FEFA8C08E8190E081709070880F03
:10242000991F880F991F2C8130E021703070220F86
:10243000331F982F922B8A818170982B91F09130C5
:1024400031F4E0913202F0913302968732C092303B
:1024500019F02CEF3FEF87C0E0913202F091330288
:1024600027C0E0913202F0913302A281B381019042
:10247000F081E02D00910001109101018C916381A8
:1024800041E097010E949708882319F42BEF3FEF52
:102490006AC089818F7019F42AEF3FEF64C0E09120
:1024A0003202F0913302843019F481E0868701C052
:1024B0001686E0913202F09133022FEF26832483B7
:1024C000258327838FEF9FEF928781872387258737
:1024D00081E08087838F148E108A178671968AE038
:1024E00011928A95E9F7E0913202F0913302158E4C
:1024F000168E10A2178E80ED97E00E949E0B892BFE
:1025000019F026EF3FEF2FC082E00E94450B892B88
:1025100019F025EF3FEF27C08AE290E00E94F30A0E
:10252000892B19F024EF3FEF1EC082E390E00E9458
:10253000720E892B19F023EF3FEF15C080E00E9447
:10254000BA0D892B19F022EF3FEF0DC080E00E94F9
:10255000E90F892B19F020EF3FEF05C080E00E94C2
:10256000FF0B20E030E0C90126960FB6F894DEBFDD
:102570000FBECDBFCF91DF911F910F91FF90EF90D4
:1025800008959C018230910518F02FEF3FEF16C09F
:1025900080934E0290934F028BE090E0AC01249F19
:1025A000C001259F900D349F900D11248A5C9D4F92
:1025B00090934D0280934C0220E030E0C9010895D1
:1025C000E0914C02F0914D0211821082138212822E
:1025D000158214821782168211861086128608953B
:1025E0002F923F924F925F926F927F928F929F9223
:1025F000AF92BF92CF92DF92EF92FF920F931F9311
:10260000DF93CF93CDB7DEB7AC970FB6F894DEBFAC
:102610000FBECDBF9EA38DA378A76FA32A013AA7B3
:1026200029A71CA70BA7A701D8011D921C92E09116
:102630004C02F0914D02828590E0BE016F5F7F4FAA
:102640000E9405119CA38BA3892B09F0B2C1E091D4
:102650004C02F0914D02FAA3E9A38681978184711F
:102660009070892B11F440E017C1A980BB24CC24C1
:10267000DD24DA2CCC24BB24AA248A8190E0A0E0BB
:10268000B0E0DC0199278827A82AB92ACA2ADB2AC0
:102690008C8190E0A0E0B0E0A82AB92ACA2ADB2AFF
:1026A0008B8190E0A0E0B0E0BA2FA92F982F882767
:1026B000A82AB92ACA2ADB2AD201AD92BD92CD92AC
:1026C000DC9213972D8130E040E050E0522F4427F8
:1026D000332722278E8190E0A0E0B0E0DC0199272B
:1026E0008827282B392B4A2B5B2B888590E0A0E08C
:1026F000B0E0282B392B4A2B5B2B8F8190E0A0E098
:10270000B0E0BA2FA92F982F8827282B392B4A2BD6
:102710005B2BF2012483358346835783298530E080
:1027200040E050E0522F4427332722278A8590E04B
:10273000A0E0B0E0DC0199278827282B392B4A2B11
:102740005B2B8C8590E0A0E0B0E0282B392B4A2B46
:102750005B2B8B8590E0A0E0B0E0BA2FA92F982FDB
:102760008827282B392B4A2B5B2BD20118962D93C7
:102770003D934D935C931B972D8530E040E050E0F6
:10278000522F4427332722278E8590E0A0E0B0E027
:10279000DC0199278827282B392B4A2B5B2B88892A
:1027A00090E0A0E0B0E0282B392B4A2B5B2B8F85E3
:1027B00090E0A0E0B0E0BA2FA92F982F8827282B0F
:1027C000392B4A2B5B2B2487358746875787560141
:1027D000DD24B7FCD094CD2C6480758086809780F2
:1027E0003401992477FC9094892C2084318442848C
:1027F00053841201552437FC5094452C9A015527D7
:1028000037FD5095452FCA01B9010E94BB367B01A7
:102810008C01C601B501A60195010E94BB36E60EEA
:10282000F71E081F191FC401B301A40193010E94E0
:10283000BB36E60EF71E081F191FC201B101A20127
:1028400091010E94BB36E60EF71E081F191F80E09B
:1028500090E0A0E0B1EFE80EF91E0A1F1B1F91E007
:10286000E91690E0F90690E0090792E0190758F0A0
:102870000E94820CABA5BCA51D921C92E3E0F0E087
:10288000FCA3EBA396C0ABA5BCA58D919C91119721
:1028900091608D939C9340E1E9A1FAA1868186FF26
:1028A00039C0A42FB0E0FE01EA0FFB1F228130E007
:1028B000FE01EA0FFB1F918180E0282B392BEFA14D
:1028C000F8A531832083FE01EA0FFB1F338120E04E
:1028D000FE01EA0FFB1F848190E0282B392BEFA12A
:1028E000F8A533832283FE01EA0FFB1F358120E028
:1028F000868190E0282B392BAFA1B8A515963C9383
:102900002E9314974A5FEBA5FCA580819181886086
:1029100091838083A9A1BAA116968D919C91179756
:1029200080789170892BC1F1A42FB0E0FE01EA0FED
:10293000FB1F228130E0FE01EA0FFB1F918180E046
:10294000282B392BEDA1FEA131832083FE01EA0F54
:10295000FB1F338120E0FE01EA0FFB1F848190E022
:10296000282B392BEDA1FEA133832283FE01EA0F30
:10297000FB1F358120E0868190E0282B392BADA10B
:10298000BEA115963C932E931497EBA5FCA58081D0
:10299000918180679183808389A59AA5892B49F0CD
:1029A0000E948D2DA9A5BAA56D937D938D939C93BF
:1029B00013978BA19CA1AC960FB6F894DEBF0FBE07
:1029C000CDBFCF91DF911F910F91FF90EF90DF90DE
:1029D000CF90BF90AF909F908F907F906F905F90BF
:1029E0004F903F902F900895DF93CF93CDB7DEB7F0
:1029F00029970FB6F894DEBF0FBECDBF9E012F5FA3
:102A00003F4F882349F0D901E6E1F1E089E00190E8
:102A10000D928150E1F708C0D901EDE0F1E089E0C5
:102A200001900D928150E1F788EB94E069E070E04D
:102A3000AE014F5F5F4F0E94490A29960FB6F89486
:102A4000DEBF0FBECDBFCF91DF9108950F931F93CF
:102A5000DF93CF93CDB7DEB728970FB6F894DEBFDC
:102A60000FBECDBF8C01893C9105F0F488EC90E05D
:102A7000B8010E94E6366150704079836A8386E12E
:102A800092E062E070E0AE014F5F5F4F0E94490A42
:102A9000892B51F481EC9AE06CE070E04FE151E059
:102AA0000E94490A892B19F02FEF3FEF08C0E091EF
:102AB0004C02F0914D021187008720E030E0C901FF
:102AC00028960FB6F894DEBF0FBECDBFCF91DF9131
:102AD0001F910F910895EF92FF920F931F93DF9331
:102AE000CF9300D000D000D0CDB7DEB78C01AC01C1
:102AF00043705070FA01EC5CFE4F80818983C801FD
:102B0000E3E096958795EA95E1F783709070FC0174
:102B1000EC5CFE4F20812A83D80176E0B695A7951C
:102B20007A95E1F7A370B070FD01EC5CFE4F208157
:102B30002B834F5C5E4FFA0120812C838F5C9E4F6C
:102B4000FC0180818D83AF5CBE4F8C918E8386E2C9
:102B500094E063E070E07E010894E11CF11CA701A1
:102B60000E94490A892B09F04BC08AE294E063E095
:102B700070E0AE014C5F5F4F0E94490A892B09F05B
:102B80003FC0D701EEE2F1E083E001900D92815069
:102B9000E1F7DE011496EBE2F1E083E001900D92A3
:102BA0008150E1F702FF06C08981816089838C81B1
:102BB00081608C8305FF06C08A8181608A838D8154
:102BC00081608D8310FF06C08B8181608B838E8135
:102BD00081608E8380E494E063E070E0AE014F5F3B
:102BE0005F4F0E94490A892B59F481E394E063E026
:102BF00070E0AE014C5F5F4F0E94490A892B19F0CB
:102C00002FEF3FEF08C0E0914C02F0914D02158389
:102C1000048320E030E0C90126960FB6F894DEBFA9
:102C20000FBECDBFCF91DF911F910F91FF90EF901D
:102C30000895DF93CF9300D000D0CDB7DEB78823BF
:102C400049F080E2898388E28A8380E38B8388E38A
:102C50008C8308C083EA93EAA3EAB3EA89839A8360
:102C6000AB83BC838EE99AE064E070E0AE014F5F15
:102C70005F4F0E94490A0E94820C0F900F900F90A4
:102C80000F90CF91DF910895DF93CF9300D000D0C4
:102C9000CDB7DEB7882349F080EC898382EC8A8344
:102CA00084EC8B8386EC8C8308C08BE89BE8ABE8D4
:102CB000BBE889839A83AB83BC8388E99AE064E0AC
:102CC00070E0AE014F5F5F4F0E94490A0E94820C84
:102CD0000F900F900F900F90CF91DF910895AF92CA
:102CE000BF92CF92DF92EF92FF920F931F93DF93E9
:102CF000CF93CDB7DEB72A970FB6F894DEBF0FBEDD
:102D0000CDBF8C0182E089838AEC8A8383EE8B833A
:102D100089E08C8388E690E064E070E0AE014F5F6C
:102D20005F4F0E94490A83EA8983B0E4AB2EB12C3D
:102D3000A022B12206FF06C080EC8A8388EC8B8338
:102D400082EC02C08A838B838C83A0E8EA2EA1E008
:102D5000FA2EE022F122E114F10431F084EC8D83AB
:102D60008CEC8E8386EC03C083EA8D838E838F8305
:102D700083EA888789878A8787EA9AE06AE070E031
:102D8000AE014F5F5F4F0E94490AF3E0CF2ED12C76
:102D9000C022D122C114D10411F080E201C088ED1B
:102DA000898386EB9AE061E070E0AE014F5F5F4F90
:102DB0000E94490A05FF02C081E001C080E00E9434
:102DC000F414E114F104D9F010FF08C082EB8983F8
:102DD0008BE88A8386EB8B838BE907C080EB898342
:102DE00080E88A8384EB8B8380E98C8382EA9AE093
:102DF00064E070E0AE014F5F5F4F0E94490A02FF3E
:102E000002C081E001C080E00E94441604FF02C0BD
:102E100081E001C080E00E941916E0914C02F0911F
:102E20004D02C8018860978386830E94820CE091DE
:102E30004C02F0914D021286AB2811F086E0828799
:102E4000EF2819F082858A5F828704711070012B48
:102E500019F08285805F8287CD2819F082858C5F8A
:102E6000828780E090E02A960FB6F894DEBF0FBE0E
:102E7000CDBFCF91DF911F910F91FF90EF90DF9029
:102E8000CF90BF90AF90089586EF9BE061ED70E02A
:102E900040E054E028EC30E00E94310F08952F927A
:102EA0003F924F925F926F927F928F929F92AF92DA
:102EB000BF92CF92DF92EF92FF920F931F93DF9317
:102EC000CF93CDB7DEB764970FB6F894DEBF0FBED1
:102ED000CDBF10928902109288028AE892E060E9E0
:102EE00072E048E752E020E030E008E812E0F6E95E
:102EF000EF2EF2E0FF2E0E94F01290939802809342
:102F00009702009709F0DAC2809196028230E8F0C9
:102F10008AE892E060E972E048E752E020E030E0C1
:102F200008E812E0E6E9EE2EE2E0FE2E0E94F01242
:102F30009C01909398028093970280919602823030
:102F400008F4BBC2232B21F3B8C2609178027091C0
:102F5000790280917A0290917B020E94E43420E011
:102F600030E040E850E30E94F0351B012C016093F3
:102F700078027093790280937A0290937B02609139
:102F80007C0270917D0280917E0290917F020E946E
:102F9000E43420E030E040E850E30E94F0356983FB
:102FA0007A838B839C8360937C0270937D028093F1
:102FB0007E0290937F0260918002709181028091E5
:102FC0008202909183020E94E43420E030E040E8E5
:102FD00050E30E94F0355B016C01609380027093B6
:102FE00081028093820290938302609184027091A7
:102FF000850280918602909187020E94E43420E04D
:1030000030E040E850E30E94F0356D837E838F838B
:1030100098876093840270938502809386029093D0
:103020008702C601B501A60195010E94F0356987A6
:103030007A878B879C8760939B0270939C02809316
:103040009D0290939E026D817E818F8198859B0168
:10305000AC010E94F0356D877E878F87988B6093D7
:103060009F027093A0028093A1029093A202C201DA
:10307000B101A20191010E94F035698B7A8B8B8B93
:103080009C8B6093A3027093A4028093A5029093FB
:10309000A60269817A818B819C812D813E814F813D
:1030A00058850E94F0357B018C01C201B101A60157
:1030B00095010E94F0359B01AC01C801B7010E9447
:1030C00067333B014C016093A7027093A802809381
:1030D000A9029093AA0225EE32EF4FEF5EE30E9421
:1030E000E5351816BCF4C601B501A20191010E9494
:1030F000F2339B01AC010E946833609358027093D5
:10310000590280935A0290935B028BED9FE0A9ECE9
:10311000BFE322C0C401B30125EE32EF4FEF5EEBF7
:103120000E94453488236CF5C601B501A2019101C6
:103130000E94F23320E030E040E050EC0E94F03595
:10314000609358027093590280935A0290935B02E5
:103150008BED9FE0A9ECBFEB809354029093550256
:10316000A0935602B093570280E090E0A0E0B0E058
:103170008093500290935102A0935202B093530255
:1031800094C069817A818B819C81A20191010E9406
:10319000F0357B018C01C601B5012D813E814F8147
:1031A00058850E94F0359B01AC01C801B7010E940F
:1031B00068339B01AC010E9468337B018C016D85F3
:1031C0007E858F85988929893A894B895C890E94F7
:1031D000683320E030E040E050EC0E94F03520E021
:1031E00030E040E85FE30E9468339B01AC01C80116
:1031F000B7010E94F2336093580270935902809392
:103200005A0290935B02C401B301A40193010E948E
:1032100068330E94CC3360935402709355028093BC
:1032200056029093570269817A818B819C81A60115
:1032300095010E94F0357B018C016D817E818F812B
:103240009885A20191010E94F0359B01AC01C80153
:10325000B7010E9467339B01AC010E9468337B0178
:103260008C0169857A858B859C852D853E854F856A
:1032700058890E94683320E030E040E050EC0E9422
:10328000F03520E030E040E85FE30E9468339B01C6
:10329000AC01C801B7010E94F233609350027093F1
:1032A00051028093520290935302609150027091A8
:1032B0005102809152029091530221EE3EE245E686
:1032C00052E40E94F035905860935002709351027E
:1032D0008093520290935302609154027091550270
:1032E000809156029091570221EE3EE245E652E46B
:1032F0000E94F03590586093540270935502809369
:103300005602909357026091580270915902809131
:103310005A0290915B0221EE3EE245E652E40E94A1
:10332000F0355B016C0120E030E044E353E40E949F
:1033300068337B018C0120E030E044E353E40E94D9
:10334000E535181654F4C601B50120E030E044E339
:1033500053E40E9467337B018C01D801C701B05848
:103360008093580290935902A0935A02B0935B0243
:1033700060918E0270918F02882777FD8095982F3B
:103380000E94E43420E030E043E851E40E944934F4
:1033900060935C0270935D0280935E0290935F0283
:1033A00060918C0270918D02882777FD8095982F0F
:1033B0000E94E43420E030E043E851E40E944934C4
:1033C0006093600270936102809362029093630243
:1033D00060918A0270918B02882777FD8095982FE3
:1033E0000E94E43420E030E043E851E40E94493494
:1033F0006093640270936502809366029093670203
:103400006091900270919102882777FD8095982FA6
:103410000E94E43420E030E040E858E30E94F035B8
:10342000609368027093690280936A0290936B02C2
:103430006091920270919302882777FD8095982F72
:103440000E94E43420E030E040E858E30E94F03588
:1034500060936C0270936D0280936E0290936F0282
:103460006091940270919502882777FD8095982F3E
:103470000E94E43420E030E040E858E30E94F03558
:10348000209174023091750240917602509177023A
:103490000E9467336093700270937102809372028E
:1034A000909373028091990290919A020196909361
:1034B0009A028093990280E001C081E864960FB679
:1034C000F894DEBF0FBECDBFCF91DF911F910F915A
:1034D000FF90EF90DF90CF90BF90AF909F908F9034
:1034E0007F906F905F904F903F902F9008950E9433
:1034F000820C0895EF92FF920F931F938B017A0134
:103500007093AC026093AB0210929A0210929902EF
:103510000E94E2080E942F0980E090E0A0E0B0E065
:103520008093740290937502A0937602B093770211
:1035300080E090E00E94B3119093980280939702EC
:1035400088E70E94FF0B909398028093970280ED8A
:1035500097E00E949E0B909398028093970282E0DE
:103560000E94450B909398028093970287E992E01E
:103570000E94F50988E70E94BA0D90939802809303
:10358000970280E090E00E94C1120E94E0120E9427
:1035900044179093980280939702C7010E946B157D
:1035A0009093980280939702C8010E9426159093E9
:1035B00098028093970281E00E94A610909398024F
:1035C0008093970280E791E00E946F169093980293
:1035D0008093970280E01F910F91FF90EF900895E4
:1035E000FC0180E090E0A0E0B0E080879187A287B6
:1035F000B38784839583A683B78380839183A283D3
:10360000B383808F918FA28FB38F848B958BA68B82
:10361000B78B848F958FA68FB78F84A395A3A6A30E
:10362000B7A380A391A3A2A3B3A384879587A687FA
:10363000B787808B918BA28BB38B80E090E008954D
:1036400020E030E040E050E0FC01248735874687E9
:10365000578708952F923F924F925F926F927F9279
:103660008F929F92AF92BF92CF92DF92EF92FF9292
:103670000F931F93CF93DF93EC013A014B01180195
:103680002901CB01BA012C813D814E815F810E94CD
:10369000F035A20191010E94F0352C853D854E85C3
:1036A0005F850E9468335B016C016C877D878E8724
:1036B0009F87E88CF98C0A8D1B8DA80197010E94C9
:1036C000E535181664F017FB109517F91095C6012B
:1036D000B501A80197010E944534882324F4EC86A3
:1036E000FD860E871F8768A179A18AA19BA1A201EF
:1036F00091010E9449349B01AC01C401B3010E94B5
:103700006733688B798B8A8B9B8BECA0FDA00EA115
:103710001FA1A80197010E94673321EB30E945EC16
:103720005EE30E94F0359B01AC01C801B7010E9425
:1037300068335B016C01688B798B8A8B9B8BC4012E
:10374000B301288139814A815B810E94F0352C8543
:103750003D854E855F850E9468337B018C01C601E3
:10376000B501288539854A855B850E94F0359B0126
:10377000AC01C801B7010E9467336C8F7D8F8E8FBB
:103780009F8FEC88FD880E891F89A80197010E94F0
:10379000E535181624F4EC8EFD8E0E8F1F8F8C8964
:1037A0009D89AE89BF897C018D0117FB109517F9A2
:1037B00010956C8D7D8D8E8D9F8DA80197010E9437
:1037C0004534882324F4EC8EFD8E0E8F1F8F68A263
:1037D00079A28AA29BA288899989AA89BB898CA38C
:1037E0009DA3AEA3BFA3DF91CF911F910F91FF9037
:1037F000EF90DF90CF90BF90AF909F908F907F9091
:103800006F905F904F903F902F900895AC01809102
:10381000D10290E0860F911D80970CF03DC0FA0117
:10382000762F30E0ACE80DC0208198E0822F83270E
:10383000369580FD3A27915011F02695F7CF3196B5
:103840007150772389F7FA01E60FF11D30836F5F1E
:10385000DA0120E030E21EC08091D002803210F008
:103860001092D0029091D002E92FF0E0EE52FD4F7D
:103870008C9180839F5F9093D0028091D1028F5F63
:103880008093D1028091D102813210F03093D10225
:103890002F5F1196261700F30895CF93DF93EC0165
:1038A0008091AF02843008F449C0DE0120E08091AD
:1038B000AF028823E9F09091AE028091AF02981791
:1038C00038F48091AF02E091AE02F0E0B09605C00E
:1038D000E091AE028091AF02F0E0E81BF109E05503
:1038E000FD4F80818C938091AF0281508093AF0215
:1038F0002F5F11962430D9F6FE0130E043E05CE8FA
:103900000CC0208198E0822F8327369580FD3527D3
:10391000915011F02695F7CF3196415090F78B8159
:10392000381719F420E030E00BC08091AD028F5FB2
:103930008093AD021092AE021092AF022FEF3FEFD4
:10394000C901DF91CF9108951F920F920FB60F9288
:1039500011242F938F939F93EF93FF932EB5809114
:10396000D1028823F1F09091D0028091D102981772
:1039700038F48091D102E091D002F0E0B09605C019
:10398000E091D0028091D102F0E0E81BF109EE5203
:10399000FD4F80818EBD8091D10281508093D102F4
:1039A00001C01EBC8091AE02803210F01092AE02B7
:1039B0008091AE02E82FF0E0E055FD4F20838F5F4D
:1039C0008093AE028091AF028F5F8093AF028091AF
:1039D000AF02813218F080E28093AF02FF91EF9145
:1039E0009F918F912F910F900FBE0F901F90189560
:1039F0008093D2046093D3047093D40482ED94E056
:103A000063E00E94061C08956091C4047091C5048F
:103A10008091C6049091C7040E94B1349B01AC010F
:103A200082E1B9010E94F81C6091A2047091A30484
:103A30008091A4049091A5040E94B1349B01AC0133
:103A400083E1B9010E94F81C6091A6047091A7045B
:103A50008091A8049091A9040E94B1349B01AC010B
:103A600084E1B9010E94F81C609121047091220444
:103A700080912304909124040E94B1349B01AC01F5
:103A800085E1B9010E94F81C08956F927F928F9290
:103A90009F92AF92BF92CF92DF92EF92FF920F93DD
:103AA0001F93CF93DF9328E6A22E22E0B22E99EE49
:103AB000692E94E0792E85EF882E84E0982E63019C
:103AC000E401F501E080F18002811381C801B701B2
:103AD000F60120813181428153810E94453488233F
:103AE0002CF4F601E082F18202831383C801B7014E
:103AF000288139814A815B810E94E535181624F4BA
:103B0000E882F9820A831B8384E090E0A80EB91E44
:103B1000C80ED91E249694E7A91692E0B90689F634
:103B20008091CA0464E10E94DA36992341F51CE0D1
:103B30000F2EF0E0CF2EF0E0DF2EF0E0EF2EF0E0E1
:103B4000FF2EF02DF401608171818281938120E04C
:103B500030E04AE754E40E94F0350E94B1349B0102
:103B6000AC01812FB9010E94F81CF401C192D192DD
:103B7000E192F1924F011F5F1F3021F729C09A3067
:103B800039F51FE00F2EF0E0CF2EF0E0DF2EF0E051
:103B9000EF2EF0E0FF2EF02DF30160817181828124
:103BA000938120E030E04AE754E40E94F0350E941F
:103BB000B1349B01AC01812FB9010E94F81CF301C3
:103BC000C192D192E192F1923F011F5F123121F730
:103BD000DF91CF911F910F91FF90EF90DF90CF90E9
:103BE000BF90AF909F908F907F906F9008951F939C
:103BF000CF93DF93CCE5D2E011E06991799189917F
:103C0000999120E030E048EC52E40E94F0350E94A7
:103C1000B1349B01AC01812FB9010E94F81C1F5FD8
:103C2000143059F7DF91CF911F9108951F93CF93CF
:103C3000DF93C0E5D2E014E069917991899199917F
:103C400020E030E048EC52E40E94F0350E94B134AC
:103C50009B01AC01812FB9010E94F81C1F5F173036
:103C600059F76091CE047091CF048091D004909167
:103C7000D10420E030E048EC52E40E94F0350E948C
:103C8000B1349B01AC0187E0B9010E94F81CDF91BF
:103C9000CF911F9108951F93CF93DF93C0E0D3E09E
:103CA00018E069917991812F0E94F81C1F5F1C30E8
:103CB000C1F7DF91CF911F9108958091CD0483309A
:103CC000C9F0843028F4813041F08230B9F508C061
:103CD0008430E1F0853091F523C00E94451D0895A0
:103CE0008091CA0464E10E94DA36992351F40E945B
:103CF000F71D08958091CA0464E10E94DA36992381
:103D0000B1F09A30D9F40E944B1E08958091CA04F4
:103D100064E10E94DA36992389F40E94041D089513
:103D20008091CA0464E10E94DA36992319F40E9452
:103D3000161E08959A3011F40E94041D0895FC0186
:103D40008181882321F470E060E090E032C09081AE
:103D50008181A381B481981748F4318120818281C7
:103D600090E0820F911D831B910905C08081218104
:103D700090E0821B9109880F991F880F991FA80F47
:103D8000B91F8D919D910D90BC91A02D8093EA0556
:103D90009093EB05A093EC05B093ED0581818150E4
:103DA00081837091EA056091EB059091EC0580911B
:103DB000ED05272F362F492F582FB901CA01089535
:103DC0000F931F9304EF12E0C8010E94CD31C80188
:103DD00003960E94CD31C80106960E94CD31C801DC
:103DE00009960E94CD311F910F9108956F927F9295
:103DF0008F929F92AF92BF92CF92DF92EF92FF92FB
:103E00000F931F938091E2049091E30401969093A5
:103E1000E3048093E204895E9D4F20F08FEF80934E
:103E2000CB04A8C00E944F17992787FD90959093C7
:103E3000F3028093F202892B09F09BC01091E404F5
:103E4000183CF8F41431D0F06091E5047091E60468
:103E50008091E7049091E804209170023091710202
:103E600040917202509173020E9468336093E5049E
:103E70007093E6048093E7049093E8041F5F109327
:103E8000E40460905C0270905D0280905E0290900D
:103E90005F02C401B30120E030E040E85FEB0E9424
:103EA000E53518160CF065C0A0906002B090610274
:103EB000C0906202D0906302C601B50120E030E0FC
:103EC00040E85FEB0E94E53518160CF052C0E09018
:103ED0006402F09065020091660210916702C801C9
:103EE000B70120E030E040E85FEB0E94E5351816AE
:103EF0000CF03FC0C401B30120E030E040E85FE3D4
:103F00000E9445348823ACF5C601B50120E030E0BD
:103F100040E85FE30E94453488235CF5C801B7019F
:103F200020E030E040E85FE30E94453488230CF550
:103F30006091E40470E064517040882777FD8095BB
:103F4000982F0E94E4349B01AC016091E5047091CC
:103F5000E6048091E7049091E8040E94493460935C
:103F6000740270937502809376029093770280E0DA
:103F700001C08FEF1F910F91FF90EF90DF90CF90D6
:103F8000BF90AF909F908F907F906F9008950F9308
:103F90001F9304EF12E060910D0370910E03C801AE
:103FA0000E94E73160910D0370910E03C8010396E2
:103FB0000E94E73160910D0370910E03C8010696CF
:103FC0000E94E73160910D0370910E03C8010996BC
:103FD0000E94E7311F910F9108952F923F924F92C7
:103FE0005F926F927F928F929F92AF92BF92CF9289
:103FF000DF92EF92FF920F931F93DF93CF93CDB792
:10400000DEB72C970FB6F894DEBF0FBECDBF0E946F
:104010004F17992787FD90959093F3028093F202B2
:1040200097FF06C00E94C71F8DEF8093CB044FC53A
:104030008091CA048F5F8093CA04883C11F4109267
:10404000CA040E948D2D2091DE043091DF0440913E
:10405000E0045091E104621B730B840B950B0E94EA
:10406000E23420E030E04AE754E40E9449346093AF
:1040700003017093040180930501909306010E944F
:104080008D2D6093DE047093DF048093E0049093A1
:10409000E1048091030190910401A0910501B09188
:1040A00006018D839E83AF83B887BC01CD012AE0D2
:1040B00037ED43E25CE30E94E535181634F48EEFE9
:1040C0008093CB040E94C71F02C58091C20488233D
:1040D00009F457C281508093C204609170027091BC
:1040E0007102809172029091730220E030E845E7FE
:1040F00054E40E94F0351B012C01609386047093F8
:104100008704809388049093890460919A04709145
:104110009B0480919C0490919D042091BE04309159
:10412000BF044091C0045091C1040E94F0352D811C
:104130003E814F8158850E94F0359B01AC01609112
:104140008E0470918F0480919004909191040E944C
:1041500068335B016C0160938E0470938F048093CD
:10416000900490939104E0909A04F0909B04009145
:104170009C0410919D04C801B7012091BA043091AC
:10418000BB044091BC045091BD040E94F0352D81C8
:104190003E814F8158850E94F0352091A6043091D0
:1041A000A7044091A8045091A9040E94683369872C
:1041B0007A878B879C87C801B7012091B60430911C
:1041C000B7044091B8045091B9040E94F0352D8194
:1041D0003E814F8158850E94F0359B01AC01609172
:1041E00092047091930480919404909195040E949C
:1041F00068333B014C016093920470939304809365
:10420000940490939504C201B101A60195010E9406
:1042100068332D813E814F8158850E94F0357B01A6
:104220008C01609396047093970480939804909304
:10423000990420E030E040E05FE30E94F0359B010C
:10424000AC0169857A858B859C850E9468332D81B8
:104250003E814F8158850E94F03520919E04309117
:104260009F044091A0045091A1040E9468335B0117
:104270006C0160939E0470939F048093A0049093BC
:10428000A104A40193010E9468336093A204709377
:10429000A3048093A4049093A50469857A858B85F3
:1042A0009C85A80197010E9468336093A6047093CF
:1042B000A7048093A8049093A90490917D04809111
:1042C0007F04981711F410927D0420917D04822FB1
:1042D00090E0880F991F880F991FE0918004F0915A
:1042E0008104E80FF91FA082B182C282D3822F5FBE
:1042F00020937D0490917E0480917F04981728F488
:1043000080917E048F5F80937E046091C4047091DD
:10431000C5048091C6049091C7042091A2043091F5
:10432000A3044091A4045091A5040E9467335B014B
:104330006C016093AA047093AB048093AC049093D7
:10434000AD04E0902D04F0902E0400912F04109104
:104350003004C801B701A80197010E946833A80181
:1043600097010E94F0359B01AC0160E070E08AE7A4
:1043700093E40E9449347B018C0160938204709322
:1043800083048093840490938504A80197010E947C
:1043900068339B01AC01C601B5010E94E5351816D2
:1043A0007CF4C601B501A80197010E94673320E0A3
:1043B00030E04AEF53E40E94F0350E94573620C0A7
:1043C000C801B70120E030E040E050EC0E94F03539
:1043D0009B01AC01C601B5010E9445348823CCF491
:1043E000C601B5019058A80197010E94673320E0EB
:1043F00030E04AEF53E40E94F0350E94573690585F
:104400006093AE047093AF048093B0049093B104B2
:104410001EC000910301109104012091050130910B
:1044200006018DE294E0B601A5010E942A1B80914D
:10443000490490914A04A0914B04B0914C0480939C
:10444000AE049093AF04A093B004B093B104609114
:10445000AE047091AF048091B0049091B1042091AA
:10446000A6043091A7044091A8045091A9040E9489
:104470006733AB01BC01009103011091040120914D
:1044800005013091060185E594E00E942A1BE09029
:104490008A04F0908B0400918C0410918D0460913B
:1044A000710470917204809173049091740420914E
:1044B00086043091870440918804509189040E94B9
:1044C0006733A80197010E9467332BEA34E242E781
:1044D0005DE30E94F0359B01AC01C801B7010E9469
:1044E0006833AB01BC01CA01DB0180938A0490935D
:1044F0008B04A0938C04B0938D0400910301109160
:104500000401209105013091060185E094E00E94AC
:104510002A1B8091C3048823D9F06091C80470914C
:10452000C904882777FD8095982F0E94E434209154
:1045300021043091220440912304509124040E94CC
:1045400068330E94B1347093DD046093DC041BC0B7
:104550008DE294E00E94201B85E594E00E94201BE0
:1045600085E094E00E94201B80E090E0A0E0B0E0B5
:1045700080938A0490938B04A0938C04B0938D0451
:1045800002C01092C304E0905802F09059020091CA
:104590005A0210915B02C801B70120E030E040E010
:1045A00050E00E94E53518165CF4C801B70120E020
:1045B00030E048E452E40E94E53518165CF01AC079
:1045C000C801B70120E030E048E452EC0E944534D5
:1045D000882384F48091500290915102A09152025C
:1045E000B09153028093CE049093CF04A093D00453
:1045F000B093D104E0905402F0905502009156021D
:1046000010915702C801B70120E030E040E050E0CF
:104610000E94E53518165CF4C801B70120E030E0CF
:1046200048E452E40E94E53518165CF01AC0C8014F
:10463000B70120E030E048E452EC0E944534882382
:1046400084F48091500290915102A0915202B09155
:1046500053028093CE049093CF04A093D004B093E0
:10466000D104E090CE04F090CF040091D0041091DA
:10467000D104A0905002B0905102C0905202D0904C
:104680005302C801B701A60195010E94673320E0DB
:1046900030E044E353EC0E94453488235CF4D801B5
:1046A000C701B0588093CE049093CF04A093D00458
:1046B000B093D104E090CE04F090CF040091D004E8
:1046C0001091D104C801B701A60195010E9467337A
:1046D00020E030E044E353E40E94E53518165CF432
:1046E000D801C701B0588093CE049093CF04A09313
:1046F000D004B093D1042091D6043091D704B901ED
:1047000037FF04C066277727621B730B663071057D
:1047100094F1C9010E94FA368BEF9FEFDB01A89F4D
:10472000B001A99F700DB89F700D1124620F731F07
:10473000882777FD8095982F0E94E4349B01AC0177
:10474000609101047091020480910304909104042B
:104750000E94F0356093A5037093A6038093A7038E
:104760009093A803A092CE04B092CF04C092D0043C
:10477000D092D1041AC06091CE047091CF04809180
:10478000D0049091D104A60195010E946733AB013A
:10479000BC010091030110910401209105013091A9
:1047A000060189E893E00E942A1B8091CC048823AB
:1047B000B9F56091D8047091D904882777FD809568
:1047C000982F0E94E4342091540230915502409178
:1047D0005602509157020E946733AB01BC01009111
:1047E000030110910401209105013091060181EB34
:1047F00093E00E942A1B6091DA047091DB04882701
:1048000077FD8095982F0E94E434209158023091D2
:10481000590240915A0250915B020E94673339C09D
:10482000813009F044C06091D8047091D904882780
:1048300077FD8095982F0E94E434209101043091F7
:10484000020440910304509104040E94F035AB012E
:10485000BC010091030110910401209105013091E8
:10486000060181EB93E00E942A1B6091DA047091AB
:10487000DB04882777FD8095982F0E94E4342091EF
:1048800001043091020440910304509104040E94F9
:10489000F035AB01BC01009103011091040120919E
:1048A00005013091060189ED93E00E942A1BF5EA8B
:1048B000CF2EF3E0DF2EECE5AE2EE2E0BE2E662436
:1048C000772478E2872E912C689C7001699CF00C0B
:1048D000789CF00C1124E1E1F3E0EE0EFF1ED6010E
:1048E0006D917D918D919C91F50121913191419135
:1048F00051915F010E946733AB01BC01009103013C
:10490000109104012091050130910601C7010E9418
:104910002A1B0894611C711C48E250E0C40ED51E8D
:1049200053E06516710481F66091DC047091DD043A
:10493000882777FD8095982F0E94E4341B012C0175
:1049400080917D0390917E03A0917F03B0918003BD
:1049500089839A83AB83BC83C201B10129813A81E7
:104960004B815C810E9468335B016C01E0905503D0
:10497000F0905603009157031091580360902D0357
:1049800070902E0380902F0390903003A801970120
:104990000E946733A40193010E9468330E94B134DE
:1049A0007093010360930003C601B501A80197014C
:1049B0000E946833A40193010E9467330E94B134BE
:1049C0007093030360930203C201B10129813A810C
:1049D0004B815C810E9467335B016C01A8019701E8
:1049E0000E946733A40193010E9467330E94B1348F
:1049F0007093050360930403C601B501A8019701F4
:104A00000E946833A40193010E9468330E94B1346C
:104A100070930703609306030E945D1E2091DC04DF
:104A20003091DD0480910F0390911003281739070E
:104A30005CF50E94C71F8091500290915102A09195
:104A40005202B09153028093CE049093CF04A0936E
:104A5000D004B093D10481E193E00E94201B89E847
:104A600093E00E94201B89E393E00E94201B81EBCE
:104A700093E00E94201B81E693E00E94201B89EDB9
:104A800093E00E94201B23C060E0E62E63E0F62E38
:104A900000E010E0D7018D919C9160910F0370911F
:104AA0001003681779070CF4BC01F7016193719347
:104AB0007F01C801880F991F800F911F8C509D4F57
:104AC0000E94E7310F5F1F4F0430110519F72C9634
:104AD0000FB6F894DEBF0FBECDBFCF91DF911F910F
:104AE0000F91FF90EF90DF90CF90BF90AF909F908D
:104AF0008F907F906F905F904F903F902F90089590
:104B000080E991E060E00E94CD0680E00E94C8311B
:104B10008CE061E00E942F2E8CB580648CBD8CB53A
:104B200080688CBD0895EF92FF920F931F93B1E1BF
:104B3000EB2EB3E0FB2EC7010E94F01A09E813E048
:104B4000C8010E94F01AC70188960E94F01AC80195
:104B500088960E94F01A81E693E00E94F01A89ED8F
:104B600093E00E94F01A85E094E00E94F01A85E537
:104B700094E00E94F01A8DE294E00E94F01A1092E4
:104B80007E0480917E040DE714E0F80181938F018B
:104B90008FE080937F048CE390E00E94C22E80938C
:104BA0008004F801938380E090E0A0ECB0E480936F
:104BB000B2049093B304A093B404B093B50480E01E
:104BC00090E0A0E0BFE38093B6049093B704A09375
:104BD000B804B093B90480E595E5A5E5BFE38093FB
:104BE000BA049093BB04A093BC04B093BD048EEDB3
:104BF0009EEAA7E9BBE38093BE049093BF04A09311
:104C0000C004B093C10480E090E0A0E0B0E08093E5
:104C1000CE049093CF04A093D004B093D10410920B
:104C2000CA041092CB041092CC041092CD041092BE
:104C3000AD021092C3048093C4049093C504A09362
:104C4000C604B093C7041092C9041092C80480939C
:104C5000860490938704A0938804B093890480937A
:104C60008A0490938B04A0938C04B0938D0480935A
:104C70008E0490938F04A0939004B093910480933A
:104C8000920490939304A0939404B093950480931A
:104C9000960490939704A0939804B09399048093FA
:104CA0009A0490939B04A0939C04B0939D048093DA
:104CB0009E0490939F04A093A004B093A1048093BA
:104CC000A2049093A304A093A404B093A50480939A
:104CD000A6049093A704A093A804B093A9041F91DD
:104CE0000F91FF90EF900895FC01880F991F8E0F90
:104CF0009F1FE85FFC4F60818C509D4F70E00E94C9
:104D0000A2320895AF92BF92CF92DF92EF92FF92BC
:104D10000F931F93CF93DF93809101058823A1F414
:104D200081E095E00E949031892B71F00E948D2DD9
:104D300060930D0570930E0580930F0590931005F9
:104D400081E095E00E949A310E948D2D20910D0501
:104D500030910E0540910F0550911005621B730BA9
:104D6000840B950B655C79408040904090F01092E8
:104D7000C3041092DD041092DC041092DB04109244
:104D8000DA041092D9041092D8041092D704109229
:104D9000D60482ED94E00E944D1C892B09F004C6D4
:104DA000E091D2049091D40480E02091D304C22FEA
:104DB000D0E0C82BD92BE53609F47EC3E63608F0DF
:104DC00072C0E53409F4F6C1E63488F5EB3009F435
:104DD0000EC1EC30B0F4E93068F4E53008F0FAC008
:104DE000E33009F4E1C0E43008F0F1C0E23009F04A
:104DF000DBC5D7C0E93009F4F2C0EA3009F0D4C508
:104E0000F1C0EF3009F45CC1E03138F4ED3009F461
:104E1000F8C0EE3008F004C1EFC0E13109F4C0C1C0
:104E2000E13108F460C1E23109F0BEC5BEC1E2352E
:104E300009F48EC2E335D8F4E93409F43DC2EA340A
:104E400060F4E73409F417C2BE01882777FD809526
:104E5000982FE83408F01FC203C2E03509F458C2A5
:104E6000E13508F065C2EA3409F09EC53BC2EB3576
:104E700009F4C0C2EC3550F4E43509F495C2E435C8
:104E800008F47CC2EA3509F08FC5A4C2ED3509F4F7
:104E9000D7C2ED3508F4BEC2EE3509F4E7C2E436F8
:104EA00009F082C5F9C2EA3C09F448C4EB3C08F0B9
:104EB0003FC0E23709F494C3E337D8F4EE3609F47F
:104EC0004DC3EF3650F4E73609F41CC3E73608F457
:104ED00003C3E83609F068C52BC3E03709F459C3AA
:104EE000BE01882777FD8095982FE13708F067C3CA
:104EF00045C3EB3709F4C0C3EC3750F4E93709F484
:104F000095C3EA3708F0A2C3E83709F04DC57EC360
:104F1000E23809F4DDC3E33820F4EC3709F044C586
:104F2000C1C3E83C09F4EAC3E93C09F03DC5F6C356
:104F3000EC3D09F4A7C4ED3DC8F4E33D09F450C4C9
:104F4000E43D50F4EC3C09F425C4EC3C08F40CC4FA
:104F5000E23D09F029C534C4E53D09F467C4E53DE7
:104F600008F44EC4E63D09F01FC576C4E03E09F4DE
:104F7000CBC4E13E60F4EE3D09F49FC4BE01882736
:104F800077FD8095982FEF3D08F0ADC48BC4EE3FC0
:104F900009F4DFC4EF3F08F0E0C4EA3F08F404C5B9
:104FA000C9C4C093CD0400C5C093CC048091500205
:104FB00090915102A0915202B09153028093CE047D
:104FC0009093CF04A093D004B093D104EDC4C093C8
:104FD0000201EAC4F0E0ED5FFC4FC083E5C4C0937A
:104FE0000C03E2C4D093D704C093D604DDC4D0939D
:104FF000D904C093D804D8C4D093DB04C093DA0496
:10500000D3C40E948D2D60930D0570930E0580937F
:105010000F0590931005D093DD04C093DC04C4C445
:1050200088EC8093C20490917E0480917F0489175C
:1050300069F48DE794E00E949F1E609309057093C8
:105040000A0580930B0590930C0510C080919E0477
:1050500090919F04A091A004B091A10480930905B0
:1050600090930A05A0930B05B0930C05BE01882709
:1050700077FD8095982F0E94E4347B018C0160912C
:10508000090570910A0580910B0590910C052091FE
:1050900092043091930440919404509195040E949D
:1050A00068339B01AC01C801B7010E94673360936C
:1050B0009A0470939B0480939C0490939D0474C401
:1050C000C093C3048091DC049091DD049093C904E3
:1050D0008093C8048091A2049091A304A091A40499
:1050E000B091A50454C083E0C93ED8076CF060912C
:1050F000C4047091C5048091C6049091C70420E057
:1051000030E04AE754E424C02CEFC831D2077CF4E5
:105110006091C4047091C5048091C6049091C70445
:1051200020E030E04AE754E40E94673313C0BE0138
:10513000882777FD8095982F0E94E4349B01AC016D
:105140006091C4047091C5048091C6049091C70415
:105150000E9468336093C4047093C5048093C604AE
:105160009093C7046091C4047091C5048091C604F3
:105170009091C70420E030E44CE956E40E94E53504
:1051800018160CF011C480E090E4ACE9B6E480930A
:10519000C4049093C504A093C604B093C70404C488
:1051A000D0930E03C0930D03FFC3D0931003C0939D
:1051B0000F03FAC3BE01882777FD8095982F0E94C0
:1051C000E43420E030E048EC52E40E9449347B01B2
:1051D0008C016093B2047093B3048093B4049093F1
:1051E000B50460E070E080E490E4A80197010E94BB
:1051F00049346093B6047093B7048093B8049093D5
:10520000B904C801B701A80197010E94F0355B01FC
:105210006C0160E070E080E490E4A60195010E94DA
:1052200049346093BA047093BB048093BC04909398
:10523000BD04C601B501A80197010E94F0359B018C
:10524000AC0160E070E080E89FE30E944934609325
:10525000BE047093BF048093C0049093C104A4C3A0
:105260000E94E4346093190470931A0480931B0421
:1052700090931C0499C3BE01882777FD8095982FD1
:105280000E94E43460931D0470931E0480931F04F5
:105290009093200489C30E94E43420E030E04AE780
:1052A00054E40E944934609305047093060480938B
:1052B00007049093080478C3BE01882777FD809582
:1052C000982F0E94E43420E030E04AE754E40E9442
:1052D00049346093090470930A0480930B049093FB
:1052E0000C0462C3BE01882777FD8095982F0E9429
:1052F000E43420E030E44CE156E40E944934609309
:105300000D0470930E0480930F04909310044CC30B
:10531000BE01882777FD8095982F0E94E434609322
:1053200041047093420480934304909344043CC32B
:10533000BE01882777FD8095982F0E94E434609302
:1053400045047093460480934704909348042CC30B
:10535000BE01882777FD8095982F0E94E43420E0D5
:1053600030E04AE754E40E94493460932D0470937E
:105370002E0480932F049093300416C3BE01882717
:1053800077FD8095982F0E94E43420E030E04AE7D2
:1053900054E40E9449346093310470933204809342
:1053A00033049093340400C3BE01882777FD8095B1
:1053B000982F0E94E43420E030E44CE156E40E944F
:1053C0004934609335047093360480933704909386
:1053D0003804EAC2BE01882777FD8095982F0E9485
:1053E000E4346093690470936A0480936B0490932F
:1053F0006C04DAC2BE01882777FD8095982F0E9441
:10540000E43460936D0470936E0480936F04909302
:105410007004CAC2BE01882777FD8095982F0E942C
:10542000E43420E030E04AE754E40E9449346093D9
:105430005504709356048093570490935804B4C253
:10544000BE01882777FD8095982F0E94E43420E0E4
:1054500030E04AE754E40E94493460935904709361
:105460005A0480935B0490935C049EC2BE0188271B
:1054700077FD8095982F0E94E43420E030E44CE1E1
:1054800056E40E94493460935D0470935E048093F7
:105490005F049093600488C2BE01882777FD8095E1
:1054A000982F0E94E4346093250370932603809321
:1054B00027039093280378C2BE01882777FD809543
:1054C000982F0E94E4346093290370932A038093F9
:1054D0002B0390932C0368C2BE01882777FD80952B
:1054E000982F0E94E43420E030E04AE754E40E9420
:1054F00049346093110370931203809313039093C4
:10550000140352C2BE01882777FD8095982F0E9410
:10551000E43420E030E04AE754E40E9449346093E8
:1055200015037093160380931703909318033CC2DE
:10553000BE01882777FD8095982F0E94E43420E0F3
:1055400030E44CE156E40E944934609319037093AF
:105550001A0380931B0390931C0326C2BE01882765
:1055600077FD8095982F0E94E43460934D037093EB
:105570004E0380934F039093500316C20E94E4346D
:105580006093510370935203809353039093540399
:105590000BC2BE01882777FD8095982F0E94E434C6
:1055A00020E030E04AE754E40E9449346093390334
:1055B00070933A0380933B0390933C03F5C10E94A0
:1055C000E43420E030E04AE754E40E944934609338
:1055D0003D0370933E0380933F0390934003E4C1E7
:1055E000BE01882777FD8095982F0E94E43420E043
:1055F00030E44CE156E40E944934609341037093D7
:1056000042038093430390934403CEC1BE01882795
:1056100077FD8095982F0E94E43460937503709312
:1056200076038093770390937803BEC1BE018827E9
:1056300077FD8095982F0E94E434609379037093EE
:105640007A0380937B0390937C03AEC1BE018827CD
:1056500077FD8095982F0E94E43420E030E04AE7FF
:1056600054E40E9449346093610370936203809311
:1056700063039093640398C1BE01882777FD8095EA
:10568000982F0E94E43420E030E04AE754E40E947E
:105690004934609365037093660380936703909326
:1056A000680382C1BE01882777FD8095982F0E94EC
:1056B000E43420E030E44CE156E40E944934609345
:1056C000690370936A0380936B0390936C036CC1BE
:1056D000BE01882777FD8095982F0E94E43420E052
:1056E00030E04AE754E40E94493460930104709327
:1056F0000204809303049093040456C1BE018827DA
:1057000077FD8095982F0E94E43460939D037093F9
:105710009E0380939F039093A00346C1BE018827F8
:1057200077FD8095982F0E94E4346093A1037093D5
:10573000A2038093A3039093A40336C1BE018827DC
:1057400077FD8095982F0E94E43420E030E04AE70E
:1057500054E40E9449346093890370938A038093D0
:105760008B0390938C0320C1BE01882777FD809521
:10577000982F0E94E43420E030E04AE754E40E948D
:10578000493460938D0370938E0380938F039093BD
:1057900090030AC1BE01882777FD8095982F0E944B
:1057A000E43420E030E44CE156E40E944934609354
:1057B0009103709392038093930390939403F4C0A6
:1057C000BE01882777FD8095982F0E94E43460936E
:1057D000C5037093C6038093C7039093C803E4C0C6
:1057E000BE01882777FD8095982F0E94E43460934E
:1057F000C9037093CA038093CB039093CC03D4C0A6
:10580000BE01882777FD8095982F0E94E43420E020
:1058100030E04AE754E40E9449346093B103709346
:10582000B2038093B3039093B403BEC0BE01882734
:1058300077FD8095982F0E94E43420E030E04AE71D
:1058400054E40E9449346093B5037093B603809387
:10585000B7039093B803A8C0BE01882777FD809551
:10586000982F0E94E43420E030E44CE156E40E949A
:1058700049346093B9037093BA038093BB03909348
:10588000BC0392C0BE01882777FD8095982F0E94A7
:10589000E4346093ED037093EE038093EF039093F1
:1058A000F00382C00E94E4346093F1037093F2032A
:1058B0008093F3039093F40377C0BE01882777FDAC
:1058C0008095982F0E94E43420E030E04AE754E4C9
:1058D0000E9449346093D9037093DA038093DB0309
:1058E0009093DC0361C00E94E43420E030E04AE79A
:1058F00054E40E9449346093DD037093DE03809387
:10590000DF039093E00350C0BE01882777FD8095A8
:10591000982F0E94E43420E030E44CE156E40E94E9
:1059200049346093E1037093E2038093E30390931F
:10593000E4033AC02E2F30E02A5F3040C901880FBF
:10594000991F820F931F8C509D4FBE010E94E7311B
:105950002BC0CE010E94742627C0C230D105B1F001
:10596000C330D1052CF4209749F02197E9F40AC0FF
:10597000C330D10579F02497B9F410C06091CB04FD
:105980008FEF0FC06091AD028EEF0BC082E080936D
:10599000CB040AC06091D1028DEF03C06091AF02C9
:1059A0008CEF70E00E94F81CDF91CF911F910F9156
:1059B000FF90EF90DF90CF90BF90AF900895CF937E
:1059C000DF93C0E0D0E0CE010E9474262196C4305F
:1059D000D105C9F70E94C71FDF91CF9108950E949A
:1059E00082268091CB04882351F40E94932581E084
:1059F0008093CB048FEF61E070E00E94F81C8091EF
:105A0000CB04833081F0843018F48230E9F505C08E
:105A1000843011F18530C1F535C00E94DF2C83E060
:105A20008093CB0408954091020180910C0390E093
:105A300068EC70E050E00E947A1A992787FD9095F3
:105A40009093F3028093F202892BF1F484E0809327
:105A5000CB040E94771A08950E94F61E882319F439
:105A600085E08093CB040E948D2D6550704080406E
:105A700090406093DE047093DF048093E004909381
:105A8000E10408950E94ED1F08951F920F920FB632
:105A90000F9211242F933F938F939F93AF93BF93B4
:105AA0008091150590911605A0911705B0911805E4
:105AB000309119050196A11DB11D232F2D5F2D37A2
:105AC00020F02D570196A11DB11D2093190580933B
:105AD000150590931605A0931705B09318058091AE
