:100000000C9493060C94BB060C94BB060C94BB0694
:100010000C94BB060C94BB060C94BB060C94BB065C
:100020000C94BB060C94BB060C94BB060C94413894
:100030000C94BB060C94BB060C94BB060C94BB063C
:100040000C94DD320C944A220C9490350C94DE35DD
:100050000C94BB060C94BB060C94BB060C94BB061C
:100060000C94BB060C94BB06036EDB363D9A999943
:10007000993DABAAAA2A3E000000803F084AD73B20
:100080003BCE016E84BCBFFDC12F3D6C74319ABD67
:1000900056833DDA3D00C77F11BED9E4BB4C3E918B
:1000A0006BAAAABE000000803F072C7AA5BA6CC5D7
:1000B00090DA3B9365FC8BBC53F810FD3C56928361
:1000C0004DBD879D3AB63DCBC9BF5BBE73DA0FC944
:1000D0003F00007000000000240000000200030048
:1000E0000000650054FFEF0000FA80000B12820050
:1000F00001030C30C30E8C8CE914D5400213710F30
:100100008E3883F8833000F883258EF8833000F82A
:1001100083FFFFFFFF0FFEA9D6240004001A827997
:10012000A10000003CFFFF00000010000038836FBA
:10013000A2003E03304000000002CAE3093E8000F6
:1001400000200000000000000040000000600000EF
:1001500000000C0000000C186E000006920A16C089
:10016000DFFFFF0256FD8CD377FFE1C496E0C5BEEA
:10017000AA00000000FFFF0B2B0000165700000331
:10018000594000000000001DFA00026C1D00000034
:10019000003FFFDFEB003EB3B6000D227800002FDA
:1001A0003C00000000001942B5000039A20000B375
:1001B00065D90E9FC91DCF4C34300000005000009F
:1001C000003BB67AE80064000000C80000000000B0
:1001D00000100000001000FA921000225E000D22B4
:1001E0009F0001000000320000FF46000063D400C1
:1001F000001000000004D6000004CC000004CC0075
:10020000000000107200000040000000000000002C
:100210000000060002000500070000000000640066
:100220000000000000000000050005006400200040
:10023000000000000000000000000040000000037B
:100240000000000032F8980000FF650000830F00F6
:1002500000FF9BFC00000000000000000000000008
:10026000000000000000000000000000000000008E
:10027000000000000000000000000000000000106E
:100280000040000000000000060000B26A0002000A
:10029000000001FB830068000000D9FC007CF1FF36
:1002A000830000000000650000006403E8006400B3
:1002B00028000000250000000016A000000000102B
:1002C0000000001000002F0000000001F4000010EA
:1002D0000000280000FFFF4581FFFFFA72000000C8
:1002E0000000000000004400050005BAC600477881
:1002F000A200000001000000000000060000000055
:10030000140000254D002F706D000005AE000C029A
:10031000D00000000000000000000000000000000D
:1003200000001B00000000000000000000000000B2
:100330000000640000000800000000000000000051
:1003400000000000000000000000000000000000AD
:10035000000000000000000000000000000000009D
:10036000000000000000000000000000000000008D
:10037000000000000000000000000000000000007D
:10038000000000000000000000000000000000006D
:1003900000001B00000000000000000000000E0034
:1003A0000E00000AC70004000000000032FFFFFF3B
:1003B0009C00000B2B000000020000000100000068
:1003C00064FFE500000000000000000000000000E5
:1003D000000000000100000000000100000000001B
:1003E0000000018000000180000001800000242640
:1003F000D30000000000000000000600100096007E
:100400003C000000000000000000000000000000B0
:10041000000C0A4E68CDCF770950166759C619CE21
:10042000820000000000000000000000000000004A
:1004300000000000000000000017D7840003000047
:10044000000000000000000000C7938F9D1E1B1CD1
:100450001900000000000000000000000000000083
:1004600000000000000000000002031885000040AA
:100470000000000003000000030000000000000076
:10048000004000000000000000000000000000002C
:10049000000000000000000000000000000000005C
:1004A000000000000000000000000000000000004C
:1004B0000000000000677DDF7E72902E554CF6E64E
:1004C00088000000000000000000000000000000A4
:1004D00000D8DCB4B8B0D8B9ABF3F8FAB3B7BB8E78
:1004E0009EAEF132F51BF1B4B8B08097F1A9DFDF11
:1004F000DFAADFDFDFF2AAC5CDC7A90CC92C97F1AF
:10050000A989264666B28999A92D557DB0B08AA8D9
:1005100096365676F1BAA3B4B280C0B8A89711B295
:100520008398BAA3F0240844106418B2B9B498832D
:10053000F1A329557DBAB5B1A38393F0002850F5F6
:10054000B2B6AA839328547CF1B9A3829361BAA26C
:10055000DADEDFDB819AB9AEF5606870F1DABAA253
:10056000DFD9BAA2FAB9A38292DB31BAA2D9BAA270
:10057000F8DF85A4D0C1BBAD83C2C5C7B8A2DFDF99
:10058000DFBAA0DFDFDFD8D8F1B8AAB38DB4980DF9
:10059000355DB2B6BAAF8C96198F9FA70E161EB4F2
:1005A0009AB8AA872C547CBAA4B08AB691325676EF
:1005B000B28494A4C808CDD8B8B4B0F19982A82D5B
:1005C000557D98A80E161EA22C547C92A4F02C5097
:1005D00078F184A898C4CDFCD80DDBA8FC2DF3D904
:1005E000BAA6F8DABAA6DED8BAB2B68696A6D0F31C
:1005F000C841DAA6C8F8D8B0B4B882A892F52C548D
:100600008898F135D9F418D8F1A2D0F8F9A884D98E
:10061000C7DFF8F883C5DADF69DF83C1D8F40114D6
:10062000F1A8824EA884F311D182F5D99228978837
:10063000F109F41C1CD884A8F3C0F9D1D99782F130
:1006400029F40DD8F3F9F9D1D982F4C203D8DEDF49
:100650001AD8F1A2FAF9A88498D9C7DFF8F8F88374
:10066000C7DADF69DFF883C3D8F40114F198A882F0
:100670002EA884F311D182F5D992509788F109F40C
:100680001CD884A8F3C0F8F9D1D99782F149F40DA8
:10069000D8F3F9F9D1D982F4C403D8DEDFD8F1ADAB
:1006A0008898CCA809F9D98292A8F57CF1883ACF2C
:1006B000944A6E98DB6931DAADF2DEF9D88795A8F5
:1006C000F221D1DAA5F9F417D9F1AE8ED0C0C3AEBC
:1006D00082C684C3A88595C8A588F2C0F1F4010E2E
:1006E000F18E9EA8C63E56F554F18872F40115F1BC
:1006F0009845856EF58E9E0488F142985A8E9E0626
:100700008869F4011CF1981E1108D0F504F11E97B8
:100710000202983625DBF9D985A5F3C1DA85A5F360
:10072000DFD88595A8F309DAA5FAD88292A8F578DA
:10073000F1881A849F26889821DAF41DF3D8879FC0
:1007400039D1AFD9DFDFFBF9F40CF3D8FAD0F8DAFE
:10075000F9F9D0DFD9F9D8F40BD8F3879F39D1AFA5
:10076000D9DFDFF41DF3D8FAFCA869F9F9AFD0DAC4
:10077000DEFAD9F88F9FA8F1CCF398DB45D9AFDF2B
:10078000D0F8D8F18F9FA8CAF38809DAAF8FCBF8D9
:10079000D8F2AD978D0CD9A5DFF9BAA6F3FAF41209
:1007A000F2D8950DD1D9BAA6F3FADAA5F2C1BAA654
:1007B000F3DFD8F1BAB2B68696A6D0CAF349DAA664
:1007C000CBF8D8B0B4B8D8AD84F2C0DFF18FCBC3CA
:1007D000A8B2B68696C8C1CBC3F3B0B48898A82196
:1007E000DB718D9D71859521D9ADF2FAD88597A8D9
:1007F00028D9F408D8F28D29DAF405D9F285A4C2F3
:10080000F2D8A88D9401D1D9F411F2D88721D8F467
:100810000AD8F28498A8C801D1D9F411D8F3A4C891
:10082000BBAFD0F2DEF8F8F8F8F8F8F8F8D8F1B87D
:10083000F6B5B9B08A95A3DE3CA3D9F8D85CA3D9A4
:10084000F8D87CA3D9F8D8F8F9D1A5D9DFDAFAD845
:10085000B18530F7D9DED8F830ADDADED8F2B48C15
:1008600099A32D557DA083DFDFDFB591A0F629D9AF
:10087000FBD8A0FC29D9FAD8A0D051D9F8D8FC517E
:10088000D9F9D879D9FBD8A0D0FC79D9FAD8A1F96F
:10089000F9F9F9F9A0DADFDFDFD8A1F8F8F8F8F80C
:1008A000ACDEF8ADDE8393AC2C547CF1A8DFDFDF47
:1008B000F69D2CDAA0DFD9FADB2DF8D8A850DAA003
:1008C000D0DED9D0F8F8F8DB55F8D8A878DAA0D07F
:1008D000DFD9D0FAF8F8F8F8DB7DF8D89CA88CF5C9
:1008E00030DB38D9D0DEDFA0D0DEDFD8A848DB5837
:1008F000D9DFD0DEA0DFD0DED8A868DB70D9DFDF9B
:10090000A0DFDFD8F1A888902C547C98A8D05C3860
:10091000D1DAF2AE8CDFF9D8B087A8C1C1B188A80E
:10092000C6F9F9DA36D8A8F9DA36D8A8F9DA36D815
:10093000A8F9DA36D8A8F9DA36D8F78D9DADF818C7
:10094000DAF2AEDFD8F7ADFA30D9A4DEF9D8F2AEDC
:10095000DEFAF983A7D9C3C5C7F1889BA77AADF79B
:10096000DEDFA4F8849408A797F300AEF29819A4E8
:1009700088C6A39488F632DFF28393DB09D9F2AA02
:10098000DFD8D8AEF8F9D1DAF3A4DEA7F1889B7AE4
:10099000D8F38494AE19F9DAAAF1DFD8A881C0C3DC
:1009A000C5C7A39283F628ADDED9F8D8A350ADD938
:1009B000F8D8A378ADD9F8D8F8F9D1A1DADEC3C553
:1009C000C7D8A18194F818F2B089ACC3C5C7F1D8D3
:1009D000B8B4B09786A8319B069907AB9728889B37
:1009E000F00C201440B0B4B8F0A88A9A285078B718
:1009F0009BA8295179247059446938644831F1BB66
:100A0000AB88002C547CF0B38BB8A804285078F144
:100A1000B088B49726A85998BBABB38B022646661C
:100A2000B0B8F08A9CA82951798B2951798A247011
:100A3000598B2058718A4469388B3940688A6448D8
:100A4000318B30496088F1AC002C547CF08CA804C8
:100A5000285078F1889726A85998AC8C02264666CB
:100A6000F0899CA829517924705944693864483127
:100A7000A98809205970AB11384069A8193148601C
:100A80008CA83C415C207C00F187981986A86E7682
:100A90007EA999882D557DD8B1B5B9A3DFDFDFAE2A
:100AA000D0DFAAD0DEF2ABF8F9D9B087C4AAF1DF63
:100AB000DFBBAFDFDFB9D8B1F1A3978E60DFB084C1
:100AC000F2C8F8F9D9DED89385F14AB183A308B505
:100AD000839A0810B79F10D8F1B0BAAEB08AC2B2EC
:100AE000B68E9EF1FBD9F41DD8F9D90CF1D8F8F8DF
:100AF000AD61D9AEFBD8F40CF1D8F8F8AD19D9AE88
:100B0000FBDFD8F416F1D8F8AD8D61D9F4F4ACF56B
:100B10009C9C8DDF2BBAB6AEFAF8F40BD8F1AED0B0
:100B2000F8AD51DAAEFAF8F1D8B9B1B6A3839C08A2
:100B3000B9B1839AB5AAC0FD3083B79F10B58B9326
:100B4000F20202D1ABDADED8F1B080BAABC0C3B2E8
:100B500084C1C3D8B1B9F38BA391B609B4D9ABDEC4
:100B6000B0879CB9A3DDF1B38B8B8B8B8BB087A344
:100B7000A3A3A3B28BB69BF2A3A3A3A3A3A3A3A3F4
:100B8000A3A3F1B087B59AA3F39BA3A3DCBAACDF10
:100B9000B9A3A3A3A3A3A3A3A3A3A3A3A3A3A3A30F
:100BA000A3D8D8D8BBB3B7F1AAF9DAFFD9809AAAEB
:100BB00028B48098A720B79787A86688F07951F164
:100BC000902C870CA781976293F0717160859401D6
:100BD00029517990A5F1284C6C870C95188578A33C
:100BE0008390284C6C886CD8F3A28200F210A892F3
:100BF0001980A2F2D926D8F188A84DD948D896A84C
:100C00003980D93CD89580A839A68698D92CDA871E
:100C1000A72CD8A8899519A980D938D8A88939A925
:100C200080DA3CD8A82EA83990D90CD8A89531984C
:100C3000D90CD8A809D9FFD801DAFFD89539A9DA93
:100C400026FFD890A80D8999A810809821DA2ED86F
:100C50008999A83180DA2ED8A886963180DA2ED8E4
:100C6000A8873180DA2ED8A88292F34180F1D92E5C
:100C7000D8A882F31980F1D92ED882ACF3C0A28013
:100C800022F1A62EA72EA92298A829DAACDEFFD839
:100C9000A2F22AF1A92E8292A8F23180A696F1D969
:100CA00000AC8C9C0C30ACDED0DEFFD88C9CACD081
:100CB00010ACDE8092A2F24C82A8F1CAF235F19615
:100CC00088A6D900D8F1FF00000000240027002AE0
:100CD0000000000000250028002B00000000002379
:100CE000002600290004040404040404040202028F
:100CF000020202030303030303010204081020405D
:100D000080010204081020010204081020000000E5
:100D100007000201000003040600000000000000BC
:100D200000007824C33611241FBECFEFD8E0DEBF09
:100D3000CDBF11E0A0E0B1E0E4EDF9E702C005901D
:100D40000D92A634B107D9F716E0A6E4B1E001C0D0
:100D50001D92A934B107E1F71DE0C6E2DDE004C051
:100D60002297FE010E94E43CC232D107C9F70E94DB
:100D700019370C94BD060C940000F8940C94E83CD0
:100D8000FB01DC0104C08D910190801921F44150D8
:100D90005040C8F7881B990B0895FC011092BC00C5
:100DA000662319F088B1806302C088B18F7C88B94E
:100DB0001092B9009F01442737FD4095542F60E8F9
:100DC0007EE380E090E00E94C73C205130404040EC
:100DD0005040CA01B90122E030E040E050E00E94FA
:100DE000C73C2093B80084E08093BC000895482F4E
:100DF000440F92E064EB54E86093BC002AEF30E0CB
:100E00008091BC0087FD34C0215030408FEF2F3FD0
:100E10003807B1F727C08091B900887F883021F06A
:100E2000803111F082E008954093BB005093BC00E4
:100E30002AEF30E08091BC0087FD1EC02150304079
:100E40008FEF2F3F3807B1F70FC08091B900887F2F
:100E5000803221F4992351F09150CECF883131F472
:100E600080E0089581E0089583E0089584E0089586
:100E70001216130684F2F6CF1216130634F3F4CFCB
:100E8000EF92FF920F931F93162FE42E022FF32E53
:100E90000E94F7061093BB0084E88093BC002AEF01
:100EA00030E08091BC0087FD07C0215030408FEFBB
:100EB0002F3F3807B1F703C0121613063CF0802FFE
:100EC0009F2D9C01F90190E044E81CC08091B9007D
:100ED000F6CF80818093BB004093BC002AEF30E0C6
:100EE0008091BC0087FD07C0215030408FEF2F3F1D
:100EF0003807B1F705C01216130614F48091B90033
:100F00009F5F31969E1528F384E98093BC002AEFF9
:100F100030E08091BC0087FD06C02115310519F035
:100F200021503040F6CF81E01F910F91FF90EF905C
:100F300008951F93F82F122F72E0B4EBE82FEE7F85
:100F4000A4E8B093BC002AEF30E08091BC0087FD9C
:100F5000D0C0215030408FEF2F3F3807B1F7B7C0D6
:100F60008091B900887F883021F0803111F091E1C3
:100F7000BDC0E093BB00A093BC002AEF30E080919D
:100F8000BC0087FDBBC0215030408FEF2F3F38079A
:100F9000B1F79FC09091B900987F903229F47723E0
:100FA00009F499C07150CDCF983109F094C0609385
:100FB000BB0084E88093BC002AEF30E08091BC0045
:100FC00087FDA1C0215030408FEF2F3F3807B1F788
:100FD00084C08091B900887F883211F095E186C085
:100FE00062E0A4EB7F2F7160E4E8A093BC002AEFDD
:100FF00030E08091BC0087FD8BC0215030408FEFE6
:101000002F3F3807B1F76BC08091B900887F8830D7
:1010100021F0803111F097E169C07093BB00E0933B
:10102000BC002AEF30E08091BC0087FD76C02150E3
:1010300030408FEF2F3F3807B1F758C08091B9008B
:10104000887F883429F4662309F44BC06150CDCFE2
:10105000803409F046C0FA0160E0412F50E0415071
:101060005040A4EC74E822C0862F90E084179507C6
:1010700019F47093BC0002C0A093BC002AEF30E0CA
:101080008091BC0087FD4EC0215030408FEF2F3F34
:101090003807B1F728C09091B900987F903511F0CA
:1010A000983521F58091BB0081936F5F6117E0F265
:1010B00084E98093BC002AEF30E08091BC0087FD7A
:1010C00014C02115310589F021503040F6CF90E150
:1010D0000DC092E10BC093E109C094E107C096E115
:1010E00005C099E103C09AE101C090E0892F1F91EA
:1010F0000895121613060CF433CFE9CF1216130617
:101100000CF448CFE6CF121613060CF462CFE5CFED
:10111000121613060CF478CFE2CF121613060CF455
:101120008DCFE4CF121613060CF4B5CFDCCF7F922F
:101130008F929F92AF92BF92CF92DF92EF92FF92E7
:101140000F931F93CF93DF93F82EE62E742E690131
:10115000E8010E9425334B015C018F2D880F6E2D15
:10116000A601272D0E949907882311F01FEF01C0C7
:10117000172D2097C1F00E942533681979098A0933
:101180009B099E0140E050E06217730784079507B2
:1011900050F0212F332727FD3095872D90E0281719
:1011A00039070CF41FEF812FDF91CF911F910F9121
:1011B000FF90EF90DF90CF90BF90AF909F908F9077
:1011C0007F9008959C018230910518F02FEF3FEF3A
:1011D00045C080936002909361028AE290E0AC0186
:1011E000249FC001259F900D349F900D11248A5B90
:1011F0009E4F9093590280935802C901880F991FFE
:10120000820F931F880F991F880F991F86569E4F34
:1012100090935B0280935A0287E290E0AC01249F96
:10122000C001259F900D349F900D11248E549E4F28
:1012300090935D0280935C028CE290E0AC01249F6D
:10124000C001259F900D349F900D112480509E4F1A
:1012500090935F0280935E0220E030E0C901089520
:101260000F931F93CF93DF93C0915802D0915902EF
:1012700085E7888389E189838AE18A838CE08B838F
:101280008AE68C8383E28D838BE18E838CE18F836E
:101290008FE18A8780E28B8782E78C8784E78D875E
:1012A00083E48E878BE38F8781E4888B88E3898B47
:1012B00089E38A8B8AE38B8B8BE68D8B8CE68E8B16
:1012C00087E38F8B8FE6888F86E0898F84E28A8F11
:1012D0008DE68B8F8EE68C8F80E78D8F89E488A7D3
:1012E00081E089A785E28E8F86E28F8F87E288A3CF
:1012F00088E289A389E28AA38AE28BA384E38CA390
:1013000083E68DA384E68EA387E68FA38091600297
:1013100090916102009719F0019769F406C0E0917D
:101320005A02F0915B0288E605C0E0915A02F09102
:101330005B0289E6808300915A0210915B0280E093
:1013400094E0F8019283818386E7838384E591E0CA
:101350009583848387EF9DEF9783868380E091E078
:101360009187808786E696E29387828720915C0248
:1013700030915D0283E890E0A0E0B0E0F901808365
:101380009183A283B38380E098E0A0E0B0E08483FF
:101390009583A683B783108681E08187128688E1D2
:1013A000838782E390E09587848785E0868780E065
:1013B00090E0A0E2B1E48787908BA18BB28B80E0B4
:1013C00090E0A2EDB2E4838B948BA58BB68B49E2BF
:1013D0005CE56FE07EE3478B508F618F728F8AE907
:1013E00099E9A9E9BEE3838F948FA58FB68F83E334
:1013F00093E3A3E7BFE3878F90A3A1A3B2A343A383
:1014000054A365A376A3E0915E02F0915F02D183BD
:10141000C0831383028333A722A7DF91CF911F914B
:101420000F910895DC01E0915E02F0915F028681E8
:10143000882319F081E08C9301C01C9280E090E039
:101440000895DF93CF930F92CDB7DEB7982FA09179
:101450005E02B0915F025D968C915D97882321F0CA
:10146000992389F082E00DC016968C9116978823F7
:10147000E9F0992341F01C968C911C978823F9F48C
:1014800081E0898301C019821296ED91FC91139736
:101490000D90BC91A02D808151966C9141E09E01F0
:1014A0002F5F3F4F0E944007882319F42FEF3FEF33
:1014B00008C0E0915E02F0915F028981848720E09C
:1014C00030E0C9010F90CF91DF910895CF92DF9264
:1014D000EF92FF920F931F93DF93CF9300D0CDB77E
:1014E000DEB7D82EC92E8B017A014115510519F4AA
:1014F0002FEF3FEF41C0E0915E02F0915F028681E5
:10150000882319F42EEF3FEF37C0A281B3819B01EE
:101510002D0D311D18968D919C9119978217930767
:1015200018F42DEF3FEF28C0C982DA820190F081D4
:10153000E02D8C91638D42E09E012F5F3F4F0E9412
:101540004007882319F42CEF3FEF16C0E0915E02AC
:10155000F0915F02A281B3810190F081E02D8C9126
:10156000608D402F97010E944007882319F020E0EA
:1015700030E002C02BEF3FEFC9010F900F90CF91E9
:10158000DF911F910F91FF90EF90DF90CF90089522
:101590001F93DF93CF930F92CDB7DEB7182FA09193
:1015A0005E02B0915F025C968C915C97811781F12D
:1015B000112319F080E3898301C019821D968C9153
:1015C0001D97882319F08981826089835B968C91AD
:1015D0005B97882319F08981806889831296ED9141
:1015E000FC9113970D90BC91A02D808157966C9122
:1015F00041E09E012F5F3F4F0E944007882319F46E
:101600002FEF3FEF07C0E0915E02F0915F02148F71
:1016100020E030E0C9010F90CF91DF911F91089534
:10162000DF93CF930F92CDB7DEB7BC010097A9F13E
:1016300020915E0230915F02D90119968D919C91A3
:101640001A978617970748F16536710530F50E949D
:101650007E3C61506983F90182819381A081B181CF
:10166000FC01808194966C9141E09E012F5F3F4F79
:101670000E944007882389F0E0915E02F0915F02AA
:10168000698170E06F5F7F4F818592850E947E3C0B
:1016900072A361A320E030E002C02FEF3FEFC90149
:1016A0000F90CF91DF910895DF93CF930F92CDB735
:1016B000DEB79C01A0915E02B0915F0216968C91FC
:1016C0001697882399F12C3B310510F081E015C065
:1016D0002236310510F082E010C02A32310510F0B8
:1016E00083E00BC02431310510F084E006C02A30BD
:1016F000310510F085E001C086E0898317969C9142
:10170000179789819817D9F01296ED91FC9113974C
:101710000D90BC91A02D808112966C9141E09E01AC
:101720002F5F3F4F0E944007882319F42FEF3FEFB0
:1017300008C0E0915E02F0915F028981878320E01A
:1017400030E0C9010F90CF91DF910895DF93CF93DF
:101750000F92CDB7DEB7982FA0915E02B0915F02D5
:1017600016968C9116978823A1F1943061F09530EC
:1017700018F4923071F505C0983039F0903149F580
:1017800006C0198206C088E003C080E101C088E17C
:10179000898315962C91159730E0898190E0E3E0DC
:1017A00095958795EA95E1F72817390709F112967B
:1017B000ED91FC9113970D90BC91A02D808117960F
:1017C0006C9141E09E012F5F3F4F0E9440078823AC
:1017D00019F42FEF3FEF0EC0E0915E02F0915F022F
:1017E000898190E073E0959587957A95E1F78583F7
:1017F00020E030E0C9010F90CF91DF910895DF9391
:10180000CF930F92CDB7DEB79C01A0915E02B0914D
:101810005F0216968C9116978823E1F181E0243FB0
:10182000380791F081E0253F380720F42A3F310541
:1018300089F508C083E0283E380741F0205D374035
:1018400049F506C0198206C088E003C080E101C0E6
:1018500088E1898314962C91149730E0898190E077
:1018600043E0959587954A95E1F72817390709F1DF
:101870001296ED91FC9113970D90BC91A02D808153
:1018800016966C9141E09E012F5F3F4F0E944007EA
:10189000882319F42FEF3FEF0EC0E0915E02F09124
:1018A0005F02898190E0A3E095958795AA95E1F77D
:1018B000848320E030E0C9010F90CF91DF9108953B
:1018C0000F931F93DF93CF930F92CDB7DEB7A09105
:1018D0005E02B0915F0216968C911697882309F4E8
:1018E0001BC119821296ED91FC9113970D90BC913A
:1018F000A02D808151966C9141E08E010F5F1F4FAA
:1019000098010E944007882309F406C1E0915E0215
:10191000F0915F02A281B3810190F081E02D8C9162
:10192000658141E098010E944007882309F4F4C0D2
:10193000E0915E02F0915F02A281B3810190F0819B
:10194000E02D8C91648141E098010E94400788233A
:1019500009F4E2C0A0915E02B0915F025D968C91A5
:101960005D97882309F469C08CE089831296ED9114
:10197000FC9113970D90BC91A02D808114966C91D1
:1019800041E098010E944007882309F4C5C062E342
:1019900070E080E090E00E94333380EC8983A09176
:1019A0005E02B0915F0216968C91169780FF02C07E
:1019B00080EE89831296ED91FC9113970D90BC9166
:1019C000A02D808114966C9141E09E012F5F3F4FC6
:1019D0000E944007882309F49FC0A0915E02B09145
:1019E0005F021C968C911C97882319F082E08983F2
:1019F00001C019821296ED91FC9113970D90BC9144
:101A0000A02D808151966C9141E08E010F5F1F4F98
:101A100098010E944007882309F47EC01982E09152
:101A20005E02F0915F02A281B3810190F081E02D0E
:101A30008C91658141E098016BC084E089831296A6
:101A4000ED91FC9113970D90BC91A02D808114967F
:101A50006C9141E098010E944007882309F45CC022
:101A6000A0915E02B0915F021D968C911D97882314
:101A700029F416968C91169780FD02C080E401C06F
:101A800080E689831296ED91FC9113970D90BC919D
:101A9000A02D808114966C9141E09E012F5F3F4FF5
:101AA0000E9440078823C1F162E370E080E090E08B
:101AB0000E943333A0915E02B0915F021C968C911C
:101AC0001C97882319F081E0898301C0198212963E
:101AD000ED91FC9113970D90BC91A02D80815196B2
:101AE0006C9141E09E012F5F3F4F0E944007882389
:101AF00099F0E0915E02F0915F02A281B3812081B2
:101B000031813B968C91D90115966C9141E09F01F2
:101B10000E944007882319F42FEF3FEF02C020E016
:101B200030E0C9010F90CF91DF911F910F9108957F
:101B30000F931F93CF93DF93982FE0915E02F09164
:101B40005F02858D882319F0C0E0D0E029C086812E
:101B5000882321F1192F1E7F038581238387811715
:101B600019F4C0E0D0E002C0CFEFDFEF112319F489
:101B70008785882331F081E00E94210A112381F0BA
:101B800004C080E00E94210A0BC00E94600C892BD7
:101B900039F0E0915E02F0915F020387CFEFDFEF53
:101BA000CE01DF91CF911F910F9108951F93DF9385
:101BB000CF9300D0CDB7DEB7182F893208F058C0C8
:101BC0008823F9F480E00E94C80A198287E08A839A
:101BD000E0915E02F0915F02A281B3810190F081F9
:101BE000E02D8C91658942E09E012F5F3F4F0E945E
:101BF00040078823E9F1E0915E02F0915F021786C9
:101C000046C081E00E94C80A80E28983113011F445
:101C10001A8204C0163028F481E08A8385E090E0BF
:101C20000BC0153128F482E08A838AE090E004C07A
:101C300083E08A8384E190E00E94540B8A8182953C
:101C4000880F880F807C87608A83E0915E02F09124
:101C50005F02A281B3810190F081E02D8C916589B2
:101C600042E09E012F5F3F4F0E944007882319F4F6
:101C70002FEF3FEF0EC0E0915E02F0915F0288E02F
:101C80008683108681E0878780E00E94980D20E09F
:101C900030E0C9010F900F90CF91DF911F9108950F
:101CA0000F931F93DF93CF930F92CDB7DEB78C01C5
:101CB000E0915E02F0915F0286818823B9F1858D03
:101CC0008823A1F58785882359F0C8010197889753
:101CD00020F4802F0E94D60D4DC080E00E94D60DCA
:101CE0000430110518F464E070E007C0B80183E027
:101CF000093E180710F068EE73E088EE93E00E944A
:101D00007E3C61506983E0915E02F0915F02A281A6
:101D1000B3810190F081E02D8C91618141E09E01C1
:101D20002F5F3F4F0E944007882319F42FEF3FEFAA
:101D300023C0E0915E02F0915F02698170E06F5F05
:101D40007F4F88EE93E00E94923C7287618781A169
:101D500092A18536910510F084E690E00E94100B68
:101D6000E0915E02F0915F0281859285969587955C
:101D70000E94540B20E030E0C9010F90CF91DF9119
:101D80001F910F910895CF92DF92EF92FF920F93E0
:101D90001F93DF93CF9300D0CDB7DEB7182F092F55
:101DA0007B016A0141155105D1F1E0915E02F0918C
:101DB0005F028681882399F1A281B3819B01210F63
:101DC000311D18968D919C9119978217930738F1C0
:101DD00009831A830190F081E02D8C91638D42E09C
:101DE0009E012F5F3F4F0E9440078823C1F0E09182
:101DF0005E02F0915F02A281B3810190F081E02D3B
:101E000000910001109101018C91608D4E2D960181
:101E10000E949708882319F020E030E002C02FEFDD
:101E20003FEFC9010F900F90CF91DF911F910F915C
:101E3000FF90EF90DF90CF900895DF92EF92FF92A6
:101E40000F931F93DF93CF930F92CDB7DEB7D82EAA
:101E5000E0915E02F0915F0285858D1509F49EC0C8
:101E6000A281B3810190F081E02D009100011091D9
:101E700001017E010894E11CF11CDD2089F18C91A7
:101E8000648141E097010E949708882309F47EC08D
:101E900089818F7D8983E0915E02F0915F02A2814A
:101EA000B3810190F081E02D8C91648141E0970134
:101EB0000E944007882309F469C063E070E080E075
:101EC00090E00E94333382E08983A0915E02B0915A
:101ED0005F025B968C915B978823F1F182E839C0B1
:101EE0008C91648141E097010E949708882309F44E
:101EF0004DC0A0915E02B0915F0216968C9116972C
:101F0000998180FF02C0906201C09F7D99831296E3
:101F1000ED91FC9113970D90BC91A02D80811496AA
:101F20006C9141E09E012F5F3F4F0E944007882344
:101F300069F163E070E080E090E00E943333A091AB
:101F40005E02B0915F025B968C915B97882319F0DB
:101F500080E8898301C019825C968C915C97882304
:101F600019F08981806389831296ED91FC91139712
:101F70000D90BC91A02D808157966C9141E09E01FF
:101F80002F5F3F4F0E944007882319F42FEF3FEF48
:101F900007C0E0915E02F0915F02D58620E030E05C
:101FA000C9010F90CF91DF911F910F91FF90EF909A
:101FB000DF900895DF93CF930F92CDB7DEB7982FC0
:101FC000E0915E02F0915F02858D891709F44AC0A5
:101FD000992369F1868D882319F42FEF3FEF44C0D0
:101FE00080E00E94210A80E00E941D0FE0915E02C5
:101FF000F0915F02878D90A10E94500E1982E091AE
:102000005E02F0915F020280F381E02D808163E245
:1020100041E09E012F5F3F4F0E944007E0915E022A
:10202000F0915F0281E0858F0E94210A19C080E053
:102030000E94210AE0915E02F0915F02838589830C
:102040000280F381E02D808163E241E09E012F5FF9
:102050003F4F0E944007E0915E02F0915F02158EB3
:102060000E94600C20E030E0C9010F90CF91DF9119
:1020700008956F927F928F929F92AF92BF92CF926C
:10208000DF92EF92FF920F931F93DF93CF9300D0D5
:10209000CDB7DEB76C013B014A01A0915E02B09161
:1020A0005F025D968C915D97882319F42FEF3FEFC7
:1020B0007CC016968C911697882319F42EEF3FEF6B
:1020C00074C01296ED91FC9113970D90BC91A02DC8
:1020D000009100011091010180811C966C9142E0F9
:1020E0005E010894A11CB11C95010E9497088823E9
:1020F00019F42DEF3FEF59C0998180E02A81E22E3B
:10210000FF24E82AF92AEC14FD0428F4F4011082D3
:1021100021E030E04AC0E0915E02F0915F02A281CE
:10212000B38111968D919C911297969587958E15F6
:102130009F05D0F40190F081E02D009100011091F5
:1021400001018C91638941E095010E9497088823E1
:1021500019F42BEF3FEF29C0898184FF05C00E944D
:10216000600C22E030E021C0E0915E02F0915F025D
:10217000A281B3810190F081E02D009100011091C6
:1021800001018C9165854C2D93010E94970888234D
:1021900019F429EF3FEF09C0C701B6010E947E3C48
:1021A0006150F401608320E030E0C9010F900F908E
:1021B000CF91DF911F910F91FF90EF90DF90CF9023
:1021C000BF90AF909F908F907F906F900895DF9217
:1021D000EF92FF920F931F93DF93CF9300D0CDB771
:1021E000DEB7D82EE82EFF24C70180779070892BA8
:1021F00011F081E005C0DD2011F0198202C080E4F9
:102200008983E0915E02F0915F02A281B381019027
:10221000F081E02D8C91658941E09E012F5F3F4F59
:102220000E944007A0915E02B0915F02882319F4DA
:1022300016961C9230C089818F7B18968C931897C4
:102240001982E6FC02C084E08983E5FC03C0898131
:1022500082608983E4FC03C0898181608983E3FC17
:1022600003C08981886389831296ED91FC9113974D
:102270000D90BC91A02D808156966C9141E09E01FD
:102280002F5F3F4F0E944007882341F4E0915E0298
:10229000F0915F0216822FEF3FEF6CC0DD2031F02E
:1022A00088E0D81619F080E00E94C80AE0915E022A
:1022B000F0915F02A281B3810190F081E02D009145
:1022C0000001109101018C91648141E09E012E5F1B
:1022D0003F4F0E9497088823F1F29A81E0FE04C0E4
:1022E00081E08983906202C019829F7D9A83A091C8
:1022F0005E02B0915F025D968C915D979A81882312
:1023000011F0906801C09F779A831296ED91FC912D
:1023100013970D90BC91A02D808196966C9141E011
:102320009E012F5F3F4F0E944007882309F4B3CFDF
:10233000E0915E02F0915F02A281B3810190F08191
:10234000E02D8C91648141E09E012E5F3F4F0E9401
:102350004007882309F49FCFE0915E02F0915F026D
:10236000D682178662E370E080E090E00E9433330B
:1023700020E030E0C9010F900F90CF91DF911F91C5
:102380000F91FF90EF90DF900895CF92DF92EF9240
:10239000FF920F931F93DF93CF93CDB7DEB72997AB
:1023A0000FB6F894DEBF0FBECDBF7C016B01A091CC
:1023B0005E02B0915F0216968C91169780FD03C065
:1023C0002FEF3FEF96C01296ED91FC9113970D9071
:1023D000BC91A02D0091000110910101808198967F
:1023E0006C9148E09E012F5F3F4F0E949708882321
:1023F00019F42CEF3FEF7DC0898180FD03C021E0FF
:1024000030E077C0888587FD72C086FD70C03B8153
:1024100020E06A8170E0622B732BF7017183608387
:102420003D8120E04C8150E0242B352B33832283E7
:102430003F8120E04E8150E0242B352B35832483CF
:1024400000915E0210915F02882777FD8095982F9A
:10245000F80124A135A1442737FD4095542F0E944F
:10246000533C672F782F892F992787FD9A95F7017D
:102470007183608362817381882777FD8095982FAF
:10248000F80126A137A1442737FD4095542F0E941B
:10249000533C672F782F892F992787FD9A95F7014D
:1024A0007383628364817581882777FD8095982F77
:1024B000F80120A531A5442737FD4095542F0E94EF
:1024C000533C672F782F892F992787FD9A95F7011D
:1024D00075836483C114D10439F00E942533F60159
:1024E000608371838283938320E030E002C02AEF0F
:1024F0003FEFC90129960FB6F894DEBF0FBECDBFDE
:10250000CF91DF911F910F91FF90EF90DF90CF90CF
:1025100008952F923F924F925F926F927F928F9287
:102520009F92AF92BF92CF92DF92EF92FF920F9362
:102530001F93DF93CF93CDB7DEB764970FB6F894B0
:10254000DEBF0FBECDBF3C014B014B8B5C8B190135
:10255000E0915E02F0915F02868D882319F02FEFE3
:102560003FEF75C06115710519F42EEF3FEF6FC095
:1025700080E190E00E945A34B92EC82ED92EA82EA0
:10258000EE24FF2463E0462E512C4C0E5D1E38C015
:1025900083010E191F090131110510F000E110E04F
:1025A00094012E0D3F1DD601A601400F511F05C0FD
:1025B000F90184918D932F5F3F4FA417B507C1F7A1
:1025C000C701B801A5010E94660A892B19F02DEFF9
:1025D0003FEF3DC0C701B801A2010E94C30E892B85
:1025E00019F02CEF3FEF33C0C501B201A8010E94E2
:1025F000C006009719F02BEF3FEF29C0E00EF11E47
:10260000E614F70428F2FC89F9838B898A83E09128
:102610005E02F0915F02A281B3810190F081E02D12
:102620008C91658D42E09E012F5F3F4F0E944007D5
:10263000882319F42AEF3FEF0AC0E0915E02F0917F
:102640005F0281E0868F30A2278E20E030E0C90152
:1026500064960FB6F894DEBF0FBECDBFCF91DF9169
:102660001F910F91FF90EF90DF90CF90BF90AF90B0
:102670009F908F907F906F905F904F903F902F90A2
:102680000895EF92FF920F931F93DF93CF93CDB7EF
:10269000DEB72B970FB6F894DEBF0FBECDBF80E834
:1026A0008D83E0915E02F0915F02A281B38101907F
:1026B000F081E02D15E0E12EF12CEC0EFD1E8C9149
:1026C000658941E097010E944007882319F42FEFA4
:1026D0003FEF26C264E670E080E090E00E94333372
:1026E0001D82E0915E02F0915F02A281B3810190B0
:1026F000F081E02D8C91658941E097010E944007AF
:10270000882319F42EEF3FEF0BC2E0915E02F091A7
:102710005F02A281B3810190F081E02D0091000160
:10272000109101018C91618D46E097010E949708FC
:10273000882319F42DEF3FEFF3C18A8590E0817073
:102740009070880F991F880F991F288530E021709D
:102750003070220F331F982F922B8E818170982B0F
:1027600091F0913031F4E0915E02F0915F02968732
:1027700032C0923019F02CEF3FEFD2C1E0915E02EF
:10278000F0915F0227C0E0915E02F0915F02A281AA
:10279000B3810190F081E02D0091000110910101C1
:1027A0008C91638141E097010E949708882319F476
:1027B0002BEF3FEFB5C18D818F7019F42AEF3FEFFA
:1027C000AFC1E0915E02F0915F02843019F481E0C4
:1027D000868701C01686E0915E02F0915F028FEF5E
:1027E00086838483858387832FEF3FEF328721871A
:1027F0008387858732A321A381E08087838F148E0E
:10280000108A178671968AE011928A95E9F7E0910D
:102810005E02F0915F02158E168E10A2178E80ED6B
:1028200097E00E94FF0B892B19F026EF3FEF78C14C
:1028300082E00E94A60B892B19F025EF3FEF70C1B3
:102840008AE290E00E94540B892B19F024EF3FEFAD
:1028500067C182E390E00E94500E892B19F023EFAC
:102860003FEF5EC180E00E94980D892B19F022EFA6
:102870003FEF56C181E00E941D0F9CE07E0108944D
:10288000E11CF11C0091000110910101892F60E011
:1028900041E097019B870E9497089B85882399F0C8
:1028A0008981883481F4E0915E02F0915F0293A304
:1028B000198283A16AE041E097010E9440078823C2
:1028C00009F420C104C09F5F9031E1F61BC161E0B3
:1028D00070E080E090E00E9433338FE08983E091E4
:1028E0005E02F0915F0283A16AE041E097010E94DD
:1028F0004007882309F406C161E070E080E090E0C1
:102900000E943333E0915E02F0915F02009100017A
:102910001091010183A160E143E097010E949708B3
:10292000882309F4EFC0E0915E02F0915F02898193
:1029300090E080589F4F95A384A38A8190E08058AF
:102940009F4F97A386A38B8190E080589F4F91A7BC
:1029500080A7198283A16AE041E097010E944007A5
:10296000882309F4CFC061E070E080E090E00E942D
:10297000333380E00E941D0F80E48983E0915E0282
:10298000F0915F02A281B3810190F081E02D8C91E2
:10299000628D41E097010E944007882309F4B2C08C
:1029A000E0915E02F0915F0283A180688983A28139
:1029B000B3810190F081E02D8C91668D41E097010B
:1029C0000E944007882309F49DC082E08983E0913A
:1029D0005E02F0915F02A281B3810190F081E02D4F
:1029E0008C91678D41E097010E944007882309F48C
:1029F00089C088E88983E0915E02F0915F02A2813C
:102A0000B3810190F081E02D8C9160A141E09701AC
:102A10000E944007882309F475C0E0915E02F0919E
:102A20005F0283A18983A281B3810190F081E02DAF
:102A30008C9161A141E08E010F5F1F4F98010E94B0
:102A40004007882309F45EC08AE08983E0915E0232
:102A5000F0915F02A281B3810190F081E02D8C9111
:102A600062A141E098010E944007882309F44AC00E
:102A700081E88983E0915E02F0915F02A281B381D7
:102A80000190F081E02D8C9163A141E098010E94BA
:102A900040078823B9F181E08983E0915E02F091DB
:102AA0005F02A281B3810190F081E02D8C9166A13B
:102AB00041E098010E944007882321F183E0898347
:102AC000E0915E02F0915F02A281B3810190F081FA
:102AD000E02D8C9167A141E098010E944007882376
:102AE00089F080E88983E0915E02F0915F02A28123
:102AF000B3810190F081E02D8C9161A541E09801B6
:102B00000E9440078AE090E00E94100B892B19F088
:102B100021EF3FEF05C080E00E94E71020E030E0A9
:102B2000C9012B960FB6F894DEBF0FBECDBFCF9173
:102B3000DF911F910F91FF90EF9008959C018230DB
:102B4000910518F02FEF3FEF16C080937A02909313
:102B50007B028BE090E0AC01249FC001259F900D8B
:102B6000349F900D11248E599D4F9093790280933C
:102B7000780220E030E0C9010895E0917802F091F8
:102B800079021182108213821282158214821782B6
:102B9000168211861086128608952F923F924F92C8
:102BA0005F926F927F928F929F92AF92BF92CF92DD
:102BB000DF92EF92FF920F931F93DF93CF93CDB7E6
:102BC000DEB7AC970FB6F894DEBF0FBECDBF9EA3A5
:102BD0008DA378A76FA32A013AA729A71CA70BA743
:102BE000A701D8011D921C92E0917802F091790220
:102BF000828590E0BE016F5F7F4F0E9439109CA3D9
:102C00008BA3892B09F0B2C1E0917802F09179028F
:102C1000FAA3E9A38681978184719070892B11F4BE
:102C200040E017C1A980BB24CC24DD24DA2CCC24BD
:102C3000BB24AA248A8190E0A0E0B0E0DC019927BF
:102C40008827A82AB92ACA2ADB2A8C8190E0A0E02A
:102C5000B0E0A82AB92ACA2ADB2A8B8190E0A0E03A
:102C6000B0E0BA2FA92F982F8827A82AB92ACA2AF4
:102C7000DB2AD201AD92BD92CD92DC9213972D81C9
:102C800030E040E050E0522F4427332722278E8146
:102C900090E0A0E0B0E0DC0199278827282B392BB1
:102CA0004A2B5B2B888590E0A0E0B0E0282B392BE5
:102CB0004A2B5B2B8F8190E0A0E0B0E0BA2FA92FC8
:102CC000982F8827282B392B4A2B5B2BF201248342
:102CD000358346835783298530E040E050E0522F0A
:102CE0004427332722278A8590E0A0E0B0E0DC016A
:102CF00099278827282B392B4A2B5B2B8C8590E032
:102D0000A0E0B0E0282B392B4A2B5B2B8B8590E081
:102D1000A0E0B0E0BA2FA92F982F8827282B392BB5
:102D20004A2B5B2BD20118962D933D934D935C93C8
:102D30001B972D8530E040E050E0522F4427332789
:102D400022278E8590E0A0E0B0E0DC01992788275B
:102D5000282B392B4A2B5B2B888990E0A0E0B0E030
:102D6000282B392B4A2B5B2B8F8590E0A0E0B0E01D
:102D7000BA2FA92F982F8827282B392B4A2B5B2B6A
:102D800024873587468757875601DD24B7FCD094C2
:102D9000CD2C64807580868097803401992477FCDF
:102DA0009094892C208431844284538412015524C8
:102DB00037FC5094452C9A01552737FD5095452FE7
:102DC000CA01B9010E94533C7B018C01C601B501C7
:102DD000A60195010E94533CE60EF71E081F191F1D
:102DE000C401B301A40193010E94533CE60EF71EF7
:102DF000081F191FC201B101A20191010E94533C99
:102E0000E60EF71E081F191F80E090E0A0E0B1EF6A
:102E1000E80EF91E0A1F1B1F91E0E91690E0F90663
:102E200090E0090792E0190758F00E94600CABA5EA
:102E3000BCA51D921C92E3E0F0E0FCA3EBA396C0BE
:102E4000ABA5BCA58D919C91119791608D939C939E
:102E500040E1E9A1FAA1868186FF39C0A42FB0E044
:102E6000FE01EA0FFB1F228130E0FE01EA0FFB1F8B
:102E7000918180E0282B392BEFA1F8A531832083A5
:102E8000FE01EA0FFB1F338120E0FE01EA0FFB1F6A
:102E9000848190E0282B392BEFA1F8A5338322837E
:102EA000FE01EA0FFB1F358120E0868190E0282B90
:102EB000392BAFA1B8A515963C932E9314974A5F72
:102EC000EBA5FCA580819181886091838083A9A175
:102ED000BAA116968D919C91179780789170892B45
:102EE000C1F1A42FB0E0FE01EA0FFB1F228130E008
:102EF000FE01EA0FFB1F918180E0282B392BEDA109
:102F0000FEA131832083FE01EA0FFB1F338120E005
:102F1000FE01EA0FFB1F848190E0282B392BEDA1E5
:102F2000FEA133832283FE01EA0FFB1F358120E0DF
:102F3000868190E0282B392BADA1BEA115963C933C
:102F40002E931497EBA5FCA58081918180679183D6
:102F5000808389A59AA5892B49F00E942533A9A5CC
:102F6000BAA56D937D938D939C9313978BA19CA190
:102F7000AC960FB6F894DEBF0FBECDBFCF91DF91F8
:102F80001F910F91FF90EF90DF90CF90BF90AF9087
:102F90009F908F907F906F905F904F903F902F9079
:102FA0000895DF93CF93CDB7DEB729970FB6F89486
:102FB000DEBF0FBECDBF9E012F5F3F4F882349F07C
:102FC000D901E5E1F1E089E001900D928150E1F74E
:102FD00008C0D901ECE0F1E089E001900D92815048
:102FE000E1F788EB94E069E070E0AE014F5F5F4F7E
:102FF0000E94660A29960FB6F894DEBF0FBECDBFB9
:10300000CF91DF9108950F931F93DF93CF93CDB7A7
:10301000DEB728970FB6F894DEBF0FBECDBF8C0188
:10302000893C9105F0F488EC90E0B8010E947E3C68
:103030006150704079836A8386E192E062E070E0DB
:10304000AE014F5F5F4F0E94660A892B51F481ECFD
:103050009AE06CE070E04EE151E00E94660A892B34
:1030600019F02FEF3FEF08C0E0917802F09179025C
:103070001187008720E030E0C90128960FB6F89448
:10308000DEBF0FBECDBFCF91DF911F910F9108958D
:10309000EF92FF920F931F93DF93CF9300D000D056
:1030A00000D0CDB7DEB78C01AC0143705070FA018F
:1030B000ED5CFE4F80818983C801E3E0969587959A
:1030C000EA95E1F783709070FC01ED5CFE4F208182
:1030D0002A83D80176E0B695A7957A95E1F7A37093
:1030E000B070FD01ED5CFE4F20812B83405D5E4F93
:1030F000FA0120812C83805D9E4FFC0180818D83AD
:10310000A05DBE4F8C918E8386E294E063E070E018
:103110007E010894E11CF11CA7010E94660A892B1C
:1031200009F04BC08AE294E063E070E0AE014C5FCE
:103130005F4F0E94660A892B09F03FC0D701EDE27C
:10314000F1E083E001900D928150E1F7DE011496E9
:10315000EAE2F1E083E001900D928150E1F702FF95
:1031600006C08981816089838C8181608C8305FFA1
:1031700006C08A8181608A838D8181608D8310FF82
:1031800006C08B8181608B838E8181608E8380E419
:1031900094E063E070E0AE014F5F5F4F0E94660A0B
:1031A000892B59F481E394E063E070E0AE014C5F59
:1031B0005F4F0E94660A892B19F02FEF3FEF08C07E
:1031C000E0917802F09179021583048320E030E0E9
:1031D000C90126960FB6F894DEBF0FBECDBFCF91C2
:1031E000DF911F910F91FF90EF900895DF93CF93A0
:1031F00000D000D0CDB7DEB7882349F080E28983C4
:1032000088E28A8380E38B8388E38C8308C083EA27
:1032100093EAA3EAB3EA89839A83AB83BC838EE9FA
:103220009AE064E070E0AE014F5F5F4F0E94660A73
:103230000E94600C0F900F900F900F90CF91DF9134
:103240000895DF93CF9300D000D0CDB7DEB78823A9
:1032500049F080EC898382EC8A8384EC8B8386EC52
:103260008C8308C08BE89BE8ABE8BBE889839A8332
:10327000AB83BC8388E99AE064E070E0AE014F5F05
:103280005F4F0E94660A0E94600C0F900F900F9093
:103290000F90CF91DF910895AF92BF92CF92DF92BE
:1032A000EF92FF920F931F93DF93CF93CDB7DEB7CB
:1032B0002A970FB6F894DEBF0FBECDBF8C0182E017
:1032C00089838AEC8A8383EE8B8389E08C8388E60A
:1032D00090E064E070E0AE014F5F5F4F0E94660ACD
:1032E00083EA8983B0E4AB2EB12CA022B12206FF81
:1032F00006C080EC8A8388EC8B8382EC02C08A83D0
:103300008B838C83A0E8EA2EA1E0FA2EE022F12242
:10331000E114F10431F084EC8D838CEC8E8386EC27
:1033200003C083EA8D838E838F8383EA88878987AE
:103330008A8787EA9AE06AE070E0AE014F5F5F4FEC
:103340000E94660AF3E0CF2ED12CC022D122C114F4
:10335000D10411F080E201C088ED898386EB9AE008
:1033600061E070E0AE014F5F5F4F0E94660A05FFAB
:1033700002C081E001C080E00E94D117E114F10495
:10338000D9F010FF08C082EB89838BE88A8386EB33
:103390008B838BE907C080EB898380E88A8384EB89
:1033A0008B8380E98C8382EA9AE064E070E0AE016E
:1033B0004F5F5F4F0E94660A02FF02C081E001C0BA
:1033C00080E00E94211904FF02C081E001C080E07A
:1033D0000E94F618E0917802F0917902C8018860A5
:1033E000978386830E94600CE0917802F0917902C5
:1033F0001286AB2811F086E08287EF2819F08285CB
:103400008A5F828704711070012B19F08285805FBA
:103410008287CD2819F082858C5F828780E090E0DA
:103420002A960FB6F894DEBF0FBECDBFCF91DF91C5
:103430001F910F91FF90EF90DF90CF90BF90AF90D2
:10344000089586EF9BE061ED70E040E054E028ECE9
:1034500030E00E94891208952F923F924F925F921E
:103460006F927F928F929F92AF92BF92CF92DF9294
:10347000EF92FF920F931F93DF93CF93CDB7DEB7F9
:10348000E4970FB6F894DEBF0FBECDBF1092C10215
:103490001092C00282EC92E068EC72E040EB52E0E5
:1034A00020E030E000EC12E0FEECEF2EF2E0FF2E28
:1034B0000E94CD159093D0028093CF02009709F01F
:1034C00042C58091CE028230E8F082EC92E068EC56
:1034D00072E040EB52E020E030E000EC12E0EEEC75
:1034E000EE2EE2E0FE2E0E94CD159C019093D002BC
:1034F0008093CF028091CE02823008F423C5232B23
:1035000021F320C56091B0027091B1028091B202A6
:103510009091B3020E947C3A20E030E040E850E312
:103520000E94883B1B012C016093B0027093B10292
:103530008093B2029093B3026091B4027091B5028D
:103540008091B6029091B7020E947C3A20E030E070
:1035500040E850E30E94883B698B7A8B8B8B9C8B75
:103560006093B4027093B5028093B6029093B70251
:103570006091B8027091B9028091BA029091BB0239
:103580000E947C3A20E030E040E850E30E94883B13
:103590005B016C016093B8027093B9028093BA0228
:1035A0009093BB026091BC027091BD028091BE02FB
:1035B0009091BF020E947C3A20E030E040E850E366
:1035C0000E94883B6D8B7E8B8F8B988F6093BC02A3
:1035D0007093BD028093BE029093BF02C601B501F5
:1035E000A60195010E94883B698F7A8F8B8F9C8FF3
:1035F0006093EB027093EC028093ED029093EE02E5
:103600006D897E898F89988D9B01AC010E94883BD2
:103610006D8F7E8F8F8F98A36093EF027093F0026F
:103620008093F1029093F202C201B101A2019101D3
:103630000E94883B69A37AA38BA39CA36093F302A7
:103640007093F4028093F5029093F60269897A8967
:103650008B899C892D893E894F89588D0E94883B92
:103660007B018C01C201B101A60195010E94883B3A
:103670009B01AC01C801B7010E94FF383B014C011E
:103680006093F7027093F8028093F9029093FA0224
:1036900025EE32EF4FEF5EE30E947D3B1816BCF43F
:1036A000C601B501A20191010E948A399B01AC01BA
:1036B0000E94003960938402709385028093860291
:1036C000909387028BED9FE0A9ECBFE322C0C40179
:1036D000B30125EE32EF4FEF5EEB0E94DD39882318
:1036E0006CF5C601B501A20191010E948A3920E062
:1036F00030E040E050EC0E94883B6093840270937D
:10370000850280938602909387028BED9FE0A9EC5F
:10371000BFEB8093800290938102A0938202B093CA
:10372000830280E090E0A0E0B0E080937C02909380
:103730007D02A0937E02B0937F0294C069897A894A
:103740008B899C89A20191010E94883B7B018C019D
:10375000C601B5012D893E894F89588D0E94883B4D
:103760009B01AC01C801B7010E9400399B01AC016B
:103770000E9400397B018C016D8D7E8D8F8D98A10B
:1037800029A13AA14BA15CA10E94003920E030E0C0
:1037900040E050EC0E94883B20E030E040E85FE3EE
:1037A0000E9400399B01AC01C801B7010E948A390F
:1037B00060938402709385028093860290938702BF
:1037C000C401B301A40193010E9400390E9464392D
:1037D00060938002709381028093820290938302AF
:1037E00069897A898B899C89A60195010E94883B09
:1037F0007B018C016D897E898F89988DA201910151
:103800000E94883B9B01AC01C801B7010E94FF38B0
:103810009B01AC010E9400397B018C01698D7A8D7E
:103820008B8D9C8D2D8D3E8D4F8D58A10E94003922
:1038300020E030E040E050EC0E94883B20E030E0A7
:1038400040E85FE30E9400399B01AC01C801B70169
:103850000E948A3960937C0270937D0280937E027D
:1038600090937F0260917C0270917D0280917E0234
:1038700090917F0221EE3EE245E652E40E94883BB1
:10388000905860937C0270937D0280937E029093A7
:103890007F026091800270918102809182029091FA
:1038A000830221EE3EE245E652E40E94883B9058B6
:1038B00060938002709381028093820290938302CE
:1038C00060918402709185028091860290918702B6
:1038D00021EE3EE245E652E40E94883B5B016C012A
:1038E00020E030E044E353E40E9400397B018C0186
:1038F00020E030E044E353E40E947D3B181654F48A
:10390000C601B50120E030E044E353E40E94FF38F3
:103910007B018C01D801C701B05880938402909339
:103920008502A0938602B09387028091D1028823FA
:1039300091F581ED92E00E942837892B61F180E0BA
:1039400090E0A0E8BFE38093DB029093DC02A093B9
:10395000DD02B093DE0280E090E0A0E0B0E0809372
:10396000DF029093E002A093E102B093E202809321
:10397000E3029093E402A093E502B093E602809301
:10398000E7029093E802A093E902B093EA0281ED86
:1039900092E00E9432378091B0029091B102A091E2
:1039A000B202B091B3028D879E87AF87B88B8093A8
:1039B000DB029093DC02A093DD02B093DE02209044
:1039C000B4023090B5024090B6025090B7022092F7
:1039D000DF023092E0024092E1025092E2026090F7
:1039E000B8027090B9028090BA029090BB026092C7
:1039F000E3027092E4028092E5029092E602A090C7
:103A0000BC02B090BD02C090BE02D090BF02A09296
:103A1000E702B092E802C092E902D092EA02609115
:103A2000C8027091C902882777FD8095982F0E945F
:103A30007C3A0E94493A882777FD8095982F0E940A
:103A40007C3A69837A838B839C836091CA027091EC
:103A5000CB02882777FD8095982F0E947C3A0E94A0
:103A6000493A882777FD8095982F0E947C3A6D838C
:103A70007E838F8398876091CC027091CD028827D6
:103A800077FD8095982F0E947C3A0E94493A8827BA
:103A900077FD8095982F0E947C3A69877A878B877B
:103AA0009C876D857E858F85988920E030E040E099
:103AB00050E00E94883B7B018C01C201B101298149
:103AC0003A814B815C810E94883B9B01AC01C8011B
:103AD000B7010E94FF387B018C01C401B3012D8125
:103AE0003E814F8158850E94883B9B01AC01C801F3
:103AF000B7010E94FF387B018C01C601B501298501
:103B00003A854B855C850E94883B9B01AC01C801CE
:103B1000B7010E94FF386DA37EA38FA398A76D8580
:103B20007E858F85988929813A814B815C810E94AD
:103B3000883B7B018C01C201B10120E030E040E014
:103B400050E00E94883B9B01AC01C801B7010E9474
:103B500000397B018C01C401B30129853A854B856D
:103B60005C850E94883B9B01AC01C801B7010E94A3
:103B700000397B018C01C601B5012D813E814F8149
:103B800058850E94883B9B01AC01C801B7010E9487
:103B9000FF3869A77AA78BA79CA76D857E858F853F
:103BA00098892D813E814F8158850E94883B7B01F9
:103BB0008C01C201B10129853A854B855C850E9443
:103BC000883B9B01AC01C801B7010E94FF387B0113
:103BD0008C01C401B30120E030E040E050E00E94DD
:103BE000883B9B01AC01C801B7010E9400397B01F1
:103BF0008C01C601B50129813A814B815C810E940B
:103C0000883B9B01AC01C801B7010E9400396DA738
:103C10007EA78FA798AB6D857E858F85988929852E
:103C20003A854B855C850E94883B7B018C01C201F3
:103C3000B1012D813E814F8158850E94883B9B01B7
:103C4000AC01C801B7010E9400397B018C01C4019D
:103C5000B30129813A814B815C810E94883B9B01A1
:103C6000AC01C801B7010E94FF387B018C01C6017D
:103C7000B50120E030E040E050E00E94883B9B012D
:103C8000AC01C801B7010E94003969AB7AAB8BABBC
:103C90009CAB57FA509457F8509497FA909497F831
:103CA0009094D7FAD094D7F8D0946DA17EA18FA12B
:103CB00098A5A20191010E94883B7B018C0169A516
:103CC0007AA58BA59CA52D853E854F8558890E9498
:103CD000883B9B01AC01C801B7010E9400397B0100
:103CE0008C016DA57EA58FA598A9A60195010E94BE
:103CF000883B9B01AC01C801B7010E9400397B01E0
:103D00008C0169A97AA98BA99CA9A40193010E949D
:103D1000883B9B01AC01C801B7010E94FF380E949B
:103D2000493A882777FD8095982F0E947C3A20E0B9
:103D300030E040E858E30E94883B6093940270931F
:103D4000950280939602909397026DA17EA18FA118
:103D500098A5A40193010E94883B7B018C0169A571
:103D60007AA58BA59CA5A60195010E94883B9B0185
:103D7000AC01C801B7010E94FF387B018C016DA521
:103D80007EA58FA598A92D853E854F8558890E94CF
:103D9000883B9B01AC01C801B7010E9400397B013F
:103DA0008C0169A97AA98BA99CA9A20191010E9401
:103DB000883B9B01AC01C801B7010E9400390E94F9
:103DC000493A882777FD8095982F0E947C3A20E019
:103DD00030E040E858E30E94883B6093980270937B
:103DE000990280939A0290939B026DA17EA18FA16C
:103DF00098A5A60195010E94883B7B018C0169A5CD
:103E00007AA58BA59CA5A40193010E94883B9B01E8
:103E1000AC01C801B7010E9400397B018C016DA57E
:103E20007EA58FA598A9A20191010E94883B9B01C4
:103E3000AC01C801B7010E94FF387B018C0169A960
:103E40007AA98BA99CA92D853E854F8558890E940A
:103E5000883B9B01AC01C801B7010E9400390E9458
:103E6000493A882777FD8095982F0E947C3A20E078
:103E700030E040E858E30E94883B2091AC0230914A
:103E8000AD024091AE025091AF020E94FF386093A4
:103E90009C0270939D0280939E0290939F0260917A
:103EA000C6027091C702882777FD8095982F0E94DF
:103EB0007C3A20E030E043E851E40E94E13960932D
:103EC00088027093890280938A0290938B0260919A
:103ED000C4027091C502882777FD8095982F0E94B3
:103EE0007C3A20E030E043E851E40E94E1396093FD
:103EF0008C0270938D0280938E0290938F0260915A
:103F0000C2027091C302882777FD8095982F0E9486
:103F10007C3A20E030E043E851E40E94E1396093CC
:103F200090027093910280939202909393028091F9
:103F3000D9029091DA0201969093DA028093D90225
:103F400080E001C081E8E4960FB6F894DEBF0FBEB2
:103F5000CDBFCF91DF911F910F91FF90EF90DF9038
:103F6000CF90BF90AF909F908F907F906F905F9019
:103F70004F903F902F9008958091FB029091FC020A
:103F800062E370E00E947E3C8091D9029091DA0257
:103F90008617970710F481E008958DEF92E060E0B6
:103FA00070E00E94C5119093D0028093CF020097D9
:103FB000D9F56091FD027091FE02882777FD80950A
:103FC000982F0E947C3A6093A0027093A102809384
:103FD000A2029093A3026091FF02709100038827D0
:103FE00077FD8095982F0E947C3A6093A40270938D
:103FF000A5028093A6029093A7026091010370919D
:104000000203882777FD8095982F0E947C3A609361
:10401000A8027093A9028093AA029093AB02109217
:10402000DA021092D90280E008950E94600C08958F
:10403000EF92FF920F931F938B017A017093FC0212
:104040006093FB021092DA021092D9020E94E208F9
:104050000E94300980E090E0A0E0B0E08093AC02E4
:104060009093AD02A093AE02B093AF0280E090E0D7
:104070000E9441139093D0028093CF0289E70E945F
:10408000E7109093D0028093CF0280ED97E00E94DA
:10409000FF0B9093D0028093CF0282E00E94A60B88
:1040A0009093D0028093CF0282E390E00E94100BA5
:1040B0009093D0028093CF028FEC92E00E94120A7C
:1040C00088E70E94980D9093D0028093CF0280E001
:1040D00090E00E949E150E94BD150E94211A9093A7
:1040E000D0028093CF02C7010E9448189093D0025B
:1040F0008093CF02C8010E9403189093D00280934E
:10410000CF0281E00E94DA0F9093D0028093CF0219
:1041100080E791E00E944C199093D0028093CF02E7
:1041200080E01F910F91FF90EF900895FC0180E0D7
:1041300090E0A0E0B0E080879187A287B387848376
:104140009583A683B78380839183A283B383808F73
:10415000918FA28FB38F848B958BA68BB78B848F17
:10416000958FA68FB78F84A395A3A6A3B7A380A38B
:1041700091A3A2A3B3A384879587A687B787808BD3
:10418000918BA28BB38B80E090E0089520E030E02B
:1041900040E050E0FC012487358746875787089523
:1041A0002F923F924F925F926F927F928F929F9247
:1041B000AF92BF92CF92DF92EF92FF920F931F9335
:1041C000CF93DF93EC013A014B0118012901CB0198
:1041D000BA012C813D814E815F810E94883BA20102
:1041E00091010E94883B2C853D854E855F850E940C
:1041F00000395B016C016C877D878E879F87E88C17
:10420000F98C0A8D1B8DA80197010E947D3B181621
:1042100064F017FB109517F91095C601B501A801B8
:1042200097010E94DD39882324F4EC86FD860E87F1
:104230001F8768A179A18AA19BA1A20191010E9477
:10424000E1399B01AC01C401B3010E94FF38688BC6
:10425000798B8A8B9B8BECA0FDA00EA11FA1A801DE
:1042600097010E94FF382EEB39ED4CE55FE30E9489
:10427000883B9B01AC01C801B7010E9400395B017A
:104280006C01688B798B8A8B9B8BC401B30128816D
:1042900039814A815B810E94883B2C853D854E8512
:1042A0005F850E9400397B018C01C601B50128851C
:1042B00039854A855B850E94883B9B01AC01C8011A
:1042C000B7010E94FF386C8F7D8F8E8F9F8FEC8897
:1042D000FD880E891F89A80197010E947D3B181651
:1042E00024F4EC8EFD8E0E8F1F8F8C899D89AE89F4
:1042F000BF897C018D0117FB109517F910956C8D06
:104300007D8D8E8D9F8DA80197010E94DD398823B8
:1043100024F4EC8EFD8E0E8F1F8F68A279A28AA2E4
:104320009BA288899989AA89BB898CA39DA3AEA3E6
:10433000BFA3DF91CF911F910F91FF90EF90DF907E
:10434000CF90BF90AF909F908F907F906F905F9035
:104350004F903F902F900895AC018091270390E0FB
:10436000860F911D80970CF03DC0FA01762F30E04A
:10437000ACE80DC0208198E0822F8327369580FD20
:104380003A27915011F02695F7CF31967150772347
:1043900089F7FA01E60FF11D30836F5FDA0120E043
:1043A00030E21EC080912603803210F01092260366
:1043B00090912603E92FF0E0E85DFC4F8C9180831B
:1043C0009F5F90932603809127038F5F809327033D
:1043D00080912703813210F0309327032F5F1196CD
:1043E000261700F30895CF93DF93EC018091050326
:1043F000843008F449C0DE0120E080910503882361
:10440000E9F09091040380910503981738F48091A6
:104410000503E0910403F0E0B09605C0E0910403C9
:1044200080910503F0E0E81BF109EA5FFC4F808111
:104430008C93809105038150809305032F5F119623
:104440002430D9F6FE0130E043E05CE80CC0208166
:1044500098E0822F8327369580FD3527915011F003
:104460002695F7CF3196415090F78B81381719F484
:1044700020E030E00BC0809103038F5F8093030343
:1044800010920403109205032FEF3FEFC901DF9153
:10449000CF9108951F920F920FB60F9211242F9370
:1044A0008F939F93EF93FF932EB5809127038823DB
:1044B000F1F09091260380912703981738F48091AA
:1044C0002703E0912603F0E0B09605C0E0912603B3
:1044D00080912703F0E0E81BF109E85DFC4F808143
:1044E0008EBD8091270381508093270301C01EBC9D
:1044F00080910403803210F0109204038091040331
:10450000E82FF0E0EA5FFC4F20838F5F8093040385
:10451000809105038F5F80930503809105038132AD
:1045200018F080E280930503FF91EF919F918F91A6
:104530002F910F900FBE0F901F9018958093290513
:1045400060932A0570932B0589E295E063E00E9451
:10455000AC21089560911A0570911B0580911C058E
:1045600090911D050E94493A9B01AC0182E1B9017D
:104570000E949E226091F8047091F9048091FA04DF
:104580009091FB040E94493A9B01AC0183E1B9017F
:104590000E949E226091FC047091FD048091FE04B3
:1045A0009091FF040E94493A9B01AC0184E1B9015A
:1045B0000E949E2260917704709178048091790422
:1045C00090917A040E94493A9B01AC0185E1B901BE
:1045D0000E949E2208956F927F928F929F92AF9237
:1045E000BF92CF92DF92EF92FF920F931F93CF93E0
:1045F000DF9324E9A22E22E0B22E90E4692E95E00A
:10460000792E8CE4882E85E0982E6301E401F50173
:10461000E080F18002811381C801B701F601208199
:104620003181428153810E94DD3988232CF4F601C7
:10463000E082F18202831383C801B70128813981A6
:104640004A815B810E947D3B181624F4E882F9823E
:104650000A831B8384E090E0A80EB91EC80ED91E01
:10466000249690EAA91692E0B90689F68091200571
:1046700064E10E94723C992341F51CE00F2EF0E0AA
:10468000CF2EF0E0DF2EF0E0EF2EF0E0FF2EF02D49
:10469000F401608171818281938120E030E04AE7FA
:1046A00054E40E94883B0E94493A9B01AC01812F4F
:1046B000B9010E949E22F401C192D192E192F1923D
:1046C0004F011F5F1F3021F729C09A3039F51FE0D5
:1046D0000F2EF0E0CF2EF0E0DF2EF0E0EF2EF0E036
:1046E000FF2EF02DF301608171818281938120E0A2
:1046F00030E04AE754E40E94883B0E94493A9B011B
:10470000AC01812FB9010E949E22F301C192D19286
:10471000E192F1923F011F5F123121F7DF91CF91BA
:104720001F910F91FF90EF90DF90CF90BF90AF90CF
:104730009F908F907F906F9008951F93CF93DF93FA
:10474000C8E8D2E011E0699179918991999120E0CE
:1047500030E048EC52E40E94883B0E94493A9B01B9
:10476000AC01812FB9010E949E221F5F143059F7BE
:10477000DF91CF911F9108951F93CF93DF93CCE7E3
:10478000D2E014E0699179918991999120E030E02B
:1047900048EC52E40E94883B0E94493A9B01AC01DC
:1047A000812FB9010E949E221F5F173059F7609137
:1047B000250570912605809127059091280520E018
:1047C00030E048EC52E40E94883B0E94493A9B0149
:1047D000AC0187E0B9010E949E22DF91CF911F9129
:1047E00008951F93CF93DF93C6E5D3E018E0699156
:1047F0007991812F0E949E221F5F1C30C1F7DF91AB
:10480000CF911F91089580912305823069F0833004
:1048100018F4813059F505C0833081F0843031F5CA
:104820001CC00E94EB2208958091200564E10E9443
:10483000723C992369F40E949D230895809120057C
:1048400064E10E94723C992319F40E94BC230895EC
:104850009A3061F40E94F12308958091200564E16B
:104860000E94723C992311F40E94AA220895FC012F
:104870008181882321F470E060E090E032C0908173
:104880008181A381B481981748F43181208182818C
:1048900090E0820F911D831B910905C080812181C9
:1048A00090E0821B9109880F991F880F991FA80F0C
:1048B000B91F8D919D910D90BC91A02D80934106C3
:1048C00090934206A0934306B093440681818150A1
:1048D00081837091410660914206909143068091D8
:1048E0004406272F362F492F582FB901CA010895A2
:1048F0000F931F930AE413E0C8010E946537C801B3
:1049000003960E946537C80106960E946537C80164
:1049100009960E9465371F910F9108956F927F92BB
:104920008F929F92AF92BF92CF92DF92EF92FF92BF
:104930000F931F938091390590913A0501969093BA
:104940003A0580933905895E9D4F20F08FEF809363
:104950002105A8C00E942C1A992787FD9095909355
:10496000490380934803892B09F09BC010913B05B4
:10497000183CF8F41431D0F060913C0570913D057D
:1049800080913E0590913F0520919C0230919D02BF
:1049900040919E0250919F020E94003960933C0515
:1049A00070933D0580933E0590933F051F5F1093E4
:1049B0003B05609088027090890280908A029090F6
:1049C0008B02C401B30120E030E040E85FEB0E94BD
:1049D0007D3B18160CF065C0A0908C02B0908D0243
:1049E000C0908E02D0908F02C601B50120E030E069
:1049F00040E85FEB0E947D3B18160CF052C0E0903F
:104A00009002F09091020091920210919302C801DD
:104A1000B70120E030E040E85FEB0E947D3B1816D4
:104A20000CF03FC0C401B30120E030E040E85FE398
:104A30000E94DD398823ACF5C601B50120E030E0E5
:104A400040E85FE30E94DD3988235CF5C801B701C7
:104A500020E030E040E85FE30E94DD3988230CF578
:104A600060913B0570E064517040882777FD809528
:104A7000982F0E947C3A9B01AC0160913C0570919B
:104A80003D0580913E0590913F050E94E13960937C
:104A9000AC027093AD028093AE029093AF0280E0BF
:104AA00001C08FEF1F910F91FF90EF90DF90CF909B
:104AB000BF90AF909F908F907F906F9008950F93CD
:104AC0001F930AE413E06091630370916403C801CB
:104AD0000E947F376091630370916403C80103965D
:104AE0000E947F376091630370916403C80106964A
:104AF0000E947F376091630370916403C801099637
:104B00000E947F371F910F9108952F923F924F92ED
:104B10005F926F927F928F929F92AF92BF92CF924D
:104B2000DF92EF92FF920F931F93DF93CF93CDB756
:104B3000DEB72C970FB6F894DEBF0FBECDBF0E9434
:104B4000BC1F992787FD9095909349038093480354
:104B50000E942C1A992787FD909590934903809382
:104B6000480397FF06C00E945F258DEF80932105C3
:104B700043C5809120058F5F80932005883C11F408
:104B8000109220050E94253320913505309136057D
:104B90004091370550913805621B730B840B950BC0
:104BA0000E947A3A20E030E04AE754E40E94E1397A
:104BB00060930201709303018093040190930501B7
:104BC0000E94253360933505709336058093370531
:104BD000909338058091020190910301A091040106
:104BE000B09105018D839E83AF83B887BC01CD0151
:104BF0002AE037ED43E25CE30E947D3B181634F473
:104C00008EEF809321050E945F25F6C480911805E0
:104C1000882309F44BC281508093180560919C024F
:104C200070919D0280919E0290919F0220E030E859
:104C300045E754E40E94883B1B012C016093DC048F
:104C40007093DD048093DE049093DF046091F004A0
:104C50007091F1048091F2049091F3042091140575
:104C60003091150540911605509117050E94883B1B
:104C70002D813E814F8158850E94883B9B01AC016C
:104C80006091E4047091E5048091E6049091E7045A
:104C90000E9400395B016C016093E4047093E504A9
:104CA0008093E6049093E704E090F004F090F10420
:104CB0000091F2041091F304C801B701209110058E
:104CC0003091110540911205509113050E94883BC7
:104CD0002D813E814F8158850E94883B2091FC04A4
:104CE0003091FD044091FE045091FF040E94003970
:104CF00069877A878B879C87C801B70120910C054B
:104D000030910D0540910E0550910F050E94883B92
:104D10002D813E814F8158850E94883B9B01AC01CB
:104D20006091E8047091E9048091EA049091EB04A9
:104D30000E9400393B014C016093E8047093E90440
:104D40008093EA049093EB04C201B101A60195019E
:104D50000E9400392D813E814F8158850E94883BF9
:104D60007B018C016093EC047093ED048093EE045E
:104D70009093EF0420E030E040E05FE30E94883B46
:104D80009B01AC0169857A858B859C850E940039E1
:104D90002D813E814F8158850E94883B2091F404EB
:104DA0003091F5044091F6045091F7040E940039C7
:104DB0005B016C016093F4047093F5048093F60436
:104DC0009093F704A40193010E9400396093F804C2
:104DD0007093F9048093FA049093FB0469857A85B3
:104DE0008B859C85A80197010E9400396093FC0483
:104DF0007093FD048093FE049093FF049091D3047C
:104E00008091D504981711F41092D3042091D30403
:104E1000822F90E0880F991F880F991FE091D60488
:104E2000F091D704E80FF91FA082B182C282D38229
:104E30002F5F2093D3049091D4048091D5049817C8
:104E400028F48091D4048F5F8093D40460911A0574
:104E500070911B0580911C0590911D052091F8040F
:104E60003091F9044091FA045091FB040E94FF38FC
:104E70005B016C016093000570930105809302054E
:104E800090930305E0908304F090840400918504DE
:104E900010918604C801B701A80197010E9400394A
:104EA000A80197010E94883B9B01AC0160E070E083
:104EB0008AE793E40E94E1397B018C016093D80476
:104EC0007093D9048093DA049093DB04A8019701CE
:104ED0000E9400399B01AC01C601B5010E947D3BD7
:104EE00018167CF4C601B501A80197010E94FF388D
:104EF00020E030E04AEF53E40E94883B0E94EF3B01
:104F000020C0C801B70120E030E040E050EC0E9432
:104F1000883B9B01AC01C601B5010E94DD398823A5
:104F2000CCF4C601B5019058A80197010E94FF3842
:104F300020E030E04AEF53E40E94883B0E94EF3BC0
:104F4000905860930405709305058093060590932F
:104F500007051EC000910201109103012091040178
:104F60003091050183E894E0B601A5010E94D020AC
:104F700080919F049091A004A091A104B091A204FB
:104F80008093040590930505A0930605B09307054B
:104F900060910405709105058091060590910705C3
:104FA0002091FC043091FD044091FE045091FF04D7
:104FB0000E94FF38AB01BC01009102011091030176
:104FC00020910401309105018BEA94E00E94D020E9
:104FD000E090E004F090E1040091E2041091E30419
:104FE0006091C7047091C8048091C9049091CA046B
:104FF0002091DC043091DD044091DE045091DF0407
:105000000E94FF38A80197010E94FF3823E833EA85
:1050100044EE5DE30E94883B9B01AC01C801B701EF
:105020000E940039AB01BC01CA01DB018093E0049E
:105030009093E104A093E204B093E3040091020191
:105040001091030120910401309105018BE594E05A
:105050000E94D020809119058823D9F060911E0507
:1050600070911F05882777FD8095982F0E947C3AC4
:1050700020917704309178044091790450917A041A
:105080000E9400390E94493A7093340560933305B9
:105090000FC083E894E00E94C6208BEA94E00E944F
:1050A000C6208BE594E00E94C62002C0109219052C
:1050B000E0908402F09085020091860210918702B0
:1050C000C801B70120E030E040E050E00E947D3BA5
:1050D00018165CF4C801B70120E030E048E452E45F
:1050E0000E947D3B18165CF01AC0C801B70120E091
:1050F00030E048E452EC0E94DD39882384F480914A
:105100007C0290917D02A0917E02B0917F028093FB
:10511000250590932605A0932705B0932805E090D8
:105120008002F09081020091820210918302C801F6
:10513000B70120E030E040E050E00E947D3B1816CF
:105140005CF4C801B70120E030E048E452E40E947A
:105150007D3B18165CF01AC0C801B70120E030E0B2
:1051600048E452EC0E94DD39882384F480917C026B
:1051700090917D02A0917E02B0917F0280932505DF
:1051800090932605A0932705B0932805E090250568
:10519000F09026050091270510912805A0907C022B
:1051A000B0907D02C0907E02D0907F02C801B7010E
:1051B000A60195010E94FF3820E030E044E353EC63
:1051C0000E94DD3988235CF4D801C701B058809370
:1051D000250590932605A0932705B0932805E09018
:1051E0002505F09026050091270510912805C80196
:1051F000B701A60195010E94FF3820E030E044E3AA
:1052000053E40E947D3B18165CF4D801C701B058E6
:105210008093250590932605A0932705B093280534
:1052200020912D0530912E05B90137FF04C0662766
:105230007727621B730B6630710594F1C9010E94D8
:10524000923C8BEF9FEFDB01A89FB001A99F700DEF
:10525000B89F700D1124620F731F882777FD80950A
:10526000982F0E947C3A9B01AC0160915704709189
:1052700058048091590490915A040E94883B60938D
:10528000FB037093FC038093FD039093FE03A092B5
:105290002505B0922605C0922705D09228051AC090
:1052A000609125057091260580912705909128052C
:1052B000A60195010E94FF38AB01BC0100910201DB
:1052C0001091030120910401309105018FED93E0CD
:1052D0000E94D020809122058823B9F560912F0586
:1052E00070913005882777FD8095982F0E947C3A31
:1052F000209180023091810240918202509183027C
:105300000E94FF38AB01BC01009102011091030122
:10531000209104013091050187E094E00E94D020A3
:105320006091310570913205882777FD8095982F1F
:105330000E947C3A2091840230918502409186023D
:10534000509187020E94FF3839C0813009F044C073
:1053500060912F0570913005882777FD8095982FF3
:105360000E947C3A2091570430915804409159048E
:1053700050915A040E94883BAB01BC01009102018C
:1053800010910301209104013091050187E094E020
:105390000E94D0206091310570913205882777FDF9
:1053A0008095982F0E947C3A2091570430915804A0
:1053B0004091590450915A040E94883BAB01BC01B2
:1053C0000091020110910301209104013091050127
:1053D0008FE294E00E94D020FBEFCF2EF3E0DF2E8F
:1053E000E8E8AE2EE2E0BE2E6624772478E2872E2F
:1053F000912C689C7001699CF00C789CF00C112435
:10540000E7E6F3E0EE0EFF1ED6016D917D918D91E2
:105410009C91F50121913191419151915F010E943F
:10542000FF38AB01BC0100910201109103012091F2
:10543000040130910501C7010E94D0200894611C2D
:10544000711C48E250E0C40ED51E53E0651671048D
:1054500081F66091330570913405882777FD80953A
:10546000982F0E947C3A1B012C018091D3039091CC
:10547000D403A091D503B091D60389839A83AB83DB
:10548000BC83C201B10129813A814B815C810E94B8
:1054900000395B016C01E090AB03F090AC0300912C
:1054A000AD031091AE0360908303709084038090ED
:1054B000850390908603A80197010E94FF38A401FC
:1054C00093010E9400390E94493A709357036093F8
:1054D0005603C601B501A80197010E940039A40135
:1054E00093010E94FF380E94493A709359036093D8
:1054F0005803C201B10129813A814B815C810E942C
:10550000FF385B016C01A80197010E94FF38A401DC
:1055100093010E94FF380E94493A70935B036093A5
:105520005A03C601B501A80197010E940039A401E0
:1055300093010E9400390E94493A70935D03609381
:105540005C030E940324209133053091340580913F
:10555000650390916603281739075CF50E945F2563
:1055600080917C0290917D02A0917E02B0917F0299
:105570008093250590932605A0932705B0932805D1
:1055800087E693E00E94C6208FED93E00E94C6203C
:105590008FE893E00E94C62087E094E00E94C62036
:1055A00087EB93E00E94C6208FE294E00E94C62021
:1055B00023C066E5E62E63E0F62E00E010E0D7019A
:1055C0008D919C91609165037091660368177907CE
:1055D0000CF4BC01F701619371937F01C801880F3E
:1055E000991F800F911F865B9C4F0E947F370F5F32
:1055F0001F4F0430110519F72C960FB6F894DEBF33
:105600000FBECDBFCF91DF911F910F91FF90EF9013
:10561000DF90CF90BF90AF909F908F907F906F90D2
:105620005F904F903F902F90089580E991E060E067
:105630000E94CD0680E00E9460378CE061E00E940D
:10564000C7338CB580648CBD8CB580688CBD0895E3
:10565000EF92FF920F931F93B7E6EB2EB3E0FB2E72
:10566000C7010E9496200FED13E0C8010E9496200A
:10567000C70188960E949620C80188960E949620AD
:1056800087EB93E00E9496208FE294E00E949620A0
:105690008BE594E00E9496208BEA94E00E9496208D
:1056A00083E894E00E9496201092D4048091D40460
:1056B00003ED14E0F80181938F018FE08093D5040E
:1056C0008CE390E00E945A348093D604F8019383CF
:1056D00080E090E0A0ECB0E4809308059093090589
:1056E000A0930A05B0930B0580E090E0A0E0BFE333
:1056F00080930C0590930D05A0930E05B0930F05B4
:1057000080E595E5A5E5BFE380931005909311052D
:10571000A0931205B09313058EED9EEAA7E9BBE3B3
:105720008093140590931505A0931605B093170563
:1057300080E090E0A0E0B0E08093250590932605FE
:10574000A0932705B09328051092200510922105FB
:10575000109222051092230528E820932405109228
:1057600003031092190580931A0590931B05A093CB
:105770001C05B0931D0510921F0510921E05809305
:10578000DC049093DD04A093DE04B093DF048093E7
:10579000E0049093E104A093E204B093E3048093C7
:1057A000E4049093E504A093E604B093E7048093A7
:1057B000E8049093E904A093EA04B093EB04809387
:1057C000EC049093ED04A093EE04B093EF04809367
:1057D000F0049093F104A093F204B093F304809347
:1057E000F4049093F504A093F604B093F704809327
:1057F000F8049093F904A093FA04B093FB04809307
:10580000FC049093FD04A093FE04B093FF041F9149
:105810000F91FF90EF900895FC01880F991F8E0F54
:105820009F1FE25AFC4F6081865B9C4F70E00E9494
:105830003A380895AF92BF92CF92DF92EF92FF92E3
:105840000F931F93CF93DF93809158058823A1F482
:1058500088E595E00E942837892B71F00E94253356
:105860006093640570936505809366059093670562
:1058700088E595E00E9432370E9425332091640527
:10588000309165054091660550916705621B730B69
:10589000840B950B695E73408040904090F01092AD
:1058A00019051092340510923305109232051092AA
:1058B00031051092300510922F0510922E0510928E
:1058C0002D0589E295E00E94F321892B09F004C699
:1058D000E091290590912B0580E020912A05C22FA7
:1058E000D0E0C82BD92BE53609F47EC3E63608F0A4
:1058F00072C0E53409F4F6C1E63488F5EB3009F4FA
:105900000EC1EC30B0F4E93068F4E53008F0FAC0CC
:10591000E33009F4E1C0E43008F0F1C0E23009F00E
:10592000DBC5D7C0E93009F4F2C0EA3009F0D4C5CC
:10593000F1C0EF3009F45CC1E03138F4ED3009F426
:10594000F8C0EE3008F004C1EFC0E13109F4C0C185
:10595000E13108F460C1E23109F0BEC5BEC1E235F3
:1059600009F48EC2E335D8F4E93409F43DC2EA34CF
:1059700060F4E73409F417C2BE01882777FD8095EB
:10598000982FE83408F01FC203C2E03509F458C26A
:10599000E13508F065C2EA3409F09EC53BC2EB353B
:1059A00009F4C0C2EC3550F4E43509F495C2E4358D
:1059B00008F47CC2EA3509F08FC5A4C2ED3509F4BC
:1059C000D7C2ED3508F4BEC2EE3509F4E7C2E436BD
:1059D00009F082C5F9C2EA3C09F448C4EB3C08F07E
:1059E0003FC0E23709F494C3E337D8F4EE3609F444
:1059F0004DC3EF3650F4E73609F41CC3E73608F41C
:105A000003C3E83609F068C52BC3E03709F459C36E
:105A1000BE01882777FD8095982FE13708F067C38E
:105A200045C3EB3709F4C0C3EC3750F4E93709F448
:105A300095C3EA3708F0A2C3E83709F04DC57EC325
:105A4000E23809F4DDC3E33820F4EC3709F044C54B
:105A5000C1C3E83C09F4EAC3E93C09F03DC5F6C31B
:105A6000EC3D09F4A7C4ED3DC8F4E33D09F450C48E
:105A7000E43D50F4EC3C09F425C4EC3C08F40CC4BF
:105A8000E23D09F029C534C4E53D09F467C4E53DAC
:105A900008F44EC4E63D09F01FC576C4E03E09F4A3
:105AA000CBC4E13E60F4EE3D09F49FC4BE018827FB
:105AB00077FD8095982FEF3D08F0ADC48BC4EE3F85
:105AC00009F4DFC4EF3F08F0E0C4EA3F08F404C57E
:105AD000C9C4C093230500C5C093220580917C02F0
