:100000000C9492060C94BA060C94BA060C94BA0698
:100010000C94BA060C94BA060C94BA060C94BA0660
:100020000C94BA060C94BA060C94BA060C94BA0650
:100030000C94BA060C94BA060C94BE1C0C94831C47
:100040000C9453320C94BF1D0C94B2340C940035B4
:100050000C94BA060C94BA060C94BA060C94BA0620
:100060000C94BA060C94BA06036EDB363D9A999945
:10007000993DABAAAA2A3E000000803F084AD73B20
:100080003BCE016E84BCBFFDC12F3D6C74319ABD67
:1000900056833DDA3D00C77F11BED9E4BB4C3E918B
:1000A0006BAAAABE000000803F072C7AA5BA6CC5D7
:1000B00090DA3B9365FC8BBC53F810FD3C56928361
:1000C0004DBD879D3AB63DCBC9BF5BBE73DA0FC944
:1000D0003F00007000000000240000000200030048
:1000E0000000650054FFEF0000FA80000B12820050
:1000F00001030C30C30E8C8CE914D5400213710F30
:100100008E3883F8833000F883258EF8833000F82A
:1001100083FFFFFFFF0FFEA9D6240004001A827997
:10012000A10000003CFFFF00000010000038836FBA
:10013000A2003E03304000000002CAE3093E8000F6
:1001400000200000000000000040000000600000EF
:1001500000000C0000000C186E000006920A16C089
:10016000DFFFFF0256FD8CD377FFE1C496E0C5BEEA
:10017000AA00000000FFFF0B2B0000165700000331
:10018000594000000000001DFA00026C1D00000034
:10019000003FFFDFEB003EB3B6000D227800002FDA
:1001A0003C00000000001942B5000039A20000B375
:1001B00065D90E9FC91DCF4C34300000005000009F
:1001C000003BB67AE80064000000C80000000000B0
:1001D00000100000001000FA921000225E000D22B4
:1001E0009F0001000000320000FF46000063D400C1
:1001F000001000000004D6000004CC000004CC0075
:10020000000000107200000040000000000000002C
:100210000000060002000500070000000000640066
:100220000000000000000000050005006400200040
:10023000000000000000000000000040000000037B
:100240000000000032F8980000FF650000830F00F6
:1002500000FF9BFC00000000000000000000000008
:10026000000000000000000000000000000000008E
:10027000000000000000000000000000000000106E
:100280000040000000000000060000B26A0002000A
:10029000000001FB830068000000D9FC007CF1FF36
:1002A000830000000000650000006403E8006400B3
:1002B00028000000250000000016A000000000102B
:1002C0000000001000002F0000000001F4000010EA
:1002D0000000280000FFFF4581FFFFFA72000000C8
:1002E0000000000000004400050005BAC600477881
:1002F000A200000001000000000000060000000055
:10030000140000254D002F706D000005AE000C029A
:10031000D00000000000000000000000000000000D
:1003200000001B00000000000000000000000000B2
:100330000000640000000800000000000000000051
:1003400000000000000000000000000000000000AD
:10035000000000000000000000000000000000009D
:10036000000000000000000000000000000000008D
:10037000000000000000000000000000000000007D
:10038000000000000000000000000000000000006D
:1003900000001B00000000000000000000000E0034
:1003A0000E00000AC70004000000000032FFFFFF3B
:1003B0009C00000B2B000000020000000100000068
:1003C00064FFE500000000000000000000000000E5
:1003D000000000000100000000000100000000001B
:1003E0000000018000000180000001800000242640
:1003F000D30000000000000000000600100096007E
:100400003C000000000000000000000000000000B0
:10041000000C0A4E68CDCF770950166759C619CE21
:10042000820000000000000000000000000000004A
:1004300000000000000000000017D7840003000047
:10044000000000000000000000C7938F9D1E1B1CD1
:100450001900000000000000000000000000000083
:1004600000000000000000000002031885000040AA
:100470000000000003000000030000000000000076
:10048000004000000000000000000000000000002C
:10049000000000000000000000000000000000005C
:1004A000000000000000000000000000000000004C
:1004B0000000000000677DDF7E72902E554CF6E64E
:1004C00088000000000000000000000000000000A4
:1004D00000D8DCB4B8B0D8B9ABF3F8FAB3B7BB8E78
:1004E0009EAEF132F51BF1B4B8B08097F1A9DFDF11
:1004F000DFAADFDFDFF2AAC5CDC7A90CC92C97F1AF
:10050000A989264666B28999A92D557DB0B08AA8D9
:1005100096365676F1BAA3B4B280C0B8A89711B295
:100520008398BAA3F0240844106418B2B9B498832D
:10053000F1A329557DBAB5B1A38393F0002850F5F6
:10054000B2B6AA839328547CF1B9A3829361BAA26C
:10055000DADEDFDB819AB9AEF5606870F1DABAA253
:10056000DFD9BAA2FAB9A38292DB31BAA2D9BAA270
:10057000F8DF85A4D0C1BBAD83C2C5C7B8A2DFDF99
:10058000DFBAA0DFDFDFD8D8F1B8AAB38DB4980DF9
:10059000355DB2B6BAAF8C96198F9FA70E161EB4F2
:1005A0009AB8AA872C547CBAA4B08AB691325676EF
:1005B000B28494A4C808CDD8B8B4B0F19982A82D5B
:1005C000557D98A80E161EA22C547C92A4F02C5097
:1005D00078F184A898C4CDFCD80DDBA8FC2DF3D904
:1005E000BAA6F8DABAA6DED8BAB2B68696A6D0F31C
:1005F000C841DAA6C8F8D8B0B4B882A892F52C548D
:100600008898F135D9F418D8F1A2D0F8F9A884D98E
:10061000C7DFF8F883C5DADF69DF83C1D8F40114D6
:10062000F1A8824EA884F311D182F5D99228978837
:10063000F109F41C1CD884A8F3C0F9D1D99782F130
:1006400029F40DD8F3F9F9D1D982F4C203D8DEDF49
:100650001AD8F1A2FAF9A88498D9C7DFF8F8F88374
:10066000C7DADF69DFF883C3D8F40114F198A882F0
:100670002EA884F311D182F5D992509788F109F40C
:100680001CD884A8F3C0F8F9D1D99782F149F40DA8
:10069000D8F3F9F9D1D982F4C403D8DEDFD8F1ADAB
:1006A0008898CCA809F9D98292A8F57CF1883ACF2C
:1006B000944A6E98DB6931DAADF2DEF9D88795A8F5
:1006C000F221D1DAA5F9F417D9F1AE8ED0C0C3AEBC
:1006D00082C684C3A88595C8A588F2C0F1F4010E2E
:1006E000F18E9EA8C63E56F554F18872F40115F1BC
:1006F0009845856EF58E9E0488F142985A8E9E0626
:100700008869F4011CF1981E1108D0F504F11E97B8
:100710000202983625DBF9D985A5F3C1DA85A5F360
:10072000DFD88595A8F309DAA5FAD88292A8F578DA
:10073000F1881A849F26889821DAF41DF3D8879FC0
:1007400039D1AFD9DFDFFBF9F40CF3D8FAD0F8DAFE
:10075000F9F9D0DFD9F9D8F40BD8F3879F39D1AFA5
:10076000D9DFDFF41DF3D8FAFCA869F9F9AFD0DAC4
:10077000DEFAD9F88F9FA8F1CCF398DB45D9AFDF2B
:10078000D0F8D8F18F9FA8CAF38809DAAF8FCBF8D9
:10079000D8F2AD978D0CD9A5DFF9BAA6F3FAF41209
:1007A000F2D8950DD1D9BAA6F3FADAA5F2C1BAA654
:1007B000F3DFD8F1BAB2B68696A6D0CAF349DAA664
:1007C000CBF8D8B0B4B8D8AD84F2C0DFF18FCBC3CA
:1007D000A8B2B68696C8C1CBC3F3B0B48898A82196
:1007E000DB718D9D71859521D9ADF2FAD88597A8D9
:1007F00028D9F408D8F28D29DAF405D9F285A4C2F3
:10080000F2D8A88D9401D1D9F411F2D88721D8F467
:100810000AD8F28498A8C801D1D9F411D8F3A4C891
:10082000BBAFD0F2DEF8F8F8F8F8F8F8F8D8F1B87D
:10083000F6B5B9B08A95A3DE3CA3D9F8D85CA3D9A4
:10084000F8D87CA3D9F8D8F8F9D1A5D9DFDAFAD845
:10085000B18530F7D9DED8F830ADDADED8F2B48C15
:1008600099A32D557DA083DFDFDFB591A0F629D9AF
:10087000FBD8A0FC29D9FAD8A0D051D9F8D8FC517E
:10088000D9F9D879D9FBD8A0D0FC79D9FAD8A1F96F
:10089000F9F9F9F9A0DADFDFDFD8A1F8F8F8F8F80C
:1008A000ACDEF8ADDE8393AC2C547CF1A8DFDFDF47
:1008B000F69D2CDAA0DFD9FADB2DF8D8A850DAA003
:1008C000D0DED9D0F8F8F8DB55F8D8A878DAA0D07F
:1008D000DFD9D0FAF8F8F8F8DB7DF8D89CA88CF5C9
:1008E00030DB38D9D0DEDFA0D0DEDFD8A848DB5837
:1008F000D9DFD0DEA0DFD0DED8A868DB70D9DFDF9B
:10090000A0DFDFD8F1A888902C547C98A8D05C3860
:10091000D1DAF2AE8CDFF9D8B087A8C1C1B188A80E
:10092000C6F9F9DA36D8A8F9DA36D8A8F9DA36D815
:10093000A8F9DA36D8A8F9DA36D8F78D9DADF818C7
:10094000DAF2AEDFD8F7ADFA30D9A4DEF9D8F2AEDC
:10095000DEFAF983A7D9C3C5C7F1889BA77AADF79B
:10096000DEDFA4F8849408A797F300AEF29819A4E8
:1009700088C6A39488F632DFF28393DB09D9F2AA02
:10098000DFD8D8AEF8F9D1DAF3A4DEA7F1889B7AE4
:10099000D8F38494AE19F9DAAAF1DFD8A881C0C3DC
:1009A000C5C7A39283F628ADDED9F8D8A350ADD938
:1009B000F8D8A378ADD9F8D8F8F9D1A1DADEC3C553
:1009C000C7D8A18194F818F2B089ACC3C5C7F1D8D3
:1009D000B8B4B09786A8319B069907AB9728889B37
:1009E000F00C201440B0B4B8F0A88A9A285078B718
:1009F0009BA8295179247059446938644831F1BB66
:100A0000AB88002C547CF0B38BB8A804285078F144
:100A1000B088B49726A85998BBABB38B022646661C
:100A2000B0B8F08A9CA82951798B2951798A247011
:100A3000598B2058718A4469388B3940688A6448D8
:100A4000318B30496088F1AC002C547CF08CA804C8
:100A5000285078F1889726A85998AC8C02264666CB
:100A6000F0899CA829517924705944693864483127
:100A7000A98809205970AB11384069A8193148601C
:100A80008CA83C415C207C00F187981986A86E7682
:100A90007EA999882D557DD8B1B5B9A3DFDFDFAE2A
:100AA000D0DFAAD0DEF2ABF8F9D9B087C4AAF1DF63
:100AB000DFBBAFDFDFB9D8B1F1A3978E60DFB084C1
:100AC000F2C8F8F9D9DED89385F14AB183A308B505
:100AD000839A0810B79F10D8F1B0BAAEB08AC2B2EC
:100AE000B68E9EF1FBD9F41DD8F9D90CF1D8F8F8DF
:100AF000AD61D9AEFBD8F40CF1D8F8F8AD19D9AE88
:100B0000FBDFD8F416F1D8F8AD8D61D9F4F4ACF56B
:100B10009C9C8DDF2BBAB6AEFAF8F40BD8F1AED0B0
:100B2000F8AD51DAAEFAF8F1D8B9B1B6A3839C08A2
:100B3000B9B1839AB5AAC0FD3083B79F10B58B9326
:100B4000F20202D1ABDADED8F1B080BAABC0C3B2E8
:100B500084C1C3D8B1B9F38BA391B609B4D9ABDEC4
:100B6000B0879CB9A3DDF1B38B8B8B8B8BB087A344
:100B7000A3A3A3B28BB69BF2A3A3A3A3A3A3A3A3F4
:100B8000A3A3F1B087B59AA3F39BA3A3DCBAACDF10
:100B9000B9A3A3A3A3A3A3A3A3A3A3A3A3A3A3A30F
:100BA000A3D8D8D8BBB3B7F1AAF9DAFFD9809AAAEB
:100BB00028B48098A720B79787A86688F07951F164
:100BC000902C870CA781976293F0717160859401D6
:100BD00029517990A5F1284C6C870C95188578A33C
:100BE0008390284C6C886CD8F3A28200F210A892F3
:100BF0001980A2F2D926D8F188A84DD948D896A84C
:100C00003980D93CD89580A839A68698D92CDA871E
:100C1000A72CD8A8899519A980D938D8A88939A925
:100C200080DA3CD8A82EA83990D90CD8A89531984C
:100C3000D90CD8A809D9FFD801DAFFD89539A9DA93
:100C400026FFD890A80D8999A810809821DA2ED86F
:100C50008999A83180DA2ED8A886963180DA2ED8E4
:100C6000A8873180DA2ED8A88292F34180F1D92E5C
:100C7000D8A882F31980F1D92ED882ACF3C0A28013
:100C800022F1A62EA72EA92298A829DAACDEFFD839
:100C9000A2F22AF1A92E8292A8F23180A696F1D969
:100CA00000AC8C9C0C30ACDED0DEFFD88C9CACD081
:100CB00010ACDE8092A2F24C82A8F1CAF235F19615
:100CC00088A6D900D8F1FF00000000240027002AE0
:100CD0000000000000250028002B00000000002379
:100CE000002600290004040404040404040202028F
:100CF000020202030303030303010204081020405D
:100D000080010204081020010204081020000000E5
:100D100007000201000003040600000000000000BC
:100D20000000E53511241FBECFEFD8E0DEBFCDBFF8
:100D300011E0A0E0B1E0E4EEF4E702C005900D920E
:100D4000A235B107D9F715E0A2E5B1E001C01D92C7
:100D5000AA3EB107E1F71DE0C4E2DDE004C022973E
:100D6000FE010E946C3AC232D107C9F70E943B369D
:100D70000C94BC060C940000F8940C94703AFB019F
:100D8000DC0104C08D910190801921F44150504044
:100D9000C8F7881B990B0895FC011092BC006623CC
:100DA00019F088B1806302C088B18F7C88B9109235
:100DB000B9009F01442737FD4095542F60E87EE33A
:100DC00080E090E00E944F3A205130404040504037
:100DD000CA01B90122E030E040E050E00E944F3A01
:100DE0002093B80084E08093BC000895482F440FFE
:100DF00092E064EB54E86093BC002AEF30E080910D
:100E0000BC0087FD34C0215030408FEF2F3F3807A2
:100E1000B1F727C08091B900887F883021F08031F8
:100E200011F082E008954093BB005093BC002AEF7C
:100E300030E08091BC0087FD1EC0215030408FEF14
:100E40002F3F3807B1F70FC08091B900887F8032FB
:100E500021F4992351F09150CECF883131F480E0C4
:100E6000089581E0089583E0089584E008951216BE
:100E7000130684F2F6CF1216130634F3F4CFEF9272
:100E8000FF920F931F93162FE42E022FF32E0E9432
:100E9000F6061093BB0084E88093BC002AEF30E094
:100EA0008091BC0087FD07C0215030408FEF2F3F5D
:100EB0003807B1F703C0121613063CF0802F9F2DA0
:100EC0009C01F90190E044E81CC08091B900F6CF84
:100ED00080818093BB004093BC002AEF30E080917A
:100EE000BC0087FD07C0215030408FEF2F3F3807EF
:100EF000B1F705C01216130614F48091B9009F5F74
:100F000031969E1528F384E98093BC002AEF30E0E7
:100F10008091BC0087FD06C02115310519F02150D4
:100F20003040F6CF81E01F910F91FF90EF90089530
:100F30001F93F82F122F72E0B4EBE82FEE7FA4E896
:100F4000B093BC002AEF30E08091BC0087FDD0C098
:100F5000215030408FEF2F3F3807B1F7B7C0809155
:100F6000B900887F883021F0803111F091E1BDC057
:100F7000E093BB00A093BC002AEF30E08091BC005E
:100F800087FDBBC0215030408FEF2F3F3807B1F7AE
:100F90009FC09091B900987F903229F4772309F48B
:100FA00099C07150CDCF983109F094C06093BB00C7
:100FB00084E88093BC002AEF30E08091BC0087FD7C
:100FC000A1C0215030408FEF2F3F3807B1F784C0C8
:100FD0008091B900887F883211F095E186C062E087
:100FE000A4EB7F2F7160E4E8A093BC002AEF30E00F
:100FF0008091BC0087FD8BC0215030408FEF2F3F88
:101000003807B1F76BC08091B900887F883021F034
:10101000803111F097E169C07093BB00E093BC0090
:101020002AEF30E08091BC0087FD76C0215030402F
:101030008FEF2F3F3807B1F758C08091B900887FF4
:10104000883429F4662309F44BC06150CDCF803435
:1010500009F046C0FA0160E0412F50E04150504095
:10106000A4EC74E822C0862F90E08417950719F449
:101070007093BC0002C0A093BC002AEF30E08091C6
:10108000BC0087FD4EC0215030408FEF2F3F380706
:10109000B1F728C09091B900987F903511F098353C
:1010A00021F58091BB0081936F5F6117E0F284E9C5
:1010B0008093BC002AEF30E08091BC0087FD14C013
:1010C0002115310589F021503040F6CF90E10DC057
:1010D00092E10BC093E109C094E107C096E105C01D
:1010E00099E103C09AE101C090E0892F1F91089512
:1010F000121613060CF433CFE9CF121613060CF4B4
:1011000048CFE6CF121613060CF462CFE5CF1216C5
:1011100013060CF478CFE2CF121613060CF48DCF21
:10112000E4CF121613060CF4B5CFDCCF84E980931C
:10113000BC002AEF30E08091BC0087FD06C0215042
:1011400030408FEF2F3F3807B1F780E012161306BB
:101150000CF081E008957F928F929F92AF92BF92A0
:10116000CF92DF92EF92FF920F931F93CF93DF9373
:10117000F82EE62E742E6901E8010E949B324B0185
:101180005C018F2D880F6E2DA601272D0E949807D8
:10119000882311F01FEF01C0172D2097C1F00E9486
:1011A0009B32681979098A099B099E0140E050E049
:1011B000621773078407950750F0212F332727FD07
:1011C0003095872D90E0281739070CF41FEF812FF9
:1011D000DF91CF911F910F91FF90EF90DF90CF9013
:1011E000BF90AF909F908F907F900895AC01823018
:1011F000910518F02FEF3FEF44C080933E0290938B
:101200003F029C01220F331F75E0880F991F7A95CA
:10121000E1F7821B930B8E5A9E4F90933702809377
:101220003602CA0163E0880F991F6A95E1F7280F1B
:10123000391F22573E4F309339022093380287E2FC
:1012400090E09C01429FC001439F900D529F900DE2
:1012500011248E559E4F90933B0280933A0283E275
:1012600090E09C01429FC001439F900D529F900DC2
:10127000112480519E4F90933D0280933C0220E0C8
:1012800030E0C90108950F931F93CF93DF93C0916E
:101290003602D091370285E7888389E189838AE124
:1012A0008A838CE08B838AE68C8383E28D838BE157
:1012B0008E838CE18F838FE18A8780E28B8782E740
:1012C0008C8784E78D8783E48E878BE38F8781E427
:1012D000888B88E3898B89E38A8B8AE38B8B8BE607
:1012E0008D8B8CE68E8B87E38F8B8FE6888F86E0E5
:1012F000898F84E28A8F8DE68B8F8EE68C8F80E7D4
:101300008D8F80913E0290913F02009719F00197D6
:1013100069F406C0E0913802F091390288E605C010
:10132000E0913802F091390289E680830091380219
:101330001091390280E094E0F8019283818386E77E
:10134000838384E591E09583848387EF9DEF978382
:10135000868380E091E09187808720913A023091E6
:101360003B0283E890E0A0E0B0E0F9018083918344
:10137000A283B38380E098E0A0E0B0E0848395830B
:10138000A683B783108681E08187128688E18387F0
:1013900082E390E09587848785E0868780E090E00F
:1013A000A0E2B1E48787908BA18BB28B80E090E0C4
:1013B000A2EDB2E4838B948BA58BB68B49E25CE5FE
:1013C0006FE07EE3478B508F618F728F8AE999E9D6
:1013D000A9E9BEE3838F948FA58FB68F83E393E350
:1013E000A3E7BFE3878F90A3A1A3B2A343A354A312
:1013F00065A376A3E0913C02F0913D02D183C083C6
:101400001383028332A321A3DF91CF911F910F9108
:101410000895DC01E0913C02F0913D028681882331
:1014200019F081E08C9301C01C9280E090E0089557
:10143000DF93CF930F92CDB7DEB7982FA0913C02E8
:10144000B0913D025D968C915D97882321F09923A0
:1014500089F082E00DC016968C9116978823E9F0EA
:10146000992341F01C968C911C978823F9F481E014
:10147000898301C019821296ED91FC9113970D900A
:10148000BC91A02D808151966C9141E09E012F5F0F
:101490003F4F0E943F07882319F42FEF3FEF08C00A
:1014A000E0913C02F0913D028981848720E030E0A8
:1014B000C9010F90CF91DF910895CF92DF92EF9203
:1014C000FF920F931F93DF93CF9300D0CDB7DEB77A
:1014D000D82EC92E8B017A014115510519F42FEF31
:1014E0003FEF41C0E0913C02F0913D0286818823AC
:1014F00019F42EEF3FEF37C0A281B3819B012D0D70
:10150000311D18968D919C9119978217930718F4A5
:101510002DEF3FEF28C0C982DA820190F081E02DE3
:101520008C91638D42E09E012F5F3F4F0E943F07E9
:10153000882319F42CEF3FEF16C0E0913C02F091A4
:101540003D02A281B3810190F081E02D8C91608DEC
:10155000402F97010E943F07882319F020E030E0D8
:1015600002C02BEF3FEFC9010F900F90CF91DF9199
:101570001F910F91FF90EF90DF90CF9008951F93F0
:10158000DF93CF930F92CDB7DEB7182FA0913C0217
:10159000B0913D025C968C915C97811781F111238B
:1015A00019F080E3898301C019821D968C911D97E3
:1015B000882319F08981826089835B968C915B977F
:1015C000882319F08981806889831296ED91FC91B6
:1015D00013970D90BC91A02D808157966C9141E09E
:1015E0009E012F5F3F4F0E943F07882319F42FEF82
:1015F0003FEF07C0E0913C02F0913D02148F20E0E4
:1016000030E0C9010F90CF91DF911F910895DF93D2
:10161000CF930F92CDB7DEB79C01A0913C02B09161
:101620003D0216968C911697882399F12C3B310533
:1016300010F081E015C02236310510F082E010C0B4
:101640002A32310510F083E00BC02431310510F04F
:1016500084E006C02A30310510F085E001C086E044
:10166000898317969C91179789819817D9F01296BC
:10167000ED91FC9113970D90BC91A02D8081129655
:101680006C9141E09E012F5F3F4F0E943F078823EE
:1016900019F42FEF3FEF08C0E0913C02F0913D02BA
:1016A0008981878320E030E0C9010F90CF91DF91DD
:1016B0000895DF93CF930F92CDB7DEB7982FA09107
:1016C0003C02B0913D0216968C9116978823A1F1A9
:1016D000943061F0953018F4923071F505C098306F
:1016E00039F0903149F506C0198206C088E003C080
:1016F00080E101C088E1898315962C91159730E02F
:10170000898190E043E0959587954A95E1F7281700
:10171000390709F11296ED91FC9113970D90BC9148
:10172000A02D808117966C9141E09E012F5F3F4F65
:101730000E943F07882319F42FEF3FEF0EC0E0917E
:101740003C02F0913D02898190E0A3E09595879558
:10175000AA95E1F7858320E030E0C9010F90CF9191
:10176000DF910895DF93CF930F92CDB7DEB79C0141
:10177000A0913C02B0913D0216968C911697882359
:10178000E1F181E0243F380791F081E0253F3807FF
:1017900020F42A3F310589F508C083E0283E380748
:1017A00041F0205D374049F506C0198206C088E047
:1017B00003C080E101C088E1898314962C911497BD
:1017C00030E0898190E063E0959587956A95E1F72F
:1017D0002817390709F11296ED91FC9113970D9096
:1017E000BC91A02D808116966C9141E09E012F5FE7
:1017F0003F4F0E943F07882319F42FEF3FEF0EC0A1
:10180000E0913C02F0913D02898190E053E0959592
:1018100087955A95E1F7848320E030E0C9010F9065
:10182000CF91DF910895FF920F931F93DF93CF9392
:101830000F92CDB7DEB7F82E082F10E0C8018077E1
:101840009070892B11F081E005C0FF2011F0198202
:1018500002C080E48983E0913C02F0913D02A281C4
:10186000B3810190F081E02D8C91658941E09E016A
:101870002F5F3F4F0E943F07A0913C02B0913D0275
:10188000882319F416961C9230C089818F7B189694
:101890008C931897198206FD02C084E0898305FDA8
:1018A00003C089818260898304FD03C089818160CE
:1018B000898303FD03C08981886389831296ED9132
:1018C000FC9113970D90BC91A02D808156966C9140
:1018D00041E09E012F5F3F4F0E943F07882341F464
:1018E000E0913C02F0913D0216822FEF3FEF16C0CF
:1018F000FF2031F088E0F81619F080E00E94BF0A5E
:10190000E0913C02F0913D02F682178662E370E0BE
:1019100080E090E00E94A93220E030E0C9010F9001
:10192000CF91DF911F910F91FF9008950F931F9317
:10193000DF93CF930F92CDB7DEB7A0913C02B09169
:101940003D0216968C911697882309F41BC11982C3
:101950001296ED91FC9113970D90BC91A02D808172
:1019600051966C9141E08E010F5F1F4F98010E94CC
:101970003F07882309F406C1E0913C02F0913D0243
:10198000A281B3810190F081E02D8C91658141E0CD
:1019900098010E943F07882309F4F4C0E0913C02BB
:1019A000F0913D02A281B3810190F081E02D8C91F4
:1019B000648141E098010E943F07882309F4E2C056
:1019C000A0913C02B0913D025D968C915D97882379
:1019D00009F469C08CE089831296ED91FC9113970C
:1019E0000D90BC91A02D808114966C9141E09801DE
:1019F0000E943F07882309F4C5C062E370E080E0DD
:101A000090E00E94A93280EC8983A0913C02B091C1
:101A10003D0216968C91169780FF02C080EE898356
:101A20001296ED91FC9113970D90BC91A02D8081A1
:101A300014966C9141E09E012F5F3F4F0E943F073B
:101A4000882309F49FC0A0913C02B0913D021C96EE
:101A50008C911C97882319F082E0898301C0198238
:101A60001296ED91FC9113970D90BC91A02D808161
:101A700051966C9141E08E010F5F1F4F98010E94BB
:101A80003F07882309F47EC01982E0913C02F0915F
:101A90003D02A281B3810190F081E02D8C9165819E
:101AA00041E098016BC084E089831296ED91FC912E
:101AB00013970D90BC91A02D808114966C9141E0FC
:101AC00098010E943F07882309F45CC0A0913C0262
:101AD000B0913D021D968C911D97882329F416968E
:101AE0008C91169780FD02C080E401C080E6898356
:101AF0001296ED91FC9113970D90BC91A02D8081D1
:101B000014966C9141E09E012F5F3F4F0E943F076A
:101B10008823C1F162E370E080E090E00E94A93286
:101B2000A0913C02B0913D021C968C911C97882399
:101B300019F081E0898301C019821296ED91FC9120
:101B400013970D90BC91A02D808151966C9141E02E
:101B50009E012F5F3F4F0E943F07882399F0E0913D
:101B60003C02F0913D02A281B381208131813B96FC
:101B70008C91D90115966C9141E09F010E943F071D
:101B8000882319F42FEF3FEF02C020E030E0C901B5
:101B90000F90CF91DF911F910F9108950F931F9395
:101BA000CF93DF93982FE0913C02F0913D02858D19
:101BB000882319F0C0E0D0E029C08681882321F174
:101BC000192F1E7F038581238387811719F4C0E0B5
:101BD000D0E002C0CFEFDFEF112319F4878588230F
:101BE00031F081E00E94180A112381F004C080E0E6
:101BF0000E94180A0BC00E94960C892B39F0E091C4
:101C00003C02F0913D020387CFEFDFEFCE01DF9181
:101C1000CF911F910F9108951F93DF93CF9300D021
:101C2000CDB7DEB7182F893208F058C08823F9F4F1
:101C300080E00E94BF0A198287E08A83E0913C021B
:101C4000F0913D02A281B3810190F081E02D8C9151
:101C5000658942E09E012F5F3F4F0E943F07882326
:101C6000E9F1E0913C02F0913D02178646C081E027
:101C70000E94BF0A80E28983113011F41A8204C0E5
:101C8000163028F481E08A8385E090E00BC015319E
:101C900028F482E08A838AE090E004C083E08A83AB
:101CA00084E190E00E94070B8A818295880F880F5B
:101CB000807C87608A83E0913C02F0913D02A281A2
:101CC000B3810190F081E02D8C91658942E09E0105
:101CD0002F5F3F4F0E943F07882319F42FEF3FEFFC
:101CE0000EC0E0913C02F0913D0288E086831086B0
:101CF00081E0878780E00E94CE0D20E030E0C901BE
:101D00000F900F90CF91DF911F9108950F931F9324
:101D1000DF93CF930F92CDB7DEB78C01E0913C02F9
:101D2000F0913D0286818823B9F1858D8823A1F544
:101D30008785882359F0C8010197889720F4802F60
:101D40000E940C0E3FC080E00E940C0E0430110572
:101D500018F464E070E007C0B80183E0093E18079A
:101D600010F068EE73E088EE93E00E94063A61504E
:101D70006983E0913C02F0913D02A281B381019020
:101D8000F081E02D8C91618141E09E012F5F3F4FFA
:101D90000E943F07882319F42FEF3FEF15C0698198
:101DA00070E06F5F7F4F88EE93E00E941A3ACB019C
:101DB000E0913C02F0913D0272876187969587958C
:101DC0000E94070B20E030E0C9010F90CF91DF9116
:101DD0001F910F910895CF92DF92EF92FF920F9390
:101DE0001F93DF93CF9300D0CDB7DEB7182F092F05
:101DF0007B016A0141155105D1F1E0913C02F0915E
:101E00003D028681882399F1A281B3819B01210F34
:101E1000311D18968D919C9119978217930738F16F
:101E200009831A830190F081E02D8C91638D42E04B
:101E30009E012F5F3F4F0E943F078823C1F0E09132
:101E40003C02F0913D02A281B3810190F081E02D2E
:101E500000910001109101018C91608D4E2D960131
:101E60000E94AB08882319F020E030E002C02FEF79
:101E70003FEFC9010F900F90CF91DF911F910F910C
:101E8000FF90EF90DF90CF9008952F923F924F9266
:101E90005F926F927F928F929F92AF92BF92CF92FA
:101EA000DF92EF92FF920F931F93DF93CF93CDB703
:101EB000DEB764970FB6F894DEBF0FBECDBF3C010E
:101EC0004B014B8B5C8B1901E0913C02F0913D0280
:101ED000868D882319F02FEF3FEF75C061157105CE
:101EE00019F42EEF3FEF6FC080E190E00E947C3349
:101EF000B92EC82ED92EA82EEE24FF24E3E04E2EB4
:101F0000512C4C0E5D1E38C083010E191F09013182
:101F1000110510F000E110E094012E0D3F1DD601D7
:101F2000A601400F511F05C0F90184918D932F5FC9
:101F30003F4FA417B507C1F7C701B801A5010E941B
:101F40005D0A892B19F02DEF3FEF3DC0C701B801A5
:101F5000A2010E94EB0E892B19F02CEF3FEF33C04A
:101F6000C501B201A8010E94BF06009719F02BEF2E
:101F70003FEF29C0E00EF11EE614F70428F2FC89B9
:101F8000F9838B898A83E0913C02F0913D02A28122
:101F9000B3810190F081E02D8C91658D42E09E012E
:101FA0002F5F3F4F0E943F07882319F42AEF3FEF2E
:101FB0000AC0E0913C02F0913D0281E0868F30A2A0
:101FC000278E20E030E0C90164960FB6F894DEBF9A
:101FD0000FBECDBFCF91DF911F910F91FF90EF907A
:101FE000DF90CF90BF90AF909F908F907F906F9039
:101FF0005F904F903F902F900895DF92EF92FF9265
:102000000F931F93DF93CF930F92CDB7DEB7D82EE8
:10201000E0913C02F0913D0285858D1509F49EC04A
:10202000A281B3810190F081E02D00910001109117
:1020300001017E010894E11CF11CDD2089F18C91E5
:10204000648141E097010E94AB08882309F47EC0B7
:1020500089818F7D8983E0913C02F0913D02A281CC
:10206000B3810190F081E02D8C91648141E0970172
:102070000E943F07882309F469C063E070E080E0B4
:1020800090E00E94A93282E08983A0913C02B09145
:102090003D025B968C915B978823F1F182E839C011
:1020A0008C91648141E097010E94AB08882309F478
:1020B0004DC0A0913C02B0913D0216968C911697AE
:1020C000998180FF02C0906201C09F7D9983129622
:1020D000ED91FC9113970D90BC91A02D80811496E9
:1020E0006C9141E09E012F5F3F4F0E943F07882384
:1020F00069F163E070E080E090E00E94A932A09175
:102100003C02B0913D025B968C915B97882319F05D
:1021100080E8898301C019825C968C915C97882342
:1021200019F08981806389831296ED91FC91139750
:102130000D90BC91A02D808157966C9141E09E013D
:102140002F5F3F4F0E943F07882319F42FEF3FEF87
:1021500007C0E0913C02F0913D02D58620E030E0DE
:10216000C9010F90CF91DF911F910F91FF90EF90D8
:10217000DF900895DF93CF930F92CDB7DEB7982FFE
:10218000E0913C02F0913D02858D891709F44AC027
:10219000992369F1868D882319F42FEF3FEF44C00E
:1021A00080E00E94180A80E00E94FD0FE0913C024E
:1021B000F0913D02878D90A10E94860E1982E091D8
:1021C0003C02F0913D020280F381E02D808163E2C8
:1021D00041E09E012F5F3F4F0E943F07E0913C028C
:1021E000F0913D0281E0858F0E94180A19C080E0BD
:1021F0000E94180AE0913C02F0913D028385898398
:102200000280F381E02D808163E241E09E012F5F37
:102210003F4F0E943F07E0913C02F0913D02158E36
:102220000E94960C20E030E0C9010F90CF91DF9121
:1022300008956F927F928F929F92AF92BF92CF92AA
:10224000DF92EF92FF920F931F93DF93CF9300D013
:10225000CDB7DEB76C013B014A01A0913C02B091C1
:102260003D025D968C915D97882319F42FEF3FEF27
:102270007CC016968C911697882319F42EEF3FEFA9
:1022800074C01296ED91FC9113970D90BC91A02D06
:10229000009100011091010180811C966C9142E037
:1022A0005E010894A11CB11C95010E94AB08882313
:1022B00019F42DEF3FEF59C0998180E02A81E22E79
:1022C000FF24E82AF92AEC14FD0428F4F401108212
:1022D00021E030E04AC0E0913C02F0913D02A28151
:1022E000B38111968D919C911297969587958E1535
:1022F0009F05D0F40190F081E02D00910001109134
:1023000001018C91638941E095010E94AB0888230B
:1023100019F42BEF3FEF29C0898184FF05C00E948B
:10232000960C22E030E021C0E0913C02F0913D02A9
:10233000A281B3810190F081E02D00910001109104
:1023400001018C9165854C2D93010E94AB08882377
:1023500019F429EF3FEF09C0C701B6010E94063A00
:102360006150F401608320E030E0C9010F900F90CC
:10237000CF91DF911F910F91FF90EF90DF90CF9061
:10238000BF90AF909F908F907F906F900895EF9245
:10239000FF920F931F93DF93CF9300D000D000D014
:1023A000CDB7DEB780E88983E0913C02F0913D0231
:1023B000A281B3810190F081E02D8C91658941E08B
:1023C0007E010894E11CF11C97010E943F078823BD
:1023D00019F42FEF3FEFDBC064E670E080E090E09F
:1023E0000E94A9321982E0913C02F0913D02A28143
:1023F000B3810190F081E02D8C91658941E09701D6
:102400000E943F07882319F42EEF3FEFC0C0E091F0
:102410003C02F0913D02A281B3810190F081E02D58
:1024200000910001109101018C91618D46E09701AE
:102430000E94AB08882319F42DEF3FEFA8C08E81CE
:1024400090E081709070880F991F880F991F2C81E0
:1024500030E021703070220F331F982F922B8A8129
:102460008170982B91F0913031F4E0913C02F09121
:102470003D02968732C0923019F02CEF3FEF87C0B3
:10248000E0913C02F0913D0227C0E0913C02F091C6
:102490003D02A281B3810190F081E02D0091000105
:1024A000109101018C91638141E097010E94AB087A
:1024B000882319F42BEF3FEF6AC089818F7019F4DC
:1024C0002AEF3FEF64C0E0913C02F0913D0284307E
:1024D00019F481E0868701C01686E0913C02F091F4
:1024E0003D022FEF26832483258327838FEF9FEFE1
:1024F000928781872387258781E08087838F148E49
:10250000108A178671968AE011928A95E9F7E09110
:102510003C02F0913D02158E168E10A2178E80EDB2
:1025200097E00E94B20B892B19F026EF3FEF2FC0E6
:1025300082E00E94590B892B19F025EF3FEF27C04D
:102540008AE290E00E94070B892B19F024EF3FEFFD
:102550001EC082E390E00E94860E892B19F023EFC3
:102560003FEF15C080E00E94CE0D892B19F022EFBD
:102570003FEF0DC080E00E94FD0F892B19F020EF86
:102580003FEF05C080E00E94130C20E030E0C9015D
:1025900026960FB6F894DEBF0FBECDBFCF91DF9168
:1025A0001F910F91FF90EF9008959C01823091054B
:1025B00018F02FEF3FEF16C0809358029093590206
:1025C0008BE090E0AC01249FC001259F900D349FCB
:1025D000900D1124805C9D4F90935702809356027A
:1025E00020E030E0C9010895E0915602F0915702D1
:1025F000118210821382128215821482178216822F
:1026000011861086128608952F923F924F925F9204
:102610006F927F928F929F92AF92BF92CF92DF92F2
:10262000EF92FF920F931F93DF93CF93CDB7DEB757
:10263000AC970FB6F894DEBF0FBECDBF9EA38DA39F
:1026400078A76FA32A013AA729A71CA70BA7A70160
:10265000D8011D921C92E0915602F091570282859A
:1026600090E0BE016F5F7F4F0E9419119CA38BA366
:10267000892B09F0B2C1E0915602F0915702FAA3FA
:10268000E9A38681978184719070892B11F440E0D1
:1026900017C1A980BB24CC24DD24DA2CCC24BB2494
:1026A000AA248A8190E0A0E0B0E0DC019927882785
:1026B000A82AB92ACA2ADB2A8C8190E0A0E0B0E0DF
:1026C000A82AB92ACA2ADB2A8B8190E0A0E0B0E0D0
:1026D000BA2FA92F982F8827A82AB92ACA2ADB2A15
:1026E000D201AD92BD92CD92DC9213972D8130E054
:1026F00040E050E0522F4427332722278E8190E07C
:10270000A0E0B0E0DC0199278827282B392B4A2B41
:102710005B2B888590E0A0E0B0E0282B392B4A2B7A
:102720005B2B8F8190E0A0E0B0E0BA2FA92F982F0B
:102730008827282B392B4A2B5B2BF20124833583E6
:1027400046835783298530E040E050E0522F4427EC
:10275000332722278A8590E0A0E0B0E0DC019927AA
:102760008827282B392B4A2B5B2B8C8590E0A0E007
:10277000B0E0282B392B4A2B5B2B8B8590E0A0E017
:10278000B0E0BA2FA92F982F8827282B392B4A2B56
:102790005B2BD20118962D933D934D935C931B9721
:1027A0002D8530E040E050E0522F44273327222788
:1027B0008E8590E0A0E0B0E0DC0199278827282BE7
:1027C000392B4A2B5B2B888990E0A0E0B0E0282BC6
:1027D000392B4A2B5B2B8F8590E0A0E0B0E0BA2F1D
:1027E000A92F982F8827282B392B4A2B5B2B24873E
:1027F0003587468757875601DD24B7FCD094CD2C0A
:1028000064807580868097803401992477FC909449
:10281000892C20843184428453841201552437FC4E
:102820005094452C9A01552737FD5095452FCA01E4
:10283000B9010E94DB397B018C01C601B501A601FB
:1028400095010E94DB39E60EF71E081F191FC4010F
:10285000B301A40193010E94DB39E60EF71E081FA5
:10286000191FC201B101A20191010E94DB39E60EDC
:10287000F71E081F191F80E090E0A0E0B1EFE80EFE
:10288000F91E0A1F1B1F91E0E91690E0F90690E07F
:10289000090792E0190758F00E94960CABA5BCA559
:1028A0001D921C92E3E0F0E0FCA3EBA396C0ABA565
:1028B000BCA58D919C91119791608D939C9340E163
:1028C000E9A1FAA1868186FF39C0A42FB0E0FE01FC
:1028D000EA0FFB1F228130E0FE01EA0FFB1F91810E
:1028E00080E0282B392BEFA1F8A531832083FE014E
:1028F000EA0FFB1F338120E0FE01EA0FFB1F8481FA
:1029000090E0282B392BEFA1F8A533832283FE0119
:10291000EA0FFB1F358120E0868190E0282B392BC0
:10292000AFA1B8A515963C932E9314974A5FEBA5DB
:10293000FCA580819181886091838083A9A1BAA13F
:1029400016968D919C91179780789170892BC1F183
:10295000A42FB0E0FE01EA0FFB1F228130E0FE0150
:10296000EA0FFB1F918180E0282B392BEDA1FEA1FE
:1029700031832083FE01EA0FFB1F338120E0FE013B
:10298000EA0FFB1F848190E0282B392BEDA1FEA1DB
:1029900033832283FE01EA0FFB1F358120E086810D
:1029A00090E0282B392BADA1BEA115963C932E9318
:1029B0001497EBA5FCA5808191818067918380832A
:1029C00089A59AA5892B49F00E949B32A9A5BAA591
:1029D0006D937D938D939C9313978BA19CA1AC9643
:1029E0000FB6F894DEBF0FBECDBFCF91DF911F9120
:1029F0000F91FF90EF90DF90CF90BF90AF909F909E
:102A00008F907F906F905F904F903F902F900895A0
:102A1000DF93CF93CDB7DEB729970FB6F894DEBF1B
:102A20000FBECDBF9E012F5F3F4F882349F0D901D4
:102A3000E0E2F1E089E001900D928150E1F708C0F9
:102A4000D901E7E1F1E089E001900D928150E1F7D1
:102A500088EB94E069E070E0AE014F5F5F4F0E9449
:102A60005D0A29960FB6F894DEBF0FBECDBFCF9199
:102A7000DF9108950F931F93DF93CF93CDB7DEB708
:102A800028970FB6F894DEBF0FBECDBF8C01893CEE
:102A90009105F0F488EC90E0B8010E94063A61508C
:102AA000704079836A8386E192E062E070E0AE0173
:102AB0004F5F5F4F0E945D0A892B51F481EC9AE0D1
:102AC0006CE070E049E251E00E945D0A892B19F048
:102AD0002FEF3FEF08C0E0915602F09157021187A7
:102AE000008720E030E0C90128960FB6F894DEBFD9
:102AF0000FBECDBFCF91DF911F910F910895EF923F
:102B0000FF920F931F93DF93CF9300D000D000D09C
:102B1000CDB7DEB78C01AC0143705070FA01E25CB6
:102B2000FE4F80818983C801E3E096958795EA95F9
:102B3000E1F783709070FC01E25CFE4F20812A83F4
:102B4000D80176E0B695A7957A95E1F7A370B070B5
:102B5000FD01E25CFE4F20812B83455C5E4FFA0154
:102B600020812C83855C9E4FFC0180818D83A55C38
:102B7000BE4F8C918E8386E294E063E070E07E012C
:102B80000894E11CF11CA7010E945D0A892B09F041
:102B90004BC08AE294E063E070E0AE014C5F5F4FAF
:102BA0000E945D0A892B09F03FC0D701E8E3F1E0FC
:102BB00083E001900D928150E1F7DE011496E5E388
:102BC000F1E083E001900D928150E1F702FF06C031
:102BD0008981816089838C8181608C8305FF06C037
:102BE0008A8181608A838D8181608D8310FF06C018
:102BF0008B8181608B838E8181608E8380E494E001
:102C000063E070E0AE014F5F5F4F0E945D0A892B69
:102C100059F481E394E063E070E0AE014C5F5F4FF4
:102C20000E945D0A892B19F02FEF3FEF08C0E09159
:102C30005602F09157021583048320E030E0C90169
:102C400026960FB6F894DEBF0FBECDBFCF91DF91B1
:102C50001F910F91FF90EF900895DF93CF9300D0D5
:102C600000D0CDB7DEB7882349F080E2898388E2BF
:102C70008A8380E38B8388E38C8308C083EA93EAAA
:102C8000A3EAB3EA89839A83AB83BC838EE99AE093
:102C900064E070E0AE014F5F5F4F0E945D0A0E94EA
:102CA000960C0F900F900F900F90CF91DF91089599
:102CB000DF93CF9300D000D0CDB7DEB7882349F0A3
:102CC00080EC898382EC8A8384EC8B8386EC8C8312
:102CD00008C08BE89BE8ABE8BBE889839A83AB83A9
:102CE000BC8388E99AE064E070E0AE014F5F5F4F1B
:102CF0000E945D0A0E94960C0F900F900F900F900B
:102D0000CF91DF910895AF92BF92CF92DF92EF9271
:102D1000FF920F931F93DF93CF93CDB7DEB72A9720
:102D20000FB6F894DEBF0FBECDBF8C0182E0898361
:102D30008AEC8A8383EE8B8389E08C8388E690E03B
:102D400064E070E0AE014F5F5F4F0E945D0A83EA6E
:102D50008983B0E4AB2EB12CA022B12206FF06C0BD
:102D600080EC8A8388EC8B8382EC02C08A838B831D
:102D70008C83A0E8EA2EA1E0FA2EE022F122E114F1
:102D8000F10431F084EC8D838CEC8E8386EC03C0EF
:102D900083EA8D838E838F8383EA888789878A87F6
:102DA00087EA9AE06AE070E0AE014F5F5F4F0E94F1
:102DB0005D0AF3E0CF2ED12CC022D122C114D10460
:102DC00011F080E201C088ED898386EB9AE061E032
:102DD00070E0AE014F5F5F4F0E945D0A05FF02C0C9
:102DE00081E001C080E00E940815E114F104D9F0EF
:102DF00010FF08C082EB89838BE88A8386EB8B8384
:102E00008BE907C080EB898380E88A8384EB8B831E
:102E100080E98C8382EA9AE064E070E0AE014F5F63
:102E20005F4F0E945D0A02FF02C081E001C080E0A6
:102E30000E94581604FF02C081E001C080E00E9499
:102E40002D16E0915602F0915702C80188609783D1
:102E500086830E94960CE0915602F09157021286EA
:102E6000AB2811F086E08287EF2819F082858A5F0F
:102E7000828704711070012B19F08285805F828730
:102E8000CD2819F082858C5F828780E090E02A96B9
:102E90000FB6F894DEBF0FBECDBFCF91DF911F916B
:102EA0000F91FF90EF90DF90CF90BF90AF9008957B
:102EB00086EF9BE061ED70E040E054E028EC30E00C
:102EC0000E94450F08952F923F924F925F926F920A
:102ED0007F928F929F92AF92BF92CF92DF92EF92AA
:102EE000FF920F931F93DF93CF93CDB7DEB7649715
:102EF0000FB6F894DEBF0FBECDBF109293021092B2
:102F0000920284E992E06AE972E042E852E020E04D
:102F100030E002E912E0F0EAEF2EF2E0FF2E0E942C
:102F200004139093A2028093A102009709F0DAC2E1
:102F30008091A0028230E8F084E992E06AE972E0D0
:102F400042E852E020E030E002E912E0E0EAEE2E52
:102F5000E2E0FE2E0E9404139C019093A202809353
:102F6000A1028091A002823008F4BBC2232B21F37E
:102F7000B8C2609182027091830280918402909124
:102F800085020E94043820E030E040E850E30E94CF
:102F900010391B012C01609382027093830280938D
:102FA00084029093850260918602709187028091DD
:102FB0008802909189020E94043820E030E040E8C5
:102FC00050E30E94103969837A838B839C836093DA
:102FD00086027093870280938802909389026091A1
:102FE0008A0270918B0280918C0290918D020E94D6
:102FF000043820E030E040E850E30E9410395B01E3
:103000006C0160938A0270938B0280938C02909380
:103010008D0260918E0270918F028091900290914A
:1030200091020E94043820E030E040E850E30E9422
:1030300010396D837E838F83988760938E0270939F
:103040008F028093900290939102C601B501A60170
:1030500095010E94103969877A878B879C876093D6
:10306000A5027093A6028093A7029093A8026D8197
:103070007E818F8198859B01AC010E9410396D87FC
:103080007E878F87988B6093A9027093AA028093A2
:10309000AB029093AC02C201B101A20191010E9466
:1030A0001039698B7A8B8B8B9C8B6093AD027093FC
:1030B000AE028093AF029093B00269817A818B81D6
:1030C0009C812D813E814F8158850E9410397B0162
:1030D0008C01C201B101A60195010E9410399B012A
:1030E000AC01C801B7010E9487363B014C016093D7
:1030F000B1027093B2028093B3029093B40225EEB2
:1031000032EF4FEF5EE30E9405391816BCF4C6019A
:10311000B501A20191010E9412379B01AC010E94EE
:103120008836609362027093630280936402909386
:1031300065028BED9FE0A9ECBFE322C0C401B3019F
:1031400025EE32EF4FEF5EEB0E94653788236CF57A
:10315000C601B501A20191010E94123720E030E0C2
:1031600040E050EC0E941039609362027093630259
:1031700080936402909365028BED9FE0A9ECBFEB16
:1031800080935E0290935F02A0936002B09361020D
:1031900080E090E0A0E0B0E080935A0290935B0260
:1031A000A0935C02B0935D0294C069817A818B81A7
:1031B0009C81A20191010E9410397B018C01C60102
:1031C000B5012D813E814F8158850E9410399B01A8
:1031D000AC01C801B7010E9488369B01AC010E9476
:1031E00088367B018C016D857E858F85988929893C
:1031F0003A894B895C890E94883620E030E040E0C3
:1032000050EC0E94103920E030E040E85FE30E947B
:1032100088369B01AC01C801B7010E941237609348
:103220006202709363028093640290936502C4010A
:10323000B301A40193010E9488360E94EC3660938A
:103240005E0270935F0280936002909361026981D5
:103250007A818B819C81A60195010E9410397B01A6
:103260008C016D817E818F819885A20191010E94E0
:1032700010399B01AC01C801B7010E9487369B0140
:10328000AC010E9488367B018C0169857A858B852B
:103290009C852D853E854F8558890E94883620E083
:1032A00030E040E050EC0E94103920E030E040E88F
:1032B0005FE30E9488369B01AC01C801B7010E9400
:1032C000123760935A0270935B0280935C02909372
:1032D0005D0260915A0270915B0280915C02909154
:1032E0005D0221EE3EE245E652E40E94103990581C
:1032F00060935A0270935B0280935C0290935D022C
:1033000060915E0270915F02809160029091610213
:1033100021EE3EE245E652E40E9410399058609357
:103320005E0270935F0280936002909361026091ED
:10333000620270916302809164029091650221EEB5
:103340003EE245E652E40E9410395B016C0120E048
:1033500030E044E353E40E9488367B018C0120E096
:1033600030E044E353E40E940539181654F4C601D2
:10337000B50120E030E044E353E40E9487367B014E
:103380008C01D801C701B058809362029093630208
:10339000A0936402B09365026091980270919902C3
:1033A000882777FD8095982F0E94043820E030E030
:1033B00043E851E40E9469376093660270936702A4
:1033C00080936802909369026091960270919702CF
:1033D000882777FD8095982F0E94043820E030E000
:1033E00043E851E40E94693760936A0270936B026C
:1033F00080936C0290936D0260919402709195029B
:10340000882777FD8095982F0E94043820E030E0CF
:1034100043E851E40E94693760936E0270936F0233
:10342000809370029093710260919A0270919B0256
:10343000882777FD8095982F0E94043820E030E09F
:1034400040E858E30E94103960937202709373024F
:10345000809374029093750260919C0270919D021A
:10346000882777FD8095982F0E94043820E030E06F
:1034700040E858E30E941039609376027093770217
:10348000809378029093790260919E0270919F02DE
:10349000882777FD8095982F0E94043820E030E03F
:1034A00040E858E30E94103920917E0230917F025B
:1034B00040918002509181020E94873660937A0287
:1034C00070937B0280937C0290937D028091A30293
:1034D0009091A40201969093A4028093A30280E0AD
:1034E00001C081E864960FB6F894DEBF0FBECDBF71
:1034F000CF91DF911F910F91FF90EF90DF90CF90D0
:10350000BF90AF909F908F907F906F905F904F9003
:103510003F902F9008950E94960C08950F931F934B
:10352000CF93DF93EB018A017093B6026093B502EB
:103530001092A4021092A3020E94F6080E9443096E
:1035400080E090E0A0E0B0E080937E0290937F0264
:10355000A0938002B093810280E090E00E94C711A6
:103560009093A2028093A102009711F0865F77C02A
:1035700088E70E94130C9093A2028093A102009707
:1035800011F08C5E6CC080ED97E00E94B20B9093BE
:10359000A2028093A102009711F0825E60C082E0D7
:1035A0000E94590B9093A2028093A102009711F000
:1035B000885D55C081EA92E00E94090A8091A102CB
:1035C0009091A202892B11F48CE349C088E70E94F4
:1035D000CE0D9093A2028093A102009711F08A5B16
:1035E0003EC080E090E00E94D5120E94F4120E943A
:1035F00058179093A2028093A102009711F0805B6C
:103600002EC0C8010E947F159093A2028093A10250
:10361000009711F0865A23C0CE010E943A1590936C
:10362000A2028093A102009711F08C5918C081E08A
:103630000E94BA109093A2028093A102009711F009
:1036400082590DC080E791E00E9483169093A202F8
:103650008093A102009711F480E001C08858DF91A7
:10366000CF911F910F910895FC0180E090E0A0E0C0
:10367000B0E080879187A287B38784839583A683F0
:10368000B78380839183A283B383808F918FA28F2E
:10369000B38F848B958BA68BB78B848F958FA68FDA
:1036A000B78F84A395A3A6A3B7A380A391A3A2A336
:1036B000B3A384879587A687B787808B918BA28BCE
:1036C000B38B80E090E0089520E030E040E050E0EF
:1036D000FC01248735874687578708952F923F92AC
:1036E0004F925F926F927F928F929F92AF92BF9212
:1036F000CF92DF92EF92FF920F931F93CF93DF93BE
:10370000EC013A014B0118012901CB01BA012C81CE
:103710003D814E815F810E941039A20191010E947A
:1037200010392C853D854E855F850E9488365B016A
:103730006C016C877D878E879F87E88CF98C0A8D5A
:103740001B8DA80197010E940539181664F017FB1C
:10375000109517F91095C601B501A80197010E94AF
:103760006537882324F4EC86FD860E871F8768A1C1
:1037700079A18AA19BA1A20191010E9469379B01B5
:10378000AC01C401B3010E948736688B798B8A8BA8
:103790009B8BECA0FDA00EA11FA1A80197010E9488
:1037A000873621EB30E945EC5EE30E9410399B013E
:1037B000AC01C801B7010E9488365B016C01688BBF
:1037C000798B8A8B9B8BC401B301288139814A8113
:1037D0005B810E9410392C853D854E855F850E9456
:1037E00088367B018C01C601B501288539854A855B
:1037F0005B850E9410399B01AC01C801B7010E9492
:1038000087366C8F7D8F8E8F9F8FEC88FD880E8919
:103810001F89A80197010E940539181624F4EC8E1F
:10382000FD8E0E8F1F8F8C899D89AE89BF897C018B
:103830008D0117FB109517F910956C8D7D8D8E8D70
:103840009F8DA80197010E946537882324F4EC8E90
:10385000FD8E0E8F1F8F68A279A28AA29BA28889F3
:103860009989AA89BB898CA39DA3AEA3BFA3DF912D
:10387000CF911F910F91FF90EF90DF90CF90BF906D
:10388000AF909F908F907F906F905F904F903F9000
:103890002F9008958091B7029091B80253E09595CA
:1038A00087955A95E1F790938900809388008091DD
:1038B000B9029091BA0243E0959587954A95E1F750
:1038C0008093B4008091BB029091BC0233E0959547
:1038D00087953A95E1F78093C2028091BD0290915D
:1038E000BE0223E0959587952A95E1F78093C00263
:1038F0008091C20280958093C1028091C002809520
:103900008093BF0208951F920F920FB60F92112459
:103910008F939F938091C402882359F48091C002B1
:1039200081115D9A88B59091C002980F98BD81E091
:1039300008C0813049F488B59091C002980F98BDB5
:1039400082E08093C40213C0823041F45D9888B550
:103950009091BF02980F98BD83E0F3CF833039F484
:1039600098B58091BF02890F88BD1092C4029F91C3
:103970008F910F900FBE0F901F9018951F920F926E
:103980000FB60F9211248F939F938091C3028823C7
:1039900059F48091C20281115E9A87B59091C2025A
:1039A000980F97BD81E008C0813049F487B59091A8
:1039B000C202980F97BD82E08093C30213C0823089
:1039C00041F45E9887B59091C102980F97BD83E04E
:1039D000F3CF833039F497B58091C102890F87BD49
:1039E0001092C3029F918F910F900FBE0F901F9066
:1039F00018958091020161E00E943D33809103019E
:103A000061E00E943D338091040161E00E943D33FA
:103A10008091050161E00E943D33E0E8F0E08081A3
:103A200080688083E0EBF0E080818062808314BC5A
:103A3000EEE6F0E080818460808380818260808314
:103A40000895AC018091EA0290E0860F911D809765
:103A50000CF03DC0FA01762F30E0ACE80DC02081BB
:103A600098E0822F8327369580FD3A27915011F0F8
:103A70002695F7CF31967150772389F7FA01E60F33
:103A8000F11D30836F5FDA0120E030E21EC08091CB
:103A9000E902803210F01092E9029091E902E92FD8
:103AA000F0E0E551FD4F8C9180839F5F9093E90298
:103AB0008091EA028F5F8093EA028091EA0281326C
:103AC00010F03093EA022F5F1196261700F3089545
:103AD000CF93DF93EC018091C802843008F449C091
:103AE000DE0120E08091C8028823E9F09091C702AE
:103AF0008091C802981738F48091C802E091C702FB
:103B0000F0E0B09605C0E091C7028091C802F0E0F5
:103B1000E81BF109E753FD4F80818C938091C80227
:103B200081508093C8022F5F11962430D9F6FE0190
:103B300030E043E05CE80CC0208198E0822F8327CE
:103B4000369580FD3527915011F02695F7CF3196A7
:103B5000415090F78B81381719F420E030E00BC00A
:103B60008091C5028F5F8093C5021092C7021092A8
:103B7000C8022FEF3FEFC901DF91CF9108951F9247
:103B80000F920FB60F9211242F938F939F93EF9361
:103B9000FF932EB58091EA028823F1F09091E9021B
:103BA0008091EA02981738F48091EA02E091E902E4
:103BB000F0E0B09605C0E091E9028091EA02F0E001
:103BC000E81BF109E551FD4F80818EBD8091EA022D
:103BD00081508093EA0201C01EBC8091C7028032EE
:103BE00010F01092C7028091C702E82FF0E0E7536F
:103BF000FD4F20838F5F8093C7028091C8028F5F43
:103C00008093C8028091C802813218F080E28093CC
:103C1000C802FF91EF919F918F912F910F900FBE4E
:103C20000F901F9018958093E6046093E7047093BB
:103C3000E80486EE94E063E00E94211D08956091FF
:103C4000CF047091D0048091D1049091D2040E944D
:103C5000D1379B01AC0182E1B9010E94131E609132
:103C6000A9047091AA048091AB049091AC040E94C5
:103C7000D1379B01AC0183E1B9010E94131E609111
:103C8000AD047091AE048091AF049091B0040E9495
:103C9000D1379B01AC0184E1B9010E94131E6091F0
:103CA00024047091250480912604909127040E9499
:103CB000D1379B01AC0185E1B9010E94131E089523
:103CC000BF92CF92DF92EF92FF920F931F93CF9309
:103CD000DF93BB2438C0CB2CDD24F601EE0FFF1F91
:103CE000EE0FFF1FEE58FD4FE080F180028113813F
:103CF000E601CC0FDD1FCC0FDD1FC95FDA4FC80115
:103D0000B701288139814A815B810E946537882308
:103D100024F4E882F9820A831B83E601CC0FDD1FBD
:103D2000CC0FDD1FCD5EDA4FC801B7012881398184
:103D30004A815B810E940539181624F4E882F982D1
:103D40000A831B83B39482E08B1528F6B092E104BA
:103D50008091DC0464E10E94FA399923F1F5109214
:103D6000E1040F2EF0E0CF2EF0E0DF2EF0E0EF2E9A
:103D7000F0E0FF2EF02D2CC01E2F145FF0E0EE0FB0
:103D8000FF1FEE0FFF1FED5EFA4F60817181828190
:103D9000938120E030E04AE754E40E9410390E9409
:103DA000D1379B01AC01812FB9010E94131E809174
:103DB000E104E82FF0E0EE0FFF1FEE0FFF1FED5EB6
:103DC000FA4FC082D182E282F3828F5F8093E10456
:103DD000E091E104E33080F23FC09A30E9F51092BF
:103DE000E1040F2EF0E0CF2EF0E0DF2EF0E0EF2E1A
:103DF000F0E0FF2EF02D2CC01E2F115FF0E0EE0F33
:103E0000FF1FEE0FFF1FE95FFA4F60817181828112
:103E1000938120E030E04AE754E40E9410390E9488
:103E2000D1379B01AC01812FB9010E94131E8091F3
:103E3000E104E82FF0E0EE0FFF1FEE0FFF1FE95F38
:103E4000FA4FC082D182E282F3828F5F8093E104D5
:103E5000E091E104E33080F2DF91CF911F910F9167
:103E6000FF90EF90DF90CF90BF9008951F93109236
:103E7000E10420C01E2F1F5FF0E0EE0FFF1FEE0FCA
:103E8000FF1FEA59FD4F608171818281938120E09B
:103E900030E048EC52E40E9410390E94D1379B0177
:103EA000AC01812FB9010E94131E8091E1048F5F44
:103EB0008093E104E091E104E330E0F21F91089582
:103EC0001F931092E10420C01E2F1C5FF0E0EE0F44
:103ED000FF1FEE0FFF1FE65AFD4F60817181828147
:103EE000938120E030E048EC52E40E9410390E94B7
:103EF000D1379B01AC01812FB9010E94131E809123
:103F0000E1048F5F8093E104E091E104E330E0F2AB
:103F10006091E2047091E3048091E4049091E504DF
:103F200020E030E048EC52E40E9410390E94D13782
:103F30009B01AC0187E0B9010E94131E1F910895F7
:103F40001092E1041BC0E0910601F0E0892F880F78
:103F500002C0F595E7958A95E2F7E370F070EE0FF1
:103F6000FF1FE954FD4F60817181892F885F0E9496
:103F7000131E8091E1048F5F8093E1049091E1042E
:103F8000943008F308958091E0048330C9F08430C0
:103F900028F4813041F08230B9F508C08430E1F076
:103FA000853091F523C00E94601E08958091DC0445
:103FB00064E10E94FA39992351F40E94361F089552
:103FC0008091DC0464E10E94FA399923B1F09A30BF
:103FD000D9F40E94A01F08958091DC0464E10E943E
:103FE000FA39992389F40E941F1E08958091DC04F8
:103FF00064E10E94FA39992319F40E94601F089520
:104000009A3011F40E941F1E0895FC0181818823BB
:1040100021F470E060E090E032C090818181A38162
:10402000B481981748F431812081828190E0820F19
:10403000911D831B910905C08081218190E0821B25
:104040009109880F991F880F991FA80FB91F8D918B
:104050009D910D90BC91A02D8093DA059093DB0586
:10406000A093DC05B093DD0581818150818370913F
:10407000DA056091DB059091DC058091DD05272F45
:10408000362F492F582FB901CA0108951092DF0425
:104090001092EF041092EE041092ED041092EC04D2
:1040A0001092EB041092EA048091D3048823E1F487
:1040B0008091DD048530C1F42091F0043091F10449
:1040C0008091100390911103821793076CF40E9462
:1040D0009B326093D4047093D5048093D60490935C
:1040E000D70481E08093D30408951092CE042091E8
:1040F0000E0330910F033093F1042093F00480E01D
:1041000009C0E82FF0E0EE0FFF1FE954FD4F3183A7
:1041100020838F5F8430A8F38093E1040E944A1CBF
:104120000895DF92EF92FF920F931F939091D30423
:10413000992309F40EC1913031F51092010582E006
:104140008093D3049093CE048091A9049091AA0403
:10415000A091AB04B091AC048093FD049093FE0455
:10416000A093FF04B09300051092EF041092EE04A8
:104170001092ED041092EC041092EB041092EA04F9
:104180001092DF04E6C00E949B322091D40430914B
:10419000D5044091D6045091D704621B730B840B55
:1041A000950B20910C0130910D0140910E01509121
:1041B0000F01621773078407950738F08CEF80931F
:1041C000DD040E9475208FEFC5C00E949B322091B4
:1041D000D4043091D5044091D6045091D704621B89
:1041E000730B840B950B605D77408040904008F422
:1041F000B0C06091AD047091AE048091AF04909115
:10420000B00420E030E040EF51EC0E940539181670
:104210008CF42091F0043091F1048091100390917E
:1042200011032817390734F4809101058F5F8093BB
:10423000010502C01092010580910105883C38F00B
:104240000E9475208EEF8093DD0481E083C0E090B2
:10425000A904F090AA040091AB041091AC04C80129
:10426000B70120E030E04AEF53E40E940539181608
:104270001CF072E3D72E0FC0C801B70120E030E870
:104280004BEB54E40E94053918161CF064E6D62E58
:1042900002C056E9D52E6D2D772767FD7095872FC3
:1042A000972F0E9404382091080130910901409114
:1042B0000A0150910B010E9410399B01AC016091E1
:1042C000FD047091FE048091FF04909100050E940E
:1042D00087367B018C016093FD047093FE0480930C
:1042E000FF0490930005D1946D2D772767FD70959D
:1042F000872F972F0E9404386093B9047093BA04F3
:104300008093BB049093BC04C801B7010E94D137CD
:10431000772767FD7095872F972F0E940438609349
:10432000CF047093D0048093D1049093D2048091F1
:10433000CE04882321F082E08093CE040AC010923C
:10434000D30480910E0390910F039093F104809316
:10435000F00480E01F910F91FF90EF90DF9008959F
:10436000AF92BF92CF92DF92EF92FF920F931F9383
:104370008091DF04882309F019C1E0905E02F0907B
:104380005F020091600210916102C801B70120E054
:1043900030E040E050E00E94053918165CF4C80196
:1043A000B70120E030E040E752E40E94053987FF82
:1043B00032C00AC0C801B70120E030E040E752EC4B
:1043C0000E94653718163CF5E0906202F090630297
:1043D0000091640210916502C801B70120E030E04D
:1043E00040E050E00E94053918165CF4C801B7019E
:1043F00020E030E040E752E40E94053918165CF0F6
:1044000010C0C801B70120E030E040E752EC0E9444
:104410006537882334F4809106058F5F8093060505
:1044200002C01092060580910605813089F48091C2
:10443000A9049091AA04A091AB04B091AC0480931C
:10444000020590930305A0930405B093050533C0BE
:104450006091A9047091AA048091AB049091AC047E
:104460002091020530910305409104055091050506
:104470000E9487367B018C0120E030E040E050E074
:104480000E94053918165CF4C801B70120E030E03D
:1044900048E452E40E94053918165CF00CC0C801CB
:1044A000B70120E030E048E452EC0E9465378823F1
:1044B00014F410920605A090D804B090D904C090CE
:1044C000DA04D090DB04C601B50120E030E040E022
:1044D00050E00E94053918160CF05DC0E0907202A1
:1044E000F09073020091740210917502C801B70137
:1044F00020E030E040E050E00E940539181624F03A
:1045000017FB109517F91095C801B701A601950181
:104510000E9405391816E4F1E0907602F0907702D7
:104520000091780210917902C801B70120E030E0D3
:1045300040E050E00E940539181624F017FB109552
:1045400017F91095C801B701A60195010E94053918
:104550001816F4F0E0907A02F0907B0200917C0251
:1045600010917D02C801B70120E030E040E050E04A
:104570000E940539181624F017FB109517F91095AD
:10458000C801B701A60195010E94053918161CF44F
:1045900088EC8093060580910605883C38F08BEF07
:1045A0008093DD040E94752081E001C080E01F91AE
:1045B0000F91FF90EF90DF90CF90BF90AF90089554
:1045C0006F927F928F929F92AF92BF92CF92DF9223
:1045D000EF92FF920F931F938091F6049091F7044E
:1045E00001969093F7048093F604895E9D4F20F026
:1045F0008FEF8093DD04B2C00E946317282F9927A4
:1046000087FD909590930C0380930B038130910567
:1046100009F4A3C097FF06C08DEF8093DD042093BB
:10462000DE049BC01091F804183CF8F41431D0F06B
:104630006091F9047091FA048091FB049091FC045C
:1046400020917A0230917B0240917C0250917D0250
:104650000E9488366093F9047093FA048093FB04F7
:104660009093FC041F5F1093F804609066027090B2
:1046700067028090680290906902C401B30120E053
:1046800030E040E85FEB0E94053918160CF065C079
:10469000A0906A02B0906B02C0906C02D0906D0244
:1046A000C601B50120E030E040E85FEB0E9405392B
:1046B00018160CF052C0E0906E02F0906F0200915C
:1046C000700210917102C801B70120E030E040E8AB
:1046D0005FEB0E94053918160CF03FC0C401B3010E
:1046E00020E030E040E85FE30E9465378823ACF5C6
:1046F000C601B50120E030E040E85FE30E94653785
:1047000088235CF5C801B70120E030E040E85FE3B2
:104710000E94653788230CF56091F80470E06451BD
:104720007040882777FD8095982F0E9404389B0160
:10473000AC016091F9047091FA048091FB049091AE
:10474000FC040E94693760937E0270937F0280931D
:1047500080029093810280E001C08FEF1F910F9142
:10476000FF90EF90DF90CF90BF90AF909F908F9091
:104770007F906F9008952F923F924F925F926F9229
:104780007F928F929F92AF92BF92CF92DF92EF92E1
:10479000FF920F931F93DF93CF93CDB7DEB72D9783
:1047A0000FB6F894DEBF0FBECDBF0E9463179927E6
:1047B00087FD909590930C0380930B0381309105B6
:1047C00009F401C697FF11C08091C6028F5F8093E4
:1047D000C6028B3060F00E9475208DEF8093DD045F
:1047E00080910B038093DE04EEC51092C602809187
:1047F000DC048F5F8093DC04883C11F41092DC04AD
:104800000E949B322091F204621B6093070170E0CA
:1048100080E090E00E94023820E030E04AE754E473
:104820000E946937609308017093090180930A011F
:1048300090930B010E949B326093F2047093F304F7
:104840008093F4049093F504809107018B3028F055
:1048500081E08093DE040E9446200E94B0218823DC
:1048600009F0B1C50E949120882309F0ACC5809160
:10487000CD04882309F4BCC281508093CD04E0901C
:104880007A02F0907B0200917C0210917D02C801B7
:10489000B70120E030E040E85FEB0E9465378823F5
:1048A0002CF430E020E885E764EC1AC0C801B701B9
:1048B00020E030E040E85FE30E94053918162CF450
:1048C00030E020E885E764E40BC0C801B70120E0D0
:1048D00030E845E754E40E941039362F272F692F1E
:1048E0003A872B878C876D87832F922FAC85B62FC5
:1048F0008093890490938A04A0938B04B0938C04D2
:10490000A0900801B0900901C0900A01D0900B015D
:104910006091A1047091A2048091A3049091A404D9
:104920002091C9043091CA044091CB045091CC0429
:104930000E941039A60195010E9410399B01AC011B
:1049400060919104709192048091930490919404E9
:104950000E9488367B018C016093910470939204CD
:1049600080939304909394046091A1047091A204A5
:104970008091A3049091A4042091C5043091C604B1
:104980004091C7045091C8040E941039A6019501B6
:104990000E9410399B01AC016091AD047091AE048E
:1049A0008091AF049091B0040E9488361B012C01C5
:1049B0006091A1047091A2048091A3049091A40439
:1049C0002091C1043091C2044091C3045091C404A9
:1049D0000E941039A60195010E9410399B01AC017B
:1049E0006091950470919604809197049091980439
:1049F0000E9488363B014C016093950470939604A5
:104A000080939704909398046A857B858C859D8517
:104A1000A80197010E948836A60195010E941039CD
:104A20007B018C016093990470939A0480939B049A
:104A300090939C0420E030E040E05FE30E94103956
:104A4000A20191010E948836A60195010E941039A9
:104A50002091A5043091A6044091A7045091A80488
:104A60000E9488365B016C016093A5047093A604D4
:104A70008093A7049093A804A40193010E94883610
:104A80006093A9047093AA048093AB049093AC0440
:104A9000C201B101A80197010E9488366093AD045C
:104AA0007093AE048093AF049093B004909180040F
:104AB00080918204981711F4109280042091800450
:104AC000822F90E0880F991F880F991FE09183042F
:104AD000F0918404E80FF91FA082B182C282D382D0
:104AE0002F5F209380049091810480918204981715
:104AF00028F4809181048F5F809381046091CF04BA
:104B00007091D0048091D1049091D2042091A90495
:104B10003091AA044091AB045091AC040E948736B6
:104B20005B016C016093B1047093B2048093B30491
:104B30009093B404E0903004F0903104009132047A
:104B400010913304C801B701A80197010E9488366B
:104B5000A80197010E9410399B01AC0160E070E050
:104B60008AE793E40E9469377B018C016093850496
:104B7000709386048093870490938804A80197011A
:104B80000E9488369B01AC01C601B5010E9405391F
:104B900018167CF4C601B501A80197010E9487365A
:104BA00020E030E04AEF53E40E9410390E94773948
:104BB00020C0C801B70120E030E040E050EC0E9486
:104BC00010399B01AC01C601B5010E9465378823ED
:104BD000CCF4C601B5019058A80197010E94873610
:104BE00020E030E04AEF53E40E9410390E94773908
:104BF00090586093B5047093B6048093B704909373
:104C0000B8041EC0009108011091090120910A0109
:104C100030910B0180E394E0B601A5010E946E1B68
:104C200080914C0490914D04A0914E04B0914F049A
:104C30008093B5049093B604A093B704B093B804DE
:104C40008091CE04823081F48091B9049091BA04AD
:104C5000A091BB04B091BC048093B5049093B604BA
:104C6000A093B704B093B804E0909D04F0909E0424
:104C700000919F041091A0046091B5047091B60456
:104C80008091B7049091B8042091AD043091AE04A6
:104C90004091AF045091B0040E948736A80197015B
:104CA0000E94873624EE30EA44EE5DE30E9410391C
:104CB0009B01AC01C801B7010E948836AB01BC0161
:104CC000CA01DB0180939D0490939E04A0939F04EE
:104CD000B093A004009108011091090120910A01EC
:104CE00030910B0188E594E00E946E1BE0908D04EA
:104CF000F0908E0400918F041091900460917404E0
:104D000070917504809176049091770420918904C4
:104D100030918A0440918B0450918C040E94873614
:104D2000A80197010E9487362BEA34E242E75DE34F
:104D30000E9410399B01AC01C801B7010E9488365E
:104D4000AB01BC01CA01DB0180938D0490938E04FA
:104D5000A0938F04B0939004009108011091090171
:104D600020910A0130910B0188E094E00E946E1BB3
:104D70008091CE048823D9F06091120370911303BF
:104D8000882777FD8095982F0E940438209124046D
:104D90003091250440912604509127040E948836C2
:104DA0000E94D1377093F1046093F0042AC080E32D
:104DB00094E00E94641B88E594E00E94641B88E0F4
:104DC00094E00E94641B80E090E0A0E0B0E080935B
:104DD0008D0490938E04A0938F04B09390048093DD
:104DE0009D0490939E04A0939F04B093A00409C0D7
:104DF0008091CE04882319F082E08093DE04109223
:104E0000CE04E0906202F09063020091640210917F
:104E10006502C801B70120E030E040E050E00E94A8
:104E2000053918165CF4C801B70120E030E048E409
:104E300052E40E94053918165CF01AC0C801B70187
:104E400020E030E048E452EC0E946537882384F487
:104E500080915A0290915B02A0915C02B0915D0238
:104E60008093E2049093E304A093E404B093E504F8
:104E7000E0905E02F0905F0200916002109161028A
:104E8000C801B70120E030E040E050E00E94053961
:104E900018165CF4C801B70120E030E048E452E4A1
:104EA0000E94053918165CF01AC0C801B70120E04D
:104EB00030E048E452EC0E946537882384F4809106
:104EC0005A0290915B02A0915C02B0915D028093C6
:104ED000E2049093E304A093E404B093E504E0902B
:104EE000E204F090E3040091E4041091E504C801A9
:104EF000B70120915A0230915B0240915C025091BF
:104F00005D020E94873620E030E044E353EC0E94CB
:104F1000653788235CF4D801C701B0588093E20458
:104F20009093E304A093E404B093E504E090E204DA
:104F3000F090E3040091E4041091E504C801B70186
:104F400020915A0230915B0240915C0250915D02C7
:104F50000E94873620E030E044E353E40E940539A4
:104F600018165CF4D801C701B0588093E2049093FE
:104F7000E304A093E404B093E5042091EA043091A3
:104F8000EB04B90137FF04C066277727621B730B58
:104F900066307105D4F1C9010E941A3A8BEF9FEF78
:104FA000AB01489FB001499F700D589F700D1124AF
:104FB000620F731F882777FD8095982F0E94043811
:104FC0009B01AC016091040470910504809106047A
:104FD000909107040E9410396093A8037093A9036D
:104FE0008093AA039093AB0380915A0290915B0245
:104FF000A0915C02B0915D028093E2049093E3047F
:10500000A093E404B093E50420C06091E2047091A1
:10501000E3048091E4049091E50420915A023091D8
:105020005B0240915C0250915D020E948736AB01A9
:10503000BC01009108011091090120910A013091F1
:105040000B018CE893E00E946E1B8091DF048823A3
:1050500009F042C081E08093E104A8E2CA2ED12C7D
:1050600036C010E00C9D70010D9DF00C1C9DF00CE5
:1050700011248CE893E0E80EF91E000F111FF801CF
:10508000E651FB4F60817181882777FD8095982FCD
:105090000E940438000F111F065A1D4FD8012D9190
:1050A0003D914D915C910E948736AB01BC0100910E
:1050B00008011091090120910A0130910B01C701EB
:1050C0000E946E1B8091E1048F5F8093E104009148
:1050D000E104033030F240C08130F1F58093E10407
:1050E00058E2C52ED12C34C0F0E0EC9D7001ED9D4E
:1050F000F00CFC9DF00C11244CE853E0E40EF51E7E
:10510000EE0FFF1FE651FB4F60817181882777FD0D
:105110008095982F0E940438209104043091050452
:1051200040910604509107040E941039AB01BC0164
:10513000009108011091090120910A0130910B01A1
:10514000C7010E946E1B8091E1048F5F8093E10490
:10515000E091E104E33040F21092E10438E2C32E22
:10516000D12C34C0F0E0EC9DD001ED9DB00DFC9D44
:10517000B00D112424E1E22E23E0F22EEA0EFB1EF4
:10518000A457BC4FEE0FFF1FEE0FFF1FEA59FD4F54
:105190005C966D917D918D919C915F97208131817D
:1051A000428153810E948736AB01BC010091080106
:1051B0001091090120910A0130910B01C7010E9451
:1051C0006E1B8091E1048F5F8093E104E091E10424
:1051D000E33040F2509106015987E52EFF2460919B
:1051E000F0047091F104882777FD8095982F0E9434
:1051F00004386D837E838F8398878091800390919C
:105200008103A0918203B091830389839A83AB8346
:10521000BC836D817E818F81988529813A814B8104
:105220005C810E9488361B012C01A0905803B0902D
:105230005903C0905A03D0905B0360903003709084
:105240003103809032039090330387010370107014
:10525000000F111F09541D4FC201B101A601950194
:105260000E948736A40193010E9488360E94D1379C
:10527000D8016D937C93F694E794870106701070C3
:1052800009541D4FC201B101A60195010E94883643
:10529000A40193010E9487360E94D137F8017183DF
:1052A00060836D817E818F81988529813A814B81D0
:1052B0005C810E9487361B012C01F694E794F694DA
:1052C000E794F6E0EF22FF2447EB52E0E40EF51EF0
:1052D000A60195010E948736A40193010E9487369A
:1052E0000E94D137D7016D937C93B985B295B6955D
:1052F000B695B3700B2F10E0000F111F09541D4F0E
:10530000C201B101A60195010E948836A401930152
:105310000E9488360E94D137F801718360830E9411
:10532000C31F20911003309111038091F0049091DC
:10533000F1048217930784F50E94752080915A0228
:1053400090915B02A0915C02B0915D028093E204B7
:105350009093E304A093E404B093E5041092E10475
:1053600018E215C0819FC00111248C5E9C4F0E94E1
:10537000641B8091E104819FC001112484579C4FDC
:105380000E94641B8091E1048F5F8093E10480910F
:10539000E104833038F317C040E00FC0E42FF0E0A1
:1053A000EE0FFF1FE954FD4F808191818217930713
:1053B0000CF4C901918380834F5F443078F34093AC
:1053C000E1040E944A1C2D960FB6F894DEBF0FBE72
:1053D000CDBFCF91DF911F910F91FF90EF90DF90A4
:1053E000CF90BF90AF909F908F907F906F905F9085
:1053F0004F903F902F90089580E00E9482368CE07D
:1054000061E00E943D338CB580648CBD8CB58068B2
:105410008CBD08951F931092E10418E215C0819F7E
:10542000C00111248C5E9C4F0E94341B8091E104CA
:10543000819FC001112484579C4F0E94341B80918E
:10544000E1048F5F8093E1048091E104833038F3BD
:1054500088E094E00E94341B88E594E00E94341BAD
:1054600080E394E00E94341B1092810480918104B7
:10547000809380048FE0809382048CE390E00E940C
:105480007C33809383049093840480E090E0A0ECCC
:10549000B0E48093BD049093BE04A093BF04B09386
:1054A000C00480E090E0A0E0BFE38093C10490934B
:1054B000C204A093C304B093C40480E595E5A5E5B8
:1054C000BFE38093C5049093C604A093C704B09330
:1054D000C8048EED9EEAA7E9BBE38093C9049093CC
:1054E000CA04A093CB04B093CC0480E090E0A0E089
:1054F000B0E08093E2049093E304A093E404B093BB
:10550000E5041092DC041092DD041092DF04109286
:10551000E0041092C5021092C6021092CE0480934D
:10552000CF049093D004A093D104B093D20480937D
:10553000890490938A04A0938B04B0938C04809385
:105540008D0490938E04A0938F04B0939004809365
:10555000910490939204A0939304B0939404809345
:10556000950490939604A0939704B0939804809325
:10557000990490939A04A0939B04B0939C04809305
:10558000A1049093A204A093A304B093A4048093D5
:10559000A5049093A604A093A704B093A8048093B5
:1055A000A9049093AA04A093AB04B093AC04809395
:1055B000AD049093AE04A093AF04B093B0041F91D8
:1055C00008950E94F91C6CE271E080E090E00E9476
:1055D000A9320E9475200895AF92BF92CF92DF92B8
:1055E000EF92FF920F931F93CF93DF938091D20599
:1055F0008823A1F482ED95E00E944A36892B71F050
:105600000E949B326093E2057093E3058093E4056A
:105610009093E50582ED95E00E9454360E949B32FE
:105620002091E2053091E3054091E4055091E505B4
:10563000621B730B840B950B655C79408040904036
:1056400010F00E94462086EE94E00E94681D892B8F
:1056500009F0BAC63091E6049091E80480E0209108
:10566000E704C22FD0E0C82BD92B3E3509F4D6C3AE
:105670003F3508F07EC0343109F43EC23531B8F50B
:105680003B3009F422C13C30C8F4353009F40FC175
:10569000363050F4333009F4F4C0343008F004C12B
:1056A000323009F091C6EAC0393009F406C13A3007
:1056B00008F006C1363009F087C6FCC03F3009F457
:1056C000A4C1303138F43D3009F409C13E3008F04E
:1056D00015C100C1313109F400C2313108F4A0C153
:1056E000323109F4FFC1333109F06EC600C23035E2
:1056F00009F4F0C23135E0F4363409F489C23734A4
:1057000050F4393109F42BC2353409F42BC2353148
:1057100009F05AC60EC2383409F49AC2383408F473
:1057200087C2393409F4AAC23A3409F04DC6BCC262
:10573000343509F411C3353560F4323509F4E5C266
:10574000BE01882777FD8095982F333508F0F3C286
:10575000D1C23B3509F426C33C3520F43A3509F073
:1057600033C610C33C3509F42DC33D3509F02CC6B2
:105770003FC3393C09F4B4C43A3C08F040C0313767
:1057800009F4FAC33237F8F4373609F493C33836DC
:1057900050F4353609F468C3363608F075C334362C
:1057A00009F012C651C33E3609F4B0C33F3620F4A7
:1057B000383609F009C694C33F3609F4B7C3303709
:1057C00009F002C6C3C33A3709F422C43B3750F488
:1057D000383709F4FDC3393708F00AC4323709F005
:1057E000F3C5E0C33C3709F43FC43C3708F426C492
:1057F000323809F44FC4383C09F0E6C561C43C3D79
:1058000009F422C53D3DE0F4323D09F4BBC4333D0B
:1058100050F43B3C09F48AC43B3C08F471C43C3C62
:1058200009F0D2C599C4343D09F4CCC4343D08F420
:10583000B9C4353D09F4DCC4363D09F0C5C5EEC434
:10584000303E09F443C5313E60F43E3D09F417C5CE
:10585000BE01882777FD8095982F3F3D08F025C52C
:1058600003C53E3F38F43A3F08F046C5343F09F0DF
:10587000ABC55BC53F3F09F0A7C55AC5C093E0045F
:10588000A3C5C093DF0480915A0290915B02A0915E
:105890005C02B0915D028093E2049093E304A093D4
:1058A000E404B093E50490C5C09310018DC5C09386
:1058B00006018AC50E94E12A87C5C0930D0384C5ED
:1058C000D093EB04C093EA047FC5D093ED04C0935A
:1058D000EC047AC5D093EF04C093EE0475C50E9422
:1058E0009B326093E2057093E3058093E405909307
:1058F000E505D093F104C093F00466C58091CE0411
:10590000882399F1BE01882777FD8095982F0E9402
:1059100004389B01AC016091A9047091AA048091A4
:10592000AB049091AC040E9487367B018C0120E08F
:1059300030E040E050E00E940539181664F4C801D8
:10594000B70120E030E04AE754E40E940539181618
:105950000CF43AC50AC0C801B70120E030E04AE7BC
:1059600054EC0E94653787FD2FC588EC8093CD04E9
:105970009091810480918204891769F480E894E011
:105980000E9405206093DE057093DF058093E0059B
:105990009093E10510C08091A5049091A604A09178
:1059A000A704B091A8048093DE059093DF05A0932F
:1059B000E005B093E105BE01882777FD8095982F1B
:1059C0000E9404387B018C016091DE057091DF0537
:1059D0008091E0059091E105209195043091960425
:1059E00040919704509198040E9488369B01AC0125
:1059F000C801B7010E9487366093A1047093A20486
:105A00008093A3049093A404DFC4C093CE04809138
:105A1000A9049091AA04A091AB04B091AC0454C025
:105A200043E0C93ED4076CF06091CF047091D0047C
:105A30008091D1049091D20420E030E04AE754E410
:105A400024C05CEFC831D5077CF46091CF0470911D
:105A5000D0048091D1049091D20420E030E04AE754
:105A600054E40E94873613C0BE01882777FD8095D5
:105A7000982F0E9404389B01AC016091CF04709173
:105A8000D0048091D1049091D2040E948836609312
:105A9000CF047093D0048093D1049093D20460918A
:105AA000CF047091D0048091D1049091D20420E071
:105AB00030E44CE956E40E94053918160CF084C411
:105AC00080E090E4ACE9B6E48093CF049093D004F6
:105AD000A093D104B093D20477C4D0930F03C093A2
